:100000000C9458000C9480000C9480000C94800098
:100010000C9480000C9480000C9480000C94800060
:100020000C9480000C9480000C9480000C94800050
:100030000C9480000C9480000C9480000C94800040
:100040000C947A090C9480000C9480000C9480002D
:100050000C9480000C9480000C9480000C94800020
:100060000C94C4090C9480000000000025002800B6
:100070002B00040404040404040402020202020229
:10008000030303030303010204081020408001025C
:1000900004081020010204081020000000080002DB
:1000A0000100000304070000000000000000E30A54
:1000B00011241FBECFEFD8E0DEBFCDBF22E0A0E805
:1000C000B1E001C01D92A438B207E1F711E0A0E051
:1000D000B1E0E8E4F0E202C005900D92A038B1076B
:1000E000D9F710E0C8E5D0E004C02197FE010E94D6
:1000F000250EC735D107C9F70E943C0B0C9422107E
:100100000C94000091E0909323028093450210929A
:10011000240210924602089508950895AF92BF9266
:10012000CF92DF92EF92FF920F931F93CF93DF93C3
:100130006C017B018B01040F151FEB015E01AE18F2
:10014000BF08C017D10759F06991D601ED91FC9114
:100150000190F081E02DC6010995892B79F7C50141
:10016000DF91CF911F910F91FF90EF90DF90CF9093
:10017000BF90AF90089590E0FC01E656FF4F2491A8
:10018000FC01EA57FF4F3491FC01EE58FF4FE49118
:10019000EE23C9F0222339F0233001F1A8F42130F5
:1001A00019F1223029F1F0E0EE0FFF1FE859FF4F5F
:1001B000A591B4918FB7F894EC91611126C0309558
:1001C0003E233C938FBF08952730A9F02830C9F013
:1001D000243049F7809180008F7D03C0809180009A
:1001E0008F7780938000DFCF84B58F7784BDDBCF9E
:1001F00084B58F7DFBCF8091B0008F778093B00066
:10020000D2CF8091B0008F7DF9CF3E2BDACF3FB7B0
:10021000F8948091CA019091CB01A091CC01B0914A
:10022000CD0126B5A89B05C02F3F19F00196A11D51
:10023000B11D3FBFBA2FA92F982F8827BC01CD0130
:10024000620F711D811D911D42E0660F771F881F8F
:10025000991F4A95D1F708958F929F92AF92BF92BE
:10026000CF92DF92EF92FF924B015C010E94070157
:100270006B017C010E9407016C197D098E099F09A1
:10028000683E734081059105A8F321E0821A910828
:10029000A108B10888EEC80E83E0D81EE11CF11C4D
:1002A00081149104A104B10429F7FF90EF90DF902D
:1002B000CF90BF90AF909F908F9008958F929F9214
:1002C000AF92BF92EF92FF921F93CF93DF93EC0117
:1002D000162FE881F9810484F585E02D462F70E022
:1002E00060E009957C0111501230D8F419861A8605
:1002F00088889988AA88BB880E940701688F798FAF
:100300008A8F9B8F8C8E9D8EAE8EBF8EC701DF91A4
:10031000CF911F91FF90EF90BF90AF909F908F90E3
:1003200008958C889D88AE88BF88E6CFDC0118963A
:100330008C911897681710F06FEF680F1B969C91BF
:100340001B97992391F017962C911797962F2111AF
:1003500006C061E0690F90E06817D8F7F7CF1996EB
:100360001C9219971A966C931A97FD01E60FF11DCE
:1003700064856068CD010C945E018F929F92AF926C
:10038000BF92EF92FF920F931F93CF93DF93EC01F5
:10039000462FE881F9810484F585E02D61E070E065
:1003A00009957C018C889D88AE88BF880E940701D2
:1003B000688F798F8A8F9B8F8C8E9D8EAE8EBF8E2D
:1003C00001E010E0EF2811F010E000E08B858823B9
:1003D00091F089858F5F89879F81891760F01986E1
:1003E0008A858F5F8A879885891708F01A866A85BB
:1003F000CE010E949601C801DF91CF911F910F910C
:10040000FF90EF90BF90AF909F908F9008952091B4
:10041000A201260F3327331F21323105ECF420913E
:100420001D02FC0190E080E0243069F082E0089534
:10043000A091A2012191AC014E575E4FA40FB52FA0
:10044000B11D2C930196861798F38091A201680F35
:100450006093A20180E0089581E0089510921D024A
:1004600081E080931C021092F70161E082E10E941A
:10047000BB0061E083E10E94BB00E9EBF0E080811A
:100480008E7F808380818D7F808388E48093B80015
:1004900085E48093BC000895CF93DF9391E090931F
:1004A00081018823B9F0C091B800D091BA00809141
:1004B000BC008A7B8093BC0060E082E10E94BB00AC
:1004C00060E083E10E94BB000E942E02D093BA003C
:1004D000C093B800DF91CF910895CF92DF92EF9251
:1004E000FF920F931F93CF93DF93D091460281E049
:1004F000D13208F09CC0C09145020E9407016B01F7
:100500007C0180911D0281116CC082E080931D02EC
:1005100081E080931C028FEF80931B0210921A02DD
:10052000D0931902A5E2B2E0E9EFF1E080E0D81340
:100530008DC01092F8018091F801CC0FC82BC093A8
:10054000F8018091F701813009F084C01092F70121
:100550000E9407016B017C018091F8018093BB0030
:1005600080911F0290912002A0912102B09122025D
:10057000892B8A2B8B2BA1F00E94070100911F026F
:100580001091200220912102309122026C197D09E4
:100590008E099F09061717072807390708F442C074
:1005A0008091BC0083FDD8CF85EC8093BC000E9475
:1005B00007016B017C0180911D02823009F44CC05F
:1005C00080911B028F3F09F469C080911B02803229
:1005D00009F466C080911B02803309F463C084E093
:1005E00026C080911F0290912002A0912102B0911B
:1005F0002202892B8A2B8B2B09F483CF0E940701BF
:1006000000911F02109120022091210230912202BC
:100610006C197D098E099F090617170728073907E6
:1006200008F06FCF80911E020E944C0285E010926C
:1006300024021092460210922302DF91CF911F9163
:100640000F91FF90EF90DF90CF9008959D9191933F
:100650008F5F6DCF85EEA9CF80911F029091200210
:10066000A0912102B0912202892B8A2B8B2B09F4B5
:10067000A2CF0E94070100911F0210912002209139
:100680002102309122026C197D098E099F090617FB
:1006900017072807390708F08ECFC4CF80E0C7CFEF
:1006A00082E0C5CF83E0C3CF0895E091D601809169
:1006B000D501E81730F4F0E0E952FE4F808190E078
:1006C00008958FEF9FEF08959091D6018091D50105
:1006D0002FEF3FEF981748F4E92FF0E0E952FE4F73
:1006E000208130E09F5F9093D601C90108958091E9
:1006F000D5019091D601891B990B0895CF92DF9275
:10070000EF92FF920F931F93CF93DF937C01CB0166
:100710008A0120912302222389F0EB016B01C40E90
:10072000D51ECC15DD0569F06991D701ED91FC91DD
:100730000190F081E02DC7010995F3CF642F0E944D
:100740000702C801DF91CF911F910F91FF90EF90A9
:10075000DF90CF900895CF93DF931F92CDB7DEB790
:100760006983209123022223F9F02091460220324E
:1007700058F021E030E0FC013383228390E080E0F8
:100780000F90DF91CF91089580912402E82FF0E03F
:10079000EB5DFD4F998190838F5F8093240280935E
:1007A000460281E090E0ECCF61E0CE0101960E942C
:1007B0000702F7CF682F87E492E00C94AB03CF9346
:1007C000DF93D82FC62F8091D40180620E948200CF
:1007D0006D2F87E492E00E94AB036C2F87E492E0D8
:1007E0000E94AB03DF91CF910C946D020F931F9386
:1007F000CF93DF93182FD0E0C0E28C2F0E948200AD
:100800000E946D02082F61E070E080E090E00E949D
:100810002C01011103C01D17D1F0DF5FCF5FC8327B
:1008200061F7C8E38C2F0E9482000E946D02082F9E
:1008300061E070E080E090E00E942C01011103C0B3
:100840001D1729F0DF5FCF5FC03461F7C0E08C2F48
:10085000DF91CF911F910F910895CF93FC01C4A513
:1008600060FF02C086A1C82B61FF02C087A1C82B10
:1008700062FF02C080A5C82B63FF02C081A5C82B00
:100880004130510511F483A1C82B85A18C2B90E038
:100890000E94DA036C2F87E492E0CF910C94AB03B3
:1008A000CF93DF93EC018AA5882349F19BA56623AA
:1008B00011F1913011F58CA788A10E94820089A1C5
:1008C0009AA1029721F489E090E00E94DA036CA5D6
:1008D00087E492E00E94AB030E946D0221E030E0C9
:1008E000811102C030E020E088279927821B930BFA
:1008F000DF91CF9108959923F1F21CA6DDCF8DEF02
:100900009FEFF6CF4F925F926F927F928F929F925E
:10091000AF92BF92EF92FF921F93CF93DF93EC01C0
:1009200088A1882309F459C089A19AA1892B09F4C7
:1009300054C0142F7B014C8C5D8C6E8C7F8C888C0A
:10094000998CAA8CBB8C8DE2881A9108A108B108F9
:100950000E940701681979098A099B0964157505C0
:1009600086059705A8F388A10E94820089A19AA113
:10097000029721F489E090E00E94DA03612F70E091
:1009800084E0759567958A95E1F7A701CE010E94ED
:100990002D0482E0E816F10431F0612F6F70A70199
:1009A000CE010E942D040E946D0221E030E08111F1
:1009B00002C030E020E088279927821B930BDF914B
:1009C000CF911F91FF90EF90BF90AF909F908F902D
:1009D0007F906F905F904F9008958CEF9FEFEFCFD7
:1009E0008DEF9FEF08958DEF9FEF089590E080E0E9
:1009F00008950895CF92DF92EF92FF920F931F9385
:100A0000CF93C82F0E9407016B017C0180911D02CA
:100A1000811164C081E080931D0280931C029FEFCE
:100A200090931B0210921A02109219028093F801FF
:100A30008091F801CC0FC82BC093F8018091F70189
:100A4000813009F07DC01092F7010E9407016B010F
:100A50007C018091F8018093BB0080911F029091EE
:100A60002002A0912102B0912202892B8A2B8B2B8C
:100A7000A1F00E94070100911F0210912002209115
:100A80002102309122026C197D098E099F090617F7
:100A900017072807390708F442C08091BC0083FD7E
:100AA000D8CF85EC8093BC000E9407016B017C01CC
:100AB00080911D02813009F445C080911A02811194
:100AC00063C080911A02E9EFF1E0A7EDB1E090E098
:100AD000981751F121912D939F5FFACF80911F02BA
:100AE00090912002A0912102B0912202892B8A2BA1
:100AF0008B2B09F48BCF0E94070100911F021091EC
:100B0000200220912102309122026C197D098E0968
:100B10009F09061717072807390708F077CF809134
:100B20001E020E944C0280E01092D6018093D501F3
:100B3000CF911F910F91FF90EF90DF90CF9008958C
:100B400085EEB0CF80911F0290912002A0912102EA
:100B5000B0912202892B8A2B8B2B09F4A9CF0E94FA
:100B6000070100911F021091200220912102309173
:100B700022026C197D098E099F090617170728079D
:100B8000390708F095CFCBCF81E09DCFCF93C82F09
:100B90008091D40180620E9482006C2F87E492E0F1
:100BA0000E94AB030E946D028091D401806290E0AC
:100BB0000E94FA0487E492E00E946403CF910895B2
:100BC000CF92DF92EF92FF920F931F93CF93DF9319
:100BD00000E08A30910520F48A5F9E4FFC0100817D
:100BE000D0E0C0E0EE24E394F12C10E097E0C92EB1
:100BF000D12C89E00E94C605B7010C2E01C0660FFA
:100C00000A94EAF796012C1B3D0BA80102C05595EA
:100C100047952A95E2F740FF11C0682B89E00E94B2
:100C2000DF032196C830D10521F7DF91CF911F91C5
:100C30000F91FF90EF90DF90CF900895609568231B
:100C4000EDCF4F925F926F927F928F929F92AF9271
:100C5000BF92EF92FF920F931F93CF93DF93EC011C
:100C60001CA588A1882309F4E1C089A19AA1009755
:100C700009F4DCC0029709F4DCC08CA1882309F4D4
:100C8000D8C07B014C8C5D8C6E8C7F8C888C998C51
:100C9000AA8CBB8C8DE2881A9108A108B1080E9429
:100CA0000701681979098A099B0964157505860584
:100CB0009705A8F38EA1182B8FA1182B88A5182BA8
:100CC00089A5182BEA94EF2811F48BA1182B8CA17D
:100CD000182B88A10E948200612F87E492E00E9475
:100CE000AB030E946D02882301F10FEF1FEF88A173
:100CF0000E9482006CA587E492E00E94AB030E94F0
:100D00006D02882311F00FEF1FEFC801DF91CF9123
:100D10001F910F91FF90EF90BF90AF909F908F9099
:100D20007F906F905F904F90089588A10E948200FD
:100D30008DA1812B90E00E94DA030E946D02811147
:100D4000D4CF88A190E00E94FA0487E492E00E9448
:100D500064037C0197FDC9CF88A10E948200612FA6
:100D600087E492E00E94AB030E946D02082F81117C
:100D7000BCCF8EA190E08E219F21892B09F000E14C
:100D80008FA190E08E219F21892B09F0006288A518
:100D900090E08E219F21892B09F0006489A590E0C5
:100DA0008E219F21892B09F0006888A10E94820072
:100DB0008DA1812B90E00E94DA030E946D028111C7
:100DC00094CF88A190E00E94FA0487E492E00E9408
:100DD00064037C0197FD89CF88A10E948200612F66
:100DE00087E492E00E94AB030E946D0281117DCFE7
:100DF0008EA190E08E219F21892B09F001608FA1A7
:100E000090E08E219F21892B09F0026088A590E057
:100E10008E219F21892B09F0046089A590E08E2105
:100E20009F21892B09F0086010E061CF0CEF1FEFC4
:100E30006CCF0DEF1FEF69CF0F931F93CF93DF930D
:100E4000EC011092D6011092D5011092240210925A
:100E500046020E942E028CE890E09093CF0180938E
:100E6000CE018DE890E09093D1018093D00188A1CC
:100E700081117EC08091800191E0980F9093800154
:100E80000E94F60388A388A1811109C08091800186
:100E900091E0980F909380010E94F60388A318A117
:100EA000112309F46CC089A19AA1892B09F021C1F1
:100EB000812F0E94820060E087E492E00E94AB03F1
:100EC0006FEF87E492E00E94AB030E946D02812FD6
:100ED0000E94820060E087E492E00E94AB030E94DF
:100EE0006D02812F90E00E94FA0487E492E00E9454
:100EF00064038F3F910509F049C082E090E09AA316
:100F000089A388A10E94820060E087E492E00E94A9
:100F1000AB038FEF90E00E94DA030E946D0288A17C
:100F20000E94820086E090E00E94DA038FE790E062
:100F30000E94DA030E946D0288A10E94820089E06B
:100F400090E00E94DA030E946D0288A190E00E9466
:100F5000FA0487E492E00E9464038F3709F002C12B
:100F600027E036E045E054E063E072E0E1E005C1EF
:100F70000E9482000E946D02882309F484CF8CEFC6
:100F80009FEFDF91CF911F910F910895892B29F049
:100F90001AA219A28FEF9FEFF4CF81E090E09AA3FD
:100FA00089A388A10E9482006FEF87E492E00E94EB
:100FB000AB030E946D0288A190E00E94FA0487E4CE
:100FC00092E00E9464038C0188A10E9482006BEF72
:100FD00087E492E00E94AB030E946D0288A190E03A
:100FE0000E94FA0487E492E00E946403980127704B
:100FF00033272730310509F04DC0807F9927803F86
:10100000910509F047C083E0169507958A95E1F7A9
:1010100061E00627017043E057E066E075E0E4E038
:1010200022E0F1E030E081E090E0DC0101C0AA0FB5
:101030003A95EAF7ABA3DC0101C0AA0FFA95EAF7EB
:10104000ACA3DC0102C0AA0FBB1F2A95E2F7ADA337
:101050009C0101C0220FEA95EAF72EA39C0101C072
:10106000220F7A95EAF72FA39C0101C0220F6A95FF
:10107000EAF728A79C0101C0220F5A95EAF729A791
:1010800001C0880F4A95EAF78AA70BA7013081F5BE
:101090008CA72FC0C801807799278037910519F058
:1010A0008DEF9FEF6ECF88A10E9482006FEE87E4E4
:1010B00092E00E94AB030E946D0288A190E00E9422
:1010C000FA0487E492E00E9464038F70992726E077
:1010D00034E00F9711F424E036E00095001F00275C
:1010E000001F47E053E062E071E0E0E0F5E09BCFF5
:1010F0001CA688A10E94820089A19AA1029701F5ED
:1011000085E090E00E94DA0380E290E00E94DA033A
:101110000E946D0288A10E94820060E087E492E054
:101120000E94AB0360E087E492E00E94AB030E9460
:101130006D0288A10E94820089E090E00E94DA039B
:1011400060E087E492E00E94AB030E946D0221E020
:1011500030E0811102C030E020E088279927821B0F
:10116000930B0FCF86FF3BC081FD9ACF21E032E089
:1011700043E054E065E076E0E7E081E090E0DC0108
:1011800002C0AA0FBB1FEA95E2F7ABA31CA2FC01A9
:1011900001C0EE0F7A95EAF7EDA3FC0102C0EE0F55
:1011A000FF1F6A95E2F7EEA3BC0101C0660F5A95D6
:1011B000EAF76FA3BC0102C0660F771F4A95E2F7FA
:1011C00068A7AC0101C0440F3A95EAF749A701C0EE
:1011D000880F2A95EAF78AA791E09BA759CF26E0C6
:1011E00033E042E051E060E077E0E4E0C6CFFB01AD
:1011F00001900020E9F73197AF01461B570B0C9483
:101200008E000E940D10EF92FF920F931F93CF93C9
:10121000DF93EC017B018A0188819981009729F095
:101220002A813B812417350788F4B8016F5F7F4F0F
:101230000E94500F009791F0998388831B830A8343
:101240002C813D81232B11F4FC0110821D830C8322
:10125000B701888199810E941B100CC088819981F7
:10126000009711F00E94C70E198218821D821C82FD
:101270001B821A82CE01DF91CF911F910F91FF90B7
:10128000EF90089585ED8093BC0080911F029091AE
:101290002002A0912102B09122020796A11DB11D4A
:1012A00023E0B695A795979587952A95D1F7209134
:1012B000BC0024FD03C010921D02089540911F023E
:1012C000509120026091210270912202452B462B01
:1012D000472B69F30097A105B10541F025E32A9555
:1012E000F1F700000197A109B109E1CF80911E0239
:1012F0000C944C021F920F920FB60F9211242F9351
:101300003F938F939F93AF93BF938091C60190912A
:10131000C701A091C801B091C9013091C50123E076
:10132000230F2D3758F50196A11DB11D2093C5013E
:101330008093C6019093C701A093C801B093C901DF
:101340008091CA019091CB01A091CC01B091CD01C7
:101350000196A11DB11D8093CA019093CB01A0936A
:10136000CC01B093CD01BF91AF919F918F913F91EF
:101370002F910F900FBE0F901F90189526E8230F06
:101380000296A11DB11DD2CF1F920F920FB60F92E0
:1013900011242F933F934F935F936F937F938F937A
:1013A0009F93AF93BF93EF93FF938091B900887F92
:1013B000803609F44AC0F0F5883209F4A7C018F560
:1013C000803109F49BC0B8F4882309F4F9C088304F
:1013D00009F494C0FF91EF91BF91AF919F918F91CC
:1013E0007F916F915F914F913F912F910F900FBE21
:1013F0000F901F901895883109F488C0803251F7FA
:1014000080931B0214C0803409F49DC040F48033E3
:10141000B9F38833F9F680931B0285ECB0C08035B0
:1014200009F485C0883509F496C0883499F60E947D
:101430004209D0CF883909F48CC038F5883729F0B3
:1014400050F4883611F0803729F683E080931D022E
:101450001092C40157C0883809F47BC0803919F054
:10146000803809F0B7CF8091C401803208F071C094
:10147000E091C40181E08E0F8093C4018091BB0094
:10148000F0E0EC55FE4F80833DC0803B39F0E0F446
:10149000803A09F479C0883A09F09CCF84E08093BF
:1014A0001D021092A3011092A201E091CE01F091D1
:1014B000CF0109958091A20181110FC081E0809335
:1014C000A2011092820109C0803C09F4A6CF883C99
:1014D00009F4A3CF883B09F07DCFE091A30181E01F
:1014E0008E0F8093A301F0E0EE57FE4F8081809332
:1014F000BB009091A3018091A20129C08091F801C5
:101500008093BB0085EC8093BC0064CF90911A025D
:1015100080911902981758F5E0911A0281E08E0F18
:1015200080931A02F0E0E750FE4F8081E9CFE0910E
:101530001A0281E08E0F80931A028091BB00F0E0C6
:10154000E750FE4F808390911A02809119029817FC
:10155000C8F285E8D8CFE0911A0281E08E0F80931F
:101560001A028091BB00F0E0E750FE4F808380912B
:101570001C0281115CCF81E08093F70184EA8093A3
:10158000BC0010921D0226CF85EC8093BC00109207
:101590001D028091C401803230F4E091C401F0E07A
:1015A000EC55FE4F10826091C40170E0E091D001D3
:1015B000F091D10184EA91E009951092C4010ACF1B
:1015C00010921B0234CFCF93DF93E7E4F2E0138253
:1015D000128288EE93E0A0E0B0E084839583A68336
:1015E000B78384E191E091838083C3E5D2E01B82DD
:1015F0001A8286E291E0998388831F82188680EDA3
:1016000097E0A0E0B0E0888B998BAA8BBB8B86E239
:1016100090E0A0E0B0E08C8B9D8BAE8BBF8B1C86E6
:101620001D861E861F861B860E940701688F798F84
:101630008A8F9B8F1C8E1D8E1E8E1F8E8CE391E0D9
:101640009983888382E090E09AA389A380E288A3AB
:1016500090E89BA31CA290E49DA38EA380E18FA39E
:1016600088E088A784E089A782E08AA791E09BA709
:101670008CA7DF91CF910895CF93DF93CDB7DEB7DD
:10168000E9970FB6F894DEBF0FBECDBF789484B54E
:10169000826084BD84B5816084BD85B5826085BD6E
:1016A00085B5816085BD80916E00816080936E00FC
:1016B00010928100809181008260809381008091EE
:1016C000810081608093810080918000816080939F
:1016D00080008091B10084608093B1008091B0005F
:1016E00081608093B00080917A00846080937A005A
:1016F00080917A00826080937A0080917A00816084
:1017000080937A0080917A00806880937A001092AA
:10171000C10080915F0281110CC080916002811133
:1017200008C080916102811104C080916202882307
:1017300021F080915A028F7E59F010925F0280E46E
:101740008093600280E18093610280E58093620271
:1017500082E080935B0280E180935A0264E670E04D
:1017600080E090E00E942C011092570283E592E005
:101770000E941C07892B09F05CC080915B028230BB
:1017800028F08091570288608093570240E362E01E
:1017900070E083E592E00E94820465E070E080E002
:1017A00090E00E942C0140E362E070E083E592E06B
:1017B0000E94820461E070E080E090E00E942C01D1
:1017C00040E362E070E083E592E00E94820461E021
:1017D00070E080E090E00E942C018091570284FD2F
:1017E00007C040E262E070E083E592E00E9482047C
:1017F00060915702606283E592E00E945E0184E09E
:10180000809358026CE083E592E00E945E0161E003
:1018100083E592E00E945E0182E08093590266E0D7
:1018200083E592E00E945E016FEF83E592E00E9403
:10183000500480915502909156029C838B83809135
:1018400057028D83809158028E83809159028F8335
:1018500080915A02888780915B02898780915C021F
:101860008A8780915D028B8780915E028C87809150
:101870005F0290916002A0916102B09162028D8737
:101880009E87AF87B88B8091630290916402A0918C
:101890006502B0916602898B9A8BAB8BBC8B809171
:1018A000670290916802A0916902B0916A028D8BE3
:1018B0009E8BAF8BB88F80916B0290916C02A09140
:1018C0006D02B0916E02898F9A8FAB8FBC8F809121
:1018D0006F0290917002A0917102B09172028D8F8F
:1018E0009E8FAF8FB8A38CE391E09A838983809118
:1018F000730289A380917402909175029BA38AA3BD
:10190000809176028CA3809177028DA380917802DA
:101910008EA3809179028FA380917A0288A780910B
:101920007B0289A780917C028AA780917D028BA788
:1019300080917E028CA780917F028DA71DAA1CAA90
:101940001FAA1EAA19AE18AE48E050E06EE471E07E
:10195000CE01C4960E9403091FA61EA619AA18AAA2
:101960001BAA1AAA46E050E067E571E0CE018E9608
:101970000E94030961E0CE0101960E945E0160E0D1
:10198000CE0101960E9496016EE571E0CE010196AE
:101990000E94F70861E0CE0101960E94960110E0D6
:1019A00000E050E1E52EF12C88AD99AD9701281BA0
:1019B000390BC901969587950817190748F46EE702
:1019C00071E0CE0101960E94F7080F5F1F4FECCF28
:1019D0006EE471E0CE0101960E94F70864EC79E0B4
:1019E00080E090E00E942C0161E0CE0101960E940F
:1019F00096016FE671E0CE0101960E94F70861E062
:101A0000CE0101960E94960110E000E030E1E32E45
:101A1000F12C8AA99BA99701281B390BC90196951E
:101A200087950817190748F46EE771E0CE01019613
:101A30000E94F7080F5F1F4FECCF67E571E0CE0102
:101A400001960E94F70864EC79E080E090E00E9443
:101A50002C0161E0CE0101960E945E0164E670E017
:101A600080E090E00E942C018EA59FA5009711F0C8
:101A70000E94C70E8CA99DA9009711F00E94C70E65
:101A800084E08093D4011092D6011092D501109277
:101A90002402109246020E942E028CE890E090935D
:101AA000CF018093CE018DE890E09093D101809397
:101AB000D0018091D40180620E94820060E087E4BE
:101AC00092E00E94AB036FEF87E492E00E94AB03C9
:101AD00060E087E492E00E94AB0360E087E492E07C
:101AE0000E94AB0360E087E492E00E94AB0360E0F9
:101AF00087E492E00E94AB0360E087E492E00E94FA
:101B0000AB0360E087E492E00E94AB0360E087E40F
:101B100092E00E94AB0360E087E492E00E94AB0396
:101B200060E087E492E00E94AB030E946D0210E047
:101B300000E0EE24E394F12C80E00E94C605B7019A
:101B4000002E01C0660F0A94EAF76095682380E0D2
:101B50000E94DF030F5F1F4F0830110569F790E007
:101B600080E00E94E00580E4F82E00E010E0F092B2
:101B70007C0080917A00806480937A0080917A0062
:101B800086FDFCCF90917800809179008927982775
:101B90008927C397C4F08091D2019091D301019617
:101BA0008A309105B4F49093D3018093D20180914F
:101BB000D2019091D3010E94E00564EF71E080E0D2
:101BC00090E00E942C010115110589F20E9400008D
:101BD000CECF1092D3011092D201E9CF2F923F9233
:101BE0004F925F926F927F928F929F92AF92BF922D
:101BF000CF92DF92EF92FF920F931F93CF93DF93D9
:101C0000CDB7DEB7CA1BDB0B0FB6F894DEBF0FBE35
:101C1000CDBF09942A88398848885F846E847D8482
:101C20008C849B84AA84B984C884DF80EE80FD8084
:101C30000C811B81AA81B981CE0FD11D0FB6F894FA
:101C4000DEBF0FBECDBFED010895EE0FFF1F059063
:101C5000F491E02D09940F931F93CF93DF9382307B
:101C6000910510F482E090E0E0918202F09183020D
:101C700030E020E0B0E0A0E0309799F42115310584
:101C800009F44AC0281B390B24303105D8F58A8164
:101C90009B816115710589F1FB0193838283FE01AC
:101CA00011C0408151810281138148175907E0F02A
:101CB0004817590799F4109761F012960C931297F0
:101CC00013961C933296CF01DF91CF911F910F9104
:101CD00008950093820210938302F4CF21153105F9
:101CE00051F04217530738F0A901DB019A01BD01F9
:101CF000DF01F801C1CFEF01F9CF90938302809308
:101D00008202CDCFFE01E20FF31F81939193225007
:101D1000310939832883D7CF209180023091810205
:101D2000232B41F420910201309103013093810271
:101D3000209380022091000130910101211531058D
:101D400041F42DB73EB74091040150910501241B89
:101D5000350BE0918002F0918102E217F307A0F4C5
:101D60002E1B3F0B2817390778F0AC014E5F5F4FF1
:101D70002417350748F04E0F5F1F509381024093A0
:101D80008002819391939FCFF0E0E0E09CCFCF93CE
:101D9000DF930097E9F0FC01329713821282A09141
:101DA0008202B0918302ED0130E020E01097A1F4AF
:101DB00020813181820F931F209180023091810216
:101DC0002817390709F061C0F0938102E09380027F
:101DD000DF91CF910895EA01CE17DF07E8F54A8138
:101DE0005B819E0141155105B1F7E901FB83EA834F
:101DF00049915991C40FD51FEC17FD0761F48081FB
:101E000091810296840F951FE901998388838281CD
:101E100093819B838A83F0E0E0E012968D919C9100
:101E200013970097B9F52D913C911197CD0102962A
:101E3000820F931F20918002309181022817390769
:101E400039F6309751F51092830210928202B093C6
:101E50008102A0938002BCCFD383C2834081518191
:101E6000840F951FC817D90761F44E5F5F4F8881B3
:101E70009981480F591F518340838A819B819383A5
:101E800082832115310509F0B0CFF0938302E093EE
:101E900082029ECFFD01DC01C0CF13821282D7CF18
:101EA000B0E0A0E0E6E5FFE00C94F00D8C010097B7
:101EB00051F4CB010E942B0E8C01C801CDB7DEB7C7
:101EC000E0E10C940C0EFC01E60FF71F9C01225080
:101ED0003109E217F30708F49DC0D901CD91DC91D7
:101EE0001197C617D70798F0C530D10530F3CE014A
:101EF00004978617970708F3C61BD70B2297C19341
:101F0000D1936D937C93CF010E94C70ED6CF5B0116
:101F1000AC1ABD0A4C018C0E9D1EA0918202B0919C
:101F20008302512C412CF12CE12C109731F580913A
:101F30008002909181028815990509F05CC04616CF
:101F4000570608F058C08091000190910101009758
:101F500041F48DB79EB74091040150910501841B57
:101F6000950BE817F90708F055C0F0938102E0934C
:101F70008002F90171836083A0CF8D919C911197AC
:101F800012966C90129713967C901397A815B9052A
:101F900059F56C0142E0C40ED11CCA14DB0420F1D7
:101FA000AC014A195B09DA011296159780F062823A
:101FB000738251834083D9016D937C93E114F104C2
:101FC00071F0D7011396FC93EE93129776CF229679
:101FD0008C0F9D1FF90191838083F301EFCFF09364
:101FE0008302E093820269CF4816590608F42C0157
:101FF0007D01D3019ACFCB010E942B0E7C0100976B
:1020000049F0AE01B8010E941210C8010E94C70E2B
:10201000870153CF10E000E050CF81E090E0F894CA
:102020000C942210FB01DC0102C001900D92415082
:102030005040D8F70895FB01DC0101900D9200207B
:08204000E1F70895F894FFCFC9
:10204800000084028000FC60DA7366A4DEE0FEF61D
:1020580000000000AB037E03F60454037703640317
:10206800550300000000BD018E00F604F904F604D3
:10207800F3040109F004F00400000000BD018E0023
:10208800F604F9041C07210682045004F0043753AF
:1020980065672D4D69630076302E312E3000544D22
:1020A80045656475636174696F6E2E636F6D00209A
:1020B8002020202020202020202020202020200038
:00000001FF
