:100000000C9463000C948B000C948B000C948B006C
:100010000C948B000C948B000C948B000C948B0034
:100020000C948B000C948B000C948B000C948B0024
:100030000C948B000C948B000C948B000C948B0014
:100040000C94F10A0C948B000C94BF0A0C94990A3E
:100050000C948B000C948B000C948B000C948B00F4
:100060000C943B0B0C948B00000000002400270034
:100070002A000000000023002600290000000008DC
:10008000000201000003040700000000000000005F
:10009000010204081020408001020408102001021F
:1000A0000408102000000000250028002B00040494
:1000B0000404040404040202020202020303030310
:1000C00003035A0C621111241FBECFEFD8E0DEBF2C
:1000D000CDBF23E0A0E9B1E001C01D92A434B20776
:1000E000E1F711E0A0E0B1E0E0E1F8E202C0059044
:1000F0000D92A039B107D9F710E0C2E6D0E004C0F4
:100100002197FE010E94FE11C136D107C9F70E9456
:10011000780D0C94FB130C94000091E09093300246
:1001200080935202109231021092530208951F934D
:10013000CF93DF9311E0180F209105031217A1F15F
:10014000C0910603D0910703215070E060E061F098
:100150008F3FF1F430E050E040E06FEF7FEF80E060
:1001600090E00E94BD11B901FE0140910103509140
:100170000203CF018C1B9D0B8417950798F44081D7
:10018000469FC001479F900D112490833196EDCF7B
:10019000812F90E0982F88270197622F70E00E94AE
:1001A000A911E2CF10930503DF91CF911F9108951C
:1001B000AF92BF92CF92DF92EF92FF920F931F9375
:1001C000CF93DF936C017B018B01040F151FEB01B3
:1001D0005E01AE18BF08C017D10759F06991D6016A
:1001E000ED91FC910190F081E02DC6010995892BDC
:1001F00079F7C501DF91CF911F910F91FF90EF909B
:10020000DF90CF90BF90AF900895FC01538D448D47
:10021000252F30E0842F90E0821B930B541710F0B1
:10022000CF96089501970895FC01918D828D9817BE
:1002300061F0A28DAE0FBF2FB11D5D968C91928D96
:100240009F5F9F73928F90E008958FEF9FEF0895C7
:10025000FC01918D828D981731F0828DE80FF11D90
:10026000858D90E008958FEF9FEF0895FC01918DAB
:10027000228D892F90E0805C9F4F821B91098F73A4
:100280009927089584E592E00E94360121E0892BA8
:1002900009F420E0822F089580E090E0892B29F076
:1002A0000E94420181110C9400000895FC01A48D6C
:1002B000A80FB92FB11DA35ABF4F2C91848D90E088
:1002C00001968F739927848FA689B7892C93A0896B
:1002D000B1898C91837080648C93938D848D9813F5
:1002E00006C00288F389E02D80818F7D8083089588
:1002F000EF92FF920F931F93CF93DF93EC0181E076
:10030000888F9B8D8C8D98131AC0E889F98980811C
:1003100085FF15C09FB7F894EE89FF896083E8894F
:10032000F98980818370806480839FBF81E090E041
:10033000DF91CF911F910F91FF90EF900895F62ECE
:100340000B8D10E00F5F1F4F0F731127E02E8C8D68
:100350008E110CC00FB607FCFACFE889F9898081AD
:1003600085FFF5CFCE010E945601F1CFEB8DEC0F4A
:10037000FD2FF11DE35AFF4FF0829FB7F8940B8FCA
:10038000EA89FB8980818062CFCFCF93DF93EC0134
:10039000888D8823B9F0AA89BB89E889F9898C916D
:1003A00085FD03C0808186FD0DC00FB607FCF7CF29
:1003B0008C9185FFF2CF808185FFEDCFCE010E9429
:1003C0005601E9CFDF91CF910895833081F028F471
:1003D000813099F08230A9F008958730A9F08830F3
:1003E000C9F08430B1F4809180008F7D03C080918A
:1003F00080008F7780938000089584B58F7784BDC7
:10040000089584B58F7DFBCF8091B0008F77809366
:10041000B00008958091B0008F7DF9CFCF93DF9326
:10042000282F30E0F901E458FF4F8491F901E0579B
:10043000FF4FD491F901E255FF4FC491CC23A1F0B5
:1004400081110E94E501EC2FF0E0EE0FFF1FEE5846
:10045000FF4FA591B491EC91ED2381E090E009F478
:1004600080E0DF91CF91089580E090E0FACF1F9374
:10047000CF93DF93282F30E0F901E458FF4F8491A8
:10048000F901E057FF4FD491F901E255FF4FC491B4
:10049000CC23A9F0162F81110E94E501EC2FF0E08A
:1004A000EE0FFF1FEC55FF4FA591B4918FB7F89455
:1004B000EC91111108C0D095DE23DC938FBFDF9142
:1004C000CF911F910895DE2BF8CFCF93DF9390E06B
:1004D000FC01E057FF4F249182559F4FFC0184910E
:1004E0008823D1F090E0880F991FFC01E859FF4F55
:1004F000A591B491FC01EC55FF4FC591D4916111C8
:100500000EC09FB7F8948C91E22FE0958E238C93C8
:100510002881E223E8839FBFDF91CF9108958FB7B1
:10052000F894EC91E22BEC938FBFF6CF3FB7F894A1
:100530008091DE019091DF01A091E001B091E10195
:1005400026B5A89B05C02F3F19F00196A11DB11D2E
:100550003FBFBA2FA92F982F8827BC01CD01620F6A
:10056000711D811D911D42E0660F771F881F991F25
:100570004A95D1F708958F929F92AF92BF92CF92F2
:10058000DF92EF92FF924B015C010E9496026B0199
:100590007C010E9496026C197D098E099F09683EB4
:1005A000734081059105A8F321E0821A9108A10802
:1005B000B10888EEC80E83E0D81EE11CF11C81143E
:1005C0009104A104B10429F7FF90EF90DF90CF9040
:1005D000BF90AF909F908F9008958F929F92AF920F
:1005E000BF92EF92FF921F93CF93DF93EC01162FF0
:1005F000E881F9810484F585E02D462F70E060E004
:1006000009957C0111501230D8F419861A86888811
:100610009988AA88BB880E949602688F798F8A8FF2
:100620009B8F8C8E9D8EAE8EBF8EC701DF91CF913A
:100630001F91FF90EF90BF90AF909F908F90089583
:100640008C889D88AE88BF88E6CFDC0118968C9197
:100650001897681710F06FEF680F1B969C911B9707
:10066000992391F017962C911797962F211106C078
:1006700061E0690F90E06817D8F7F7CF19961C92E0
:1006800019971A966C931A97FD01E60FF11D648570
:100690006068CD010C94ED028F929F92AF92BF9251
:1006A000EF92FF920F931F93CF93DF93EC01462FAE
:1006B000E881F9810484F585E02D61E070E0099519
:1006C0007C018C889D88AE88BF880E949602688FC6
:1006D000798F8A8F9B8F8C8E9D8EAE8EBF8E01E020
:1006E00010E0EF2811F010E000E08B85882391F0F6
:1006F00089858F5F89879F81891760F019868A8530
:100700008F5F8A879885891708F01A866A85CE01D7
:100710000E942503C801DF91CF911F910F91FF9097
:10072000EF90BF90AF909F908F9008952091B4016B
:10073000260F3327331F21323105ECF420912A0292
:10074000FC0190E080E0243069F082E00895A091FF
:10075000B4012191AC014E565E4FA40FB52FB11DCF
:100760002C930196861798F38091B401680F6093DB
:10077000B40180E0089581E0089510922A0281E09A
:10078000809329021092040261E082E10E94370204
:1007900061E083E10E943702E9EBF0E080818E7F27
:1007A000808380818D7F808388E48093B80085E496
:1007B0008093BC000895CF93DF9391E090939101D3
:1007C0008823B9F0C091B800D091BA008091BC00E4
:1007D0008A7B8093BC0060E082E10E94370260E087
:1007E00083E10E9437020E94BD03D093BA00C093F8
:1007F000B800DF91CF910895CF92DF92EF92FF92F0
:100800000F931F93CF93DF93D091530281E0D132A6
:1008100008F09CC0C09152020E9496026B017C01BC
:1008200080912A0281116CC082E080932A0281E0CB
:10083000809329028FEF8093280210922702D09391
:100840002602A2E3B2E0E6E0F2E080E0D8138DC039
:100850001092050280910502CC0FC82BC0930502AF
:1008600080910402813009F084C0109204020E9439
:1008700096026B017C01809105028093BB00809100
:100880002C0290912D02A0912E02B0912F02892B63
:100890008A2B8B2BA1F00E94960200912C021091C2
:1008A0002D0220912E0230912F026C197D098E09A4
:1008B0009F09061717072807390708F442C08091D7
:1008C000BC0083FDD8CF85EC8093BC000E949602CB
:1008D0006B017C0180912A02823009F44CC0809126
:1008E00028028F3F09F469C080912802803209F400
:1008F00066C080912802803309F463C084E026C07A
:1009000080912C0290912D02A0912E02B0912F0285
:10091000892B8A2B8B2B09F483CF0E94960200919E
:100920002C0210912D0220912E0230912F026C1971
:100930007D098E099F09061717072807390708F050
:100940006FCF80912B020E94DB0385E01092310271
:100950001092530210923002DF91CF911F910F91AC
:10096000FF90EF90DF90CF9008959D9191938F5FCE
:100970006DCF85EEA9CF80912C0290912D02A09190
:100980002E02B0912F02892B8A2B8B2B09F4A2CF38
:100990000E94960200912C0210912D0220912E02AD
:1009A00030912F026C197D098E099F0906171707D0
:1009B0002807390708F08ECFC4CF80E0C7CF82E088
:1009C000C5CF83E0C3CF089508950895E091E30172
:1009D0008091E201E81730F4F0E0EC51FE4F8081A5
:1009E00090E008958FEF9FEF08959091E30180913B
:1009F000E2012FEF3FEF981748F4E92FF0E0EC51B8
:100A0000FE4F208130E09F5F9093E301C90108957C
:100A10008091E2019091E301891B990B0895CF9297
:100A2000DF92EF92FF920F931F93CF93DF937C019E
:100A3000CB018A0120913002222389F0EB016B0166
:100A4000C40ED51ECC15DD0569F06991D701ED9175
:100A5000FC910190F081E02DC7010995F3CF642F3F
:100A60000E949603C801DF91CF911F910F91FF90D3
:100A7000EF90DF90CF900895CF93DF931F92CDB783
:100A8000DEB76983209130022223F9F020915302CE
:100A9000203258F021E030E0FC013383228390E0E3
:100AA00080E00F90DF91CF91089580913102E82F7F
:100AB000F0E0EE5CFD4F998190838F5F809331026F
:100AC0008093530281E090E0ECCF61E0CE0101968B
:100AD0000E949603F7CF682F81EF92E00C943C05BB
:100AE0000F931F93CF93DF93182FD0E0C0E28C2F8A
:100AF0000E948D000E94FC03082F61E070E080E0FE
:100B000090E00E94BB02011103C01D17D1F0DF5F0E
:100B1000CF5FC83261F7C8E38C2F0E948D000E941E
:100B2000FC03082F61E070E080E090E00E94BB02CF
:100B3000011103C01D1729F0DF5FCF5FC03461F7DB
:100B4000C0E08C2FDF91CF911F910F910895CF932B
:100B5000FC01C4A560FF02C086A1C82B61FF02C0D2
:100B600087A1C82B62FF02C080A5C82B63FF02C00B
:100B700081A5C82B4130510511F483A1C82B85A153
:100B80008C2B90E00E946B056C2F81EF92E0CF914F
:100B90000C943C05CF93DF93EC018AA5882349F19F
:100BA0009BA5662311F1913011F58CA788A10E94B5
:100BB0008D0089A19AA1029721F489E090E00E941A
:100BC0006B056CA581EF92E00E943C050E94FC033E
:100BD00021E030E0811102C030E020E08827992731
:100BE000821B930BDF91CF9108959923F1F21CA6FC
:100BF000DDCF8DEF9FEFF6CF4F925F926F927F9296
:100C00008F929F92AF92BF92EF92FF921F93CF93DA
:100C1000DF93EC0188A1882309F459C089A19AA126
:100C2000892B09F454C0142F7B014C8C5D8C6E8C85
:100C30007F8C888C998CAA8CBB8C8DE2881A910849
:100C4000A108B1080E949602681979098A099B09CE
:100C50006415750586059705A8F388A10E948D0087
:100C600089A19AA1029721F489E090E00E946B0586
:100C7000612F70E084E0759567958A95E1F7A7018B
:100C8000CE010E94A70582E0E816F10431F0612F41
:100C90006F70A701CE010E94A7050E94FC0321E00E
:100CA00030E0811102C030E020E088279927821BC4
:100CB000930BDF91CF911F91FF90EF90BF90AF907A
:100CC0009F908F907F906F905F904F9008958CEFE2
:100CD0009FEFEFCF8DEF9FEF08958DEF9FEF08957A
:100CE00090E080E008950895CF92DF92EF92FF9216
:100CF0000F931F93CF93C82F0E9496026B017C0124
:100D000080912A02811164C081E080932A0280933D
:100D100029029FEF90932802109227021092260238
:100D20008093050280910502CC0FC82BC093050269
:100D300080910402813009F07DC0109204020E946B
:100D400096026B017C01809105028093BB0080912B
:100D50002C0290912D02A0912E02B0912F02892B8E
:100D60008A2B8B2BA1F00E94960200912C021091ED
:100D70002D0220912E0230912F026C197D098E09CF
:100D80009F09061717072807390708F442C0809102
:100D9000BC0083FDD8CF85EC8093BC000E949602F6
:100DA0006B017C0180912A02813009F445C0809159
:100DB0002702811163C080912702E6E0F2E0A4EEF1
:100DC000B1E090E0981751F121912D939F5FFACFF8
:100DD00080912C0290912D02A0912E02B0912F02B1
:100DE000892B8A2B8B2B09F48BCF0E9496020091C2
:100DF0002C0210912D0220912E0230912F026C199D
:100E00007D098E099F09061717072807390708F07B
:100E100077CF80912B020E94DB0380E01092E301E8
:100E20008093E201CF911F910F91FF90EF90DF909F
:100E3000CF90089585EEB0CF80912C0290912D0235
:100E4000A0912E02B0912F02892B8A2B8B2B09F4B3
:100E5000A9CF0E94960200912C0210912D022091A0
:100E60002E0230912F026C197D098E099F090617F9
:100E700017072807390708F095CFCBCF81E09DCF22
:100E80004F925F926F927F928F929F92AF92BF929A
:100E9000EF92FF920F931F93CF93DF93EC011CA56A
:100EA00088A1882309F4E1C089A19AA1009709F4D7
:100EB000DCC0029709F4DCC08CA1882309F4D8C0F7
:100EC0007B014C8C5D8C6E8C7F8C888C998CAA8C71
:100ED000BB8C8DE2881A9108A108B1080E94960285
:100EE000681979098A099B096415750586059705AE
:100EF000A8F38EA1182B8FA1182B88A5182B89A5D4
:100F0000182BEA94EF2811F48BA1182B8CA1182B25
:100F100088A10E948D00612F81EF92E00E943C0524
:100F20000E94FC03882301F10FEF1FEF88A10E94AC
:100F30008D006CA581EF92E00E943C050E94FC03AD
:100F4000882311F00FEF1FEFC801DF91CF911F91A0
:100F50000F91FF90EF90BF90AF909F908F907F90F8
:100F60006F905F904F90089588A10E948D008DA191
:100F7000812B90E00E946B050E94FC038111D4CF6D
:100F800088A190E00E94740681EF92E00E94F5042F
:100F90007C0197FDC9CF88A10E948D00612F81EF50
:100FA00092E00E943C050E94FC03082F8111BCCFF7
:100FB0008EA190E08E219F21892B09F000E18FA165
:100FC00090E08E219F21892B09F0006288A590E096
:100FD0008E219F21892B09F0006489A590E08E2144
:100FE0009F21892B09F0006888A10E948D008DA1A6
:100FF000812B90E00E946B050E94FC03811194CF2D
:1010000088A190E00E94740681EF92E00E94F504AE
:101010007C0197FD89CF88A10E948D00612F81EF0F
:1010200092E00E943C050E94FC0381117DCF8EA1BD
:1010300090E08E219F21892B09F001608FA190E023
:101040008E219F21892B09F0026088A590E08E21D6
:101050009F21892B09F0046089A590E08E219F21B2
:10106000892B09F0086010E061CF0CEF1FEF6CCF07
:101070000DEF1FEF69CF0F931F93CF93DF93EC0119
:101080001092E3011092E201109231021092530289
:101090000E94BD0383EE94E09093B3018093B2016C
:1010A00084EE94E09093B7018093B60188A18111FA
:1010B0007EC08091900191E0980F909390010E94E2
:1010C000700588A388A1811109C08091900191E0E9
:1010D000980F909390010E94700588A318A1112386
:1010E00009F46CC089A19AA1892B09F021C1812F33
:1010F0000E948D0060E081EF92E00E943C056FEF5E
:1011000081EF92E00E943C050E94FC03812F0E9427
:101110008D0060E081EF92E00E943C050E94FC039C
:10112000812F90E00E94740681EF92E00E94F50406
:101130008F3F910509F049C082E090E09AA389A30E
:1011400088A10E948D0060E081EF92E00E943C0542
:101150008FEF90E00E946B050E94FC0388A10E9423
:101160008D0086E090E00E946B058FE790E00E9482
:101170006B050E94FC0388A10E948D0089E090E02D
:101180000E946B050E94FC0388A190E00E947406F7
:1011900081EF92E00E94F5048F3709F002C127E049
:1011A00036E045E054E063E072E0E1E005C10E9412
:1011B0008D000E94FC03882309F484CF8CEF9FEFFD
:1011C000DF91CF911F910F910895892B29F01AA2D9
:1011D00019A28FEF9FEFF4CF81E090E09AA389A34B
:1011E00088A10E948D006FEF81EF92E00E943C0584
:1011F0000E94FC0388A190E00E94740681EF92E0B7
:101200000E94F5048C0188A10E948D006BEF81EF94
:1012100092E00E943C050E94FC0388A190E00E949D
:10122000740681EF92E00E94F5049801277033273D
:101230002730310509F04DC0807F9927803F910507
:1012400009F047C083E0169507958A95E1F761E0BC
:101250000627017043E057E066E075E0E4E022E035
:10126000F1E030E081E090E0DC0101C0AA0F3A95A6
:10127000EAF7ABA3DC0101C0AA0FFA95EAF7ACA329
:10128000DC0102C0AA0FBB1F2A95E2F7ADA39C01A7
:1012900001C0220FEA95EAF72EA39C0101C0220F9C
:1012A0007A95EAF72FA39C0101C0220F6A95EAF70D
:1012B00028A79C0101C0220F5A95EAF729A701C06F
:1012C000880F4A95EAF78AA70BA7013081F58CA70A
:1012D0002FC0C801807799278037910519F08DEFCD
:1012E0009FEF6ECF88A10E948D006FEE81EF92E09C
:1012F0000E943C050E94FC0388A190E00E947406B5
:1013000081EF92E00E94F5048F70992726E034E087
:101310000F9711F424E036E00095001F0027001F0E
:1013200047E053E062E071E0E0E0F5E09BCF1CA60F
:1013300088A10E948D0089A19AA1029701F585E0FC
:1013400090E00E946B0580E290E00E946B050E9495
:10135000FC0388A10E948D0060E081EF92E00E9472
:101360003C0560E081EF92E00E943C050E94FC0396
:1013700088A10E948D0089E090E00E946B0560E0EA
:1013800081EF92E00E943C050E94FC0321E030E0E6
:10139000811102C030E020E088279927821B930B3F
:1013A0000FCF86FF3BC081FD9ACF21E032E043E0C2
:1013B00054E065E076E0E7E081E090E0DC0102C027
:1013C000AA0FBB1FEA95E2F7ABA31CA2FC0101C068
:1013D000EE0F7A95EAF7EDA3FC0102C0EE0FFF1FB6
:1013E0006A95E2F7EEA3BC0101C0660F5A95EAF7D1
:1013F0006FA3BC0102C0660F771F4A95E2F768A78A
:10140000AC0101C0440F3A95EAF749A701C0880F23
:101410002A95EAF78AA791E09BA759CF26E033E007
:1014200042E051E060E077E0E4E0C6CFFB010190EC
:101430000020E9F73197AF01461B570B0C94D800F9
:101440000E94E613EF92FF920F931F93CF93DF93C7
:10145000EC017B018A0188819981009729F02A811A
:101460003B812417350788F4B8016F5F7F4F0E94D6
:101470002913009791F0998388831B830A832C8119
:101480003D81232B11F4FC0110821D830C83B701D5
:10149000888199810E94F4130CC0888199810097FA
:1014A00011F00E94A012198218821D821C821B82D8
:1014B0001A82CE01DF91CF911F910F91FF90EF9093
:1014C000089585ED8093BC0080912C0290912D02AF
:1014D000A0912E02B0912F020796A11DB11D23E00D
:1014E000B695A795979587952A95D1F72091BC0039
:1014F00024FD03C010922A02089540912C025091BD
:101500002D0260912E0270912F02452B462B472B06
:1015100069F30097A105B10541F025E32A95F1F79C
:1015200000000197A109B109E1CF80912B020C9431
:10153000DB031F920F920FB60F9211242F933F934C
:101540004F935F936F937F938F939F93AF93BF93CB
:10155000EF93FF9384E592E00E945601FF91EF9193
:10156000BF91AF919F918F917F916F915F914F91BB
:101570003F912F910F900FBE0F901F9018951F92C3
:101580000F920FB60F9211242F938F939F93EF9387
:10159000FF93E0916402F09165028081E0916A021C
:1015A000F0916B0282FD1BC0908180916D028F5F74
:1015B0008F7320916E02821741F0E0916D02F0E08E
:1015C000EC5AFD4F958F80936D02FF91EF919F91A3
:1015D0008F912F910F900FBE0F901F9018958081C3
:1015E000F4CF1F920F920FB60F9211242F933F93B7
:1015F0008F939F93AF93BF938091DA019091DB011A
:10160000A091DC01B091DD013091D90123E0230FDD
:101610002D3758F50196A11DB11D2093D901809356
:10162000DA019093DB01A093DC01B093DD0180919E
:10163000DE019091DF01A091E001B091E1010196FE
:10164000A11DB11D8093DE019093DF01A093E00105
:10165000B093E101BF91AF919F918F913F912F91F5
:101660000F900FBE0F901F90189526E8230F02963B
:10167000A11DB11DD2CF1F920F920FB60F92112450
:101680002F933F934F935F936F937F938F939F938A
:10169000AF93BF93EF93FF938091B900887F80361B
:1016A00009F44AC0F0F5883209F4A7C018F5803172
:1016B00009F49BC0B8F4882309F4F9C0883009F410
:1016C00094C0FF91EF91BF91AF919F918F917F91C6
:1016D0006F915F914F913F912F910F900FBE0F909F
:1016E0001F901895883109F488C0803251F7809393
:1016F000280214C0803409F49DC040F48033B9F34B
:101700008833F9F68093280285ECB0C0803509F45F
:1017100085C0883509F496C0883499F60E94610A1C
:10172000D0CF883909F48CC038F5883729F050F4C7
:10173000883611F0803729F683E080932A021092D0
:10174000D80157C0883809F47BC0803919F0803837
:1017500009F0B7CF8091D801803208F071C0E091D4
:10176000D80181E08E0F8093D8018091BB00F0E01A
:10177000E854FE4F80833DC0803B39F0E0F4803A6E
:1017800009F479C0883A09F09CCF84E080932A025A
:101790001092B5011092B401E091B201F091B30141
:1017A00009958091B40181110FC081E08093B4014B
:1017B0001092920109C0803C09F4A6CF883C09F43C
:1017C000A3CF883B09F07DCFE091B50181E08E0F7A
:1017D0008093B501F0E0EE56FE4F80818093BB0010
:1017E0009091B5018091B40129C080910502809348
:1017F000BB0085EC8093BC0064CF90912702809160
:101800002602981758F5E091270281E08E0F809309
:101810002702F0E0EA5FFD4F8081E9CFE0912702E7
:1018200081E08E0F809327028091BB00F0E0EA5F99
:10183000FD4F808390912702809126029817C8F26D
:1018400085E8D8CFE091270281E08E0F80932702B0
:101850008091BB00F0E0EA5FFD4F80838091290218
:1018600081115CCF81E08093040284EA8093BC0004
:1018700010922A0226CF85EC8093BC0010922A0297
:101880008091D801803230F4E091D801F0E0E85442
:10189000FE4F10826091D80170E0E091B601F091A6
:1018A000B70188EB91E009951092D8010ACF109208
:1018B000280234CF109257021092560288EE93E01D
:1018C000A0E0B0E08093580290935902A0935A028E
:1018D000B0935B022FE031E0309355022093540225
:1018E00025EC30E0309361022093600224EC30E07C
:1018F000309363022093620220EC30E03093650263
:101900002093640221EC30E030936702209366025A
:1019100022EC30E0309369022093680226EC30E03C
:1019200030936B0220936A0210926D0210926E0245
:1019300010926F02109270021092F4021092F30251
:101940008093F5029093F602A093F702B093F80209
:1019500081E291E09093F2028093F10210921603DB
:101960001092150383E391E0909314038093130383
:1019700010921A0310921B0380ED97E0A0E0B0E0F4
:101980008093230390932403A0932503B09326030D
:1019900086E290E0A0E0B0E08093270390932803D4
:1019A000A0932903B0932A0310921F0310922003DF
:1019B000109221031092220310921E030E9496029D
:1019C00060932B0370932C0380932D0390932E032D
:1019D00010922F03109230031092310310923203B1
:1019E00089E491E0909314038093130382E090E0E4
:1019F000909335038093340380E28093330390E81F
:101A0000909336031092370390E4909338038093B9
:101A1000390380E180933A0388E080933B0384E0BC
:101A200080933C0392E090933D0381E080933E03DA
:101A300090933F031092FE021092050310920C0344
:101A400010920D0310920E0310920F0380930B035C
:101A5000809308031092090390930A038093FD0278
:101A60008FE090E090930203809301030E940412A0
:101A70009093070380930603009789F12FE0FC0100
:101A800011922A95E9F785E090E090930003809306
:101A9000FF028CE090E09093040380930303809115
:101AA000FE02882341F061E08CE00E94650260E064
:101AB0008CE00E943702EAEBF0E0E491F0E0EE0FF8
:101AC000FF1FEC55FF4F85919491909311038093E4
:101AD0001003ECE9F0E0E491E09312030895109212
:101AE000020310920103109200031092FF02D1CF63
:101AF000CF93DF93CDB7DEB7EE970FB6F894DEBF86
:101B00000FBECDBF789484B5826084BD84B58160FA
:101B100084BD85B5826085BD85B5816085BD8091B8
:101B20006E00816080936E00109281008091810030
:101B30008260809381008091810081608093810028
:101B4000809180008160809380008091B1008460EA
:101B50008093B1008091B00081608093B00080914B
:101B60007A00846080937A0080917A00826080930A
:101B70007A0080917A00816080937A0080917A0067
:101B8000806880937A001092C100E0916402F09125
:101B9000650282E08083E0916002F0916102108230
:101BA000E0916202F09163028FEC808310926C02EC
:101BB000E0916802F091690286E08083E09166021C
:101BC000F0916702808180618083E0916602F091EC
:101BD0006702808188608083E0916602F0916702ED
:101BE000808180688083E0916602F0916702808145
:101BF0008F7D808380911F0381110CC08091200311
:101C0000811108C080912103811104C080912203B9
:101C1000882321F080911A038F7E59F010921F03C0
:101C200080E48093200380E18093210380E580930A
:101C3000220382E080931B0380E180931A0364E611
:101C400070E080E090E00E94BB021092170383E1F5
:101C500093E00E943B08892B09F05CC080911B0334
:101C6000823028F08091170388608093170340E347
:101C700062E070E083E193E00E94FC0565E070E0C3
:101C800080E090E00E94BB0240E362E070E083E10C
:101C900093E00E94FC0561E070E080E090E00E942B
:101CA000BB0240E362E070E083E193E00E94FC0548
:101CB00061E070E080E090E00E94BB028091170339
:101CC00084FD07C040E262E070E083E193E00E949F
:101CD000FC0560911703606283E193E00E94ED02CE
:101CE00084E0809318036CE083E193E00E94ED02AE
:101CF00061E083E193E00E94ED0282E080931903AA
:101D000066E083E193E00E94ED026FEF83E193E0F0
:101D10000E94CA0580911503909116039C838B83C2
:101D2000809117038D83809118038E83809119030E
:101D30008F8380911A03888780911B038987809104
:101D40001C038A8780911D038B8780911E038C87DB
:101D500080911F0390912003A0912103B091220351
:101D60008D879E87AF87B88B809123039091240342
:101D7000A0912503B0912603898B9A8BAB8BBC8BEA
:101D80008091270390912803A0912903B0912A0301
:101D90008D8B9E8BAF8BB88F80912B0390912C03F2
:101DA000A0912D03B0912E03898F9A8FAB8FBC8F9A
:101DB00080912F0390913003A0913103B0913203B1
:101DC0008D8F9E8FAF8FB8A389E491E09A8389832A
:101DD0008091330389A380913403909135039BA3B1
:101DE0008AA3809136038CA3809137038DA38091C1
:101DF00038038EA3809139038FA380913A0388A77B
:101E000080913B0389A780913C038AA780913D0381
:101E10008BA780913E038CA780913F038DA71DAABD
:101E20001CAA1FAA1EAA19AE18AE4BE050E06BE523
:101E300071E0CE01C4960E94220A1FA61EA619AA0E
:101E400018AA1BAA1AAA46E050E067E671E0CE0184
:101E50008E960E94220A61E0CE0101960E94ED0258
:101E600060E0CE0101960E9425036EE671E0CE018E
:101E700001960E94160A61E0CE0101960E94250398
:101E800010E000E050E1E52EF12C88AD99AD97010E
:101E9000281B390BC901969587950817190748F42F
:101EA0006EE871E0CE0101960E94160A0F5F1F4F87
:101EB000ECCF6BE571E0CE0101960E94160A64EC4E
:101EC00079E080E090E00E94BB0261E0CE010196E3
:101ED0000E9425036FE771E0CE0101960E94160A69
:101EE00061E0CE0101960E94250310E000E030E1A0
:101EF000E32EF12C8AA99BA9F701E81BF90BCF016E
:101F0000969587950817190748F46EE871E0CE0199
:101F100001960E94160A0F5F1F4FECCF67E671E033
:101F2000CE0101960E94160A64EC79E080E090E010
:101F30000E94BB0261E0CE0101960E94ED0264E6C0
:101F400070E080E090E00E94BB028EA59FA5009704
:101F500011F00E94A0128CA99DA9009711F00E9477
:101F6000A01260E087E00E94650260E084E00E94C9
:101F7000650260E086E00E94650260E085E00E9404
:101F8000650260E088E00E94650280910303909101
:101F9000040397FD08C061E00E94650260E0809143
:101FA00003030E94370281E08093FE02AA24A394D7
:101FB000F2E3CF2EA4E6BA2EB0E0EB2EB0E0FB2E7B
:101FC00018E0D12E6AE070E080E090E00E94BB0251
:101FD00088E00E940E02892B59F0809104018A2525
:101FE0008093040164EF71E080E090E00E94BB0206
:101FF00086E00E940E02892B61F08091020190918F
:1020000003018F3F91052CF4019690930301809377
:10201000020185E00E940E02892B61F0809102018D
:1020200090910301181619062CF40197909303015F
:102030008093020184E00E940E02892B61F080915E
:102040000001909101018F3F91052CF4019690932E
:1020500001018093000187E00E940E02892B61F04C
:102060008091000190910101181619062CF4019736
:10207000909301018093000110E000E08091FF0245
:102080009091000308171907B8F52091000180917D
:10209000050334E662E3882361F08C9DA0011124DE
:1020A000652F289F90011124232F8B9DC00111249F
:1020B000392FE0910B038091060390910703409123
:1020C0000803E413BBC0A801440F551F400F511F64
:1020D000840F951FE0910803E80FF92FF11D60832D
:1020E000E0910903E80FF92FF11D208320910A03E5
:1020F000820F911DFC013083809102010E949700A4
:1021000080910401811102C00E9497008091060312
:1021100090910703892B09F47FC040900C035090E5
:102120000D0360900E0370900F030E9496026415D9
:1021300075058605970550F40E94960260930C037E
:1021400070930D0380930E0390930F030E949602E9
:1021500040900C0350900D0360900E0370900F039D
:1021600064197509860997096C32714081059105DA
:10217000A0F2F89480910103909102039A838983DD
:10218000E0910603F0910703DF01119680818EAF85
:102190009091FD02E0911003F091110380911203E0
:1021A000992309F457C09081982B9DAF9081809519
:1021B00089238CAF8CAD8CABDEA65DAD6CAD4EAD26
:1021C0003EA52CA989819A81508347FD252F3A95F8
:1021D0002083262F39F0441F00C0000060830000D8
:1021E00000C0F2CF38E04D9160830000019761F7A5
:1021F000F0931103E09310034EAF3EA72CAB9A83EC
:10220000898378940E94960260930C0370930D0367
:1022100080930E0390930F030F5F1F4F053011053E
:1022200009F02CCFE114F10409F4CCCE0E94420154
:10223000882309F4C7CE0E940000C4CEA801440F31
:10224000551F440F551F840F951FE80FF92FF11DDF
:10225000108240CF9081982B9DAF908180958923EB
:102260008CAF8CAD8BAFDAAE5DAD6CAD4EAD3AAD33
:102270002BAD89819A81508347FD252F00C000C076
:10228000208300C000C000C000C000C06083000008
:10229000262F3A9541F0441F000000C000C000C046
:1022A00000C000C0E8CF38E04D9100C0608300C09E
:1022B000019709F7F0931103E09310034EAF3AAF83
:1022C0002BAF9DCF80910603909107030E94A0122F
:1022D000809103039091040397FD03C060E00C9488
:1022E000650208952F923F924F925F926F927F9274
:1022F0008F929F92AF92BF92CF92DF92EF92FF9216
:102300000F931F93CF93DF93CDB7DEB7CA1BDB0BC1
:102310000FB6F894DEBF0FBECDBF09942A88398866
:1023200048885F846E847D848C849B84AA84B9846D
:10233000C884DF80EE80FD800C811B81AA81B98179
:10234000CE0FD11D0FB6F894DEBF0FBECDBFED018D
:102350000895AA1BBB1B51E107C0AA1FBB1FA617EC
:10236000B70710F0A61BB70B881F991F5A95A9F73E
:1023700080959095BC01CD010895052E97FB1EF424
:1023800000940E94D41157FD07D00E94DC1107FC75
:1023900003D04EF40C94D41150954095309521956E
:1023A0003F4F4F4F5F4F0895909580957095619581
:1023B0007F4F8F4F9F4F0895A1E21A2EAA1BBB1B80
:1023C000FD010DC0AA1FBB1FEE1FFF1FA217B30701
:1023D000E407F50720F0A21BB30BE40BF50B661F17
:1023E000771F881F991F1A9469F7609570958095DB
:1023F00090959B01AC01BD01CF010895EE0FFF1F29
:102400000590F491E02D09940F931F93CF93DF93E0
:102410008230910510F482E090E0E0914203F09167
:10242000430330E020E0B0E0A0E0309799F42115BC
:10243000310509F44AC0281B390B24303105D8F581
:102440008A819B816115710589F1FB0193838283E8
:10245000FE0111C040815181028113814817590743
:10246000E0F04817590799F4109761F012960C9311
:10247000129713961C933296CF01DF91CF911F9143
:102480000F9108950093420310934303F4CF211555
:10249000310551F04217530738F0A901DB019A01C9
:1024A000BD01DF01F801C1CFEF01F9CF90934303E4
:1024B00080934203CDCFFE01E20FF31F81939193EE
:1024C0002250310939832883D7CF2091400330919E
:1024D0004103232B41F420910701309108013093EF
:1024E00041032093400320910501309106012115FD
:1024F000310541F42DB73EB74091090150910A01D1
:10250000241B350BE0914003F0914103E217F307E0
:10251000A0F42E1B3F0B2817390778F0AC014E5F53
:102520005F4F2417350748F04E0F5F1F509341034C
:1025300040934003819391939FCFF0E0E0E09CCFE4
:10254000CF93DF930097E9F0FC0132971382128258
:10255000A0914203B0914303ED0130E020E01097D9
:10256000A1F420813181820F931F2091400330918B
:1025700041032817390709F061C0F0934103E09344
:102580004003DF91CF910895EA01CE17DF07E8F508
:102590004A815B819E0141155105B1F7E901FB8339
:1025A000EA8349915991C40FD51FEC17FD0761F4D7
:1025B000808191810296840F951FE9019983888318
:1025C000828193819B838A83F0E0E0E012968D9173
:1025D0009C9113970097B9F52D913C911197CD01DE
:1025E0000296820F931F20914003309141032817D8
:1025F000390739F6309751F5109243031092420390
:10260000B0934103A0934003BCCFD383C2834081E6
:102610005181840F951FC817D90761F44E5F5F4F32
:1026200088819981480F591F518340838A819B81FA
:10263000938382832115310509F0B0CFF0934303D2
:10264000E09342039ECFFD01DC01C0CF13821282D2
:10265000D7CFB0E0A0E0EFE2F3E10C9474118C016D
:10266000009751F4CB010E9404128C01C801CDB730
:10267000DEB7E0E10C949011FC01E60FF71F9C011E
:1026800022503109E217F30708F49DC0D901CD911A
:10269000DC911197C617D70798F0C530D10530F3F4
:1026A000CE0104978617970708F3C61BD70B22970E
:1026B000C193D1936D937C93CF010E94A012D6CF8A
:1026C0005B01AC1ABD0A4C018C0E9D1EA091420309
:1026D000B0914303512C412CF12CE12C109731F592
:1026E00080914003909141038815990509F05CC0E1
:1026F0004616570608F058C08091050190910601D2
:10270000009741F48DB79EB74091090150910A019D
:10271000841B950BE817F90708F055C0F0934103A7
:10272000E0934003F90171836083A0CF8D919C9168
:10273000119712966C90129713967C901397A81588
:10274000B90559F56C0142E0C40ED11CCA14DB0472
:1027500020F1AC014A195B09DA011296159780F055
:102760006282738251834083D9016D937C93E1141B
:10277000F10471F0D7011396FC93EE93129776CF84
:1027800022968C0F9D1FF90191838083F301EFCF77
:10279000F0934303E093420369CF4816590608F4C7
:1027A0002C017D01D3019ACFCB010E9404127C0140
:1027B000009749F0AE01B8010E94EB13C8010E94D6
:1027C000A012870153CF10E000E050CF81E090E0ED
:1027D000F8940C94FB13FB01DC0102C001900D92F4
:1027E00041505040D8F70895FB01DC0101900D9253
:1027F0000020E1F7089510E0C2E6D0E004C0FE0139
:102800000E94FE112196C336D107C9F7F894FFCF75
:1028100064006400010000440380000000000078B0
:1028200001D8000501C5013601140128010000008E
:10283000003C050F057006E5040805F504E60400F4
:102840000000004C03D8007006730670066D062069
:102850000A6A066A06000000004C03D8007006737E
:10286000063B084007FC05CA056A06427574746F8A
:102870006E732D4C45440076302E312E3000544D71
:1028800045656475636174696F6E2E636F6D0020BA
:102890002020202020202020202020202020200058
:00000001FF
