:100000000C9447050C946F050C946F050C946F05C8
:100010000C946F050C946F050C946F050C94FD1EE9
:100020000C946F050C946F050C946F050C946F0580
:100030000C946F050C946F050C946F050C946F0570
:100040000C947F1F0C946F050C946F050C946F0536
:100050000C946F050C946F050C946F050C946F0550
:100060000C94C91F0C946F05000103070F1F3F7FFD
:100070000080C0E0F0F8FCFE00000000003E5B4F96
:100080005B3E3E6B4F6B3E1C3E7C3E1C183C7E3CF8
:10009000181C577D571C1C5E7F5E1C00183C180006
:1000A000FFE7C3E7FF0018241800FFE7DBE7FF3096
:1000B000483A060E2629792926407F050507407F04
:1000C00005253F5A3CE73C5A7F3E1C1C08081C1C77
:1000D0003E7F14227F22145F5F005F5F06097F016D
:1000E0007F006689956A606060606094A2FFA29458
:1000F00008047E040810207E201008082A1C080826
:100100001C2A08081E101010100C1E0C1E0C303873
:100110003E3830060E3E0E06000000000000005F74
:1001200000000007000700147F147F14242A7F2A90
:100130001223130864623649562050000807030052
:10014000001C2241000041221C002A1C7F1C2A089E
:10015000083E080800807030000808080808000001
:1001600060600020100804023E5149453E00427F75
:10017000400072494949462141494D331814127FC4
:100180001027454545393C4A494931412111090764
:100190003649494936464949291E000014000000E5
:1001A00040340000000814224114141414140041B7
:1001B00022140802015909063E415D594E7C121174
:1001C000127C7F494949363E414141227F414141AC
:1001D0003E7F494949417F090909013E4141517327
:1001E0007F0808087F00417F41002040413F017F98
:1001F000081422417F404040407F021C027F7F0460
:1002000008107F3E4141413E7F090909063E4151A8
:10021000215E7F09192946264949493203017F0198
:10022000033F4040403F1F2040201F3F4038403F99
:10023000631408146303047804036159494D4300AF
:100240007F4141410204081020004141417F0402E6
:10025000010204404040404000030708002054547D
:1002600078407F284444383844444428384444285B
:100270007F385454541800087E090218A4A49C78AE
:100280007F0804047800447D40002040403D007F0A
:100290001028440000417F40007C047804787C08EA
:1002A0000404783844444438FC18242418182424BE
:1002B00018FC7C08040408485454542404043F44A3
:1002C000243C4040207C1C2040201C3C4030403CD2
:1002D00044281028444C9090907C4464544C440032
:1002E0000836410000007700000041360800020196
:1002F0000204023C2623263C1EA1A161123A404082
:10030000207A3854545559215555794122545478FE
:1003100042215554784020545579400C1E52721297
:100320003955555559395454545939555454580020
:1003300000457C410002457D420001457C407D1224
:1003400011127DF0282528F07C5455450020545486
:100350007C547C0A097F4932494949323A44444431
:100360003A324A4848303A4141217A3A424020786C
:10037000009DA0A07D3D4242423D3D4040403D3C6D
:1003800024FF2424487E4943662B2FFC2F2BFF0992
:1003900029F620C0887E0903205454794100004486
:1003A0007D413048484A32384040227A007A0A0A71
:1003B000727D0D19317D2629292F282629292926E4
:1003C00030484D4020380808080808080808382F29
:1003D00010C8ACBA2F102834FA00007B00000814B3
:1003E0002A142222142A14085500550055AA55AA89
:1003F00055AAFF55FF55FF000000FF00101010FF29
:1004000000141414FF001010FF00FF1010F010F083
:10041000141414FC001414F700FF0000FF00FF1474
:1004200014F404FC141417101F10101F101F1414C0
:10043000141F00101010F0000000001F101010100A
:100440001F10101010F010000000FF1010101010FE
:1004500010101010FF10000000FF140000FF00FF3C
:1004600000001F10170000FC04F4141417101714D8
:1004700014F404F40000FF00F714141414141414FA
:10048000F700F7141414171410101F101F1414146D
:10049000F4141010F010F000001F101F0000001FD7
:1004A00014000000FC140000F010F01010FF10FF0A
:1004B000141414FF141010101F00000000F010FF9F
:1004C000FFFFFFFFF0F0F0F0F0FFFFFF0000000083
:1004D00000FFFF0F0F0F0F0F3844443844FC4A4A07
:1004E0004A347E02020606027E027E0263554941BC
:1004F000633844443C04407E201E2006027E0202F3
:1005000099A5E7A5991C2A492A1C4C7201724C3006
:100510004A4D4D303048784830BC625A463D3E49DD
:100520004949007E0101017E2A2A2A2A2A44445F81
:10053000444440514A444040444A51400000FF0175
:1005400003E080FF000008086B6B08361236243683
:10055000060F090F060000181800000010100030E8
:1005600040FF0101001F01011E00191D1712003C70
:100570003C3C3C000000000000000000230026007E
:100580002900000000080002010000030407000029
:100590000000000000000200000000240027002AE4
:1005A00000DB40A4A62EAF2000A1C8D300408DAE32
:1005B000D580A80102040810204080010204081020
:1005C0002001020408102000000000250028002B54
:1005D00000040404040404040402020202020203EC
:1005E000030303030300006000000000000000009C
:1005F000000000000000E00000000000000000001B
:100600000000000001E00000000000000000000009
:1006100000000001F00000000000000000000000E9
:10062000000003F0000000000000000000000000D7
:100630000007F000000000000000000000000000C3
:1006400007F8000000000000000000000000000F9C
:10065000F800000003C0007E000001E0007F0FF8FA
:1006600000000003C000FE000001E000FFEFF80002
:10067000000003C000FE000001E000FFFFF80000E2
:100680000003C000F00000000F007FFE7FC00000EC
:1006900003C000F00000000F003FFE7FF83FF1FBB9
:1006A000CFFCFEF3BC3DEFE01FFE7FFF7FFBFFDFD3
:1006B000FEFEFFBC3DEFE01FC6FFFF7FFBFFDFFE3E
:1006C000FEFFBC3DEFE00FE3C7FE787BC3DE1EF00C
:1006D000FFBC3DEF0007FF87FC787BC3DE1EF0F810
:1006E0003C3DEF0001FFFFF0007BC3C01EF0F03C7B
:1006F0003DEF0001F37FE03FFBC3CFFEF0F03C3D58
:10070000EF0003E33F807FFBC3DFFEF0F03C3DEFF3
:100710000007E73C00787BC3DE1EF0F03C3DEF00B5
:1007200007FFBE00787BC3DE1EF0F03C3DEF000704
:10073000FFFE00787BC3DE1EF0F03C3DEF000FFFB4
:10074000FE007FFBFFDFFEF0F03FFDEFE00FFFFF5D
:10075000007FFBFFDFFEF0F03FFDEFE00FF9FF0051
:100760003E79F9CF9EF0F01F3DE7E01FF1FF00005A
:10077000000000000000000000001F80FF007FFF5D
:10078000FFFFFFFFFFFFFFFFE01C007F007FFFFF79
:10079000FFFEB46D888D18E000001F007FFFFFFF93
:1007A000FE95AD7DB577E000000F007FFFFFFFFEF7
:1007B000A5AD9D8D19E0000006007FFFFFFFFEB58F
:1007C000ADEDB57EE00000000000018000000000FB
:1007D0000000000000038000000000000000000096
:1007E00007C000000000000000000007C00000007B
:1007F0000000000000000FC000000000000000002A
:10080000001FE00000000000000000001FE00000EA
:10081000000000000000003FE000000000000000B9
:1008200000003FF00000000000000000007FF0002A
:100830000000000000001FF87FF000000000000032
:10084000003FFE7FF0000000000000003FFF7FF04F
:10085000000000000000001FFFFBE000000000009F
:1008600000000FFFF9FFC00000000000000FFFF9BB
:10087000FFF800000000000007FFF1FFFF0000008C
:1008800000000003FC73FFFF80000000000001FE79
:100890003FFFFF80000000000000FF1E0FFF000070
:1008A00000000000007FFE1FFC00000000000000B0
:1008B0003FFFFFF8000000000000000FDFFFE00036
:1008C0000000000000001F19FFC000000000000031
:1008D000003F3CFF00000000000000007E7CF800AC
:1008E000000000000000007FFE7C0000000000000F
:1008F0000000FFFFFC0000000000000000FFFFFE02
:100900000000000000000000FFFFFE0000000000EB
:10091000000001FFEFFE0000000000000001FFCF1B
:10092000FE0000000000000003FF07FE00000000C2
:1009300000000003FC07FE0000000000000003F0C0
:1009400003FE00000000000000018000FE00000027
:10095000000000000000007E000000000000000019
:1009600000003E000000000000000000000C00003D
:1009700000000000078000FC000003C0000000072A
:100980008001FC000003C0000000078001FC0000A3
:1009900003C0000000078001E00000001E0000000E
:1009A000078001E00000001E007FE3F79FF9FDE7EC
:1009B000787BDFC0FFF7FFBFFDFDFF787BDFC0FF67
:1009C000F7FFBFFDFDFF787BDFC0F0F787BC3DE19F
:1009D000FF787BDE00F0F787BC3DE1F0787BDE003E
:1009E00000F787803DE1E0787BDE007FF7879FFDA1
:1009F000E1E0787BDE00FFF787BFFDE1E0787BDE9A
:100A000000F0F787BC3DE1E0787BDE00F0F787BCC3
:100A10003DE1E0787BDE00F0F787BC3DE1E0787BEC
:100A2000DE00FFF7FFBFFDE1E07FFBDFC0FFF7FF68
:100A3000BFFDE1E07FFBDFC07CF3F39F3DE1E03EE3
:100A40007BCFC00000000000000000000000FFFF9E
:100A5000FFFFFFFFFFFFFFFFC0FFFFFFFFFD68DBA2
:100A6000111A31C0FFFFFFFFFD2B5AFB6AEFC0FFD9
:100A7000FFFFFFFD4B5B3B1A33C0FFFFFFFFFD6B2A
:100A80005BDB6AFDC02200FF2100E8205A2C112404
:100A90001FBECFEFD8E0DEBFCDBF23E0AAE0B2E0BB
:100AA00001C01D92AF35B207E1F712E0A0E0B1E05E
:100AB000E4E5FEE502C005900D92AA30B107D9F732
:100AC00015E0C6E4D5E004C02197FE010E94F02C99
:100AD000C534D107C9F70E947A210C941D2F0C94BC
:100AE000000091E09093E1028093E0021092DF0217
:100AF0001092DE020895089508950895AF92BF926E
:100B0000CF92DF92EF92FF920F931F93CF93DF93D9
:100B10006C017B018B01040F151FEB015E01AE1808
:100B2000BF08C017D10759F06991D601ED91FC912A
:100B30000190F081E02DC6010995892B79F7C50157
:100B4000DF91CF911F910F91FF90EF90DF90CF90A9
:100B5000BF90AF900895FC014481558160817181FF
:100B60008EE293E00C947E05833081F028F481308E
:100B700099F08230A9F008958730A9F08830C9F043
:100B80008430B1F4809180008F7D03C0809180001B
:100B90008F7780938000089584B58F7784BD089502
:100BA00084B58F7DFBCF8091B0008F778093B000AC
:100BB00008958091B0008F7DF9CFCF93DF93282FD8
:100BC00030E0F901EE57FA4F8491F901ED54FA4FF4
:100BD000D491F901EF52FA4FC491CC23A1F08111C5
:100BE0000E94B405EC2FF0E0EE0FFF1FE858FA4F1B
:100BF000A591B491EC91ED2381E090E009F480E0BF
:100C0000DF91CF91089580E090E0FACF1F93CF93CA
:100C1000DF93282F30E0F901EE57FA4F8491F90164
:100C2000ED54FA4FD491F901EF52FA4FC491CC230D
:100C3000A9F0162F81110E94B405EC2FF0E0EE0F01
:100C4000FF1FE953FA4FA591B4918FB7F894EC9137
:100C5000111108C0D095DE23DC938FBFDF91CF91B7
:100C60001F910895DE2BF8CFCF93DF9390E0FC0126
:100C7000ED54FA4F24918F529A4FFC0184918823AE
:100C8000D1F090E0880F991FFC01E956FA4FA59129
:100C9000B491FC01E953FA4FC591D49161110EC092
:100CA0009FB7F8948C91E22FE0958E238C93288146
:100CB000E223E8839FBFDF91CF9108958FB7F89427
:100CC000EC91E22BEC938FBFF6CF3FB7F894809175
:100CD0007F0290918002A0918102B091820226B59C
:100CE000A89B05C02F3F19F00196A11DB11D3FBF64
:100CF000BA2FA92F982F8827BC01CD01620F711D33
:100D0000811D911D42E0660F771F881F991F4A952C
:100D1000D1F708958F929F92AF92BF92CF92DF92B8
:100D2000EF92FF926B017C010E9465064B015C0112
:100D3000C114D104E104F104B9F00E9465066819F8
:100D400079098A099B09683E73408105910580F302
:100D500021E0C21AD108E108F10888EE880E83E08C
:100D6000981EA11CB11CE4CFFF90EF90DF90CF90B4
:100D7000BF90AF909F908F9008958F929F92AF9267
:100D8000BF92EF92FF921F93CF93DF93EC01162F48
:100D9000E881F9810484F585E02D462F70E060E05C
:100DA00009957C0111501230D8F419861A8688886A
:100DB0009988AA88BB880E946506688F798F8A8F78
:100DC0009B8F8C8E9D8EAE8EBF8EC701DF91CF9193
:100DD0001F91FF90EF90BF90AF909F908F900895DC
:100DE0008C889D88AE88BF88E6CFDC0118968C91F0
:100DF0001897681710F06FEF680F1B969C911B9760
:100E0000992391F017962C911797962F211106C0D0
:100E100061E0690F90E06817D8F7F7CF19961C9238
:100E200019971A966C931A97FD01E60FF11D6485C8
:100E30006068CD010C94BD068F929F92AF92BF92D5
:100E4000EF92FF920F931F93CF93DF93EC01462F06
:100E5000E881F9810484F585E02D61E070E0099571
:100E60007C018C889D88AE88BF880E946506688F4B
:100E7000798F8A8F9B8F8C8E9D8EAE8EBF8E01E078
:100E800010E0EF2811F010E000E08B85882391F04E
:100E900089858F5F89879F81891760F019868A8588
:100EA0008F5F8A879885891708F01A866A85CE0130
:100EB0000E94F506C801DF91CF911F910F91FF901D
:100EC000EF90BF90AF909F908F90089561E00C9449
:100ED000BD0620915702260F3327331F21323105DB
:100EE000ECF42091B602FC0190E080E0243069F03F
:100EF00082E00895A09157022191AC01495C5D4FB9
:100F0000A40FB52FB11D2C930196861798F38091ED
:100F10005702680F6093570280E0089581E00895BA
:100F20001092B60281E08093B5021092B00261E0A7
:100F300082E10E94060661E083E10E940606E9EB79
:100F4000F0E080818E7F808380818D7F808388E444
:100F50008093B80085E48093BC000895CF93DF931D
:100F600091E0909336028823B9F0C091B800D091F7
:100F7000BA008091BC008A7B8093BC0060E082E173
:100F80000E94060660E083E10E9406060E94900728
:100F9000D093BA00C093B800DF91CF910895E0914B
:100FA000BD028091BC02E81730F4F0E0E254FD4F3E
:100FB000808190E008958FEF9FEF08959091BD029A
:100FC0008091BC022FEF3FEF981748F4E92FF0E033
:100FD000E254FD4F208130E09F5F9093BD02C90134
:100FE00008958091BC029091BD02891B990B0895D0
:100FF000CF92DF92EF92FF920F931F93CF93DF93E5
:101000007C01CB018A012091E102222389F0EB01CE
:101010006B01C40ED51ECC15DD0569F06991D701B1
:10102000ED91FC910190F081E02DC7010995F3CF7E
:10103000642F0E946907C801DF91CF911F910F9122
:10104000FF90EF90DF90CF900895CF93DF931F92A2
:10105000CDB7DEB769832091E1022223F9F0209118
:10106000DE02203258F021E030E0FC01338322839D
:1010700090E080E00F90DF91CF9108958091DF02A2
:10108000E82FF0E0EA5EFD4F998190838F5F8093B7
:10109000DF028093DE0281E090E0ECCF61E0CE01E0
:1010A00001960E946907F7CF682F82EE92E00C94B8
:1010B0002508CF92DF92EF92FF920F931F93CF9369
:1010C000DF93D091DE0281E0D13208F09CC0C09164
:1010D000E0020E9465066B017C018091B6028111DD
:1010E0006CC082E08093B60281E08093B5028FEFFE
:1010F0008093B4021092B302D093B202A6E1B2E0A0
:10110000E0E9F2E080E0D8138DC01092B102809146
:10111000B102CC0FC82BC093B1028091B0028130D4
:1011200009F084C01092B0020E9465066B017C0138
:101130008091B1028093BB008091B8029091B90276
:10114000A091BA02B091BB02892B8A2B8B2BA1F004
:101150000E9465060091B8021091B9022091BA026E
:101160003091BB026C197D098E099F09061717077C
:101170002807390708F442C08091BC0083FDD8CF0E
:1011800085EC8093BC000E9465066B017C01809118
:10119000B602823009F44CC08091B4028F3F09F44A
:1011A00069C08091B402803209F466C08091B402B3
:1011B000803309F463C084E026C08091B802909126
:1011C000B902A091BA02B091BB02892B8A2B8B2B5A
:1011D00009F483CF0E9465060091B8021091B9020C
:1011E0002091BA023091BB026C197D098E099F09CA
:1011F000061717072807390708F06FCF8091B70245
:101200000E94AE0785E01092DF021092DE0210927B
:10121000E102DF91CF911F910F91FF90EF90DF904E
:10122000CF9008959D9191938F5F6DCF85EEA9CF5B
:101230008091B8029091B902A091BA02B091BB021C
:10124000892B8A2B8B2B09F4A2CF0E946506009173
:10125000B8021091B9022091BA023091BB026C1908
:101260007D098E099F09061717072807390708F017
:101270008ECFC4CF80E0C7CF82E0C5CF83E0C3CF9D
:101280000895FC016370668B848195812681378186
:10129000613039F0633029F0918780873387228766
:1012A0000895318720879387828708952F923F92F0
:1012B0004F925F926F927F928F929F92AF92BF9266
:1012C000CF92DF92EF92FF920F931F93CF93DF9312
:1012D000CDB7DEB76A970FB6F894DEBF0FBECDBFAD
:1012E0009A8F898F7A8369834A01D22E18870F8358
:1012F0003701BC2CDC0159962D913C915A97211550
:10130000310509F015C118968D919C9119976817B0
:1013100079070CF0D7C11A968D919C9148175907FF
:101320000CF0D0C14C2C512CB6E0CB9E600D711D41
:1013300011247C876B87161617060CF0C3C1EA2DA3
:10134000F0E0FA87E98793E0EE0FFF1F9A95E1F747
:10135000F88BEF87CF01840F951F181619060CF034
:10136000B1C1A98DBA8D58968C91811104C0BFEA84
:10137000BD1508F4D394A98DBA8DED91FC91119708
:101380000284F385E02DCD010995B5E0DB9EC00117
:101390001124E981FA81FC83EB83312C212C9C01FF
:1013A00028583F4F388F2F8B4A2D50E05E8B4D8B46
:1013B000EF89F88DE20DF31D44919E828D82D12C30
:1013C000C12C69817A81620D731D7A8B698B842FA0
:1013D00090E09C8B8B8BE98DFA8DA081B18140FFD1
:1013E00082C0F1E0BF126FC0AF126DC01C96ED91CC
:1013F000FC912F813885A4014C0D5D1D69897A8986
:10140000898D9A8D0995EB89FC89F595E7954E2F85
:101410005FEFC51AD50A6D817E818D899E89680F1F
:10142000791F7E836D8398E0C916D10481F6AFEFF2
:101430002A1A3A0AEB81FC81E40DF51DFC83EB834B
:10144000F5E02F16310409F0B3CF2F81388526152A
:101450003705B9F0A98DBA8DED91FC91B1E0BB12C1
:1014600057C0AB1255C069817A816B5F7F4F00888E
:10147000F189E02D830128E030E0A401898D9A8D67
:101480000995A98DBA8DED91FC9111970688F78980
:10149000E02DCD016A960FB6F894DEBF0FBECDBF2A
:1014A000DF91CF911F910F91FF90EF90DF90CF9040
:1014B000BF90AF909F908F907F906F905F904F9074
:1014C0003F902F9009941E96ED91FC91EF80F88447
:1014D00009851A8592014D815E816B817C81898DA0
:1014E0009A8D099590CF2F8138852615370509F4F7
:1014F0008ACF31E0B31207C0A31205C01C96ED914C
:10150000FC91930178CF1E96ED91FC917301E0CF91
:101510006B857C85641975090684F785E02D730158
:101520000F8518899201A401898D9A8D0995A9CFFB
:10153000F90134969491329745915491D91AB7E0B4
:10154000DB9E400D511D1124F901259134913C8BF6
:101550002B8BFA0125903490FA01329674903196D3
:101560003491398B329664903196449041E04C1519
:1015700018F04A1508F07FC0662D062C000C770B7A
:101580007C836B83842D042C000C990B9E838D83AC
:10159000A98DBA8DED91FC9111970284F385E02D10
:1015A000CD010995512CD12CC12CEA2DF0E0FA8700
:1015B000E9872B2D30E03C872B87A401440D511D7A
:1015C00047FC5A95588F4F8B69817A81660D711D42
:1015D00067FC7A957E876D877989C71608F051CFA9
:1015E0002C2D30E04D815E81420F531FA985BA85B5
:1015F0004A9FC0014B9F900D5A9F900D1124FC01F2
:10160000E80DF91DF88BEF87852D612C4F89588DDA
:10161000420F531F5E8B4D8B671408F050C044245B
:101620004394480E877041F4C1010196EB89FC890F
:10163000E20DF31DD4901C01D7FE19C0A98DBA8DFF
:10164000ED91FC91662D70E0B1E0BB1219C0AB12B8
:1016500017C02D853E85620F731F0484F585E02D2C
:101660002F8138854D895E89898D9A8D0995DD0C8C
:101670006394842DD1CF1E821D821C821B8288CF51
:101680004B815C81640F751FAB85BC856A9FC0016F
:101690006B9F900D7A9F900D112469817A81680F5C
:1016A000791F0684F785E02DEF80F88409851A8577
:1016B0009D014F855889898D9A8D0995D8CF570CF2
:1016C000C3948ACF6A960FB6F894DEBF0FBECDBF23
:1016D000DF91CF911F910F91FF90EF90DF90CF900E
:1016E000BF90AF909F908F907F906F905F904F9042
:1016F0003F902F9008958F929F92AF92CF92EF924A
:10170000FF920F931F93CF93DF93EC01262F898DC8
:101710009A8D009709F051C06A30D1F41D861C865D
:101720008D8948E0849F900111248E859F85820FCA
:10173000931F9F878E8781E090E0DF91CF911F916B
:101740000F91FF90EF90CF90AF909F908F90089562
:101750006D3089F3CC88AD888F898823C1F08C8562
:101760009D8536E0C39E800D911D112448855985C5
:101770004817590764F44E855F851D861C8638E03E
:10178000A39EC0011124840F951F9F878E87EA882E
:10179000FB88088919894E855F856C857D85CE011A
:1017A0000E9456092C898C859D8546E0249F800DDA
:1017B000911D11249D878C87BECF6A3069F41D86E8
:1017C0001C86FC013896E4912D898E859F85E29FC9
:1017D000800D911D1124ADCF6D3009F4ACCFFC010B
:1017E00034963491631708F4A6CF3296E491E61745
:1017F00008F4A1CFFC01329685909490462F431BAC
:10180000342F47E0349F800C911C1124F401329650
:1018100034913196E4913323A9F1EE2399F1CC88E8
:10182000F4013596E491AD884F89442301F10E2EE1
:10183000000CFF0BE30FF11DCE9EA001CF9E500DBB
:1018400011246C857D85460F571F6885798564173F
:1018500075076CF44E855F851D861C86FC013896E5
:10186000E491AE9E400D511D11245F874E87EA889A
:10187000FB88088919894E855F856C857D85CE0139
:101880000E945609F4013496E4912C898C859D853B
:10189000E29F800D911D11248DCF6F927F928F92C8
:1018A0009F92AF92BF92CF92DF92EF92FF920F93EF
:1018B0001F93CF93DF93EC016B015A01390148016B
:1018C000E881F9810284F385E02D0995E881F981A9
:1018D0000288F389E02D87019301A501B601CE01AD
:1018E0000995A501480D591D41505109E881F9811B
:1018F0000288F389E02D9301B601CE010995E881B4
:10190000F9810088F189E02D9401A501B601CE018D
:101910000995C60CD71CB60161507109E881F9819F
:101920000088F189E02D9401A501CE010995E88197
:10193000F9810688F789E02DCE01DF91CF911F91C3
:101940000F91FF90EF90DF90CF90BF90AF909F905E
:101950008F907F906F9009946F927F928F929F9259
:10196000AF92BF92CF92DF92EF92FF920F931F93AD
:10197000CF93DF935C01EB016A01490138018701D4
:10198000DC01ED91FC916217730719F56416750679
:101990002CF0962D872D3A01C92ED82E96012619A6
:1019A00037092F5F3F4F048CF58DE02DA301BE0159
:1019B000C5010995DF91CF911F910F91FF90EF9095
:1019C000DF90CF90BF90AF909F908F907F906F905F
:1019D00008954615570591F42617370724F0892DE9
:1019E0004B01C22FD82F9E01281939092F5F3F4F75
:1019F000068CF78DE02DA601B401DACF0284F385C1
:101A0000E02D0995D501ED91FC910488F589E02D33
:101A100083019401A601BE01C5010995D501ED918F
:101A2000FC910688F789E02DC501DF91CF911F91C8
:101A30000F91FF90EF90DF90CF90BF90AF909F906D
:101A40008F907F906F900994EF92FF920F931F9366
:101A5000DC011A960D911C911B9718962D913C91C3
:101A60001997ED91FC9100A0F1A1E02D7B0150E0D0
:101A700040E070E060E009951F910F91FF90EF90BA
:101A800008954F925F926F927F928F929F92AF9242
:101A9000BF92CF92DF92EF92FF920F931F93CF935B
:101AA000DF936C012B015A0139014801DC01ED91F2
:101AB000FC910284F385E02D0995E201640C751C0C
:101AC000D601ED91FC91C615D7055CF40088F1892B
:101AD000E02D87019401A501BE01C601099521965B
:101AE000EFCF0688F789E02DC601DF91CF911F91D6
:101AF0000F91FF90EF90DF90CF90BF90AF909F90AD
:101B00008F907F906F905F904F9009948F929F92EB
:101B1000AF92BF92CF92DF92EF92FF920F931F93FB
:101B2000CF93DF93EC015B014A016901E881F98100
:101B30000284F385E02D099595012C0D3D1D215062
:101B40003109E881F9810488F589E02D7801840163
:101B5000A401B501CE010995E881F9810688F789CC
:101B6000E02DCE01DF91CF911F910F91FF90EF906B
:101B7000DF90CF90BF90AF909F908F9009948F92FD
:101B80009F92AF92BF92CF92DF92EF92FF920F930C
:101B90001F93CF93DF93EC015B014A016901780148
:101BA000E881F9810284F385E02D0995C80CD91CE0
:101BB000860101501109E881F9810488F589E02D39
:101BC0009501A401B501CE010995E881F981068846
:101BD000F789E02DCE01DF91CF911F910F91FF90FA
:101BE000EF90DF90CF90BF90AF909F908F9009942F
:101BF000EF92FF920F931F93DC01ED91FC9100A0F7
:101C0000F1A1E02D09951F910F91FF90EF9008959C
:101C10000F931F93DC01ED91FC91068CF78DE02D65
:101C200009951F910F9108952F923F924F925F92C5
:101C30006F927F928F929F92AF92BF92CF92DF92DC
:101C4000EF92FF920F931F93CF93DF93CDB7DEB741
:101C50006E970FB6F894DEBF0FBECDBF1C017E8F0E
:101C60006D8F6A013E832D8318870F83F88EEF8A6C
:101C7000C801821993092FE130E0A901461B570BD7
:101C80005A834983B601621973097E876D872D8156
:101C90003E81AD8DBE8D2A1B3B0B412C512C320158
:101CA000812C912C5401052E000C660B770B498773
:101CB0005A876B877C87A901330F660B770B4F8799
:101CC000588B698B7A8B9C01990F440B550B298F8C
:101CD0003A8F4B8F5C8F4D855E85052E000C660B11
:101CE000770B4B8B5C8B6D8B7E8BC501B40129858B
:101CF0003A854B855C850E94D12C7101E20EF31E62
:101D0000C301B2012F85388949895A890E94D12C93
:101D1000220D331D698D7A8D8B8D9C8D860E971EBD
:101D2000A81EB91E8B899C89AD89BE89480E591E93
:101D30006A1E7B1E2E153F052CF49E2D8F2D7901DA
:101D4000292F382F2E193F092F5F3F4F0F89188DEC
:101D50004D8D5E8DB7018EEE92E00E94080EAD8D26
:101D6000BE8D1196BE8FAD8F5F9709F0BECF2F81CC
:101D70003885C21AD30AA601DD0C660B770B49879A
:101D80005A876B877C8729813A81AD85BE850E9401
:101D9000F62C2B013C01812C912C54018D819E81CC
:101DA0004F979C01990F440B550B29833A834B8322
:101DB0005C83C501B40129813A814B815C810E9419
:101DC000D12CEF80F884E20EF31EC301B2012F85FF
:101DD000388949895A890E94D12C220D331D4985A1
:101DE0005A856B857C85840E951EA61EB71E6B8951
:101DF0007C898D899E89460E571E681E791E2E1578
:101E00003F052CF49E2D8F2D7901292F382F2E1967
:101E10003F092F5F3F4F0F89188D4D8D5E8DB701A4
:101E20008EEE92E00E94080E8D8D9E8D01969E8F03
:101E30008D8FAD81BE81A817B9070CF0BACF6E9611
:101E40000FB6F894DEBF0FBECDBFDF91CF911F91CB
:101E50000F91FF90EF90DF90CF90BF90AF909F9049
:101E60008F907F906F905F904F903F902F9008954C
:101E70000F931F93DC01ED91FC91048CF58DE02D07
:101E800009951F910F910895DC01ED91FC9100845B
:101E9000F185E02D09943F924F925F926F927F926D
:101EA0008F929F92AF92BF92CF92DF92EF92FF926A
:101EB0000F931F93CF93DF935C017B014A0169016C
:101EC000390187E0680E711C93E0759467949A95C8
:101ED000E1F72B01400E511E10E000E0312CD0E064
:101EE000C0E0CE0187709927330C892B59F4FE018D
:101EF00083E0F595E7958A95E1F7E00FF11FE80D8E
:101F0000F91D349037FE0AC021E030E0A701B50189
:101F10006C0F7D1F8EEE92E00E94440F2196CC162E
:101F2000DD06F9F68FEFE81AF80A060D171DE4141E
:101F3000F504A9F6DF91CF911F910F91FF90EF90DB
:101F4000DF90CF90BF90AF909F908F907F906F90D9
:101F50005F904F903F9008952F923F924F925F92E3
:101F60006F927F928F929F92AF92BF92CF92DF92A9
:101F7000EF92FF920F931F93CF93DF9300D000D087
:101F800000D0CDB7DEB73C016A013E832D83FC82D1
:101F9000EB825801A41AB50AB7FE03C0B194A1940C
:101FA000B1088D809E80861A970A97FE03C091948F
:101FB000819491088A149B045CF0902F812F0D81ED
:101FC0001E819D838E839C2D8D2D6B01692F782F13
:101FD0000C151D055CF09D818E817E836D83692FBC
:101FE000782F902F812F8601C92ED82E1601201A06
:101FF000310A2B012D813E81421A530A57FE03C03C
:10200000519441945108710137FE03C03FEFE31A28
:10201000F30AF594E7948D819E81861797075CF506
:10202000A1E0B0E0BA83A983C016D1064CF1D30178
:10203000ED91FC910484F585E02D2B813C81A80174
:102040006D817E818A149B041CF04D815E81B801F4
:10205000C3010995E418F508F7FE0AC02D813E81F9
:1020600089819A81280F391F3E832D83E20CF31C4E
:102070000F5F1F4FD9CF2FEF3FEF3A832983D4CF84
:1020800026960FB6F894DEBF0FBECDBFDF91CF917D
:102090001F910F91FF90EF90DF90CF90BF90AF9086
:1020A0009F908F907F906F905F904F903F902F9078
:1020B0000895EF92FF920F931F93CF93DF93EC015C
:1020C000EC80FD806E157F050CF070C057FF04C0DA
:1020D000240F351F50E040E08E819F81FA01E20F0E
:1020E000F31F8E179F071CF49C01241B350B12163F
:1020F00013060CF05BC0922F842F869586958695EB
:102100008E9DD0018F9DB00D11246A0F7B1FAF8D66
:10211000B8A1A60FB71F477049F188E0841B482F6C
:10212000682F70E0FB01E059FF4FE491281708F099
:1021300063C0621B71092FEF30E002C0359527950F
:102140006A95E2F7E2230130110539F0B0F102306F
:10215000110561F58C91E82702C08C91E82BEC9376
:10216000941720F12C813D81A20FB31FE92FE41BAE
:10217000E83078F00230110521F58E2F9C91909572
:102180009C932C813D81A20FB31F88508830B0F7FB
:10219000E770EE2359F0F0E0E859FF4FE491013089
:1021A0001105F9F010F10230110519F1DF91CF910D
:1021B0001F910F91FF90EF900895E0958C91E82387
:1021C000CECF81E00115110509F480E081959E2FA5
:1021D0008C932C813D81A20FB31F98509830C0F78B
:1021E000D7CF8C91E82BEC93E1CFE0958C91E8234D
:1021F000FACF8C91E827F7CF0130110509F4ADCF64
:10220000E0F20230110509F4A5CFAE0DBF1DAECF2F
:102210000F931F93CF93DF9377FF04C0260F371FD1
:1022200070E060E0DC011496CD91DC91FB01E20FDF
:10223000F31FCE17DF071CF49E01261B370B121667
:1022400013064CF5FA0157FD3796A3E0F595E7958F
:10225000AA95E1F7EC9FD001ED9FB00DFC9FB00D6A
:1022600011246A0F7B1FDC015F96ED91FC91E60F54
:10227000F71F4770552781E090E001C0880F4A950D
:10228000EAF7482F0130110559F0A8F02E0F3F1F33
:1022900002301105E1F0DF91CF911F910F91089568
:1022A0002E0F3F1FE217F307B1F38191DF01119762
:1022B000842B8C93F7CF80952E0F3F1FE217F307E7
:1022C00051F39191DF01119798239C93F7CFE21777
:1022D000F30709F38191DF01119784278C93F7CFDE
:1022E0000F931F93FA01DC0156964C91569742309A
:1022F000E9F04330A1F1413061F514964D915C91C4
:10230000DA01AE1BBF0BFD01E21BF30B77FD0BC027
:10231000DC0116964D915C916417750724F4AB01AE
:10232000BF010E9408111F910F91089514964D91BD
:102330005C91DA01A61BB70BBD0161507109DC018C
:1023400016964D915C91DA01AE1BBF0BFD01E21BAD
:10235000F30B77FDE8CFAF010E945910E4CF16963A
:102360004D915C91DA01A61BB70BBD01615071095B
:10237000CDCF0F931F93FA01DC0156964C915697DF
:102380004230A9F0433091F1413019F514964D9146
:102390005C91DA01AE1BBF0BFD013197F7FD04C064
:1023A000AB01BF010E9459101F910F91089514961F
:1023B0004D915C91DA01A61BB70BBD01DC011696AD
:1023C0004D915C91DA01AE1BBF0BFD013197621B91
:1023D000730BF7FDE9CFDC0116964D915C91E41784
:1023E000F50714F7AF010E940811DECF16964D9144
:1023F0005C91DA01A61BB70BBD01621B730BCECF3C
:10240000FC0177FD64C080859185681779070CF021
:102410005EC057FD5CC082859385481759070CF054
:1024200056C086898230B1F0833029F1813041F481
:1024300084819581841B950BAB01BC0161507109AE
:102440002130310509F108F443C02230310509F487
:1024500063C0089584819581DC01A61BB70BBD0183
:102460006150710986819781DC01A41BB50BAD0118
:1024700041505109E5CF86819781861B970BBA01A0
:10248000AC0141505109DCCFCA0157FD0796A3E0CA
:1024900095958795AA95E1F7A481B5818A9F9001CA
:1024A0008B9F300D9A9F300D1124620F731F078C84
:1024B000F0A1E02DE60FF71F4770552721E030E02F
:1024C00001C0220F4A95EAF78081822B808308950C
:1024D000CA0157FD079633E0959587953A95E1F740
:1024E000A481B5818A9F90018B9F300D9A9F300DFA
:1024F0001124620F731F078CF0A1E02DE60FF71F68
:102500004770552781E090E001C0880F4A95EAF7AF
:10251000809590818923DACFCA0157FD079623E081
:10252000959587952A95E1F7A481B5818A9F9001B9
:102530008B9F300D9A9F300D1124620F731F078CF3
:10254000F0A1E02DE60FF71F4770552721E030E09E
:1025500001C0220F4A95EAF780818227B7CF0895FC
:102560008EBD00000DB407FEFDCF8EB50895FF921D
:102570000F931F93CF93DF93F82ED92FC62F8091FF
:102580000B0390910C03892B09F447C080910F0332
:102590000E94710580910B0390910C03DC01ED9179
:1025A000FC910190F081E02D60E009950F2D1D2F29
:1025B000D1E0C15080910B0390910C03CF3F31F1DA
:1025C000D03298F00E94590880910F030E94710543
:1025D00080910B0390910C03DC01ED91FC91019033
:1025E000F081E02D60E00995D1E080910B0390919E
:1025F0000C03F8016491DC01ED91FC910190F081F4
:10260000E02D0995DF5F0F5F1F4FD3CFDF91CF9193
:102610001F910F91FF900C945908E0911B03F091CA
:102620001C039081809121038095892380830F2D45
:102630001D2FC15008F438C0F8018491209109037E
:1026400030910A03232B29F00E94B0120F5F1F4F15
:10265000F0CF28E030E040E8E0911703F091180354
:1026600090911F03582F5423D9F05081952B9083BC
:10267000E0911903F0911A03908150912003952B5A
:102680009083E0911903F0911A03508190912003F7
:10269000909595239083469521503109E9F6D6CF40
:1026A000508190959523E3CFDF91CF911F910F91AA
:1026B000FF9008951F93CF93DF93EC018D8D9E8D36
:1026C000892BF9F0162F89A10E9471058D8D9E8DA1
:1026D000DC01ED91FC910190F081E02D60E0099525
:1026E0008D8D9E8DDC01ED91FC910190F081E02DAE
:1026F000612F09958D8D9E8DDF91CF911F910C9447
:102700005908ADA5BEA59C918BA9809589238C9372
:102710008B8D9C8D892B31F0862FDF91CF911F916E
:102720000C94B01228E030E080E8A9A5BAA599A9D8
:10273000462F4823C1F04C91942B9C93ABA5BCA58C
:102740009C914AA9942B9C93ABA5BCA54C919AA9AA
:10275000909594239C9386952150310931F7DF9110
:10276000CF911F9108954C9190959423E6CF8CBD05
:102770009DBD0895FF920F931F93CF93DF93809198
:102780000B0390910C03892B09F487C0209123033C
:1027900030912403409125035091260360E074E2B8
:1027A00084EF90E00E94AF2C20513109410951097A
:1027B00056954795379527952093B80065E085E8AD
:1027C0009AE00E94B7126091F20261508EEE92E0A0
:1027D0000E945A132091F4023091F502C901079624
:1027E00097FD079623E0959587952A95E1F7209127
:1027F000F2023091F302829F8001839F100D929F1D
:10280000100D1124C0910D03D0910E0380910B0384
:1028100090910C030C0F1D1F892B09F47CC0809133
:102820000F030E94710580910B0390910C03DC0152
:10283000ED91FC910190F081E02D60E40995FF2479
:10284000F39480910B0390910C030C171D07E1F199
:10285000BFE1BF15A0F40E94590880910F030E94A8
:10286000710580910B0390910C03DC01ED91FC91BB
:102870000190F081E02D60E40995FF24F3948091AC
:102880000B0390910C036991DC01ED91FC91019097
:10289000F081E02D0995F394D4CF809109039091B4
:1028A0000A03892B31F080912C0390912D030E9413
:1028B000B713E0911D03F0911E03908180912203D4
:1028C0008095892380837ACF0E94590880910B03D9
:1028D00090910C03892B09F45FC02091270330915C
:1028E00028034091290350912A0360E074E284EFA9
:1028F00090E00E94AF2C20513109410951095695B1
:102900004795379527952093B800DF91CF911F9178
:102910000F91FF900895E0911B03F0911C038081BB
:1029200090912103892B80830C171D0779F28991DF
:102930002091090330910A03232B19F00E94B01251
:10294000F3CF28E030E040E8E0911703F09118035E
:1029500090911F03582F5423D9F05081952B9083C9
:10296000E0911903F0911A03908150912003952B67
:102970009083E0911903F0911A0350819091200304
:10298000909595239083469521503109E9F6CCCF57
:10299000508190959523E3CFE0911D03F0911E03A4
:1029A000808190912203892B8083AFCF1F93CF9397
:1029B000DF93EC01162F8D8D9E8D892BB1F12DA902
:1029C0003EA94FA958AD60E074E284EF90E00E9408
:1029D000AF2C20513109410951095695479537953A
:1029E00027952093B80066EA111167EACE010E948C
:1029F0005A138D8D9E8D892B41F129AD3AAD4BAD8A
:102A00005CAD60E074E284EF90E00E94AF2C205156
:102A100031094109510956954795379527952093D6
:102A2000B800DF91CF911F9108958B8D9C8D892BDC
:102A300021F08EAD9FAD0E94B713EFA5F8A990814C
:102A40008CA9809589238083CECFEFA5F8A98081BA
:102A50009CA9892B8083E5CF0F931F93CF93DF939E
:102A6000182FD0E0C0E28C2F0E94710582EE92E018
:102A70000E945908082F61E070E080E090E00E9419
:102A80008A06011103C01D17E1F0DF5FCF5FC83276
:102A900051F7C8E38C2F0E94710582EE92E00E94EC
:102AA0005908082F61E070E080E090E00E948A06FB
:102AB000011103C01D1729F0DF5FCF5FC03451F74C
:102AC000C0E08C2FDF91CF911F910F910895EF926D
:102AD000FF920F931F93882309F1EE24E394F12CC6
:102AE0000FE610E02CE230E045E550E062E170E0F6
:102AF00085E590E00E94140E0DE710E02CE230E036
:102B000043E650E062E170E083E690E00E94140E3C
:102B10001F910F91FF90EF900C94BA13F12CE12CC0
:102B20000EE610E02BE230E046E550E063E170E0B5
:102B300086E590E00E94140E0CE710E02BE230E0F6
:102B400044E650E063E170E084E690E0DFCFEF928E
:102B5000FF920F931F938823A9F0EE24E394F12CA6
:102B60000CE410E02CE230E042E350E062E170E07F
:102B700082E390E00E94140E1F910F91FF90EF905E
:102B80000C94BA13F12CE12C0BE410E02BE230E0B2
:102B900043E350E063E170E083E390E0EBCFEF923A
:102BA000FF920F931F93882309F1EE24E394F12CF5
:102BB0000DE010E02CE230E047E250E062E170E02E
:102BC00087E290E00E94140E10E000E02CE230E07A
:102BD0004AE150E062E170E08AE190E00E94140E68
:102BE0001F910F91FF90EF900C94BA13F12CE12CF0
:102BF0000EE010E02BE230E046E250E063E170E0EE
:102C000086E290E00E94140E01E010E02BE230E03A
:102C100049E150E063E170E089E190E0DFCF2F927D
:102C20003F924F925F926F927F928F929F92AF925C
:102C3000BF92CF92DF92EF92FF920F931F93CF93A9
:102C4000DF9300D000D01F92CDB7DEB78C011B01FF
:102C5000CB01770FAA0BBB0B89839A83AB83BC8311
:102C600080910001823099F18F3F09F4ABC0B0919F
:102C70001502BD83BB2309F492C160E08DE00E9480
:102C8000060661E089E00E94060681E02D81282782
:102C90002093150269817A818B819C810F900F901E
:102CA0000F900F900F90DF91CF911F910F91FF9098
:102CB000EF90DF90CF90BF90AF909F908F907F90DC
:102CC0006F905F904F903F902F900C948A06E6E9AA
:102CD000F5E094919D8397FDCACF61E082E00E9468
:102CE0003406BD81B11186C04801012E000CAA082E
:102CF000BB0860E072E18AE790E0A50194010E94C0
:102D0000D12C29013A0168E478EE81E090E0A50138
:102D100094010E94D12C69017A01A1E0CA1AD1085C
:102D2000E108F108BD81BB2309F44FC1B23009F0BD
:102D300093C184E02FEFC216D104E104F10409F03D
:102D40000CF47BC064E274EF80E090E0A501940194
:102D50000E94D12C69017A0181E0C81AD108E108EA
:102D6000F10885E0AFEFCA16D104E104F10409F0DF
:102D700008F463C062E17AE780E090E0A501940185
:102D80000E94D12C69017A0181E0C81AD108E108BA
:102D9000F10886E09FEFC916D104E104F10409F0BF
:102DA0000CF44BC0730162012AE0F594E794D794C8
:102DB000C7942A95D1F791E0C91AD108E108F10822
:102DC00087E03BC082E080930001E6E9F5E0A49152
:102DD000AD83AF3F09F44BCFA13009F44EC0A0F151
:102DE000A23009F468C08D8187FD41CF61E082E0A7
:102DF0000E9434066801012E000CEE08FF082D81A8
:102E0000223009F07AC04601570160E970ED83E095
:102E100090E0A70196010E94D12C69017A0181E01E
:102E2000C81AD108E108F10883E09FEFC916D10460
:102E3000E104F10411F00CF05CCF9091B100987FA7
:102E4000892B8093B100E4C014BC15BC84B58260AA
:102E500084BD85B5816085BDE3EDF5E0E491F0E0EA
:102E6000EE0FFF1FE953FA4F85919491E5EBF5E0E2
:102E7000E491E0930C021D8230CF109280001092FA
:102E80008100809181008860809381008091810021
:102E9000816080938100E3EDF5E0E491F0E0EE0FD6
:102EA000FF1FE953FA4F85919491E5EBF5E0E4912A
:102EB000E0930B0212CF1092B0001092B1008091FB
:102EC000B00082608093B0008091B10081608093F7
:102ED000B100E3EDF5E0E491F0E0EE0FFF1FE95300
:102EE000FA4F859194919093840280938302E5EB4D
:102EF000F5E0E491E0938502F0CE60E072E18AE7CC
:102F000090E0A70196010E94D12CDA01C901019736
:102F1000A109B109009721E0A207B1056CF46C0189
:102F200091E0AD81A13009F073C080918100887F6C
:102F3000892B809381006CC068E478EE81E090E09A
:102F4000A70196010E94D12C69017A0181E0C81A7B
:102F5000D108E108F10893E0E4CFD0928900C09253
:102F6000880020930D0230930E0240930F0250937D
:102F7000100280916F00826080936F0078CEC092C3
:102F8000B3002093860230938702409388025093C7
:102F900089028091700082608093700068CE61E049
:102FA0008DE00E94060660E06DCE730162019AE03A
:102FB000F594E794D794C7949A95D1F7A1E0CA1AEB
:102FC000D108E108F10895E01FC093E02FEFC21689
:102FD000D104E104F104C1F0BCF062E17AE780E0E1
:102FE00090E0A50194010E94D12C69017A0191E041
:102FF000C91AD108E108F108AFEFCA16D104E104FB
:10300000F10409F094F694E085B5887F892B85BD9D
:103010009801220F331FD1010E94FE2C28EE33E0CD
:1030200040E050E00E94AF2CBD81B13009F495CF53
:10303000B23009F4A4CFB1111ACEC7BC209311024B
:1030400030931202409313025093140280916E0049
:10305000826080936E000BCE84E084CECF93FC011F
:10306000C4A560FF02C086A1C82B61FF02C087A172
:10307000C82B62FF02C080A5C82B63FF02C081A5D8
:10308000C82B4130510511F483A1C82B85A18C2B8D
:1030900090E00E9454086C2F82EE92E0CF910C9445
:1030A0002508CF93DF93EC018AA5882359F19BA5CE
:1030B000662321F1913021F58CA788A10E9471052A
:1030C00089A19AA1029721F489E090E00E94540816
:1030D0006CA582EE92E00E94250882EE92E00E94AA
:1030E000590821E030E0811102C030E020E088275B
:1030F0009927821B930BDF91CF9108959923E1F2D9
:103100001CA6DBCF8DEF9FEFF6CF4F925F926F92B1
:103110007F928F929F92AF92BF92EF92FF921F93F6
:10312000CF93DF93EC0188A1882309F45BC089A1C8
:103130009AA1892B09F456C0142F7B014C8C5D8C0D
:103140006E8C7F8C888C998CAA8CBB8C8DE2881AB3
:103150009108A108B1080E946506681979098A09D1
:103160009B096415750586059705A8F388A10E943B
:10317000710589A19AA1029721F489E090E00E944B
:103180005408612F70E084E0759567958A95E1F7A2
:10319000A701CE010E942E1882E0E816F10431F05A
:1031A000612F6F70A701CE010E942E1882EE92E06F
:1031B0000E94590821E030E0811102C030E020E097
:1031C00088279927821B930BDF91CF911F91FF9046
:1031D000EF90BF90AF909F908F907F906F905F9097
:1031E0004F9008958CEF9FEFEFCF8DEF9FEF0895F5
:1031F0008DEF9FEF089590E080E008950895CF92BD
:10320000DF92EF92FF920F931F93CF93C82F0E94EC
:1032100065066B017C018091B602811164C081E07A
:103220008093B6028093B5029FEF9093B402109200
:10323000B3021092B2028093B1028091B102CC0F1E
:10324000C82BC093B1028091B002813009F07DC0DB
:103250001092B0020E9465066B017C018091B10260
:103260008093BB008091B8029091B902A091BA02FC
:10327000B091BB02892B8A2B8B2BA1F00E94650693
:103280000091B8021091B9022091BA023091BB02AC
:103290006C197D098E099F0906171707280739073A
:1032A00008F442C08091BC0083FDD8CF85EC8093A8
:1032B000BC000E9465066B017C018091B6028130E2
:1032C00009F445C08091B302811163C08091B302BB
:1032D000E0E9F2E0AEEBB2E090E0981751F1219115
:1032E0002D939F5FFACF8091B8029091B902A0917F
:1032F000BA02B091BB02892B8A2B8B2B09F48BCF9E
:103300000E9465060091B8021091B9022091BA029C
:103310003091BB026C197D098E099F0906171707AA
:103320002807390708F077CF8091B7020E94AE07CF
:1033300080E01092BD028093BC02CF911F910F914B
:10334000FF90EF90DF90CF90089585EEB0CF809101
:10335000B8029091B902A091BA02B091BB02892B38
:103360008A2B8B2B09F4A9CF0E9465060091B80225
:103370001091B9022091BA023091BB026C197D09FB
:103380008E099F09061717072807390708F095CFF8
:10339000CBCF81E09DCF4F925F926F927F928F92C1
:1033A0009F92AF92BF92EF92FF920F931F93CF9392
:1033B000DF93EC011CA588A1882309F4EDC089A145
:1033C0009AA1009709F4E8C0029709F4E8C08CA11B
:1033D000882309F4E4C07B014C8C5D8C6E8C7F8C5F
:1033E000888C998CAA8CBB8C8DE2881A9108A108D4
:1033F000B1080E946506681979098A099B09641554
:10340000750586059705A8F38EA1182B8FA1182B9B
:1034100088A5182B89A5182BEA94EF2811F48BA105
:10342000182B8CA1182B88A10E947105612F82EEA8
:1034300092E00E94250882EE92E00E9459088823BB
:1034400011F10FEF1FEF88A10E9471056CA582EEAC
:1034500092E00E94250882EE92E00E94590888239B
:1034600011F00FEF1FEFC801DF91CF911F910F9166
:10347000FF90EF90BF90AF909F908F907F906F9054
:103480005F904F90089588A10E9471058DA1812BB6
:1034900090E00E94540882EE92E00E945908811147
:1034A000D0CF88A190E00E94FF1882EE92E00E94A7
:1034B000DE077C0197FDC5CF88A10E947105612FB1
:1034C00082EE92E00E94250882EE92E00E94590866
:1034D000082F8111B6CF8EA190E08E219F21892BDC
:1034E00009F000E18FA190E08E219F21892B09F046
:1034F000006288A590E08E219F21892B09F000644D
:1035000089A590E08E219F21892B09F0006888A170
:103510000E9471058DA1812B90E00E94540882EEDB
:1035200092E00E94590881118CCF88A190E00E94FE
:10353000FF1882EE92E00E94DE077C0197FD81CFAA
:1035400088A10E947105612F82EE92E00E942508F9
:1035500082EE92E00E945908811173CF8EA190E013
:103560008E219F21892B09F001608FA190E08E218F
:103570009F21892B09F0026088A590E08E219F2170
:10358000892B09F0046089A590E08E219F21892B69
:1035900009F0086010E057CF0CEF1FEF64CF0DEF7C
:1035A0001FEF61CF0F931F93CF93DF93EC01109226
:1035B000BD021092BC021092DF021092DE020E9445
:1035C00090078CE795E090938E0280938D028DE7B3
:1035D00095E090938C0280938B0288A1811188C022
:1035E00080910A0291E0980F90930A020E942C1594
:1035F00088A388A1811109C080910A0291E0980FE7
:1036000090930A020E942C1588A318A1112309F493
:1036100078C089A19AA1892B09F033C1812F0E941A
:10362000710560E082EE92E00E9425086FEF82EE65
:1036300092E00E94250882EE92E00E945908812FB4
:103640000E94710560E082EE92E00E94250882EE01
:1036500092E00E945908812F90E00E94FF1882EEAC
:1036600092E00E94DE078F3F910509F051C082E091
:1036700090E09AA389A388A10E94710560E082EE80
:1036800092E00E9425088FEF90E00E94540882EE9D
:1036900092E00E94590888A10E94710586E090E09E
:1036A0000E9454088FE790E00E94540882EE92E056
:1036B0000E94590888A10E94710589E090E00E944B
:1036C000540882EE92E00E94590888A190E00E947E
:1036D000FF1882EE92E00E94DE078F3709F010C1DA
:1036E00027E036E045E054E063E072E0E1E013C13A
:1036F0000E94710582EE92E00E945908882309F425
:1037000078CF8CEF9FEFDF91CF911F910F910895AC
:10371000892B29F01AA219A28FEF9FEFF4CF81E035
:1037200090E09AA389A388A10E9471056FEF82EEB1
:1037300092E00E94250882EE92E00E94590888A13A
:1037400090E00E94FF1882EE92E00E94DE078C015A
:1037500088A10E9471056BEF82EE92E00E9425081D
:1037600082EE92E00E94590888A190E00E94FF1822
:1037700082EE92E00E94DE079801277033272730FF
:10378000310509F04DC0807F9927803F910509F0F0
:1037900047C083E0169507958A95E1F761E0062713
:1037A000017043E057E066E075E0E4E022E0F1E01C
:1037B00030E081E090E0DC0101C0AA0F3A95EAF721
:1037C000ABA3DC0101C0AA0FFA95EAF7ACA3DC01B8
:1037D00002C0AA0FBB1F2A95E2F7ADA39C0101C04E
:1037E000220FEA95EAF72EA39C0101C0220F7A95D9
:1037F000EAF72FA39C0101C0220F6A95EAF728A7D8
:103800009C0101C0220F5A95EAF729A701C0880F31
:103810004A95EAF78AA70BA7013091F58CA731C02A
:10382000C801807799278037910519F08DEF9FEFB8
:103830006ACF88A10E9471056FEE82EE92E00E942D
:10384000250882EE92E00E94590888A190E00E942B
:10385000FF1882EE92E00E94DE078F70992726E023
:1038600034E00F9711F424E036E00095001F0027A4
:10387000001F47E053E062E071E0E0E0F5E099CF3F
:103880001CA688A10E94710589A19AA1029721F521
:1038900085E090E00E94540880E290E00E94540885
:1038A00082EE92E00E94590888A10E94710560E0B2
:1038B00082EE92E00E94250860E082EE92E00E9493
:1038C000250882EE92E00E94590888A10E947105A5
:1038D00089E090E00E94540860E082EE92E00E944D
:1038E000250882EE92E00E94590821E030E0811123
:1038F00002C030E020E088279927821B930B03CF7A
:1039000086FF3BC081FD92CF21E032E043E054E0EE
:1039100065E076E0E7E081E090E0DC0102C0AA0F1C
:10392000BB1FEA95E2F7ABA31CA2FC0101C0EE0F9E
:103930007A95EAF7EDA3FC0102C0EE0FFF1F6A952E
:10394000E2F7EEA3BC0101C0660F5A95EAF76FA338
:10395000BC0102C0660F771F4A95E2F768A7AC0169
:1039600001C0440F3A95EAF749A701C0880F2A958C
:10397000EAF78AA791E09BA751CF26E033E042E027
:1039800051E060E077E0E4E0C6CF2091F4023091AE
:10399000F502C901079697FD079623E0959587954F
:1039A0002A95E1F72091F2023091F302829FA00163
:1039B000839F500D929F500D112470E060E0809124
:1039C0000D0390910E030C94F52E0E94E72EFB013F
:1039D00001900020E9F73197AF01461B570B0C947B
:1039E0007E05AF92BF92CF92DF92EF92FF920F933C
:1039F0001F93CF93DF93FC0124813581FB01448128
:103A00005581E901C41BD50B4115510541F1211523
:103A1000310529F12417350710F1C217D30710F02B
:103A2000E90121975B01FC01C080D180C6010FEF45
:103A30001FEF7601EC0EFD1EE816F90690F0F50179
:103A4000608171810E94032F009759F09C012C190D
:103A50003D09C217D30708F089010196EDCF0FEF9A
:103A60001FEFC801DF91CF911F910F91FF90EF9051
:103A7000DF90CF90BF90AF9008950F931F93CF9397
:103A8000DF93EC0188819981009759F02A813B816D
:103A90002617370730F081E0DF91CF911F910F910A
:103AA00008958B016F5F7F4F0E942A2E009759F077
:103AB000998388831B830A832C813D81232B59F7AB
:103AC000FC011082E8CF80E0E7CFCF93DF93EC01D9
:103AD00088819981009711F00E94A12D1982188286
:103AE0001D821C821B821A82DF91CF910895EF9272
:103AF000FF920F931F93CF93DF93EC017B01198209
:103B000018821B821A821D821C82FB0101900020F8
:103B1000E9F731978F01061B170BB8010E943D1D75
:103B2000811109C0CE01DF91CF911F910F91FF90BC
:103B3000EF900C94651D1D830C83B70188819981DA
:103B4000DF91CF911F910F91FF90EF900C94FC2E7D
:103B50009F92AF92BF92CF92DF92EF92FF920F931C
:103B60001F93CF93DF937C016B015A0189012417C6
:103B7000350720F48B2D5901042F182F69E072E0CE
:103B8000C7010E94771DD6011496CD91DC91AC1629
:103B9000BD0650F50C171D0708F4E801D601ED919C
:103BA000FC911197EC0FFD1F908010820D911C91DC
:103BB0000A0D1B1D0115110571F0F801019000207F
:103BC000E9F731975F01A01AB10AB501C7010E9458
:103BD0003D1D811116C0C7010E94651DD6018D9142
:103BE0009C91C80FD91F9882C701DF91CF911F9177
:103BF0000F91FF90EF90DF90CF90BF90AF909F908C
:103C00000895F701B582A482B801808191810E9454
:103C1000FC2EE4CFFC0180819181009711F00C947F
:103C2000A12D08950F931F93CF93DF93CDB7DEB7E8
:103C30002C970FB6F894DEBF0FBECDBF8C018EE27D
:103C400093E00E946607F80184819581419708F40A
:103C500059C068E072E0CE0101960E94771DBE0156
:103C60006F5F7F4FC8010E94F11C9C0150E040E053
:103C7000B801CE0107960E94A81DCE0107960E94AA
:103C8000AB05CE0107960E940A1ECE0101960E9446
:103C90000A1E61E08EE293E00E94F50668E072E0A1
:103CA000CE0101960E94771DBE016F5F7F4FC80154
:103CB0000E94F11CF80124813581AC014F5F5F4FF8
:103CC000B801CE0107960E94A81DCE0107960E945A
:103CD000AB05CE0107960E940A1ECE0101960E94F6
:103CE0000A1E68EE73E080E090E00E948A062C963F
:103CF0000FB6F894DEBF0FBECDBFDF91CF911F91FD
:103D00000F910895C8010E94AB05EBCFCF93DF93CD
:103D100000D000D000D0CDB7DEB78730D8F4E82F80
:103D2000F0E0EB56F14E0C94F02C9C1EB31EB61E28
:103D3000B91EBC1EBF1EC21E61E771E0CE01019616
:103D40000E94771DCE0101960E94121ECE0101969F
:103D50000E940A1E26960FB6F894DEBF0FBECDBF96
:103D6000DF91CF9108956FE771E0E8CF6AE871E0E5
:103D7000E5CF64E971E0E2CF67EA71E0DFCF69EB9C
:103D800071E0DCCF65EC71E0D9CF85ED8093BC00AC
:103D90008091B8029091B902A091BA02B091BB0291
:103DA0000796A11DB11D23E0B695A7959795879518
:103DB0002A95D1F72091BC0024FD03C01092B602D1
:103DC00008954091B8025091B9026091BA02709181
:103DD000BB02452B462B472B69F30097A105B10584
:103DE00041F025E32A95F1F700000197A109B109F7
:103DF000E1CF8091B7020C94AE071F920F920FB6DD
:103E00000F9211242F933F934F935F936F937F9360
:103E10008F939F93AF93BF93EF93FF93809186020D
:103E200090918702A0918802B0918902892B8A2BF8
:103E30008B2BD1F190918502E0918302F091840265
:103E40008081892780838091860290918702A0914A
:103E50008802B0918902181619061A061B069CF4EE
:103E60008091860290918702A0918802B091890288
:103E70000197A109B1098093860290938702A093CC
:103E80008802B0938902FF91EF91BF91AF919F910A
:103E90008F917F916F915F914F913F912F910F90F3
:103EA0000FBE0F901F90189580910001E6E9F5E094
:103EB000E4919FEF90930001E13051F030F0E23057
:103EC00069F060E00E940606DECF10926E00F9CF26
:103ED00090916F009D7F90936F00F3CF9091700051
:103EE0009D7F9093700091E09093B0009091B1000D
:103EF000987F94609093B1001092B300E2CF1F922C
:103F00000F920FB60F9211242F933F938F939F938D
:103F1000AF93BF9380917B0290917C02A0917D0230
:103F2000B0917E0230917A0223E0230F2D3758F5AD
:103F30000196A11DB11D20937A0280937B0290937C
:103F40007C02A0937D02B0937E0280917F029091CB
:103F50008002A0918102B09182020196A11DB11D43
:103F600080937F0290938002A0938102B09382029B
:103F7000BF91AF919F918F913F912F910F900FBE65
:103F80000F901F90189526E8230F0296A11DB11DD2
:103F9000D2CF1F920F920FB60F9211242F933F93FF
:103FA0004F935F936F937F938F939F93AF93BF9341
:103FB000EF93FF938091B900887F803609F44AC05F
:103FC000F0F5883209F4A7C018F5803109F49BC0D8
:103FD000B8F4882309F4F9C0883009F494C0FF913B
:103FE000EF91BF91AF919F918F917F916F915F9171
:103FF0004F913F912F910F900FBE0F901F901895EA
:10400000883109F488C0803251F78093B40214C01B
:10401000803409F49DC040F48033B9F38833F9F655
:104020008093B40285ECB0C0803509F485C0883532
:1040300009F496C0883499F60E94C51ED0CF8839FD
:1040400009F48CC038F5883729F050F4883611F01F
:10405000803729F683E08093B6021092790257C028
:10406000883809F47BC0803919F0803809F0B7CF5F
:1040700080917902803208F071C0E091790281E08C
:104080008E0F809379028091BB00F0E0E75AFD4FDC
:1040900080833DC0803B39F0E0F4803A09F479C078
:1040A000883A09F09CCF84E08093B60210925802BF
:1040B00010925702E0918D02F0918E020995809145
:1040C000570281110FC081E080935702109237028E
:1040D00009C0803C09F4A6CF883C09F4A3CF883BF3
:1040E00009F07DCFE091580281E08E0F8093580255
:1040F000F0E0E95CFD4F80818093BB009091580215
:104100008091570229C08091B1028093BB0085EC59
:104110008093BC0064CF9091B3028091B202981753
:1041200058F5E091B30281E08E0F8093B302F0E086
:10413000E057FD4F8081E9CFE091B30281E08E0F1F
:104140008093B3028091BB00F0E0E057FD4F808385
:104150009091B3028091B2029817C8F285E8D8CF47
:10416000E091B30281E08E0F8093B3028091BB0097
:10417000F0E0E057FD4F80838091B50281115CCF64
:1041800081E08093B00284EA8093BC001092B60272
:1041900026CF85EC8093BC001092B6028091790204
:1041A000803230F4E0917902F0E0E75AFD4F10825E
:1041B0006091790270E0E0918B02F0918C0289E5C8
:1041C00092E00995109279020ACF1092B40234CF8E
:1041D0000F931F93CF93DF9302EE12E0F801138247
:1041E000128288EE93E0A0E0B0E084839583A683FA
:1041F000B7838BE091E091838083CEE2D3E01B8292
:104200001A8289E491E0998388831F82188680ED61
:1042100097E0A0E0B0E0888B998BAA8BBB8B86E2FD
:1042200090E0A0E0B0E08C8B9D8BAE8BBF8B1C86AA
:104230001D861E861F861B860E946506688F798FE5
:104240008A8F9B8F1C8E1D8E1E8E1F8E8FE591E098
:104250009983888382E090E09AA389A380E288A36F
:1042600090E89BA31CA290E49DA38EA380E18FA362
:1042700088E088A784E089A792E09AA781E08BA7CD
:104280009CA7EEEEF2E01382128240E850E05583E4
:10429000448320E230E03783268351874087338789
:1042A0002287168A1586148617861686858B848B38
:1042B0002FEF3FEF338B228B318B208B878B108E30
:1042C000128E118E8DE191E091838083148E138E76
:1042D000168F058F10A2178E8FEF84A385A386A358
:1042E00087A310A680E586AF17AEDF91CF911F910F
:1042F0000F910895CF93DF93CDB7DEB7E9970FB64F
:10430000F894DEBF0FBECDBF789484B5826084BDC3
:1043100084B5816084BD85B5826085BD85B58160C9
:1043200085BD80916E00816080936E001092810047
:104330008091810082608093810080918100816002
:1043400080938100809180008160809380008091C3
:10435000B10084608093B1008091B000816080934F
:10436000B00080917A00846080937A0080917A0016
:10437000826080937A0080917A00816080937A00D5
:1043800080917A00806880937A001092C1008091B9
:104390003A0381110CC080913B03811108C08091C8
:1043A0003C03811104C080913D03882321F080915A
:1043B00035038F7E59F010923A0380E480933B03DB
:1043C00080E180933C0380E580933D0382E080930D
:1043D000360380E18093350364E670E080E090E08E
:1043E0000E948A06109232038EE293E00E94D21A53
:1043F000892B09F05BC080913603823028F08091D0
:10440000320388608093320340E362E070E08EE222
:1044100093E00E94851865E070E080E090E00E94E3
:104420008A0640E362E070E08EE293E00E94851825
:1044300061E070E080E090E00E948A0640E362E084
:1044400070E08EE293E00E94851861E070E080E009
:1044500090E00E948A068091320384FD07C040E20A
:1044600062E070E08EE293E00E9485186091320372
:1044700060628EE293E00E94BD0684E08093330385
:104480006CE08EE293E00E94BD068EE293E00E9413
:10449000660782E08093340366E08EE293E00E9438
:1044A000BD066FEF8EE293E00E94511880913003B9
:1044B000909131039C838B83809132038D83809113
:1044C00033038E83809134038F83809135038887F3
:1044D000809136038987809137038A8780913803DA
:1044E0008B87809139038C8780913A0390913B03AD
:1044F000A0913C03B0913D038D879E87AF87B88B19
:1045000080913E0390913F03A0914003B0914103FD
:10451000898B9A8BAB8BBC8B809142039091430328
:10452000A0914403B09145038D8B9E8BAF8BB88FC8
:104530008091460390914703A0914803B0914903AD
:10454000898F9A8FAB8FBC8F80914A0390914B03D8
:10455000A0914C03B0914D038D8F9E8FAF8FB8A368
:104560008FE591E09A83898380914E0389A380919E
:104570004F03909150039BA38AA3809151038CA376
:10458000809152038DA3809153038EA38091540395
:104590008FA38091550388A78091560389A78091A6
:1045A00057038AA7809158038BA7809159038CA742
:1045B00080915A038DA762ED71E0CE01C4960E94EE
:1045C000771D61EE71E0CE018E960E94771DCE01BF
:1045D00001960E94660760E0CE0101960E94F506F2
:1045E00068EE71E0CE0101960E94E71C61E0CE0109
:1045F00001960E94F50610E000E050E1E52EF12C56
:1046000088AD99AD9701281B390BC90196958795FF
:104610000817190748F468E072E0CE0101960E947D
:10462000E71C0F5F1F4FECCF62ED71E0CE010196EA
:104630000E94E71C64EC79E080E090E00E948A062A
:1046400061E0CE0101960E94F50669EF71E0CE01AE
:1046500001960E94E71C61E0CE0101960E94F506DA
:1046600010E000E030E1E32EF12C8AA99BA9A7011C
:10467000481B590BCA01969587950817190748F4E6
:1046800068E072E0CE0101960E94E71C0F5F1F4FA9
:10469000ECCF61EE71E0CE0101960E94E71C64EC64
:1046A00079E080E090E00E948A06CE0101960E94A7
:1046B000660764E670E080E090E00E948A06CE0122
:1046C0008E960E940A1ECE01C4960E940A1E8091F8
:1046D0000D0390910E03892B11F10E94C51C2091AE
:1046E000F4023091F5028091F2029091F3022132AE
:1046F00031050CF0C9C0B9016052710977FF02C0E1
:104700006F5F7F4F759567958357910997FD019668
:1047100000E210E023E730E045EE55E0C8C020910C
:10472000F4023091F502C901079697FD0796B3E0B0
:1047300095958795BA95E1F72091F2023091F302B1
:10474000AC01429FC001439F900D529F900D1124D8
:104750000E94052D90930E0380930D03892B09F081
:10476000BCCF0E94C51C61E08DE00E94340661E070
:1047700089E00E94340661E082E00E94340660E035
:1047800084E00E94340660E087E00E94340660E026
:1047900088E00E94340681E00E94CF1581E00E94EB
:1047A000A71581E00E94671580E00E94CF1580E088
:1047B0000E94A71580E00E94671580918F020E94D9
:1047C000861E00E010E087E0F82EEE24EA9484E0F4
:1047D0000E94DD05892BD1F080918F02811102C0EA
:1047E000F0928F0280918F02815080938F0281E03E
:1047F0000E94CF1584E00E94DD05892BD9F780E067
:104800000E94CF1580918F020E94861E87E00E9431
:10481000DD05892BD1F080918F02863010F0E09277
:104820008F0280918F028F5F80938F0281E00E94C0
:10483000671587E00E94DD05892BD9F780E00E948B
:10484000671580918F020E94861E88E00E94DD0518
:10485000892B09F402C281E00E94A71587E00E941B
:10486000DD05892BD9F7E0918F02E73008F0F2C11E
:10487000F0E0E35CFB4D0C94F02C18263426A727BF
:1048800090287929382BC12BB9016054710977FF21
:1048900002C06F5F7F4F759567958255910997FDAF
:1048A000019600E410E022E530E045EC57E09595F4
:1048B00087950E944B0F82E08093100380910B0339
:1048C00090910C03892B09F4BDC08CE380930F03F6
:1048D0001092BD021092BC021092DF021092DE0212
:1048E0000E9490078CE795E090938E0280938D0252
:1048F0008DE795E090938C0280938B0280910B035F
:1049000090910C03892B09F45CC120912303309111
:104910002403409125035091260360E074E284EF64
:1049200090E00E94AF2C2051310941095109569560
:104930004795379527952093B80064E08FEA95E076
:104940000E94B7126091F40261508EEE92E00E94D4
:104950005A1364E08BEA95E00E94B712809110032D
:1049600064E1813009F460E18EEE92E00E945A1316
:1049700064E087EA95E00E94B7128FE880932B03EA
:104980008091F2029091F3028038910509F032C1D2
:104990008091F4029091F5028034910509F03AC1BA
:1049A00080911003813009F423C18FEC80932B0395
:1049B00012E16AED8EEE92E00E945A13612F8EEEA4
:1049C00092E00E945A1361E88EEE92E00E945A1320
:1049D00060912B038EEE92E00E945A1369ED8EEEE9
:1049E00092E00E945A138091100361EF813009F424
:1049F00062E28EEE92E00E945A1366E081EA95E050
:104A00000E94B71280910B0390910C03892B09F43B
:104A100005C120912703309128034091290350912B
:104A20002A0360E074E284EF90E00E94AF2C2051F2
:104A30003109410951095695479537952795209396
:104A4000B8008FCE61E0809114030E94340661E0CB
:104A5000809115030E94340680911403082E000CE7
:104A6000990BFC01EF52FA4FE491F0E0EE0FFF1FBB
:104A7000E953FA4F2591349130931C0320931B0383
:104A8000FC01ED54FA4FE491E0932103809115036A
:104A9000082E000C990BFC01EF52FA4FE491F0E064
:104AA000EE0FFF1FE953FA4FA591B491B0931E0387
:104AB000A0931D03FC01ED54FA4FE491E09322030F
:104AC0008C91E82BEC938091090390910A03892B38
:104AD00009F434C01FB7F89480918A02811127C06D
:104AE000EBEDF5E08491EDEBF5E09491E82FF0E04B
:104AF000EE0FFF1FE956FA4FA591B491EC91E9230F
:104B000021F461E08AE00E94060661E08AE00E94EA
:104B100034068CB580618CBD8CB580648CBD61E041
:104B20008DE00E94340661E08BE00E9434068091A3
:104B30008A028F5F80938A021FBFE0CE61E080917E
:104B400012030E94340661E0809113030E94340630
:104B500080911203082E000C990BFC01EF52FA4FC2
:104B6000E491F0E0EE0FFF1FE953FA4F25913491E5
:104B70003093180320931703FC01ED54FA4FE4918E
:104B8000E0931F0380911303082E000C990BFC0186
:104B9000EF52FA4FE491F0E0EE0FFF1FE953FA4FA6
:104BA000A591B491B0931A03A0931903FC01ED549D
:104BB000FA4FE491E09320038C91E095E823EC9385
:104BC0009DCE8091090390910A03892B31F0809149
:104BD0002C0390912D030E94B713E0911D03F091D7
:104BE0001E03908180912203809589238083A5CE26
:104BF0008FE9DCCE8036910569F48091F4029091C2
:104C0000F502409739F480911003813029F08FEA42
:104C100080932B0312E0CDCE80E1FACFE0911D030B
:104C2000F0911E03808190912203892B808399CD7E
:104C300068E770E090E080E00E940F1668E770E09F
:104C400087E994E00E940F1660EE71E087E194E03E
:104C50000E940F1680E00E94A7150115110509F4A6
:104C6000B6CD0E940000B3CD6BEB70E084EE92E015
:104C70000E940F166BEB70E084EE92E00E940F161C
:104C80006BEB70E084EE92E00E940F166BEB70E02D
:104C90008BE492E00E940F166BEB70E090E080E0F6
:104CA0000E940F166BEB70E08DEE91E00E940F16E4
:104CB0006BEB70E090E080E00E940F166BEB70E011
:104CC00083E992E00E940F166BEB70E090E080E0C9
:104CD0000E940F166BEB70E083E992E00E940F16C2
:104CE0006BEB70E090E080E00E940F166BEB70E0E1
:104CF00083E992E00E940F166BEB70E08EE393E085
:104D00000E940F166BEB70E08EE393E00E940F168B
:104D10006BEB70E080E793E00E940F166BEB70E0A6
:104D20008BED93E00E940F166BEB70E080E793E051
:104D30000E940F166BEB70E080E793E00E940F1665
:104D40006BEB70E080E793E00E940F166BEB70E076
:104D500083E992E00E940F166BEB70E090E080E038
:104D60000E940F166BEB70E08BE492E00E940F162E
:104D70006BEB70E090E080E00E940F166BEB70E050
:104D800084EE92E00E940F166BEB70E090E080E002
:104D90000E940F166BEB70E084EE92E00E940F16FB
:104DA0006BEB70E090E080E00E940F166BEB70E020
:104DB00084EE92E00E940F166BEB70E083E992E0C4
:104DC0000E940F166BEB70E083E992E00E940F16D1
:104DD0006BEB70E084EE92E00E940F166BEB70E0DC
:104DE00083E992E00E940F166BEB70E084EE92E094
:104DF0000E940F166BEB70E084EE92E00E940F169B
:104E00006BEB70E084EE92E00E940F166BEB70E0AB
:104E10008BE492E00E940F166BEB70E090E080E074
:104E20000E940F166BEB70E08DEE91E00E940F1662
:104E30006BEB70E090E080E00E940F166BEB70E08F
:104E400083E992E00E940F166BEB70E090E080E047
:104E50000E940F166BEB70E083E992E00E940F1640
:104E60006BEB70E090E080E00E940F166BEB70E05F
:104E700083E992E00E940F166BEB70E08EE393E003
:104E80000E940F166BEB70E08EE393E00E940F160A
:104E90006BEB70E080E793E00E940F166BEB70E025
:104EA0008BED93E00E940F166BEB70E080E793E0D0
:104EB0000E940F166BEB70E080E793E00E940F16E4
:104EC0006BEB70E080E793E00E940F166BEB70E0F5
:104ED00083E992E00E940F166BEB70E090E080E0B7
:104EE0000E940F166BEB70E08BE492E00E940F16AD
:104EF0006BEB70E090E080E00E940F166BEB70E0CF
:104F000084EE92E00E940F166BEB70E090E080E080
:104F10000E940F166BEB70E084EE92E00E940F1679
:104F20006BEB70E090E080E00E940F166BEB70E09E
:104F300084EE92E00E940F166BEB70E083E992E042
:104F40000E940F166BEB70E083E992E081CE66EA77
:104F500070E090E080E00E940F1666EA70E084EE58
:104F600092E00E940F1666EA70E084EE92E00E94E2
:104F70000F1666EA70E084EE92E00E940F1667EE6C
:104F800073E08BED93E00E940F1667EE73E088EC00
:104F900095E00E940F1666EA70E087E295E00E94B5
:104FA0000F1666EA70E08DED94E00E940F1666EA37
:104FB00070E085E594E00E940F1667EE73E088EBE1
:104FC00097E00E940F1663EF71E088EC95E00E9475
:104FD0000F1666EA70E087E295E00E940F1666EA17
:104FE00070E08DED94E00E940F1666EA70E085E5B2
:104FF00094E00E940F1667EE73E088EB97E00E9442
:105000000F1663EF71E088EC95E00E940F1666EAD8
:1050100070E087E295E00E940F1666EA70E08DED81
:1050200094E00E940F1666EA70E087E295E00E9425
:105030000F1667EE73E085E594E00E940F1666EAAE
:1050400070E084EE92E00E940F1666EA70E084EE53
:1050500092E00E940F1666EA70E084EE92E00E94F1
:105060000F1667EE73E08BED93E00E940F1667EE6C
:1050700073E088EC95E00E940F1666EA70E087E224
:1050800095E00E940F1666EA70E08DED94E00E94B4
:105090000F1666EA70E085E594E00E940F1667EE51
:1050A00073E088EB97E00E940F1663EF71E088ECE5
:1050B00095E00E940F1666EA70E087E295E00E9494
:1050C0000F1666EA70E08DED94E00E940F1666EA16
:1050D00070E085E594E00E940F1667EE73E088EBC0
:1050E00097E00E940F1663EF71E088EC95E00E9454
:1050F0000F1666EA70E087E295E00E940F1666EAF6
:1051000070E08DED94E00E940F1666EA70E087E291
:1051100095E00E940F166AE972E085E594E098CD6B
:1051200062EC71E080E193E00E940F166BE470E0A6
:1051300090E080E00E940F1662EC71E08BE092E05C
:105140000E940F166BE470E090E080E00E940F1662
:1051500064E873E084EE92E00E940F166BE470E066
:1051600090E080E00E940F1660E770E080E193E03D
:105170000E940F166BE470E090E080E00E940F1632
:1051800060E770E080E793E00E940F166BE470E048
:1051900090E080E00E940F1666E970E080E193E005
:1051A0000E940F166BE470E090E080E00E940F1602
:1051B00066E970E083E992E00E940F166BE470E00C
:1051C00090E080E00E940F1666E970E08BE092E0CC
:1051D0000E940F166BE470E090E080E00E940F16D2
:1051E0006CE271E084EE92E00E940F166BE470E0D6
:1051F00090E080E00E940F1660E770E080E193E0AD
:105200000E940F166BE470E090E080E00E940F16A1
:1052100060E770E080E793E00E940F166BE470E0B7
:1052200090E080E00E940F1661EE70E080E193E074
:105230000E940F166BE470E090E080E00E940F1671
:1052400061EE70E08BE492E00E940F166BE470E078
:1052500090E080E00E940F1661EE70E080E193E044
:105260000E940F166BE470E090E080E00E940F1641
:1052700061EE70E087E994E00E940F166BE470E045
:1052800090E080E00E940F1662EC71E087E994E004
:105290000E940F166BE470E090E080E00E940F1611
:1052A0006CE271E085E594E00E940F166BE470E01B
:1052B00090E080E00E940F1660E770E08BED93E0D5
:1052C0000E940F166BE470E090E080E00E940F16E1
:1052D00060E770E085E594E00E940F166BE470E0F3
:1052E00090E080E00E940F1664E873E087E994E0A4
:1052F000AFCC6EE470E087E994E00E940F166EE494
:1053000070E08DED94E00E940F166EE470E087E986
:1053100094E00E940F166EE470E08DED94E00E9420
:105320000F166EE470E087E994E00E940F166EE4B9
:1053300070E08DED94E00E940F166EE470E087E956
:1053400094E00E940F166EE470E08DED94E00E94F0
:105350000F166EE470E087E994E00E940F166EE489
:1053600070E087E994E00E940F166EE470E08DED26
:1053700094E00E940F166EE470E087E295E00E94D0
:105380000F166EE470E085E795E00E940F166EE45C
:1053900070E088EC95E00E940F166EE470E080E209
:1053A00096E00E940F166DE970E080E296E00E94A0
:1053B0000F166BE371E090E080E00E940F166DE93C
:1053C00070E080E296E00E940F166BE371E090E0DF
:1053D00080E00E940F166DE970E089E497E00E947A
:1053E0000F166DE970E090E080E00E940F166DE905
:1053F00070E08DE298E00E940F166DE970E090E099
:1054000080E00E940F166DE970E080E296E00E9455
:105410000F166BE371E090E080E00E940F166DE9DB
:1054200070E080E296E00E940F166BE371E090E07E
:1054300080E00E940F166DE970E085E795E00E941C
:105440000F166DE970E090E080E00E940F166DE9A4
:1054500070E088EC95E00E940F166DE970E090E036
:1054600080E00E940F166DE970E080E296E00E94F5
:105470000F166BE371E090E080E00E940F166DE97B
:1054800070E080E296E00E940F166BE371E090E01E
:1054900080E00E940F166DE970E089E497E00E94B9
:1054A0000F166DE970E090E080E00E940F166DE944
:1054B00070E08DE298E00E940F166DE970E090E0D8
:1054C00080E00E940F166DE970E080E296E00E9495
:1054D0000F166BE371E090E080E00E940F166DE91B
:1054E00070E080E296E00E940F166BE371E090E0BE
:1054F00080E00E940F166DE970E085E795E00E945C
:105500000F166DE970E090E080E00E940F166DE9E3
:1055100070E088EC95E00E940F166DE970E090E075
:1055200080E00E940F166DE970E089E497E00E9428
:105530000F166DE970E080E296E00E940F166EEEA5
:1055400074E087E994E00E940F166EE470E090E04A
:1055500080E00E940F166DE970E089E497E00E94F8
:105560000F166DE970E080E296E00E940F166EEE75
:1055700074E085E594E00E940F166EE470E090E020
:1055800080E00E940F166DE970E089E497E00E94C8
:105590000F166DE970E080E296E00E940F166EEE45
:1055A00074E087E194E00E940F166DE970E084EAF0
:1055B00093E00E940F166BE371E087E194E00E9494
:1055C0000F166EEE74E090E080E00E940F166EE41D
:1055D00070E090E080E00E940F166DE970E084EAD0
:1055E00093E00E940F166DE970E080E193E00E9465
:1055F0000F166EEE74E088EC95E00E940F166EE4D4
:1056000070E090E080E00E940F166DE970E084EA9F
:1056100093E00E940F166DE970E080E193E00E9434
:105620000F166EEE74E085E795E00E940F166EE4AB
:1056300070E090E080E00E940F166DE970E084EA6F
:1056400093E00E940F166DE970E080E193E00E9404
:105650000F166EEE74E087E295E00E940F166DE97A
:1056600070E08DED94E00E940F166BE371E03ECE8A
:1056700060EF70E08EE393E00E940F1660EF70E041
:1056800083E992E00E940F1660EF70E08EE393E0F2
:105690000E940F1660EF70E085E594E00E940F16FF
:1056A00060EE71E080E793E00E940F1660EE71E01B
:1056B00090E080E00E940F1660EF70E084EE92E0D0
:1056C0000E940F1660EF70E08EE692E00E940F16C7
:1056D00060EF70E084EE92E00E940F1660EF70E0E1
:1056E0008BED93E00E940F1660EE71E08EE393E085
:1056F0000E940F1660EF70E084EE92E00E940F1699
:1057000060EF70E083E992E00E940F1660EE71E0B6
:1057100090E080E00E940F1660EF70E083E992E075
:105720000E940F1660EF70E08AE292E00E940F166E
:1057300060EE71E084EE92E00E940F1660EE71E080
:105740008AE292E00E940F1660EE71E090E080E045
:105750000E940F1660EF70E084EE92E00E940F1638
:1057600060EF70E083E992E00E940F1660EE71E056
:105770008EE393E00E940F1660EE71E084EE92E0FB
:1057800067CA6BEB70E08BE492E00E940F166BEB44
:1057900070E083E992E00E940F166EEE72E090E0F6
:1057A00080E00E940F166BEB70E08AEB92E00E94A3
:1057B0000F166BEB70E080E193E00E940F166EEE27
:1057C00072E090E080E00E940F166BEB70E08BE4DB
:1057D00092E00E940F166BEB70E083E992E00E946A
:1057E0000F166DE570E090E080E00E940F166BEB05
:1057F00070E08AEB92E00E940F166BEB70E080E1A4
:1058000093E00E940F166DE570E090E080E00E944A
:105810000F166BEB70E087E194E00E940F166BEBC4
:1058200070E08BED93E00E940F166DE570E090E064
:1058300080E00E940F166BEB70E08BE492E00E9418
:105840000F166BEB70E083E992E00E940F166DE596
:1058500070E090E080E00E940F166BEB70E08BED43
:1058600093E00E940F166EEE72E080E793E00E94D4
:105870000F166EEE72E090E080E00E940F166DE56C
:1058800070E080E793E00E940F166DE570E080E124
:1058900093E00E940F166DE570E083E992E00E94AC
:1058A0000F166DE570E08BE492E00E940F166EEE2D
:1058B00072E04ACB8DE191E09093EF028093EE028B
:1058C00080910D0390910E03009711F00C94A12D7F
:1058D00008952F923F924F925F926F927F928F9294
:1058E0009F92AF92BF92CF92DF92EF92FF920F936F
:1058F0001F93CF93DF93CDB7DEB7CA1BDB0B0FB679
:10590000F894DEBF0FBECDBF09942A883988488835
:105910005F846E847D848C849B84AA84B984C884CB
:10592000DF80EE80FD800C811B81AA81B981CE0FC2
:10593000D11D0FB6F894DEBF0FBECDBFED010895A7
:10594000A29FB001B39FC001A39F700D811D1124C0
:10595000911DB29F700D811D1124911D0895A1E22A
:105960001A2EAA1BBB1BFD010DC0AA1FBB1FEE1FD9
:10597000FF1FA217B307E407F50720F0A21BB30B24
:10598000E40BF50B661F771F881F991F1A9469F7A0
:1059900060957095809590959B01AC01BD01CF01FC
:1059A0000895052E97FB1EF400940E94E82C57FDE5
:1059B00007D00E94AF2C07FC03D04EF40C94E82CC7
:1059C00050954095309521953F4F4F4F5F4F08952B
:1059D00090958095709561957F4F8F4F9F4F08955B
:1059E000EE0FFF1F0590F491E02D09940E94A02C6A
:1059F000332312F48A1B9B0B0C94002D0E94A02CC5
:105A0000B7FF0895821B930B08950F931F93CF93B5
:105A1000DF938230910510F482E090E0E0915D0325
:105A2000F0915E0330E020E0B0E0A0E0309799F420
:105A30002115310509F44AC0281B390B24303105E2
:105A4000D8F58A819B816115710589F1FB019383EA
:105A50008283FE0111C04081518102811381481768
:105A60005907E0F04817590799F4109761F012961A
:105A70000C93129713961C933296CF01DF91CF911E
:105A80001F910F91089500935D0310935E03F4CF6F
:105A90002115310551F04217530738F0A901DB01F8
:105AA0009A01BD01DF01F801C1CFEF01F9CF909359
:105AB0005E0380935D03CDCFFE01E20FF31F819360
:105AC00091932250310939832883D7CF20915B03EA
:105AD00030915C03232B41F42091030130910401A8
