:100000000C945E000C9486000C9486000C94860080
:100010000C9486000C9486000C9486000C94110BB2
:100020000C9486000C9486000C9486000C94860038
:100030000C9486000C9486000C9486000C94860028
:100040000C94EB0B0C9486000C94B90B0C94930B52
:100050000C9486000C9486000C9486000C94860008
:100060000C94350C0C94860000000008000201007E
:100070000003040700000000000000000000000072
:10008000240027002A0001020408102040800102F9
:1000900004081020010204081020000000002500C0
:1000A00028002B00040404040404040402020202D5
:1000B00002020303030303030200540D11241FBEB5
:1000C000CFEFD8E0DEBFCDBF24E0AAEEB2E001C0A2
:1000D0001D92AA39B207E1F712E0A0E0B1E0E8E72B
:1000E000F1E302C005900D92AA3EB107D9F710E0E6
:1000F000CEE5D0E004C02197FE010E948616CD35E2
:10010000D107C9F70E94D50D0C94BA180C940000C1
:1001100091E090939C038093BE0310929D031092F4
:10012000BF030895FC01248135816217730720F411
:1001300080819181009729F410923C038CE393E035
:100140000895860F971F08950895AF92BF92CF929A
:10015000DF92EF92FF920F931F93CF93DF936C0187
:100160007B018B01040F151FEB015E01AE18BF0868
:10017000C017D10759F06991D601ED91FC9101901A
:10018000F081E02DC6010995892B79F7C501DF9132
:10019000CF911F910F91FF90EF90DF90CF90BF9084
:1001A000AF900895FC01538D448D252F30E0842FAE
:1001B00090E0821B930B541710F0CF96089501978F
:1001C0000895FC01918D828D981761F0A28DAE0F7C
:1001D000BF2FB11D5D968C91928D9F5F9F73928F03
:1001E00090E008958FEF9FEF0895FC01918D828D2F
:1001F000981731F0828DE80FF11D858D90E00895FC
:100200008FEF9FEF0895FC01918D228D892F90E053
:10021000805C9F4F821B91098F739927089580EC12
:1002200093E00E94030121E0892B09F420E0822F52
:10023000089580E090E0892B29F00E940F01811140
:100240000C9400000895FC01A48DA80FB92FB11DD6
:10025000A35ABF4F2C91848D90E001968F739927FC
:10026000848FA689B7892C93A089B1898C918370DA
:1002700080648C93938D848D981306C00288F389D3
:10028000E02D80818F7D80830895EF92FF920F9300
:100290001F93CF93DF93EC0181E0888F9B8D8C8D32
:1002A00098131AC0E889F989808185FF15C09FB726
:1002B000F894EE89FF896083E889F98980818370E9
:1002C000806480839FBF81E090E0DF91CF911F9198
:1002D0000F91FF90EF900895F62E0B8D10E00F5FB9
:1002E0001F4F0F731127E02E8C8D8E110CC00FB68F
:1002F00007FCFACFE889F989808185FFF5CFCE0127
:100300000E942301F1CFEB8DEC0FFD2FF11DE35A7D
:10031000FF4FF0829FB7F8940B8FEA89FB898081A9
:100320008062CFCFCF93DF93EC01888D8823B9F023
:10033000AA89BB89E889F9898C9185FD03C08081F0
:1003400086FD0DC00FB607FCF7CF8C9185FFF2CF6D
:10035000808185FFEDCFCE010E942301E9CFDF919F
:10036000CF91089590E0FC01E859FF4F2491FC01E2
:10037000EA57FF4F3491FC01EC55FF4FE491EE2317
:10038000C9F0222339F0233001F1A8F4213019F10A
:10039000223029F1F0E0EE0FFF1FE656FF4FA59146
:1003A000B4918FB7F894EC91611126C030953E233B
:1003B0003C938FBF08952730A9F02830C9F024302E
:1003C00049F7809180008F7D03C0809180008F77F6
:1003D00080938000DFCF84B58F7784BDDBCF84B579
:1003E0008F7DFBCF8091B0008F778093B000D2CF0C
:1003F0008091B0008F7DF9CF3E2BDACF3FB7F894D4
:100400008091380390913903A0913A03B0913B0356
:1004100026B5A89B05C02F3F19F00196A11DB11D5F
:100420003FBFBA2FA92F982F8827BC01CD01620F9B
:10043000711D811D911D42E0660F771F881F991F56
:100440004A95D1F708958F929F92AF92BF92CF9223
:10045000DF92EF92FF926B017C010E94FE014B0143
:100460005C01C114D104E104F104B9F00E94FE0161
:10047000681979098A099B09683E734081059105CD
:1004800080F321E0C21AD108E108F10888EE880E55
:1004900083E0981EA11CB11CE4CFFF90EF90DF9089
:1004A000CF90BF90AF909F908F9008958F929F9222
:1004B000AF92BF92CF92DF92EF92FF920F931F9372
:1004C000CF93DF93EC01462FE881F9810484F58511
:1004D000E02D61E070E009957C018C889D88AE88F4
:1004E000BF880E94FE01688F798F8A8F9B8F8C8EC8
:1004F0009D8EAE8EBF8E01E010E0EF2811F010E06F
:1005000000E08B858823C9F189858F5F89872F81DA
:10051000821798F119869A859F5F9A878885981720
:1005200008F01A86EA85E81710F0EFEFE80F9E2F23
:10053000211106C0E1E0E90F90E0E817D8F7F7CF06
:10054000EA87EC0FFD2FF11D44854068E881F981B1
:100550000484F585E02D70E060E0CE010995CC883B
:10056000DD88EE88FF880E94FE01688F798F8A8F70
:100570009B8FCC8EDD8EEE8EFF8EC801DF91CF91EA
:100580001F910F91FF90EF90DF90CF90BF90AF90B1
:100590009F908F9008958DEF9FEF08958DEF9FEFBF
:1005A000089590E080E0089520910E03260F3327F0
:1005B000331F21323105ECF420919603FC0190E0C9
:1005C00080E0243069F082E00895A0910E0321912B
:1005D000AC0144515D4FA40FB52FB11D2C93019672
:1005E000861798F380910E03680F60930E0380E0E6
:1005F000089581E008951092960381E08093950319
:100600001092700361E082E10E94B20161E083E137
:100610000E94B201E9EBF0E080818E7F80838081CF
:100620008D7F808388E48093B80085E48093BC004C
:100630000895CF93DF9391E09093EB028823B9F074
:10064000C091B800D091BA008091BC008A7B8093A1
:10065000BC0060E082E10E94B20160E083E10E94A0
:10066000B2010E94FB02D093BA00C093B800DF91A0
:10067000CF910895CF92DF92EF92FF920F931F9345
:10068000CF93DF93D091BF0381E0D13208F09CC0BB
:10069000C091BE030E94FE016B017C018091960314
:1006A00081116CC082E08093960381E08093950372
:1006B0008FEF8093940310929303D0939203AEE94B
:1006C000B3E0E2E7F3E080E0D8138DC0109271034D
:1006D00080917103CC0FC82BC0937103809170037C
:1006E000813009F084C0109270030E94FE016B01FA
:1006F0007C01809171038093BB008091980390915D
:100700009903A0919A03B0919B03892B8A2B8B2B81
:10071000A1F00E94FE01009198031091990320918D
:100720009A0330919B036C197D098E099F09061766
:1007300017072807390708F442C08091BC0083FDE1
:10074000D8CF85EC8093BC000E94FE016B017C0138
:1007500080919603823009F44CC0809194038F3FBE
:1007600009F469C080919403803209F466C08091D5
:100770009403803309F463C084E026C08091980319
:1007800090919903A0919A03B0919B03892B8A2B96
:100790008B2B09F483CF0E94FE01009198031091E6
:1007A000990320919A0330919B036C197D098E095E
:1007B0009F09061717072807390708F06FCF8091A0
:1007C00097030E94190385E010929D031092BF03C6
:1007D00010929C03DF91CF911F910F91FF90EF90AA
:1007E000DF90CF9008959D9191938F5F6DCF85EEAF
:1007F000A9CF8091980390919903A0919A03B09109
:100800009B03892B8A2B8B2B09F4A2CF0E94FE011C
:10081000009198031091990320919A0330919B03C2
:100820006C197D098E099F090617170728073907D4
:1008300008F08ECFC4CF80E0C7CF82E0C5CF83E081
:10084000C3CF089508950895E0914F0380914E031A
:10085000E81730F4F0E0E05BFC4F808190E0089511
:100860008FEF9FEF089590914F0380914E032FEFEC
:100870003FEF981748F4E92FF0E0E05BFC4F208150
:1008800030E09F5F90934F03C901089580914E031C
:1008900090914F03891B990B0895CF92DF92EF92AD
:1008A000FF920F931F93CF93DF937C01CB018A01BB
:1008B00020919C03222389F0EB016B01C40ED51E0D
:1008C000CC15DD0569F06991D701ED91FC9101909E
:1008D000F081E02DC7010995F3CF642F0E94D40267
:1008E000C801DF91CF911F910F91FF90EF90DF90A2
:1008F000CF900895CF93DF931F92CDB7DEB7698372
:1009000020919C032223F9F02091BF03203258F05C
:1009100021E030E0FC013383228390E080E00F90FF
:10092000DF91CF91089580919D03E82FF0E0E2568A
:10093000FC4F998190838F5F80939D038093BF03C9
:1009400081E090E0ECCF61E0CE0101960E94D402FC
:10095000F7CF682F8DE594E00C947A040F931F93E2
:10096000CF93DF93182FD0E0C0E28C2F0E94880035
:100970000E943A03082F61E070E080E090E00E945E
:100980002302011103C01D17D1F0DF5FCF5FC83212
:1009900061F7C8E38C2F0E9488000E943A03082F59
:1009A00061E070E080E090E00E942302011103C04A
:1009B0001D1729F0DF5FCF5FC03461F7C0E08C2FD7
:1009C000DF91CF911F910F910895CF93FC01C4A5A2
:1009D00060FF02C086A1C82B61FF02C087A1C82B9F
:1009E00062FF02C080A5C82B63FF02C081A5C82B8F
:1009F0004130510511F483A1C82B85A18C2B90E0C7
:100A00000E94A9046C2F8DE594E0CF910C947A0498
:100A1000CF93DF93EC018AA5882349F19BA5662338
:100A200011F1913011F58CA788A10E94880089A14D
:100A30009AA1029721F489E090E00E94A9046CA594
:100A40008DE594E00E947A040E943A0321E030E0B0
:100A5000811102C030E020E088279927821B930B88
:100A6000DF91CF9108959923F1F21CA6DDCF8DEF90
:100A70009FEFF6CF4F925F926F927F928F929F92ED
:100A8000AF92BF92EF92FF921F93CF93DF93EC014F
:100A900088A1882309F459C089A19AA1892B09F456
:100AA00054C0142F7B014C8C5D8C6E8C7F8C888C99
:100AB000998CAA8CBB8C8DE2881A9108A108B10888
:100AC0000E94FE01681979098A099B096415750558
:100AD00086059705A8F388A10E94880089A19AA19C
:100AE000029721F489E090E00E94A904612F70E050
:100AF00084E0759567958A95E1F7A701CE010E947C
:100B0000E50482E0E816F10431F0612F6F70A7016F
:100B1000CE010E94E5040E943A0321E030E08111F9
:100B200002C030E020E088279927821B930BDF91D9
:100B3000CF911F91FF90EF90BF90AF909F908F90BB
:100B40007F906F905F904F9008958CEF9FEFEFCF65
:100B5000CF92DF92EF92FF920F931F93CF93C82F04
:100B60000E94FE016B017C0180919603811164C09B
:100B700081E080939603809395039FEF9093940375
:100B800010929303109292038093710380917103EA
:100B9000CC0FC82BC093710380917003813009F092
:100BA0007DC0109270030E94FE016B017C01809158
:100BB00071038093BB008091980390919903A09159
:100BC0009A03B0919B03892B8A2B8B2BA1F00E9457
:100BD000FE01009198031091990320919A0330919E
:100BE0009B036C197D098E099F09061717072807B3
:100BF000390708F442C08091BC0083FDD8CF85EC52
:100C00008093BC000E94FE016B017C0180919603E1
:100C1000813009F445C080919303811163C08091B4
:100C20009303E2E7F3E0A0E5B3E090E0981751F119
:100C300021912D939F5FFACF809198039091990312
:100C4000A0919A03B0919B03892B8A2B8B2B09F4DB
:100C50008BCF0E94FE01009198031091990320917F
:100C60009A0330919B036C197D098E099F09061721
:100C700017072807390708F077CF809197030E945C
:100C8000190380E010924F0380934E03CF911F9180
:100C90000F91FF90EF90DF90CF90089585EEB0CF49
:100CA0008091980390919903A0919A03B0919B032E
:100CB000892B8A2B8B2B09F4A9CF0E94FE0100916E
:100CC00098031091990320919A0330919B036C191A
:100CD0007D098E099F09061717072807390708F0AD
:100CE00095CFCBCF81E09DCF4F925F926F927F9255
:100CF0008F929F92AF92BF92EF92FF920F931F93AA
:100D0000CF93DF93EC011CA588A1882309F4E1C0EF
:100D100089A19AA1009709F4DCC0029709F4DCC00C
:100D20008CA1882309F4D8C07B014C8C5D8C6E8C1F
:100D30007F8C888C998CAA8CBB8C8DE2881A910848
:100D4000A108B1080E94FE01681979098A099B0966
:100D50006415750586059705A8F38EA1182B8FA13C
:100D6000182B88A5182B89A5182BEA94EF2811F4C5
:100D70008BA1182B8CA1182B88A10E948800612FB1
:100D80008DE594E00E947A040E943A03882301F1E1
:100D90000FEF1FEF88A10E9488006CA58DE594E0FD
:100DA0000E947A040E943A03882311F00FEF1FEF8C
:100DB000C801DF91CF911F910F91FF90EF90BF90ED
:100DC000AF909F908F907F906F905F904F9008951D
:100DD00088A10E9488008DA1812B90E00E94A90427
:100DE0000E943A038111D4CF88A190E00E94A80507
:100DF0008DE594E00E9433047C0197FDC9CF88A162
:100E00000E948800612F8DE594E00E947A040E9480
:100E10003A03082F8111BCCF8EA190E08E219F2133
:100E2000892B09F000E18FA190E08E219F21892B71
:100E300009F0006288A590E08E219F21892B09F09E
:100E4000006489A590E08E219F21892B09F000681C
:100E500088A10E9488008DA1812B90E00E94A904A6
:100E60000E943A03811194CF88A190E00E94A805C6
:100E70008DE594E00E9433047C0197FD89CF88A121
:100E80000E948800612F8DE594E00E947A040E9400
:100E90003A0381117DCF8EA190E08E219F21892B75
:100EA00009F001608FA190E08E219F21892B09F02C
:100EB000026088A590E08E219F21892B09F00460B3
:100EC00089A590E08E219F21892B09F0086010E010
:100ED00061CF0CEF1FEF6CCF0DEF1FEF69CF0F93BA
:100EE0001F93CF93DF93EC0110924F0310924E03A8
:100EF00010929D031092BF030E94FB0281E294E0D6
:100F000090930D0380930C0382E294E0909311037D
:100F10008093100388A181117EC08091EA0291E044
:100F2000980F9093EA020E94AE0488A388A18111D1
:100F300009C08091EA0291E0980F9093EA020E9422
:100F4000AE0488A318A1112309F46CC089A19AA149
:100F5000892B09F021C1812F0E94880060E08DE576
:100F600094E00E947A046FEF8DE594E00E947A0489
:100F70000E943A03812F0E94880060E08DE594E092
:100F80000E947A040E943A03812F90E00E94A805F3
:100F90008DE594E00E9433048F3F910509F049C02C
:100FA00082E090E09AA389A388A10E94880060E073
:100FB0008DE594E00E947A048FEF90E00E94A904EE
:100FC0000E943A0388A10E94880086E090E00E9477
:100FD000A9048FE790E00E94A9040E943A0388A127
:100FE0000E94880089E090E00E94A9040E943A03D0
:100FF00088A190E00E94A8058DE594E00E9433044A
:101000008F3709F002C127E036E045E054E063E0A5
:1010100072E0E1E005C10E9488000E943A03882343
:1010200009F484CF8CEF9FEFDF91CF911F910F9147
:101030000895892B29F01AA219A28FEF9FEFF4CF00
:1010400081E090E09AA389A388A10E9488006FEFB5
:101050008DE594E00E947A040E943A0388A190E012
:101060000E94A8058DE594E00E9433048C0188A1BC
:101070000E9488006BEF8DE594E00E947A040E9444
:101080003A0388A190E00E94A8058DE594E00E94B3
:1010900033049801277033272730310509F04DC0FC
:1010A000807F9927803F910509F047C083E016951E
:1010B00007958A95E1F761E00627017043E057E064
:1010C00066E075E0E4E022E0F1E030E081E090E00D
:1010D000DC0101C0AA0F3A95EAF7ABA3DC0101C01D
:1010E000AA0FFA95EAF7ACA3DC0102C0AA0FBB1F56
:1010F0002A95E2F7ADA39C0101C0220FEA95EAF719
:101100002EA39C0101C0220F7A95EAF72FA39C0120
:1011100001C0220F6A95EAF728A79C0101C0220F9F
:101120005A95EAF729A701C0880F4A95EAF78AA7D6
:101130000BA7013081F58CA72FC0C80180779927B4
:101140008037910519F08DEF9FEF6ECF88A10E9437
:1011500088006FEE8DE594E00E947A040E943A03C5
:1011600088A190E00E94A8058DE594E00E943304D8
:101170008F70992726E034E00F9711F424E036E0D1
:101180000095001F0027001F47E053E062E071E078
:10119000E0E0F5E09BCF1CA688A10E94880089A111
:1011A0009AA1029701F585E090E00E94A90480E2EF
:1011B00090E00E94A9040E943A0388A10E9488003E
:1011C00060E08DE594E00E947A0460E08DE594E0B3
:1011D0000E947A040E943A0388A10E94880089E054
:1011E00090E00E94A90460E08DE594E00E947A04FA
:1011F0000E943A0321E030E0811102C030E020E09B
:1012000088279927821B930B0FCF86FF3BC081FD58
:101210009ACF21E032E043E054E065E076E0E7E099
:1012200081E090E0DC0102C0AA0FBB1FEA95E2F763
:10123000ABA31CA2FC0101C0EE0F7A95EAF7EDA367
:10124000FC0102C0EE0FFF1F6A95E2F7EEA3BC019E
:1012500001C0660F5A95EAF76FA3BC0102C0660F82
:10126000771F4A95E2F768A7AC0101C0440F3A9591
:10127000EAF749A701C0880F2A95EAF78AA791E003
:101280009BA759CF26E033E042E051E060E077E0F1
:10129000E4E0C6CFCF93DF93FC0124813581421770
:1012A000530788F4C081D181FB0160817181CE0137
:1012B000840F951F0E94A018009729F08C1B9D0B8E
:1012C000DF91CF9108958FEF9FEFFACF50E040E08C
:1012D0000C944A090F931F93CF93DF93EC018881FD
:1012E0009981009759F02A813B812617370730F002
:1012F00081E0DF91CF911F910F9108958B016F5F76
:101300007F4F0E94B117009759F0998388831B8300
:101310000A832C813D81232B59F7FC011082E8CFF1
:1013200080E0E7CFEF92FF920F931F93CF93DF936D
:1013300000D0CDB7DEB78C0169831A82FC01E4804E
:10134000F580FFEFEF1AFF0AB7010E946A098823B0
:1013500081F0F8012081318184819581BE016F5F28
:101360007F4F820F931F0E949918F801F582E48243
:1013700081E00F900F90DF91CF911F910F91FF901F
:10138000EF900895EF92FF920F931F93CF93DF9307
:10139000EC017B018A01BA010E946A092881398126
:1013A000811114C02115310519F0C9010E942817B7
:1013B000198218821D821C821B821A82CE01DF9143
:1013C000CF911F910F91FF90EF9008951D830C8393
:1013D000B701C9010E949918F1CF0F931F93CF93C2
:1013E000DF938C01EB01FC01808191810097E1F09A
:1013F0006881798161157105A9F0428153812C8141
:101400003D814217530770F00E9499188C819D818D
:10141000F801958384831D821C82DF91CF911F91F7
:101420000F9108950E94281788819981F80191836E
:1014300080838A819B81938382838C819D81958324
:101440008483198218821B821A82E5CFFC01808175
:101450009181009711F00C94281708950E946E183E
:10146000FB0101900020E9F73197AF01461B570BB4
:101470000C94C2090F931F93CF93DF93CDB7DEB7C0
:1014800062970FB6F894DEBF0FBECDBF8C01CB01C3
:10149000F8011182108213821282158214824AE0AE
:1014A000BE016F5F7F4F0E94AE15BE016F5F7F4F21
:1014B000C8010E94300A62960FB6F894DEBF0FBED4
:1014C000CDBFDF91CF911F910F910895FC01118243
:1014D00010821382128215821482FB010190002077
:1014E000E9F73197AF01461B570B0C94C209AF9235
:1014F000BF92CF92DF92EF92FF920F931F93CF9301
:10150000DF93EC015B016A0179012417350720F4B0
:101510008D2D6901E42EF82E68EC72E0CE010E9458
:10152000660AD50114960D911C91C016D106E8F4F7
:10153000E016F10608F48701D501ED91FC911197B1
:10154000E00FF11FF08010826D917C916C0D7D1D7C
:1015500061157105B1F0CE010E94300AF50180815C
:101560009181080F191FD801FC92CE01DF91CF9114
:101570001F910F91FF90EF90DF90CF90BF90AF90B1
:10158000089588819981009711F00E942817198287
:1015900018821D821C821B821A82E0CFFC0180818E
:1015A0009181009711F00C94871560E070E0CB01F9
:1015B000089585ED8093BC008091980390919903E4
:1015C000A0919A03B0919B030796A11DB11D23E042
:1015D000B695A795979587952A95D1F72091BC0048
:1015E00024FD03C0109296030895409198035091F2
:1015F000990360919A0370919B03452B462B472BCF
:1016000069F30097A105B10541F025E32A95F1F7AB
:1016100000000197A109B109E1CF809197030C94D3
:1016200019031F920F920FB60F9211242F933F931D
:101630004F935F936F937F938F939F93AF93BF93DA
:10164000EF93FF938091420390914303A091440351
:10165000B0914503892B8A2B8B2BD1F190913D03BF
:10166000E0913E03F0913F03808189278083809140
:10167000420390914303A0914403B091450318168F
:1016800019061A061B069CF48091420390914303AD
:10169000A0914403B09145030197A109B10980933A
:1016A000420390934303A0934403B0934503FF91F7
:1016B000EF91BF91AF919F918F917F916F915F91CA
:1016C0004F913F912F910F900FBE0F901F90189543
:1016D00080910001E8EBF0E0E4919FEF909300012E
:1016E000E13051F030F0E23069F060E00E94B20188
:1016F000DECF10926E00F9CF90916F009D7F909396
:101700006F00F3CF909170009D7F9093700091E0F7
:101710009093B0009091B100987F94609093B10045
:101720001092B300E2CF1F920F920FB60F921124C6
:101730002F933F934F935F936F937F938F939F93D9
:10174000AF93BF93EF93FF9380EC93E00E9423014C
:10175000FF91EF91BF91AF919F918F917F916F9189
:101760005F914F913F912F910F900FBE0F901F905F
:1017700018951F920F920FB60F9211242F938F93EB
:101780009F93EF93FF93E091D003F091D103808179
:10179000E091D603F091D70382FD1BC09081809128
:1017A000D9038F5F8F732091DA03821741F0E091A4
:1017B000D903F0E0E054FC4F958F8093D903FF915B
:1017C000EF919F918F912F910F900FBE0F901F90CF
:1017D00018958081F4CF1F920F920FB60F921124AB
:1017E0002F933F938F939F93AF93BF938091340335
:1017F00090913503A0913603B091370330913303B4
:1018000023E0230F2D3758F50196A11DB11D20931C
:1018100033038093340390933503A0933603B0933E
:1018200037038091380390913903A0913A03B09126
:101830003B030196A11DB11D80933803909339039A
:10184000A0933A03B0933B03BF91AF919F918F91C7
:101850003F912F910F900FBE0F901F90189526E883
:10186000230F0296A11DB11DD2CF1F920F920FB66A
:101870000F9211242F933F934F935F936F937F9316
:101880008F939F93AF93BF93EF93FF938091B90092
:10189000887F803609F44AC0F0F5883209F4A7C081
:1018A00018F5803109F49BC0B8F4882309F4F9C015
:1018B000883009F494C0FF91EF91BF91AF919F914F
:1018C0008F917F916F915F914F913F912F910F90E9
:1018D0000FBE0F901F901895883109F488C0803290
:1018E00051F78093940314C0803409F49DC040F4F0
:1018F0008033B9F38833F9F68093940385ECB0C054
:10190000803509F485C0883509F496C0883499F685
:101910000E94D90AD0CF883909F48CC038F58837AD
:1019200029F050F4883611F0803729F683E080934F
:1019300096031092320357C0883809F47BC080396F
:1019400019F0803809F0B7CF80913203803208F067
:1019500071C0E091320381E08E0F80933203809159
:10196000BB00F0E0EE5EFC4F80833DC0803B39F071
:10197000E0F4803A09F479C0883A09F09CCF84E019
:101980008093960310920F0310920E03E0910C03C4
:10199000F0910D03099580910E0381110FC081E034
:1019A00080930E031092EC0209C0803C09F4A6CF8C
:1019B000883C09F4A3CF883B09F07DCFE0910F0369
:1019C00081E08E0F80930F03F0E0E451FD4F8081A2
:1019D0008093BB0090910F0380910E0329C08091EA
:1019E00071038093BB0085EC8093BC0064CF909121
:1019F000930380919203981758F5E091930381E047
:101A00008E0F80939303F0E0EE58FC4F8081E9CF76
:101A1000E091930381E08E0F809393038091BB004C
:101A2000F0E0EE58FC4F80839091930380919203F5
:101A30009817C8F285E8D8CFE091930381E08E0F24
:101A4000809393038091BB00F0E0EE58FC4F8083BD
:101A50008091950381115CCF81E08093700384EACB
:101A60008093BC001092960326CF85EC8093BC0037
:101A70001092960380913203803230F4E091320369
:101A8000F0E0EE5EFC4F10826091320370E0E09176
:101A90001003F091110382E193E009951092320353
:101AA0000ACF1092940334CFCF93DF93E0ECF3E0AE
:101AB0001382128288EE93E0A0E0B0E084839583E5
:101AC000A683B7832BE631E03183208325EC30E019
:101AD0003587248724EC30E03787268720EC30E0F8
:101AE000318B208B21EC30E0338B228B22EC30E0E9
:101AF000358B248B26EC30E0378B268B118E128EA3
:101B0000138E148EEDE5F4E01382128284839583A4
:101B1000A683B7838DE791E091838083C9E6D4E003
:101B20001B821A828FE891E0998388831F8218862E
:101B300080ED97E0A0E0B0E0888B998BAA8BBB8BFF
:101B400086E290E0A0E0B0E08C8B9D8BAE8BBF8BEB
:101B50001C861D861E861F861B860E94FE01688FBE
:101B6000798F8A8F9B8F1C8E1D8E1E8E1F8E85EA0D
:101B700091E09983888382E090E09AA389A380E230
:101B800088A390E89BA31CA290E49DA38EA380E170
:101B90008FA388E088A784E089A782E08AA791E0E4
:101BA0009BA78CA7DF91CF910895CF93DF93CDB7FB
:101BB000DEB7C754D1090FB6F894DEBF0FBECDBF54
:101BC000789484B5826084BD84B5816084BD85B518
:101BD000826085BD85B5816085BD80916E00816024
:101BE00080936E00109281008091810082608093CA
:101BF00081008091810081608093810080918000CC
:101C00008160809380008091B10084608093B100F6
:101C10008091B00081608093B00080917A008460F0
:101C200080937A0080917A00826080937A0080911C
:101C30007A00816080937A0080917A008068809336
:101C40007A001092C100E091D003F091D10382E0BC
:101C50008083E091CC03F091CD031082E091CE031C
:101C6000F091CF038FEC80831092D803E091D403DE
:101C7000F091D50386E08083E091D203F091D30305
:101C8000808180618083E091D203F091D3038081D1
:101C900088608083E091D203F091D30380818068D3
:101CA0008083E091D203F091D30380818F7D808384
:101CB00067EB71E0CE01C7960E94660A1EA21DA2C4
:101CC00018A61FA21AA619A66FA978AD61157105ED
:101CD00031F04BAD5CADCE0185960E94C20968EC37
:101CE00072E0CE0101960E94660A68EC72E0CE01B5
:101CF0000D960E94660A89A59AA5892B61F00DA10F
:101D00001EA16AE370E0C8010E948E189C01201B8E
:101D1000310B892B11F42FEF3FEF50E040E0BE0173
:101D20006B5D7F4FCE0143960E94770ABE016D5EC8
:101D30007F4FCE0101960E94ED09CE0143960E948D
:101D4000260A6CEB72E0CE0149960E94660ABE013B
:101D5000675E7F4FCE0185960E94660929A53AA548
:101D6000AC014E5F5F4FBE016B5D7F4FCE0143966E
:101D70000E94770ACE0143960E94CE0A78876F832D
:101D8000CE0143960E94260ACE0149960E94260A59
:101D90006FEB72E0CE0149960E94660ABE01675E53
:101DA0007F4FCE0185960E94660929A53AA5AC0110
:101DB0004E5F5F4FBE016B5D7F4FCE0143960E9429
:101DC000770ACE0143960E94CE0A7A876987CE01B0
:101DD00043960E94260ACE0149960E94260A62EC8A
:101DE00072E0CE0149960E94660ABE01675E7F4F8F
:101DF000CE0185960E94660929A53AA5AC014E5FE1
:101E00005F4FBE016B5D7F4FCE0143960E94770A04
:101E1000CE0143960E94CE0A7C876B87CE01439603
:101E20000E94260ACE0149960E94260A62EC72E0C0
:101E3000CE0149960E94660ABE01675E7F4FCE01C1
:101E400085960E9466098C0165EC72E0CE014F9682
:101E50000E94660AA801BE01615E7F4FCE01859691
:101E60000E944A0929A53AA5AC014F5F5F4FBE0108
:101E70006B5D7F4FCE0143960E94770ABE016D5E77
:101E80007F4FCE010D960E94ED09CE0143960E9430
:101E9000260ACE014F960E94260ACE0149960E943C
:101EA000260A68EC72E0CE0143960E94660A67EC4F
:101EB00072E0CE0149960E94660AA988BA88A114E8
:101EC000B10409F455C08D8C9E8C8114910409F4E1
:101ED0004FC0EF88F88CE818F9080D851E85698CCD
:101EE0007A8CE114F10499F4698D7A8DC8010E940D
:101EF000A0188C010097E1F16B897C894F89588D7E
:101F00000E9473188F89988D080F191FEDCF6501F6
:101F1000C801F7FECEC06801698D7A8DC8010E94A4
:101F2000A0185C01009701F14C01801A910AA401EC
:101F3000B801C6010E947318C80CD91C6B897C8932
:101F40004F89588DC6010E9473188F89988DC80ECD
:101F5000D91E0D8D1E8D0A0D1B1D89899A898E0D26
:101F60009F1D9A8B898BD8CFB801C6010E94991802
:101F7000CE0149960E94260ACE0143960E94260A67
:101F8000CE0185960E94260A7E01B1E3EB0EF11C7C
:101F900068EC72E0C7010E94660A8E01055D1F4F62
:101FA00068EC72E0C8010E94660A68EC72E0CE013B
:101FB00085960E94660A68EC72E0CE014F960E94F8
:101FC000660A1EAE1DAEEFAE2F2C302E012F69EC2F
:101FD00072E0CE0149960E94660A4DAD5EADBE012B
:101FE000675E7F4FCE010D960E944A099C014DAD60
:101FF0005EADBE01635F7F4FCE0143960E94770ABC
:10200000BE016D5E7F4FCE014F960E94ED09CE015D
:1020100043960E94260ACE0149960E94260A68EC41
:1020200072E08FAD922D0E94300A68EC72E0832D31
:10203000902F0E94300A68EC72E0CE0185960E94D3
:10204000300AF12CE12CDE2C1F2DB701CE014F966A
:102050000E949200FC01808180330CF4CCC0B70157
:10206000CE014F960E949200DC018C918A330CF0D5
:10207000C2C08BA19CA1E816F90608F0BCC0B7014C
:10208000CE014F960E949200BFEFEB1AFB0AFC01B3
:1020900080818E3209F4AFC06D2D712FCE014F9625
:1020A0000E949200DC016C918FAD922D0E949209EA
:1020B000CACFB3010E94A018009729F0880D991D7E
:1020C000CE0CDF1CF6CFAC14BD0409F451CF8F85C4
:1020D00098898C159D0568F4B6016F5F7F4FC80124
:1020E0000E94B117009709F443CF9E878D87D88A45
:1020F000CF8609891A890150110917FD39CF480186
:102100006D8C7E8C6114710409F432CFA988BA8871
:10211000A114B10409F42CCFA614B70408F428CFF5
:102120000A151B0520F0450121E0821A9108CD8493
:10213000DE84298C3A8CC6010FEF1FEF2601480C74
:10214000591C4816590678F0B1010E94A018009752
:1021500051F09C012C193D098216930608F4980150
:1021600001968901EECF17FD03CF600E711EC601E7
:10217000860D971DA50146195709BC018E0D9F1D9F
:102180000E947C1889899A898E0D9F1D9A8B898B54
:102190002D853E85820F931FDC011C928D859E85C7
:1021A0006B897C894F89588D800F911F0E9473180D
:1021B000A2CFB701CE014F960E949200DC018C9114
:1021C0008A3324F528C0B701CE014F960E949200B1
:1021D000BFEFEB1AFB0AFC0180818E32E1F06D2D1E
:1021E000712FCE014F960E949200DC016C91832DDD
:1021F000902F0E949209DE2C1F2DB701CE014F9621
:102200000E949200FC01808180339CF68BA19CA1EE
:10221000E816F906C0F2B701CE014F960E9492006F
:10222000FC018081803334F1B701CE014F960E94CA
:102230009200DC018C918A33ECF48BA19CA1E8160E
:10224000F906C0F4B701CE014F960E949200FC013E
:1022500080818E3279F0B701CE014F960E949200B4
:10226000DC016C91CE0185960E949209BFEFEB1ABA
:10227000FB0AD1CF6BEC72E0CE0143960E94660A56
:10228000BE016D5E7F4FCE014F960E9466096C01C4
:10229000CE0143960E94260A8DA99EA9892B29F07A
:1022A000E9A9FAA98081811111C06F817885CE01D9
:1022B00043960E943A0ABE016D5E7F4F8FAD922D0C
:1022C0000E94ED09CE0143960E94260A89A59AA58F
:1022D000892B29F0EDA1FEA18081811111C06985B2
:1022E0007A85CE0143960E943A0ABE016D5E7F4F09
:1022F000CE0185960E94ED09CE0143960E94260AE2
:102300006DEC72E0CE0143960E94660ABE016D5EDE
:102310007F4F832D902F0E9466095C01CE0143966A
:102320000E94260A6FEC72E0CE0143960E94660A74
:10233000BE016D5E7F4F832D902F0E9466097C0148
:10234000CE0143960E94260AEF20E09409F0CAC10C
:1023500081E090E0AB20A09411F090E080E0EE24CA
:10236000FF24E81AF90A6AEB72E0CE0143960E9454
:10237000660ABE016D5E7F4F832D902F0E94660915
:102380005C01CE0143960E94260AAB20A09419F06E
:1023900082E0E82EF12C62ED72E0CE0143960E94BD
:1023A000660ABE016D5E7F4F832D902F0E946609E5
:1023B0005C01CE0143960E94260AAB20A09419F03E
:1023C00013E0E12EF12C65ED72E0CE0143960E9400
:1023D000660ABE016D5E7F4F832D902F0E946609B5
:1023E0005C01CE0143960E94260AAB20A09419F00E
:1023F000B4E0EB2EF12C67ED72E0CE0143960E9423
:10240000660ABE016D5E7F4F832D902F0E94660984
:102410005C01CE0143960E94260AAB20A09419F0DD
:10242000A5E0EA2EF12C69ED72E0CE0143960E9400
:10243000660ABE016D5E7F4F832D902F0E94660954
:102440005C01CE0143960E94260AAB20A09419F0AD
:10245000F6E0EF2EF12C6CED72E0CE0143960E9477
:10246000660ABE016D5E7F4F832D902F0E94660924
:102470005C01CE0143960E94260AAB20A09419F07D
:10248000E7E0EE2EF12C6EED72E0CE0143960E9455
:10249000660ABE016D5E7F4F832D902F0E946609F4
:1024A0005C01CE0143960E94260AAB20A09419F04D
:1024B00078E0E72EF12C61EE72E0CE0143960E94A7
:1024C000660ABE016D5E7F4F832D902F0E946609C4
:1024D0005C01CE0143960E94260AAB20A09419F01D
:1024E00069E0E62EF12C63EE72E0CE0143960E9485
:1024F000660ABE016D5E7F4F832D902F0E94660994
:102500005C01CE0143960E94260AAB20A09419F0EC
:102510005AE0E52EF12C66EE72E0CE0143960E9461
:10252000660ABE016D5E7F4F832D902F0E94660963
:102530005C01CE0143960E94260AAB20A09419F0BC
:102540004BE0E42EF12C68EE72E0CE0143960E943F
:10255000660ABE016D5E7F4F832D902F0E94660933
:102560005C01CE0143960E94260AAB20A09419F08C
:102570003CE0E32EF12C8FAD922D0E94CE0A4B0150
:102580005C012B853C85032E000C440B550B60E64B
:102590007AEE80E090E00E946016CA01B90122E064
:1025A000660F771F881F991F2A95D1F7A5019401FF
:1025B0000E94601622963FAF2EAF2297CD20C09486
:1025C00061F0C90137FD019695958795DC01A20F51
:1025D000B31F2296BFAFAEAF2297CE0185960E9461
:1025E000CE0A64507109810991092CE0269FF001FF
:1025F000279FF00D1124EE0DFF1DEE0FFF1FE95F69
:10260000FE4F6081718124967FAF6EAF24977CE08E
:10261000E716F10421F424961FAE1EAE24972296ED
:102620008EAD9FAD2297092E000CAA0BBB0B2896EE
:102630008CAF9DAFAEAFBFAF2897809100018230C5
:1026400009F054C0E8EBF0E0149117FF9CC0289605
:102650006CAD7DAD8EAD9FAD28970E94230269ECD5
:1026600072E0CE0143960E94660A4DAD5EADBE019A
:102670006D5E7F4FCE010D960E944A0901969EAF76
:102680008DAFCE0143960E94260A8DAD9EAD892B5B
:1026900009F09DCCCE014F960E94260ACE01859668
:1026A0000E94260ACE018B960E94260ACE01C19670
:1026B0000E94260ACE010D960E94260ACE0101969E
:1026C0000E94260ACE01C7960E94260A00E010E06A
:1026D00001151105E9F30E940F018823C9F30E9437
:1026E0000000F6CFEE24E394F12C3DCE8F3F09F0AD
:1026F000AECF82E080930001E8EBF0E014911F3F41
:1027000009F4A5CF113009F40BC128F1123009F0FA
:102710009CCF1092B0001092B1008091B000826006
:102720008093B0008091B10081608093B100E6EAAF
:10273000F0E0E491F0E0EE0FFF1FE656FF4F8591C9
:10274000949190933F0380933E03E8E8F0E0E49196
:10275000E0933D0318C014BC15BC84B5826084BDF1
:1027600085B5816085BDE6EAF0E0E491F0E0EE0F2A
:10277000FF1FE656FF4F85919491E8E8F0E0E49161
:10278000E093410310E0E8E8F0E02491E6EAF0E0AD
:102790008491882399F090E0880F991FFC01E458F8
:1027A000FF4FA591B491FC01E656FF4F859194919E
:1027B0008FB7F894EC912E2B2C938FBF2496AEAD4F
:1027C000BFAD24974D01B12CA12C60E072E18AE7E6
:1027D00090E0A5019D010E94601629013A017A014D
:1027E0006901B1E0CB1AD108E108F108812F8D7F92
:1027F00009F02BC1EFEFCE16D104E104F10409F08A
:102800000CF4F5C060E472E48FE090E0A50194015F
:102810000E94601669017A01F1E0CF1AD108E1083F
:10282000F108123009F09AC082E02FEFC216D104ED
:10283000E104F10409F00CF46CC060E970ED83E090
:1028400090E0A50194010E94601669017A0161E09F
:10285000C61AD108E108F10883E07FEFC716D1045A
:10286000E104F10409F00CF454C068E478EE81E06E
:1028700090E0A50194010E94601669017A01B1E01F
:10288000CB1AD108E108F10884E0EFEFCE16D104AD
:10289000E104F104F1F1ECF164E274EF80E090E026
:1028A000A50194010E94601669017A01A1E0CA1A8B
:1028B000D108E108F10885E09FEFC916D104E104D1
:1028C000F10439F130F162E17AE780E090E0A501AE
:1028D00094010E94601669017A0161E0C61AD1086C
:1028E000E108F10886E07FEFC716D104E104F104A6
:1028F00081F078F0730162018AE0F594E794D7944F
:10290000C7948A95D1F7A1E0CA1AD108E108F10865
:1029100087E09091B100987F892B8093B1006EC0C1
:1029200010928000109281008091810088608093D5
:10293000810080918100816080938100E6EAF0E06F
:10294000E491F0E0EE0FFF1FE656FF4F8591949162
:10295000E8E8F0E0E491E093400315CF8FEFC8166C
:10296000D104E104F10409F00CF46DC068E478EEE0
:1029700081E090E0A50194010E94601669017A014E
:1029800091E0C91AD108E108F10884E0111194CF4F
:1029900083E0FFEFCF16D104E104F10459F154F1C3
:1029A00062E17AE780E090E0A50194010E94601660
:1029B00069017A01B1E0CB1AD108E108F10884E09D
:1029C000EFEFCE16D104E104F104A1F098F0730109
:1029D00062019AE0F594E794D794C7949A95D1F759
:1029E00091E0C91AD108E108F10885E003C081E04F
:1029F00011118FCF95B5987F892B85BD28966CAD29
:102A00007DAD8EAD9FAD28972FEF3FEFA901672BCE
:102A1000682B692B09F046C0113009F456C01230FA
:102A200009F465C0111113CEC7BC20934A0330933B
:102A30004B0340934C0350934D0380916E00826092
:102A400080936E0004CE82E0D3CF91E0C114D10414
:102A5000F1E0EF06F10484F068E478EE81E090E0C4
:102A6000A50194010E94601669017A0161E0C61A0D
:102A7000D108E108F10893E0113009F0BFCF80914F
:102A80008100887F892B8093810028968CAD9DAD35
:102A9000AEADBFAD28972FEF3FEFA901892B8A2B51
:102AA0008B2B99F024962EAD3FAD2497220F331F28
:102AB0002296AEADBFAD22970E947F1628EE33E07E
:102AC00040E050E00E943E16A7CFD0928900C0920D
:102AD0008800209346033093470340934803509364
:102AE000490380916F00826080936F00B0CDC092E7
:102AF000B300209342033093430340934403509325
:102B0000450380917000826080937000A0CD1F9378
:102B1000FC0199278827BC01E89411911032E9F350
:102B2000193010F01E30C8F31B3251F01D3249F439
:102B3000689406C00E94B915610F711D811D911D19
:102B4000119110531A30B0F33EF490958095709522
:102B500061957F4F8F4F9F4F1F910895BB274A303C
:102B600031F4992322F4BDE2909581959F4F0C9406
:102B7000CF15592F482F372F262F660F771F881F05
:102B8000991F660F771F881F991F620F731F841F7D
:102B9000951F660F771F881F991F0895BB27FB019C
:102BA0005527AA27880F991FAA1FA41710F0A41B46
:102BB00083955051B9F7A05DAA3308F0A95DA193A0
:102BC000009779F7B111B1931192CB010C94E815EC
:102BD000DC01FC01672F71917723E1F7329704C084
:102BE0007C916D9370836291AE17BF07C8F308950F
:102BF0002F923F924F925F926F927F928F929F920D
:102C0000AF92BF92CF92DF92EF92FF920F931F93FA
:102C1000CF93DF93CDB7DEB7CA1BDB0B0FB6F894AB
:102C2000DEBF0FBECDBF09942A88398848885F84EB
:102C30006E847D848C849B84AA84B984C884DF805C
:102C4000EE80FD800C811B81AA81B981CE0FD11D40
:102C50000FB6F894DEBF0FBECDBFED010895A29F61
:102C6000B001B39FC001A39F700D811D1124911D60
:102C7000B29F700D811D1124911D0895A1E21A2E9D
:102C8000AA1BBB1BFD010DC0AA1FBB1FEE1FFF1F10
:102C9000A217B307E407F50720F0A21BB30BE40B60
:102CA000F50B661F771F881F991F1A9469F76095A7
:102CB0007095809590959B01AC01BD01CF01089561
:102CC000052E97FB1EF400940E94771657FD07D03F
:102CD0000E943E1607FC03D04EF40C9477165095D4
:102CE0004095309521953F4F4F4F5F4F08959095F8
:102CF0008095709561957F4F8F4F9F4F08950E94EB
:102D00002F16B7FF0895821B930B0895EE0FFF1F38
:102D10000590F491E02D09940F931F93CF93DF93C7
:102D20008230910510F482E090E0E0919804F091F7
:102D3000990430E020E0B0E0A0E0309799F421154C
:102D4000310509F44AC0281B390B24303105D8F568
:102D50008A819B816115710589F1FB0193838283CF
:102D6000FE0111C04081518102811381481759072A
:102D7000E0F04817590799F4109761F012960C93F8
:102D8000129713961C933296CF01DF91CF911F912A
:102D90000F9108950093980410939904F4CF21158E
:102DA000310551F04217530738F0A901DB019A01B0
:102DB000BD01DF01F801C1CFEF01F9CF9093990474
:102DC00080939804CDCFFE01E20FF31F819391937E
:102DD0002250310939832883D7CF2091960430912E
:102DE0009704232B41F42091030130910401309387
:102DF000970420939604209101013091020121153E
:102E0000310541F42DB73EB74091050150910601BF
:102E1000241B350BE0919604F0919704E217F30719
:102E2000A0F42E1B3F0B2817390778F0AC014E5F3A
:102E30005F4F2417350748F04E0F5F1F50939704DC
:102E400040939604819391939FCFF0E0E0E09CCF74
:102E5000CF93DF930097E9F0FC013297138212823F
:102E6000A0919804B0919904ED0130E020E0109712
:102E7000A1F420813181820F931F2091960430911B
:102E800097042817390709F061C0F0939704E0937D
:102E90009604DF91CF910895EA01CE17DF07E8F598
:102EA0004A815B819E0141155105B1F7E901FB8320
:102EB000EA8349915991C40FD51FEC17FD0761F4BE
:102EC000808191810296840F951FE90199838883FF
:102ED000828193819B838A83F0E0E0E012968D915A
:102EE0009C9113970097B9F52D913C911197CD01C5
:102EF0000296820F931F2091960430919704281711
:102F0000390739F6309751F51092990410929804C8
:102F1000B0939704A0939604BCCFD383C28340811F
:102F20005181840F951FC817D90761F44E5F5F4F19
:102F300088819981480F591F518340838A819B81E1
:102F4000938382832115310509F0B0CFF093990462
:102F5000E09398049ECFFD01DC01C0CF1382128262
:102F6000D7CFB0E0A0E0E7EBF7E10C94FA158C01C5
:102F7000009751F4CB010E948C168C01C801CDB78B
:102F8000DEB7E0E10C941616FC01E60FF71F9C017A
:102F900022503109E217F30708F49DC0D901CD9101
:102FA000DC911197C617D70798F0C530D10530F3DB
:102FB000CE0104978617970708F3C61BD70B2297F5
:102FC000C193D1936D937C93CF010E942817D6CFE4
:102FD0005B01AC1ABD0A4C018C0E9D1EA091980499
:102FE000B0919904512C412CF12CE12C109731F522
:102FF00080919604909197048815990509F05CC01A
:103000004616570608F058C08091010190910201C0
:10301000009741F48DB79EB740910501509106018C
:10302000841B950BE817F90708F055C0F093970437
:10303000E0939604F90171836083A0CF8D919C91F8
:10304000119712966C90129713967C901397A8156F
:10305000B90559F56C0142E0C40ED11CCA14DB0459
:1030600020F1AC014A195B09DA011296159780F03C
:103070006282738251834083D9016D937C93E11402
:10308000F10471F0D7011396FC93EE93129776CF6B
:1030900022968C0F9D1FF90191838083F301EFCF5E
:1030A000F0939904E093980469CF4816590608F400
:1030B0002C017D01D3019ACFCB010E948C167C019B
:1030C000009749F0AE01B8010E947318C8010E9430
:1030D0002817870153CF10E000E050CF81E090E047
:1030E000F8940C94BA18FB01DC0102C001900D9217
:1030F00041505040D8F708956817790768F4FB01EC
:10310000DC01E40FF51FA40FB51F02C002900E9260
:1031100041505040D8F708950C947318FC018191E8
:10312000861721F08823D9F7992708953197CF0181
:103130000895FB01DC0101900D920020E1F7089554
:10314000FB0151915523A9F0BF01DC014D914517B9
:103150004111E1F759F4CD010190002049F04D9162
:1031600040154111C9F3FB014111EFCF81E090E01F
:0831700001970895F894FFCFC8
:10317800FF00009A04800005011501250137014967
:10318800015D01720188019F01B801D201ED010BB7
:10319800022A024B026E029302BA02E40210033EB4
:1031A800037003A403DB03170455049704DD042705
:1031B800057505C80520067D06E0064907B8072DF0
:1031C80008A9082D09B9094D0AEA0A900B400CFA1A
:1031D8000CC00D910E6F0F000000004501A500D234
:1031E8000092010301E100F500000000007A044D9F
:1031F80004D10223044604330424040000000056CA
:1032080002A500D102A400D102CE022E0ACB02CB25
:1032180002000000005602A500D102A4006F077446
:10322800063A050805CB024D697373696F6E496DDF
:10323800703A643D31362C6F3D362C623D39353A53
:103248003332642C333264232C3332642C333264AB
:10325800232C3332642C333264232C3332642C33E2
:103268003264232C3332642C3332642C333264239B
:103278002C3332652C3332662C333266232C3332AE
:10328800672C672C38702C672C38702C61232C70B5
:103298002C63372C702C672C38702C672C38702CCA
:1032A800662C702C66232C702C672C38702C672C9D
:1032B80038702C61232C702C63372C702C672C38B9
:1032C800702C672C38702C662C702C66232C702C74
:1032D80061232C672C32642C3332702C61232C67C9
:1032E8002C3263232C3332702C61232C672C3263ED
:1032F8002C6123352C38632C32702C3332702C61BE
:1033080023352C67352C3266232C3332702C6123FD
:10331800352C67352C32662C3332702C6123352CD2
:1033280067352C32652C64232C386400643D006FAB
:103338003D00623D003A0020002C002E006300632F
:103348002300642300650066006623006700672386
:0A33580000610061230062007000B4
:00000001FF
