:100000000C9463000C948B000C948B000C948B006C
:100010000C948B000C948B000C948B000C948B0034
:100020000C948B000C948B000C948B000C948B0024
:100030000C948B000C948B000C948B000C948B0014
:100040000C94C20D0C948B000C94900D0C946A0DC2
:100050000C948B000C948B000C948B000C948B00F4
:100060000C940C0E0C948B00000000002400270060
:100070002A000000000023002600290000000008DC
:10008000000201000003040700000000000000005F
:10009000010204081020408001020408102001021F
:1000A0000408102000000000250028002B00040494
:1000B0000404040404040202020202020303030310
:1000C00003032B0F811411241FBECFEFD8E0DEBF36
:1000D000CDBF11E0A0E0B1E0E4E6F2E302C005909C
:1000E0000D92AE3DB107D9F723E0AEEDB1E001C00E
:1000F0001D92A939B207E1F710E0C2E6D0E004C0D2
:100100002197FE010E942117C136D107C9F70E942D
:1001100049100C9425190C94000091E090938502ED
:100120008093A702109286021092A8020895089563
:100130000895AF92BF92CF92DF92EF92FF920F930A
:100140001F93CF93DF936C017B018B01040F151F6D
:10015000EB015E01AE18BF08C017D10759F06991D5
:10016000D601ED91FC910190F081E02DC601099539
:10017000892B79F7C501DF91CF911F910F91FF90E6
:10018000EF90DF90CF90BF90AF900895FC01538D1A
:10019000448D252F30E0842F90E0821B930B541761
:1001A00010F0CF96089501970895FC01918D828DEE
:1001B000981761F0A28DAE0FBF2FB11D5D968C9187
:1001C000928D9F5F9F73928F90E008958FEF9FEFC6
:1001D0000895FC01918D828D981731F0828DE80F82
:1001E000F11D858D90E008958FEF9FEF0895FC013C
:1001F000918D228D892F90E0805C9F4F821B910909
:100200008F739927089589EA92E00E94F70021E010
:10021000892B09F420E0822F089580E090E0892B5B
:1002200029F00E94030181110C9400000895FC0143
:10023000A48DA80FB92FB11DA35ABF4F2C91848D47
:1002400090E001968F739927848FA689B7892C93A4
:10025000A089B1898C91837080648C93938D848DF7
:10026000981306C00288F389E02D80818F7D8083FA
:100270000895EF92FF920F931F93CF93DF93EC01BA
:1002800081E0888F9B8D8C8D98131AC0E889F9893D
:10029000808185FF15C09FB7F894EE89FF89608340
:1002A000E889F98980818370806480839FBF81E0C1
:1002B00090E0DF91CF911F910F91FF90EF90089503
:1002C000F62E0B8D10E00F5F1F4F0F731127E02EDE
:1002D0008C8D8E110CC00FB607FCFACFE889F98916
:1002E000808185FFF5CFCE010E941701F1CFEB8D04
:1002F000EC0FFD2FF11DE35AFF4FF0829FB7F894EA
:100300000B8FEA89FB8980818062CFCFCF93DF9307
:10031000EC01888D8823B9F0AA89BB89E889F9891D
:100320008C9185FD03C0808186FD0DC00FB607FC52
:10033000F7CF8C9185FFF2CF808185FFEDCFCE0185
:100340000E941701E9CFDF91CF910895833081F0AA
:1003500028F4813099F08230A9F008958730A9F00F
:100360008830C9F08430B1F4809180008F7D03C063
:10037000809180008F7780938000089584B58F7777
:1003800084BD089584B58F7DFBCF8091B0008F77B9
:100390008093B00008958091B0008F7DF9CFCF9306
:1003A000DF93282F30E0F901E458FF4F8491F901E1
:1003B000E057FF4FD491F901E255FF4FC491CC2390
:1003C000A1F081110E94A601EC2FF0E0EE0FFF1FBB
:1003D000EE58FF4FA591B491EC91ED2381E090E0B0
:1003E00009F480E0DF91CF91089580E090E0FACFAA
:1003F0001F93CF93DF93282F30E0F901E458FF4F8C
:100400008491F901E057FF4FD491F901E255FF4F74
:10041000C491CC23A9F0162F81110E94A601EC2FC4
:10042000F0E0EE0FFF1FEC55FF4FA591B4918FB791
:10043000F894EC91111108C0D095DE23DC938FBFA6
:10044000DF91CF911F910895DE2BF8CFCF93DF93EB
:1004500090E0FC01E057FF4F249182559F4FFC0133
:1004600084918823D1F090E0880F991FFC01E8590E
:10047000FF4FA591B491FC01EC55FF4FC591D4916C
:1004800061110EC09FB7F8948C91E22FE0958E23F6
:100490008C932881E223E8839FBFDF91CF91089559
:1004A0008FB7F894EC91E22BEC938FBFF6CF8E5080
:1004B000806480937C0080917A00806480937A00CD
:1004C00080917A0086FDFCCF809178009091790030
:1004D00008953FB7F8948091280290912902A09145
:1004E0002A02B0912B0226B5A89B05C02F3F19F018
:1004F0000196A11DB11D3FBFBA2FA92F982F8827A4
:10050000BC01CD01620F711D811D911D42E0660F7E
:10051000771F881F991F4A95D1F70895CF92DF92D0
:10052000EF92FF920F931F93CF93DF93CDB7DEB778
:1005300029970FB6F894DEBF0FBECDBFC090610300
:10054000D0906203E0906303F09064030E9469021C
:100550006C157D058E059F0550F40E94690260931D
:1005600061037093620380936303909364030E941A
:10057000690200916103109162032091630330913D
:100580006403601B710B820B930B6C32714081050D
:100590009105A0F2F89480915603909157039A83A5
:1005A0008983E0915B03F0915C03DF011196808108
:1005B000898790915203E0916503F09166038091E1
:1005C0006703992309F449C09081982B98879081FB
:1005D000809589238F838F818C8388E08B835885D6
:1005E0006F8149853B812C8189819A81508347FDA8
:1005F000252F3A952083262F39F0441F00C0000094
:100600006083000000C0F2CF38E04D9160830000AD
:10061000019761F7F0936603E093650349873B8395
:100620002C839A83898378940E9469026093610382
:1006300070936203809363039093640329960FB6CB
:10064000F894DEBF0FBECDBFDF91CF911F910F9108
:10065000FF90EF90DF90CF9008959081982B98872E
:100660009081809589238F838F818E8388E08D830D
:1006700058856F8149853D812E8189819A8150837A
:1006800047FD252F00C000C0208300C000C000C06F
:1006900000C000C060830000262F3A9541F0441F3F
:1006A000000000C000C000C000C000C0E8CF38E0BB
:1006B0004D9100C0608300C0019709F7F093660375
:1006C000E093650349873D832E83ABCF8F929F9242
:1006D000AF92BF92CF92DF92EF92FF926B017C01BB
:1006E0000E9469024B015C01C114D104E104F104D0
:1006F000B9F00E946902681979098A099B09683E64
:1007000073408105910580F321E0C21AD108E10808
:10071000F10888EE880E83E0981EA11CB11CE4CF7E
:10072000FF90EF90DF90CF90BF90AF909F908F9011
:1007300008958F929F92AF92BF92EF92FF921F9374
:10074000CF93DF93EC01162FE881F9810484F585BE
:10075000E02D462F70E060E009957C0111501230C9
:10076000D8F419861A8688889988AA88BB880E9436
:100770006902688F798F8A8F9B8F8C8E9D8EAE8E4B
:10078000BF8EC701DF91CF911F91FF90EF90BF9077
:10079000AF909F908F9008958C889D88AE88BF8879
:1007A000E6CFDC0118968C911897681710F06FEF60
:1007B000680F1B969C911B97992391F017962C918B
:1007C0001797962F211106C061E0690F90E0681716
:1007D000D8F7F7CF19961C9219971A966C931A9717
:1007E000FD01E60FF11D64856068CD010C9499034D
:1007F0008F929F92AF92BF92EF92FF920F931F93AF
:10080000CF93DF93EC01462FE881F9810484F585CD
:10081000E02D61E070E009957C018C889D88AE88B0
:10082000BF880E946902688F798F8A8F9B8F8C8E18
:100830009D8EAE8EBF8E01E010E0EF2811F010E02B
:1008400000E08B85882391F089858F5F89879F8160
:10085000891760F019868A858F5F8A87988589173E
:1008600008F01A866A85CE010E94D103C801DF9183
:10087000CF911F910F91FF90EF90BF90AF909F90FD
:100880008F90089561E00C94990320910002260F47
:100890003327331F21323105ECF420917F02FC0114
:1008A00090E080E0243069F082E00895A091000299
:1008B0002191AC0140525E4FA40FB52FB11D2C9376
:1008C0000196861798F380910002680F60930002EA
:1008D00080E0089581E0089510927F0281E0809386
:1008E0007E021092590261E082E10E94F80161E00B
:1008F00083E10E94F801E9EBF0E080818E7F808344
:1009000080818D7F808388E48093B80085E4809324
:10091000BC000895CF93DF9391E09093DF0188238B
:10092000B9F0C091B800D091BA008091BC008A7B28
:100930008093BC0060E082E10E94F80160E083E106
:100940000E94F8010E946C04D093BA00C093B800D2
:10095000DF91CF910895CF92DF92EF92FF920F93A4
:100960001F93CF93DF93D091A80281E0D13208F09A
:100970009CC0C091A7020E9469026B017C0180911A
:100980007F0281116CC082E080937F0281E08093BE
:100990007E028FEF80937D0210927C02D0937B02C7
:1009A000A7E8B2E0EBE5F2E080E0D8138DC010924A
:1009B0005A0280915A02CC0FC82BC0935A028091E0
:1009C0005902813009F084C0109259020E946902D4
:1009D0006B017C0180915A028093BB00809181025F
:1009E00090918202A0918302B0918402892B8A2B7C
:1009F0008B2BA1F00E94690200918102109182026A
:100A000020918302309184026C197D098E099F091F
:100A1000061717072807390708F442C08091BC0061
:100A200083FDD8CF85EC8093BC000E9469026B01E6
:100A30007C0180917F02823009F44CC080917D025C
:100A40008F3F09F469C080917D02803209F466C04D
:100A500080917D02803309F463C084E026C08091D8
:100A6000810290918202A0918302B0918402892B2D
:100A70008A2B8B2B09F483CF0E946902009181029B
:100A80001091820220918302309184026C197D09B9
:100A90008E099F09061717072807390708F06FCF37
:100AA000809180020E948A0485E010928602109252
:100AB000A80210928502DF91CF911F910F91FF90B4
:100AC000EF90DF90CF9008959D9191938F5F6DCFC0
:100AD00085EEA9CF8091810290918202A09183023C
:100AE000B0918402892B8A2B8B2B09F4A2CF0E9410
:100AF000690200918102109182022091830230915B
:100B000084026C197D098E099F09061717072807AB
:100B1000390708F08ECFC4CF80E0C7CF82E0C5CFC1
:100B200083E0C3CF0895E091380280913702E8173F
:100B300030F4F0E0E75CFD4F808190E008958FEFA6
:100B40009FEF089590913802809137022FEF3FEF89
:100B5000981748F4E92FF0E0E75CFD4F208130E082
:100B60009F5F90933802C901089580913702909158
:100B70003802891B990B0895CF92DF92EF92FF9272
:100B80000F931F93CF93DF937C01CB018A012091B8
:100B90008502222389F0EB016B01C40ED51ECC1512
:100BA000DD0569F06991D701ED91FC910190F0812B
:100BB000E02DC7010995F3CF642F0E944504C801B9
:100BC000DF91CF911F910F91FF90EF90DF90CF9029
:100BD0000895CF93DF931F92CDB7DEB7698320913D
:100BE00085022223F9F02091A802203258F021E05A
:100BF00030E0FC013383228390E080E00F90DF91AE
:100C0000CF91089580918602E82FF0E0E957FD4FDB
:100C1000998190838F5F809386028093A80281E000
:100C200090E0ECCF61E0CE0101960E944504F7CF41
:100C3000682F86E493E00C94E905CF93DF93D82FD7
:100C4000C62F8091360280620E948D006D2F86E44F
:100C500093E00E94E9056C2F86E493E00E94E90589
:100C6000DF91CF910C94AB040F931F93CF93DF933D
:100C7000182FD0E0C0E28C2F0E948D000E94AB04A0
:100C8000082F61E070E080E090E00E9466030111AF
:100C900003C01D17D1F0DF5FCF5FC83261F7C8E333
:100CA0008C2F0E948D000E94AB04082F61E070E041
:100CB00080E090E00E946603011103C01D1729F037
:100CC000DF5FCF5FC03461F7C0E08C2FDF91CF9141
:100CD0001F910F91089597FF02C090E080E0893640
:100CE00021E0920714F088E691E068E671E0681B65
:100CF000790B6D337105BCF4072E000C880B990B32
:100D00000E94931420E030E048E850E40E94CE14A2
:100D10000E94F21670E090E080E0982F872F762FE7
:100D200066278F6F08956937710514F56CE271E0DD
:100D3000681B790B072E000C880B990B0E949314EB
:100D400020E030E048E850E40E94CE149B01AC0162
:100D500060E070E08FE793E40E9413160E94F216A1
:100D600070E090E080E0CB01772766277F6F0895E1
:100D7000653B7105B4F460EF70E0681B790B072EDA
:100D8000000C880B990B0E94931420E030E048E897
:100D900050E40E94CE140E94F21670E090E080E0D1
:100DA000E5CF613F71051CF564EB70E0681B790BC2
:100DB000072E000C880B990B0E94931420E030E062
:100DC00048E850E40E94CE149B01AC0160E070E062
:100DD0008FE793E40E9413160E94F21670E090E0F1
:100DE00080E0982F872F762F66276F6F08956D32DA
:100DF0007140CCF468E770E0681B790B072E000C9B
:100E0000880B990B0E94931420E030E048E850E4EE
:100E10000E94CE140E94F21670E090E080E0CB01B8
:100E200077276627E2CF6CE370E0681B790B072E0B
:100E3000000C880B990B0E94931420E030E048E8E6
:100E400050E40E94CE149B01AC0160E070E08FE79B
:100E500093E40E9413160E94F21670E090E080E086
:100E600060CFAF92BF92CF92DF92EF92FF920F933B
:100E70001F93CF93DF93AB01BC01F82EE52E872F94
:100E80009927AA27BB27B82EDC0130E020E0D42E1A
:100E9000E0915403F091550380915B0390915C03C2
:100EA0002E173F0708F04AC01D2DA0905A030E2DA3
:100EB000CF2CAA2061F0FA9CF0011124CF2EAE9C19
:100EC000F00111240F2FA49EF00111241F2FE09197
:100ED0006003F0915D03EF131CC0F901EE0FFF1FDB
:100EE000E20FF31F8E0F9F1FE0915D03E80FF92FB4
:100EF000F11DC082E0915E03E80FF92FF11D008320
:100F0000E0915F03E80FF92FF11D10832F5F3F4F32
:100F1000BFCFE901CC0FDD1FCC0FDD1F8C0F9D1F54
:100F2000CB2DAA2031F0AA9EE001AB9ED00D11245A
:100F3000CD2FE80FF92FF11DC083D6CF892B61F09B
:100F4000DF91CF911F910F91FF90EF90DF90CF90A5
:100F5000BF90AF900C948E02DF91CF911F910F91B3
:100F6000FF90EF90DF90CF90BF90AF9008950F93D8
:100F70001F93CF93DF938C01EB0188E693E00E94EF
:100F8000420460E088E693E00E94D103F8014481C6
:100F900055816081718188E693E00E94990061E04B
:100FA00088E693E00E94D1034C815D81688179815C
:100FB00088E693E0DF91CF911F910F910C949900F7
:100FC000CF93FC01C4A560FF02C086A1C82B61FFBE
:100FD00002C087A1C82B62FF02C080A5C82B63FF97
:100FE00002C081A5C82B4130510511F483A1C82B43
:100FF00085A18C2B90E00E9418066C2F86E493E06C
:10100000CF910C94E905CF93DF93EC018AA5882357
:1010100049F19BA5662311F1913011F58CA788A1A8
:101020000E948D0089A19AA1029721F489E090E0A5
:101030000E9418066CA586E493E00E94E9050E94D0
:10104000AB0421E030E0811102C030E020E08827CD
:101050009927821B930BDF91CF9108959923F1F289
:101060001CA6DDCF8DEF9FEFF6CF4F925F926F9270
:101070007F928F929F92AF92BF92EF92FF921F93B7
:10108000CF93DF93EC0188A1882309F459C089A18B
:101090009AA1892B09F454C0142F7B014C8C5D8CD0
:1010A0006E8C7F8C888C998CAA8CBB8C8DE2881A74
:1010B0009108A108B1080E946902681979098A0992
:1010C0009B096415750586059705A8F388A10E94FC
:1010D0008D0089A19AA1029721F489E090E00E94F5
:1010E0001806612F70E084E0759567958A95E1F7A1
:1010F000A701CE010E94E00782E0E816F10431F07A
:10110000612F6F70A701CE010E94E0070E94AB041F
:1011100021E030E0811102C030E020E088279927EB
:10112000821B930BDF91CF911F91FF90EF90BF90A7
:10113000AF909F908F907F906F905F904F900895A9
:101140008CEF9FEFEFCF8DEF9FEF08958DEF9FEF27
:10115000089590E080E008950895CF92DF92EF9295
:10116000FF920F931F93CF93C82F0E9469026B01C8
:101170007C0180917F02811164C081E080937F02B5
:1011800080937E029FEF90937D0210927C021092DA
:101190007B0280935A0280915A02CC0FC82BC093D5
:1011A0005A0280915902813009F07DC01092590293
:1011B0000E9469026B017C0180915A028093BB00FE
:1011C0008091810290918202A0918302B091840269
:1011D000892B8A2B8B2BA1F00E946902009181023E
:1011E0001091820220918302309184026C197D0952
:1011F0008E099F09061717072807390708F442C008
:101200008091BC0083FDD8CF85EC8093BC000E9408
:1012100069026B017C0180917F02813009F445C035
:1012200080917C02811163C080917C02EBE5F2E049
:10123000A9E3B2E090E0981751F121912D939F5FBF
:10124000FACF8091810290918202A0918302B091A5
:101250008402892B8A2B8B2B09F48BCF0E94690285
:1012600000918102109182022091830230918402C8
:101270006C197D098E099F0906171707280739077A
:1012800008F077CF809180020E948A0480E010925B
:10129000380280933702CF911F910F91FF90EF900A
:1012A000DF90CF90089585EEB0CF8091810290912C
:1012B0008202A0918302B0918402892B8A2B8B2B0E
:1012C00009F4A9CF0E946902009181021091820263
:1012D00020918302309184026C197D098E099F0947
:1012E000061717072807390708F095CFCBCF81E0FD
:1012F0009DCFCF93C82F8091360280620E948D00CF
:101300006C2F86E493E00E94E9050E94AB04809173
:101310003602806290E00E94AD0886E493E00E946D
:10132000A205CF9108956F927F928F929F92AF9274
:10133000BF92CF92DF92EF92FF920F931F93CF93C2
:10134000DF934B015C0104E211E066246394712C8D
:1013500097E0C92ED12CF801E2908F01D0E0C0E0D7
:10136000F12C89E00E947909B3010C2E01C0660FAF
:101370000A94EAF796012C1B3D0BA70102C0559574
:1013800047952A95E2F740FF37C0682B89E00E9415
:101390001D062196C830D10521F7C501B4010E9470
:1013A00031078FE00E945702BC01990F880B990BFF
:1013B0000E94660360E070E0CB010E9431078FE07D
:1013C0000E945702BC01990F880B990B0E9466037B
:1013D00051E00A31150709F0BECFDF91CF911F917F
:1013E0000F91FF90EF90DF90CF90BF90AF909F90C4
:1013F0008F907F906F90089560956823C7CF4F922C
:101400005F926F927F928F929F92AF92BF92EF9274
:10141000FF920F931F93CF93DF93EC011CA588A13C
:10142000882309F4E1C089A19AA1009709F4DCC0DE
:10143000029709F4DCC08CA1882309F4D8C07B0191
:101440004C8C5D8C6E8C7F8C888C998CAA8CBB8C20
:101450008DE2881A9108A108B1080E9469026819F2
:1014600079098A099B096415750586059705A8F30E
:101470008EA1182B8FA1182B88A5182B89A5182BA6
:10148000EA94EF2811F48BA1182B8CA1182B88A1BA
:101490000E948D00612F86E493E00E94E9050E947E
:1014A000AB04882301F10FEF1FEF88A10E948D008C
:1014B0006CA586E493E00E94E9050E94AB048823B2
:1014C00011F00FEF1FEFC801DF91CF911F910F9126
:1014D000FF90EF90BF90AF909F908F907F906F9014
:1014E0005F904F90089588A10E948D008DA1812B5F
:1014F00090E00E9418060E94AB048111D4CF88A10D
:1015000090E00E94AD0886E493E00E94A2057C0171
:1015100097FDC9CF88A10E948D00612F86E493E0DA
:101520000E94E9050E94AB04082F8111BCCF8EA157
:1015300090E08E219F21892B09F000E18FA190E09E
:101540008E219F21892B09F0006288A590E08E21D1
:101550009F21892B09F0006489A590E08E219F21AD
:10156000892B09F0006888A10E948D008DA1812B34
:1015700090E00E9418060E94AB04811194CF88A1CC
:1015800090E00E94AD0886E493E00E94A2057C01F1
:1015900097FD89CF88A10E948D00612F86E493E09A
:1015A0000E94E9050E94AB0481117DCF8EA190E0DD
:1015B0008E219F21892B09F001608FA190E08E215F
:1015C0009F21892B09F0026088A590E08E219F2140
:1015D000892B09F0046089A590E08E219F21892B39
:1015E00009F0086010E061CF0CEF1FEF6CCF0DEF3A
:1015F0001FEF69CF0F931F93CF93DF93EC011092EE
:10160000380210923702109286021092A8020E94AD
:101610006C0487E990E090932D0280932C0288E976
:1016200090E090932F0280932E0288A181117EC0BA
:101630008091DE0191E0980F9093DE010E943406C4
:1016400088A388A1811109C08091DE0191E0980FE3
:101650009093DE010E94340688A318A1112309F497
:101660006CC089A19AA1892B09F021C1812F0E9408
:101670008D0060E086E493E00E94E9056FEF86E468
:1016800093E00E94E9050E94AB04812F0E948D0027
:1016900060E086E493E00E94E9050E94AB04812F9C
:1016A00090E00E94AD0886E493E00E94A2058F3F7F
:1016B000910509F049C082E090E09AA389A388A12E
:1016C0000E948D0060E086E493E00E94E9058FEFC0
:1016D00090E00E9418060E94AB0488A10E948D0031
:1016E00086E090E00E9418068FE790E00E941806BE
:1016F0000E94AB0488A10E948D0089E090E00E94C6
:1017000018060E94AB0488A190E00E94AD0886E410
:1017100093E00E94A2058F3709F002C127E036E06E
:1017200045E054E063E072E0E1E005C10E948D0015
:101730000E94AB04882309F484CF8CEF9FEFDF91E4
:10174000CF911F910F910895892B29F01AA219A208
:101750008FEF9FEFF4CF81E090E09AA389A388A157
:101760000E948D006FEF86E493E00E94E9050E94DD
:10177000AB0488A190E00E94AD0886E493E00E944B
:10178000A2058C0188A10E948D006BEF86E493E096
:101790000E94E9050E94AB0488A190E00E94AD0878
:1017A00086E493E00E94A205980127703327273032
:1017B000310509F04DC0807F9927803F910509F0E0
:1017C00047C083E0169507958A95E1F761E0062703
:1017D000017043E057E066E075E0E4E022E0F1E00C
:1017E00030E081E090E0DC0101C0AA0F3A95EAF711
:1017F000ABA3DC0101C0AA0FFA95EAF7ACA3DC01A8
:1018000002C0AA0FBB1F2A95E2F7ADA39C0101C03D
:10181000220FEA95EAF72EA39C0101C0220F7A95C8
:10182000EAF72FA39C0101C0220F6A95EAF728A7C7
:101830009C0101C0220F5A95EAF729A701C0880F21
:101840004A95EAF78AA70BA7013081F58CA72FC02C
:10185000C801807799278037910519F08DEF9FEFA8
:101860006ECF88A10E948D006FEE86E493E00E9407
:10187000E9050E94AB0488A190E00E94AD0886E4CF
:1018800093E00E94A2058F70992726E034E00F971D
:1018900011F424E036E00095001F0027001F47E008
:1018A00053E062E071E0E0E0F5E09BCF1CA688A188
:1018B0000E948D0089A19AA1029701F585E090E030
:1018C0000E94180680E290E00E9418060E94AB0475
:1018D00088A10E948D0060E086E493E00E94E90503
:1018E00060E086E493E00E94E9050E94AB0488A1D1
:1018F0000E948D0089E090E00E94180660E086E476
:1019000093E00E94E9050E94AB0421E030E08111E0
:1019100002C030E020E088279927821B930B0FCF6D
:1019200086FF3BC081FD9ACF21E032E043E054E0E6
:1019300065E076E0E7E081E090E0DC0102C0AA0F1C
:10194000BB1FEA95E2F7ABA31CA2FC0101C0EE0F9E
:101950007A95EAF7EDA3FC0102C0EE0FFF1F6A952E
:10196000E2F7EEA3BC0101C0660F5A95EAF76FA338
:10197000BC0102C0660F771F4A95E2F768A7AC0169
:1019800001C0440F3A95EAF749A701C0880F2A958C
:10199000EAF78AA791E09BA759CF26E033E042E01F
:1019A00051E060E077E0E4E0C6CFFC018081918106
:1019B000009711F00C94CA1708950E941019FB01AA
:1019C00001900020E9F73197AF01461B570B0C94AB
:1019D0009900EF92FF920F931F93CF93DF93EC0147
:1019E0007B01198218821B821A821D821C82FB01D4
:1019F00001900020E9F731978F01061B170BB80102
:101A00006F5F7F4F90E080E00E9453180097B9F01D
:101A1000998388831B830A832C813D81232B11F4B6
:101A2000FC0110821D830C83B70188819981DF91AD
:101A3000CF911F910F91FF90EF900C941E19888108
:101A40009981009711F00E94CA17198218821D828D
:101A50001C821B821A82DF91CF911F910F91FF9000
:101A6000EF90089585ED8093BC0080918102909164
:101A70008202A0918302B09184020796A11DB11D3C
:101A800023E0B695A795979587952A95D1F720914C
:101A9000BC0024FD03C010927F0208954091810292
:101AA000509182026091830270918402452B462BF3
:101AB000472B69F30097A105B10541F025E32A956D
:101AC000F1F700000197A109B109E1CF80918002EF
:101AD0000C948A041F920F920FB60F9211242F9329
:101AE0003F934F935F936F937F938F939F93AF93A6
:101AF000BF93EF93FF9389EA92E00E941701FF9151
:101B0000EF91BF91AF919F918F917F916F915F9175
:101B10004F913F912F910F900FBE0F901F901895EE
:101B20001F920F920FB60F9211242F938F939F93B2
:101B3000EF93FF93E091B902F091BA028081E091B6
:101B4000BF02F091C00282FD1BC090818091C20251
:101B50008F5F8F732091C302821741F0E091C20220
:101B6000F0E0E755FD4F958F8093C202FF91EF9112
:101B70009F918F912F910F900FBE0F901F901895EE
:101B80008081F4CF1F920F920FB60F9211242F93E2
:101B90003F938F939F93AF93BF9380912402909133
:101BA0002502A0912602B09127023091230223E062
:101BB000230F2D3758F50196A11DB11D2093230247
:101BC0008093240290932502A0932602B0932702CB
:101BD0008091280290912902A0912A02B0912B02B3
:101BE0000196A11DB11D8093280290932902A09314
:101BF0002A02B0932B02BF91AF919F918F913F9199
:101C00002F910F900FBE0F901F90189526E8230F6D
:101C10000296A11DB11DD2CF1F920F920FB60F9247
:101C200011242F933F934F935F936F937F938F93E1
:101C30009F93AF93BF93EF93FF938091B900887FF9
:101C4000803609F44AC0F0F5883209F4A7C018F5C7
:101C5000803109F49BC0B8F4882309F4F9C08830B6
:101C600009F494C0FF91EF91BF91AF919F918F9133
:101C70007F916F915F914F913F912F910F900FBE88
:101C80000F901F901895883109F488C0803251F761
:101C900080937D0214C0803409F49DC040F48033E9
:101CA000B9F38833F9F680937D0285ECB0C08035B6
:101CB00009F485C0883509F496C0883499F60E94E5
:101CC000320DD0CF883909F48CC038F5883729F027
:101CD00050F4883611F0803729F683E080937F0234
:101CE0001092220257C0883809F47BC0803919F05D
:101CF000803809F0B7CF80912202803208F071C09D
:101D0000E091220281E08E0F809322028091BB003D
:101D1000F0E0EE5FFD4F80833DC0803B39F0E0F4A2
:101D2000803A09F479C0883A09F09CCF84E0809326
:101D30007F021092010210920002E0912C02F091B9
:101D40002D0209958091000281110FC081E08093DE
:101D500000021092E00109C0803C09F4A6CF883C43
:101D600009F4A3CF883B09F07DCFE091010281E027
:101D70008E0F80930102F0E0E052FE4F808180934D
:101D8000BB00909101028091000229C080915A020B
:101D90008093BB0085EC8093BC0064CF90917C0263
:101DA00080917B02981758F5E0917C0281E08E0FBC
:101DB00080937C02F0E0E55AFD4F8081E9CFE0910D
:101DC0007C0281E08E0F80937C028091BB00F0E06A
:101DD000E55AFD4F808390917C0280917B02981799
:101DE000C8F285E8D8CFE0917C0281E08E0F809325
:101DF0007C028091BB00F0E0E55AFD4F808380912A
:101E00007E0281115CCF81E08093590284EA809345
:101E1000BC0010927F0226CF85EC8093BC0010920C
:101E20007F0280912202803230F4E0912202F0E0C1
:101E3000EE5FFD4F10826091220270E0E0912E0271
:101E4000F0912F0282E092E00995109222020ACFCF
:101E500010927D0234CF1092AC021092AB0288EE49
:101E600093E0A0E0B0E08093AD029093AE02A09327
:101E7000AF02B093B00228E231E03093AA0220937F
:101E8000A90225EC30E03093B6022093B50224EC91
:101E900030E03093B8022093B70220EC30E030936A
:101EA000BA022093B90221EC30E03093BC022093B7
:101EB000BB0222EC30E03093BE022093BD0226EC40
:101EC00030E03093C0022093BF021092C202109201
:101ED000C3021092C4021092C502109249031092DC
:101EE000480380934A0390934B03A0934C03B09311
:101EF0004D038AE391E09093470380934603109249
:101F00006B0310926A038CE491E0909369038093D1
:101F1000680310926F031092700380ED97E0A0E0C9
:101F2000B0E08093780390937903A0937A03B09301
:101F30007B0386E290E0A0E0B0E080937C03909386
:101F40007D03A0937E03B0937F03109274031092DD
:101F500075031092760310927703109273030E9418
:101F6000690260938003709381038093820390934E
:101F700083031092840310928503109286031092BB
:101F8000870382E691E0909369038093680382E07F
:101F900090E090938A038093890380E28093880382
:101FA00090E890938B0310928C0390E490938D03B0
:101FB00080938E0380E180938F0388E08093900369
:101FC00084E08093910392E09093920381E0809368
:101FD0009303909394031092530310925A03109218
:101FE0006103109262031092630310926403809362
:101FF000600380935D0310925E0390935F03809370
:1020000052038FE090E090935703809356030E9411
:102010002E1790935C0380935B03009789F12FE068
:10202000FC0111922A95E9F785E090E09093550321
:10203000809354038CE090E090935903809358036D
:1020400080915303882341F061E08CE00E942602D6
:1020500060E08CE00E94F801EAEBF0E0E491F0E04F
:10206000EE0FFF1FEC55FF4F8591949190936603FF
:1020700080936503ECE9F0E0E491E0936703089551
:102080001092570310925603109255031092540366
:10209000D1CFCF93DF93CDB7DEB7E9970FB6F894E2
:1020A000DEBF0FBECDBF789484B5826084BD84B599
:1020B000816084BD85B5826085BD85B5816085BD43
:1020C00080916E00816080936E00109281008091FB
:1020D0008100826080938100809181008160809383
:1020E0008100809180008160809380008091B100A8
:1020F00084608093B1008091B00081608093B000D3
:1021000080917A00846080937A0080917A00826066
:1021100080937A0080917A00816080937A00809128
:102120007A00806880937A001092C100E091B90231
:10213000F091BA0282E08083E091B502F091B6029C
:102140001082E091B702F091B8028FEC8083109278
:10215000C102E091BD02F091BE0286E08083E09171
:10216000BB02F091BC02808180618083E091BB0260
:10217000F091BC02808188608083E091BB02F09185
:10218000BC02808180688083E091BB02F091BC0238
:1021900080818F7D80838091740381110CC0809138
:1021A0007503811108C080917603811104C080916C
:1021B0007703882321F080916F038F7E59F010926E
:1021C000740380E48093750380E18093760380E557
:1021D0008093770382E08093700380E180936F03A4
:1021E00064E670E080E090E00E94660310926C0369
:1021F00088E693E00E94FA0A892B09F05BC080917F
:102200007003823028F080916C03886080936C03A7
:1022100040E362E070E088E693E00E94350865E004
:1022200070E080E090E00E94660340E362E070E0CE
:1022300088E693E00E94350861E070E080E090E07D
:102240000E94660340E362E070E088E693E00E944B
:10225000350861E070E080E090E00E9466038091C4
:102260006C0384FD07C040E262E070E088E693E022
:102270000E94350860916C03606288E693E00E94DA
:10228000990384E080936D036CE088E693E00E94FC
:10229000990388E693E00E94420482E080936E03F3
:1022A00066E088E693E00E9499036FEF88E693E08A
:1022B0000E94030880916A0390916B039C838B8337
:1022C00080916C038D8380916D038E8380916E036A
:1022D0008F8380916F0388878091700389878091B5
:1022E00071038A87809172038B87809173038C8737
:1022F0008091740390917503A0917603B091770358
:102300008D879E87AF87B88B8091780390917903F2
:10231000A0917A03B0917B03898B9A8BAB8BBC8B9A
:1023200080917C0390917D03A0917E03B0917F0307
:102330008D8B9E8BAF8BB88F8091800390918103A2
:10234000A0918203B0918303898F9A8FAB8FBC8F4A
:102350008091840390918503A0918603B0918703B7
:102360008D8F9E8FAF8FB8A382E691E09A83898389
:102370008091880389A38091890390918A039BA30C
:102380008AA380918B038CA380918C038DA3809171
:102390008D038EA380918E038FA380918F0388A7D6
:1023A0008091900389A7809191038AA780919203DD
:1023B0008BA7809193038CA7809194038DA764E7EA
:1023C00071E0CE01C4960E94E90C6CE771E0CE0189
:1023D0008E960E94E90CCE0101960E94420460E0B4
:1023E000CE0101960E94D10363E871E0CE0101960F
:1023F0000E94DF0C61E0CE0101960E94D10310E043
:1024000000E030E1E32EF12C88AD99AD9701281B57
:10241000390BC901969587950817190748F463EA9F
:1024200071E0CE0101960E94DF0C0F5F1F4FECCFD1
:1024300064E771E0CE0101960E94DF0C64EC79E064
:1024400080E090E00E94660361E0CE0101960E9468
:10245000D10364E971E0CE0101960E94DF0C61E0D6
:10246000CE0101960E94D10310E000E080E1E82E49
:10247000F12C8AA99BA99701281B390BC9019695B4
:1024800087950817190748F463EA71E0CE010196B1
:102490000E94DF0C0F5F1F4FECCF6CE771E0CE01A5
:1024A00001960E94DF0C64EC79E080E090E00E94ED
:1024B0006603CE0101960E94420464E670E080E06B
:1024C00090E00E946603CE018E960E94D50CCE014C
:1024D000C4960E94D50C60E08FE00E94260260E066
:1024E00087E00E94260260E084E00E94260284E0E9
:1024F00080933602109238021092370210928602B0
:102500001092A8020E946C0487E990E090932D023B
:1025100080932C0288E990E090932F0280932E0202
:102520008091360280620E948D0060E086E493E034
:102530000E94E9056FEF86E493E00E94E90560E000
:1025400086E493E00E94E90560E086E493E00E945F
:10255000E90560E086E493E00E94E90560E086E436
:1025600093E00E94E90560E086E493E00E94E905BB
:1025700060E086E493E00E94E90560E086E493E091
:102580000E94E90560E086E493E00E94E90560E0CE
:1025900086E493E00E94E9050E94AB0410E000E0AD
:1025A000EE24E394F12C80E00E947909B701002E1B
:1025B00001C0660F0A94EAF76095682380E00E94E4
:1025C0001D060F5F1F4F0830110569F780915803F2
:1025D0009091590397FD08C061E00E94260260E0D7
:1025E000809158030E94F80181E080935303809109
:1025F0005B0390915C03892B11F00E948E02CC2426
:10260000CA9463E0D62EE12CF12C78E6472E5524AF
:102610005394612C712CE0E0AE2EE0E0BE2EF8E089
:102620008F2E912C87E00E94CF01892B99F0809109
:102630003402909135020196893091050CF062C008
:10264000909335028093340264EF71E080E090E073
:102650000E94660384E00E94CF01892B89F080915B
:10266000340290913502019797FD51C09093350245
:102670008093340264EF71E080E090E00E94660392
:102680008091340290913502209100013091010136
:102690008217930709F023C122E1E8E0F1E0DE01AF
:1026A000119601900D922A95E1F7FC01EE0FFF1FA4
:1026B00081E090E08C0F9D1FE80FF91F80819181D0
:1026C000892B09F044C08091300290913102A09191
:1026D0003202B09133020196A11DB11D80933002E8
:1026E00090933102A0933202B0933302A114B1044B
:1026F00009F498CF0E940301882309F493CF0E9424
:10270000000090CF10923502109234029DCF90922B
:10271000350280923402AECF68EB71E0CE010196B3
:102720000E94E90C65EC71E0CE018E960E94E90CE6
:10273000BE016F5F7F4FCE018E960E94B707CE011C
:102740008E960E94D50CCE0101960E94D50C009168
:102750003402109135028FE00E945702BC01990F9C
:10276000880B990B0E94931420E030EC4FE754E45F
:102770000E9480160930110508F05CC0F801ED5385
:10278000FC4E0C942117E713F813081414141F14AB
:102790002414291440144E1464EA71E0CE01019609
:1027A0000E94E90C64EA71E0BFCF65EA71E0CE01F6
:1027B00001960E94E90C63EB71E0B6CF61EC71E029
:1027C000CE0101960E94E90C6FEC71E0ADCF20E0E4
:1027D00030E04FE753E40E94CE140E94F21670E0FE
:1027E00090E080E0CB01772766270E94310722C066
:1027F00020E030E04FE753E40E94CE140E94F2162E
:1028000070E090E080E0982F872F762F6627EDCF3D
:1028100020E030E04FE753E40E94CE140E94F2160D
:1028200070E090E080E0E1CF60E070E08FEF90E05A
:102830000E949309109301010093000144CF60E0CE
:102840007FEF80E090E0F4CF6FEF70E080E090E009
:10285000EFCF6091300270913102809132029091FD
:10286000330224E096958795779567952A95D1F759
:10287000A30192010E94E215CB010E946B06B5CF25
:102880008FE00E94570228E631E0DC010E94271702
:10289000A70196010E948C15C901EFCF8EE00E941E
:1028A00057028139914034F28FE00E94570228E6A6
:1028B00031E0DC010E942717A70196010E948C15C8
:1028C000C9010E946B060E94310762E370E080E05C
:1028D00090E00E94660360E070E0CB0186CF893013
:1028E000910508F034CFFC01E858FB4E0C942117F9
:1028F000D513D513D5138C138C138C13CC13D5137C
:10290000DE1380915B0390915C030E94CA17809153
:1029100058039091590397FD03C060E00C94260280
:102920000895E89409C097FB3EF4909580957095C2
:1029300061957F4F8F4F9F4F9923A9F0F92F96E90B
:10294000BB279395F695879577956795B795F11180
:10295000F8CFFAF4BB0F11F460FF1BC06F5F7F4F1D
:102960008F4F9F4F16C0882311F096E911C077232F
:1029700021F09EE8872F762F05C0662371F096E838
:10298000862F70E060E02AF09A95660F771F881F07
:10299000DAF7880F9695879597F908950E94E114C4
:1029A0000C9452150E94441538F00E944B1520F0EB
:1029B000952311F00C943B150C94411511240C94A3
:1029C00086150E94631570F3959FC1F3950F50E033
:1029D000551F629FF001729FBB27F00DB11D639FD1
:1029E000AA27F00DB11DAA1F649F6627B00DA11D77
:1029F000661F829F2227B00DA11D621F739FB00D1D
:102A0000A11D621F839FA00D611D221F749F33278C
:102A1000A00D611D231F849F600D211D822F762F25
:102A20006A2F11249F5750409AF0F1F088234AF002
:102A3000EE0FFF1FBB1F661F771F881F915050406E
:102A4000A9F79E3F510580F00C943B150C94861518
:102A50005F3FE4F3983ED4F3869577956795B795F5
:102A6000F795E7959F5FC1F7FE2B880F911D96950F
:102A7000879597F9089597F99F6780E870E060E07F
:102A800008959FEF80EC089500240A941616170607
:102A900018060906089500240A941216130614064F
:102AA00005060895092E0394000C11F4882352F0B2
:102AB000BB0F40F4BF2B11F460FF04C06F5F7F4F6A
:102AC0008F4F9F4F089557FD9058440F551F59F051
:102AD0005F3F71F04795880F97FB991F61F09F3F0B
:102AE00079F087950895121613061406551FF2CF34
:102AF0004695F1DF08C0161617061806991FF1CF84
:102B000086957105610508940895E894BB276627AA
:102B10007727CB0197F90895052E97FB1EF40094B3
:102B20000E94A31557FD07D00E94E21507FC03D0B1
:102B30004EF40C94A31550954095309521953F4F38
:102B40004F4F5F4F089590958095709561957F4F99
:102B50008F4F9F4F08952F923F924F925F926F92A7
:102B60007F928F929F92AF92BF92CF92DF92EF921D
:102B7000FF920F931F93CF93DF93CDB7DEB7CA1B9E
:102B8000DB0B0FB6F894DEBF0FBECDBF09942A88C9
:102B9000398848885F846E847D848C849B84AA8471
:102BA000B984C884DF80EE80FD800C811B81AA81FE
:102BB000B981CE0FD11D0FB6F894DEBF0FBECDBFC9
:102BC000ED010895A1E21A2EAA1BBB1BFD010DC049
:102BD000AA1FBB1FEE1FFF1FA217B307E407F507CD
:102BE00020F0A21BB30BE40BF50B661F771F881FA9
:102BF000991F1A9469F760957095809590959B013F
:102C0000AC01BD01CF010895A29FB001B39FC001E7
:102C1000A39F700D811D1124911DB29F700D811D08
:102C20001124911D08955058BB27AA270E942B16E6
:102C30000C9452150E94441538F00E944B1520F058
:102C400039F49F3F19F426F40C9441150EF4E095E5
:102C5000E7FB0C943B15E92F0E94631558F3BA1754
:102C6000620773078407950720F079F4A6F50C94A2
:102C700085150EF4E0950B2EBA2FA02D0B01B9018E
:102C800090010C01CA01A0011124FF27591B99F0E2
:102C9000593F50F4503E68F11A16F040A22F232FEE
:102CA000342F4427585FF3CF469537952795A7953E
:102CB000F0405395C9F77EF41F16BA0B620B730BE5
:102CC000840BBAF09150A1F0FF0FBB1F661F771F56
:102CD000881FC2F70EC0BA0F621F731F841F48F40B
:102CE000879577956795B795F7959E3F08F0B0CF94
:102CF0009395880F08F09927EE0F9795879508957B
:102D00000E9494160C9452150E944B1558F00E9484
:102D1000441540F029F45F3F29F00C943B15511104
:102D20000C9486150C9441150E94631568F3992341
:102D3000B1F3552391F3951B550BBB27AA276217B7
:102D40007307840738F09F5F5F4F220F331F441FC4
:102D5000AA1FA9F335D00E2E3AF0E0E832D09150F8
:102D60005040E695001CCAF72BD0FE2F29D0660FE5
:102D7000771F881FBB1F261737074807AB07B0E828
:102D800009F0BB0B802DBF01FF2793585F4F3AF02E
:102D90009E3F510578F00C943B150C9486155F3FCF
:102DA000E4F3983ED4F3869577956795B795F795B4
:102DB0009F5FC9F7880F911D9695879597F908959C
:102DC000E1E0660F771F881FBB1F62177307840738
:102DD000BA0720F0621B730B840BBA0BEE1F88F747
:102DE000E09508950E946B1588F09F5798F0B92FD1
:102DF0009927B751B0F0E1F0660F771F881F991F30
:102E00001AF0BA95C9F714C0B13091F00E94851537
:102E1000B1E008950C948515672F782F8827B85F47
:102E200039F0B93FCCF3869577956795B395D9F787
:102E30003EF490958095709561957F4F8F4F9F4F91
:102E40000895EE0FFF1F0590F491E02D09940E9464
:102E50000416B7FF0895821B930B08950F931F93D9
:102E6000CF93DF938230910510F482E090E0E091FF
:102E70009703F091980330E020E0B0E0A0E03097B5
:102E800099F42115310509F44AC0281B390B243067
:102E90003105D8F58A819B816115710589F1FB01A6
:102EA00093838283FE0111C040815181028113818D
:102EB00048175907E0F04817590799F4109761F03F
:102EC00012960C93129713961C933296CF01DF91B2
:102ED000CF911F910F91089500939703109398033A
:102EE000F4CF2115310551F04217530738F0A901ED
:102EF000DB019A01BD01DF01F801C1CFEF01F9CF7C
:102F00009093980380939703CDCFFE01E20FF31FB8
:102F1000819391932250310939832883D7CF20910F
:102F2000950330919603232B41F4209104013091B5
:102F3000050130939603209395032091020130916F
:102F400003012115310541F42DB73EB7409106012B
:102F500050910701241B350BE0919503F0919603E6
:102F6000E217F307A0F42E1B3F0B2817390778F060
:102F7000AC014E5F5F4F2417350748F04E0F5F1FBF
:102F80005093960340939503819391939FCFF0E0E4
:102F9000E0E09CCFCF93DF930097E9F0FC013297FC
:102FA00013821282A0919703B0919803ED0130E053
:102FB00020E01097A1F420813181820F931F20918E
:102FC0009503309196032817390709F061C0F093F3
:102FD0009603E0939503DF91CF910895EA01CE1710
:102FE000DF07E8F54A815B819E0141155105B1F784
:102FF000E901FB83EA8349915991C40FD51FEC176E
:10300000FD0761F4808191810296840F951FE9018B
:1030100099838883828193819B838A83F0E0E0E0B7
:1030200012968D919C9113970097B9F52D913C9133
:103030001197CD010296820F931F20919503309135
:1030400096032817390739F6309751F510929803EF
:1030500010929703B0939603A0939503BCCFD383AC
:10306000C28340815181840F951FC817D90761F42D
:103070004E5F5F4F88819981480F591F518340836C
:103080008A819B81938382832115310509F0B0CF1A
:10309000F0939803E09397039ECFFD01DC01C0CF2E
:1030A00013821282D7CFB0E0A0E0E9E5F8E10C94FA
:1030B000AD158C01009751F4CB010E942E178C01A5
:1030C000C801CDB7DEB7E0E10C94C915FC01E60FED
:1030D000F71F9C0122503109E217F30708F49DC045
:1030E000D901CD91DC911197C617D70798F0C5305B
:1030F000D10530F3CE0104978617970708F3C61B56
:10310000D70B2297C193D1936D937C93CF010E94EB
:10311000CA17D6CF5B01AC1ABD0A4C018C0E9D1E9E
:10312000A0919703B0919803512C412CF12CE12CE4
:10313000109731F580919503909196038815990524
:1031400009F05CC04616570608F058C0809102018D
:1031500090910301009741F48DB79EB7409106010D
:1031600050910701841B950BE817F90708F055C02B
:10317000F0939603E0939503F90171836083A0CFE8
:103180008D919C91119712966C90129713967C904A
:103190001397A815B90559F56C0142E0C40ED11C6E
:1031A000CA14DB0420F1AC014A195B09DA0112965A
:1031B000159780F06282738251834083D9016D93A9
:1031C0007C93E114F10471F0D7011396FC93EE9314
:1031D000129776CF22968C0F9D1FF90191838083E1
:1031E000F301EFCFF0939803E093970369CF48166C
:1031F000590608F42C017D01D3019ACFCB010E941E
:103200002E177C01009749F0AE01B8010E941519F4
:10321000C8010E94CA17870153CF10E000E050CFC9
:1032200081E090E0F8940C942519FB01DC0102C0C8
:1032300001900D9241505040D8F70895FB01DC01F8
:1032400001900D920020E1F7089510E0C2E6D0E071
:1032500004C0FE010E9421172196C336D107C9F789
:04326000F894FFCF10
:10326400FFFF00009903800001000100010000003D
:1032740000000000010001000100FC60DAF266B603
:10328400BEE0FEF60000000039019900C600860188
:10329400F700D500E90000000000E905BC05A90815
:1032A4009205B505A205930500000000F8039900F6
:1032B400A908AC08A908A608DD0CA308A308000007
:1032C4000000F8039900A908AC08FA0AFF093508B8
:1032D4000308A30844656D6F4C45440076302E31D5
:1032E4002E3200544D45656475636174696F6E2EAA
:1032F400636F6D002020202020202020202020200B
:103304002020202000706F74656E74696F6D657481
:103314006572006D6F766500616E64207761697413
:1033240000616E64206D6F7665206B6E6F6200685D
:0E3334006974206D6963726F70686F6E65005A
:00000001FF
