:100000000C9447080C946F080C946F080C946F08BC
:100010000C946F080C946F080C946F080C94741D6A
:100020000C946F080C946F080C946F080C946F0874
:100030000C946F080C946F080C946F080C946F0864
:100040000C94F61D0C946F080C946F080C946F08B8
:100050000C946F080C946F080C946F080C946F0844
:100060000C94401E0C946F08000103070F1F3F7F84
:100070000080C0E0F0F8FCFE00000000003E5B4F96
:100080005B3E3E6B4F6B3E1C3E7C3E1C183C7E3CF8
:10009000181C577D571C1C5E7F5E1C00183C180006
:1000A000FFE7C3E7FF0018241800FFE7DBE7FF3096
:1000B000483A060E2629792926407F050507407F04
:1000C00005253F5A3CE73C5A7F3E1C1C08081C1C77
:1000D0003E7F14227F22145F5F005F5F06097F016D
:1000E0007F006689956A606060606094A2FFA29458
:1000F00008047E040810207E201008082A1C080826
:100100001C2A08081E101010100C1E0C1E0C303873
:100110003E3830060E3E0E06000000000000005F74
:1001200000000007000700147F147F14242A7F2A90
:100130001223130864623649562050000807030052
:10014000001C2241000041221C002A1C7F1C2A089E
:10015000083E080800807030000808080808000001
:1001600060600020100804023E5149453E00427F75
:10017000400072494949462141494D331814127FC4
:100180001027454545393C4A494931412111090764
:100190003649494936464949291E000014000000E5
:1001A00040340000000814224114141414140041B7
:1001B00022140802015909063E415D594E7C121174
:1001C000127C7F494949363E414141227F414141AC
:1001D0003E7F494949417F090909013E4141517327
:1001E0007F0808087F00417F41002040413F017F98
:1001F000081422417F404040407F021C027F7F0460
:1002000008107F3E4141413E7F090909063E4151A8
:10021000215E7F09192946264949493203017F0198
:10022000033F4040403F1F2040201F3F4038403F99
:10023000631408146303047804036159494D4300AF
:100240007F4141410204081020004141417F0402E6
:10025000010204404040404000030708002054547D
:1002600078407F284444383844444428384444285B
:100270007F385454541800087E090218A4A49C78AE
:100280007F0804047800447D40002040403D007F0A
:100290001028440000417F40007C047804787C08EA
:1002A0000404783844444438FC18242418182424BE
:1002B00018FC7C08040408485454542404043F44A3
:1002C000243C4040207C1C2040201C3C4030403CD2
:1002D00044281028444C9090907C4464544C440032
:1002E0000836410000007700000041360800020196
:1002F0000204023C2623263C1EA1A161123A404082
:10030000207A3854545559215555794122545478FE
:1003100042215554784020545579400C1E52721297
:100320003955555559395454545939555454580020
:1003300000457C410002457D420001457C407D1224
:1003400011127DF0282528F07C5455450020545486
:100350007C547C0A097F4932494949323A44444431
:100360003A324A4848303A4141217A3A424020786C
:10037000009DA0A07D3D4242423D3D4040403D3C6D
:1003800024FF2424487E4943662B2FFC2F2BFF0992
:1003900029F620C0887E0903205454794100004486
:1003A0007D413048484A32384040227A007A0A0A71
:1003B000727D0D19317D2629292F282629292926E4
:1003C00030484D4020380808080808080808382F29
:1003D00010C8ACBA2F102834FA00007B00000814B3
:1003E0002A142222142A14085500550055AA55AA89
:1003F00055AAFF55FF55FF000000FF00101010FF29
:1004000000141414FF001010FF00FF1010F010F083
:10041000141414FC001414F700FF0000FF00FF1474
:1004200014F404FC141417101F10101F101F1414C0
:10043000141F00101010F0000000001F101010100A
:100440001F10101010F010000000FF1010101010FE
:1004500010101010FF10000000FF140000FF00FF3C
:1004600000001F10170000FC04F4141417101714D8
:1004700014F404F40000FF00F714141414141414FA
:10048000F700F7141414171410101F101F1414146D
:10049000F4141010F010F000001F101F0000001FD7
:1004A00014000000FC140000F010F01010FF10FF0A
:1004B000141414FF141010101F00000000F010FF9F
:1004C000FFFFFFFFF0F0F0F0F0FFFFFF0000000083
:1004D00000FFFF0F0F0F0F0F3844443844FC4A4A07
:1004E0004A347E02020606027E027E0263554941BC
:1004F000633844443C04407E201E2006027E0202F3
:1005000099A5E7A5991C2A492A1C4C7201724C3006
:100510004A4D4D303048784830BC625A463D3E49DD
:100520004949007E0101017E2A2A2A2A2A44445F81
:10053000444440514A444040444A51400000FF0175
:1005400003E080FF000008086B6B08361236243683
:10055000060F090F060000181800000010100030E8
:1005600040FF0101001F01011E00191D1712003C70
:100570003C3C3C000000000000000000240027007C
:100580002A00DB40A4A62EAF2000A1C8D300408DD6
:10059000AED580A800006000000000000000000050
:1005A0000000000000E0000000000000000000006B
:1005B00000000001E000000000000000000000005A
:1005C000000001F00000000000000000000000003A
:1005D0000003F00000000000000000000000000028
:1005E00007F000000000000000000000000000070D
:1005F000F8000000000000000000000000000FF8FC
:1006000000000003C0007E000001E0007F0FF80042
:10061000000003C000FE000001E000FFEFF8000052
:100620000003C000FE000001E000FFFFF800000032
:1006300003C000F00000000F007FFE7FC000000339
:10064000C000F00000000F003FFE7FF83FF1FBCF3D
:10065000FCFEF3BC3DEFE01FFE7FFF7FFBFFDFFEF4
:10066000FEFFBC3DEFE01FC6FFFF7FFBFFDFFEFE8E
:10067000FFBC3DEFE00FE3C7FE787BC3DE1EF0FF5B
:10068000BC3DEF0007FF87FC787BC3DE1EF0F83C23
:100690003DEF0001FFFFF0007BC3C01EF0F03C3DCA
:1006A000EF0001F37FE03FFBC3CFFEF0F03C3DEFF6
:1006B0000003E33F807FFBC3DFFEF0F03C3DEF0033
:1006C00007E73C00787BC3DE1EF0F03C3DEF0007FF
:1006D000FFBE00787BC3DE1EF0F03C3DEF0007FF5D
:1006E000FE00787BC3DE1EF0F03C3DEF000FFFFE06
:1006F000007FFBFFDFFEF0F03FFDEFE00FFFFF00AC
:100700007FFBFFDFFEF0F03FFDEFE00FF9FF003E63
:1007100079F9CF9EF0F01F3DE7E01FF1FF000000E8
:100720000000000000000000001F80FF007FFFFFAE
:10073000FFFFFFFFFFFFFFE01C007F007FFFFFFFC9
:10074000FEB46D888D18E000001F007FFFFFFFFEE4
:1007500095AD7DB577E000000F007FFFFFFFFEA5A0
:10076000AD9D8D19E0000006007FFFFFFFFEB5ADD7
:10077000EDB57EE0000000000001800000000000F8
:1007800000000000038000000000000000000007DF
:10079000C000000000000000000007C000000000D2
:1007A00000000000000FC00000000000000000007A
:1007B0001FE00000000000000000001FE00000003B
:1007C0000000000000003FE000000000000000000A
:1007D000003FF00000000000000000007FF000007B
:1007E00000000000001FF87FF00000000000000083
:1007F0003FFE7FF0000000000000003FFF7FF000A0
:100800000000000000001FFFFBE0000000000000EF
:10081000000FFFF9FFC00000000000000FFFF9FF0C
:10082000F800000000000007FFF1FFFF00000000DB
:10083000000003FC73FFFF80000000000001FE3F8A
:10084000FFFF80000000000000FF1E0FFF000000FF
:10085000000000007FFE1FFC000000000000003FC1
:10086000FFFFF8000000000000000FDFFFE00000C5
:1008700000000000001F19FFC00000000000000081
:100880003F3CFF00000000000000007E7CF80000FC
:100890000000000000007FFE7C000000000000005F
:1008A00000FFFFFC0000000000000000FFFFFE0052
:1008B00000000000000000FFFFFE0000000000003C
:1008C0000001FFEFFE0000000000000001FFCFFE6E
:1008D0000000000000000003FF07FE000000000011
:1008E000000003FC07FE0000000000000003F0030E
:1008F000FE00000000000000018000FE000000007B
:100900000000000000007E00000000000000000069
:10091000003E000000000000000000000C0000008D
:10092000000000078000FC000003C00000000780FA
:1009300001FC000003C0000000078001FC00000370
:10094000C0000000078001E00000001E000000075A
:100950008001E00000001E007FE3F79FF9FDE778CB
:100960007BDFC0FFF7FFBFFDFDFF787BDFC0FFF738
:10097000FFBFFDFDFF787BDFC0F0F787BC3DE1FFE7
:10098000787BDE00F0F787BC3DE1F0787BDE00008D
:10099000F787803DE1E0787BDE007FF7879FFDE110
:1009A000E0787BDE00FFF787BFFDE1E0787BDE00CB
:1009B000F0F787BC3DE1E0787BDE00F0F787BC3DD7
:1009C000E1E0787BDE00F0F787BC3DE1E0787BDE9C
:1009D00000FFF7FFBFFDE1E07FFBDFC0FFF7FFBFD8
:1009E000FDE1E07FFBDFC07CF3F39F3DE1E03E7B78
:1009F000CFC00000000000000000000000FFFFFF6B
:100A0000FFFFFFFFFFFFFFC0FFFFFFFFFD68DB11E0
:100A10001A31C0FFFFFFFFFD2B5AFB6AEFC0FFFF3B
:100A2000FFFFFD4B5B3B1A33C0FFFFFFFFFD6B5B1E
:100A3000DB6AFDC000000000230026002900000042
:100A4000000800020100000304070000000000008D
:100A50000000000000000000000000000000000096
:100A60000000000000000000000000000000000086
:100A70000000000000000000000000000000000076
:100A80000000000001FFFFFFFFF80000020000006F
:100A9000000800000400000000180000180000001A
:100AA0000028000020000000004800004000000076
:100AB0000088000080000000010800010000000024
:100AC000020800020007000004080004000F800074
:100AD00008080018000F800010080020000F800098
:100AE00021C800400007000043E80080000000002B
:100AF00083E801000000000103E80200000000029A
:100B000001C80400000000040008180000000008EC
:100B10000008200000000010000840000000002035
:100B20000008FFFFFFFFFFC000088000000000403A
:100B30000008800000000040000880000000004025
:100B40000008800000000040000880000000004015
:100B50000008800000000040000880000003804082
:100B6000000880000007C040000880000007C04067
:100B7000000880000007C04000088000000380409B
:100B800000088000000000400008800000000040D5
:100B900000088000000000400008800000000040C5
:100BA0000008800000000040000880001C00004099
:100BB000000880003E000040000880003E00004029
:100BC000000880003E000040000880001C0000403B
:100BD000001880000000004000208000000000405D
:100BE0000040800000000047008080000000004FAF
:100BF000810080000000004F820080E00000004F74
:100C00008C0081F000000047100081F000000040DF
:100C1000200081F000000040400080E00000004023
:100C200080008000000000410000800000000046BD
:100C3000000080000000004800008000000000501C
:100C400000008000000000600000FFFFFFFFFFC009
:100C50000000000000000000000000000000000094
:100C60000000000000000000000000000000000084
:100C70000000000000000000000000000000000074
:100C80000000000001FFFFFFFFF80000020000006D
:100C90000008000004E000070018000019F0000F31
:100CA0008028000021F0000F8048000041F0000F74
:100CB0008088000080E000070108000100000000BB
:100CC000020800020007000004080004000F800072
:100CD00008080018000F800010080020000F800096
:100CE00020080040000700004008008700000700BF
:100CF0008008010F80000F810008020F80000F8222
:100D00000008040F80000F8400081807000007087F
:100D10000008200000000010000840000000002033
:100D20000008FFFFFFFFFFC0000880000000004038
:100D30000008800000000040000880000000004023
:100D40000008800000000040000880000000004013
:100D5000000881C000000040000883E0000000405F
:100D6000000883E000000040380883E000000040F5
:100D70007C0881C0000000407C088000000000402A
:100D80007C0880000000004038088000000000401F
:100D900000088000000000400008800000000040C3
:100DA00000088000000000400008800000000040B3
:100DB00000088000000000400008800000000040A3
:100DC0000008800000000040000880000000004093
:100DD000001880000000004000208000000000405B
:100DE00000408000000000400080800000000040C3
:100DF0000100800000000040020080000000004070
:100E00000C0080000007004010008000000F8040B0
:100E100020008000000F804040008000000F8040D4
:100E200080008000000700410000800000000046B4
:100E3000000080000000004800008000000000501A
:100E400000008000000000600000FFFFFFFFFFC007
:100E50000000000000000000000000000000000092
:100E60000000000000000000000000000000000082
:100E70000000000000000000000000000000000072
:100E80000000000001FFFFFFFFF80000020000006B
:100E90000008000004000000001800001800000016
:100EA000002800002000001C004800004000003E18
:100EB000008800008000003E010800010000003EA4
:100EC000020800020007001C04080004000F800054
:100ED00008080018000F800010080020000F800094
:100EE00021C800400007000043E800870000000020
:100EF00083E8010F8000000103E8020F8000000278
:100F000001C8040F80000004000818070000000852
:100F10000008200000000010000840000000002031
:100F20000008FFFFFFFFFFC0000880000000004E28
:100F3000000880000000005F000880000000005FE3
:100F4000000880000000005F000880000000004EE4
:100F50000008800000000040000880E0000380409E
:100F6000000881F00007C040000881F00007C04081
:100F7000000881F00007C040000880E000038040C6
:100F800000088000000000400008800000000040D1
:100F900000088000000000400008800000000040C1
:100FA00001C880000000004003E880001C000040F1
:100FB00003E880003E00004003E880003E0000405F
:100FC00001C880003E000040000880001C00004076
:100FD0000018800000000040002080000000004059
:100FE0000040800000000047008080000000004FAB
:100FF000810080000000004F820080E00000004F70
:101000008C0081F000070047100081F0000F804045
:10101000200081F0000F8040400080E0000F804001
:1010200080008000000700410000800000000046B2
:101030000000800000000048000080000000005018
:1010400000008000000000600000FFFFFFFFFFC005
:101050000000010204081020408001020408102052
:1010600001020408102000000000250028002B00C9
:10107000040404040404040402020202020203033E
:1010800003030303022200FF21005F1FDF25112459
:101090001FBECFEFD8E0DEBFCDBF11E0A0E0B1E0D2
:1010A000EAE7F2E502C005900D92A23CB107D9F73C
:1010B00023E0A2ECB1E001C01D92A631B207E1F736
:1010C00018E0C6E4D8E004C02197FE010E942C2756
:1010D000C534D107C9F70E9401200C9430290C9423
:1010E000000091E0909398028093970210929602EC
:1010F000109295020895089508950895AF92BF92B1
:10110000CF92DF92EF92FF920F931F93CF93DF93D3
:101110006C017B018B01040F151FEB015E01AE1802
:10112000BF08C017D10759F06991D601ED91FC9124
:101130000190F081E02DC6010995892B79F7C50151
:10114000DF91CF911F910F91FF90EF90DF90CF90A3
:10115000BF90AF900895833081F028F4813099F0EA
:101160008230A9F008958730A9F08830C9F0843022
:10117000B1F4809180008F7D03C0809180008F77D3
:1011800080938000089584B58F7784BD089584B5D9
:101190008F7DFBCF8091B0008F778093B000089552
:1011A0008091B0008F7DF9CF1F93CF93DF93282FCD
:1011B00030E0F901E25CF54F8491F901EE5AFF4EFF
:1011C000D491F901E059FF4EC491CC23A9F0162F18
:1011D00081110E94AB08EC2FF0E0EE0FFF1FEA59DF
:1011E000FF4EA591B4918FB7F894EC91111108C0FE
:1011F000D095DE23DC938FBFDF91CF911F910895AF
:10120000DE2BF8CFCF93DF9390E0FC01EE5AFF4E38
:10121000249180599F4EFC0184918823D1F090E065
:10122000880F991FFC01E858FA4FA591B491FC0171
:10123000EA59FF4EC591D49161110EC09FB7F89441
:101240008C91E22FE0958E238C932881E223E88312
:101250009FBFDF91CF9108958FB7F894EC91E22B67
:10126000EC938FBFF6CFCF9380910001823021F0B5
:101270008F3F59F1CF910895E4E8F0E1C491C7FDA3
:10128000F9CF61E082E00E940209CC2309F48BC00F
:10129000C23009F0A0C08091B10087608093B10096
:1012A0008DE48093B30082E090E0A0E0B0E0809312
:1012B000360290933702A0933802B093390280919E
:1012C0007000826080937000D5CF82E0809300012F
:1012D000E4E8F0E1C491CF3F69F2C13021F150F070
:1012E000C23009F43EC0C7FDC5CF61E082E00E9474
:1012F0000209CECF14BC15BC84B5826084BD85B50F
:10130000816085BDE2E7F0E1E491F0E0EE0FFF1FC0
:10131000EA59FF4E85919491E4E5F0E1E491E09380
:101320003502C0E0AECF1092800010928100809113
:10133000810088608093810080918100816080932A
:101340008100E2E7F0E1E491F0E0EE0FFF1FEA59DF
:10135000FF4E85919491E4E5F0E1E491E09334024D
:1013600090CF1092B0001092B1008091B0008260D6
:101370008093B0008091B10081608093B100E2E77A
:10138000F0E1E491F0E0EE0FFF1FEA59FF4E859186
:1013900094919093330280933202E4E5F0E1E4917A
:1013A000E09331026ECF85B5887F856085BD8DE481
:1013B00087BD82E090E0A0E0B0E080933E02909391
:1013C0003F02A0934002B093410280916E00826080
:1013D00080936E004FCFC130F1F480918100887FFF
:1013E00083608093810081EE94E0909389008093E4
:1013F000880082E090E0A0E0B0E080933A02909311
:101400003B02A0933C02B0933D0280916F0082604A
:1014100080936F002FCFC23021F0C1112BCF81EE0E
:10142000C7CF81EE3ECF3FB7F89480912C029091C8
:101430002D02A0912E02B0912F0226B5A89B05C0C7
:101440002F3F19F00196A11DB11D3FBFBA2FA92F43
:10145000982F8827BC01CD01620F711D811D911D40
:1014600042E0660F771F881F991F4A95D1F70895AC
:101470008F929F92AF92BF92CF92DF92EF92FF92A4
:101480004B015C010E94130A6B017C010E94130A4C
:101490006C197D098E099F09683E7340810591058D
:1014A000A8F321E0821A9108A108B10888EEC80EBD
:1014B00083E0D81EE11CF11C81149104A104B10445
:1014C00029F7FF90EF90DF90CF90BF90AF909F9063
:1014D0008F9008958F929F92AF92BF92EF92FF925A
:1014E0001F93CF93DF93EC01162FE881F9810484D9
:1014F000F585E02D462F70E060E009957C011150E4
:101500001230D8F419861A8688889988AA88BB88E8
:101510000E94130A688F798F8A8F9B8F8C8E9D8E85
:10152000AE8EBF8EC701DF91CF911F91FF90EF90DC
:10153000BF90AF909F908F9008958C889D88AE88C3
:10154000BF88E6CFDC0118968C911897681710F0C9
:101550006FEF680F1B969C911B97992391F017963C
:101560002C911797962F211106C061E0690F90E02A
:101570006817D8F7F7CF19961C9219971A966C939B
:101580001A97FD01E60FF11D64856068CD010C948A
:101590006A0A8F929F92AF92BF92EF92FF920F933F
:1015A0001F93CF93DF93EC01462FE881F9810484E8
:1015B000F585E02D61E070E009957C018C889D88BF
:1015C000AE88BF880E94130A688F798F8A8F9B8F9D
:1015D0008C8E9D8EAE8EBF8E01E010E0EF2811F054
:1015E00010E000E08B85882391F089858F5F8987E3
:1015F0009F81891760F019868A858F5F8A87988511
:10160000891708F01A866A85CE010E94A20AC801CD
:10161000DF91CF911F910F91FF90EF90BF90AF900E
:101620009F908F90089561E00C946A0A20910402C3
:10163000260F3327331F21323105ECF420916D0240
:10164000FC0190E080E0243069F082E00895A091F0
:1016500004022191AC014C515E4FA40FB52FB11D76
:101660002C930196861798F380910402680F60937B
:10167000040280E0089581E0089510926D0281E0F7
:1016800080936C021092670261E082E10E94D408AC
:1016900061E083E10E94D408E9EBF0E080818E7F75
:1016A000808380818D7F808388E48093B80085E487
:1016B0008093BC00089510927402109273021092ED
:1016C0009602109295020E943D0B8BE798E0909352
:1016D0004502809344028CE798E090934302809304
:1016E00042020895CF93DF9391E09093E301882322
:1016F000B9F0C091B800D091BA008091BC008A7B4B
:101700008093BC0060E082E10E94D40860E083E145
:101710000E94D4080E943D0BD093BA00C093B80039
:10172000DF91CF910895E091740280917302E817E0
:1017300030F4F0E0EB58FD4F808190E008958FEF9A
:101740009FEF089590917402809173022FEF3FEF05
:10175000981748F4E92FF0E0EB58FD4F208130E076
:101760009F5F90937402C9010895809173029091D4
:101770007402891B990B0895CF92DF92EF92FF922A
:101780000F931F93CF93DF937C01CB018A012091AC
:101790009802222389F0EB016B01C40ED51ECC15F3
:1017A000DD0569F06991D701ED91FC910190F0811F
:1017B000E02DC7010995F3CF642F0E94160BC801D5
:1017C000DF91CF911F910F91FF90EF90DF90CF901D
:1017D0000895CF93DF931F92CDB7DEB76983209131
:1017E00098022223F9F020919502203258F021E04E
:1017F00030E0FC013383228390E080E00F90DF91A2
:10180000CF91089580919602E82FF0E0ED53FE4FBE
:10181000998190838F5F809396028093950281E0F7
:1018200090E0ECCF61E0CE0101960E94160BF7CF5D
:10183000682F89E992E00C94E90BCF92DF92EF9246
:10184000FF920F931F93CF93DF93D091950281E086
:10185000D13208F09CC0C09197020E94130A6B011C
:101860007C0180916D0281116CC082E080936D02D9
:1018700081E080936C028FEF80936B0210926A027A
:10188000D0936902A3ECB1E0E7E4F2E080E0D81382
:101890008DC01092680280916802CC0FC82BC09353
:1018A000680280916702813009F084C0109267025B
:1018B0000E94130A6B017C01809168028093BB0037
:1018C00080916F0290917002A0917102B0917202AA
:1018D000892B8A2B8B2BA1F00E94130A00916F0297
:1018E0001091700220917102309172026C197D0981
:1018F0008E099F09061717072807390708F442C001
:101900008091BC0083FDD8CF85EC8093BC000E9401
:10191000130A6B017C0180916D02823009F44CC086
:1019200080916B028F3F09F469C080916B02803215
:1019300009F466C080916B02803309F463C084E0CF
:1019400026C080916F0290917002A0917102B091B7
:101950007202892B8A2B8B2B09F483CF0E94130AE6
:1019600000916F0210917002209171023091720209
:101970006C197D098E099F09061717072807390773
:1019800008F06FCF80916E020E94720B85E010927A
:1019900096021092950210929802DF91CF911F91BA
:1019A0000F91FF90EF90DF90CF9008959D919193CC
:1019B0008F5F6DCF85EEA9CF80916F0290917002FD
:1019C000A0917102B0917202892B8A2B8B2B09F4A2
:1019D000A2CF0E94130A00916F0210917002209111
:1019E0007102309172026C197D098E099F090617E8
:1019F00017072807390708F08ECFC4CF80E0C7CF7C
:101A000082E0C5CF83E0C3CFCF93DF93D82FC62F1B
:101A10008091460280620E9471086D2F89E992E0F0
:101A20000E94E90B6C2F89E992E00E94E90B89E999
:101A300092E0DF91CF910C941D0C0895FC0163702E
:101A4000668B8481958126813781613039F06330DE
:101A500029F09187808733872287089531872087EF
:101A60009387828708952F923F924F925F926F9251
:101A70007F928F929F92AF92BF92CF92DF92EF921E
:101A8000FF920F931F93CF93DF93CDB7DEB76A9783
:101A90000FB6F894DEBF0FBECDBF9A8F898F7A83C1
:101AA00069834A01D22E18870F833701BC2CDC01D1
:101AB00059962D913C915A972115310509F015C180
:101AC00018968D919C911997681779070CF0D7C1DA
:101AD0001A968D919C91481759070CF0D0C14C2C47
:101AE000512CB6E0CB9E600D711D11247C876B8755
:101AF000161617060CF0C3C1EA2DF0E0FA87E98745
:101B000093E0EE0FFF1F9A95E1F7F88BEF87CF0177
:101B1000840F951F181619060CF0B1C1A98DBA8D46
:101B200058968C91811104C0BFEABD1508F4D39476
:101B3000A98DBA8DED91FC9111970284F385E02D6A
:101B4000CD010995B5E0DB9EC0011124E981FA8140
:101B5000FC83EB83312C212C9C0128583F4F388F7C
:101B60002F8B4A2D50E05E8B4D8BEF89F88DE20D67
:101B7000F31D44919E828D82D12CC12C69817A8182
:101B8000620D731D7A8B698B842F90E09C8B8B8BFD
:101B9000E98DFA8DA081B18140FF82C0F1E0BF12D2
:101BA0006FC0AF126DC01C96ED91FC912F813885EE
:101BB000A4014C0D5D1D69897A89898D9A8D0995DD
:101BC000EB89FC89F595E7954E2F5FEFC51AD50A8D
:101BD0006D817E818D899E89680F791F7E836D83DB
:101BE00098E0C916D10481F6AFEF2A1A3A0AEB81C0
:101BF000FC81E40DF51DFC83EB83F5E02F16310429
:101C000009F0B3CF2F81388526153705B9F0A98D96
:101C1000BA8DED91FC91B1E0BB1257C0AB1255C02B
:101C200069817A816B5F7F4F0088F189E02D8301A4
:101C300028E030E0A401898D9A8D0995A98DBA8D8F
:101C4000ED91FC9111970688F789E02DCD016A96F8
:101C50000FB6F894DEBF0FBECDBFDF91CF911F91BD
:101C60000F91FF90EF90DF90CF90BF90AF909F903B
:101C70008F907F906F905F904F903F902F9009943E
:101C80001E96ED91FC91EF80F88409851A859201EA
:101C90004D815E816B817C81898D9A8D099590CF74
:101CA0002F8138852615370509F48ACF31E0B31224
:101CB00007C0A31205C01C96ED91FC91930178CF4B
:101CC0001E96ED91FC917301E0CF6B857C856419C4
:101CD00075090684F785E02D73010F851889920137
:101CE000A401898D9A8D0995A9CFF9013496949113
:101CF000329745915491D91AB7E0DB9E400D511DA2
:101D00001124F901259134913C8B2B8BFA012590FC
:101D10003490FA013296749031963491398B329620
:101D200064903196449041E04C1518F04A1508F043
:101D30007FC0662D062C000C770B7C836B83842D73
:101D4000042C000C990B9E838D83A98DBA8DED9187
:101D5000FC9111970284F385E02DCD010995512C5A
:101D6000D12CC12CEA2DF0E0FA87E9872B2D30E049
:101D70003C872B87A401440D511D47FC5A95588F71
:101D80004F8B69817A81660D711D67FC7A957E871C
:101D90006D877989C71608F051CF2C2D30E04D8121
:101DA0005E81420F531FA985BA854A9FC0014B9F90
:101DB000900D5A9F900D1124FC01E80DF91DF88B30
:101DC000EF87852D612C4F89588D420F531F5E8BF5
:101DD0004D8B671408F050C044244394480E87701C
:101DE00041F4C1010196EB89FC89E20DF31DD49009
:101DF0001C01D7FE19C0A98DBA8DED91FC91662DFD
:101E000070E0B1E0BB1219C0AB1217C02D853E8542
:101E1000620F731F0484F585E02D2F8138854D896D
:101E20005E89898D9A8D0995DD0C6394842DD1CFBF
:101E30001E821D821C821B8288CF4B815C81640FB5
:101E4000751FAB85BC856A9FC0016B9F900D7A9F03
:101E5000900D112469817A81680F791F0684F785B6
:101E6000E02DEF80F88409851A859D014F855889FA
:101E7000898D9A8D0995D8CF570CC3948ACF6A96CD
:101E80000FB6F894DEBF0FBECDBFDF91CF911F918B
:101E90000F91FF90EF90DF90CF90BF90AF909F9009
:101EA0008F907F906F905F904F903F902F9008950C
:101EB0008F929F92AF92CF92EF92FF920F931F93C8
:101EC000CF93DF93EC01262F898D9A8D009709F02F
:101ED00051C06A30D1F41D861C868D8948E0849FEC
:101EE000900111248E859F85820F931F9F878E8777
:101EF00081E090E0DF91CF911F910F91FF90EF90E3
:101F0000CF90AF909F908F9008956D3089F3CC88DB
:101F1000AD888F898823C1F08C859D8536E0C39E6E
:101F2000800D911D1124488559854817590764F47F
:101F30004E855F851D861C8638E0A39EC001112456
:101F4000840F951F9F878E87EA88FB8808891989E7
:101F50004E855F856C857D85CE010E94330D2C8971
:101F60008C859D8546E0249F800D911D11249D87C1
:101F70008C87BECF6A3069F41D861C86FC013896BA
:101F8000E4912D898E859F85E29F800D911D1124FE
:101F9000ADCF6D3009F4ACCFFC01349634916317AA
:101FA00008F4A6CF3296E491E61708F4A1CFFC011D
:101FB000329685909490462F431B342F47E0349FF0
:101FC000800C911C1124F401329634913196E491E5
:101FD0003323A9F1EE2399F1CC88F4013596E491ED
:101FE000AD884F89442301F10E2E000CFF0BE30F47
:101FF000F11DCE9EA001CF9E500D11246C857D85D4
:10200000460F571F68857985641775076CF44E85F0
:102010005F851D861C86FC013896E491AE9E400DBE
:10202000511D11245F874E87EA88FB88088919892A
:102030004E855F856C857D85CE010E94330DF40150
:102040003496E4912C898C859D85E29F800D911DAD
:1020500011248DCF6F927F928F929F92AF92BF92F9
:10206000CF92DF92EF92FF920F931F93CF93DF9364
:10207000EC016B015A0139014801E881F9810284C0
:10208000F385E02D0995E881F9810288F389E02D37
:1020900087019301A501B601CE010995A501480D5F
:1020A000591D41505109E881F9810288F389E02DD9
:1020B0009301B601CE010995E881F9810088F18983
:1020C000E02D9401A501B601CE010995C60CD71CDF
:1020D000B60161507109E881F9810088F189E02D2C
:1020E0009401A501CE010995E881F9810688F78957
:1020F000E02DCE01DF91CF911F910F91FF90EF90D6
:10210000DF90CF90BF90AF909F908F907F906F9017
:1021100009946F927F928F929F92AF92BF92CF92CB
:10212000DF92EF92FF920F931F93CF93DF935C01A7
:10213000EB016A01490138018701DC01ED91FC9155
:102140006217730719F5641675062CF0962D872D06
:102150003A01C92ED82E9601261937092F5F3F4F15
:10216000048CF58DE02DA301BE01C5010995DF9119
:10217000CF911F910F91FF90EF90DF90CF90BF9084
:10218000AF909F908F907F906F9008954615570560
:1021900091F42617370724F0892D4B01C22FD82F31
:1021A0009E01281939092F5F3F4F068CF78DE02DCE
:1021B000A601B401DACF0284F385E02D0995D5019B
:1021C000ED91FC910488F589E02D83019401A6012D
:1021D000BE01C5010995D501ED91FC910688F789ED
:1021E000E02DC501DF91CF911F910F91FF90EF90EE
:1021F000DF90CF90BF90AF909F908F907F906F9027
:102200000994EF92FF920F931F93DC011A960D91A0
:102210001C911B9718962D913C911997ED91FC916B
:1022200000A0F1A1E02D7B0150E040E070E060E013
:1022300009951F910F91FF90EF9008954F925F9233
:102240006F927F928F929F92AF92BF92CF92DF92C6
:10225000EF92FF920F931F93CF93DF936C012B01AB
:102260005A0139014801DC01ED91FC910284F385AA
:10227000E02D0995E201640C751CD601ED91FC91ED
:10228000C615D7055CF40088F189E02D870194011B
:10229000A501BE01C60109952196EFCF0688F789F1
:1022A000E02DC601DF91CF911F910F91FF90EF902C
:1022B000DF90CF90BF90AF909F908F907F906F9066
:1022C0005F904F9009948F929F92AF92BF92CF925E
:1022D000DF92EF92FF920F931F93CF93DF93EC0166
:1022E0005B014A016901E881F9810284F385E02DEF
:1022F000099595012C0D3D1D21503109E881F98189
:102300000488F589E02D78018401A401B501CE018E
:102310000995E881F9810688F789E02DCE01DF91E2
:10232000CF911F910F91FF90EF90DF90CF90BF90D2
:10233000AF909F908F9009948F929F92AF92BF928F
:10234000CF92DF92EF92FF920F931F93CF93DF9381
:10235000EC015B014A0169017801E881F98102849D
:10236000F385E02D0995C80CD91C8601015011098F
:10237000E881F9810488F589E02D9501A401B50172
:10238000CE010995E881F9810688F789E02DCE0113
:10239000DF91CF911F910F91FF90EF90DF90CF9041
:1023A000BF90AF909F908F900994EF92FF920F9300
:1023B0001F93DC01ED91FC9100A0F1A1E02D0995A6
:1023C0001F910F91FF90EF9008950F931F93DC01E1
:1023D000ED91FC91068CF78DE02D09951F910F91E1
:1023E00008950F931F93DC01ED91FC91048CF58D02
:1023F000E02D09951F910F910895DC01ED91FC915D
:102400000084F185E02D09943F924F925F926F9284
:102410007F928F929F92AF92BF92CF92DF92EF9274
:10242000FF920F931F93CF93DF9300D000D0CDB7CF
:10243000DEB75C013B016A014901280187E0480ED3
:10244000511C93E0559447949A95E1F7CA018E0D7B
:102450009F1D9A838983F12CE12C312C1C821B82D5
:102460008B819C8187709927330C892B61F4EB81D8
:10247000FC8183E0F595E7958A95E1F7EE0DFF1D68
:10248000E80DF91D349037FE0AC021E030E0A601C6
:102490006B817C81660D771DC5010E94FD118B81CA
:1024A0009C8101969C838B8308171907C9F69FEFBF
:1024B000C91AD90AE40CF51C89819A81C816D90673
:1024C00069F60F900F900F900F90DF91CF911F91B1
:1024D0000F91FF90EF90DF90CF90BF90AF909F90C3
:1024E0008F907F906F905F904F903F9008952F92C4
:1024F0003F924F925F926F927F928F929F92AF9294
:10250000BF92CF92DF92EF92FF920F931F93CF93E0
:10251000DF9300D000D000D0CDB7DEB73C016A0118
:102520003E832D83FC82EB825801A41AB50AB7FEC4
:1025300003C0B194A194B1088D809E80861A970A39
:1025400097FE03C09194819491088A149B045CF0D7
:10255000902F812F0D811E819D838E839C2D8D2D2B
:102560006B01692F782F0C151D055CF09D818E8104
:102570007E836D83692F782F902F812F8601C92E3E
:10258000D82E1601201A310A2B012D813E81421AC4
:10259000530A57FE03C0519441945108710137FE0C
:1025A00003C03FEFE31AF30AF594E7948D819E810F
:1025B000861797075CF5A1E0B0E0BA83A983C0163F
:1025C000D1064CF1D301ED91FC910484F585E02D09
:1025D0002B813C81A8016D817E818A149B041CF0B3
:1025E0004D815E81B801C3010995E418F508F7FE35
:1025F0000AC02D813E8189819A81280F391F3E832F
:102600002D83E20CF31C0F5F1F4FD9CF2FEF3FEF4D
:102610003A832983D4CF26960FB6F894DEBF0FBE37
:10262000CDBFDF91CF911F910F91FF90EF90DF9081
:10263000CF90BF90AF909F908F907F906F905F9062
:102640004F903F902F900895EF92FF920F931F931A
:10265000CF93DF93EC01EC80FD806E157F050CF0CD
:1026600070C057FF04C0240F351F50E040E08E813A
:102670009F81FA01E20FF31F8E179F071CF49C0144
:10268000241B350B121613060CF05BC0922F842FFF
:102690008695869586958E9DD0018F9DB00D1124CF
:1026A0006A0F7B1FAF8DB8A1A60FB71F477049F106
:1026B00088E0841B482F682F70E0FB01E059FF4F32
:1026C000E491281708F063C0621B71092FEF30E016
:1026D00002C0359527956A95E2F7E223013011058E
:1026E00039F0B0F10230110561F58C91E82702C094
:1026F0008C91E82BEC93941720F12C813D81A20F53
:10270000B31FE92FE41BE83078F00230110521F502
:102710008E2F9C9190959C932C813D81A20FB31F8D
:1027200088508830B0F7E770EE2359F0F0E0E859B0
:10273000FF4FE49101301105F9F010F1023011055D
:1027400019F1DF91CF911F910F91FF90EF900895B4
:10275000E0958C91E823CECF81E00115110509F4B5
:1027600080E081959E2F8C932C813D81A20FB31F19
:1027700098509830C0F7D7CF8C91E82BEC93E1CFED
:10278000E0958C91E823FACF8C91E827F7CF0130C0
:10279000110509F4ADCFE0F20230110509F4A5CF1F
:1027A000AE0DBF1DAECF0F931F93CF93DF9377FF77
:1027B00004C0260F371F70E060E0DC011496CD9155
:1027C000DC91FB01E20FF31FCE17DF071CF49E0123
:1027D000261B370B121613064CF5FA0157FD3796D8
:1027E000A3E0F595E795AA95E1F7EC9FD001ED9F61
:1027F000B00DFC9FB00D11246A0F7B1FDC015F96AA
:10280000ED91FC91E60FF71F4770552781E090E0AE
:1028100001C0880F4A95EAF7482F0130110559F099
:10282000A8F02E0F3F1F02301105E1F0DF91CF918C
:102830001F910F9108952E0F3F1FE217F307B1F379
:102840008191DF011197842B8C93F7CF80952E0F08
:102850003F1FE217F30751F39191DF01119798237E
:102860009C93F7CFE217F30709F38191DF011197EA
:1028700084278C93F7CF0F931F93FA01DC015696B0
:102880004C9156974230E9F04330A1F1413061F567
:1028900014964D915C91DA01AE1BBF0BFD01E21B5A
:1028A000F30B77FD0BC0DC0116964D915C9164171C
:1028B000750724F4AB01BF010E94D3131F910F9140
:1028C000089514964D915C91DA01A61BB70BBD01DA
:1028D00061507109DC0116964D915C91DA01AE1BD5
:1028E000BF0BFD01E21BF30B77FDE8CFAF010E94A8
:1028F0002413E4CF16964D915C91DA01A61BB70B19
:10290000BD0161507109CDCF0F931F93FA01DC0116
:1029100056964C9156974230A9F0433091F1413090
:1029200019F514964D915C91DA01AE1BBF0BFD01B8
:102930003197F7FD04C0AB01BF010E9424131F9122
:102940000F91089514964D915C91DA01A61BB70B77
:10295000BD01DC0116964D915C91DA01AE1BBF0BF7
:10296000FD013197621B730BF7FDE9CFDC01169671
:102970004D915C91E417F50714F7AF010E94D31352
:10298000DECF16964D915C91DA01A61BB70BBD0107
:10299000621B730BCECFFC0177FD64C080859185EF
:1029A000681779070CF05EC057FD5CC0828593857F
:1029B000481759070CF056C086898230B1F0833031
:1029C00029F1813041F484819581841B950BAB0101
:1029D000BC01615071092130310509F108F443C08F
:1029E0002230310509F463C0089584819581DC01AA
:1029F000A61BB70BBD016150710986819781DC016F
:102A0000A41BB50BAD0141505109E5CF86819781DB
:102A1000861B970BBA01AC0141505109DCCFCA01AA
:102A200057FD0796A3E095958795AA95E1F7A481B0
:102A3000B5818A9F90018B9F300D9A9F300D112494
:102A4000620F731F078CF0A1E02DE60FF71F477090
:102A5000552721E030E001C0220F4A95EAF7808136
:102A6000822B80830895CA0157FD079633E0959520
:102A700087953A95E1F7A481B5818A9F90018B9F54
:102A8000300D9A9F300D1124620F731F078CF0A137
:102A9000E02DE60FF71F4770552781E090E001C059
:102AA000880F4A95EAF7809590818923DACFCA0189
:102AB00057FD079623E0959587952A95E1F7A48120
:102AC000B5818A9F90018B9F300D9A9F300D112404
:102AD000620F731F078CF0A1E02DE60FF71F477000
:102AE000552721E030E001C0220F4A95EAF78081A6
:102AF0008227B7CF08958EBD00000DB407FEFDCF2D
:102B00008EB50895FF920F931F93CF93DF93F82E06
:102B1000D92FC62F8091C2029091C302892B09F44C
:102B200047C08091C6020E9471088091C2029091B4
:102B3000C302DC01ED91FC910190F081E02D60E099
:102B400009950F2D1D2FD1E0C1508091C2029091A7
:102B5000C302CF3F31F1D03298F00E941D0C80911A
:102B6000C6020E9471088091C2029091C302DC01EA
:102B7000ED91FC910190F081E02D60E00995D1E0AC
:102B80008091C2029091C302F8016491DC01ED9141
:102B9000FC910190F081E02D0995DF5F0F5F1F4FE1
:102BA000D3CFDF91CF911F910F91FF900C941D0C0B
:102BB000E091D202F091D30290818091D802809569
:102BC000892380830F2D1D2FC15008F438C0F801D0
:102BD00084912091C0023091C102232B29F00E94E0
:102BE0007B150F5F1F4FF0CF28E030E040E8E09109
:102BF000CE02F091CF029091D602582F5423D9F0F3
:102C00005081952B9083E091D002F091D102908178
:102C10005091D702952B9083E091D002F091D10290
:102C200050819091D702909595239083469521509D
:102C30003109E9F6D6CF508190959523E3CFDF9106
:102C4000CF911F910F91FF9008951F93CF93DF9322
:102C5000EC018D8D9E8D892BF9F0162F89A10E9494
:102C600071088D8D9E8DDC01ED91FC910190F081BC
:102C7000E02D60E009958D8D9E8DDC01ED91FC913C
:102C80000190F081E02D612F09958D8D9E8DDF9152
:102C9000CF911F910C941D0CADA5BEA59C918BA945
:102CA000809589238C938B8D9C8D892B31F0862F79
:102CB000DF91CF911F910C947B1528E030E080E8E4
:102CC000A9A5BAA599A9462F4823C1F04C91942BE8
:102CD0009C93ABA5BCA59C914AA9942B9C93ABA5B6
:102CE000BCA54C919AA9909594239C9386952150CC
:102CF000310931F7DF91CF911F9108954C91909553
:102D00009423E6CF8CBD9DBD0895FF920F931F9332
:102D1000CF93DF938091C2029091C302892B09F473
:102D200087C02091DA023091DB024091DC025091A1
:102D3000DD0260E074E284EF90E00E94FB26205107
:102D400031094109510956954795379527952093A3
:102D5000B80065E085E890E10E9482156091A902C3
:102D6000615085EA92E00E9425162091AB023091D5
:102D7000AC02C901079697FD079623E095958795C4
:102D80002A95E1F72091A9023091AA02829F800141
:102D9000839F100D929F100D1124C091C402D091F9
:102DA000C5028091C2029091C3020C0F1D1F892B96
:102DB00009F47CC08091C6020E9471088091C20211
:102DC0009091C302DC01ED91FC910190F081E02D26
:102DD00060E40995FF24F3948091C2029091C302AC
:102DE0000C171D07E1F1BFE1BF15A0F40E941D0CF7
:102DF0008091C6020E9471088091C2029091C30224
:102E0000DC01ED91FC910190F081E02D60E40995E9
:102E1000FF24F3948091C2029091C3026991DC0176
:102E2000ED91FC910190F081E02D0995F394D4CFC0
:102E30008091C0029091C102892B31F08091E30210
:102E40009091E4020E948216E091D402F091D502A2
:102E500090818091D9028095892380837ACF0E94C6
:102E60001D0C8091C2029091C302892B09F45FC0AE
:102E70002091DE023091DF024091E0025091E102A8
:102E800060E074E284EF90E00E94FB26205131095B
:102E90004109510956954795379527952093B800D4
:102EA000DF91CF911F910F91FF900895E091D20291
:102EB000F091D30280819091D802892B80830C17E6
:102EC0001D0779F289912091C0023091C102232B14
:102ED00019F00E947B15F3CF28E030E040E8E09144
:102EE000CE02F091CF029091D602582F5423D9F000
:102EF0005081952B9083E091D002F091D102908186
:102F00005091D702952B9083E091D002F091D1029D
:102F100050819091D70290959523908346952150AA
:102F20003109E9F6CCCF508190959523E3CFE0911C
:102F3000D402F091D50280819091D902892B8083AF
:102F4000AFCF1F93CF93DF93EC01162F8D8D9E8D06
:102F5000892BB1F12DA93EA94FA958AD60E074E2CB
:102F600084EF90E00E94FB2620513109410951096C
:102F700056954795379527952093B80066EA111125
:102F800067EACE010E9425168D8D9E8D892B41F119
:102F900029AD3AAD4BAD5CAD60E074E284EF90E0FA
:102FA0000E94FB2620513109410951095695479548
:102FB000379527952093B800DF91CF911F91089501
:102FC0008B8D9C8D892B21F08EAD9FAD0E9482163A
:102FD000EFA5F8A990818CA9809589238083CECF15
:102FE000EFA5F8A980819CA9892B8083E5CF0F9359
:102FF0001F93CF93DF93182FD0E0C0E28C2F0E9455
:10300000710889E992E00E941D0C082F61E070E0D0
:1030100080E090E00E94380A011103C01D17E1F022
:10302000DF5FCF5FC83251F7C8E38C2F0E94710871
:1030300089E992E00E941D0C082F61E070E080E0B9
:1030400090E00E94380A011103C01D1729F0DF5FCC
:10305000CF5FC03451F7C0E08C2FDF91CF911F912B
:103060000F910895CF93FC01C4A560FF02C086A113
:10307000C82B61FF02C087A1C82B62FF02C080A5D8
:10308000C82B63FF02C081A5C82B4130510511F444
:1030900083A1C82B85A18C2B90E00E94180C6C2F6B
:1030A00089E992E0CF910C94E90BCF93DF93EC0187
:1030B0008AA5882359F19BA5662321F1913021F53A
:1030C0008CA788A10E94710889A19AA1029721F476
:1030D00089E090E00E94180C6CA589E992E00E94BA
:1030E000E90B89E992E00E941D0C21E030E081119A
:1030F00002C030E020E088279927821B930BDF91E4
:10310000CF9108959923E1F21CA6DBCF8DEF9FEFBD
:10311000F6CF4F925F926F927F928F929F92AF9273
:10312000BF92EF92FF921F93CF93DF93EC0188A1A0
:10313000882309F45BC089A19AA1892B09F456C0A0
:10314000142F7B014C8C5D8C6E8C7F8C888C998CC1
:10315000AA8CBB8C8DE2881A9108A108B1080E9444
:10316000130A681979098A099B096415750586058A
:103170009705A8F388A10E94710889A19AA10297D6
:1031800021F489E090E00E94180C612F70E084E047
:10319000759567958A95E1F7A701CE010E943218CF
:1031A00082E0E816F10431F0612F6F70A701CE01C3
:1031B0000E94321889E992E00E941D0C21E030E063
:1031C000811102C030E020E088279927821B930BF1
:1031D000DF91CF911F91FF90EF90BF90AF909F90A4
:1031E0008F907F906F905F904F9008958CEF9FEF3E
:1031F000EFCF8DEF9FEF08958DEF9FEF089590E053
:1032000080E008950895CF92DF92EF92FF920F939E
:103210001F93CF93C82F0E94130A6B017C018091EA
:103220006D02811164C081E080936D0280936C0215
:103230009FEF90936B0210926A0210926902809342
:10324000680280916802CC0FC82BC09368028091FD
:103250006702813009F07DC0109267020E94130A54
:103260006B017C01809168028093BB0080916F02AA
:1032700090917002A0917102B0917202892B8A2BF9
:103280008B2BA1F00E94130A00916F021091700223
:1032900020917102309172026C197D098E099F098B
:1032A000061717072807390708F442C08091BC00A9
:1032B00083FDD8CF85EC8093BC000E94130A6B017C
:1032C0007C0180916D02813009F445C080916A02D1
:1032D000811163C080916A02E7E4F2E0A5E7B2E001
:1032E00090E0981751F121912D939F5FFACF809133
:1032F0006F0290917002A0917102B0917202892BBD
:103300008A2B8B2B09F48BCF0E94130A00916F023A
:103310001091700220917102309172026C197D0936
:103320008E099F09061717072807390708F077CF76
:1033300080916E020E94720B80E010927402809362
:103340007302CF911F910F91FF90EF90DF90CF907C
:10335000089585EEB0CF80916F0290917002A09198
:103360007102B0917202892B8A2B8B2B09F4A9CFA1
:103370000E94130A00916F02109170022091710255
:10338000309172026C197D098E099F090617170783
:103390002807390708F095CFCBCF81E09DCFCF9399
:1033A000C82F8091460280620E9471086C2F89E9C3
:1033B00092E00E94E90B89E992E00E941D0C809145
:1033C0004602806290E00E94031989E992E00E941F
:1033D000A20BCF9108954F925F926F927F928F923E
:1033E0009F92AF92BF92EF92FF920F931F93CF9352
:1033F000DF93EC011CA588A1882309F4EDC089A105
:103400009AA1009709F4E8C0029709F4E8C08CA1DA
:10341000882309F4E4C07B014C8C5D8C6E8C7F8C1E
:10342000888C998CAA8CBB8C8DE2881A9108A10893
:10343000B1080E94130A681979098A099B09641561
:10344000750586059705A8F38EA1182B8FA1182B5B
:1034500088A5182B89A5182BEA94EF2811F48BA1C5
:10346000182B8CA1182B88A10E947108612F89E963
:1034700092E00E94E90B89E992E00E941D0C8823EA
:1034800011F10FEF1FEF88A10E9471086CA589E967
:1034900092E00E94E90B89E992E00E941D0C8823CA
:1034A00011F00FEF1FEFC801DF91CF911F910F9126
:1034B000FF90EF90BF90AF909F908F907F906F9014
:1034C0005F904F90089588A10E9471088DA1812B73
:1034D00090E00E94180C89E992E00E941D0C811175
:1034E000D0CF88A190E00E94031989E992E00E9460
:1034F000A20B7C0197FDC5CF88A10E947108612FA6
:1035000089E992E00E94E90B89E992E00E941D0C92
:10351000082F8111B6CF8EA190E08E219F21892B9B
:1035200009F000E18FA190E08E219F21892B09F005
:10353000006288A590E08E219F21892B09F000640C
:1035400089A590E08E219F21892B09F0006888A130
:103550000E9471088DA1812B90E00E94180C89E9CE
:1035600092E00E941D0C81118CCF88A190E00E94F6
:10357000031989E992E00E94A20B7C0197FD81CF9B
:1035800088A10E947108612F89E992E00E94E90BED
:1035900089E992E00E941D0C811173CF8EA190E009
:1035A0008E219F21892B09F001608FA190E08E214F
:1035B0009F21892B09F0026088A590E08E219F2130
:1035C000892B09F0046089A590E08E219F21892B29
:1035D00009F0086010E057CF0CEF1FEF64CF0DEF3C
:1035E0001FEF61CF0F931F93CF93DF93EC010E94E6
:1035F0005B0B88A1811188C08091C20191E0980F76
:103600009093C2010E94F71788A388A1811109C075
:103610008091C20191E0980F9093C2010E94F71728
:1036200088A318A1112309F478C089A19AA1892B34
:1036300009F033C1812F0E94710860E089E992E0AE
:103640000E94E90B6FEF89E992E00E94E90B89E99A
:1036500092E00E941D0C812F0E94710860E089E9B0
:1036600092E00E94E90B89E992E00E941D0C812FF3
:1036700090E00E94031989E992E00E94A20B8F3F1B
:10368000910509F051C082E090E09AA389A388A136
:103690000E94710860E089E992E00E94E90B8FEFD7
:1036A00090E00E94180C89E992E00E941D0C88A10C
:1036B0000E94710886E090E00E94180C8FE790E06D
:1036C0000E94180C89E992E00E941D0C88A10E94BA
:1036D000710889E090E00E94180C89E992E00E944C
:1036E0001D0C88A190E00E94031989E992E00E94D4
:1036F000A20B8F3709F010C127E036E045E054E017
:1037000063E072E0E1E013C10E94710889E992E090
:103710000E941D0C882309F478CF8CEF9FEFDF9176
:10372000CF911F910F910895892B29F01AA219A208
:103730008FEF9FEFF4CF81E090E09AA389A388A157
:103740000E9471086FEF89E992E00E94E90B89E914
:1037500092E00E941D0C88A190E00E94031989E963
:1037600092E00E94A20B8C0188A10E9471086BEF6D
:1037700089E992E00E94E90B89E992E00E941D0C20
:1037800088A190E00E94031989E992E00E94A20BAF
:103790009801277033272730310509F04DC0807F0D
:1037A0009927803F910509F047C083E0169507955A
:1037B0008A95E1F761E00627017043E057E066E093
:1037C00075E0E4E022E0F1E030E081E090E0DC014F
:1037D00001C0AA0F3A95EAF7ABA3DC0101C0AA0F1A
:1037E000FA95EAF7ACA3DC0102C0AA0FBB1F2A9529
:1037F000E2F7ADA39C0101C0220FEA95EAF72EA3E0
:103800009C0101C0220F7A95EAF72FA39C0101C009
:10381000220F6A95EAF728A79C0101C0220F5A954A
:10382000EAF729A701C0880F4A95EAF78AA70BA7EC
:10383000013091F58CA731C0C80180779927803776
:10384000910519F08DEF9FEF6ACF88A10E94710852
:103850006FEE89E992E00E94E90B89E992E00E940B
:103860001D0C88A190E00E94031989E992E00E9452
:10387000A20B8F70992726E034E00F9711F424E013
:1038800036E00095001F0027001F47E053E062E08C
:1038900071E0E0E0F5E099CF1CA688A10E947108D4
:1038A00089A19AA1029721F585E090E00E94180C69
:1038B00080E290E00E94180C89E992E00E941D0CC1
:1038C00088A10E94710860E089E992E00E94E90BFA
:1038D00060E089E992E00E94E90B89E992E00E94A8
:1038E0001D0C88A10E94710889E090E00E94180CCC
:1038F00060E089E992E00E94E90B89E992E00E9488
:103900001D0C21E030E0811102C030E020E088276A
:103910009927821B930B03CF86FF3BC081FD92CF7B
:1039200021E032E043E054E065E076E0E7E081E06A
:1039300090E0DC0102C0AA0FBB1FEA95E2F7ABA33F
:103940001CA2FC0101C0EE0F7A95EAF7EDA3FC0181
:1039500002C0EE0FFF1F6A95E2F7EEA3BC0101C0A3
:10396000660F5A95EAF76FA3BC0102C0660F771F76
:103970004A95E2F768A7AC0101C0440F3A95EAF70F
:1039800049A701C0880F2A95EAF78AA791E09BA76B
:1039900051CF26E033E042E051E060E077E0E4E040
:1039A000C6CF2091AB023091AC02C901079697FDBA
:1039B000079623E0959587952A95E1F72091A9022E
:1039C0003091AA02829FA001839F500D929F500DBB
:1039D000112470E060E08091C4029091C5020C94C3
:1039E0002229FB0101900020E9F73197AF01461B26
:1039F000570B0C947E080E941429EF92FF920F93AC
:103A00001F93CF93DF93EC017B018A018881998119
:103A1000009729F02A813B812417350788F4B801E3
:103A20006F5F7F4F0E945728009791F0998388839A
:103A30001B830A832C813D81232B11F4FC0110820E
:103A40001D830C83B701888199810E9429290CC0AC
:103A500088819981009711F00E94CE2719821882DF
:103A60001D821C821B821A82CE01DF91CF911F9191
:103A70000F91FF90EF90089585ED8093BC008091A9
:103A80006F0290917002A0917102B091720207963C
:103A9000A11DB11D23E0B695A795979587952A9509
:103AA000D1F72091BC0024FD03C010926D0208954F
:103AB00040916F0250917002609171027091720298
:103AC000452B462B472B69F30097A105B10541F023
:103AD00025E32A95F1F700000197A109B109E1CF8B
:103AE00080916E020C94720B1F920F920FB60F9280
:103AF00011242F933F934F935F936F937F938F93F3
:103B00009F93AF93BF93EF93FF9380913602909171
:103B10003702A0913802B0913902892B8A2B8B2B66
:103B2000D1F190913102E0913202F0913302808123
:103B3000892780838091360290913702A0913802C4
:103B4000B0913902181619061A061B069CF48091CA
:103B5000360290913702A0913802B0913902019754
:103B6000A109B1098093360290933702A0933802DD
:103B7000B0933902FF91EF91BF91AF919F918F91D7
:103B80007F916F915F914F913F912F910F900FBE59
:103B90000F901F90189580910001E4E8F0E1E49106
:103BA0009FEF90930001E13051F030F0E23069F086
:103BB00060E00E94D408DECF10926E00F9CF9091A1
:103BC0006F009D7F90936F00F3CF909170009D7F69
:103BD0009093700091E09093B0009091B100987F25
:103BE00094609093B1001092B300E2CF1F920F92B5
:103BF0000FB60F9211242F933F938F939F93AF9300
:103C0000BF938091280290912902A0912A02B0913D
:103C10002B023091270223E0230F2D3758F5019610
:103C2000A11DB11D209327028093280290932902A1
:103C3000A0932A02B0932B0280912C0290912D0226
:103C4000A0912E02B0912F020196A11DB11D80936B
:103C50002C0290932D02A0932E02B0932F02BF91BD
:103C6000AF919F918F913F912F910F900FBE0F9029
:103C70001F90189526E8230F0296A11DB11DD2CFE3
:103C80001F920F920FB60F9211242F933F934F93D1
:103C90005F936F937F938F939F93AF93BF93EF93B4
:103CA000FF938091B900887F803609F44AC0F0F50F
:103CB000883209F4A7C018F5803109F49BC0B8F424
:103CC000882309F4F9C0883009F494C0FF91EF917A
:103CD000BF91AF919F918F917F916F915F914F9124
:103CE0003F912F910F900FBE0F901F901895883124
:103CF00009F488C0803251F780936B0214C080347D
:103D000009F49DC040F48033B9F38833F9F6809309
:103D10006B0285ECB0C0803509F485C0883509F4A4
:103D200096C0883499F60E943C1DD0CF883909F49A
:103D30008CC038F5883729F050F4883611F0803778
:103D400029F683E080936D021092260257C08838CE
:103D500009F47BC0803919F0803809F0B7CF809121
:103D60002602803208F071C0E091260281E08E0FB9
:103D7000809326028091BB00F0E0EA5FFD4F8083D4
:103D80003DC0803B39F0E0F4803A09F479C0883ACC
:103D900009F09CCF84E080936D021092050210928E
:103DA0000402E0914402F0914502099580910402D9
:103DB00081110FC081E0809304021092E40109C0D8
:103DC000803C09F4A6CF883C09F4A3CF883B09F0D6
:103DD0007DCFE091050281E08E0F80930502F0E037
:103DE000EC51FE4F80818093BB0090910502809141
:103DF000040229C0809168028093BB0085EC809307
:103E0000BC0064CF90916A0280916902981758F5BE
:103E1000E0916A0281E08E0F80936A02F0E0E95B34
:103E2000FD4F8081E9CFE0916A0281E08E0F80939F
:103E30006A028091BB00F0E0E95BFD4F80839091C6
:103E40006A02809169029817C8F285E8D8CFE0919C
:103E50006A0281E08E0F80936A028091BB00F0E0DD
:103E6000E95BFD4F808380916C0281115CCF81E022
:103E70008093670284EA8093BC0010926D0226CF83
:103E800085EC8093BC0010926D02809126028032F6
:103E900030F4E0912602F0E0EA5FFD4F108260917D
:103EA000260270E0E0914202F091430286E092E047
:103EB0000995109226020ACF10926B0234CF0F930D
:103EC0001F93CF93DF9309E912E0F8011382128266
:103ED00088EE93E0A0E0B0E084839583A683B78367
:103EE00089E191E091838083C5EED2E01B821A8242
:103EF00087E591E0998388831F82188680ED97E09B
:103F0000A0E0B0E0888B998BAA8BBB8B86E290E017
:103F1000A0E0B0E08C8B9D8BAE8BBF8B1C861D868A
:103F20001E861F861B860E94130A688F798F8A8FD0
:103F30009B8F1C8E1D8E1E8E1F8E8DE691E09983A9
:103F4000888382E090E09AA389A380E288A390E826
:103F50009BA31CA290E49DA38EA380E18FA388E085
:103F600088A794E099A722E02AA781E08BA72CA735
:103F7000E5EAF2E01382128240E850E05583448380
:103F800020E430E0378326835187408733872287B8
:103F9000168A1586148617861686858B848B2FEFD6
:103FA0003FEF338B228B318B208B878B108E128EC1
:103FB000118E2BE231E031832083148E138E168F05
:103FC000058F10A2178E8FEF84A385A386A387A3E6
:103FD00090A780E89AE1A6E0B0E085AB96ABA7ABEE
:103FE000B0AF80EA96E8A1E0B0E081AF92AFA3AFB6
:103FF000B4AF80E586AF17AEDF91CF911F910F91DF
:104000000895CF93DF93CDB7DEB7E9970FB6F89455
:10401000DEBF0FBECDBF789484B5826084BD84B509
:10402000816084BD85B5826085BD85B5816085BDB3
:1040300080916E00816080936E001092810080916B
:1040400081008260809381008091810081608093F3
:104050008100809180008160809380008091B10018
:1040600084608093B1008091B00081608093B00043
:1040700080917A00846080937A0080917A008260D7
:1040800080937A0080917A00816080937A00809199
:104090007A00806880937A001092C1008091F102CA
:1040A00081110CC08091F202811108C08091F3024D
:1040B000811104C08091F402882321F08091EC02E8
:1040C0008F7E59F01092F10280E48093F20280E139
:1040D0008093F30280E58093F40282E08093ED0206
:1040E00080E18093EC0264E670E080E090E00E9462
:1040F000380A1092E90285EE92E00E94F21A892BAA
:1041000009F05BC08091ED02823028F08091E902D5
:1041100088608093E90240E362E070E085EE92E01F
:104120000E94891865E070E080E090E00E94380A03
:1041300040E362E070E085EE92E00E94891861E061
:1041400070E080E090E00E94380A40E362E070E0B6
:1041500085EE92E00E94891861E070E080E090E0D6
:104160000E94380A8091E90284FD07C040E262E0C3
:1041700070E085EE92E00E9489186091E902606229
:1041800085EE92E00E946A0A84E08093EA026CE085
:1041900085EE92E00E946A0A85EE92E00E94130B7F
:1041A00082E08093EB0266E085EE92E00E946A0A6C
:1041B0006FEF85EE92E00E9455188091E702909192
:1041C000E8029C838B838091E9028D838091EA02CF
:1041D0008E838091EB028F838091EC02888780919F
:1041E000ED0289878091EE028A878091EF028B87AA
:1041F0008091F0028C878091F1029091F202A0915F
:10420000F302B091F4028D879E87AF87B88B8091BF
:10421000F5029091F602A091F702B091F802898B15
:104220009A8BAB8BBC8B8091F9029091FA02A09192
:10423000FB02B091FC028D8B9E8BAF8BB88F80916F
:10424000FD029091FE02A091FF02B0910003898FC0
:104250009A8FAB8FBC8F8091010390910203A09144
:104260000303B09104038D8F9E8FAF8FB8A38DE6AB
:1042700091E09A8389838091050389A38091060345
:10428000909107039BA38AA3809108038CA380913C
:1042900009038DA380910A038EA380910B038FA342
:1042A00080910C0388A780910D0389A780910E034C
:1042B0008AA780910F038BA7809110038CA7809110
:1042C00011038DA71DAA1CAA1FAA1EAA19AE18AEFB
:1042D00044E050E06FE771E0CE01C4960E94FD1CFF
:1042E0001FA61EA619AA18AA1BAA1AAA46E050E0E1
:1042F00064E871E0CE018E960E94FD1CCE0101960D
:104300000E94130B60E0CE0101960E94A20A6BE8A6
:1043100071E0CE0101960E94F11C61E0CE01019690
:104320000E94A20A10E000E060E1E62EF12C88ADC8
:1043300099AD9701281B390BC901969587950817E8
:10434000190748F46BEA71E0CE0101960E94F11C56
:104350000F5F1F4FECCF6FE771E0CE0101960E9417
:10436000F11C64EC79E080E090E00E94380A61E0A2
:10437000CE0101960E94A20A6CE971E0CE0101967D
:104380000E94F11C61E0CE0101960E94A20A10E099
:1043900000E040E1E42EF12C8AA99BA9A701481B6B
:1043A000590BCA01969587950817190748F46BEAC7
:1043B00071E0CE0101960E94F11C0F5F1F4FECCF00
:1043C00064E871E0CE0101960E94F11C64EC79E092
:1043D00080E090E00E94380ACE0101960E94130B03
:1043E00064E670E080E090E00E94380A8EA59FA508
:1043F000009711F00E94CE278CA99DA9009711F07B
:104400000E94CE2760E088E00E94020961E082E01D
:104410000E9402098091C4029091C502892B39F152
:104420000E94D11C8091AB029091AC026091A902D4
:104430007091AA02813291050CF0F9C1AC01405291
:10444000510957FF02C04F5F5F4F5595479563571E
:10445000710977FF02C06F5F7F4F75956795F0E236
:10446000EF2EF12C03E710E024E935E0F8C12091AC
:10447000AB023091AC02C901079697FD079623E085
:10448000959587952A95E1F72091A9023091AA0286
:10449000FC01E29FC001E39F900DF29F900D11245B
:1044A0000E9432279093C5028093C402892B09F0A1
:1044B000B7CF0E94D11C0E94851684E080934602EB
:1044C0000E945B0B8091460280620E94710860E04E
:1044D00089E992E00E94E90B6FEF89E992E00E947E
:1044E000E90B60E089E992E00E94E90B60E089E96C
:1044F00092E00E94E90B60E089E992E00E94E90BFA
:1045000060E089E992E00E94E90B60E089E992E0CD
:104510000E94E90B60E089E992E00E94E90B60E00B
:1045200089E992E00E94E90B60E089E992E00E944B
:10453000E90B60E089E992E00E94E90B89E992E0E9
:104540000E941D0C10E000E0EE24E394F12C80E0CA
:104550000E94CF19B701002E01C0660F0A94EAF736
:104560006095682380E00E94040D0F5F1F4F0830A4
:10457000110569F785EE92E00E94130B6DEA71E078
:1045800085EE92E00E94F11C61E085EE92E00E94CF
:10459000A20A6AEB71E085EE92E00E94F11C28E726
:1045A000222E20E1322E35E0432E512C612C712C2D
:1045B000CC24C394D12C57E0A52EB12C60E0862EDC
:1045C00060E0962EE6E4FAE08491EAE5F0E11491E9
:1045D000F1010491002309F423C181110E94AB0869
:1045E000E02FF0E0EE0FFF1FEC5CF54FA591B491CA
:1045F0008C91182309F414C10E94D11C80E4E82E88
:10460000F12C00E410E022E53EE050E040E070E0F4
:1046100060E085EA92E00E9404120E9485160E94E2
:10462000330964E670E080E090E00E94380A0E945E
:10463000D11C22E53CE050E040E070E060E085EA1B
:1046400092E00E9404120E9485160E94330968ECD1
:1046500070E080E090E00E94380A0E94D11C22E5C0
:104660003AE050E040E070E060E085EA92E00E94CD
:1046700004120E9485160E9433096CE271E080E00A
:1046800090E00E94380A0E94D11C22E53EE050E0F2
:1046900040E070E060E085EA92E00E9404120E942F
:1046A00085160E94330960E971E080E090E00E9485
:1046B000380A0E94D11C22E53CE050E040E070E066
:1046C00060E085EA92E00E9404120E9485160E9432
:1046D000330964EF71E080E090E00E94380A0E94A4
:1046E000D11C22E53EE050E040E070E060E085EA69
:1046F00092E00E9404120E9485160E94330968E528
:1047000072E080E090E00E94380A0E94D11C22E50D
:104710003CE050E040E070E060E085EA92E00E941A
:1047200004120E9485160E94330960E273E080E063
:1047300090E00E94380A0E94D11C22E53AE050E045
:1047400040E070E060E085EA92E00E9404120E947E
:1047500085160E94330968EE73E080E090E00E94C5
:10476000380A0E94D11C22E53EE050E040E070E0B3
:1047700060E085EA92E00E9404120E9485160E9481
:10478000330960EB74E080E090E00E94380A0E94F8
:10479000D11C22E53CE050E040E070E060E085EABA
:1047A00092E00E9404120E9485160E94330960EB79
:1047B00074E080E090E00E94380A0E943A26A3014B
:1047C00092010E949226DC01CB010196A11DB11D30
:1047D000E12C8A3028F4E82FF0E0E55FFE4FE0801E
:1047E00010E000E0F12C89E00E94CF19B601002E04
:1047F00001C0660F0A94EAF79501201B310BA7014F
:1048000002C0559547952A95E2F740FFD5C1682B20
:1048100089E00E94040D0F5F1F4F0830110519F742
:104820008114910409F4CECE0E940000CBCEAC01DD
:104830004054510957FF02C04F5F5F4F5595479550
:104840006255710977FF02C06F5F7F4F759567955D
:1048500010E4E12EF12C02E510E024E737E085EAD0
:1048600092E00E94041282E08093C7028091C2020B
:104870009091C302892B09F4A9C08CE38093C602EE
:104880000E945B0B8091C2029091C302892B09F4B4
:104890005CC12091DA023091DB024091DC02509140
:1048A000DD0260E074E284EF90E00E94FB2620517C
:1048B0003109410951095695479537952795209318
:1048C000B80064E080E995E00E9482156091AB0237
:1048D000615085EA92E00E94251664E08CE895E03C
:1048E0000E9482158091C70260E1813009F064E185
:1048F00085EA92E00E94251664E088E895E00E942F
:1049000082158FE88093E2028091A9029091AA0219
:104910008038910509F032C18091AB029091AC02D0
:104920008034910509F03AC18091C702813009F0C5
:1049300023C18FE98093E20212E16AED85EA92E0F9
:104940000E942516612F85EA92E00E94251661E8F3
:1049500085EA92E00E9425166091E20285EA92E0E3
:104960000E94251669ED85EA92E00E942516809145
:10497000C70262E2813009F061EF85EA92E00E94AD
:10498000251666E082E895E00E9482158091C202B9
:104990009091C302892B09F405C12091DE02309168
:1049A000DF024091E0025091E10260E074E284EFA6
:1049B00090E00E94FB26205131094109510956958A
:1049C0004795379527952093B80073CD61E0809186
:1049D000CB020E94020961E08091CC020E94020990
:1049E0008091CB02082E000C990BFC01E059FF4E80
:1049F000E491F0E0EE0FFF1FEA59FF4E259134914C
:104A00003093D3022093D202FC01EE5AFF4EE49180
:104A1000E093D8028091CC02082E000C990BFC0187
:104A2000E059FF4EE491F0E0EE0FFF1FEA59FF4E10
:104A3000A591B491B093D502A093D402FC01EE5A93
:104A4000FF4EE491E093D9028C91E82BEC93809196
:104A5000C0029091C102892B09F434C01FB7F894A9
:104A600080913002811127C0EAE7F0E18491ECE502
:104A7000F0E19491E82FF0E0EE0FFF1FE858FA4FB5
:104A8000A591B491EC91E92321F461E08AE00E94C0
:104A9000D40861E08AE00E9402098CB580618CBD77
:104AA0008CB580648CBD61E08DE00E94020961E0FC
:104AB0008BE00E940209809130028F5F8093300268
:104AC0001FBFE0CE61E08091C9020E94020961E04F
:104AD0008091CA020E9402098091C902082E000C2E
:104AE000990BFC01E059FF4EE491F0E0EE0FFF1F3F
:104AF000EA59FF4E259134913093CF022093CE0294
:104B0000FC01EE5AFF4EE491E093D6028091CA0276
:104B1000082E000C990BFC01E059FF4EE491F0E0E7
:104B2000EE0FFF1FEA59FF4EA591B491B093D10249
:104B3000A093D002FC01EE5AFF4EE491E093D7021D
:104B40008C91E095E823EC939DCE8091C0029091EA
:104B5000C102892B31F08091E3029091E4020E941E
:104B60008216E091D402F091D50290818091D90211
:104B7000809589238083A5CE8FECDCCE803691058D
:104B800069F48091AB029091AC02409739F4809126
:104B9000C702813029F480E18093E20212E0CDCE99
:104BA0008FEAFACFE091D402F091D5028081909102
:104BB000D902892B80837DCC6095682329CE8BE236
:104BC00091E09093A6028093A5028091C4029091F7
:104BD000C502009711F00C94CE2708958F929F92F2
:104BE000AF92BF92CF92DF92EF92FF92CF93DF937B
:104BF000EC01688179818A819B816115710581054C
:104C0000910521F464E279ED8BE597E02DE133EF36
:104C100041E050E00E94922649015A019B01AC01FB
:104C2000A7EAB1E40E94B1266B017C01ACEEB4EFBF
:104C3000A50194010E94BF26C60ED71EE81EF91ECC
:104C4000F7FE06C081E0C81AD108E10880E8F80A3A
:104C5000C882D982EA82FB82C701B6019F77DF91C1
:104C6000CF91FF90EF90DF90CF90BF90AF909F904B
:104C70008F9008958F929F92AF92BF92CF92DF92C2
:104C8000EF92FF9260910101709102018091030106
:104C900090910401611571058105910521F464E28B
:104CA00079ED8BE597E02DE133EF41E050E00E9494
:104CB000922649015A019B01AC01A7EAB1E40E9486
:104CC000B1266B017C01ACEEB4EFA50194010E940A
:104CD000BF26C60ED71EE81EF91EF7FE06C081E0ED
:104CE000C81AD108E10880E8F80AC0920101D09200
:104CF0000201E0920301F0920401C701B6019F771F
:104D0000FF90EF90DF90CF90BF90AF909F908F90EB
:104D100008956093010170930201809303019093C1
:104D200004010895052E97FB1EF400940E94A92605
:104D300057FD07D00E94FB2607FC03D04EF40C94CD
:104D4000A92650954095309521953F4F4F4F5F4F85
:104D5000089590958095709561957F4F8F4F9F4FE7
:104D600008950E941D27A59F900DB49F900DA49FAC
:104D7000800D911D11240895B7FF0C94B1260E9457
:104D8000B126821B930B08952F923F924F925F9210
:104D90006F927F928F929F92AF92BF92CF92DF924B
:104DA000EF92FF920F931F93CF93DF93CDB7DEB7B0
:104DB000CA1BDB0B0FB6F894DEBF0FBECDBF099444
:104DC0002A88398848885F846E847D848C849B849B
:104DD000AA84B984C884DF80EE80FD800C811B81A9
:104DE000AA81B981CE0FD11D0FB6F894DEBF0FBED8
:104DF000CDBFED010895A1E21A2EAA1BBB1BFD0138
:104E00000DC0AA1FBB1FEE1FFF1FA217B307E407A9
:104E1000F50720F0A21BB30BE40BF50B661F771F01
:104E2000881F991F1A9469F76095709580959095E1
:104E30009B01AC01BD01CF010895A29FB001B39FBA
:104E4000C001A39F700D811D1124911DB29F700D93
:104E5000811D1124911D0895EE0FFF1F0590F491FF
:104E6000E02D09940F931F93CF93DF938230910528
:104E700010F482E090E0E0911403F091150330E02B
:104E800020E0B0E0A0E0309799F42115310509F455
:104E90004AC0281B390B24303105D8F58A819B8103
:104EA0006115710589F1FB0193838283FE0111C0B5
:104EB000408151810281138148175907E0F048175A
:104EC000590799F4109761F012960C931297139664
:104ED0001C933296CF01DF91CF911F910F910895CE
:104EE0000093140310931503F4CF2115310551F0ED
:104EF0004217530738F0A901DB019A01BD01DF0118
:104F0000F801C1CFEF01F9CF9093150380931403FB
:104F1000CDCFFE01E20FF31F81939193225031090F
:104F200039832883D7CF2091120330911303232B89
:104F300041F420910701309108013093130320932D
:104F4000120320910501309106012115310541F42C
:104F50002DB73EB74091090150910A01241B350B32
:104F6000E0911203F0911303E217F307A0F42E1B54
:104F70003F0B2817390778F0AC014E5F5F4F2417BD
:104F8000350748F04E0F5F1F5093130340931203F1
:104F9000819391939FCFF0E0E0E09CCFCF93DF939C
:104FA0000097E9F0FC01329713821282A09114035A
:104FB000B0911503ED0130E020E01097A1F42081BD
:104FC0003181820F931F2091120330911303281710
:104FD000390709F061C0F0931303E0931203DF91E6
:104FE000CF910895EA01CE17DF07E8F54A815B818A
:104FF0009E0141155105B1F7E901FB83EA8349910F
:105000005991C40FD51FEC17FD0761F48081918180
:105010000296840F951FE901998388838281938189
:105020009B838A83F0E0E0E012968D919C91139728
:105030000097B9F52D913C911197CD010296820F01
:10504000931F20911203309113032817390739F663
:10505000309751F51092150310921403B093130377
:10506000A0931203BCCFD383C28340815181840FAC
:10507000951FC817D90761F44E5F5F4F88819981EA
:10508000480F591F518340838A819B819383828378
:105090002115310509F0B0CFF0931503E093140307
:1050A0009ECFFD01DC01C0CF13821282D7CFB0E0CA
:1050B000A0E0EDE5F8E20C94C6268C01009751F4CF
:1050C000CB010E9432278C01C801CDB7DEB7E0E1E9
:1050D0000C94E226FC01E60FF71F9C0122503109D7
:1050E000E217F30708F49DC0D901CD91DC91119727
:1050F000C617D70798F0C530D10530F3CE01049715
:105100008617970708F3C61BD70B2297C193D19335
:105110006D937C93CF010E94CE27D6CF5B01AC1A52
:10512000BD0A4C018C0E9D1EA0911403B091150375
:10513000512C412CF12CE12C109731F58091120368
:10514000909113038815990509F05CC0461657061F
:1051500008F058C08091050190910601009741F434
:105160008DB79EB74091090150910A01841B950BA0
:10517000E817F90708F055C0F0931303E093120302
:10518000F90171836083A0CF8D919C911197129644
:105190006C90129713967C901397A815B90559F542
:1051A0006C0142E0C40ED11CCA14DB0420F1AC0136
:1051B0004A195B09DA011296159780F062827382B0
:1051C00051834083D9016D937C93E114F10471F014
:1051D000D7011396FC93EE93129776CF22968C0FFD
:1051E0009D1FF90191838083F301EFCFF0931503A5
:1051F000E093140369CF4816590608F42C017D0189
:10520000D3019ACFCB010E9432277C01009749F04D
:10521000AE01B8010E941929C8010E94CE2787015A
:1052200053CF10E000E050CF81E090E0F8940C9470
:105230003029FB01DC0102C001900D924150504029
:10524000D8F70895DC0101C06D9341505040E0F75C
:105250000895FB01DC0101900D920020E1F7089513
:1052600018E0C6E4D8E004C0FE010E942C27219675
:0A527000C734D107C9F7F894FFCF47
:10527A00FF01000000000016038000FC60DAF266FD
:10528A00B6BEE0FEF600000000E90BBC0BFF187D7D
:10529A0008B50BA20B930B00000000580F7E08FF05
:1052AA00180219CB147D08FD11D511F111E51177FA
:1052BA00127D081E0DA1173B1484141E11011189B9
:1052CA00102A1000000000C90A7E08FF180219FF00
:1052DA0018FC18FB1CF918F91800000000C90A7E0E
:1052EA0008FF180219F21AEB1989185518F9184407
:1052FA006963650076302E312E3000544D45656461
:10530A0075636174696F6E2E636F6D0020202020B3
:10531A0020202020202020202020202000507265DC
:10532A0073732063656E74657200746F20726F6C9C
:02533A006C0005
:00000001FF
