:100000000C9463000C948B000C948B000C948B006C
:100010000C948B000C948B000C948B000C948B0034
:100020000C948B000C948B000C948B000C948B0024
:100030000C948B000C948B000C948B000C948B0014
:100040000C945F0B0C948B000C942D0B0C94070BF1
:100050000C948B000C948B000C948B000C948B00F4
:100060000C94A90B0C948B000000000024002700C6
:100070002A000000000023002600290000000008DC
:10008000000201000003040700000000000000005F
:10009000010204081020408001020408102001021F
:1000A0000408102000000000250028002B00040494
:1000B0000404040404040202020202020303030310
:1000C0000303C80CD31111241FBECFEFD8E0DEBF4D
:1000D000CDBF23E0ACEBB1E001C01D92A237B20767
:1000E000E1F711E0A0E0B1E0ECE8F8E202C0059031
:1000F0000D92AC3BB107D9F710E0C2E6D0E004C0E6
:100100002197FE010E943C12C136D107C9F70E9417
:10011000E60D0C9439140C94000091E090935E026B
:100120008093800210925F0210928102089581E410
:1001300080937C0080917A00806480937A00809123
:100140007A0086FDFCCF8091780090917900089527
:10015000AF92BF92CF92DF92EF92FF920F931F93D5
:10016000CF93DF936C017B018B01040F151FEB0113
:100170005E01AE18BF08C017D10759F06991D601CA
:10018000ED91FC910190F081E02DC6010995892B3C
:1001900079F7C501DF91CF911F910F91FF90EF90FB
:1001A000DF90CF90BF90AF900895FC01538D448DA8
:1001B000252F30E0842F90E0821B930B541710F012
:1001C000CF96089501970895FC01918D828D98171F
:1001D00061F0A28DAE0FBF2FB11D5D968C91928DF7
:1001E0009F5F9F73928F90E008958FEF9FEF089528
:1001F000FC01918D828D981731F0828DE80FF11DF1
:10020000858D90E008958FEF9FEF0895FC01918D0B
:10021000228D892F90E0805C9F4F821B91098F7304
:100220009927089582E892E00E94060121E0892B37
:1002300009F420E0822F089580E090E0892B29F0D6
:100240000E94120181110C9400000895FC01A48DFC
:10025000A80FB92FB11DA35ABF4F2C91848D90E0E8
:1002600001968F739927848FA689B7892C93A089CB
:10027000B1898C91837080648C93938D848D981355
:1002800006C00288F389E02D80818F7D80830895E8
:10029000EF92FF920F931F93CF93DF93EC0181E0D6
:1002A000888F9B8D8C8D98131AC0E889F98980817D
:1002B00085FF15C09FB7F894EE89FF896083E889B0
:1002C000F98980818370806480839FBF81E090E0A2
:1002D000DF91CF911F910F91FF90EF900895F62E2F
:1002E0000B8D10E00F5F1F4F0F731127E02E8C8DC9
:1002F0008E110CC00FB607FCFACFE889F98980810E
:1003000085FFF5CFCE010E942601F1CFEB8DEC0FDA
:10031000FD2FF11DE35AFF4FF0829FB7F8940B8F2A
:10032000EA89FB8980818062CFCFCF93DF93EC0194
:10033000888D8823B9F0AA89BB89E889F9898C91CD
:1003400085FD03C0808186FD0DC00FB607FCF7CF89
:100350008C9185FFF2CF808185FFEDCFCE010E9489
:100360002601E9CFDF91CF910895833081F028F401
:10037000813099F08230A9F008958730A9F0883053
:10038000C9F08430B1F4809180008F7D03C08091EA
:1003900080008F7780938000089584B58F7784BD27
:1003A000089584B58F7DFBCF8091B0008F778093C7
:1003B000B00008958091B0008F7DF9CFCF93DF9387
:1003C000282F30E0F901E458FF4F8491F901E057FC
:1003D000FF4FD491F901E255FF4FC491CC23A1F016
:1003E00081110E94B501EC2FF0E0EE0FFF1FEE58D7
:1003F000FF4FA591B491EC91ED2381E090E009F4D9
:1004000080E0DF91CF91089580E090E0FACF1F93D4
:10041000CF93DF93282F30E0F901E458FF4F849108
:10042000F901E057FF4FD491F901E255FF4FC49114
:10043000CC23A9F0162F81110E94B501EC2FF0E01A
:10044000EE0FFF1FEC55FF4FA591B4918FB7F894B5
:10045000EC91111108C0D095DE23DC938FBFDF91A2
:10046000CF911F910895DE2BF8CFCF93DF9390E0CB
:10047000FC01E057FF4F249182559F4FFC0184916E
:100480008823D1F090E0880F991FFC01E859FF4FB5
:10049000A591B491FC01EC55FF4FC591D491611128
:1004A0000EC09FB7F8948C91E22FE0958E238C9329
:1004B0002881E223E8839FBFDF91CF9108958FB712
:1004C000F894EC91E22BEC938FBFF6CF3FB7F89402
:1004D00080910A0290910B02A0910C02B0910D0242
:1004E00026B5A89B05C02F3F19F00196A11DB11D8F
:1004F0003FBFBA2FA92F982F8827BC01CD01620FCB
:10050000711D811D911D42E0660F771F881F991F85
:100510004A95D1F708958F929F92AF92BF92CF9252
:10052000DF92EF92FF924B015C010E9466026B0129
:100530007C010E9466026C197D098E099F09683E44
:10054000734081059105A8F321E0821A9108A10862
:10055000B10888EEC80E83E0D81EE11CF11C81149E
:100560009104A104B10429F7FF90EF90DF90CF90A0
:10057000BF90AF909F908F9008958F929F92AF926F
:10058000BF92EF92FF921F93CF93DF93EC01162F50
:10059000E881F9810484F585E02D462F70E060E064
:1005A00009957C0111501230D8F419861A86888872
:1005B0009988AA88BB880E946602688F798F8A8F83
:1005C0009B8F8C8E9D8EAE8EBF8EC701DF91CF919B
:1005D0001F91FF90EF90BF90AF909F908F900895E4
:1005E0008C889D88AE88BF88E6CFDC0118968C91F8
:1005F0001897681710F06FEF680F1B969C911B9768
:10060000992391F017962C911797962F211106C0D8
:1006100061E0690F90E06817D8F7F7CF19961C9240
:1006200019971A966C931A97FD01E60FF11D6485D0
:100630006068CD010C94BD028F929F92AF92BF92E1
:10064000EF92FF920F931F93CF93DF93EC01462F0E
:10065000E881F9810484F585E02D61E070E0099579
:100660007C018C889D88AE88BF880E946602688F56
:10067000798F8A8F9B8F8C8E9D8EAE8EBF8E01E080
:1006800010E0EF2811F010E000E08B85882391F056
:1006900089858F5F89879F81891760F019868A8590
:1006A0008F5F8A879885891708F01A866A85CE0138
:1006B0000E94F502C801DF91CF911F910F91FF9029
:1006C000EF90BF90AF909F908F90089561E00C9451
:1006D000BD022091E001260F3327331F213231055F
:1006E000ECF420915802FC0190E080E0243069F0A5
:1006F00082E00895A091E0012191AC0142545E4F47
:10070000A40FB52FB11D2C930196861798F38091F5
:10071000E001680F6093E00180E0089581E00895B2
:100720001092580281E0809357021092320261E0E9
:1007300082E10E94070261E083E10E940702E9EB87
:10074000F0E080818E7F808380818D7F808388E44C
:100750008093B80085E48093BC000895CF93DF9325
:1007600091E09093BD018823B9F0C091B800D09179
:10077000BA008091BC008A7B8093BC0060E082E17B
:100780000E94070260E083E10E9407020E9490033A
:10079000D093BA00C093B800DF91CF910895CF9263
:1007A000DF92EF92FF920F931F93CF93DF93D0913D
:1007B000810281E0D13208F09CC0C09180020E9489
:1007C00066026B017C018091580281116CC082E04D
:1007D0008093580281E0809357028FEF80935602F6
:1007E00010925502D0935402A0E6B2E0E4E3F2E0A6
:1007F00080E0D8138DC01092330280913302CC0F69
:10080000C82BC093330280913202813009F084C03A
:10081000109232020E9466026B017C0180913302C9
:100820008093BB0080915A0290915B02A0915C0280
:10083000B0915D02892B8A2B8B2BA1F00E9466025E
:1008400000915A0210915B0220915C0230915D028E
:100850006C197D098E099F090617170728073907A4
:1008600008F442C08091BC0083FDD8CF85EC809312
:10087000BC000E9466026B017C01809158028230AC
:1008800009F44CC0809156028F3F09F469C08091F1
:100890005602803209F466C080915602803309F412
:1008A00063C084E026C080915A0290915B02A091BF
:1008B0005C02B0915D02892B8A2B8B2B09F483CFCC
:1008C0000E94660200915A0210915B0220915C0224
:1008D00030915D026C197D098E099F090617170773
:1008E0002807390708F06FCF809159020E94AE03A4
:1008F00085E010925F021092810210925E02DF91F9
:10090000CF911F910F91FF90EF90DF90CF900895BE
:100910009D9191938F5F6DCF85EEA9CF80915A0203
:1009200090915B02A0915C02B0915D02892B8A2BB1
:100930008B2B09F4A2CF0E94660200915A021091FB
:100940005B0220915C0230915D026C197D098E0979
:100950009F09061717072807390708F08ECFC4CF5D
:1009600080E0C7CF82E0C5CF83E0C3CF089508956C
:100970000895E091110280911002E81730F4F0E040
:10098000EE5EFD4F808190E008958FEF9FEF089518
:1009900090911102809110022FEF3FEF981748F4C9
:1009A000E92FF0E0EE5EFD4F208130E09F5F9093F5
:1009B0001102C90108958091100290911102891BC2
:1009C000990B0895CF92DF92EF92FF920F931F93AE
:1009D000CF93DF937C01CB018A0120915E02222319
:1009E00089F0EB016B01C40ED51ECC15DD0569F055
:1009F0006991D701ED91FC910190F081E02DC70143
:100A00000995F3CF642F0E946903C801DF91CF914C
:100A10001F910F91FF90EF90DF90CF900895CF93AB
:100A2000DF931F92CDB7DEB7698320915E02222348
:100A3000F9F020918102203258F021E030E0FC01F1
:100A40003383228390E080E00F90DF91CF9108956F
:100A500080915F02E82FF0E0E05AFD4F998190838A
:100A60008F5F80935F028093810281E090E0ECCF02
:100A700061E0CE0101960E946903F7CF682F8FE1F4
:100A800093E00C940F050F931F93CF93DF93182FD0
:100A9000D0E0C0E28C2F0E948D000E94CF03082F6F
:100AA00061E070E080E090E00E948B02011103C0E1
:100AB0001D17D1F0DF5FCF5FC83261F7C8E38C2F1D
:100AC0000E948D000E94CF03082F61E070E080E05B
:100AD00090E00E948B02011103C01D1729F0DF5F17
:100AE000CF5FC03461F7C0E08C2FDF91CF911F91B1
:100AF0000F910895CF93FC01C4A560FF02C086A1A9
:100B0000C82B61FF02C087A1C82B62FF02C080A56D
:100B1000C82B63FF02C081A5C82B4130510511F4D9
:100B200083A1C82B85A18C2B90E00E943E056C2FE1
:100B30008FE193E0CF910C940F05CF93DF93EC01FD
:100B40008AA5882349F19BA5662311F1913011F5FF
:100B50008CA788A10E948D0089A19AA1029721F4F7
:100B600089E090E00E943E056CA58FE193E00E9431
:100B70000F050E94CF0321E030E0811102C030E078
:100B800020E088279927821B930BDF91CF9108954E
:100B90009923F1F21CA6DDCF8DEF9FEFF6CF4F9298
:100BA0005F926F927F928F929F92AF92BF92EF92DD
:100BB000FF921F93CF93DF93EC0188A1882309F460
:100BC00059C089A19AA1892B09F454C0142F7B0123
:100BD0004C8C5D8C6E8C7F8C888C998CAA8CBB8C99
:100BE0008DE2881A9108A108B1080E94660268196E
:100BF00079098A099B096415750586059705A8F387
:100C000088A10E948D0089A19AA1029721F489E010
:100C100090E00E943E05612F70E084E07595679535
:100C20008A95E1F7A701CE010E947A0582E0E816D5
:100C3000F10431F0612F6F70A701CE010E947A0597
:100C40000E94CF0321E030E0811102C030E020E0BB
:100C500088279927821B930BDF91CF911F91FF90DB
:100C6000EF90BF90AF909F908F907F906F905F902C
:100C70004F9008958CEF9FEFEFCF8DEF9FEF08958A
:100C80008DEF9FEF089590E080E008950895CF9252
:100C9000DF92EF92FF920F931F93CF93C82F0E9482
:100CA00066026B017C0180915802811164C081E071
:100CB00080935802809357029FEF909356021092B0
:100CC0005502109254028093330280913302CC0F6C
:100CD000C82BC093330280913202813009F07DC06D
:100CE000109232020E9466026B017C0180913302F5
:100CF0008093BB0080915A0290915B02A0915C02AC
:100D0000B0915D02892B8A2B8B2BA1F00E94660289
:100D100000915A0210915B0220915C0230915D02B9
:100D20006C197D098E099F090617170728073907CF
:100D300008F442C08091BC0083FDD8CF85EC80933D
:100D4000BC000E9466026B017C01809158028130D8
:100D500009F445C080915502811163C0809155020C
:100D6000E4E3F2E0A2E1B2E090E0981751F12191C2
:100D70002D939F5FFACF80915A0290915B02A091D0
:100D80005C02B0915D02892B8A2B8B2B09F48BCFEF
:100D90000E94660200915A0210915B0220915C024F
:100DA00030915D026C197D098E099F09061717079E
:100DB0002807390708F077CF809159020E94AE03C7
:100DC00080E01092110280931002CF911F910F9139
:100DD000FF90EF90DF90CF90089585EEB0CF809197
:100DE0005A0290915B02A0915C02B0915D02892B46
:100DF0008A2B8B2B09F4A9CF0E94660200915A021C
:100E000010915B0220915C0230915D026C197D09AA
:100E10008E099F09061717072807390708F095CF8D
:100E2000CBCF81E09DCF4F925F926F927F928F9256
:100E30009F92AF92BF92EF92FF920F931F93CF9327
:100E4000DF93EC011CA588A1882309F4E1C089A1E6
:100E50009AA1009709F4DCC0029709F4DCC08CA1C8
:100E6000882309F4D8C07B014C8C5D8C6E8C7F8C00
:100E7000888C998CAA8CBB8C8DE2881A9108A10869
:100E8000B1080E946602681979098A099B096415EC
:100E9000750586059705A8F38EA1182B8FA1182B31
:100EA00088A5182B89A5182BEA94EF2811F48BA19B
:100EB000182B8CA1182B88A10E948D00612F8FE127
:100EC00093E00E940F050E94CF03882301F10FEFEA
:100ED0001FEF88A10E948D006CA58FE193E00E9416
:100EE0000F050E94CF03882311F00FEF1FEFC801F9
:100EF000DF91CF911F910F91FF90EF90BF90AF9036
:100F00009F908F907F906F905F904F90089588A1F1
:100F10000E948D008DA1812B90E00E943E050E94D1
:100F2000CF038111D4CF88A190E00E9447068FE1C2
:100F300093E00E94C8047C0197FDC9CF88A10E945C
:100F40008D00612F8FE193E00E940F050E94CF0377
:100F5000082F8111BCCF8EA190E08E219F21892B7B
:100F600009F000E18FA190E08E219F21892B09F0EB
:100F7000006288A590E08E219F21892B09F00064F2
:100F800089A590E08E219F21892B09F0006888A116
:100F90000E948D008DA1812B90E00E943E050E9451
:100FA000CF03811194CF88A190E00E9447068FE182
:100FB00093E00E94C8047C0197FD89CF88A10E941C
:100FC0008D00612F8FE193E00E940F050E94CF03F7
:100FD00081117DCF8EA190E08E219F21892B09F078
:100FE00001608FA190E08E219F21892B09F0026082
:100FF00088A590E08E219F21892B09F0046089A5A6
:1010000090E08E219F21892B09F0086010E061CFCC
:101010000CEF1FEF6CCF0DEF1FEF69CF0F931F93F6
:10102000CF93DF93EC0110921102109210021092F4
:101030005F02109281020E94900386EB94E09093ED
:10104000DF018093DE0187EB94E09093E3018093CE
:10105000E20188A181117EC08091BC0191E0980FCE
:101060009093BC010E94430588A388A1811109C007
:101070008091BC0191E0980F9093BC010E944305C0
:1010800088A318A1112309F46CC089A19AA1892B06
:1010900009F021C1812F0E948D0060E08FE193E073
:1010A0000E940F056FEF8FE193E00E940F050E94F1
:1010B000CF03812F0E948D0060E08FE193E00E94BA
:1010C0000F050E94CF03812F90E00E9447068FE119
:1010D00093E00E94C8048F3F910509F049C082E067
:1010E00090E09AA389A388A10E948D0060E08FE11F
:1010F00093E00E940F058FEF90E00E943E050E9452
:10110000CF0388A10E948D0086E090E00E943E05FA
:101110008FE790E00E943E050E94CF0388A10E94C5
:101120008D0089E090E00E943E050E94CF0388A1D7
:1011300090E00E9447068FE193E00E94C8048F3739
:1011400009F002C127E036E045E054E063E072E0D8
:10115000E1E005C10E948D000E94CF03882309F4BD
:1011600084CF8CEF9FEFDF91CF911F910F91089566
:10117000892B29F01AA219A28FEF9FEFF4CF81E0FB
:1011800090E09AA389A388A10E948D006FEF8FE160
:1011900093E00E940F050E94CF0388A190E00E9477
:1011A00047068FE193E00E94C8048C0188A10E9449
:1011B0008D006BEF8FE193E00E940F050E94CF033B
:1011C00088A190E00E9447068FE193E00E94C80446
:1011D0009801277033272730310509F04DC0807FF3
:1011E0009927803F910509F047C083E01695079540
:1011F0008A95E1F761E00627017043E057E066E079
:1012000075E0E4E022E0F1E030E081E090E0DC0134
:1012100001C0AA0F3A95EAF7ABA3DC0101C0AA0FFF
:10122000FA95EAF7ACA3DC0102C0AA0FBB1F2A950E
:10123000E2F7ADA39C0101C0220FEA95EAF72EA3C5
:101240009C0101C0220F7A95EAF72FA39C0101C0EF
:10125000220F6A95EAF728A79C0101C0220F5A9530
:10126000EAF729A701C0880F4A95EAF78AA70BA7D2
:10127000013081F58CA72FC0C8018077992780376E
:10128000910519F08DEF9FEF6ECF88A10E948D0020
:101290006FEE8FE193E00E940F050E94CF0388A1BB
:1012A00090E00E9447068FE193E00E94C8048F708F
:1012B000992726E034E00F9711F424E036E00095FA
:1012C000001F0027001F47E053E062E071E0E0E00C
:1012D000F5E09BCF1CA688A10E948D0089A19AA150
:1012E000029701F585E090E00E943E0580E290E0E3
:1012F0000E943E050E94CF0388A10E948D0060E0FD
:101300008FE193E00E940F0560E08FE193E00E947F
:101310000F050E94CF0388A10E948D0089E090E014
:101320000E943E0560E08FE193E00E940F050E945D
:10133000CF0321E030E0811102C030E020E08827B7
:101340009927821B930B0FCF86FF3BC081FD9ACF5D
:1013500021E032E043E054E065E076E0E7E081E060
:1013600090E0DC0102C0AA0FBB1FEA95E2F7ABA335
:101370001CA2FC0101C0EE0F7A95EAF7EDA3FC0177
:1013800002C0EE0FFF1F6A95E2F7EEA3BC0101C099
:10139000660F5A95EAF76FA3BC0102C0660F771F6C
:1013A0004A95E2F768A7AC0101C0440F3A95EAF705
:1013B00049A701C0880F2A95EAF78AA791E09BA761
:1013C00059CF26E033E042E051E060E077E0E4E02E
:1013D000C6CF8F929F92AF92BF920F931F93CF93DE
:1013E000DF93CDB7DEB7A1970FB6F894DEBF0FBE7F
:1013F000CDBF19A2423008F44AE08E010F5D1F4FA5
:10140000842E912CB12CA12CA50194010E941A12BA
:10141000E62FB901CA01EA3044F5E05DD801EE9348
:101420008D01232B242B252B79F790E080E010975A
:1014300069F0FD0101900020E9F73197AF014A1BE7
:101440005B0BBD0182E892E00E94A800A1960FB656
:10145000F894DEBF0FBECDBFDF91CF911F910F91EA
:10146000BF90AF909F908F900895E95CD7CFFB011C
:1014700001900020E9F73197AF01461B570B0C9400
:10148000A800CF92DF92EF92FF92CF93DF93EC010F
:1014900081E493E00E9466036CE571E081E493E0EF
:1014A0000E94370A61E081E493E00E94F5026E0138
:1014B0000D2E000CEE08FF084AE0C701B601F7FE4A
:1014C0000DC06DE282E892E00E944801662777270E
:1014D000CB016C197D098E099F094AE00E94E90938
:1014E0006DE671E0209749F061E771E0C130D10508
:1014F00021F0229761F467E771E081E493E0DF91E6
:10150000CF91FF90EF90DF90CF900C94370ADF914E
:10151000CF91FF90EF90DF90CF9008950E94241418
:10152000EF92FF920F931F93CF93DF93EC017B0118
:101530008A0188819981009729F02A813B812417AB
:10154000350788F4B8016F5F7F4F0E9467130097DB
:1015500091F0998388831B830A832C813D81232BFF
:1015600011F4FC0110821D830C83B70188819981DD
:101570000E9432140CC088819981009711F00E945A
:10158000DE12198218821D821C821B821A82CE01F1
:10159000DF91CF911F910F91FF90EF90089585ED0E
:1015A0008093BC0080915A0290915B02A0915C02F2
:1015B000B0915D020796A11DB11D23E0B695A795D8
:1015C000979587952A95D1F72091BC0024FD03C0FB
:1015D00010925802089540915A0250915B02609116
:1015E0005C0270915D02452B462B472B69F30097F7
:1015F000A105B10541F025E32A95F1F70000019717
:10160000A109B109E1CF809159020C94AE031F9258
:101610000F920FB60F9211242F933F934F935F9326
:101620006F937F938F939F93AF93BF93EF93FF93AA
:1016300082E892E00E942601FF91EF91BF91AF9165
:101640009F918F917F916F915F914F913F912F91DA
:101650000F900FBE0F901F9018951F920F920FB60C
:101660000F9211242F938F939F93EF93FF93E09109
:101670009202F09193028081E0919802F091990298
:1016800082FD1BC0908180919B028F5F8F732091A0
:101690009C02821741F0E0919B02F0E0EE57FD4F73
:1016A000958F80939B02FF91EF919F918F912F9146
:1016B0000F900FBE0F901F9018958081F4CF1F924E
:1016C0000F920FB60F9211242F933F938F939F93F6
:1016D000AF93BF938091060290910702A0910802F8
:1016E000B09109023091050223E0230F2D3758F500
:1016F0000196A11DB11D20930502809306029093CF
:101700000702A0930802B093090280910A02909107
:101710000B02A0910C02B0910D020196A11DB11D0A
:1017200080930A0290930B02A0930C02B0930D02D7
:10173000BF91AF919F918F913F912F910F900FBECD
:101740000F901F90189526E8230F0296A11DB11D3A
:10175000D2CF1F920F920FB60F9211242F933F9367
:101760004F935F936F937F938F939F93AF93BF93A9
:10177000EF93FF938091B900887F803609F44AC0C7
:10178000F0F5883209F4A7C018F5803109F49BC040
:10179000B8F4882309F4F9C0883009F494C0FF91A3
:1017A000EF91BF91AF919F918F917F916F915F91D9
:1017B0004F913F912F910F900FBE0F901F90189552
:1017C000883109F488C0803251F78093560214C0E2
:1017D000803409F49DC040F48033B9F38833F9F6BE
:1017E0008093560285ECB0C0803509F485C08835F9
:1017F00009F496C0883499F60E94CF0AD0CF883970
:1018000009F48CC038F5883729F050F4883611F087
:10181000803729F683E0809358021092040257C063
:10182000883809F47BC0803919F0803809F0B7CFC7
:1018300080910402803208F071C0E091040281E0DE
:101840008E0F809304028091BB00F0E0EC51FE4FBC
:1018500080833DC0803B39F0E0F4803A09F479C0E0
:10186000883A09F09CCF84E0809358021092E101FD
:101870001092E001E091DE01F091DF010995809185
:10188000E00181110FC081E08093E0011092BE0160
:1018900009C0803C09F4A6CF883C09F4A3CF883B5B
:1018A00009F07DCFE091E10181E08E0F8093E101AD
:1018B000F0E0E254FE4F80818093BB009091E10103
:1018C0008091E00129C0809133028093BB0085ECB8
:1018D0008093BC0064CF9091550280915402981778
:1018E00058F5E091550281E08E0F80935502F0E0AB
:1018F000EC5CFD4F8081E9CFE091550281E08E0FD5
:10190000809355028091BB00F0E0EC5CFD4F80833A
:1019100090915502809154029817C8F285E8D8CF6B
:10192000E091550281E08E0F809355028091BB00BB
:10193000F0E0EC5CFD4F80838091570281115CCF19
:1019400081E08093320284EA8093BC0010925802B6
:1019500026CF85EC8093BC0010925802809104023F
:10196000803230F4E0910402F0E0EC51FE4F10823E
:101970006091040270E0E091E201F091E30184EEF5
:1019800091E00995109204020ACF1092560234CFCA
:10199000109285021092840288EE93E0A0E0B0E0FD
:1019A0008093860290938702A0938802B093890265
:1019B00020E131E0309383022093820225EC30E075
:1019C00030938F0220938E0224EC30E0309391020A
:1019D0002093900220EC30E0309393022093920207
:1019E00021EC30E0309395022093940222EC30E019
:1019F000309397022093960226EC30E030939902C0
:101A00002093980210929B0210929C0210929D02C9
:101A100010929E02109222031092210380932303BE
:101A200090932403A0932503B093260382E291E0D0
:101A30009093200380931F0310924403109243035A
:101A400084E391E090934203809341031092480312
:101A50001092490380ED97E0A0E0B0E0809351033D
:101A600090935203A0935303B093540386E290E003
:101A7000A0E0B0E08093550390935603A0935703E2
:101A8000B093580310924D0310924E0310924F03DF
:101A90001092500310924C030E9466026093590307
:101AA00070935A0380935B0390935C0310925D03E1
:101AB00010925E0310925F03109260038AE491E03B
:101AC000909342038093410382E090E090936303FC
:101AD0008093620380E28093610390E890936403B3
:101AE0001092650390E4909366038093670380E10E
:101AF0008093680388E08093690384E080936A039D
:101B000092E090936B0381E080936C0390936D035C
:101B100010922C031092330310923A0310923B035D
:101B200010923C0310923D03809339038093360357
:101B3000109237039093380380932B038FE090E04B
:101B40009093300380932F030E94421290933503A9
:101B500080933403009789F12FE0FC0111922A95BC
:101B6000E9F785E090E090932E0380932D038CE0BD
:101B700090E0909332038093310380912C0388236B
:101B800041F061E08CE00E94350260E08CE00E9450
:101B90000702EAEBF0E0E491F0E0EE0FFF1FEC55F6
:101BA000FF4F8591949190933F0380933E03ECE91E
:101BB000F0E0E491E0934003089510923003109216
:101BC0002F0310922E0310922D03D1CFCF93DF93CA
:101BD000CDB7DEB7EE970FB6F894DEBF0FBECDBF20
:101BE000789484B5826084BD84B5816084BD85B5F8
:101BF000826085BD85B5816085BD80916E00816004
:101C000080936E00109281008091810082608093A9
:101C100081008091810081608093810080918000AB
:101C20008160809380008091B10084608093B100D6
:101C30008091B00081608093B00080917A008460D0
:101C400080937A0080917A00826080937A008091FC
:101C50007A00816080937A0080917A008068809316
:101C60007A001092C100E0919202F091930282E01A
:101C70008083E0918E02F0918F021082E0919002B9
:101C8000F09191028FEC808310929A02E09196027B
:101C9000F091970286E08083E0919402F0919502A2
:101CA000808180618083E0919402F091950280812F
:101CB00088608083E0919402F09195028081806831
:101CC0008083E0919402F091950280818F7D8083E2
:101CD00080914D0381110CC080914E03811108C089
:101CE00080914F03811104C080915003882321F01B
:101CF000809148038F7E59F010924D0380E48093C9
:101D00004E0380E180934F0380E58093500382E08F
:101D10008093490380E18093480364E670E080E0AB
:101D200090E00E948B021092450381E493E00E94B0
:101D30000E08892B09F05BC080914903823028F09E
:101D40008091450388608093450340E362E070E042
:101D500081E493E00E94CF0565E070E080E090E0D0
:101D60000E948B0240E362E070E081E493E00E9415
:101D7000CF0561E070E080E090E00E948B0240E3DC
:101D800062E070E081E493E00E94CF0561E070E0E2
:101D900080E090E00E948B028091450384FD07C0A3
:101DA00040E262E070E081E493E00E94CF05609140
:101DB0004503606281E493E00E94BD0284E0809369
:101DC00046036CE081E493E00E94BD0281E493E06D
:101DD0000E94660382E08093470366E081E493E01B
:101DE0000E94BD026FEF81E493E00E949D05809107
:101DF0004303909144039C838B83809145038D839F
:101E0000809146038E83809147038F83809148039E
:101E1000888780914903898780914A038A878091C6
:101E20004B038B8780914C038C8780914D0390915D
:101E30004E03A0914F03B09150038D879E87AF87CB
:101E4000B88B8091510390915203A0915303B091AC
:101E50005403898B9A8BAB8BBC8B809155039091EB
:101E60005603A0915703B09158038D8B9E8BAF8B77
:101E7000B88F8091590390915A03A0915B03B09160
:101E80005C03898F9A8FAB8FBC8F80915D0390919B
:101E90005E03A0915F03B09160038D8F9E8FAF8F23
:101EA000B8A38AE491E09A8389838091610389A32E
:101EB00080916203909163039BA38AA38091640342
:101EC0008CA3809165038DA3809166038EA380917E
:101ED00067038FA38091680388A78091690389A70E
:101EE00080916A038AA780916B038BA780916C0312
:101EF0008CA780916D038DA71DAA1CAA1FAA1EAADC
:101F000019AE18AE48E050E06CE771E0CE01C4961F
:101F10000E94900A1FA61EA619AA18AA1BAA1AAAEE
:101F200046E050E065E871E0CE018E960E94900A8E
:101F3000CE0101960E94660360E0CE0101960E94E8
:101F4000F5026CE871E0CE0101960E94370A61E06B
:101F5000CE0101960E94F50210E000E0B0E1EB2E08
:101F6000F12C88AD99AD9701281B390BC9019695C5
:101F700087950817190748F46CEA71E0CE010196BD
:101F80000E94370A0F5F1F4FECCF6CE771E0CE0164
:101F900001960E94370A64EC79E080E090E00E94AC
:101FA0008B0261E0CE0101960E94F5026DE971E0BD
:101FB000CE0101960E94370A61E0CE0101960E948F
:101FC000F50210E000E0F0E1EF2EF12C8AA99BA9C8
:101FD000F701E81BF90BCF019695879508171907AC
:101FE00048F46CEA71E0CE0101960E94370A0F5F57
:101FF0001F4FECCF65E871E0CE0101960E94370AD1
:1020000064EC79E080E090E00E948B02CE010196C2
:102010000E94660364E670E080E090E00E948B021C
:102020008EA59FA5009711F00E94DE128CA99DA994
:10203000009711F00E94DE1260E084E00E943502F9
:1020400060E087E00E943502809131039091320375
:1020500097FD08C061E00E94350260E08091310385
:102060000E94070281E080932C036EEA71E081E414
:1020700093E00E94370A50E0E52E50E0F52E01E093
:1020800010E062E0C62ED12C78E0B72E62E370E05B
:1020900080E090E00E948B0284E00E94DE01892BA8
:1020A000C1F080910E0290910F028130910509F0EC
:1020B00002C110920F0210920E0280910E029091B6
:1020C0000F020E94410A64EF71E080E090E00E94FC
:1020D0008B0287E00E94DE01892BB9F080910E020D
:1020E00090910F02009709F0EEC010930F02009339
:1020F0000E0280910E0290910F020E94410A64EF3D
:1021000071E080E090E00E948B0280910E0290913D
:102110000F02009709F0DFC00E94970097FD039619
:1021200095958795959587959093050180930401E2
:1021300080912D0390912E03892B59F1209100015C
:102140003091020140910401809133038111DFC07D
:10215000822FE0913903609134037091350390919F
:102160003603E91721F0E60FF72FF11D1082E091F9
:102170003603E60FF72FF11D4083E0913703E60F9A
:10218000F72FF11D308390913803690F711DFB010A
:1021900080838091340390913503892B09F47FC0AB
:1021A00040903A0350903B0360903C0370903D0395
:1021B0000E946602641575058605970550F40E9415
:1021C000660260933A0370933B0380933C039093C1
:1021D0003D030E94660240903A0350903B0360909A
:1021E0003C0370903D0364197509860997096C32A8
:1021F000714081059105A0F2F89480912F03909190
:1022000030039A838983E0913403F0913503DF0131
:10221000119680818EAF90912B03E0913E03F09157
:102220003F0380914003992309F485C09081982B46
:102230009DAF9081809589238CAF8CAD8CABBEA671
:102240005DAD6CAD4EAD3EA52CA989819A815083C0
:1022500047FD252F3A952083262F39F0441F00C0D3
:1022600000006083000000C0F2CF38E04D91608331
:102270000000019761F7F0933F03E0933E034EAFF8
:102280003EA72CAB9A83898378940E946602609360
:102290003A0370933B0380933C0390933D03E11416
:1022A000F10409F4F3CE0E941201882309F4EECE62
:1022B0000E940000EBCE029709F0FFCE10930F02B0
:1022C00000930E02FACE019709F013CFD0920F02BD
:1022D000C0920E020ECF019769F40E94970097FDFD
:1022E000039695958795959587959093030180938F
:1022F00002011ECF0E94970097FD03969595879542
:1023000095958795909301018093000111CF90E0FE
:10231000489FB001499F700D1124472F389FB0018D
:10232000399F700D1124372F289FB001299F700D00
:102330001124872F0ECF9081982B9DAF908180958F
:1023400089238CAF8CAD8BAFBAAE5DAD6CAD4EADAD
:102350003AAD2BAD89819A81508347FD252F00C06E
:1023600000C0208300C000C000C000C000C0608367
:102370000000262F3A9541F0441F000000C000C025
:1023800000C000C000C0E8CF38E04D9100C06083BD
:1023900000C0019709F7F0933F03E0933E034EAF6F
:1023A0003AAF2BAF6FCF80913403909135030E94E9
:1023B000DE12809131039091320397FD03C060E0FB
:1023C0000C94350208952F923F924F925F926F9234
:1023D0007F928F929F92AF92BF92CF92DF92EF92B5
:1023E000FF920F931F93CF93DF93CDB7DEB7CA1B36
:1023F000DB0B0FB6F894DEBF0FBECDBF09942A8861
:10240000398848885F846E847D848C849B84AA8408
:10241000B984C884DF80EE80FD800C811B81AA8195
:10242000B981CE0FD11D0FB6F894DEBF0FBECDBF60
:10243000ED010895A1E21A2EAA1BBB1BFD010DC0E0
:10244000AA1FBB1FEE1FFF1FA217B307E407F50764
:1024500020F0A21BB30BE40BF50B661F771F881F40
:10246000991F1A9469F760957095809590959B01D6
:10247000AC01BD01CF010895EE0FFF1F0590F4914F
:10248000E02D09940F931F93CF93DF938230910532
:1024900010F482E090E0E0917003F091710330E07D
:1024A00020E0B0E0A0E0309799F42115310509F45F
:1024B0004AC0281B390B24303105D8F58A819B810D
:1024C0006115710589F1FB0193838283FE0111C0BF
:1024D000408151810281138148175907E0F0481764
:1024E000590799F4109761F012960C93129713966E
:1024F0001C933296CF01DF91CF911F910F910895D8
:102500000093700310937103F4CF2115310551F03E
:102510004217530738F0A901DB019A01BD01DF0121
:10252000F801C1CFEF01F9CF90937103809370034D
:10253000CDCFFE01E20FF31F819391932250310919
:1025400039832883D7CF20916E0330916F03232BDB
:1025500041F4209108013091090130936F032093D9
:102560006E0320910601309107012115310541F4D8
:102570002DB73EB740910A0150910B01241B350B3A
:10258000E0916E03F0916F03E217F307A0F42E1BA6
:102590003F0B2817390778F0AC014E5F5F4F2417C7
:1025A000350748F04E0F5F1F50936F0340936E0343
:1025B000819391939FCFF0E0E0E09CCFCF93DF93A6
:1025C0000097E9F0FC01329713821282A091700308
:1025D000B0917103ED0130E020E01097A1F420816B
:1025E0003181820F931F20916E0330916F03281762
:1025F000390709F061C0F0936F03E0936E03DF9138
:10260000CF910895EA01CE17DF07E8F54A815B8193
:102610009E0141155105B1F7E901FB83EA83499118
:102620005991C40FD51FEC17FD0761F4808191818A
:102630000296840F951FE901998388838281938193
:102640009B838A83F0E0E0E012968D919C91139732
:102650000097B9F52D913C911197CD010296820F0B
:10266000931F20916E0330916F032817390739F6B5
:10267000309751F51092710310927003B0936F036D
:10268000A0936E03BCCFD383C28340815181840F5A
:10269000951FC817D90761F44E5F5F4F88819981F4
:1026A000480F591F518340838A819B819383828382
:1026B0002115310509F0B0CFF0937103E093700359
:1026C0009ECFFD01DC01C0CF13821282D7CFB0E0D4
:1026D000A0E0EDE6F3E10C94E5118C01009751F4D4
:1026E000CB010E9442128C01C801CDB7DEB7E0E1F8
:1026F0000C940112FC01E60FF71F9C0122503109D6
:10270000E217F30708F49DC0D901CD91DC91119730
:10271000C617D70798F0C530D10530F3CE0104971E
:102720008617970708F3C61BD70B2297C193D1933F
:102730006D937C93CF010E94DE12D6CF5B01AC1A61
:10274000BD0A4C018C0E9D1EA0917003B0917103C7
:10275000512C412CF12CE12C109731F580916E0316
:1027600090916F038815990509F05CC046165706CD
:1027700008F058C08091060190910701009741F43C
:102780008DB79EB740910A0150910B01841B950BA8
:10279000E817F90708F055C0F0936F03E0936E0354
:1027A000F90171836083A0CF8D919C91119712964E
:1027B0006C90129713967C901397A815B90559F54C
:1027C0006C0142E0C40ED11CCA14DB0420F1AC0140
:1027D0004A195B09DA011296159780F062827382BA
:1027E00051834083D9016D937C93E114F10471F01E
:1027F000D7011396FC93EE93129776CF22968C0F07
:102800009D1FF90191838083F301EFCFF093710352
:10281000E093700369CF4816590608F42C017D0136
:10282000D3019ACFCB010E9442127C01009749F05C
:10283000AE01B8010E942914C8010E94DE1287016E
:1028400053CF10E000E050CF81E090E0F8940C947A
:102850003914FB01DC0102C001900D92415050403F
:10286000D8F70895FB01DC0101900D920020E1F7FB
:10287000089510E0C2E6D0E004C0FE010E943C12C0
:0C2880002196C336D107C9F7F894FFCFAA
:10288C00640064006400000072038000000000001B
:10289C004801A800D50095010601E400F8000000ED
:1028AC0000000F05E2044306B804DB04C804B904B5
:1028BC00000000001C03A800430646064306400621
:1028CC008E0A3D063D06000000001C03A8004306CE
:1028DC0046060E081307CF059D053D066E6F772043
:1028EC00796F75206368616E67653A200072656464
:1028FC0000677265656E00626C7565004B6E6F6289
:10290C002D4C45440076302E312E3000544D45650B
:10291C006475636174696F6E2E636F6D0020202087
:10292C0020202020202020202020202020004C654A
:0C293C00667420746F2073746172740064
:00000001FF
