:100000000C9442050C946A050C946A050C946A05DC
:100010000C946A050C946A050C946A050C946A05A4
:100020000C946A050C946A050C946A050C946A0594
:100030000C946A050C946A050C946A050C946A0584
:100040000C9441190C946A050C940F190C94E9183E
:100050000C946A050C946A050C946A050C946A0564
:100060000C948B190C946A05000103070F1F3F7F46
:100070000080C0E0F0F8FCFE00000000003E5B4F96
:100080005B3E3E6B4F6B3E1C3E7C3E1C183C7E3CF8
:10009000181C577D571C1C5E7F5E1C00183C180006
:1000A000FFE7C3E7FF0018241800FFE7DBE7FF3096
:1000B000483A060E2629792926407F050507407F04
:1000C00005253F5A3CE73C5A7F3E1C1C08081C1C77
:1000D0003E7F14227F22145F5F005F5F06097F016D
:1000E0007F006689956A606060606094A2FFA29458
:1000F00008047E040810207E201008082A1C080826
:100100001C2A08081E101010100C1E0C1E0C303873
:100110003E3830060E3E0E06000000000000005F74
:1001200000000007000700147F147F14242A7F2A90
:100130001223130864623649562050000807030052
:10014000001C2241000041221C002A1C7F1C2A089E
:10015000083E080800807030000808080808000001
:1001600060600020100804023E5149453E00427F75
:10017000400072494949462141494D331814127FC4
:100180001027454545393C4A494931412111090764
:100190003649494936464949291E000014000000E5
:1001A00040340000000814224114141414140041B7
:1001B00022140802015909063E415D594E7C121174
:1001C000127C7F494949363E414141227F414141AC
:1001D0003E7F494949417F090909013E4141517327
:1001E0007F0808087F00417F41002040413F017F98
:1001F000081422417F404040407F021C027F7F0460
:1002000008107F3E4141413E7F090909063E4151A8
:10021000215E7F09192946264949493203017F0198
:10022000033F4040403F1F2040201F3F4038403F99
:10023000631408146303047804036159494D4300AF
:100240007F4141410204081020004141417F0402E6
:10025000010204404040404000030708002054547D
:1002600078407F284444383844444428384444285B
:100270007F385454541800087E090218A4A49C78AE
:100280007F0804047800447D40002040403D007F0A
:100290001028440000417F40007C047804787C08EA
:1002A0000404783844444438FC18242418182424BE
:1002B00018FC7C08040408485454542404043F44A3
:1002C000243C4040207C1C2040201C3C4030403CD2
:1002D00044281028444C9090907C4464544C440032
:1002E0000836410000007700000041360800020196
:1002F0000204023C2623263C1EA1A161123A404082
:10030000207A3854545559215555794122545478FE
:1003100042215554784020545579400C1E52721297
:100320003955555559395454545939555454580020
:1003300000457C410002457D420001457C407D1224
:1003400011127DF0282528F07C5455450020545486
:100350007C547C0A097F4932494949323A44444431
:100360003A324A4848303A4141217A3A424020786C
:10037000009DA0A07D3D4242423D3D4040403D3C6D
:1003800024FF2424487E4943662B2FFC2F2BFF0992
:1003900029F620C0887E0903205454794100004486
:1003A0007D413048484A32384040227A007A0A0A71
:1003B000727D0D19317D2629292F282629292926E4
:1003C00030484D4020380808080808080808382F29
:1003D00010C8ACBA2F102834FA00007B00000814B3
:1003E0002A142222142A14085500550055AA55AA89
:1003F00055AAFF55FF55FF000000FF00101010FF29
:1004000000141414FF001010FF00FF1010F010F083
:10041000141414FC001414F700FF0000FF00FF1474
:1004200014F404FC141417101F10101F101F1414C0
:10043000141F00101010F0000000001F101010100A
:100440001F10101010F010000000FF1010101010FE
:1004500010101010FF10000000FF140000FF00FF3C
:1004600000001F10170000FC04F4141417101714D8
:1004700014F404F40000FF00F714141414141414FA
:10048000F700F7141414171410101F101F1414146D
:10049000F4141010F010F000001F101F0000001FD7
:1004A00014000000FC140000F010F01010FF10FF0A
:1004B000141414FF141010101F00000000F010FF9F
:1004C000FFFFFFFFF0F0F0F0F0FFFFFF0000000083
:1004D00000FFFF0F0F0F0F0F3844443844FC4A4A07
:1004E0004A347E02020606027E027E0263554941BC
:1004F000633844443C04407E201E2006027E0202F3
:1005000099A5E7A5991C2A492A1C4C7201724C3006
:100510004A4D4D303048784830BC625A463D3E49DD
:100520004949007E0101017E2A2A2A2A2A44445F81
:10053000444440514A444040444A51400000FF0175
:1005400003E080FF000008086B6B08361236243683
:10055000060F090F060000181800000010100030E8
:1005600040FF0101001F01011E00191D1712003C70
:100570003C3C3C00000000000000000800020100BC
:10058000000304070000000000000000DB40A4A6F8
:100590002EAF2000A1C8D300408DAED580A80000AA
:1005A000600000000000000000000000000000E00B
:1005B0000000000000000000000000000001E0005A
:1005C00000000000000000000000000001F000003A
:1005D000000000000000000000000003F000000028
:1005E0000000000000000000000007F00000000014
:1005F00000000000000000000007F80000000000FC
:1006000000000000000000000FF800000003C00020
:100610007E000001E0007F0FF800000003C000FE34
:10062000000001E000FFEFF800000003C000FE0042
:100630000001E000FFFFF800000003C000F0000030
:10064000000F007FFE7FC0000003C000F00000002C
:100650000F003FFE7FF83FF1FBCFFCFEF3BC3DEF08
:10066000E01FFE7FFF7FFBFFDFFEFEFFBC3DEFE0F4
:100670001FC6FFFF7FFBFFDFFEFEFFBC3DEFE00F6D
:10068000E3C7FE787BC3DE1EF0FFBC3DEF0007FF33
:1006900087FC787BC3DE1EF0F83C3DEF0001FFFFD6
:1006A000F0007BC3C01EF0F03C3DEF0001F37FE0A3
:1006B0003FFBC3CFFEF0F03C3DEF0003E33F807F04
:1006C000FBC3DFFEF0F03C3DEF0007E73C00787B2A
:1006D000C3DE1EF0F03C3DEF0007FFBE00787BC399
:1006E000DE1EF0F03C3DEF0007FFFE00787BC3DE2E
:1006F0001EF0F03C3DEF000FFFFE007FFBFFDFFE32
:10070000F0F03FFDEFE00FFFFF007FFBFFDFFEF0AB
:10071000F03FFDEFE00FF9FF003E79F9CF9EF0F0DA
:100720001F3DE7E01FF1FF00000000000000000097
:100730000000001F80FF007FFFFFFFFFFFFFFFFFA4
:10074000FFE01C007F007FFFFFFFFEB46D888D1867
:10075000E000001F007FFFFFFFFE95AD7DB577E055
:1007600000000F007FFFFFFFFEA5AD9D8D19E0008B
:100770000006007FFFFFFFFEB5ADEDB57EE0000097
:100780000000000180000000000000000000038065
:1007900000000000000000000007C0000000000092
:1007A0000000000007C00000000000000000000F73
:1007B000C00000000000000000001FE0000000007A
:1007C00000000000001FE00000000000000000002A
:1007D0003FE00000000000000000003FF0000000CB
:1007E0000000000000007FF0000000000000001F7B
:1007F000F87FF0000000000000003FFE7FF00000E6
:1008000000000000003FFF7FF0000000000000003B
:100810001FFFFBE0000000000000000FFFF9FFC019
:100820000000000000000FFFF9FFF80000000000CA
:100830000007FFF1FFFF00000000000003FC73FF52
:10084000FF80000000000001FE3FFFFF800000006D
:10085000000000FF1E0FFF000000000000007FFEF0
:100860001FFC000000000000003FFFFFF800000038
:10087000000000000FDFFFE0000000000000001F8C
:1008800019FFC0000000000000003F3CFF00000016
:1008900000000000007E7CF8000000000000000066
:1008A0007FFE7C0000000000000000FFFFFC000055
:1008B000000000000000FFFFFE000000000000003C
:1008C00000FFFFFE0000000000000001FFEFFE003F
:1008D00000000000000001FFCFFE0000000000004B
:1008E0000003FF07FE0000000000000003FC07FEFD
:1008F0000000000000000003F003FE000000000004
:100900000000018000FE0000000000000000000068
:100910007E000000000000000000003E000000001B
:100920000000000000000C00000000000007800034
:10093000FC000003C0000000078001FC000003C0B1
:10094000000000078001FC000003C00000000780D9
:1009500001E00000001E000000078001E000000030
:100960001E007FE3F79FF9FDE7787BDFC0FFF7FF0D
:10097000BFFDFDFF787BDFC0FFF7FFBFFDFDFF7808
:100980007BDFC0F0F787BC3DE1FF787BDE00F0F74E
:1009900087BC3DE1F0787BDE0000F787803DE1E039
:1009A000787BDE007FF7879FFDE1E0787BDE00FF4C
:1009B000F787BFFDE1E0787BDE00F0F787BC3DE123
:1009C000E0787BDE00F0F787BC3DE1E0787BDE007D
:1009D000F0F787BC3DE1E0787BDE00FFF7FFBFFD6D
:1009E000E1E07FFBDFC0FFF7FFBFFDE1E07FFBDF62
:1009F000C07CF3F39F3DE1E03E7BCFC000000000F0
:100A000000000000000000FFFFFFFFFFFFFFFFFFEF
:100A1000FFC0FFFFFFFFFD68DB111A31C0FFFFFFC2
:100A2000FFFD2B5AFB6AEFC0FFFFFFFFFD4B5B3B57
:100A30001A33C0FFFFFFFFFD6B5BDB6AFDC02200C6
:100A4000FF210000000000250028002B000000000E
:100A500000240027002A00040404040404040402FF
:100A6000020202020203030303030301020408104B
:100A70002040800102040810200102040810200018
:100A8000AA1A332111241FBECFEFD8E0DEBFCDBF9D
:100A900011E0A0E0B1E0EAECF7E402C005900D92AD
:100AA000A83BB107D9F724E0A8EBB1E001C01D9243
:100AB000A731B207E1F715E0C1E4D5E004C0219702
:100AC000FE010E94D421C034D107C9F70E94641BE3
:100AD0000C94D8230C94000091E09093FC02809336
:100AE000FB021092FA021092F902089590E0FC01C4
:100AF000E559F54F2491895A954FFC01849188233B
:100B000099F090E0880F991FFC01E35BF54FA591E8
:100B1000B491FC01ED5BF54F859194918FB7F894FA
:100B2000EC91E22BEC938FBF0895089508950895FA
:100B3000AF92BF92CF92DF92EF92FF920F931F93EB
:100B4000CF93DF936C017B018B01040F151FEB0129
:100B50005E01AE18BF08C017D10759F06991D601E0
:100B6000ED91FC910190F081E02DC6010995892B52
:100B700079F7C501DF91CF911F910F91FF90EF9011
:100B8000DF90CF90BF90AF900895FC01538D448DBE
:100B9000252F30E0842F90E0821B930B541710F028
:100BA000CF96089501970895FC01918D828D981735
:100BB00061F0A28DAE0FBF2FB11D5D968C91928D0D
:100BC0009F5F9F73928F90E008958FEF9FEF08953E
:100BD000FC01918D828D981731F0828DE80FF11D07
:100BE000858D90E008958FEF9FEF0895FC01918D22
:100BF000228D892F90E0805C9F4F821B91098F731B
:100C0000992708958DEF92E00E94F60521E0892B47
:100C100009F420E0822F089580E090E0892B29F0EC
:100C20000E94020681110C9400000895FC01A48D1D
:100C3000A80FB92FB11DA35ABF4F2C91848D90E0FE
:100C400001968F739927848FA689B7892C93A089E1
:100C5000B1898C91837080648C93938D848D98136B
:100C600006C00288F389E02D80818F7D80830895FE
:100C7000EF92FF920F931F93CF93DF93EC0181E0EC
:100C8000888F9B8D8C8D98131AC0E889F989808193
:100C900085FF15C09FB7F894EE89FF896083E889C6
:100CA000F98980818370806480839FBF81E090E0B8
:100CB000DF91CF911F910F91FF90EF900895F62E45
:100CC0000B8D10E00F5F1F4F0F731127E02E8C8DDF
:100CD0008E110CC00FB607FCFACFE889F989808124
:100CE00085FFF5CFCE010E941606F1CFEB8DEC0FFC
:100CF000FD2FF11DE35AFF4FF0829FB7F8940B8F41
:100D0000EA89FB8980818062CFCFCF93DF93EC01AA
:100D1000888D8823B9F0AA89BB89E889F9898C91E3
:100D200085FD03C0808186FD0DC00FB607FCF7CF9F
:100D30008C9185FFF2CF808185FFEDCFCE010E949F
:100D40001606E9CFDF91CF91089590E0FC01E858B5
:100D5000FA4F2491FC01E559F54F3491FC01E95A11
:100D6000F54FE491EE23C9F0222339F0233001F14D
:100D7000A8F4213019F1223029F1F0E0EE0FFF1F25
:100D8000ED5BF54FA591B4918FB7F894EC9161119B
:100D900026C030953E233C938FBF08952730A9F09D
:100DA0002830C9F0243049F7809180008F7D03C03E
:100DB000809180008F7780938000DFCF84B58F771C
:100DC00084BDDBCF84B58F7DFBCF8091B0008F7762
:100DD0008093B000D2CF8091B0008F7DF9CF3E2BB1
:100DE000DACF3FB7F8948091220290912302A0912C
:100DF0002402B091250226B5A89B05C02F3F19F00B
:100E00000196A11DB11D3FBFBA2FA92F982F88278A
:100E1000BC01CD01620F711D811D911D42E0660F65
:100E2000771F881F991F4A95D1F708958F929F9237
:100E3000AF92BF92CF92DF92EF92FF924B015C0193
:100E40000E94F1066B017C010E94F1066C197D097C
:100E50008E099F09683E734081059105A8F321E042
:100E6000821A9108A108B10888EEC80E83E0D81E46
:100E7000E11CF11C81149104A104B10429F7FF9035
:100E8000EF90DF90CF90BF90AF909F908F9008959C
:100E90008F929F92AF92BF92EF92FF921F93CF9348
:100EA000DF93EC01162FE881F9810484F585E02DAC
:100EB000462F70E060E009957C0111501230D8F4A3
:100EC00019861A8688889988AA88BB880E94F106A4
:100ED000688F798F8A8F9B8F8C8E9D8EAE8EBF8E02
:100EE000C701DF91CF911F91FF90EF90BF90AF901E
:100EF0009F908F9008958C889D88AE88BF88E6CF9C
:100F0000DC0118968C911897681710F06FEF680F36
:100F10001B969C911B97992391F017962C911797EC
:100F2000962F211106C061E0690F90E06817D8F78D
:100F3000F7CF19961C9219971A966C931A97FD0180
:100F4000E60FF11D64856068CD010C9448078F920F
:100F50009F92AF92BF92EF92FF920F931F93CF9306
:100F6000DF93EC01462FE881F9810484F585E02DBB
:100F700061E070E009957C018C889D88AE88BF880F
:100F80000E94F106688F798F8A8F9B8F8C8E9D8E41
:100F9000AE8EBF8E01E010E0EF2811F010E000E00F
:100FA0008B85882391F089858F5F89879F81891739
:100FB00060F019868A858F5F8A879885891708F07F
:100FC0001A866A85CE010E948007C801DF91CF9101
:100FD0001F910F91FF90EF90BF90AF909F908F90D7
:100FE00008952091FA01260F3327331F213231054E
:100FF000ECF42091D102FC0190E080E0243069F013
:1010000082E00895A091FA012191AC0146525E4F11
:10101000A40FB52FB11D2C930196861798F38091DC
:10102000FA01680F6093FA0180E0089581E0089565
:101030001092D10281E08093D0021092CB0261E045
:1010400082E10E94A50661E083E10E94A506E9EB2A
:10105000F0E080818E7F808380818D7F808388E433
:101060008093B80085E48093BC000895CF93DF930C
:1010700091E09093D9018823B9F0C091B800D09144
:10108000BA008091BC008A7B8093BC0060E082E162
:101090000E94A50660E083E10E94A5060E94180850
:1010A000D093BA00C093B800DF91CF910895E0913A
:1010B000D8028091D702E81730F4F0E0E752FD4FF4
:1010C000808190E008958FEF9FEF08959091D8026E
:1010D0008091D7022FEF3FEF981748F4E92FF0E007
:1010E000E752FD4F208130E09F5F9093D802C90105
:1010F00008958091D7029091D802891B990B089589
:10110000CF92DF92EF92FF920F931F93CF93DF93D3
:101110007C01CB018A012091FC02222389F0EB01A2
:101120006B01C40ED51ECC15DD0569F06991D701A0
:10113000ED91FC910190F081E02DC7010995F3CF6D
:10114000642F0E94F107C801DF91CF911F910F9189
:10115000FF90EF90DF90CF900895CF93DF931F9291
:10116000CDB7DEB769832091FC022223F9F02091EC
:10117000F902203258F021E030E0FC013383228371
:1011800090E080E00F90DF91CF9108958091FA0276
:10119000E82FF0E0E754FE4F998190838F5F8093B2
:1011A000FA028093F90281E090E0ECCF61E0CE0199
:1011B00001960E94F107F7CF682F8AE993E00C941B
:1011C000AD08CF92DF92EF92FF920F931F93CF93D0
:1011D000DF93D091F90281E0D13208F09CC0C09138
:1011E000FB020E94F1066B017C018091D10281110A
:1011F0006CC082E08093D10281E08093D0028FEFB7
:101200008093CF021092CE02D093CD02A9EBB1E031
:10121000EBEAF2E080E0D8138DC01092CC0280910E
:10122000CC02CC0FC82BC093CC028091CB02813072
:1012300009F084C01092CB020E94F1066B017C0180
:101240008091CC028093BB008091D3029091D40214
:10125000A091D502B091D602892B8A2B8B2BA1F0BD
:101260000E94F1060091D3021091D4022091D50280
:101270003091D6026C197D098E099F090617170750
:101280002807390708F442C08091BC0083FDD8CFFD
:1012900085EC8093BC000E94F1066B017C0180917B
:1012A000D102823009F44CC08091CF028F3F09F403
:1012B00069C08091CF02803209F466C08091CF026C
:1012C000803309F463C084E026C08091D3029091FA
:1012D000D402A091D502B091D602892B8A2B8B2BF8
:1012E00009F483CF0E94F1060091D3021091D40239
:1012F0002091D5023091D6026C197D098E099F0983
:10130000061717072807390708F06FCF8091D20218
:101310000E94360885E01092FA021092F9021092AB
:10132000FC02DF91CF911F910F91FF90EF90DF9022
:10133000CF9008959D9191938F5F6DCF85EEA9CF4A
:101340008091D3029091D402A091D502B091D6029F
:10135000892B8A2B8B2B09F4A2CF0E94F1060091D6
:10136000D3021091D4022091D5023091D6026C198B
:101370007D098E099F09061717072807390708F006
:101380008ECFC4CF80E0C7CF82E0C5CF83E0C3CF8C
:101390000895FC016370668B848195812681378175
:1013A000613039F0633029F0918780873387228755
:1013B0000895318720879387828708952F923F92DF
:1013C0004F925F926F927F928F929F92AF92BF9255
:1013D000CF92DF92EF92FF920F931F93CF93DF9301
:1013E000CDB7DEB76A970FB6F894DEBF0FBECDBF9C
:1013F0009A8F898F7A8369834A01D22E18870F8347
:101400003701BC2CDC0159962D913C915A9721153E
:10141000310509F015C118968D919C91199768179F
:1014200079070CF0D7C11A968D919C9148175907EE
:101430000CF0D0C14C2C512CB6E0CB9E600D711D30
:1014400011247C876B87161617060CF0C3C1EA2D92
:10145000F0E0FA87E98793E0EE0FFF1F9A95E1F736
:10146000F88BEF87CF01840F951F181619060CF023
:10147000B1C1A98DBA8D58968C91811104C0BFEA73
:10148000BD1508F4D394A98DBA8DED91FC911197F7
:101490000284F385E02DCD010995B5E0DB9EC00106
:1014A0001124E981FA81FC83EB83312C212C9C01EE
:1014B00028583F4F388F2F8B4A2D50E05E8B4D8B35
:1014C000EF89F88DE20DF31D44919E828D82D12C1F
:1014D000C12C69817A81620D731D7A8B698B842F8F
:1014E00090E09C8B8B8BE98DFA8DA081B18140FFC0
:1014F00082C0F1E0BF126FC0AF126DC01C96ED91BB
:10150000FC912F813885A4014C0D5D1D69897A8974
:10151000898D9A8D0995EB89FC89F595E7954E2F74
:101520005FEFC51AD50A6D817E818D899E89680F0E
:10153000791F7E836D8398E0C916D10481F6AFEFE1
:101540002A1A3A0AEB81FC81E40DF51DFC83EB833A
:10155000F5E02F16310409F0B3CF2F813885261519
:101560003705B9F0A98DBA8DED91FC91B1E0BB12B0
:1015700057C0AB1255C069817A816B5F7F4F00887D
:10158000F189E02D830128E030E0A401898D9A8D56
:101590000995A98DBA8DED91FC9111970688F7896F
:1015A000E02DCD016A960FB6F894DEBF0FBECDBF19
:1015B000DF91CF911F910F91FF90EF90DF90CF902F
:1015C000BF90AF909F908F907F906F905F904F9063
:1015D0003F902F9009941E96ED91FC91EF80F88436
:1015E00009851A8592014D815E816B817C81898D8F
:1015F0009A8D099590CF2F8138852615370509F4E6
:101600008ACF31E0B31207C0A31205C01C96ED913A
:10161000FC91930178CF1E96ED91FC917301E0CF80
:101620006B857C85641975090684F785E02D730147
:101630000F8518899201A401898D9A8D0995A9CFEA
:10164000F90134969491329745915491D91AB7E0A3
:10165000DB9E400D511D1124F901259134913C8BE5
:101660002B8BFA0125903490FA01329674903196C2
:101670003491398B329664903196449041E04C1508
:1016800018F04A1508F07FC0662D062C000C770B69
:101690007C836B83842D042C000C990B9E838D839B
:1016A000A98DBA8DED91FC9111970284F385E02DFF
:1016B000CD010995512CD12CC12CEA2DF0E0FA87EF
:1016C000E9872B2D30E03C872B87A401440D511D69
:1016D00047FC5A95588F4F8B69817A81660D711D31
:1016E00067FC7A957E876D877989C71608F051CF98
:1016F0002C2D30E04D815E81420F531FA985BA85A4
:101700004A9FC0014B9F900D5A9F900D1124FC01E0
:10171000E80DF91DF88BEF87852D612C4F89588DC9
:10172000420F531F5E8B4D8B671408F050C044244A
:101730004394480E877041F4C1010196EB89FC89FE
:10174000E20DF31DD4901C01D7FE19C0A98DBA8DEE
:10175000ED91FC91662D70E0B1E0BB1219C0AB12A7
:1017600017C02D853E85620F731F0484F585E02D1B
:101770002F8138854D895E89898D9A8D0995DD0C7B
:101780006394842DD1CF1E821D821C821B8288CF40
:101790004B815C81640F751FAB85BC856A9FC0015E
:1017A0006B9F900D7A9F900D112469817A81680F4B
:1017B000791F0684F785E02DEF80F88409851A8566
:1017C0009D014F855889898D9A8D0995D8CF570CE1
:1017D000C3948ACF6A960FB6F894DEBF0FBECDBF12
:1017E000DF91CF911F910F91FF90EF90DF90CF90FD
:1017F000BF90AF909F908F907F906F905F904F9031
:101800003F902F9008958F929F92AF92CF92EF9238
:10181000FF920F931F93CF93DF93EC01262F898DB7
:101820009A8D009709F051C06A30D1F41D861C864C
:101830008D8948E0849F900111248E859F85820FB9
:10184000931F9F878E8781E090E0DF91CF911F915A
:101850000F91FF90EF90CF90AF909F908F90089551
:101860006D3089F3CC88AD888F898823C1F08C8551
:101870009D8536E0C39E800D911D112448855985B4
:101880004817590764F44E855F851D861C8638E02D
:10189000A39EC0011124840F951F9F878E87EA881D
:1018A000FB88088919894E855F856C857D85CE0109
:1018B0000E94DE092C898C859D8546E0249F800D41
:1018C000911D11249D878C87BECF6A3069F41D86D7
:1018D0001C86FC013896E4912D898E859F85E29FB8
:1018E000800D911D1124ADCF6D3009F4ACCFFC01FA
:1018F00034963491631708F4A6CF3296E491E61734
:1019000008F4A1CFFC01329685909490462F431B9A
:10191000342F47E0349F800C911C1124F40132963F
:1019200034913196E4913323A9F1EE2399F1CC88D7
:10193000F4013596E491AD884F89442301F10E2ED0
:10194000000CFF0BE30FF11DCE9EA001CF9E500DAA
:1019500011246C857D85460F571F6885798564172E
:1019600075076CF44E855F851D861C86FC013896D4
:10197000E491AE9E400D511D11245F874E87EA8889
:10198000FB88088919894E855F856C857D85CE0128
:101990000E94DE09F4013496E4912C898C859D85A2
:1019A000E29F800D911D11248DCF6F927F928F92B7
:1019B0009F92AF92BF92CF92DF92EF92FF920F93DE
:1019C0001F93CF93DF93EC016B015A01390148015A
:1019D000E881F9810284F385E02D0995E881F98198
:1019E0000288F389E02D87019301A501B601CE019C
:1019F0000995A501480D591D41505109E881F9810A
:101A00000288F389E02D9301B601CE010995E881A2
:101A1000F9810088F189E02D9401A501B601CE017C
:101A20000995C60CD71CB60161507109E881F9818E
:101A30000088F189E02D9401A501CE010995E88186
:101A4000F9810688F789E02DCE01DF91CF911F91B2
:101A50000F91FF90EF90DF90CF90BF90AF909F904D
:101A60008F907F906F9009946F927F928F929F9248
:101A7000AF92BF92CF92DF92EF92FF920F931F939C
:101A8000CF93DF935C01EB016A01490138018701C3
:101A9000DC01ED91FC916217730719F56416750668
:101AA0002CF0962D872D3A01C92ED82E9601261995
:101AB00037092F5F3F4F048CF58DE02DA301BE0148
:101AC000C5010995DF91CF911F910F91FF90EF9084
:101AD000DF90CF90BF90AF909F908F907F906F904E
:101AE00008954615570591F42617370724F0892DD8
:101AF0004B01C22FD82F9E01281939092F5F3F4F64
:101B0000068CF78DE02DA601B401DACF0284F385AF
:101B1000E02D0995D501ED91FC910488F589E02D22
:101B200083019401A601BE01C5010995D501ED917E
:101B3000FC910688F789E02DC501DF91CF911F91B7
:101B40000F91FF90EF90DF90CF90BF90AF909F905C
:101B50008F907F906F900994EF92FF920F931F9355
:101B6000DC011A960D911C911B9718962D913C91B2
:101B70001997ED91FC9100A0F1A1E02D7B0150E0BF
:101B800040E070E060E009951F910F91FF90EF90A9
:101B900008954F925F926F927F928F929F92AF9231
:101BA000BF92CF92DF92EF92FF920F931F93CF934A
:101BB000DF936C012B015A0139014801DC01ED91E1
:101BC000FC910284F385E02D0995E201640C751CFB
:101BD000D601ED91FC91C615D7055CF40088F1891A
:101BE000E02D87019401A501BE01C601099521964A
:101BF000EFCF0688F789E02DC601DF91CF911F91C5
:101C00000F91FF90EF90DF90CF90BF90AF909F909B
:101C10008F907F906F905F904F9009948F929F92DA
:101C2000AF92BF92CF92DF92EF92FF920F931F93EA
:101C3000CF93DF93EC015B014A016901E881F981EF
:101C40000284F385E02D099595012C0D3D1D215051
:101C50003109E881F9810488F589E02D7801840152
:101C6000A401B501CE010995E881F9810688F789BB
:101C7000E02DCE01DF91CF911F910F91FF90EF905A
:101C8000DF90CF90BF90AF909F908F9009948F92EC
:101C90009F92AF92BF92CF92DF92EF92FF920F93FB
:101CA0001F93CF93DF93EC015B014A016901780137
:101CB000E881F9810284F385E02D0995C80CD91CCF
:101CC000860101501109E881F9810488F589E02D28
:101CD0009501A401B501CE010995E881F981068835
:101CE000F789E02DCE01DF91CF911F910F91FF90E9
:101CF000EF90DF90CF90BF90AF909F908F9009941E
:101D0000EF92FF920F931F93DC01ED91FC9100A0E5
:101D1000F1A1E02D09951F910F91FF90EF9008958B
:101D20000F931F93DC01ED91FC91068CF78DE02D54
:101D300009951F910F9108950F931F93DC01ED9169
:101D4000FC91048CF58DE02D09951F910F9108955C
:101D5000DC01ED91FC910084F185E02D09943F9226
:101D60004F925F926F927F928F929F92AF92BF92AB
:101D7000CF92DF92EF92FF920F931F93CF93DF9357
:101D80005C017B014A016901390187E0680E711C21
:101D900093E0759467949A95E1F72B01400E511EDC
:101DA00010E000E0312CD0E0C0E0CE018770992730
:101DB000330C892B59F4FE0183E0F595E7958A955C
:101DC000E1F7E00FF11FE80DF91D349037FE0AC06E
:101DD00021E030E0A701B5016C0F7D1F86EA93E09A
:101DE0000E94A80E2196CC16DD06F9F68FEFE81AB0
:101DF000F80A060D171DE414F504A9F6DF91CF913A
:101E00001F910F91FF90EF90DF90CF90BF90AF9018
:101E10009F908F907F906F905F904F903F9008952C
:101E20002F923F924F925F926F927F928F929F92EA
:101E3000AF92BF92CF92DF92EF92FF920F931F93D8
:101E4000CF93DF9300D000D000D0CDB7DEB73C01F8
:101E50006A013E832D83FC82EB825801A41AB50AE5
:101E6000B7FE03C0B194A194B1088D809E80861AFC
:101E7000970A97FE03C09194819491088A149B0459
:101E80005CF0902F812F0D811E819D838E839C2D70
:101E90008D2D6B01692F782F0C151D055CF09D8130
:101EA0008E817E836D83692F782F902F812F8601FD
:101EB000C92ED82E1601201A310A2B012D813E8100
:101EC000421A530A57FE03C05194419451087101BC
:101ED00037FE03C03FEFE31AF30AF594E7948D81D0
:101EE0009E81861797075CF5A1E0B0E0BA83A983CD
:101EF000C016D1064CF1D301ED91FC910484F58517
:101F0000E02D2B813C81A8016D817E818A149B0488
:101F10001CF04D815E81B801C3010995E418F508F4
:101F2000F7FE0AC02D813E8189819A81280F391FD1
:101F30003E832D83E20CF31C0F5F1F4FD9CF2FEF91
:101F40003FEF3A832983D4CF26960FB6F894DEBFAD
:101F50000FBECDBFDF91CF911F910F91FF90EF90FA
:101F6000DF90CF90BF90AF909F908F907F906F90B9
:101F70005F904F903F902F900895EF92FF920F93B4
:101F80001F93CF93DF93EC01EC80FD806E157F05EE
:101F90000CF070C057FF04C0240F351F50E040E024
:101FA0008E819F81FA01E20FF31F8E179F071CF4A9
:101FB0009C01241B350B121613060CF05BC0922FEC
:101FC000842F8695869586958E9DD0018F9DB00D28
:101FD00011246A0F7B1FAF8DB8A1A60FB71F4770E2
:101FE00049F188E0841B482F682F70E0FB01E0591D
:101FF000FF4FE491281708F063C0621B71092FEFAF
:1020000030E002C0359527956A95E2F7E22301306A
:10201000110539F0B0F10230110561F58C91E82716
:1020200002C08C91E82BEC93941720F12C813D8118
:10203000A20FB31FE92FE41BE83078F0023011053E
:1020400021F58E2F9C9190959C932C813D81A20F20
:10205000B31F88508830B0F7E770EE2359F0F0E0F6
:10206000E859FF4FE49101301105F9F010F1023009
:10207000110519F1DF91CF911F910F91FF90EF9012
:102080000895E0958C91E823CECF81E001151105EC
:1020900009F480E081959E2F8C932C813D81A20FC5
:1020A000B31F98509830C0F7D7CF8C91E82BEC93A2
:1020B000E1CFE0958C91E823FACF8C91E827F7CF18
:1020C0000130110509F4ADCFE0F20230110509F439
:1020D000A5CFAE0DBF1DAECF0F931F93CF93DF9350
:1020E00077FF04C0260F371F70E060E0DC01149614
:1020F000CD91DC91FB01E20FF31FCE17DF071CF43B
:102100009E01261B370B121613064CF5FA0157FDDC
:102110003796A3E0F595E795AA95E1F7EC9FD001F6
:10212000ED9FB00DFC9FB00D11246A0F7B1FDC01E9
:102130005F96ED91FC91E60FF71F4770552781E000
:1021400090E001C0880F4A95EAF7482F0130110549
:1021500059F0A8F02E0F3F1F02301105E1F0DF917A
:10216000CF911F910F9108952E0F3F1FE217F30794
:10217000B1F38191DF011197842B8C93F7CF809578
:102180002E0F3F1FE217F30751F39191DF011197D3
:1021900098239C93F7CFE217F30709F38191DF01AE
:1021A000119784278C93F7CF0F931F93FA01DC01CB
:1021B00056964C9156974230E9F04330A1F14130A8
:1021C00061F514964D915C91DA01AE1BBF0BFD01D8
:1021D000E21BF30B77FD0BC0DC0116964D915C9171
:1021E0006417750724F4AB01BF010E946C101F91A6
:1021F0000F91089514964D915C91DA01A61BB70BCF
:10220000BD0161507109DC0116964D915C91DA01B6
:10221000AE1BBF0BFD01E21BF30B77FDE8CFAF0157
:102220000E94BD0FE4CF16964D915C91DA01A61B7A
:10223000B70BBD0161507109CDCF0F931F93FA0108
:10224000DC0156964C9156974230A9F0433091F1FB
:10225000413019F514964D915C91DA01AE1BBF0B1C
:10226000FD013197F7FD04C0AB01BF010E94BD0F16
:102270001F910F91089514964D915C91DA01A61B60
:10228000B70BBD01DC0116964D915C91DA01AE1BD6
:10229000BF0BFD013197621B730BF7FDE9CFDC012A
:1022A00016964D915C91E417F50714F7AF010E9463
:1022B0006C10DECF16964D915C91DA01A61BB70B20
:1022C000BD01621B730BCECFFC0177FD64C080851E
:1022D0009185681779070CF05EC057FD5CC0828558
:1022E0009385481759070CF056C086898230B1F0A3
:1022F000833029F1813041F484819581841B950BD1
:10230000AB01BC01615071092130310509F108F4BC
:1023100043C02230310509F463C00895848195815A
:10232000DC01A61BB70BBD01615071098681978145
:10233000DC01A41BB50BAD0141505109E5CF8681ED
:102340009781861B970BBA01AC0141505109DCCF34
:10235000CA0157FD0796A3E095958795AA95E1F7E1
:10236000A481B5818A9F90018B9F300D9A9F300D7B
:102370001124620F731F078CF0A1E02DE60FF71FE9
:102380004770552721E030E001C0220F4A95EAF757
:102390008081822B80830895CA0157FD079633E020
:1023A000959587953A95E1F7A481B5818A9F90012B
:1023B0008B9F300D9A9F300D1124620F731F078C75
:1023C000F0A1E02DE60FF71F4770552781E090E060
:1023D00001C0880F4A95EAF7809590818923DACF6A
:1023E000CA0157FD079623E0959587952A95E1F751
:1023F000A481B5818A9F90018B9F300D9A9F300DEB
:102400001124620F731F078CF0A1E02DE60FF71F58
:102410004770552721E030E001C0220F4A95EAF7C6
:1024200080818227B7CF08958EBD00000DB407FECE
:10243000FDCF8EB50895FF920F931F93CF93DF9337
:10244000F82ED92FC62F8091C3039091C403892BF6
:1024500009F447C08091C7030E946C058091C303B3
:102460009091C403DC01ED91FC910190F081E02D8D
:1024700060E009950F2D1D2FD1E0C1508091C3035D
:102480009091C403CF3F31F1D03298F00E94E1081F
:102490008091C7030E946C058091C3039091C4038F
:1024A000DC01ED91FC910190F081E02D60E0099557
:1024B000D1E08091C3039091C403F8016491DC01E1
:1024C000ED91FC910190F081E02D0995DF5F0F5FA8
:1024D0001F4FD3CFDF91CF911F910F91FF900C949D
:1024E000E108E091D303F091D40390818091D90366
:1024F0008095892380830F2D1D2FC15008F438C08B
:10250000F80184912091C1033091C203232B29F05B
:102510000E9414120F5F1F4FF0CF28E030E040E818
:10252000E091CF03F091D0039091D703582F54231B
:10253000D9F05081952B9083E091D103F091D20393
:1025400090815091D803952B9083E091D103F09125
:10255000D20350819091D80390959523908346950E
:1025600021503109E9F6D6CF508190959523E3CFDC
:10257000DF91CF911F910F91FF9008951F93CF93FB
:10258000DF93EC018D8D9E8D892BF9F0162F89A19B
:102590000E946C058D8D9E8DDC01ED91FC9101906A
:1025A000F081E02D60E009958D8D9E8DDC01ED912F
:1025B000FC910190F081E02D612F09958D8D9E8D0C
:1025C000DF91CF911F910C94E108ADA5BEA59C9120
:1025D0008BA9809589238C938B8D9C8D892B31F0D1
:1025E000862FDF91CF911F910C94141228E030E0D8
:1025F00080E8A9A5BAA599A9462F4823C1F04C9116
:10260000942B9C93ABA5BCA59C914AA9942B9C931D
:10261000ABA5BCA54C919AA9909594239C938695C3
:102620002150310931F7DF91CF911F9108954C91DD
:1026300090959423E6CF8CBD9DBD08951F93CF93B5
:10264000DF93EC01162F8D8D9E8D892BB1F12DA975
:102650003EA94FA958AD60E074E284EF90E00E947B
:10266000A3212051310941095109569547953795C4
:1026700027952093B80066EA111167EACE010E94FF
:10268000BE128D8D9E8D892B41F129AD3AAD4BAD9A
:102690005CAD60E074E284EF90E00E94A3212051E1
:1026A000310941095109569547953795279520934A
:1026B000B800DF91CF911F9108958B8D9C8D892B50
:1026C00021F08EAD9FAD0E941B13EFA5F8A990815C
:1026D0008CA9809589238083CECFEFA5F8A980812E
:1026E0009CA9892B8083E5CF0F931F93CF93DF9312
:1026F000182FD0E0C0E28C2F0E946C058AE993E08D
:102700000E94E108082F61E070E080E090E00E9404
:102710001607011103C01D17E1F0DF5FCF5FC8325C
:1027200051F7C8E38C2F0E946C058AE993E00E9460
:10273000E108082F61E070E080E090E00E94160759
:10274000011103C01D1729F0DF5FCF5FC03451F7BF
:10275000C0E08C2FDF91CF911F910F910895CF93FF
:10276000FC01C4A560FF02C086A1C82B61FF02C0A6
:1027700087A1C82B62FF02C080A5C82B63FF02C0DF
:1027800081A5C82B4130510511F483A1C82B85A127
:102790008C2B90E00E94DC086C2F8AE993E0CF91AB
:1027A0000C94AD08CF93DF93EC018AA5882359F1EF
:1027B0009BA5662321F1913021F58CA788A10E9469
:1027C0006C0589A19AA1029721F489E090E00E940A
:1027D000DC086CA58AE993E00E94AD088AE993E0E1
:1027E0000E94E10821E030E0811102C030E020E0E9
:1027F00088279927821B930BDF91CF910895992306
:10280000E1F21CA6DBCF8DEF9FEFF6CF4F925F92E8
:102810006F927F928F929F92AF92BF92EF92FF92B0
:102820001F93CF93DF93EC0188A1882309F45BC049
:1028300089A19AA1892B09F456C0142F7B014C8CD5
:102840005D8C6E8C7F8C888C998CAA8CBB8C8DE275
:10285000881A9108A108B1080E94F106681979093F
:102860008A099B096415750586059705A8F388A153
:102870000E946C0589A19AA1029721F489E090E059
:102880000E94DC08612F70E084E0759567958A9559
:10289000E1F7A701CE010E94AF1382E0E816F10430
:1028A00031F0612F6F70A701CE010E94AF138AE94A
:1028B00093E00E94E10821E030E0811102C030E0A5
:1028C00020E088279927821B930BDF91CF911F91DE
:1028D000FF90EF90BF90AF909F908F907F906F9000
:1028E0005F904F9008958CEF9FEFEFCF8DEF9FEFAC
:1028F00008958DEF9FEF089590E080E0089508958A
:10290000CF92DF92EF92FF920F931F93CF93C82F36
:102910000E94F1066B017C018091D102811164C09B
:1029200081E08093D1028093D0029FEF9093CF02F9
:102930001092CE021092CD028093CC028091CC02F4
:10294000CC0FC82BC093CC028091CB02813009F010
:102950007DC01092CB020E94F1066B017C01809138
:10296000CC028093BB008091D3029091D402A091BD
:10297000D502B091D602892B8A2B8B2BA1F00E9415
:10298000F1060091D3021091D4022091D50230912A
:10299000D6026C197D098E099F09061717072807AB
:1029A000390708F442C08091BC0083FDD8CF85EC84
:1029B0008093BC000E94F1066B017C018091D102E2
:1029C000813009F445C08091CE02811163C08091AD
:1029D000CE02EBEAF2E0A9EDB2E090E0981751F1F7
:1029E00021912D939F5FFACF8091D3029091D402D1
:1029F000A091D502B091D602892B8A2B8B2B09F49A
:102A00008BCF0E94F1060091D3021091D402209145
:102A1000D5023091D6026C197D098E099F090617DF
:102A200017072807390708F077CF8091D2020E9454
:102A3000360880E01092D8028093D702CF911F9180
:102A40000F91FF90EF90DF90CF90089585EEB0CF7B
:102A50008091D3029091D402A091D502B091D60278
:102A6000892B8A2B8B2B09F4A9CF0E94F1060091A8
:102A7000D3021091D4022091D5023091D6026C1964
:102A80007D098E099F09061717072807390708F0DF
:102A900095CFCBCF81E09DCF4F925F926F927F9287
:102AA0008F929F92AF92BF92EF92FF920F931F93DC
:102AB000CF93DF93EC011CA588A1882309F4EDC016
:102AC00089A19AA1009709F4E8C0029709F4E8C027
:102AD0008CA1882309F4E4C07B014C8C5D8C6E8C46
:102AE0007F8C888C998CAA8CBB8C8DE2881A91087B
:102AF000A108B1080E94F106681979098A099B09A1
:102B00006415750586059705A8F38EA1182B8FA16E
:102B1000182B88A5182B89A5182BEA94EF2811F4F7
:102B20008BA1182B8CA1182B88A10E946C05612FFA
:102B30008AE993E00E94AD088AE993E00E94E108E7
:102B4000882311F10FEF1FEF88A10E946C056CA57F
:102B50008AE993E00E94AD088AE993E00E94E108C7
:102B6000882311F00FEF1FEFC801DF91CF911F9164
:102B70000F91FF90EF90BF90AF909F908F907F90BC
:102B80006F905F904F90089588A10E946C058DA171
:102B9000812B90E00E94DC088AE993E00E94E10822
:102BA0008111D0CF88A190E00E9480148AE993E03F
:102BB0000E9466087C0197FDC5CF88A10E946C0524
:102BC000612F8AE993E00E94AD088AE993E00E94B0
:102BD000E108082F8111B6CF8EA190E08E219F21B0
:102BE000892B09F000E18FA190E08E219F21892B94
:102BF00009F0006288A590E08E219F21892B09F0C1
:102C0000006489A590E08E219F21892B09F000683E
:102C100088A10E946C058DA1812B90E00E94DC08A8
:102C20008AE993E00E94E10881118CCF88A190E0AD
:102C30000E9480148AE993E00E9466087C0197FD57
:102C400081CF88A10E946C05612F8AE993E00E94E0
:102C5000AD088AE993E00E94E108811173CF8EA14B
:102C600090E08E219F21892B09F001608FA190E0D7
:102C70008E219F21892B09F0026088A590E08E218A
:102C80009F21892B09F0046089A590E08E219F2166
:102C9000892B09F0086010E057CF0CEF1FEF64CFCD
:102CA0000DEF1FEF61CF0F931F93CF93DF93EC01D5
:102CB0001092D8021092D7021092FA021092F902E2
:102CC0000E94180886E995E090932A0280932902D1
:102CD00087E995E0909328028093270288A18111CB
:102CE00088C08091B80191E0980F9093B8010E943C
:102CF000741388A388A1811109C08091B80191E063
:102D0000980F9093B8010E94741388A318A11123FF
:102D100009F478C089A19AA1892B09F033C1812FC8
:102D20000E946C0560E08AE993E00E94AD086FEFB5
:102D30008AE993E00E94AD088AE993E00E94E108E5
:102D4000812F0E946C0560E08AE993E00E94AD0843
:102D50008AE993E00E94E108812F90E00E948014AC
:102D60008AE993E00E9466088F3F910509F051C0FF
:102D700082E090E09AA389A388A10E946C0560E09C
:102D80008AE993E00E94AD088FEF90E00E94DC0892
:102D90008AE993E00E94E10888A10E946C0586E020
:102DA00090E00E94DC088FE790E00E94DC088AE94E
:102DB00093E00E94E10888A10E946C0589E090E000
:102DC0000E94DC088AE993E00E94E10888A190E073
:102DD0000E9480148AE993E00E9466088F3709F008
:102DE00010C127E036E045E054E063E072E0E1E046
:102DF00013C10E946C058AE993E00E94E1088823D0
:102E000009F478CF8CEF9FEFDF91CF911F910F9155
:102E10000895892B29F01AA219A28FEF9FEFF4CF02
:102E200081E090E09AA389A388A10E946C056FEFCE
:102E30008AE993E00E94AD088AE993E00E94E108E4
:102E400088A190E00E9480148AE993E00E946608BD
:102E50008C0188A10E946C056BEF8AE993E00E94C7
:102E6000AD088AE993E00E94E10888A190E00E9401
:102E700080148AE993E00E9466089801277033273E
:102E80002730310509F04DC0807F9927803F91059B
:102E900009F047C083E0169507958A95E1F761E050
:102EA0000627017043E057E066E075E0E4E022E0C9
:102EB000F1E030E081E090E0DC0101C0AA0F3A953A
:102EC000EAF7ABA3DC0101C0AA0FFA95EAF7ACA3BD
:102ED000DC0102C0AA0FBB1F2A95E2F7ADA39C013B
:102EE00001C0220FEA95EAF72EA39C0101C0220F30
:102EF0007A95EAF72FA39C0101C0220F6A95EAF7A1
:102F000028A79C0101C0220F5A95EAF729A701C002
:102F1000880F4A95EAF78AA70BA7013091F58CA78D
:102F200031C0C801807799278037910519F08DEF5E
:102F30009FEF6ACF88A10E946C056FEE8AE993E04B
:102F40000E94AD088AE993E00E94E10888A190E020
:102F50000E9480148AE993E00E9466088F70992786
:102F600026E034E00F9711F424E036E00095001FCE
:102F70000027001F47E053E062E071E0E0E0F5E089
:102F800099CF1CA688A10E946C0589A19AA10297DD
:102F900021F585E090E00E94DC0880E290E00E944C
:102FA000DC088AE993E00E94E10888A10E946C0590
:102FB00060E08AE993E00E94AD0860E08AE993E06E
:102FC0000E94AD088AE993E00E94E10888A10E946E
:102FD0006C0589E090E00E94DC0860E08AE993E0FB
:102FE0000E94AD088AE993E00E94E10821E030E008
:102FF000811102C030E020E088279927821B930BC3
:1030000003CF86FF3BC081FD92CF21E032E043E059
:1030100054E065E076E0E7E081E090E0DC0102C0AA
:10302000AA0FBB1FEA95E2F7ABA31CA2FC0101C0EB
:10303000EE0F7A95EAF7EDA3FC0102C0EE0FFF1F39
:103040006A95E2F7EEA3BC0101C0660F5A95EAF754
:103050006FA3BC0102C0660F771F4A95E2F768A70D
:10306000AC0101C0440F3A95EAF749A701C0880FA7
:103070002A95EAF78AA791E09BA751CF26E033E093
:1030800042E051E060E077E0E4E0C6CF2091AC039D
:103090003091AD03C901079697FD079623E09595FA
:1030A00087952A95E1F72091AA033091AB03829F7F
:1030B000A001839F500D929F500D112470E060E09D
:1030C0008091C5039091C6030C94CA23FB01019023
:1030D0000020E9F73197AF01461B570B0C94980578
:1030E0000E94BC23EF92FF920F931F93CF93DF9325
:1030F000EC017B018A0188819981009729F02A815E
:103100003B812417350788F4B8016F5F7F4F0E9419
:10311000FF22009791F0998388831B830A832C8177
:103120003D81232B11F4FC0110821D830C83B70118
:10313000888199810E94D1230CC088819981009750
:1031400011F00E947622198218821D821C821B8235
:103150001A82CE01DF91CF911F910F91FF90EF90D6
:10316000089585ED8093BC008091D3029091D402A4
:10317000A091D502B091D6020796A11DB11D23E002
:10318000B695A795979587952A95D1F72091BC007C
:1031900024FD03C01092D10208954091D3025091B2
:1031A000D4026091D5027091D602452B462B472B55
:1031B00069F30097A105B10541F025E32A95F1F7E0
:1031C00000000197A109B109E1CF8091D2020C94CE
:1031D00036081F920F920FB60F9211242F933F9330
:1031E0004F935F936F937F938F939F93AF93BF930F
:1031F000EF93FF938DEF92E00E941606FF91EF91FF
:10320000BF91AF919F918F917F916F915F914F91FE
:103210003F912F910F900FBE0F901F9018951F9206
:103220000F920FB60F9211242F938F939F93EF93CA
:10323000FF93E0910D03F0910E038081E091130361
:10324000F091140382FD1BC09081809116038F5F63
:103250008F7320911703821741F0E0911603F0E07D
:10326000E350FD4F958F80931603FF91EF919F914F
:103270008F912F910F900FBE0F901F901895808106
:10328000F4CF1F920F920FB60F9211242F933F93FA
:103290008F939F93AF93BF9380911E0290911F02D3
:1032A000A0912002B091210230911D0223E0230F52
:1032B0002D3758F50196A11DB11D20931D02809355
:1032C0001E0290931F02A0932002B09321028091CE
:1032D000220290912302A0912402B091250201962E
:1032E000A11DB11D8093220290932302A09324027A
:1032F000B0932502BF91AF919F918F913F912F91F4
:103300000F900FBE0F901F90189526E8230F02967E
:10331000A11DB11DD2CF1F920F920FB60F92112493
:103320002F933F934F935F936F937F938F939F93CD
:10333000AF93BF93EF93FF938091B900887F80365E
:1033400009F44AC0F0F5883209F4A7C018F58031B5
:1033500009F49BC0B8F4882309F4F9C0883009F453
:1033600094C0FF91EF91BF91AF919F918F917F9109
:103370006F915F914F913F912F910F900FBE0F90E2
:103380001F901895883109F488C0803251F78093D6
:10339000CF0214C0803409F49DC040F48033B9F3E7
:1033A0008833F9F68093CF0285ECB0C0803509F4FC
:1033B00085C0883509F496C0883499F60E94B11802
:1033C000D0CF883909F48CC038F5883729F050F40B
:1033D000883611F0803729F683E08093D10210926D
:1033E0001C0257C0883809F47BC0803919F0803836
:1033F00009F0B7CF80911C02803208F071C0E091D3
:103400001C0281E08E0F80931C028091BB00F0E0D3
:10341000E450FE4F80833DC0803B39F0E0F4803AB9
:1034200009F479C0883A09F09CCF84E08093D102F6
:103430001092FB011092FA01E0912902F0912A0208
:1034400009958091FA0181110FC081E08093FA0102
:103450001092DA0109C0803C09F4A6CF883C09F437
:10346000A3CF883B09F07DCFE091FB0181E08E0F77
:103470008093FB01F0E0E652FE4F80818093BB0019
:103480009091FB018091FA0129C08091CC02809338
:10349000BB0085EC8093BC0064CF9091CE028091FC
:1034A000CD02981758F5E091CE0281E08E0F8093FF
:1034B000CE02F0E0E555FD4F8081E9CFE091CE02EC
:1034C00081E08E0F8093CE028091BB00F0E0E55545
:1034D000FD4F80839091CE028091CD029817C8F263
:1034E00085E8D8CFE091CE0281E08E0F8093CE02A6
:1034F0008091BB00F0E0E555FD4F80838091D002C4
:1035000081115CCF81E08093CB0284EA8093BC0080
:103510001092D10226CF85EC8093BC001092D1028C
:1035200080911C02803230F4E0911C02F0E0E45003
:10353000FE4F108260911C0270E0E0912702F09132
:1035400028028CEF91E0099510921C020ACF10928C
:10355000CF0234CF0F931F93CF93DF93EDEFF2E0C1
:103560001382128288EE93E0A0E0B0E0848395831A
:10357000A683B7832AE031E03183208325EC30E055
:103580003587248724EC30E03787268720EC30E02D
:10359000318B208B21EC30E0338B228B22EC30E01E
:1035A000358B248B26EC30E0378B268B118E128ED8
:1035B000138E148E0AE913E0F801138212828483B9
:1035C0009583A683B7838CE191E091838083C6EED7
:1035D000D3E01B821A828AE591E0998388831F8257
:1035E000188680ED97E0A0E0B0E0888B998BAA8BDD
:1035F000BB8B86E290E0A0E0B0E08C8B9D8BAE8B25
:10360000BF8B1C861D861E861F861B860E94F106A8
:10361000688F798F8A8F9B8F1C8E1D8E1E8E1F8EBA
:1036200080E791E09983888382E090E09AA389A360
:1036300080E288A390E89BA31CA290E49DA38EA3A4
:1036400080E18FA388E088A784E089A792E09AA709
:1036500081E08BA79CA7E6EAF3E01382128240E8A0
:1036600050E05583448320E230E03783268351873E
:10367000408733872287168A158614861786168612
:10368000858B848B2FEF3FEF338B228B318B208BFD
:10369000878B108E128E118E8EE291E09183808343
:1036A000148E138E168F058F10A2178E8FEF84A3A2
:1036B00085A386A387A310A680E586AF17AEDF910A
:1036C000CF911F910F910895CF93DF93CDB7DEB7C0
:1036D000E9970FB6F894DEBF0FBECDBF789484B5DE
:1036E000826084BD84B5816084BD85B5826085BDFE
:1036F00085B5816085BD80916E00816080936E008C
:10370000109281008091810082608093810080917D
:10371000810081608093810080918000816080932E
:1037200080008091B10084608093B1008091B000EE
:1037300081608093B00080917A00846080937A00E9
:1037400080917A00826080937A0080917A00816013
:1037500080937A0080917A00806880937A0010923A
:10376000C100E0910D03F0910E0382E08083E091AF
:103770000903F0910A031082E0910B03F0910C030E
:103780008FEC808310921503E0911103F0911203E6
:1037900086E08083E0910F03F091100380818061C7
:1037A0008083E0910F03F091100380818860808313
:1037B000E0910F03F0911003808180688083E09195
:1037C0000F03F091100380818F7D80838091F2033D
:1037D00081110CC08091F303811108C08091F40322
:1037E000811104C08091F503882321F08091ED03BD
:1037F0008F7E59F01092F20380E48093F30380E10E
:103800008093F40380E58093F50382E08093EE03D8
:1038100080E18093ED0364E670E080E090E00E9438
:1038200016071092EA0386EE93E00E945316892B46
:1038300009F05CC08091EE03823028F08091EA03A9
:1038400088608093EA0340E362E070E086EE93E0F4
:103850000E94061465E070E080E090E00E94160788
:1038600040E362E070E086EE93E00E94061461E0BF
:1038700070E080E090E00E94160740E362E070E0B4
:1038800086EE93E00E94061461E070E080E090E034
:103890000E9416078091EA0384FD07C040E262E0BF
:1038A00070E086EE93E00E9406146091EA03606285
:1038B00086EE93E00E94480784E08093EB036CE07F
:1038C00086EE93E00E94480761E086EE93E00E9456
:1038D000480782E08093EC0366E086EE93E00E9466
:1038E00048076FEF86EE93E00E94D2138091E803C1
:1038F0009091E9039C838B838091EA038D8380916F
:10390000EB038E838091EC038F838091ED03888796
:103910008091EE0389878091EF038A878091F0037D
:103920008B878091F1038C878091F2039091F30350
:10393000A091F403B091F5038D879E87AF87B88B74
:103940008091F6039091F703A091F803B091F903E9
:10395000898B9A8BAB8BBC8B8091FA039091FB0384
:10396000A091FC03B091FD038D8B9E8BAF8BB88F24
:103970008091FE039091FF03A0910004B091010497
:10398000898F9A8FAB8FBC8F809102049091030432
:10399000A0910404B09105048D8F9E8FAF8FB8A3C2
:1039A00080E791E09A8389838091060489A38091BE
:1039B0000704909108049BA38AA3809109048CA317
:1039C00080910A048DA380910B048EA380910C0436
:1039D0008FA380910D0488A780910E0489A7809100
:1039E0000F048AA7809110048BA7809111048CA7E3
:1039F000809112048DA71DAA1CAA1FAA1EAA19AE87
:103A000018AE4CE050E062E871E0CE01C4960E942E
:103A100072181FA61EA619AA18AA1BAA1AAA46E05F
:103A200050E06FE871E0CE018E960E94721861E05E
:103A3000CE0101960E94480760E0CE0101960E94E7
:103A4000800766E971E0CE0101960E94661861E088
:103A5000CE0101960E94800710E000E050E1E52EC3
:103A6000F12C88AD99AD9701281B390BC9019695AA
:103A700087950817190748F466EB71E0CE010196A7
:103A80000E9466180F5F1F4FECCF62E871E0CE0115
:103A900001960E94661864EC79E080E090E00E9454
:103AA000160761E0CE0101960E94800767EA71E087
:103AB000CE0101960E94661861E0CE0101960E9437
:103AC000800710E000E030E1E32EF12C8AA99BA9E9
:103AD000A701481B590BCA01969587950817190726
:103AE00048F466EB71E0CE0101960E9466180F5F04
:103AF0001F4FECCF6FE871E0CE0101960E9466186F
:103B000064EC79E080E090E00E94160761E0CE016D
:103B100001960E94480764E670E080E090E00E9411
:103B200016078EA59FA5009711F00E9476228CA9FA
:103B30009DA9009711F00E9476228091C503909173
:103B4000C603892B11F10E9446182091AC033091D5
:103B5000AD038091AA039091AB03213231050CF0A3
:103B600027C1B9016052710977FF02C06F5F7F4FB3
:103B7000759567958357910997FD019600E210E0CE
:103B800023E730E04EE955E026C12091AC033091A7
:103B9000AD03C901079697FD0796B3E09595879504
:103BA000BA95E1F72091AA033091AB03DC01A29F03
:103BB000C001A39F900DB29F900D11240E94DA21A5
:103BC0009093C6038093C503892B09F0BCCF0E9454
:103BD0004618EBE2F2E01192B2E0EB3AFB07D9F7BC
:103BE000E1E42E2E88248394FCEF9F2EAA24AA942D
:103BF000BA2CC12CA4E2DA2EA4EFEA2EF12CB0E00C
:103C00004B2EB0E05B2EEBE2F2E0818181932AEA59
:103C100032E02E173F07C9F720927C0080917A008E
:103C2000806480937A0080917A0086FDFCCF809139
:103C3000780020917900322F282F032E000C440B9E
:103C4000550B2F5F334041095109AFE3B0E00E94AB
:103C50006121A50194010E9442212093AA020E94A1
:103C600046187BE2672E72E0772E10E000E0D30169
:103C70004D913D01042E000C550B21E030E0B801C0
:103C800086EA93E00E9464110F5F1F4F0038110510
:103C900071F78091C3039091C403892B09F454C236
:103CA0002091DB033091DC034091DD035091DE0372
:103CB000C701B6010E94A3212051310941095109D0
:103CC00056954795379527952093B80065E08EE384
:103CD0009AE00E941B126091AA03615086EA93E069
:103CE0000E94BE122091AC033091AD03C90107962A
:103CF00097FD079623E0959587952A95E1F7209102
:103D0000AA033091AB03829F3001839F700C929F76
:103D1000700C11240091C5031091C6038091C30358
:103D20009091C403600E711E892B09F44FC28091DB
:103D3000C7030E946C058091C3039091C403DC010A
:103D4000ED91FC910190F081E02D60E40995332420
:103D500033948091C3039091C4036016710609F4F3
:103D60000AC2BFE1B315A0F40E94E1088091C70325
:103D70000E946C058091C3039091C403DC01ED9116
:103D8000FC910190F081E02D60E409953324339497
:103D90008091C3039091C403F80161918F01DC010C
:103DA000ED91FC910190F081E02D09953394D1CFF4
:103DB000B9016054710977FF02C06F5F7F4F75953D
:103DC00067958255910997FD019600E410E022E580
:103DD00030E04EE757E0959587950E94AF0E82E060
:103DE0008093C8038091C3039091C403892B09F485
:103DF000BDC08CE38093C7031092D8021092D70203
:103E00001092FA021092F9020E94180886E995E0D1
:103E100090932A028093290287E995E090932802E3
:103E2000809327028091C3039091C403892B09F4E6
:103E300054C12091DB033091DC034091DD035091AC
:103E4000DE0360E074E284EF90E00E94A321205141
:103E50003109410951095695479537952795209382
:103E6000B80064E08AE995E00E941B126091AC03FF
:103E7000615086EA93E00E94BE1264E086E995E014
:103E80000E941B128091C80360E1813009F064E157
:103E900086EA93E00E94BE1264E082E995E00E9407
:103EA0001B128FE88093E3038091AA039091AB03E8
:103EB0008038910509F02AC18091AC039091AD033F
:103EC0008034910509F032C18091C803813009F036
:103ED0001BC18FE98093E30312E16AED86EA93E068
:103EE0000E94BE12612F86EA93E00E94BE1261E832
:103EF00086EA93E00E94BE126091E30386EA93E0B3
:103F00000E94BE1269ED86EA93E00E94BE12809183
:103F1000C80362E2813009F061EF86EA93E00E9413
:103F2000BE1266E08CE895E00E941B128091C303EC
:103F30009091C403892B09F4FDC02091DF033091D7
:103F4000E0034091E1035091E20360E074E284EF0A
:103F500090E00E94A3212051310941095109569551
:103F60004795379527952093B80031CE8091CC03A3
:103F70000E9476058091CD030E9476058091CC0346
:103F8000082E000C990BFC01E95AF54FE491F0E082
:103F9000EE0FFF1FED5BF54F259134913093D40365
:103FA0002093D303FC01E559F54FE491E093D90345
:103FB0008091CD03082E000C990BFC01E95AF54FB6
:103FC000E491F0E0EE0FFF1FED5BF54FA591B4918A
:103FD000B093D603A093D503FC01E559F54FE491C6
:103FE000E093DA038C91E82BEC938091C1039091DC
:103FF000C203892B89F11FB7F894809126028111A1
:1040000024C0E1E6FAE08491E5E7FAE09491E82F34
:10401000F0E0EE0FFF1FE35BF54FA591B491EC913B
:10402000E92321F461E08AE00E94A5068AE00E946B
:1040300076058CB580618CBD8CB580648CBD8DE0BF
:104040000E9476058BE00E947605809126028F5FA4
:10405000809326021FBFE6CE8091CA030E94760598
:104060008091CB030E9476058091CA03082E000C34
:10407000990BFC01E95AF54FE491F0E0EE0FFF1FB8
:10408000ED5BF54F259134913093D0032093CF030E
:10409000FC01E559F54FE491E093D7038091CB0300
:1040A000082E000C990BFC01E95AF54FE491F0E061
:1040B000EE0FFF1FED5BF54FA591B491B093D203C6
:1040C000A093D103FC01E559F54FE491E093D803A7
:1040D0008C91E095E823EC93A5CE8091C10390915B
:1040E000C203892B31F08091E4039091E5030E9493
:1040F0001B13E091D503F091D60390818091DA03F0
:10410000809589238083ADCE8FECE4CE80369105F7
:1041100069F48091AC039091AD03409739F480919C
:10412000C803813029F480E18093E30312E0D5CE07
:104130008FEAFACFE091D503F091D6038081909178
:10414000DA03892B808343CD8091C1039091C20310
:10415000892B31F08091E4039091E5030E941B13B9
:10416000E091D503F091D60390818091DA03809598
:1041700089238083ABCD0E94E1088091C303909195
:10418000C403892B09F465C02091DF033091E0035B
:104190004091E1035091E203C701B6010E94A321BF
:1041A0002051310941095109569547953795279571
:1041B0002093B8004114510409F425CD0E94020651
:1041C000882309F420CD0E9400001DCDE091D30387
:1041D000F091D40380819091D903892B808360165C
:1041E000710659F2F80181918F012091C10330913C
:1041F000C203232B19F00E941412F1CF28E030E003
:1042000040E8E091CF03F091D0039091D703542F71
:104210005823D9F05081952B9083E091D103F091F0
:10422000D20390815091D803952B9083E091D103D4
:10423000F091D20350819091D8039095952390836B
:10424000469521503109E9F6CACF508190959523C2
:10425000E3CFE091D503F091D60380819091DA030A
:10426000892B8083A7CF8EE291E09093A703809360
:10427000A6038091C5039091C603009711F00C949A
:1042800076220895052E97FB1EF400940E94592172
:1042900057FD07D00E94A32107FC03D04EF40C94D5
:1042A000592150954095309521953F4F4F4F5F4F85
:1042B000089590958095709561957F4F8F4F9F4F92
:1042C00008950E94C521A59F900DB49F900DA49FB5
:1042D000800D911D112408952F923F924F925F926D
:1042E0006F927F928F929F92AF92BF92CF92DF9206
:1042F000EF92FF920F931F93CF93DF93CDB7DEB76B
:10430000CA1BDB0B0FB6F894DEBF0FBECDBF0994FE
:104310002A88398848885F846E847D848C849B8455
:10432000AA84B984C884DF80EE80FD800C811B8163
:10433000AA81B981CE0FD11D0FB6F894DEBF0FBE92
:10434000CDBFED010895A1E21A2EAA1BBB1BFD01F2
:104350000DC0AA1FBB1FEE1FFF1FA217B307E40764
:10436000F50720F0A21BB30BE40BF50B661F771FBC
:10437000881F991F1A9469F760957095809590959C
:104380009B01AC01BD01CF010895A29FB001B39F75
:10439000C001A39F700D811D1124911DB29F700D4E
:1043A000811D1124911D0895EE0FFF1F0590F491BA
:1043B000E02D09940F931F93CF93DF9382309105E3
:1043C00010F482E090E0E0911504F091160430E0E2
:1043D00020E0B0E0A0E0309799F42115310509F410
:1043E0004AC0281B390B24303105D8F58A819B81BE
:1043F0006115710589F1FB0193838283FE0111C070
:10440000408151810281138148175907E0F0481714
:10441000590799F4109761F012960C93129713961E
:104420001C933296CF01DF91CF911F910F91089588
:104430000093150410931604F4CF2115310551F0A3
:104440004217530738F0A901DB019A01BD01DF01D2
:10445000F801C1CFEF01F9CF9093160480931504B2
:10446000CDCFFE01E20FF31F8193919322503109CA
:1044700039832883D7CF2091130430911404232B40
:1044800041F42091020130910301309314042093F0
:10449000130420910001309101012115310541F4EF
:1044A0002DB73EB74091040150910501241B350BF7
:1044B000E0911304F0911404E217F307A0F42E1B0B
:1044C0003F0B2817390778F0AC014E5F5F4F241778
:1044D000350748F04E0F5F1F5093140440931304A8
:1044E000819391939FCFF0E0E0E09CCFCF93DF9357
:1044F0000097E9F0FC01329713821282A091150413
:10450000B0911604ED0130E020E01097A1F4208175
:104510003181820F931F20911304309114042817C6
:10452000390709F061C0F0931404E0931304DF919C
:10453000CF910895EA01CE17DF07E8F54A815B8144
:104540009E0141155105B1F7E901FB83EA834991C9
:104550005991C40FD51FEC17FD0761F4808191813B
:104560000296840F951FE901998388838281938144
:104570009B838A83F0E0E0E012968D919C911397E3
:104580000097B9F52D913C911197CD010296820FBC
:10459000931F20911304309114042817390739F61A
:1045A000309751F51092160410921504B09314042C
:1045B000A0931304BCCFD383C28340815181840F65
:1045C000951FC817D90761F44E5F5F4F88819981A5
:1045D000480F591F518340838A819B819383828333
:1045E0002115310509F0B0CFF0931604E0931504BE
:1045F0009ECFFD01DC01C0CF13821282D7CFB0E085
:10460000A0E0E5E0F3E20C946E218C01009751F4F8
:10461000CB010E94DA218C01C801CDB7DEB7E0E101
:104620000C948A21FC01E60FF71F9C0122503109EE
:10463000E217F30708F49DC0D901CD91DC911197E1
:10464000C617D70798F0C530D10530F3CE010497CF
:104650008617970708F3C61BD70B2297C193D193F0
:104660006D937C93CF010E947622D6CF5B01AC1A6A
:10467000BD0A4C018C0E9D1EA0911504B09116042C
:10468000512C412CF12CE12C109731F58091130421
:10469000909114048815990509F05CC046165706D8
:1046A00008F058C08091000190910101009741F4F9
:1046B0008DB79EB74091040150910501841B950B65
:1046C000E817F90708F055C0F0931404E0931304B9
:1046D000F90171836083A0CF8D919C9111971296FF
:1046E0006C90129713967C901397A815B90559F5FD
:1046F0006C0142E0C40ED11CCA14DB0420F1AC01F1
:104700004A195B09DA011296159780F0628273826A
:1047100051834083D9016D937C93E114F10471F0CE
:10472000D7011396FC93EE93129776CF22968C0FB7
:104730009D1FF90191838083F301EFCFF09316045D
:10474000E093150469CF4816590608F42C017D0141
:10475000D3019ACFCB010E94DA217C01009749F066
:10476000AE01B8010E94C123C8010E9476228701D0
:1047700053CF10E000E050CF81E090E0F8940C942B
:10478000D823FB01DC0102C001900D924150504042
:10479000D8F70895DC0101C06D9341505040E0F717
:1047A0000895FB01DC0101900D920020E1F70895CE
:1047B00015E0C1E4D5E004C0FE010E94D421219699
:0A47C000C234D107C9F7F894FFCF07
:1047CA000000170480000000000038069805C5059F
:1047DA008506F605D405E80500000000AD08800846
:1047EA007C14950579086608570800000000030C38
:1047FA0098057C147F1464119505A80E800E9C0EF2
:10480A00900E100F9505C9091E13D4101D11C90D5C
:10481A00AC0D340DD50C00000000A70798057C14D8
:10482A007F147C1479147018761476140000000032
:10483A00A70798057C147F1453164C150614D21337
:10484A0076144B6E6F622D4F7363696C6C6F0076D2
:10485A00302E312E3000544D45656475636174699C
:10486A006F6E2E636F6D00202020202020202020D4
:08487A00202020202020200056
:00000001FF
