:100000000C9458000C9480000C9480000C94800098
:100010000C9480000C9480000C9480000C94800060
:100020000C9480000C9480000C9480000C94800050
:100030000C9480000C9480000C9480000C94800040
:100040000C9408090C9480000C9480000C9480009F
:100050000C9480000C9480000C9480000C94800020
:100060000C9452090C948000000000002500280028
:100070002B00040404040404040402020202020229
:10008000030303030303010204081020408001025C
:1000900004081020010204081020000000080002DB
:1000A0000100000304070000000000000000710AC6
:1000B00011241FBECFEFD8E0DEBFCDBF22E0AAE7FC
:1000C000B1E001C01D92AC37B207E1F711E0A0E04A
:1000D000B1E0E8E5FEE102C005900D92AA37B10754
:1000E000D9F710E0C8E5D0E004C02197FE010E94D6
:1000F0002D0DC735D107C9F70E94CA0A0C942A0FE3
:100100000C94000091E090931B0280933D021092AA
:100110001C0210923E020895AF92BF92CF92DF92DE
:10012000EF92FF920F931F93CF93DF936C017B01AC
:100130008B01040F151FEB015E01AE18BF08C0173D
:10014000D10759F06991D601ED91FC910190F081B0
:10015000E02DC6010995892B79F7C501DF91CF9173
:100160001F910F91FF90EF90DF90CF90BF90AF90D5
:10017000089590E0FC01E656FF4F2491FC01EA57F8
:10018000FF4F3491FC01EE58FF4FE491EE23C9F08C
:10019000222339F0233001F1A8F4213019F1223063
:1001A00029F1F0E0EE0FFF1FE859FF4FA591B49140
:1001B0008FB7F894EC91611126C030953E233C93A3
:1001C0008FBF08952730A9F02830C9F0243049F7AF
:1001D000809180008F7D03C0809180008F77809315
:1001E0008000DFCF84B58F7784BDDBCF84B58F7D72
:1001F000FBCF8091B0008F778093B000D2CF8091F9
:10020000B0008F7DF9CF3E2BDACF3FB7F8948091C5
:10021000C8019091C901A091CA01B091CB0126B546
:10022000A89B05C02F3F19F00196A11DB11D3FBF2E
:10023000BA2FA92F982F8827BC01CD01620F711DFD
:10024000811D911D42E0660F771F881F991F4A95F7
:10025000D1F708958F929F92AF92BF92CF92DF9283
:10026000EF92FF924B015C010E9405016B017C0142
:100270000E9405016C197D098E099F09683E734033
:1002800081059105A8F321E0821A9108A108B1081F
:1002900088EEC80E83E0D81EE11CF11C8114910485
:1002A000A104B10429F7FF90EF90DF90CF90BF90A9
:1002B000AF909F908F9008958F929F92AF92BF9230
:1002C000EF92FF921F93CF93DF93EC01162FE881FB
:1002D000F9810484F585E02D462F70E060E00995F2
:1002E0007C0111501230D8F419861A8688889988B2
:1002F000AA88BB880E940501688F798F8A8F9B8F9F
:100300008C8E9D8EAE8EBF8EC701DF91CF911F91D7
:10031000FF90EF90BF90AF909F908F9008958C8842
:100320009D88AE88BF88E6CFDC0118968C9118971F
:10033000681710F06FEF680F1B969C911B9799231D
:1003400091F017962C911797962F211106C061E016
:10035000690F90E06817D8F7F7CF19961C92199794
:100360001A966C931A97FD01E60FF11D648560687B
:10037000CD010C945C018F929F92AF92BF92EF924D
:10038000FF920F931F93CF93DF93EC01462FE881E9
:10039000F9810484F585E02D61E070E009957C0128
:1003A0008C889D88AE88BF880E940501688F798FF0
:1003B0008A8F9B8F8C8E9D8EAE8EBF8E01E010E05B
:1003C000EF2811F010E000E08B85882391F08985FB
:1003D0008F5F89879F81891760F019868A858F5F73
:1003E0008A879885891708F01A866A85CE010E9447
:1003F0009401C801DF91CF911F910F91FF90EF9071
:10040000BF90AF909F908F90089520919E01260FEE
:100410003327331F21323105ECF420911502FC0102
:1004200090E080E0243069F082E00895A0919E0180
:100430002191AC0144585E4FA40FB52FB11D2C93F0
:100440000196861798F380919E01680F60939E0134
:1004500080E0089581E008951092150281E0809374
:1004600014021092EF0161E082E10E94B90061E0A4
:1004700083E10E94B900E9EBF0E080818E7F808308
:1004800080818D7F808388E48093B80085E48093A9
:10049000BC000895CF93DF9391E090937B01882374
:1004A000B9F0C091B800D091BA008091BC008A7BAD
:1004B0008093BC0060E082E10E94B90060E083E1CB
:1004C0000E94B9000E942C02D093BA00C093B800D9
:1004D000DF91CF910895CF92DF92EF92FF920F9329
:1004E0001F93CF93DF93D0913E0281E0D13208F089
:1004F0009CC0C0913D020E9405016B017C0180916E
:10050000150281116CC082E08093150281E0809316
:1005100014028FEF8093130210921202D0931102F3
:10052000ADE1B2E0E1EFF1E080E0D8138DC01092D0
:10053000F0018091F001CC0FC82BC093F0018091A5
:10054000EF01813009F084C01092EF010E94050193
:100550006B017C018091F0018093BB0080911702B8
:1005600090911802A0911902B0911A02892B8A2B3E
:100570008B2BA1F00E940501009117021091180227
:100580002091190230911A026C197D098E099F0978
:10059000061717072807390708F442C08091BC00E6
:1005A00083FDD8CF85EC8093BC000E9405016B01D0
:1005B0007C0180911502823009F44CC080911302B5
:1005C0008F3F09F469C080911302803209F466C03C
:1005D00080911302803309F463C084E026C08091C7
:1005E000170290911802A0911902B0911A02892B5A
:1005F0008A2B8B2B09F483CF0E94050100911702EF
:10060000109118022091190230911A026C197D097B
:100610008E099F09061717072807390708F06FCFBB
:10062000809116020E944A0285E010921C021092EC
:100630003E0210921B02DF91CF911F910F91FF900C
:10064000EF90DF90CF9008959D9191938F5F6DCF44
:1006500085EEA9CF8091170290911802A0911902FE
:10066000B0911A02892B8A2B8B2B09F4A2CF0E94FE
:100670000501009117021091180220911902309182
:100680001A026C197D098E099F090617170728079A
:10069000390708F08ECFC4CF80E0C7CF82E0C5CF46
:1006A00083E0C3CF089508950895E091CE0180912D
:1006B000CD01E81730F4F0E0E153FE4F808190E087
:1006C00008958FEF9FEF08959091CE018091CD0115
:1006D0002FEF3FEF981748F4E92FF0E0E153FE4F7A
:1006E000208130E09F5F9093CE01C90108958091F1
:1006F000CD019091CE01891B990B0895CF92DF9285
:10070000EF92FF920F931F93CF93DF937C01CB0166
:100710008A0120911B02222389F0EB016B01C40E98
:10072000D51ECC15DD0569F06991D701ED91FC91DD
:100730000190F081E02DC7010995F3CF642F0E944D
:100740000502C801DF91CF911F910F91FF90EF90AB
:10075000DF90CF900895CF93DF931F92CDB7DEB790
:10076000698320911B022223F9F020913E0220325E
:1007700058F021E030E0FC013383228390E080E0F8
:100780000F90DF91CF91089580911C02E82FF0E047
:10079000E35EFD4F998190838F5F80931C0280936D
:1007A0003E0281E090E0ECCF61E0CE0101960E9434
:1007B0000502F7CF682F8FE392E00C94AB030F9301
:1007C0001F93CF93DF93182FD0E0C0E28C2F0E94AD
:1007D00082000E946B02082F61E070E080E090E0F0
:1007E0000E942A01011103C01D17D1F0DF5FCF5F06
:1007F000C83261F7C8E38C2F0E9482000E946B020E
:10080000082F61E070E080E090E00E942A01011171
:1008100003C01D1729F0DF5FCF5FC03461F7C0E070
:100820008C2FDF91CF911F910F910895CF93FC01F1
:10083000C4A560FF02C086A1C82B61FF02C087A1CA
:10084000C82B62FF02C080A5C82B63FF02C081A530
:10085000C82B4130510511F483A1C82B85A18C2BE5
:1008600090E00E94DA036C2F8FE392E0CF910C941A
:10087000AB03CF93DF93EC018AA5882349F19BA5B5
:10088000662311F1913011F58CA788A10E94820096
:1008900089A19AA1029721F489E090E00E94DA03ED
:1008A0006CA58FE392E00E94AB030E946B0221E0F3
:1008B00030E0811102C030E020E088279927821BB8
:1008C000930BDF91CF9108959923F1F21CA6DDCF10
:1008D0008DEF9FEFF6CF4F925F926F927F928F9244
:1008E0009F92AF92BF92EF92FF921F93CF93DF93AD
:1008F000EC0188A1882309F459C089A19AA1892B08
:1009000009F454C0142F7B014C8C5D8C6E8C7F8C51
:10091000888C998CAA8CBB8C8DE2881A9108A108CE
:10092000B1080E940501681979098A099B096415B3
:10093000750586059705A8F388A10E94820089A104
:100940009AA1029721F489E090E00E94DA03612FD6
:1009500070E084E0759567958A95E1F7A701CE016F
:100960000E94160482E0E816F10431F0612F6F70E6
:10097000A701CE010E9416040E946B0221E030E024
:10098000811102C030E020E088279927821B930B59
:10099000DF91CF911F91FF90EF90BF90AF909F900C
:1009A0008F907F906F905F904F9008958CEF9FEFA6
:1009B000EFCF8DEF9FEF08958DEF9FEF089590E0BB
:1009C00080E008950895CF92DF92EF92FF920F9307
:1009D0001F93CF93C82F0E9405016B017C0180916A
:1009E0001502811164C081E0809315028093140286
:1009F0009FEF9093130210921202109211028093B3
:100A0000F0018091F001CC0FC82BC093F0018091D0
:100A1000EF01813009F07DC01092EF010E940501C5
:100A20006B017C018091F0018093BB0080911702E3
:100A300090911802A0911902B0911A02892B8A2B69
:100A40008B2BA1F00E940501009117021091180252
:100A50002091190230911A026C197D098E099F09A3
:100A6000061717072807390708F442C08091BC0011
:100A700083FDD8CF85EC8093BC000E9405016B01FB
:100A80007C0180911502813009F445C080911202E9
:100A9000811163C080911202E1EFF1E0AFECB1E0AF
:100AA00090E0981751F121912D939F5FFACF80919B
:100AB000170290911802A0911902B0911A02892B85
:100AC0008A2B8B2B09F48BCF0E9405010091170212
:100AD000109118022091190230911A026C197D09A7
:100AE0008E099F09061717072807390708F077CFDF
:100AF000809116020E944A0280E01092CE018093FB
:100B0000CD01CF911F910F91FF90EF90DF90CF908B
:100B1000089585EEB0CF8091170290911802A091B0
:100B20001902B0911A02892B8A2B8B2B09F4A9CFB9
:100B30000E940501009117021091180220911902DC
:100B400030911A026C197D098E099F090617170743
:100B50002807390708F095CFCBCF81E09DCF4F9282
:100B60005F926F927F928F929F92AF92BF92EF921D
:100B7000FF920F931F93CF93DF93EC011CA588A1E5
:100B8000882309F4E1C089A19AA1009709F4DCC087
:100B9000029709F4DCC08CA1882309F4D8C07B013A
:100BA0004C8C5D8C6E8C7F8C888C998CAA8CBB8CC9
:100BB0008DE2881A9108A108B1080E940501681900
:100BC00079098A099B096415750586059705A8F3B7
:100BD0008EA1182B8FA1182B88A5182B89A5182B4F
:100BE000EA94EF2811F48BA1182B8CA1182B88A163
:100BF0000E948200612F8FE392E00E94AB030E946B
:100C00006B02882301F10FEF1FEF88A10E94820081
:100C10006CA58FE392E00E94AB030E946B028823D5
:100C200011F00FEF1FEFC801DF91CF911F910F91CE
:100C3000FF90EF90BF90AF909F908F907F906F90BC
:100C40005F904F90089588A10E9482008DA1812B12
:100C500090E00E94DA030E946B028111D4CF88A138
:100C600090E00E94E3048FE392E00E9464037C0121
:100C700097FDC9CF88A10E948200612F8FE392E087
:100C80000E94AB030E946B02082F8111BCCF8EA182
:100C900090E08E219F21892B09F000E18FA190E047
:100CA0008E219F21892B09F0006288A590E08E217A
:100CB0009F21892B09F0006489A590E08E219F2156
:100CC000892B09F0006888A10E9482008DA1812BE8
:100CD00090E00E94DA030E946B02811194CF88A1F8
:100CE00090E00E94E3048FE392E00E9464037C01A1
:100CF00097FD89CF88A10E948200612F8FE392E047
:100D00000E94AB030E946B0281117DCF8EA190E007
:100D10008E219F21892B09F001608FA190E08E2107
:100D20009F21892B09F0026088A590E08E219F21E8
:100D3000892B09F0046089A590E08E219F21892BE1
:100D400009F0086010E061CF0CEF1FEF6CCF0DEFE2
:100D50001FEF69CF0F931F93CF93DF93EC01109296
:100D6000CE011092CD0110921C0210923E020E9400
:100D70002C0282E593E090939D0180939C0183E592
:100D800093E09093A1018093A00188A181117EC07E
:100D900080917A0191E0980F90937A010E94DF038D
:100DA00088A388A1811109C080917A0191E0980FF0
:100DB00090937A010E94DF0388A318A1112309F4FC
:100DC0006CC089A19AA1892B09F021C1812F0E94B1
:100DD000820060E08FE392E00E94AB036FEF8FE34D
:100DE00092E00E94AB030E946B02812F0E9482005E
:100DF00060E08FE392E00E94AB030E946B02812FC0
:100E000090E00E94E3048FE392E00E9464038F3F2E
:100E1000910509F049C082E090E09AA389A388A1D6
:100E20000E94820060E08FE392E00E94AB038FEFAC
:100E300090E00E94DA030E946B0288A10E94820067
:100E400086E090E00E94DA038FE790E00E94DA03E8
:100E50000E946B0288A10E94820089E090E00E94BB
:100E6000DA030E946B0288A190E00E94E3048FE302
:100E700092E00E9464038F3709F002C127E036E058
:100E800045E054E063E072E0E1E005C10E948200C9
:100E90000E946B02882309F484CF8CEF9FEFDF91CF
:100EA000CF911F910F910895892B29F01AA219A2B1
:100EB0008FEF9FEFF4CF81E090E09AA389A388A100
:100EC0000E9482006FEF8FE392E00E94AB030E94CA
:100ED0006B0288A190E00E94E3048FE392E00E94FD
:100EE00064038C0188A10E9482006BEF8FE392E083
:100EF0000E94AB030E946B0288A190E00E94E30471
:100F00008FE392E00E946403980127703327273013
:100F1000310509F04DC0807F9927803F910509F088
:100F200047C083E0169507958A95E1F761E00627AB
:100F3000017043E057E066E075E0E4E022E0F1E0B4
:100F400030E081E090E0DC0101C0AA0F3A95EAF7B9
:100F5000ABA3DC0101C0AA0FFA95EAF7ACA3DC0150
:100F600002C0AA0FBB1F2A95E2F7ADA39C0101C0E6
:100F7000220FEA95EAF72EA39C0101C0220F7A9571
:100F8000EAF72FA39C0101C0220F6A95EAF728A770
:100F90009C0101C0220F5A95EAF729A701C0880FCA
:100FA0004A95EAF78AA70BA7013081F58CA72FC0D5
:100FB000C801807799278037910519F08DEF9FEF51
:100FC0006ECF88A10E9482006FEE8FE392E00E94B4
:100FD000AB030E946B0288A190E00E94E3048FE3C0
:100FE00092E00E9464038F70992726E034E00F9707
:100FF00011F424E036E00095001F0027001F47E0B1
:1010000053E062E071E0E0E0F5E09BCF1CA688A130
:101010000E94820089A19AA1029701F585E090E0E3
:101020000E94DA0380E290E00E94DA030E946B02E1
:1010300088A10E94820060E08FE392E00E94AB03EF
:1010400060E08FE392E00E94AB030E946B0288A1F4
:101050000E94820089E090E00E94DA0360E08FE362
:1010600092E00E94AB030E946B0221E030E081110C
:1010700002C030E020E088279927821B930B0FCF16
:1010800086FF3BC081FD9ACF21E032E043E054E08F
:1010900065E076E0E7E081E090E0DC0102C0AA0FC5
:1010A000BB1FEA95E2F7ABA31CA2FC0101C0EE0F47
:1010B0007A95EAF7EDA3FC0102C0EE0FFF1F6A95D7
:1010C000E2F7EEA3BC0101C0660F5A95EAF76FA3E1
:1010D000BC0102C0660F771F4A95E2F768A7AC0112
:1010E00001C0440F3A95EAF749A701C0880F2A9535
:1010F000EAF78AA791E09BA759CF26E033E042E0C8
:1011000051E060E077E0E4E0C6CFFB010190002011
:10111000E9F73197AF01461B570B0C948C000E94E6
:10112000150FEF92FF920F931F93CF93DF93EC0174
:101130007B018A0188819981009729F02A813B816E
:101140002417350788F4B8016F5F7F4F0E94580E4F
:10115000009791F0998388831B830A832C813D81BA
:10116000232B11F4FC0110821D830C83B7018881AD
:1011700099810E94230F0CC088819981009711F0FA
:101180000E94CF0D198218821D821C821B821A8236
:10119000CE01DF91CF911F910F91FF90EF900895B5
:1011A00085ED8093BC008091170290911802A09168
:1011B0001902B0911A020796A11DB11D23E0B69540
:1011C000A795979587952A95D1F72091BC0024FD86
:1011D00003C0109215020895409117025091180211
:1011E0006091190270911A02452B462B472B69F327
:1011F0000097A105B10541F025E32A95F1F700001C
:101200000197A109B109E1CF809116020C944A021D
:101210001F920F920FB60F9211242F933F938F932B
:101220009F93AF93BF938091C4019091C501A0910A
:10123000C601B091C7013091C30123E0230F2D37C0
:1012400058F50196A11DB11D2093C3018093C401DF
:101250009093C501A093C601B093C7018091C801C6
:101260009091C901A091CA01B091CB010196A11D35
:10127000B11D8093C8019093C901A093CA01B09396
:10128000CB01BF91AF919F918F913F912F910F9083
:101290000FBE0F901F90189526E8230F0296A11DF0
:1012A000B11DD2CF1F920F920FB60F9211242F9320
:1012B0003F934F935F936F937F938F939F93AF93DE
:1012C000BF93EF93FF938091B900887F803609F434
:1012D0004AC0F0F5883209F4A7C018F5803109F446
:1012E0009BC0B8F4882309F4F9C0883009F494C08D
:1012F000FF91EF91BF91AF919F918F917F916F91EE
:101300005F914F913F912F910F900FBE0F901F90C3
:101310001895883109F488C0803251F78093130200
:1013200014C0803409F49DC040F48033B9F388338D
:10133000F9F68093130285ECB0C0803509F485C0BE
:10134000883509F496C0883499F60E94D008D0CF29
:10135000883909F48CC038F5883729F050F488367C
:1013600011F0803729F683E0809315021092C201B4
:1013700057C0883809F47BC0803919F0803809F0EB
:10138000B7CF8091C201803208F071C0E091C201F4
:1013900081E08E0F8093C2018091BB00F0E0EE559A
:1013A000FE4F80833DC0803B39F0E0F4803A09F481
:1013B00079C0883A09F09CCF84E08093150210929E
:1013C0009F0110929E01E0919C01F0919D01099571
:1013D00080919E0181110FC081E080939E01109247
:1013E0007C0109C0803C09F4A6CF883C09F4A3CF56
:1013F000883B09F07DCFE0919F0181E08E0F8093C3
:101400009F01F0E0E458FE4F80818093BB009091F3
:101410009F0180919E0129C08091F0018093BB00C3
:1014200085EC8093BC0064CF9091120280911102F0
:10143000981758F5E091120281E08E0F8093120206
:10144000F0E0EF50FE4F8081E9CFE091120281E0A1
:101450008E0F809312028091BB00F0E0EF50FE4FA0
:10146000808390911202809111029817C8F285E84A
:10147000D8CFE091120281E08E0F8093120280910A
:10148000BB00F0E0EF50FE4F808380911402811189
:101490005CCF81E08093EF0184EA8093BC001092DE
:1014A000150226CF85EC8093BC0010921502809126
:1014B000C201803230F4E091C201F0E0EE55FE4FFF
:1014C00010826091C20170E0E091A001F091A10151
:1014D00082EA91E009951092C2010ACF109213029C
:1014E00034CFCF93DF93EFE3F2E01382128288EEE2
:1014F00093E0A0E0B0E084839583A683B7838AE07D
:1015000091E091838083CBE4D2E01B821A828CE14C
:1015100091E0998388831F82188680ED97E0A0E090
:10152000B0E0888B998BAA8BBB8B86E290E0A0E021
:10153000B0E08C8B9D8BAE8BBF8B1C861D861E8670
:101540001F861B860E940501688F798F8A8F9B8F6B
:101550001C8E1D8E1E8E1F8E82E391E099838883E0
:1015600082E090E09AA389A380E288A390E89BA3FD
:101570001CA290E49DA38EA380E18FA388E088A79E
:1015800084E089A782E08AA791E09BA78CA7DF91DE
:10159000CF910895CF93DF93CDB7DEB7E9970FB61C
:1015A000F894DEBF0FBECDBF789484B5826084BD51
:1015B00084B5816084BD85B5826085BD85B5816057
:1015C00085BD80916E00816080936E0010928100D5
:1015D0008091810082608093810080918100816090
:1015E0008093810080918000816080938000809151
:1015F000B10084608093B1008091B00081608093DD
:10160000B00080917A00846080937A0080917A00A3
:10161000826080937A0080917A00816080937A0062
:1016200080917A00806880937A001092C100809146
:10163000570281110CC080915802811108C080911D
:101640005902811104C080915A02882321F08091AF
:1016500052028F7E59F01092570280E48093580214
:1016600080E18093590280E580935A0282E0809362
:10167000530280E18093520264E670E080E090E0E3
:101680000E942A0110924F028BE492E00E94AA0667
:10169000892B09F05CC080915302823028F0809140
:1016A0004F02886080934F0240E362E070E08BE479
:1016B00092E00E946B0465E070E080E090E00E94A0
:1016C0002A0140E362E070E08BE492E00E946B0448
:1016D00061E070E080E090E00E942A0140E362E077
:1016E00070E08BE492E00E946B0461E070E080E0C7
:1016F00090E00E942A0180914F0284FD07C040E2E1
:1017000062E070E08BE492E00E946B0460914F0213
:1017100060628BE492E00E945C0184E0809350025E
:101720006CE08BE492E00E945C0161E08BE492E06B
:101730000E945C0182E08093510266E08BE492E0BB
:101740000E945C016FEF8BE492E00E94390480916B
:101750004D0290914E029C838B8380914F028D832A
:10176000809150028E83809151028F83809152022A
:101770008887809153028987809154028A8780915B
:1017800055028B87809156028C87809157029091E9
:101790005802A0915902B0915A028D879E87AF8757
:1017A000B88B80915B0290915C02A0915D02B09138
:1017B0005E02898B9A8BAB8BBC8B80915F02909180
:1017C0006002A0916102B09162028D8B9E8BAF8B03
:1017D000B88F8091630290916402A0916502B091EC
:1017E0006602898F9A8FAB8FBC8F80916702909130
:1017F0006802A0916902B0916A028D8F9E8FAF8FAF
:10180000B8A382E391E09A83898380916B0289A3D4
:1018100080916C0290916D029BA38AA380916E02CD
:101820008CA380916F028DA3809170028EA3809112
:1018300071028FA38091720288A78091730289A799
:10184000809174028AA7809175028BA7809176029D
:101850008CA7809177028DA71DAA1CAA1FAA1EAA79
:1018600019AE18AE4BE050E064E471E0CE01C496CE
:101870000E9491081FA61EA619AA18AA1BAA1AAA96
:1018800046E050E060E571E0CE018E960E9491083E
:1018900061E0CE0101960E945C0160E0CE010196FC
:1018A0000E94940167E571E0CE0101960E948508CF
:1018B00061E0CE0101960E94940110E000E050E149
:1018C000E52EF12C88AD99AD9701281B390BC90184
:1018D000969587950817190748F467E771E0CE01D8
:1018E00001960E9485080F5F1F4FECCF64E471E002
:1018F000CE0101960E94850864EC79E080E090E0DA
:101900000E942A0161E0CE0101960E94940168E6DE
:1019100071E0CE0101960E94850861E0CE0101963A
:101920000E94940110E000E030E1E32EF12C8AA93E
:101930009BA99701281B390BC90196958795081714
:10194000190748F467E771E0CE0101960E94850807
:101950000F5F1F4FECCF60E571E0CE0101960E9452
:10196000850864EC79E080E090E00E942A0161E063
:10197000CE0101960E945C0164E670E080E090E098
:101980000E942A018EA59FA5009711F00E94CF0DFD
:101990008CA99DA9009711F00E94CF0D81E480933E
:1019A000CC0100E010E081E4F82E60E08BE492E0EE
:1019B0000E9494016091CC018BE492E00E94BB01F3
:1019C00064EF71E080E090E00E942A018091CC01F8
:1019D0008F5F8B3544F48093CC010115110529F3F9
:1019E0000E940000E2CFF092CC01F7CF2F923F92FD
:1019F0004F925F926F927F928F929F92AF92BF921F
:101A0000CF92DF92EF92FF920F931F93CF93DF93CA
:101A1000CDB7DEB7CA1BDB0B0FB6F894DEBF0FBE27
:101A2000CDBF09942A88398848885F846E847D8474
:101A30008C849B84AA84B984C884DF80EE80FD8076
:101A40000C811B81AA81B981CE0FD11D0FB6F894EC
:101A5000DEBF0FBECDBFED010895EE0FFF1F059055
:101A6000F491E02D09940F931F93CF93DF9382306D
:101A7000910510F482E090E0E0917A02F0917B020F
:101A800030E020E0B0E0A0E0309799F42115310576
:101A900009F44AC0281B390B24303105D8F58A8156
:101AA0009B816115710589F1FB0193838283FE019E
:101AB00011C0408151810281138148175907E0F01C
:101AC0004817590799F4109761F012960C931297E2
:101AD00013961C933296CF01DF91CF911F910F91F6
:101AE000089500937A0210937B02F4CF21153105FB
:101AF00051F04217530738F0A901DB019A01BD01EB
:101B0000DF01F801C1CFEF01F9CF90937B02809301
:101B10007A02CDCFFE01E20FF31F81939193225001
:101B2000310939832883D7CF209178023091790207
:101B3000232B41F42091020130910301309379026B
:101B40002093780220910001309101012115310587
:101B500041F42DB73EB74091040150910501241B7B
:101B6000350BE0917802F0917902E217F307A0F4C7
:101B70002E1B3F0B2817390778F0AC014E5F5F4FE3
:101B80002417350748F04E0F5F1F5093790240939A
:101B90007802819391939FCFF0E0E0E09CCFCF93C8
:101BA000DF930097E9F0FC01329713821282A09133
:101BB0007A02B0917B02ED0130E020E01097A1F4B1
:101BC00020813181820F931F209178023091790218
:101BD0002817390709F061C0F0937902E093780281
:101BE000DF91CF910895EA01CE17DF07E8F54A812A
:101BF0005B819E0141155105B1F7E901FB83EA8341
:101C000049915991C40FD51FEC17FD0761F48081EC
:101C100091810296840F951FE901998388838281BF
:101C200093819B838A83F0E0E0E012968D919C91F2
:101C300013970097B9F52D913C911197CD0102961C
:101C4000820F931F2091780230917902281739076B
:101C500039F6309751F510927B0210927A02B093C8
:101C60007902A0937802BCCFD383C2834081518193
:101C7000840F951FC817D90761F44E5F5F4F8881A5
:101C80009981480F591F518340838A819B81938397
:101C900082832115310509F0B0CFF0937B02E093E8
:101CA0007A029ECFFD01DC01C0CF13821282D7CF12
:101CB000B0E0A0E0EEE5FEE00C94F80C8C0100979B
:101CC00051F4CB010E94330D8C01C801CDB7DEB7B2
:101CD000E0E10C94140DFC01E60FF71F9C0122506B
:101CE0003109E217F30708F49DC0D901CD91DC91C9
:101CF0001197C617D70798F0C530D10530F3CE013C
:101D000004978617970708F3C61BD70B2297C19332
:101D1000D1936D937C93CF010E94CF0DD6CF5B0101
:101D2000AC1ABD0A4C018C0E9D1EA0917A02B09196
:101D30007B02512C412CF12CE12C109731F5809134
:101D40007802909179028815990509F05CC04616D1
:101D5000570608F058C0809100019091010100974A
:101D600041F48DB79EB74091040150910501841B49
:101D7000950BE817F90708F055C0F0937902E09346
:101D80007802F90171836083A0CF8D919C911197A6
:101D900012966C90129713967C901397A815B9051C
:101DA00059F56C0142E0C40ED11CCA14DB0420F1C9
:101DB000AC014A195B09DA011296159780F062822C
:101DC000738251834083D9016D937C93E114F104B4
:101DD00071F0D7011396FC93EE93129776CF22966B
:101DE0008C0F9D1FF90191838083F301EFCFF09356
:101DF0007B02E0937A0269CF4816590608F42C0159
:101E00007D01D3019ACFCB010E94330D7C01009755
:101E100049F0AE01B8010E941A0FC8010E94CF0D0F
:101E2000870153CF10E000E050CF81E090E0F894BC
:101E30000C942A0FFB01DC0102C001900D9241506D
:101E40005040D8F70895FB01DC0101900D9200206D
:081E5000E1F70895F894FFCFBB
:101E580000007C02800000000000AB037E03DF046A
:101E6800540377036403550300000000BB018C0092
:101E7800DF04E204DF04DC048F08D904D90400007D
:101E88000000BB018C00DF04E204AA06AF056B0466
:101E98003904D9044C4344416C706861626574002C
:101EA80076302E312E3000544D456564756361746B
:101EB800696F6E2E636F6D00202020202020202067
:0A1EC8002020202020202020000010
:00000001FF
