:100000000C9458000C9480000C9480000C94800098
:100010000C9480000C9480000C9480000C94800060
:100020000C9480000C9480000C9480000C94800050
:100030000C9480000C9480000C9480000C94800040
:100040000C9408090C9480000C9480000C9480009F
:100050000C9480000C9480000C9480000C94800020
:100060000C9452090C948000000000002500280028
:100070002B00040404040404040402020202020229
:10008000030303030303010204081020408001025C
:1000900004081020010204081020000000080002DB
:1000A0000100000304070000000000000000710AC6
:1000B00011241FBECFEFD8E0DEBFCDBF22E0A0E805
:1000C000B1E001C01D92A138B207E1F711E0A0E054
:1000D000B1E0E4E2FEE102C005900D92A038B10764
:1000E000D9F710E0C8E5D0E004C02197FE010E94D6
:1000F000130DC735D107C9F70E94CA0A0C94100F17
:100100000C94000091E090932002809342021092A0
:100110002102109243020895AF92BF92CF92DF92D4
:10012000EF92FF920F931F93CF93DF936C017B01AC
:100130008B01040F151FEB015E01AE18BF08C0173D
:10014000D10759F06991D601ED91FC910190F081B0
:10015000E02DC6010995892B79F7C501DF91CF9173
:100160001F910F91FF90EF90DF90CF90BF90AF90D5
:10017000089590E0FC01E656FF4F2491FC01EA57F8
:10018000FF4F3491FC01EE58FF4FE491EE23C9F08C
:10019000222339F0233001F1A8F4213019F1223063
:1001A00029F1F0E0EE0FFF1FE859FF4FA591B49140
:1001B0008FB7F894EC91611126C030953E233C93A3
:1001C0008FBF08952730A9F02830C9F0243049F7AF
:1001D000809180008F7D03C0809180008F77809315
:1001E0008000DFCF84B58F7784BDDBCF84B58F7D72
:1001F000FBCF8091B0008F778093B000D2CF8091F9
:10020000B0008F7DF9CF3E2BDACF3FB7F8948091C5
:10021000CE019091CF01A091D001B091D10126B52E
:10022000A89B05C02F3F19F00196A11DB11D3FBF2E
:10023000BA2FA92F982F8827BC01CD01620F711DFD
:10024000811D911D42E0660F771F881F991F4A95F7
:10025000D1F708958F929F92AF92BF92CF92DF9283
:10026000EF92FF924B015C010E9405016B017C0142
:100270000E9405016C197D098E099F09683E734033
:1002800081059105A8F321E0821A9108A108B1081F
:1002900088EEC80E83E0D81EE11CF11C8114910485
:1002A000A104B10429F7FF90EF90DF90CF90BF90A9
:1002B000AF909F908F9008958F929F92AF92BF9230
:1002C000EF92FF921F93CF93DF93EC01162FE881FB
:1002D000F9810484F585E02D462F70E060E00995F2
:1002E0007C0111501230D8F419861A8688889988B2
:1002F000AA88BB880E940501688F798F8A8F9B8F9F
:100300008C8E9D8EAE8EBF8EC701DF91CF911F91D7
:10031000FF90EF90BF90AF909F908F9008958C8842
:100320009D88AE88BF88E6CFDC0118968C9118971F
:10033000681710F06FEF680F1B969C911B9799231D
:1003400091F017962C911797962F211106C061E016
:10035000690F90E06817D8F7F7CF19961C92199794
:100360001A966C931A97FD01E60FF11D648560687B
:10037000CD010C945C018F929F92AF92BF92EF924D
:10038000FF920F931F93CF93DF93EC01462FE881E9
:10039000F9810484F585E02D61E070E009957C0128
:1003A0008C889D88AE88BF880E940501688F798FF0
:1003B0008A8F9B8F8C8E9D8EAE8EBF8E01E010E05B
:1003C000EF2811F010E000E08B85882391F08985FB
:1003D0008F5F89879F81891760F019868A858F5F73
:1003E0008A879885891708F01A866A85CE010E9447
:1003F0009401C801DF91CF911F910F91FF90EF9071
:10040000BF90AF909F908F9008952091A401260FE8
:100410003327331F21323105ECF420911A02FC01FD
:1004200090E080E0243069F082E00895A091A4017A
:100430002191AC014E575E4FA40FB52FB11D2C93E7
:100440000196861798F38091A401680F6093A40128
:1004500080E0089581E0089510921A0281E080936F
:1004600019021092F40161E082E10E94B90061E09A
:1004700083E10E94B900E9EBF0E080818E7F808308
:1004800080818D7F808388E48093B80085E48093A9
:10049000BC000895CF93DF9391E09093810188236E
:1004A000B9F0C091B800D091BA008091BC008A7BAD
:1004B0008093BC0060E082E10E94B90060E083E1CB
:1004C0000E94B9000E942C02D093BA00C093B800D9
:1004D000DF91CF910895CF92DF92EF92FF920F9329
:1004E0001F93CF93DF93D091430281E0D13208F084
:1004F0009CC0C09142020E9405016B017C01809169
:100500001A0281116CC082E080931A0281E080930C
:1005100019028FEF8093180210921702D0931602DF
:10052000A2E2B2E0E6EFF1E080E0D8138DC01092D5
:10053000F5018091F501CC0FC82BC093F501809196
:10054000F401813009F084C01092F4010E94050189
:100550006B017C018091F5018093BB0080911C02AE
:1005600090911D02A0911E02B0911F02892B8A2B2F
:100570008B2BA1F00E94050100911C0210911D021D
:1005800020911E0230911F026C197D098E099F096E
:10059000061717072807390708F442C08091BC00E6
:1005A00083FDD8CF85EC8093BC000E9405016B01D0
:1005B0007C0180911A02823009F44CC080911802AB
:1005C0008F3F09F469C080911802803209F466C037
:1005D00080911802803309F463C084E026C08091C2
:1005E0001C0290911D02A0911E02B0911F02892B46
:1005F0008A2B8B2B09F483CF0E94050100911C02EA
:1006000010911D0220911E0230911F026C197D096C
:100610008E099F09061717072807390708F06FCFBB
:1006200080911B020E944A0285E0109221021092E2
:10063000430210922002DF91CF911F910F91FF9002
:10064000EF90DF90CF9008959D9191938F5F6DCF44
:1006500085EEA9CF80911C0290911D02A0911E02EF
:10066000B0911F02892B8A2B8B2B09F4A2CF0E94F9
:10067000050100911C0210911D0220911E02309173
:100680001F026C197D098E099F0906171707280795
:10069000390708F08ECFC4CF80E0C7CF82E0C5CF46
:1006A00083E0C3CF089508950895E091D301809128
:1006B000D201E81730F4F0E0EC52FE4F808190E078
:1006C00008958FEF9FEF08959091D3018091D2010B
:1006D0002FEF3FEF981748F4E92FF0E0EC52FE4F70
:1006E000208130E09F5F9093D301C90108958091EC
:1006F000D2019091D301891B990B0895CF92DF927B
:10070000EF92FF920F931F93CF93DF937C01CB0166
:100710008A0120912002222389F0EB016B01C40E93
:10072000D51ECC15DD0569F06991D701ED91FC91DD
:100730000190F081E02DC7010995F3CF642F0E944D
:100740000502C801DF91CF911F910F91FF90EF90AB
:10075000DF90CF900895CF93DF931F92CDB7DEB790
:100760006983209120022223F9F020914302203254
:1007700058F021E030E0FC013383228390E080E0F8
:100780000F90DF91CF91089580912102E82FF0E042
:10079000EE5DFD4F998190838F5F8093210280935E
:1007A000430281E090E0ECCF61E0CE0101960E942F
:1007B0000502F7CF682F84E492E00C94AB030F930B
:1007C0001F93CF93DF93182FD0E0C0E28C2F0E94AD
:1007D00082000E946B02082F61E070E080E090E0F0
:1007E0000E942A01011103C01D17D1F0DF5FCF5F06
:1007F000C83261F7C8E38C2F0E9482000E946B020E
:10080000082F61E070E080E090E00E942A01011171
:1008100003C01D1729F0DF5FCF5FC03461F7C0E070
:100820008C2FDF91CF911F910F910895CF93FC01F1
:10083000C4A560FF02C086A1C82B61FF02C087A1CA
:10084000C82B62FF02C080A5C82B63FF02C081A530
:10085000C82B4130510511F483A1C82B85A18C2BE5
:1008600090E00E94DA036C2F84E492E0CF910C9424
:10087000AB03CF93DF93EC018AA5882349F19BA5B5
:10088000662311F1913011F58CA788A10E94820096
:1008900089A19AA1029721F489E090E00E94DA03ED
:1008A0006CA584E492E00E94AB030E946B0221E0FD
:1008B00030E0811102C030E020E088279927821BB8
:1008C000930BDF91CF9108959923F1F21CA6DDCF10
:1008D0008DEF9FEFF6CF4F925F926F927F928F9244
:1008E0009F92AF92BF92EF92FF921F93CF93DF93AD
:1008F000EC0188A1882309F459C089A19AA1892B08
:1009000009F454C0142F7B014C8C5D8C6E8C7F8C51
:10091000888C998CAA8CBB8C8DE2881A9108A108CE
:10092000B1080E940501681979098A099B096415B3
:10093000750586059705A8F388A10E94820089A104
:100940009AA1029721F489E090E00E94DA03612FD6
:1009500070E084E0759567958A95E1F7A701CE016F
:100960000E94160482E0E816F10431F0612F6F70E6
:10097000A701CE010E9416040E946B0221E030E024
:10098000811102C030E020E088279927821B930B59
:10099000DF91CF911F91FF90EF90BF90AF909F900C
:1009A0008F907F906F905F904F9008958CEF9FEFA6
:1009B000EFCF8DEF9FEF08958DEF9FEF089590E0BB
:1009C00080E008950895CF92DF92EF92FF920F9307
:1009D0001F93CF93C82F0E9405016B017C0180916A
:1009E0001A02811164C081E080931A028093190277
:1009F0009FEF9093180210921702109216028093A4
:100A0000F5018091F501CC0FC82BC093F5018091C1
:100A1000F401813009F07DC01092F4010E940501BB
:100A20006B017C018091F5018093BB0080911C02D9
:100A300090911D02A0911E02B0911F02892B8A2B5A
:100A40008B2BA1F00E94050100911C0210911D0248
:100A500020911E0230911F026C197D098E099F0999
:100A6000061717072807390708F442C08091BC0011
:100A700083FDD8CF85EC8093BC000E9405016B01FB
:100A80007C0180911A02813009F445C080911702DF
:100A9000811163C080911702E6EFF1E0A4EDB1E0AF
:100AA00090E0981751F121912D939F5FFACF80919B
:100AB0001C0290911D02A0911E02B0911F02892B71
:100AC0008A2B8B2B09F48BCF0E94050100911C020D
:100AD00010911D0220911E0230911F026C197D0998
:100AE0008E099F09061717072807390708F077CFDF
:100AF00080911B020E944A0280E01092D3018093F1
:100B0000D201CF911F910F91FF90EF90DF90CF9086
:100B1000089585EEB0CF80911C0290911D02A091A6
:100B20001E02B0911F02892B8A2B8B2B09F4A9CFAF
:100B30000E94050100911C0210911D0220911E02CD
:100B400030911F026C197D098E099F09061717073E
:100B50002807390708F095CFCBCF81E09DCF4F9282
:100B60005F926F927F928F929F92AF92BF92EF921D
:100B7000FF920F931F93CF93DF93EC011CA588A1E5
:100B8000882309F4E1C089A19AA1009709F4DCC087
:100B9000029709F4DCC08CA1882309F4D8C07B013A
:100BA0004C8C5D8C6E8C7F8C888C998CAA8CBB8CC9
:100BB0008DE2881A9108A108B1080E940501681900
:100BC00079098A099B096415750586059705A8F3B7
:100BD0008EA1182B8FA1182B88A5182B89A5182B4F
:100BE000EA94EF2811F48BA1182B8CA1182B88A163
:100BF0000E948200612F84E492E00E94AB030E9475
:100C00006B02882301F10FEF1FEF88A10E94820081
:100C10006CA584E492E00E94AB030E946B028823DF
:100C200011F00FEF1FEFC801DF91CF911F910F91CE
:100C3000FF90EF90BF90AF909F908F907F906F90BC
:100C40005F904F90089588A10E9482008DA1812B12
:100C500090E00E94DA030E946B028111D4CF88A138
:100C600090E00E94E30484E492E00E9464037C012B
:100C700097FDC9CF88A10E948200612F84E492E091
:100C80000E94AB030E946B02082F8111BCCF8EA182
:100C900090E08E219F21892B09F000E18FA190E047
:100CA0008E219F21892B09F0006288A590E08E217A
:100CB0009F21892B09F0006489A590E08E219F2156
:100CC000892B09F0006888A10E9482008DA1812BE8
:100CD00090E00E94DA030E946B02811194CF88A1F8
:100CE00090E00E94E30484E492E00E9464037C01AB
:100CF00097FD89CF88A10E948200612F84E492E051
:100D00000E94AB030E946B0281117DCF8EA190E007
:100D10008E219F21892B09F001608FA190E08E2107
:100D20009F21892B09F0026088A590E08E219F21E8
:100D3000892B09F0046089A590E08E219F21892BE1
:100D400009F0086010E061CF0CEF1FEF6CCF0DEFE2
:100D50001FEF69CF0F931F93CF93DF93EC01109296
:100D6000D3011092D20110922102109243020E94EC
:100D70002C0282E593E09093A3018093A20183E586
:100D800093E09093A7018093A60188A181117EC072
:100D90008091800191E0980F909380010E94DF0381
:100DA00088A388A1811109C08091800191E0980FEA
:100DB000909380010E94DF0388A318A1112309F4F6
:100DC0006CC089A19AA1892B09F021C1812F0E94B1
:100DD000820060E084E492E00E94AB036FEF84E461
:100DE00092E00E94AB030E946B02812F0E9482005E
:100DF00060E084E492E00E94AB030E946B02812FCA
:100E000090E00E94E30484E492E00E9464038F3F38
:100E1000910509F049C082E090E09AA389A388A1D6
:100E20000E94820060E084E492E00E94AB038FEFB6
:100E300090E00E94DA030E946B0288A10E94820067
:100E400086E090E00E94DA038FE790E00E94DA03E8
:100E50000E946B0288A10E94820089E090E00E94BB
:100E6000DA030E946B0288A190E00E94E30484E40C
:100E700092E00E9464038F3709F002C127E036E058
:100E800045E054E063E072E0E1E005C10E948200C9
:100E90000E946B02882309F484CF8CEF9FEFDF91CF
:100EA000CF911F910F910895892B29F01AA219A2B1
:100EB0008FEF9FEFF4CF81E090E09AA389A388A100
:100EC0000E9482006FEF84E492E00E94AB030E94D4
:100ED0006B0288A190E00E94E30484E492E00E9407
:100EE00064038C0188A10E9482006BEF84E492E08D
:100EF0000E94AB030E946B0288A190E00E94E30471
:100F000084E492E00E94640398012770332727301D
:100F1000310509F04DC0807F9927803F910509F088
:100F200047C083E0169507958A95E1F761E00627AB
:100F3000017043E057E066E075E0E4E022E0F1E0B4
:100F400030E081E090E0DC0101C0AA0F3A95EAF7B9
:100F5000ABA3DC0101C0AA0FFA95EAF7ACA3DC0150
:100F600002C0AA0FBB1F2A95E2F7ADA39C0101C0E6
:100F7000220FEA95EAF72EA39C0101C0220F7A9571
:100F8000EAF72FA39C0101C0220F6A95EAF728A770
:100F90009C0101C0220F5A95EAF729A701C0880FCA
:100FA0004A95EAF78AA70BA7013081F58CA72FC0D5
:100FB000C801807799278037910519F08DEF9FEF51
:100FC0006ECF88A10E9482006FEE84E492E00E94BE
:100FD000AB030E946B0288A190E00E94E30484E4CA
:100FE00092E00E9464038F70992726E034E00F9707
:100FF00011F424E036E00095001F0027001F47E0B1
:1010000053E062E071E0E0E0F5E09BCF1CA688A130
:101010000E94820089A19AA1029701F585E090E0E3
:101020000E94DA0380E290E00E94DA030E946B02E1
:1010300088A10E94820060E084E492E00E94AB03F9
:1010400060E084E492E00E94AB030E946B0288A1FE
:101050000E94820089E090E00E94DA0360E084E46C
:1010600092E00E94AB030E946B0221E030E081110C
:1010700002C030E020E088279927821B930B0FCF16
:1010800086FF3BC081FD9ACF21E032E043E054E08F
:1010900065E076E0E7E081E090E0DC0102C0AA0FC5
:1010A000BB1FEA95E2F7ABA31CA2FC0101C0EE0F47
:1010B0007A95EAF7EDA3FC0102C0EE0FFF1F6A95D7
:1010C000E2F7EEA3BC0101C0660F5A95EAF76FA3E1
:1010D000BC0102C0660F771F4A95E2F768A7AC0112
:1010E00001C0440F3A95EAF749A701C0880F2A9535
:1010F000EAF78AA791E09BA759CF26E033E042E0C8
:1011000051E060E077E0E4E0C6CFFB010190002011
:10111000E9F73197AF01461B570B0C948C000E94E6
:10112000FB0EEF92FF920F931F93CF93DF93EC018F
:101130007B018A0188819981009729F02A813B816E
:101140002417350788F4B8016F5F7F4F0E943E0E69
:10115000009791F0998388831B830A832C813D81BA
:10116000232B11F4FC0110821D830C83B7018881AD
:1011700099810E94090F0CC088819981009711F014
:101180000E94B50D198218821D821C821B821A8250
:10119000CE01DF91CF911F910F91FF90EF900895B5
:1011A00085ED8093BC0080911C0290911D02A0915E
:1011B0001E02B0911F020796A11DB11D23E0B69536
:1011C000A795979587952A95D1F72091BC0024FD86
:1011D00003C010921A02089540911C0250911D0202
:1011E00060911E0270911F02452B462B472B69F31D
:1011F0000097A105B10541F025E32A95F1F700001C
:101200000197A109B109E1CF80911B020C944A0218
:101210001F920F920FB60F9211242F933F938F932B
:101220009F93AF93BF938091CA019091CB01A091FE
:10123000CC01B091CD013091C90123E0230F2D37AE
:1012400058F50196A11DB11D2093C9018093CA01D3
:101250009093CB01A093CC01B093CD018091CE01AE
:101260009091CF01A091D001B091D1010196A11D23
:10127000B11D8093CE019093CF01A093D001B09384
:10128000D101BF91AF919F918F913F912F910F907D
:101290000FBE0F901F90189526E8230F0296A11DF0
:1012A000B11DD2CF1F920F920FB60F9211242F9320
:1012B0003F934F935F936F937F938F939F93AF93DE
:1012C000BF93EF93FF938091B900887F803609F434
:1012D0004AC0F0F5883209F4A7C018F5803109F446
:1012E0009BC0B8F4882309F4F9C0883009F494C08D
:1012F000FF91EF91BF91AF919F918F917F916F91EE
:101300005F914F913F912F910F900FBE0F901F90C3
:101310001895883109F488C0803251F780931802FB
:1013200014C0803409F49DC040F48033B9F388338D
:10133000F9F68093180285ECB0C0803509F485C0B9
:10134000883509F496C0883499F60E94D008D0CF29
:10135000883909F48CC038F5883729F050F488367C
:1013600011F0803729F683E080931A021092C801A9
:1013700057C0883809F47BC0803919F0803809F0EB
:10138000B7CF8091C801803208F071C0E091C801E8
:1013900081E08E0F8093C8018091BB00F0E0E8559A
:1013A000FE4F80833DC0803B39F0E0F4803A09F481
:1013B00079C0883A09F09CCF84E080931A02109299
:1013C000A5011092A401E091A201F091A301099559
:1013D0008091A40181110FC081E08093A40110923B
:1013E000820109C0803C09F4A6CF883C09F4A3CF50
:1013F000883B09F07DCFE091A50181E08E0F8093BD
:10140000A501F0E0EE57FE4F80818093BB009091E4
:10141000A5018091A40129C08091F5018093BB00B2
:1014200085EC8093BC0064CF9091170280911602E6
:10143000981758F5E091170281E08E0F80931702FC
:10144000F0E0EA50FE4F8081E9CFE091170281E0A1
:101450008E0F809317028091BB00F0E0EA50FE4FA0
:10146000808390911702809116029817C8F285E840
:10147000D8CFE091170281E08E0F80931702809100
:10148000BB00F0E0EA50FE4F808380911902811189
:101490005CCF81E08093F40184EA8093BC001092D9
:1014A0001A0226CF85EC8093BC0010921A0280911C
:1014B000C801803230F4E091C801F0E0E855FE4FF9
:1014C00010826091C80170E0E091A601F091A7013F
:1014D00088EA91E009951092C8010ACF109218028B
:1014E00034CFCF93DF93E4E4F2E01382128288EEEC
:1014F00093E0A0E0B0E084839583A683B7838AE07D
:1015000091E091838083C0E5D2E01B821A828CE156
:1015100091E0998388831F82188680ED97E0A0E090
:10152000B0E0888B998BAA8BBB8B86E290E0A0E021
:10153000B0E08C8B9D8BAE8BBF8B1C861D861E8670
:101540001F861B860E940501688F798F8A8F9B8F6B
:101550001C8E1D8E1E8E1F8E82E391E099838883E0
:1015600082E090E09AA389A380E288A390E89BA3FD
:101570001CA290E49DA38EA380E18FA388E088A79E
:1015800084E089A782E08AA791E09BA78CA7DF91DE
:10159000CF910895CF93DF93CDB7DEB7E9970FB61C
:1015A000F894DEBF0FBECDBF789484B5826084BD51
:1015B00084B5816084BD85B5826085BD85B5816057
:1015C00085BD80916E00816080936E0010928100D5
:1015D0008091810082608093810080918100816090
:1015E0008093810080918000816080938000809151
:1015F000B10084608093B1008091B00081608093DD
:10160000B00080917A00846080937A0080917A00A3
:10161000826080937A0080917A00816080937A0062
:1016200080917A00806880937A001092C100809146
:101630005C0281110CC080915D02811108C0809113
:101640005E02811104C080915F02882321F08091A5
:1016500057028F7E59F010925C0280E480935D0205
:1016600080E180935E0280E580935F0282E0809358
:10167000580280E18093570264E670E080E090E0D9
:101680000E942A011092540280E592E00E94AA066C
:10169000892B09F05CC080915802823028F080913B
:1016A000540288608093540240E362E070E080E579
:1016B00092E00E946B0465E070E080E090E00E94A0
:1016C0002A0140E362E070E080E592E00E946B0452
:1016D00061E070E080E090E00E942A0140E362E077
:1016E00070E080E592E00E946B0461E070E080E0D1
:1016F00090E00E942A018091540284FD07C040E2DC
:1017000062E070E080E592E00E946B046091540218
:10171000606280E592E00E945C0184E08093550263
:101720006CE080E592E00E945C0161E080E592E07F
:101730000E945C0182E08093560266E080E592E0C0
:101740000E945C016FEF80E592E00E943904809175
:101750005202909153029C838B83809154028D831B
:10176000809155028E83809156028F83809157021B
:101770008887809158028987809159028A87809151
:101780005A028B8780915B028C8780915C029091DA
:101790005D02A0915E02B0915F028D879E87AF8748
:1017A000B88B8091600290916102A0916202B09129
:1017B0006302898B9A8BAB8BBC8B80916402909176
:1017C0006502A0916602B09167028D8B9E8BAF8BF4
:1017D000B88F8091680290916902A0916A02B091DD
:1017E0006B02898F9A8FAB8FBC8F80916C02909126
:1017F0006D02A0916E02B0916F028D8F9E8FAF8FA0
:10180000B8A382E391E09A8389838091700289A3CF
:1018100080917102909172029BA38AA380917302BE
:101820008CA3809174028DA3809175028EA3809108
:1018300076028FA38091770288A78091780289A78A
:10184000809179028AA780917A028BA780917B028E
:101850008CA780917C028DA71DAA1CAA1FAA1EAA74
:1018600019AE18AE47E050E064E471E0CE01C496D2
:101870000E9491081FA61EA619AA18AA1BAA1AAA96
:1018800046E050E06CE471E0CE018E960E94910833
:1018900061E0CE0101960E945C0160E0CE010196FC
:1018A0000E94940163E571E0CE0101960E948508D3
:1018B00061E0CE0101960E94940110E000E050E149
:1018C000E52EF12C88AD99AD9701281B390BC90184
:1018D000969587950817190748F463E771E0CE01DC
:1018E00001960E9485080F5F1F4FECCF64E471E002
:1018F000CE0101960E94850864EC79E080E090E0DA
:101900000E942A0161E0CE0101960E94940164E6E2
:1019100071E0CE0101960E94850861E0CE0101963A
:101920000E94940110E000E030E1E32EF12C8AA93E
:101930009BA99701281B390BC90196958795081714
:10194000190748F463E771E0CE0101960E9485080B
:101950000F5F1F4FECCF6CE471E0CE0101960E9447
:10196000850864EC79E080E090E00E942A0161E063
:10197000CE0101960E945C0164E670E080E090E098
:101980000E942A018EA59FA5009711F00E94B50D17
:101990008CA99DA9009711F00E94B50D65E771E033
:1019A00080E592E00E94850800E010E00115110535
:1019B000E9F30E940000FACF2F923F924F925F927C
:1019C0006F927F928F929F92AF92BF92CF92DF924F
:1019D000EF92FF920F931F93CF93DF93CDB7DEB7B4
:1019E000CA1BDB0B0FB6F894DEBF0FBECDBF099448
:1019F0002A88398848885F846E847D848C849B849F
:101A0000AA84B984C884DF80EE80FD800C811B81AC
:101A1000AA81B981CE0FD11D0FB6F894DEBF0FBEDB
:101A2000CDBFED010895EE0FFF1F0590F491E02D5D
:101A300009940F931F93CF93DF938230910510F495
:101A400082E090E0E0917F02F091800230E020E0BF
:101A5000B0E0A0E0309799F42115310509F44AC0AF
:101A6000281B390B24303105D8F58A819B816115FB
:101A7000710589F1FB0193838283FE0111C04081CE
:101A800051810281138148175907E0F0481759071F
:101A900099F4109761F012960C93129713961C9379
:101AA0003296CF01DF91CF911F910F91089500934E
:101AB0007F0210938002F4CF2115310551F04217B7
:101AC000530738F0A901DB019A01BD01DF01F801DC
:101AD000C1CFEF01F9CF9093800280937F02CDCFE9
:101AE000FE01E20FF31F8193919322503109398354
:101AF0002883D7CF20917D0230917E02232B41F4A1
:101B0000209102013091030130937E0220937D02E7
:101B100020910001309101012115310541F42DB7CB
:101B20003EB74091040150910501241B350BE09113
:101B30007D02F0917E02E217F307A0F42E1B3F0B0B
:101B40002817390778F0AC014E5F5F4F241735072F
:101B500048F04E0F5F1F50937E0240937D028193A9
:101B600091939FCFF0E0E0E09CCFCF93DF9300977D
:101B7000E9F0FC01329713821282A0917F02B091AA
:101B80008002ED0130E020E01097A1F42081318146
:101B9000820F931F20917D0230917E022817390712
:101BA00009F061C0F0937E02E0937D02DF91CF9156
:101BB0000895EA01CE17DF07E8F54A815B819E01AF
:101BC00041155105B1F7E901FB83EA834991599128
:101BD000C40FD51FEC17FD0761F480819181029637
:101BE000840F951FE90199838883828193819B8368
:101BF0008A83F0E0E0E012968D919C911397009714
:101C0000B9F52D913C911197CD010296820F931F4A
:101C100020917D0230917E022817390739F63097DE
:101C200051F51092800210927F02B0937E02A09331
:101C30007D02BCCFD383C28340815181840F951F25
:101C4000C817D90761F44E5F5F4F88819981480FAB
:101C5000591F518340838A819B81938382832115FD
:101C6000310509F0B0CFF0938002E0937F029ECF60
:101C7000FD01DC01C0CF13821282D7CFB0E0A0E01B
:101C8000E4E4FEE00C94DE0C8C01009751F4CB01EF
:101C90000E94190D8C01C801CDB7DEB7E0E10C94AC
:101CA000FA0CFC01E60FF71F9C0122503109E217E4
:101CB000F30708F49DC0D901CD91DC911197C617A7
:101CC000D70798F0C530D10530F3CE0104978617B9
:101CD000970708F3C61BD70B2297C193D1936D9337
:101CE0007C93CF010E94B50DD6CF5B01AC1ABD0A23
:101CF0004C018C0E9D1EA0917F02B0918002512C50
:101D0000412CF12CE12C109731F580917D029091BE
:101D10007E028815990509F05CC04616570608F042
:101D200058C08091000190910101009741F48DB756
:101D30009EB74091040150910501841B950BE81753
:101D4000F90708F055C0F0937E02E0937D02F90197
:101D500071836083A0CF8D919C91119712966C90A6
:101D6000129713967C901397A815B90559F56C0135
:101D700042E0C40ED11CCA14DB0420F1AC014A19A4
:101D80005B09DA011296159780F0628273825183A3
:101D90004083D9016D937C93E114F10471F0D70174
:101DA0001396FC93EE93129776CF22968C0F9D1F7D
:101DB000F90191838083F301EFCFF0938002E093E8
:101DC0007F0269CF4816590608F42C017D01D30122
:101DD0009ACFCB010E94190D7C01009749F0AE010A
:101DE000B8010E94000FC8010E94B50D870153CFB2
:101DF00010E000E050CF81E090E0F8940C94100FD8
:101E0000FB01DC0102C001900D9241505040D8F717
:101E10000895FB01DC0101900D920020E1F7089587
:041E2000F894FFCF64
:101E240000008102800000000000AB037E03DF0499
:101E3400540377036403550300000000BB018C00C6
:101E4400DF04E204DF04DC048F08D904D9040000B1
:101E54000000BB018C00DF04E204AA06AF056B049A
:101E64003904D9044C4344546578740076302E31D7
:101E74002E3000544D45656475636174696F6E2E30
:101E8400636F6D002020202020202020202020208F
:101E9400202020200048656C6C6F20544D450000C4
:00000001FF
