:100000000C945E000C9486000C9486000C94860080
:100010000C9486000C9486000C9486000C94860048
:100020000C9486000C9486000C9486000C94860038
:100030000C9486000C9486000C9486000C94860028
:100040000C94170A0C9486000C9486000C9486007D
:100050000C9486000C9486000C9486000C94860008
:100060000C94610A0C948600000000002400270014
:100070002A0000000008000201000003040700003D
:10008000000000000000010204081020408001026E
:1000900004081020010204081020000000002500C0
:1000A00028002B00040404040404040402020202D5
:1000B0000202030303030303800B160F11241FBE68
:1000C000CFEFD8E0DEBFCDBF22E0A6E7B1E001C0B0
:1000D0001D92AD38B207E1F711E0A0E0B1E0E6EF24
:1000E000F2E202C005900D92A637B107D9F710E0F1
:1000F000CDE5D0E004C02197FE010E94710FCC3500
:10010000D107C9F70E94600C0C946E110C9400008A
:1001100091E0909316028093380210921702109289
:1001200039020895AF92BF92CF92DF92EF92FF9281
:100130000F931F93CF93DF936C017B018B01040F0F
:10014000151FEB015E01AE18BF08C017D10759F0AB
:100150006991D601ED91FC910190F081E02DC601ED
:100160000995892B79F7C501DF91CF911F910F91E7
:10017000FF90EF90DF90CF90BF90AF90089590E008
:10018000FC01EE58FF4F2491FC01EA57FF4F3491D8
:10019000FC01EC55FF4FE491EE23C9F0222339F026
:1001A000233001F1A8F4213019F1223029F1F0E0D7
:1001B000EE0FFF1FE656FF4FA591B4918FB7F8944D
:1001C000EC91611126C030953E233C938FBF08957A
:1001D0002730A9F02830C9F0243049F780918000F9
:1001E0008F7D03C0809180008F7780938000DFCF68
:1001F00084B58F7784BDDBCF84B58F7DFBCF8091B5
:10020000B0008F778093B000D2CF8091B0008F7D07
:10021000F9CF3E2BDACFCF93DF9390E0FC01EA5782
:10022000FF4F24918C559F4FFC0184918823D1F07E
:1002300090E0880F991FFC01E859FF4FA591B491F8
:10024000FC01E656FF4FC591D49161110EC09FB7D6
:10025000F8948C91E22FE0958E238C932881E223F1
:10026000E8839FBFDF91CF9108958FB7F894EC9109
:10027000E22BEC938FBFF6CF3FB7F8948091C40187
:100280009091C501A091C601B091C70126B5A89B68
:1002900005C02F3F19F00196A11DB11D3FBFBA2F18
:1002A000A92F982F8827BC01CD01620F711D811DD8
:1002B000911D42E0660F771F881F991F4A95D1F75D
:1002C0000895CF92DF92EF92FF920F931F93CF93F7
:1002D000DF93CDB7DEB729970FB6F894DEBF0FBE18
:1002E000CDBFC0905502D0905602E0905702F090DA
:1002F00058020E943C016C157D058E059F0550F447
:100300000E943C01609355027093560280935702FD
:10031000909358020E943C010091550210915602A0
:100320002091570230915802601B710B820B930B86
:100330006C32714081059105A0F2F89480914A02D7
:1003400090914B029A838983E0914F02F091500281
:10035000DF0111968081898790914602E0915902D0
:10036000F0915A0280915B02992309F449C090816F
:10037000982B98879081809589238F838F818C8398
:1003800088E08B8358856F8149853B812C818981E9
:100390009A81508347FD252F3A952083262F39F0E7
:1003A000441F00C000006083000000C0F2CF38E0AE
:1003B0004D9160830000019761F7F0935A02E0933A
:1003C000590249873B832C839A83898378940E94BE
:1003D0003C016093550270935602809357029093AC
:1003E000580229960FB6F894DEBF0FBECDBFDF913D
:1003F000CF911F910F91FF90EF90DF90CF900895D4
:100400009081982B98879081809589238F838F8105
:100410008E8388E08D8358856F8149853D812E814B
:1004200089819A81508347FD252F00C000C0208319
:1004300000C000C000C000C000C060830000262FC4
:100440003A9541F0441F000000C000C000C000C049
:1004500000C0E8CF38E04D9100C0608300C0019734
:1004600009F7F0935A02E093590249873D832E839E
:10047000ABCF8F929F92AF92BF92CF92DF92EF92CB
:10048000FF924B015C010E943C016B017C010E94C8
:100490003C016C197D098E099F09683E73408105F6
:1004A0009105A8F321E0821A9108A108B10888EE0D
:1004B000C80E83E0D81EE11CF11C81149104A10434
:1004C000B10429F7FF90EF90DF90CF90BF90AF90ED
:1004D0009F908F9008958F929F92AF92BF92EF92CC
:1004E000FF921F93CF93DF93EC01162FE881F981E0
:1004F0000484F585E02D462F70E060E009957C01CD
:1005000011501230D8F419861A8688889988AA88DA
:10051000BB880E943C01688F798F8A8F9B8F8C8E5D
:100520009D8EAE8EBF8EC701DF91CF911F91FF9040
:10053000EF90BF90AF909F908F9008958C889D888A
:10054000AE88BF88E6CFDC0118968C9118976817A3
:1005500010F06FEF680F1B969C911B97992391F0F9
:1005600017962C911797962F211106C061E0690FFD
:1005700090E06817D8F7F7CF19961C9219971A963A
:100580006C931A97FD01E60FF11D64856068CD013B
:100590000C946B028F929F92AF92BF92EF92FF9258
:1005A0000F931F93CF93DF93EC01462FE881F981DE
:1005B0000484F585E02D61E070E009957C018C886C
:1005C0009D88AE88BF880E943C01688F798F8A8F92
:1005D0009B8F8C8E9D8EAE8EBF8E01E010E0EF283B
:1005E00011F010E000E08B85882391F089858F5F02
:1005F00089879F81891760F019868A858F5F8A872E
:100600009885891708F01A866A85CE010E94A30290
:10061000C801DF91CF911F910F91FF90EF90BF9094
:10062000AF909F908F90089520919A01260F3327C5
:10063000331F21323105ECF420911002FC0190E0CF
:1006400080E0243069F082E00895A0919A01219120
:10065000AC0148585E4FA40FB52FB11D2C930196E5
:10066000861798F380919A01680F60939A0180E051
:10067000089581E008951092100281E080930F02A6
:100680001092EA0161E082E10E94BF0061E083E133
:100690000E94BF00E9EBF0E080818E7F8083808143
:1006A0008D7F808388E48093B80085E48093BC00CC
:1006B0000895CF93DF9391E0909377018823B9F069
:1006C000C091B800D091BA008091BC008A7B809321
:1006D000BC0060E082E10E94BF0060E083E10E9414
:1006E000BF000E943B03D093BA00C093B800DF91D3
:1006F000CF910895CF92DF92EF92FF920F931F93C5
:10070000CF93DF93D091390281E0D13208F09CC0C1
:10071000C09138020E943C016B017C018091100263
:1007200081116CC082E08093100281E080930F02FF
:100730008FEF80930E0210920D02D0930C02A8E16D
:10074000B2E0ECEEF1E080E0D8138DC01092EB0146
:100750008091EB01CC0FC82BC093EB018091EA0193
:10076000813009F084C01092EA010E943C016B01C3
:100770007C018091EB018093BB00809112029091EB
:100780001302A0911402B0911502892B8A2B8B2B96
:10079000A1F00E943C0100911202109113022091DD
:1007A0001402309115026C197D098E099F090617F4
:1007B00017072807390708F442C08091BC0083FD61
:1007C000D8CF85EC8093BC000E943C016B017C017A
:1007D00080911002823009F44CC080910E028F3F4C
:1007E00009F469C080910E02803209F466C08091DC
:1007F0000E02803309F463C084E026C080911202A7
:1008000090911302A0911402B0911502892B8A2BAA
:100810008B2B09F483CF0E943C01009112021091AE
:10082000130220911402309115026C197D098E0972
:100830009F09061717072807390708F06FCF80911F
:1008400011020E94590385E010921702109239029A
:1008500010921602DF91CF911F910F91FF90EF90B0
:10086000DF90CF9008959D9191938F5F6DCF85EE2E
:10087000A9CF8091120290911302A0911402B0911D
:100880001502892B8A2B8B2B09F4A2CF0E943C01E5
:10089000009112021091130220911402309115025E
:1008A0006C197D098E099F09061717072807390754
:1008B00008F08ECFC4CF80E0C7CF82E0C5CF83E001
:1008C000C3CF089508950895E091C9018091C801AA
:1008D000E81730F4F0E0E653FE4F808190E0089591
:1008E0008FEF9FEF08959091C9018091C8012FEF7C
:1008F0003FEF981748F4E92FF0E0E653FE4F2081D0
:1009000030E09F5F9093C901C90108958091C801AB
:100910009091C901891B990B0895CF92DF92EF92B4
:10092000FF920F931F93CF93DF937C01CB018A013A
:1009300020911602222389F0EB016B01C40ED51E13
:10094000CC15DD0569F06991D701ED91FC9101901D
:10095000F081E02DC7010995F3CF642F0E941403A5
:10096000C801DF91CF911F910F91FF90EF90DF9021
:10097000CF900895CF93DF931F92CDB7DEB76983F1
:10098000209116022223F9F020913902203258F0EA
:1009900021E030E0FC013383228390E080E00F907F
:1009A000DF91CF91089580911702E82FF0E0E85E83
:1009B000FD4F998190838F5F809317028093390256
:1009C00081E090E0ECCF61E0CE0101960E9414033B
:1009D000F7CF682F8AE392E00C94BA040F931F9329
:1009E000CF93DF93182FD0E0C0E28C2F0E948800B5
:1009F0000E947A03082F61E070E080E090E00E949E
:100A00003902011103C01D17D1F0DF5FCF5FC8327B
:100A100061F7C8E38C2F0E9488000E947A03082F98
:100A200061E070E080E090E00E943902011103C0B3
:100A30001D1729F0DF5FCF5FC03461F7C0E08C2F56
:100A4000DF91CF911F910F910895CF93FC01C4A521
:100A500060FF02C086A1C82B61FF02C087A1C82B1E
:100A600062FF02C080A5C82B63FF02C081A5C82B0E
:100A70004130510511F483A1C82B85A18C2B90E046
:100A80000E94E9046C2F8AE392E0CF910C94BA049F
:100A9000CF93DF93EC018AA5882349F19BA56623B8
:100AA00011F1913011F58CA788A10E94880089A1CD
:100AB0009AA1029721F489E090E00E94E9046CA5D4
:100AC0008AE392E00E94BA040E947A0321E030E0B7
:100AD000811102C030E020E088279927821B930B08
:100AE000DF91CF9108959923F1F21CA6DDCF8DEF10
:100AF0009FEFF6CF4F925F926F927F928F929F926D
:100B0000AF92BF92EF92FF921F93CF93DF93EC01CE
:100B100088A1882309F459C089A19AA1892B09F4D5
:100B200054C0142F7B014C8C5D8C6E8C7F8C888C18
:100B3000998CAA8CBB8C8DE2881A9108A108B10807
:100B40000E943C01681979098A099B096415750599
:100B500086059705A8F388A10E94880089A19AA11B
:100B6000029721F489E090E00E94E904612F70E08F
:100B700084E0759567958A95E1F7A701CE010E94FB
:100B8000250582E0E816F10431F0612F6F70A701AE
:100B9000CE010E9425050E947A0321E030E08111F8
:100BA00002C030E020E088279927821B930BDF9159
:100BB000CF911F91FF90EF90BF90AF909F908F903B
:100BC0007F906F905F904F9008958CEF9FEFEFCFE5
:100BD0008DEF9FEF08958DEF9FEF089590E080E0F7
:100BE00008950895CF92DF92EF92FF920F931F9393
:100BF000CF93C82F0E943C016B017C0180911002B1
:100C0000811164C081E08093100280930F029FEFF6
:100C100090930E0210920D0210920C028093EB0141
:100C20008091EB01CC0FC82BC093EB018091EA01BE
:100C3000813009F07DC01092EA010E943C016B01F5
:100C40007C018091EB018093BB0080911202909116
:100C50001302A0911402B0911502892B8A2B8B2BC1
:100C6000A1F00E943C010091120210911302209108
:100C70001402309115026C197D098E099F0906171F
:100C800017072807390708F442C08091BC0083FD8C
:100C9000D8CF85EC8093BC000E943C016B017C01A5
:100CA00080911002813009F445C080910D028111BC
:100CB00063C080910D02ECEEF1E0AAECB1E090E0AF
:100CC000981751F121912D939F5FFACF80911202D5
:100CD00090911302A0911402B0911502892B8A2BD6
:100CE0008B2B09F48BCF0E943C01009112021091D2
:100CF000130220911402309115026C197D098E099E
:100D00009F09061717072807390708F077CF809142
:100D100011020E94590380E01092C9018093C8011A
:100D2000CF911F910F91FF90EF90DF90CF9008959A
:100D300085EEB0CF8091120290911302A09114021F
:100D4000B0911502892B8A2B8B2B09F4A9CF0E9415
:100D50003C01009112021091130220911402309173
:100D600015026C197D098E099F09061717072807B8
:100D7000390708F095CFCBCF81E09DCF4F925F929E
:100D80006F927F928F929F92AF92BF92EF92FF925B
:100D90000F931F93CF93DF93EC011CA588A18823A9
:100DA00009F4E1C089A19AA1009709F4DCC0029777
:100DB00009F4DCC08CA1882309F4D8C07B014C8CD9
:100DC0005D8C6E8C7F8C888C998CAA8CBB8C8DE210
:100DD000881A9108A108B1080E943C016819790994
:100DE0008A099B096415750586059705A8F38EA1E8
:100DF000182B8FA1182B88A5182B89A5182BEA94DE
:100E0000EF2811F48BA1182B8CA1182B88A10E941C
:100E10008800612F8AE392E00E94BA040E947A035C
:100E2000882301F10FEF1FEF88A10E9488006CA5B5
:100E30008AE392E00E94BA040E947A03882311F0A8
:100E40000FEF1FEFC801DF91CF911F910F91FF901E
:100E5000EF90BF90AF909F908F907F906F905F903A
:100E60004F90089588A10E9488008DA1812B90E069
:100E70000E94E9040E947A038111D4CF88A190E0F6
:100E80000E94F2058AE392E00E9473047C0197FDC0
:100E9000C9CF88A10E948800612F8AE392E00E9456
:100EA000BA040E947A03082F8111BCCF8EA190E072
:100EB0008E219F21892B09F000E18FA190E08E21E6
:100EC0009F21892B09F0006288A590E08E219F2147
:100ED000892B09F0006489A590E08E219F21892B40
:100EE00009F0006888A10E9488008DA1812B90E004
:100EF0000E94E9040E947A03811194CF88A190E0B6
:100F00000E94F2058AE392E00E9473047C0197FD3F
:100F100089CF88A10E948800612F8AE392E00E9415
:100F2000BA040E947A0381117DCF8EA190E08E21B8
:100F30009F21892B09F001608FA190E08E219F21D4
:100F4000892B09F0026088A590E08E219F21892BD2
:100F500009F0046089A590E08E219F21892B09F07A
:100F6000086010E061CF0CEF1FEF6CCF0DEF1FEFAB
:100F700069CF0F931F93CF93DF93EC011092C901B8
:100F80001092C80110921702109239020E943B037E
:100F900081E694E0909399018093980182E694E031
:100FA00090939D0180939C0188A181117EC08091C6
:100FB000760191E0980F909376010E94EE0488A349
:100FC00088A1811109C08091760191E0980F9093DA
:100FD00076010E94EE0488A318A1112309F46CC0C5
:100FE00089A19AA1892B09F021C1812F0E94880033
:100FF00060E08AE392E00E94BA046FEF8AE392E035
:101000000E94BA040E947A03812F0E94880060E047
:101010008AE392E00E94BA040E947A03812F90E052
:101020000E94F2058AE392E00E9473048F3F9105CB
:1010300009F049C082E090E09AA389A388A10E94A8
:10104000880060E08AE392E00E94BA048FEF90E0AB
:101050000E94E9040E947A0388A10E94880086E029
:1010600090E00E94E9048FE790E00E94E9040E946A
:101070007A0388A10E94880089E090E00E94E90438
:101080000E947A0388A190E00E94F2058AE392E030
:101090000E9473048F3709F002C127E036E045E073
:1010A00054E063E072E0E1E005C10E9488000E9424
:1010B0007A03882309F484CF8CEF9FEFDF91CF91DF
:1010C0001F910F910895892B29F01AA219A28FEF71
:1010D0009FEFF4CF81E090E09AA389A388A10E94BA
:1010E00088006FEF8AE392E00E94BA040E947A03BC
:1010F00088A190E00E94F2058AE392E00E947304C6
:101100008C0188A10E9488006BEF8AE392E00E9424
:10111000BA040E947A0388A190E00E94F2058AE353
:1011200092E00E947304980127703327273031051D
:1011300009F04DC0807F9927803F910509F047C095
:1011400083E0169507958A95E1F761E0062701701F
:1011500043E057E066E075E0E4E022E0F1E030E0F3
:1011600081E090E0DC0101C0AA0F3A95EAF7ABA359
:10117000DC0101C0AA0FFA95EAF7ACA3DC0102C0BA
:10118000AA0FBB1F2A95E2F7ADA39C0101C0220F55
:10119000EA95EAF72EA39C0101C0220F7A95EAF79F
:1011A0002FA39C0101C0220F6A95EAF728A79C0192
:1011B00001C0220F5A95EAF729A701C0880F4A9566
:1011C000EAF78AA70BA7013081F58CA72FC0C801C9
:1011D000807799278037910519F08DEF9FEF6ECFBB
:1011E00088A10E9488006FEE8AE392E00E94BA0410
:1011F0000E947A0388A190E00E94F2058AE392E0BF
:101200000E9473048F70992726E034E00F9711F441
:1012100024E036E00095001F0027001F47E053E060
:1012200062E071E0E0E0F5E09BCF1CA688A10E949F
:10123000880089A19AA1029701F585E090E00E94BB
:10124000E90480E290E00E94E9040E947A0388A108
:101250000E94880060E08AE392E00E94BA0460E0A5
:101260008AE392E00E94BA040E947A0388A10E9455
:10127000880089E090E00E94E90460E08AE392E05F
:101280000E94BA040E947A0321E030E0811102C07A
:1012900030E020E088279927821B930B0FCF86FF31
:1012A0003BC081FD9ACF21E032E043E054E065E0AD
:1012B00076E0E7E081E090E0DC0102C0AA0FBB1F0E
:1012C000EA95E2F7ABA31CA2FC0101C0EE0F7A95F0
:1012D000EAF7EDA3FC0102C0EE0FFF1F6A95E2F7EB
:1012E000EEA3BC0101C0660F5A95EAF76FA3BC01DB
:1012F00002C0660F771F4A95E2F768A7AC0101C0EC
:10130000440F3A95EAF749A701C0880F2A95EAF7F2
:101310008AA791E09BA759CF26E033E042E051E055
:1013200060E077E0E4E0C6CFFB0101900020E9F740
:101330003197AF01461B570B0C9492000E94591134
:10134000EF92FF920F931F93CF93DF93EC017B01FA
:101350008A0188819981009729F02A813B8124178D
:10136000350788F4B8016F5F7F4F0E949C1000978B
:1013700091F0998388831B830A832C813D81232BE1
:1013800011F4FC0110821D830C83B70188819981BF
:101390000E9467110CC088819981009711F00E940A
:1013A0001310198218821D821C821B821A82CE01A0
:1013B000DF91CF911F910F91FF90EF90089585EDF0
:1013C0008093BC008091120290911302A0911402AC
:1013D000B09115020796A11DB11D23E0B695A79502
:1013E000979587952A95D1F72091BC0024FD03C0DD
:1013F00010921002089540911202509113026091D0
:10140000140270911502452B462B472B69F3009768
:10141000A105B10541F025E32A95F1F700000197F8
:10142000A109B109E1CF809111020C9459031F92D7
:101430000F920FB60F9211242F933F938F939F9388
:10144000AF93BF938091C0019091C101A091C2015F
:10145000B091C3013091BF0123E0230F2D3758F520
:101460000196A11DB11D2093BF018093C0019093EF
:10147000C101A093C201B093C3018091C4019091B6
:10148000C501A091C601B091C7010196A11DB11D72
:101490008093C4019093C501A093C601B093C70186
:1014A000BF91AF919F918F913F912F910F900FBE60
:1014B0000F901F90189526E8230F0296A11DB11DCD
:1014C000D2CF1F920F920FB60F9211242F933F93FA
:1014D0004F935F936F937F938F939F93AF93BF933C
:1014E000EF93FF938091B900887F803609F44AC05A
:1014F000F0F5883209F4A7C018F5803109F49BC0D3
:10150000B8F4882309F4F9C0883009F494C0FF9135
:10151000EF91BF91AF919F918F917F916F915F916B
:101520004F913F912F910F900FBE0F901F901895E4
:10153000883109F488C0803251F780930E0214C0BC
:10154000803409F49DC040F48033B9F38833F9F650
:1015500080930E0285ECB0C0803509F485C08835D3
:1015600009F496C0883499F60E94DF09D0CF8839F3
:1015700009F48CC038F5883729F050F4883611F01A
:10158000803729F683E0809310021092BE0157C085
:10159000883809F47BC0803919F0803809F0B7CF5A
:1015A0008091BE01803208F071C0E091BE0181E0FF
:1015B0008E0F8093BE018091BB00F0E0E256FE4F9B
:1015C00080833DC0803B39F0E0F4803A09F479C073
:1015D000883A09F09CCF84E08093100210929B011E
:1015E00010929A01E0919801F091990109958091EA
:1015F0009A0181110FC081E080939A0110927801C5
:1016000009C0803C09F4A6CF883C09F4A3CF883BED
:1016100009F07DCFE0919B0181E08E0F80939B01CB
:10162000F0E0E858FE4F80818093BB0090919B01D1
:1016300080919A0129C08091EB018093BB0085ECD9
:101640008093BC0064CF90910D0280910C0298179A
:1016500058F5E0910D0281E08E0F80930D02F0E0CD
:10166000E451FE4F8081E9CFE0910D0281E08E0FC1
:1016700080930D028091BB00F0E0E451FE4F808327
:1016800090910D0280910C029817C8F285E8D8CF8E
:10169000E0910D0281E08E0F80930D028091BB00DE
:1016A000F0E0E451FE4F808380910F0281115CCF06
:1016B00081E08093EA0184EA8093BC0010921002DA
:1016C00026CF85EC8093BC00109210028091BE0161
:1016D000803230F4E091BE01F0E0E256FE4F10821D
:1016E0006091BE0170E0E0919C01F0919D018EE956
:1016F00091E009951092BE010ACF10920E0234CFEC
:1017000010923D0210923C0288EE93E0A0E0B0E01F
:1017100080933E0290933F02A0934002B093410217
:101720008AE091E090933B0280933A0210925F022C
:1017300010925E028CE191E090935D0280935C02D6
:10174000109263021092640280ED97E0A0E0B0E096
:1017500080936C0290936D02A0936E02B0936F021F
:1017600086E290E0A0E0B0E0809370029093710276
:10177000A0937202B09373021092680210926902F1
:1017800010926A0210926B02109267020E943C0152
:10179000609374027093750280937602909377023F
:1017A000109278021092790210927A0210927B02C3
:1017B00082E391E090935D0280935C0282E090E08E
:1017C00090937E0280937D0280E280937C0290E879
:1017D00090937F021092800290E490938102809314
:1017E000820280E18093830288E08093840284E017
:1017F0008093850292E09093860281E08093870235
:10180000909388021092470210924E021092550255
:10181000109256021092570210925802809354026E
:101820008093510210925202909353028093460289
:101830008FE090E090934B0280934A020E94770FD2
:101840009093500280934F02009789F12FE0FC01A2
:1018500011922A95E9F785E090E0909349028093F0
:1018600048028CE090E090934D0280934C0280916E
:101870004702882341F061E08CE00E940B0160E0A8
:101880008CE00E94BF00E0EBF0E0E491F0E0EE0FAE
:10189000FF1FE656FF4F8591949190935A028093D3
:1018A0005902E2E9F0E0E491E0935B0208951092BE
:1018B0004B0210924A021092490210924802D1CF74
:1018C000CF93DF93CDB7DEB7E9970FB6F894DEBFBD
:1018D0000FBECDBF789484B5826084BD84B581602D
:1018E00084BD85B5826085BD85B5816085BD8091EB
:1018F0006E00816080936E00109281008091810063
:10190000826080938100809181008160809381005A
:10191000809180008160809380008091B10084601C
:101920008093B1008091B00081608093B00080917D
:101930007A00846080937A0080917A00826080933C
:101940007A0080917A00816080937A0080917A0099
:10195000806880937A001092C100809168028111A2
:101960000CC080916902811108C080916A028111C6
:1019700004C080916B02882321F0809163028F7EE6
:1019800059F01092680280E48093690280E18093AC
:101990006A0280E580936B0282E08093640280E1BA
:1019A0008093630264E670E080E090E00E94390278
:1019B000109260028CE592E00E94B907892B09F031
:1019C0005CC080916402823028F08091600288605F
:1019D0008093600240E362E070E08CE592E00E9458
:1019E0007A0565E070E080E090E00E94390240E313
:1019F00062E070E08CE592E00E947A0561E070E0C0
:101A000080E090E00E94390240E362E070E08CE503
:101A100092E00E947A0561E070E080E090E00E9430
:101A200039028091600284FD07C040E262E070E00C
:101A30008CE592E00E947A056091600260628CE51C
:101A400092E00E946B0284E0809361026CE08CE57E
:101A500092E00E946B0261E08CE592E00E946B02D2
:101A600082E08093620266E08CE592E00E946B0265
:101A70006FEF8CE592E00E94480580915E029091A4
:101A80005F029C838B83809160028D8380916102D1
:101A90008E83809162028F83809163028887809118
:101AA00064028987809165028A87809166028B87AC
:101AB000809167028C878091680290916902A09161
:101AC0006A02B0916B028D879E87AF87B88B809139
:101AD0006C0290916D02A0916E02B0916F02898BA1
:101AE0009A8BAB8BBC8B8091700290917102A0910C
:101AF0007202B09173028D8B9E8BAF8BB88F8091E9
:101B0000740290917502A0917602B0917702898F4C
:101B10009A8FAB8FBC8F8091780290917902A091BF
:101B20007A02B0917B028D8F9E8FAF8FB8A382E334
:101B300091E09A83898380917C0289A380917D02C0
:101B400090917E029BA38AA380917F028CA38091B7
:101B500080028DA3809181028EA3809182028FA347
:101B60008091830288A78091840289A78091850251
:101B70008AA7809186028BA7809187028CA780918B
:101B800088028DA71DAA1CAA1FAA1EAA19AE18AEEC
:101B900048E050E064E471E0CE01C4960E94A009E0
:101BA0001FA61EA619AA18AA1BAA1AAA46E050E048
:101BB0006DE471E0CE018E960E94A00961E0CE0135
:101BC00001960E946B0260E0CE0101960E94A30282
:101BD00064E571E0CE0101960E94940961E0CE01B6
:101BE00001960E94A30210E000E080E1E82EF12CB3
:101BF00088AD99AD9701281B390BC901969587953A
:101C00000817190748F464E771E0CE0101960E94B5
:101C100094090F5F1F4FECCF64E471E0CE01019691
:101C20000E94940964EC79E080E090E00E9439021F
:101C300061E0CE0101960E94A30265E671E0CE014B
:101C400001960E94940961E0CE0101960E94A302D0
:101C500010E000E0A0E1EA2EF12C8AA99BA9F7018F
:101C6000E81BF90BCF01969587950817190748F4DB
:101C700064E771E0CE0101960E9494090F5F1F4F47
:101C8000ECCF6DE471E0CE0101960E94940964EC02
:101C900079E080E090E00E94390261E0CE01019697
:101CA0000E946B0264E670E080E090E00E943902DE
:101CB0008EA59FA5009711F00E9413108CA99DA9D5
:101CC000009711F00E94131080914C0290914D02E8
:101CD00097FD08C061E00E940B0160E080914C021A
:101CE0000E94BF0081E08093470230E020E0A4E141
:101CF000BAE015E08091480290914902281739070F
:101D0000B0F580914E0264E17AE005E0882361F04D
:101D1000819FA0011124052F8B9FA0011124752FF5
:101D20008A9FC0011124692FE091540280914F02D3
:101D30009091500240915102E41350C0A901440F08
:101D4000551F420F531F840F951FE0915102E80F5A
:101D5000F92FF11D0083E0915202E80FF92FF11DD8
:101D6000708340915302840F911DFC0160832F5FAB
:101D70003F4F2530310509F0BDCF80914F02909142
:101D80005002892B11F00E94610168EE73E080E03F
:101D900090E00E94390260914E02653689F12091EF
:101DA0004F0230915002615029F170E08FEF94E6BC
:101DB0000E945D0FF90140914A0250914B02CF0100
:101DC000821B930B84179507C0F44081469FC00186
:101DD000479F900D112490833196EDCFA901440FB8
:101DE000551F440F551F840F951FE80FF92FF11D44
:101DF0001082ABCF70E060E0DDCF85E680934E02CD
:101E000080914F0290915002892B11F00E94610144
:101E100068EE73E080E090E00E94390200E010E09C
:101E200001151105E9F30E940000FACF80914F02DD
:101E3000909150020E94131080914C0290914D029B
:101E400097FD03C060E00C940B0108952F923F9220
:101E50004F925F926F927F928F929F92AF92BF92BA
:101E6000CF92DF92EF92FF920F931F93CF93DF9366
:101E7000CDB7DEB7CA1BDB0B0FB6F894DEBF0FBEC3
:101E8000CDBF09942A88398848885F846E847D8410
:101E90008C849B84AA84B984C884DF80EE80FD8012
:101EA0000C811B81AA81B981CE0FD11D0FB6F89488
:101EB000DEBF0FBECDBFED010895AA1BBB1B51E1D4
:101EC00007C0AA1FBB1FA617B70710F0A61BB70BAA
:101ED000881F991F5A95A9F780959095BC01CD014F
:101EE0000895EE0FFF1F0590F491E02D09940F93D4
:101EF0001F93CF93DF938230910510F482E090E03E
:101F0000E0918B02F0918C0230E020E0B0E0A0E0A4
:101F1000309799F42115310509F44AC0281B390B73
:101F200024303105D8F58A819B816115710589F1CD
:101F3000FB0193838283FE0111C0408151810281A4
:101F4000138148175907E0F04817590799F410977B
:101F500061F012960C93129713961C933296CF0150
:101F6000DF91CF911F910F91089500938B021093F1
:101F70008C02F4CF2115310551F04217530738F088
:101F8000A901DB019A01BD01DF01F801C1CFEF0119
:101F9000F9CF90938C0280938B02CDCFFE01E20F9C
:101FA000F31F819391932250310939832883D7CF2E
:101FB0002091890230918A02232B41F42091020161
:101FC0003091030130938A0220938902209100010D
:101FD000309101012115310541F42DB73EB74091F3
:101FE000040150910501241B350BE0918902F09109
:101FF0008A02E217F307A0F42E1B3F0B28173907BC
:1020000078F0AC014E5F5F4F2417350748F04E0F54
:102010005F1F50938A0240938902819391939FCFCF
:10202000F0E0E0E09CCFCF93DF930097E9F0FC0174
:10203000329713821282A0918B02B0918C02ED0133
:1020400030E020E01097A1F420813181820F931FAE
:102050002091890230918A022817390709F061C05E
:10206000F0938A02E0938902DF91CF910895EA010B
:10207000CE17DF07E8F54A815B819E0141155105C6
:10208000B1F7E901FB83EA8349915991C40FD51F48
:10209000EC17FD0761F4808191810296840F951FF2
:1020A000E90199838883828193819B838A83F0E00D
:1020B000E0E012968D919C9113970097B9F52D91C0
:1020C0003C911197CD010296820F931F20918902B6
:1020D00030918A022817390739F6309751F5109256
:1020E0008C0210928B02B0938A02A0938902BCCF1B
:1020F000D383C28340815181840F951FC817D907AC
:1021000061F44E5F5F4F88819981480F591F518359
:1021100040838A819B81938382832115310509F055
:10212000B0CFF0938C02E0938B029ECFFD01DC01D7
:10213000C0CF13821282D7CFB0E0A0E0E2EAF0E194
:102140000C94280F8C01009751F4CB010E94770F5B
:102150008C01C801CDB7DEB7E0E10C94440FFC015F
:10216000E60FF71F9C0122503109E217F30708F42C
:102170009DC0D901CD91DC911197C617D70798F072
:10218000C530D10530F3CE0104978617970708F3C1
:10219000C61BD70B2297C193D1936D937C93CF012C
:1021A0000E941310D6CF5B01AC1ABD0A4C018C0EF5
:1021B0009D1EA0918B02B0918C02512C412CF12CD0
:1021C000E12C109731F58091890290918A0288154F
:1021D000990509F05CC04616570608F058C0809172
:1021E000000190910101009741F48DB79EB7409195
:1021F000040150910501841B950BE817F90708F0BD
:1022000055C0F0938A02E0938902F90171836083DB
:10221000A0CF8D919C91119712966C901297139666
:102220007C901397A815B90559F56C0142E0C40ECE
:10223000D11CCA14DB0420F1AC014A195B09DA0194
:102240001296159780F06282738251834083D90180
:102250006D937C93E114F10471F0D7011396FC9314
:10226000EE93129776CF22968C0F9D1FF9019183E2
:102270008083F301EFCFF0938C02E0938B0269CF60
:102280004816590608F42C017D01D3019ACFCB01E1
:102290000E94770F7C01009749F0AE01B8010E94BF
:1022A0005E11C8010E941310870153CF10E000E0B7
:1022B00050CF81E090E0F8940C946E11FB01DC01AA
:1022C00002C001900D9241505040D8F70895FB0193
:1022D000DC0101900D920020E1F7089510E0CDE5BA
:1022E000D0E004C0FE010E94710F2196CE35D107C7
:0622F000C9F7F894FFCFCE
:1022F60000008D02800000000000BA048D04EE0587
:10230600630486047304640400000000CA02920099
:10231600EE05F105EE05EB059E09E805E80500006A
:102326000000CA029200EE05F105B907BE067A055D
:102336004805E8054C454453747269700076302EA2
:10234600312E3000544D45656475636174696F6E56
:102356002E636F6D002020202020202020202020AA
:06236600202020202000D1
:00000001FF
