:100000000C945D000C9485000C9485000C94850084
:100010000C9485000C9485000C9485000C9485004C
:100020000C9485000C9485000C9485000C9485003C
:100030000C9485000C9485000C9485000C9485002C
:100040000C94960A0C9485000C94640A0C943E0A55
:100050000C9485000C9485000C9485000C9485000C
:100060000C94E00A0C9485000000000800020100D6
:100070000003040700000000000000000000000072
:10008000250028002B0000000000240027002A0083
:10009000040404040404040402020202020203032E
:1000A0000303030301020408102040800102040836
:1000B0001020010204081020FF0B11241FBECFEFF7
:1000C000D8E0DEBFCDBF23E0A4E9B1E001C01D92BE
:1000D000A233B207E1F711E0A0E0B1E0EEEAF6E208
:1000E00002C005900D92A439B107D9F710E0CDE513
:1000F000D0E004C02197FE010E945811CC35D107F1
:10010000C9F70E94800C0C9455130C94000091E0E8
:100110009093340280935602109235021092570247
:100120000895AF92BF92CF92DF92EF92FF920F931A
:100130001F93CF93DF936C017B018B01040F151F7D
:10014000EB015E01AE18BF08C017D10759F06991E5
:10015000D601ED91FC910190F081E02DC601099549
:10016000892B79F7C501DF91CF911F910F91FF90F6
:10017000EF90DF90CF90BF90AF900895FC01538D2A
:10018000448D252F30E0842F90E0821B930B541771
:1001900010F0CF96089501970895FC01918D828DFE
:1001A000981761F0A28DAE0FBF2FB11D5D968C9197
:1001B000928D9F5F9F73928F90E008958FEF9FEFD6
:1001C0000895FC01918D828D981731F0828DE80F92
:1001D000F11D858D90E008958FEF9FEF0895FC014C
:1001E000918D228D892F90E0805C9F4F821B910919
:1001F0008F739927089588E592E00E94EF0021E02F
:10020000892B09F420E0822F089580E090E0892B6B
:1002100029F00E94FB0081110C9400000895FC015C
:10022000A48DA80FB92FB11DA35ABF4F2C91848D57
:1002300090E001968F739927848FA689B7892C93B4
:10024000A089B1898C91837080648C93938D848D07
:10025000981306C00288F389E02D80818F7D80830A
:100260000895EF92FF920F931F93CF93DF93EC01CA
:1002700081E0888F9B8D8C8D98131AC0E889F9894D
:10028000808185FF15C09FB7F894EE89FF89608350
:10029000E889F98980818370806480839FBF81E0D1
:1002A00090E0DF91CF911F910F91FF90EF90089513
:1002B000F62E0B8D10E00F5F1F4F0F731127E02EEE
:1002C0008C8D8E110CC00FB607FCFACFE889F98926
:1002D000808185FFF5CFCE010E940F01F1CFEB8D1C
:1002E000EC0FFD2FF11DE35AFF4FF0829FB7F894FA
:1002F0000B8FEA89FB8980818062CFCFCF93DF9318
:10030000EC01888D8823B9F0AA89BB89E889F9892D
:100310008C9185FD03C0808186FD0DC00FB607FC62
:10032000F7CF8C9185FFF2CF808185FFEDCFCE0195
:100330000E940F01E9CFDF91CF91089590E0FC0179
:10034000E859FF4F2491FC01EC55FF4F3491FC011B
:10035000E057FF4FE491EE23C9F0222339F0233018
:1003600001F1A8F4213019F1223029F1F0E0EE0F6B
:10037000FF1FE458FF4FA591B4918FB7F894EC910B
:10038000611126C030953E233C938FBF08952730DE
:10039000A9F02830C9F0243049F7809180008F7D82
:1003A00003C0809180008F7780938000DFCF84B579
:1003B0008F7784BDDBCF84B58F7DFBCF8091B0007C
:1003C0008F778093B000D2CF8091B0008F7DF9CF2E
:1003D0003E2BDACF3FB7F8948091E2019091E30190
:1003E000A091E401B091E50126B5A89B05C02F3F7F
:1003F00019F00196A11DB11D3FBFBA2FA92F982F4B
:100400008827BC01CD01620F711D811D911D42E045
:10041000660F771F881F991F4A95D1F708958F920D
:100420009F92AF92BF92CF92DF92EF92FF924B01D9
:100430005C010E94EA016B017C010E94EA016C19D7
:100440007D098E099F09683E734081059105A8F3D7
:1004500021E0821A9108A108B10888EEC80E83E055
:10046000D81EE11CF11C81149104A104B10429F7E8
:10047000FF90EF90DF90CF90BF90AF909F908F90C4
:1004800008958F929F92AF92BF92EF92FF921F9327
:10049000CF93DF93EC01162FE881F9810484F58571
:1004A000E02D462F70E060E009957C01115012307C
:1004B000D8F419861A8688889988AA88BB880E94E9
:1004C000EA01688F798F8A8F9B8F8C8E9D8EAE8E7E
:1004D000BF8EC701DF91CF911F91FF90EF90BF902A
:1004E000AF909F908F9008958C889D88AE88BF882C
:1004F000E6CFDC0118968C911897681710F06FEF13
:10050000680F1B969C911B97992391F017962C913D
:100510001797962F211106C061E0690F90E06817C8
:10052000D8F7F7CF19961C9219971A966C931A97C9
:10053000FD01E60FF11D64856068CD010C94410258
:100540008F929F92AF92BF92EF92FF920F931F9361
:10055000CF93DF93EC01462FE881F9810484F58580
:10056000E02D61E070E009957C018C889D88AE8863
:10057000BF880E94EA01688F798F8A8F9B8F8C8E4B
:100580009D8EAE8EBF8E01E010E0EF2811F010E0DE
:1005900000E08B85882391F089858F5F89879F8113
:1005A000891760F019868A858F5F8A8798858917F1
:1005B00008F01A866A85CE010E947902C801DF918F
:1005C000CF911F910F91FF90EF90BF90AF909F90B0
:1005D0008F9008952091B801260F3327331F2132C1
:1005E0003105ECF420912E02FC0190E080E02430F3
:1005F00069F082E00895A091B8012191AC014A56BA
:100600005E4FA40FB52FB11D2C930196861798F35A
:100610008091B801680F6093B80180E0089581E08F
:10062000089510922E0281E080932D02109208020C
:1006300061E082E10E949E0161E083E10E949E01EF
:10064000E9EBF0E080818E7F808380818D7F8083E5
:1006500088E48093B80085E48093BC000895CF932C
:10066000DF9391E0909395018823B9F0C091B80091
:10067000D091BA008091BC008A7B8093BC0060E07E
:1006800082E10E949E0160E083E10E949E010E943F
:100690001103D093BA00C093B800DF91CF910895B1
:1006A000CF92DF92EF92FF920F931F93CF93DF933E
:1006B000D091570281E0D13208F09CC0C09156021F
:1006C0000E94EA016B017C0180912E0281116CC0B5
:1006D00082E080932E0281E080932D028FEF809341
:1006E0002C0210922B02D0932A02A6E3B2E0EAE099
:1006F000F2E080E0D8138DC01092090280910902C7
:10070000CC0FC82BC093090280910802813009F0F8
:1007100084C0109208020E94EA016B017C01809162
:1007200009028093BB008091300290913102A09128
:100730003202B0913302892B8A2B8B2BA1F00E94BD
:10074000EA01009130021091310220913202309181
:1007500033026C197D098E099F09061717072807B0
:10076000390708F442C08091BC0083FDD8CF85ECE6
:100770008093BC000E94EA016B017C0180912E02F3
:10078000823009F44CC080912C028F3F09F469C07B
:1007900080912C02803209F466C080912C02803353
:1007A00009F463C084E026C0809130029091310248
:1007B000A0913202B0913302892B8A2B8B2B09F442
:1007C00083CF0E94EA010091300210913102209102
:1007D0003202309133026C197D098E099F09061788
:1007E00017072807390708F06FCF80912F020E9462
:1007F0002F0385E0109235021092570210923402B6
:10080000DF91CF911F910F91FF90EF90DF90CF90EC
:1008100008959D9191938F5F6DCF85EEA9CF8091C3
:10082000300290913102A0913202B0913302892BB3
:100830008A2B8B2B09F4A2CF0E94EA01009130028F
:100840001091310220913202309133026C197D09EE
:100850008E099F09061717072807390708F08ECF5A
:10086000C4CF80E0C7CF82E0C5CF83E0C3CF089577
:1008700008950895E091E7018091E601E81730F4CA
:10088000F0E0E851FE4F808190E008958FEF9FEFF8
:1008900008959091E7018091E6012FEF3FEF9817BF
:1008A00048F4E92FF0E0E851FE4F208130E09F5FEF
:1008B0009093E701C90108958091E6019091E701C5
:1008C000891B990B0895CF92DF92EF92FF920F93BD
:1008D0001F93CF93DF937C01CB018A0120913402D7
:1008E000222389F0EB016B01C40ED51ECC15DD056A
:1008F00069F06991D701ED91FC910190F081E02DB3
:10090000C7010995F3CF642F0E94EA02C801DF9165
:10091000CF911F910F91FF90EF90DF90CF900895AE
:10092000CF93DF931F92CDB7DEB769832091340256
:100930002223F9F020915702203258F021E030E0D4
:10094000FC013383228390E080E00F90DF91CF9110
:10095000089580913502E82FF0E0EA5CFD4F99811F
:1009600090838F5F809335028093570281E090E0FF
:10097000ECCF61E0CE0101960E94EA02F7CF682F2A
:1009800085EF92E00C9490040F931F93CF93DF9325
:10099000182FD0E0C0E28C2F0E9487000E945003E5
:1009A000082F61E070E080E090E00E940F020111EA
:1009B00003C01D17D1F0DF5FCF5FC83261F7C8E316
:1009C0008C2F0E9487000E945003082F61E070E086
:1009D00080E090E00E940F02011103C01D1729F072
:1009E000DF5FCF5FC03461F7C0E08C2FDF91CF9124
:1009F0001F910F910895CF93FC01C4A560FF02C021
:100A000086A1C82B61FF02C087A1C82B62FF02C06C
:100A100080A5C82B63FF02C081A5C82B41305105BA
:100A200011F483A1C82B85A18C2B90E00E94BF04F8
:100A30006C2F85EF92E0CF910C949004CF93DF93CD
:100A4000EC018AA5882349F19BA5662311F1913019
:100A500011F58CA788A10E94870089A19AA102970D
:100A600021F489E090E00E94BF046CA585EF92E03C
:100A70000E9490040E94500321E030E0811102C0E6
:100A800030E020E088279927821B930BDF91CF91DC
:100A900008959923F1F21CA6DDCF8DEF9FEFF6CFDD
:100AA0004F925F926F927F928F929F92AF92BF927E
:100AB000EF92FF921F93CF93DF93EC0188A18823DD
:100AC00009F459C089A19AA1892B09F454C0142FA3
:100AD0007B014C8C5D8C6E8C7F8C888C998CAA8C65
:100AE000BB8C8DE2881A9108A108B1080E94EA0126
:100AF000681979098A099B096415750586059705A2
:100B0000A8F388A10E94870089A19AA1029721F4E5
:100B100089E090E00E94BF04612F70E084E0759549
:100B200067958A95E1F7A701CE010E94FB0482E058
:100B3000E816F10431F0612F6F70A701CE010E9419
:100B4000FB040E94500321E030E0811102C030E03C
:100B500020E088279927821B930BDF91CF911F916B
:100B6000FF90EF90BF90AF909F908F907F906F908D
:100B70005F904F9008958CEF9FEFEFCF8DEF9FEF39
:100B800008958DEF9FEF089590E080E00895089517
:100B9000CF92DF92EF92FF920F931F93CF93C82FC4
:100BA0000E94EA016B017C0180912E02811164C0D8
:100BB00081E080932E0280932D029FEF90932C0270
:100BC00010922B0210922A0280930902809109024E
:100BD000CC0FC82BC093090280910802813009F024
:100BE0007DC0109208020E94EA016B017C01809195
:100BF00009028093BB008091300290913102A09154
:100C00003202B0913302892B8A2B8B2BA1F00E94E8
:100C1000EA010091300210913102209132023091AC
:100C200033026C197D098E099F09061717072807DB
:100C3000390708F442C08091BC0083FDD8CF85EC11
:100C40008093BC000E94EA016B017C0180912E021E
:100C5000813009F445C080912B02811163C08091DD
:100C60002B02EAE0F2E0A8EEB1E090E0981751F133
:100C700021912D939F5FFACF8091300290913102A4
:100C8000A0913202B0913302892B8A2B8B2B09F46D
:100C90008BCF0E94EA010091300210913102209125
:100CA0003202309133026C197D098E099F090617B3
:100CB00017072807390708F077CF80912F020E9485
:100CC0002F0380E01092E7018093E601CF911F91FE
:100CD0000F91FF90EF90DF90CF90089585EEB0CF09
:100CE0008091300290913102A0913202B091330292
:100CF000892B8A2B8B2B09F4A9CF0E94EA01009142
:100D000030021091310220913202309133026C197D
:100D10007D098E099F09061717072807390708F06C
:100D200095CFCBCF81E09DCF4F925F926F927F9214
:100D30008F929F92AF92BF92EF92FF920F931F9369
:100D4000CF93DF93EC011CA588A1882309F4E1C0AF
:100D500089A19AA1009709F4DCC0029709F4DCC0CC
:100D60008CA1882309F4D8C07B014C8C5D8C6E8CDF
:100D70007F8C888C998CAA8CBB8C8DE2881A910808
:100D8000A108B1080E94EA01681979098A099B093A
:100D90006415750586059705A8F38EA1182B8FA1FC
:100DA000182B88A5182B89A5182BEA94EF2811F485
:100DB0008BA1182B8CA1182B88A10E948700612F72
:100DC00085EF92E00E9490040E945003882301F175
:100DD0000FEF1FEF88A10E9487006CA585EF92E0BE
:100DE0000E9490040E945003882311F00FEF1FEF20
:100DF000C801DF91CF911F910F91FF90EF90BF90AD
:100E0000AF909F908F907F906F905F904F900895DC
:100E100088A10E9487008DA1812B90E00E94BF04D1
:100E20000E9450038111D4CF88A190E00E94C80590
:100E300085EF92E00E9449047C0197FDC9CF88A10B
:100E40000E948700612F85EF92E00E9490040E942B
:100E50005003082F8111BCCF8EA190E08E219F21DD
:100E6000892B09F000E18FA190E08E219F21892B31
:100E700009F0006288A590E08E219F21892B09F05E
:100E8000006489A590E08E219F21892B09F00068DC
:100E900088A10E9487008DA1812B90E00E94BF0451
:100EA0000E945003811194CF88A190E00E94C80550
:100EB00085EF92E00E9449047C0197FD89CF88A1CB
:100EC0000E948700612F85EF92E00E9490040E94AB
:100ED000500381117DCF8EA190E08E219F21892B1F
:100EE00009F001608FA190E08E219F21892B09F0EC
:100EF000026088A590E08E219F21892B09F0046073
:100F000089A590E08E219F21892B09F0086010E0CF
:100F100061CF0CEF1FEF6CCF0DEF1FEF69CF0F9379
:100F20001F93CF93DF93EC011092E7011092E6013B
:100F300010923502109257020E94110387E394E049
:100F40009093B7018093B60188E394E09093BB013E
:100F50008093BA0188A181117EC08091940191E0B3
:100F6000980F909394010E94C40488A388A18111D2
:100F700009C08091940191E0980F909394010E9490
:100F8000C40488A318A1112309F46CC089A19AA1F3
:100F9000892B09F021C1812F0E94870060E085EF35
:100FA00092E00E9490046FEF85EF92E00E9490041F
:100FB0000E945003812F0E94870060E085EF92E03D
:100FC0000E9490040E945003812F90E00E94C80567
:100FD00085EF92E00E9449048F3F910509F049C0D6
:100FE00082E090E09AA389A388A10E94870060E034
:100FF00085EF92E00E9490048FEF90E00E94BF0482
:101000000E94500388A10E94870086E090E00E9421
:10101000BF048FE790E00E94BF040E94500388A1A4
:101020000E94870089E090E00E94BF040E94500364
:1010300088A190E00E94C80585EF92E00E944904D3
:101040008F3709F002C127E036E045E054E063E065
:1010500072E0E1E005C10E9487000E9450038823EE
:1010600009F484CF8CEF9FEFDF91CF911F910F9107
:101070000895892B29F01AA219A28FEF9FEFF4CFC0
:1010800081E090E09AA389A388A10E9487006FEF76
:1010900085EF92E00E9490040E94500388A190E0A6
:1010A0000E94C80585EF92E00E9449048C0188A146
:1010B0000E9487006BEF85EF92E00E9490040E94EF
:1010C000500388A190E00E94C80585EF92E00E943D
:1010D00049049801277033272730310509F04DC0A6
:1010E000807F9927803F910509F047C083E01695DE
:1010F00007958A95E1F761E00627017043E057E024
:1011000066E075E0E4E022E0F1E030E081E090E0CC
:10111000DC0101C0AA0F3A95EAF7ABA3DC0101C0DC
:10112000AA0FFA95EAF7ACA3DC0102C0AA0FBB1F15
:101130002A95E2F7ADA39C0101C0220FEA95EAF7D8
:101140002EA39C0101C0220F7A95EAF72FA39C01E0
:1011500001C0220F6A95EAF728A79C0101C0220F5F
:101160005A95EAF729A701C0880F4A95EAF78AA796
:101170000BA7013081F58CA72FC0C8018077992774
:101180008037910519F08DEF9FEF6ECF88A10E94F7
:1011900087006FEE85EF92E00E9490040E9450035A
:1011A00088A190E00E94C80585EF92E00E94490462
:1011B0008F70992726E034E00F9711F424E036E091
:1011C0000095001F0027001F47E053E062E071E038
:1011D000E0E0F5E09BCF1CA688A10E94870089A1D2
:1011E0009AA1029701F585E090E00E94BF0480E299
:1011F00090E00E94BF040E94500388A10E948700D3
:1012000060E085EF92E00E94900460E085EF92E05C
:101210000E9490040E94500388A10E94870089E0E8
:1012200090E00E94BF0460E085EF92E00E9490048D
:101230000E94500321E030E0811102C030E020E044
:1012400088279927821B930B0FCF86FF3BC081FD18
:101250009ACF21E032E043E054E065E076E0E7E059
:1012600081E090E0DC0102C0AA0FBB1FEA95E2F723
:10127000ABA31CA2FC0101C0EE0F7A95EAF7EDA327
:10128000FC0102C0EE0FFF1F6A95E2F7EEA3BC015E
:1012900001C0660F5A95EAF76FA3BC0102C0660F42
:1012A000771F4A95E2F768A7AC0101C0440F3A9551
:1012B000EAF749A701C0880F2A95EAF78AA791E0C3
:1012C0009BA759CF26E033E042E051E060E077E0B1
:1012D000E4E0C6CFFB0101900020E9F73197AF01B0
:1012E000461B570BDC01ED91FC910280F381E02D50
:1012F00009948F929F92AF92BF92EF92FF920F93B9
:101300001F93CF93DF93CDB7DEB7A1970FB6F894B5
:10131000DEBF0FBECDBF7C01FA01CB0119A2223086
:1013200008F42AE08E010F5D1F4F822E912CB12C04
:10133000A12CBF01A50194010E943611F901CA0137
:101340006A300CF5605DD8016E938D01232B242B40
:10135000252B79F790E080E0109721F0BD01C701BF
:101360000E946A09A1960FB6F894DEBF0FBECDBFEA
:10137000DF91CF911F910F91FF90EF90BF90AF90B1
:101380009F908F900895695CDECF0E944013EF928A
:10139000FF920F931F93CF93DF93EC017B018A01A0
:1013A00088819981009729F02A813B81241735078C
:1013B00088F4B8016F5F7F4F0E948312009791F00D
:1013C000998388831B830A832C813D81232B11F40D
:1013D000FC0110821D830C83B701888199810E94D2
:1013E0004E130CC088819981009711F00E94FA1168
:1013F000198218821D821C821B821A82CE01DF9103
:10140000CF911F910F91FF90EF90089585ED8093FC
:10141000BC008091300290913102A0913202B091D3
:1014200033020796A11DB11D23E0B695A7959795A8
:1014300087952A95D1F72091BC0024FD03C0109216
:101440002E02089540913002509131026091320293
:1014500070913302452B462B472B69F30097A1056A
:10146000B10541F025E32A95F1F700000197A109A4
:10147000B109E1CF80912F020C942F031F920F929C
:101480000FB60F9211242F933F934F935F936F9357
:101490007F938F939F93AF93BF93EF93FF9388E5D1
:1014A00092E00E940F01FF91EF91BF91AF919F9148
:1014B0008F917F916F915F914F913F912F910F90FD
:1014C0000FBE0F901F9018951F920F920FB60F929C
:1014D00011242F938F939F93EF93FF93E0916802D2
:1014E000F09169028081E0916E02F0916F0282FDBD
:1014F0001BC09081809171028F5F8F732091720267
:10150000821741F0E0917102F0E0E85AFD4F958FAB
:1015100080937102FF91EF919F918F912F910F9086
:101520000FBE0F901F9018958081F4CF1F920F92DD
:101530000FB60F9211242F933F938F939F93AF93E6
:10154000BF938091DE019091DF01A091E001B09105
:10155000E1013091DD0123E0230F2D3758F501968D
:10156000A11DB11D2093DD018093DE019093DF0169
:10157000A093E001B093E1018091E2019091E30139
:10158000A091E401B091E5010196A11DB11D8093E8
:10159000E2019093E301A093E401B093E501BF91D0
:1015A000AF919F918F913F912F910F900FBE0F9010
:1015B0001F90189526E8230F0296A11DB11DD2CFCA
:1015C0001F920F920FB60F9211242F933F934F93B8
:1015D0005F936F937F938F939F93AF93BF93EF939B
:1015E000FF938091B900887F803609F44AC0F0F5F6
:1015F000883209F4A7C018F5803109F49BC0B8F40B
:10160000882309F4F9C0883009F494C0FF91EF9160
:10161000BF91AF919F918F917F916F915F914F910A
:101620003F912F910F900FBE0F901F90189588310A
:1016300009F488C0803251F780932C0214C08034A2
:1016400009F49DC040F48033B9F38833F9F68093F0
:101650002C0285ECB0C0803509F485C0883509F4CA
:1016600096C0883499F60E94060AD0CF883909F4CA
:101670008CC038F5883729F050F4883611F080375F
:1016800029F683E080932E021092DC0157C088383F
:1016900009F47BC0803919F0803809F0B7CF809108
:1016A000DC01803208F071C0E091DC0181E08E0F36
:1016B0008093DC018091BB00F0E0E454FE4F808316
:1016C0003DC0803B39F0E0F4803A09F479C0883AB3
:1016D00009F09CCF84E080932E021092B901109201
:1016E000B801E091B601F091B70109958091B80178
:1016F00081110FC081E08093B8011092960109C05A
:10170000803C09F4A6CF883C09F4A3CF883B09F0BC
:101710007DCFE091B90181E08E0F8093B901F0E0B7
:10172000EA56FE4F80818093BB009091B901809171
:10173000B80129C0809109028093BB0085EC809399
:10174000BC0064CF90912B0280912A02981758F523
:10175000E0912B0281E08E0F80932B02F0E0E65F98
:10176000FD4F8081E9CFE0912B0281E08E0F8093C5
:101770002B028091BB00F0E0E65FFD4F80839091EB
:101780002B0280912A029817C8F285E8D8CFE09101
:101790002B0281E08E0F80932B028091BB00F0E042
:1017A000E65FFD4F808380912D0281115CCF81E047
:1017B0008093080284EA8093BC0010922E0226CF08
:1017C00085EC8093BC0010922E028091DC01803267
:1017D00030F4E091DC01F0E0E454FE4F10826091BF
:1017E000DC0170E0E091BA01F091BB018CEB91E07B
:1017F00009951092DC010ACF10922C0234CFCF93BE
:10180000DF93E8E5F2E01382128288EE93E0A0E035
:10181000B0E084839583A683B7832AE031E03183E7
:10182000208325EC30E03587248724EC30E03787AF
:10183000268720EC30E0318B208B21EC30E0338B9D
:10184000228B22EC30E0358B248B26EC30E0378B7A
:10185000268B118E128E138E148EE5EFF2E013821A
:10186000128284839583A683B7838CE191E0918370
:101870008083C1E0D3E01B821A828EE291E09983DB
:1018800088831F82188680ED97E0A0E0B0E0888B07
:10189000998BAA8BBB8B86E290E0A0E0B0E08C8BAA
:1018A0009D8BAE8BBF8B1C861D861E861F861B865E
:1018B0000E94EA01688F798F8A8F9B8F1C8E1D8E04
:1018C0001E8E1F8E84E491E09983888382E090E0ED
:1018D0009AA389A380E288A390E89BA31CA290E42A
:1018E0009DA38EA380E18FA388E088A784E089A7C9
:1018F00082E08AA791E09BA78CA7DF91CF91089502
:10190000CF93DF93CDB7DEB7E9970FB6F894DEBF7C
:101910000FBECDBF789484B5826084BD84B58160EC
:1019200084BD85B5826085BD85B5816085BD8091AA
:101930006E00816080936E00109281008091810022
:10194000826080938100809181008160809381001A
:10195000809180008160809380008091B1008460DC
:101960008093B1008091B00081608093B00080913D
:101970007A00846080937A0080917A0082608093FC
:101980007A0080917A00816080937A0080917A0059
:10199000806880937A001092C100E0916802F09113
:1019A000690282E08083E0916402F0916502108216
:1019B000E0916602F09167028FEC808310927002D2
:1019C000E0916C02F0916D0286E08083E0916A0202
:1019D000F0916B02808180618083E0916A02F091D6
:1019E0006B02808188608083E0916A02F0916B02D3
:1019F000808180688083E0916A02F0916B0280812F
:101A00008F7D808380910D0381110CC080910E0326
:101A1000811108C080910F03811104C080911003CF
:101A2000882321F0809108038F7E59F010920D03D6
:101A300080E480930E0380E180930F0380E5809320
:101A4000100382E08093090380E18093080364E639
:101A500070E080E090E00E940F021092050381E0A8
:101A600093E00E948F07892B09F05CC080910903E5
:101A7000823028F08091050388608093050340E35D
:101A800062E070E081E093E00E94500565E070E064
:101A900080E090E00E940F0240E362E070E081E0AD
:101AA00093E00E94500561E070E080E090E00E94C9
:101AB0000F0240E362E070E081E093E00E94500595
:101AC00061E070E080E090E00E940F0280910503E9
:101AD00084FD07C040E262E070E081E093E00E9494
:101AE000500560910503606281E093E00E9441022D
:101AF00084E0809306036CE081E093E00E94410261
:101B000061E081E093E00E94410282E0809307035C
:101B100066E081E093E00E9441026FEF81E093E094
:101B20000E941E0580910303909104039C838B8384
:101B3000809105038D83809106038E838091070336
:101B40008F8380910803888780910903898780911A
:101B50000A038A8780910B038B8780910C038C8703
:101B600080910D0390910E03A0910F03B09110038B
:101B70008D879E87AF87B88B809111039091120358
:101B8000A0911303B0911403898B9A8BAB8BBC8B00
:101B90008091150390911603A0911703B09118033B
:101BA0008D8B9E8BAF8BB88F8091190390911A0308
:101BB000A0911B03B0911C03898F9A8FAB8FBC8FB0
:101BC00080911D0390911E03A0911F03B0912003EB
:101BD0008D8F9E8FAF8FB8A384E491E09A83898321
:101BE0008091210389A380912203909123039BA3D9
:101BF0008AA3809124038CA3809125038DA38091D7
:101C000026038EA3809127038FA38091280388A7A2
:101C10008091290389A780912A038AA780912B03A9
:101C20008BA780912C038CA780912D038DA71DAAD3
:101C30001CAA1FAA1EAA19AE18AE4FE050E066E516
:101C400071E0CE01C4960E94C7091FA61EA619AA5C
:101C500018AA1BAA1AAA46E050E066E671E0CE0177
:101C60008E960E94C70961E0CE0101960E94410252
:101C700060E0CE0101960E9479026DE671E0CE012E
:101C800001960E946A0961E0CE0101960E947902E4
:101C900010E000E070E1E72EF12C88AD99AD9701DE
:101CA000281B390BC901969587950817190748F421
:101CB0006DE871E0CE0101960E946A090F5F1F4F27
:101CC000ECCF66E571E0CE0101960E946A0964ECF2
:101CD00079E080E090E00E940F0261E0CE01019681
:101CE0000E9479026EE771E0CE0101960E946A09B6
:101CF00061E0CE0101960E94790210E000E050E11F
:101D0000E52EF12C8AA99BA9F701E81BF90BCF015D
:101D1000969587950817190748F46DE871E0CE018C
:101D200001960E946A090F5F1F4FECCF66E671E0D3
:101D3000CE0101960E946A0964EC79E080E090E0AF
:101D40000E940F0261E0CE0101960E94410264E60A
:101D500070E080E090E00E940F028EA59FA50097A2
:101D600011F00E94FA118CA99DA9009711F00E9410
:101D7000FA11E5EBF0E02491E1EAF0E084918823A8
:101D8000C9F090E0880F991FFC01EA57FF4F459179
:101D90005491FC01E458FF4FA591B4919FB7F8947A
:101DA000FA0180812095822380838C91E22FE823A1
:101DB000EC939FBF83E4B82E00E010E0B0927C006B
:101DC00080917A00806480937A0080917A0086FD09
:101DD000FCCF8091780060917900762F682F072ED4
:101DE000000C880B990B0E945E0F20E030EC4FE74F
:101DF00054E40E948E1020E030E048EC52E40E944F
:101E0000990F0E9400116B01770FEE08FF082AE07E
:101E1000B701A601F7FE0DC06DE288E592E00E94D1
:101E2000310144275527BA014C195D096E097F0914
:101E30002AE088E592E00E9479096FE871E088E580
:101E400092E00E946A0961E971E088E592E00E94EF
:101E50006A0960E081E093E00E9479022AE0B7011C
:101E6000A601F7FE0DC06DE281E093E00E94A002A2
:101E700044275527BA014C195D096E097F092AE0EC
:101E800081E093E00E9479096FE871E081E093E0DE
:101E90000E946A0964E670E080E090E00E940F0210
:101EA0000115110509F48ACF0E94FB00882309F46B
:101EB00085CF0E94000082CFE89409C097FB3EF4D2
:101EC00090958095709561957F4F8F4F9F4F992387
:101ED000A9F0F92F96E9BB279395F6958795779505
:101EE0006795B795F111F8CFFAF4BB0F11F460FFC5
:101EF0001BC06F5F7F4F8F4F9F4F16C0882311F01D
:101F000096E911C0772321F09EE8872F762F05C030
:101F1000662371F096E8862F70E060E02AF09A95CB
:101F2000660F771F881FDAF7880F9695879597F9C0
:101F300008950E94AC0F0C941D100E940F1038F0F1
:101F40000E94161020F0952311F00C9406100C94AA
:101F50000C1011240C9451100E942E1070F3959FB8
:101F6000C1F3950F50E0551F629FF001729FBB2790
:101F7000F00DB11D639FAA27F00DB11DAA1F649F2C
:101F80006627B00DA11D661F829F2227B00DA11DDF
:101F9000621F739FB00DA11D621F839FA00D611D65
:101FA000221F749F3327A00D611D231F849F600D86
:101FB000211D822F762F6A2F11249F5750409AF0AF
:101FC000F1F088234AF0EE0FFF1FBB1F661F771F3B
:101FD000881F91505040A9F79E3F510580F00C9406
:101FE00006100C9451105F3FE4F3983ED4F38695AD
:101FF00077956795B795F795E7959F5FC1F7FE2BA6
:10200000880F911D9695879597F9089597F99F6781
:1020100080E870E060E008959FEF80EC0895002470
:102020000A941616170618060906089500240A943D
:1020300012161306140605060895092E0394000CC3
:1020400011F4882352F0BB0F40F4BF2B11F460FF52
:1020500004C06F5F7F4F8F4F9F4F089557FD90587B
:10206000440F551F59F05F3F71F04795880F97FB5C
:10207000991F61F09F3F79F0879508951216130616
:102080001406551FF2CF4695F1DF08C01616170645
:102090001806991FF1CF869571056105089408957A
:1020A000E894BB2766277727CB0197F908952F92ED
:1020B0003F924F925F926F927F928F929F92AF92D8
:1020C000BF92CF92DF92EF92FF920F931F93CF9325
:1020D000DF93CDB7DEB7CA1BDB0B0FB6F894DEBFBC
:1020E0000FBECDBF09942A88398848885F846E84E2
:1020F0007D848C849B84AA84B984C884DF80EE802C
:10210000FD800C811B81AA81B981CE0FD11D0FB634
:10211000F894DEBF0FBECDBFED0108950E94A2105E
:102120000C941D100E94161058F00E940F1040F0E1
:1021300029F45F3F29F00C94061051110C945110B2
:102140000C940C100E942E1068F39923B1F35523C0
:1021500091F3951B550BBB27AA27621773078407BA
:1021600038F09F5F5F4F220F331F441FAA1FA9F350
:1021700035D00E2E3AF0E0E832D091505040E6953E
:10218000001CCAF72BD0FE2F29D0660F771F881F9F
:10219000BB1F261737074807AB07B0E809F0BB0B92
:1021A000802DBF01FF2793585F4F3AF09E3F5105A6
:1021B00078F00C9406100C9451105F3FE4F3983EB5
:1021C000D4F3869577956795B795F7959F5FC9F78F
:1021D000880F911D9695879597F90895E1E0660F10
:1021E000771F881FBB1F621773078407BA0720F089
:1021F000621B730B840BBA0BEE1F88F7E0950895F2
:102200000E9407116894B1110C94511008950E9416
:10221000361088F09F5798F0B92F9927B751B0F032
:10222000E1F0660F771F881F991F1AF0BA95C9F75A
:1022300014C0B13091F00E945010B1E008950C9498
:102240005010672F782F8827B85F39F0B93FCCF34B
:10225000869577956795B395D9F73EF490958095D7
:10226000709561957F4F8F4F9F4F0895A1E21A2E71
:10227000AA1BBB1BFD010DC0AA1FBB1FEE1FFF1F2A
:10228000A217B307E407F50720F0A21BB30BE40B7A
:10229000F50B661F771F881F991F1A9469F76095C1
:1022A0007095809590959B01AC01BD01CF0108957B
:1022B000EE0FFF1F0590F491E02D09940F931F93EB
:1022C000CF93DF938230910510F482E090E0E091AB
:1022D0003003F091310330E020E0B0E0A0E030972F
:1022E00099F42115310509F44AC0281B390B243013
:1022F0003105D8F58A819B816115710589F1FB0152
:1023000093838283FE0111C0408151810281138138
:1023100048175907E0F04817590799F4109761F0EA
:1023200012960C93129713961C933296CF01DF915D
:10233000CF911F910F9108950093300310933103B3
:10234000F4CF2115310551F04217530738F0A90198
:10235000DB019A01BD01DF01F801C1CFEF01F9CF27
:102360009093310380933003CDCFFE01E20FF31F32
:10237000819391932250310939832883D7CF2091BB
:102380002E0330912F03232B41F420910201309131
:10239000030130932F0320932E03209100013091ED
:1023A00001012115310541F42DB73EB740910401DB
:1023B00050910501241B350BE0912E03F0912F0362
:1023C000E217F307A0F42E1B3F0B2817390778F00C
:1023D000AC014E5F5F4F2417350748F04E0F5F1F6B
:1023E00050932F0340932E03819391939FCFF0E05E
:1023F000E0E09CCFCF93DF930097E9F0FC013297A8
:1024000013821282A0913003B0913103ED0130E0CC
:1024100020E01097A1F420813181820F931F209139
:102420002E0330912F032817390709F061C0F0936C
:102430002F03E0932E03DF91CF910895EA01CE1789
:10244000DF07E8F54A815B819E0141155105B1F72F
:10245000E901FB83EA8349915991C40FD51FEC1719
:10246000FD0761F4808191810296840F951FE90137
:1024700099838883828193819B838A83F0E0E0E063
:1024800012968D919C9113970097B9F52D913C91DF
:102490001197CD010296820F931F20912E03309148
:1024A0002F032817390739F6309751F51092310369
:1024B00010923003B0932F03A0932E03BCCFD3838D
:1024C000C28340815181840F951FC817D90761F4D9
:1024D0004E5F5F4F88819981480F591F5183408318
:1024E0008A819B81938382832115310509F0B0CFC6
:1024F000F0933103E09330039ECFFD01DC01C0CFA8
:1025000013821282D7CFB0E0A0E0E9E8F2E10C94A8
:1025100059108C01009751F4CB010E945E118C017F
:10252000C801CDB7DEB7E0E10C947510FC01E60FF1
:10253000F71F9C0122503109E217F30708F49DC0F0
:10254000D901CD91DC911197C617D70798F0C53006
:10255000D10530F3CE0104978617970708F3C61B01
:10256000D70B2297C193D1936D937C93CF010E9497
:10257000FA11D6CF5B01AC1ABD0A4C018C0E9D1E20
:10258000A0913003B0913103512C412CF12CE12C5E
:10259000109731F580912E0390912F03881599059E
:1025A00009F05CC04616570608F058C0809100013B
:1025B00090910101009741F48DB79EB740910401BD
:1025C00050910501841B950BE817F90708F055C0D9
:1025D000F0932F03E0932E03F90171836083A0CF62
:1025E0008D919C91119712966C90129713967C90F6
:1025F0001397A815B90559F56C0142E0C40ED11C1A
:10260000CA14DB0420F1AC014A195B09DA01129605
:10261000159780F06282738251834083D9016D9354
:102620007C93E114F10471F0D7011396FC93EE93BF
:10263000129776CF22968C0F9D1FF901918380838C
:10264000F301EFCFF0933103E093300369CF4816E5
:10265000590608F42C017D01D3019ACFCB010E94C9
:102660005E117C01009749F0AE01B8010E9445134C
:10267000C8010E94FA11870153CF10E000E050CF4B
:1026800081E090E0F8940C945513FB01DC0102C04A
:1026900001900D9241505040D8F70895FB01DC01A4
:0E26A00001900D920020E1F70895F894FFCF0D
:1026AE000000320380000000000031019100BE00E6
:1026BE007E01EF00CD00E1000000000090046304F5
:1026CE00C40539045C0449043A0400000000A00269
:1026DE009100C405C705C405C105C509BE05BE05E3
:1026EE0000000000A0029100C405C7058F079406E4
:1026FE0050051E05BE054C6967687453656E736F91
:10270E00722D4C63640076302E312E3000544D45C0
:10271E00656475636174696F6E2E636F6D00202042
:10272E0020202020202020202020202020200025B6
:04273E00000D0A0080
:00000001FF
