:100000000C9442070C946A070C946A070C946A07D4
:100010000C946A070C946A070C946A070C946A079C
:100020000C946A070C946A070C946A070C946A078C
:100030000C946A070C946A070C946A070C946A077C
:100040000C941B1A0C946A070C946A070C946A07A8
:100050000C946A070C946A070C946A070C946A075C
:100060000C94651A0C946A07000103070F1F3F7F69
:100070000080C0E0F0F8FCFE00000000003E5B4F96
:100080005B3E3E6B4F6B3E1C3E7C3E1C183C7E3CF8
:10009000181C577D571C1C5E7F5E1C00183C180006
:1000A000FFE7C3E7FF0018241800FFE7DBE7FF3096
:1000B000483A060E2629792926407F050507407F04
:1000C00005253F5A3CE73C5A7F3E1C1C08081C1C77
:1000D0003E7F14227F22145F5F005F5F06097F016D
:1000E0007F006689956A606060606094A2FFA29458
:1000F00008047E040810207E201008082A1C080826
:100100001C2A08081E101010100C1E0C1E0C303873
:100110003E3830060E3E0E06000000000000005F74
:1001200000000007000700147F147F14242A7F2A90
:100130001223130864623649562050000807030052
:10014000001C2241000041221C002A1C7F1C2A089E
:10015000083E080800807030000808080808000001
:1001600060600020100804023E5149453E00427F75
:10017000400072494949462141494D331814127FC4
:100180001027454545393C4A494931412111090764
:100190003649494936464949291E000014000000E5
:1001A00040340000000814224114141414140041B7
:1001B00022140802015909063E415D594E7C121174
:1001C000127C7F494949363E414141227F414141AC
:1001D0003E7F494949417F090909013E4141517327
:1001E0007F0808087F00417F41002040413F017F98
:1001F000081422417F404040407F021C027F7F0460
:1002000008107F3E4141413E7F090909063E4151A8
:10021000215E7F09192946264949493203017F0198
:10022000033F4040403F1F2040201F3F4038403F99
:10023000631408146303047804036159494D4300AF
:100240007F4141410204081020004141417F0402E6
:10025000010204404040404000030708002054547D
:1002600078407F284444383844444428384444285B
:100270007F385454541800087E090218A4A49C78AE
:100280007F0804047800447D40002040403D007F0A
:100290001028440000417F40007C047804787C08EA
:1002A0000404783844444438FC18242418182424BE
:1002B00018FC7C08040408485454542404043F44A3
:1002C000243C4040207C1C2040201C3C4030403CD2
:1002D00044281028444C9090907C4464544C440032
:1002E0000836410000007700000041360800020196
:1002F0000204023C2623263C1EA1A161123A404082
:10030000207A3854545559215555794122545478FE
:1003100042215554784020545579400C1E52721297
:100320003955555559395454545939555454580020
:1003300000457C410002457D420001457C407D1224
:1003400011127DF0282528F07C5455450020545486
:100350007C547C0A097F4932494949323A44444431
:100360003A324A4848303A4141217A3A424020786C
:10037000009DA0A07D3D4242423D3D4040403D3C6D
:1003800024FF2424487E4943662B2FFC2F2BFF0992
:1003900029F620C0887E0903205454794100004486
:1003A0007D413048484A32384040227A007A0A0A71
:1003B000727D0D19317D2629292F282629292926E4
:1003C00030484D4020380808080808080808382F29
:1003D00010C8ACBA2F102834FA00007B00000814B3
:1003E0002A142222142A14085500550055AA55AA89
:1003F00055AAFF55FF55FF000000FF00101010FF29
:1004000000141414FF001010FF00FF1010F010F083
:10041000141414FC001414F700FF0000FF00FF1474
:1004200014F404FC141417101F10101F101F1414C0
:10043000141F00101010F0000000001F101010100A
:100440001F10101010F010000000FF1010101010FE
:1004500010101010FF10000000FF140000FF00FF3C
:1004600000001F10170000FC04F4141417101714D8
:1004700014F404F40000FF00F714141414141414FA
:10048000F700F7141414171410101F101F1414146D
:10049000F4141010F010F000001F101F0000001FD7
:1004A00014000000FC140000F010F01010FF10FF0A
:1004B000141414FF141010101F00000000F010FF9F
:1004C000FFFFFFFFF0F0F0F0F0FFFFFF0000000083
:1004D00000FFFF0F0F0F0F0F3844443844FC4A4A07
:1004E0004A347E02020606027E027E0263554941BC
:1004F000633844443C04407E201E2006027E0202F3
:1005000099A5E7A5991C2A492A1C4C7201724C3006
:100510004A4D4D303048784830BC625A463D3E49DD
:100520004949007E0101017E2A2A2A2A2A44445F81
:10053000444440514A444040444A51400000FF0175
:1005400003E080FF000008086B6B08361236243683
:10055000060F090F060000181800000010100030E8
:1005600040FF0101001F01011E00191D1712003C70
:100570003C3C3C00000000000000000800020100BC
:10058000000304070000000000000000DB40A4A6F8
:100590002EAF2000A1C8D300408DAED580A80000AA
:1005A000600000000000000000000000000000E00B
:1005B0000000000000000000000000000001E0005A
:1005C00000000000000000000000000001F000003A
:1005D000000000000000000000000003F000000028
:1005E0000000000000000000000007F00000000014
:1005F00000000000000000000007F80000000000FC
:1006000000000000000000000FF800000003C00020
:100610007E000001E0007F0FF800000003C000FE34
:10062000000001E000FFEFF800000003C000FE0042
:100630000001E000FFFFF800000003C000F0000030
:10064000000F007FFE7FC0000003C000F00000002C
:100650000F003FFE7FF83FF1FBCFFCFEF3BC3DEF08
:10066000E01FFE7FFF7FFBFFDFFEFEFFBC3DEFE0F4
:100670001FC6FFFF7FFBFFDFFEFEFFBC3DEFE00F6D
:10068000E3C7FE787BC3DE1EF0FFBC3DEF0007FF33
:1006900087FC787BC3DE1EF0F83C3DEF0001FFFFD6
:1006A000F0007BC3C01EF0F03C3DEF0001F37FE0A3
:1006B0003FFBC3CFFEF0F03C3DEF0003E33F807F04
:1006C000FBC3DFFEF0F03C3DEF0007E73C00787B2A
:1006D000C3DE1EF0F03C3DEF0007FFBE00787BC399
:1006E000DE1EF0F03C3DEF0007FFFE00787BC3DE2E
:1006F0001EF0F03C3DEF000FFFFE007FFBFFDFFE32
:10070000F0F03FFDEFE00FFFFF007FFBFFDFFEF0AB
:10071000F03FFDEFE00FF9FF003E79F9CF9EF0F0DA
:100720001F3DE7E01FF1FF00000000000000000097
:100730000000001F80FF007FFFFFFFFFFFFFFFFFA4
:10074000FFE01C007F007FFFFFFFFEB46D888D1867
:10075000E000001F007FFFFFFFFE95AD7DB577E055
:1007600000000F007FFFFFFFFEA5AD9D8D19E0008B
:100770000006007FFFFFFFFEB5ADEDB57EE0000097
:100780000000000180000000000000000000038065
:1007900000000000000000000007C0000000000092
:1007A0000000000007C00000000000000000000F73
:1007B000C00000000000000000001FE0000000007A
:1007C00000000000001FE00000000000000000002A
:1007D0003FE00000000000000000003FF0000000CB
:1007E0000000000000007FF0000000000000001F7B
:1007F000F87FF0000000000000003FFE7FF00000E6
:1008000000000000003FFF7FF0000000000000003B
:100810001FFFFBE0000000000000000FFFF9FFC019
:100820000000000000000FFFF9FFF80000000000CA
:100830000007FFF1FFFF00000000000003FC73FF52
:10084000FF80000000000001FE3FFFFF800000006D
:10085000000000FF1E0FFF000000000000007FFEF0
:100860001FFC000000000000003FFFFFF800000038
:10087000000000000FDFFFE0000000000000001F8C
:1008800019FFC0000000000000003F3CFF00000016
:1008900000000000007E7CF8000000000000000066
:1008A0007FFE7C0000000000000000FFFFFC000055
:1008B000000000000000FFFFFE000000000000003C
:1008C00000FFFFFE0000000000000001FFEFFE003F
:1008D00000000000000001FFCFFE0000000000004B
:1008E0000003FF07FE0000000000000003FC07FEFD
:1008F0000000000000000003F003FE000000000004
:100900000000018000FE0000000000000000000068
:100910007E000000000000000000003E000000001B
:100920000000000000000C00000000000007800034
:10093000FC000003C0000000078001FC000003C0B1
:10094000000000078001FC000003C00000000780D9
:1009500001E00000001E000000078001E000000030
:100960001E007FE3F79FF9FDE7787BDFC0FFF7FF0D
:10097000BFFDFDFF787BDFC0FFF7FFBFFDFDFF7808
:100980007BDFC0F0F787BC3DE1FF787BDE00F0F74E
:1009900087BC3DE1F0787BDE0000F787803DE1E039
:1009A000787BDE007FF7879FFDE1E0787BDE00FF4C
:1009B000F787BFFDE1E0787BDE00F0F787BC3DE123
:1009C000E0787BDE00F0F787BC3DE1E0787BDE007D
:1009D000F0F787BC3DE1E0787BDE00FFF7FFBFFD6D
:1009E000E1E07FFBDFC0FFF7FFBFFDE1E07FFBDF62
:1009F000C07CF3F39F3DE1E03E7BCFC000000000F0
:100A000000000000000000FFFFFFFFFFFFFFFFFFEF
:100A1000FFC0FFFFFFFFFD68DB111A31C0FFFFFFC2
:100A2000FFFD2B5AFB6AEFC0FFFFFFFFFD4B5B3B57
:100A30001A33C0FFFFFFFFFD6B5BDB6AFDC02200C6
:100A4000FF2100FFFFFFFFFFFFFFFFFFFFFFF01F82
:100A5000FFFFFFFFFFFFFFFFFFFFFFFFFFFE0FE0B6
:100A60007FFFFFFFFFFFFFFFFFFFFFFFFFF9FFFF1C
:100A70009FFFFFFFFFFFFFFFFFFFFFFFFFC7FFFF1E
:100A8000E7FFFFFFFFFFFFFFFFFFFFFFFF3FFFFF4E
:100A9000F9FFFFFFFFFFFFFFFFFFFFFFFEFFFFFF6D
:100AA000FE7FFFFFFFFFFFFFFFFFFFFFF9FFFFFFDD
:100AB000F99FFFFFFFFFFFFFFFFFFFFFF7FFE7FFCC
:100AC000000FFFFFFFFFFFFFFFFFFFFFFE7F81F82B
:100AD0000007FFFFFFFFFFFFFFFFFFFFFF3F00F0EB
:100AE000FF03FFFFFFFFFFFFFFFFFFFFFFFFFFFF12
:100AF000800FFFFFFFFFFFFFFFFFFFFFFFFE200054
:100B000003F87FFFFFFFFFFFFFFFFFFFFFF0200065
:100B1000FC03FFFFFFFFFFFFFFFFFFFFFFF0203F92
:100B2000007FFFFFFFFFFFFFFFFFFFFFFFB027C0BA
:100B30000FC0FFFFFFFFFFFFFFFFFFFFFF3CF800BD
:100B4000FC03FFFFFFFFFFFFFFFFFFFFFF3F801FD3
:100B500080FEEFFFFFFFFFFFFFFFFFFFFE3C00F007
:100B60000F838FFFFFFFFFFFFFFFFFFFFE300F012F
:100B7000F81C07FFFFFFFFFFFFFFFFFFFFE0F01F75
:100B800080E00FFFFFFFFFFFFFFFFFFFFFC701F840
:100B90000F03FBFFFFFFFFFFFFFFFFFFFFFC1F80B7
:100BA000F0FFC3FFFFFFFFFFFFFFFFFFFFF3EF9F1C
:100BB000FFCE03FFFFFFFFFFFFFFFFFFFC3B8FF0B8
:100BC000007001FFFFFFFFFFFFFFFFFFFC7D90387C
:100BD00003801FFFFFFFFFFFFFFFFFFFFC7FF82EDB
:100BE0001C03E3FFFFFFFFFFFFFFFFFFFFCFFE62DE
:100BF000703E03FFFFFFFFFFFFFFFFFFFF03FEC38A
:100C000087C001FFFFFFFFFFFFFFFFFFFE0FFF8019
:100C1000FFFFFFFFFFFFFFFFFFFFFFFFFC7307EF7B
:100C2000F001F8FFFFFFFFFFFFFFFFFFF98E03F664
:100C3000007F01FFFFFFFFFF005FDC1FFE180207C0
:100C40000FE003FFFFFFFFFFF7CF9DFFF8600309F1
:100C5000FC07FFFFFFFFFFFFF7D79DFFF0C01FB1AD
:100C6000E0F83FFFFFFFFFFFF7D75DFFF181F1C71E
:100C7000FE3C3FFFFFFFFFFFF7DADC3FF20F01FF13
:100C8000F87FDFFFFFFFFFFFF7DADDFFF478007F7B
:100C9000FCFF3FFFFFFFFFFFF7DDDDFFFFC007EFBA
:100CA000FFFFFFFFFFFFFFFFF7DFDDFFFC07FC0F8C
:100CB000FFFFFFFFFFFFFFFFF7DFDC1FFFF8001F55
:100CC000FFFCFDFFFFFFFFFFFFFFFFFFFFFC003FFB
:100CD000FFFE71FFFFFFFFFFFFFFFFFFFFFF807FB2
:100CE000FFFFF1FFFFFFFFFFFFFFFFFFFFFCFFFF25
:100CF000FFFF3BFFFFFFFFFFFFFFFFFFFFFC01FFC9
:100D0000FFFFFF02079F383E7009E1E79FFC03FFEA
:100D1000FFFFFF02019F301C300980639FFFFFFF30
:100D2000FFFFFF3E799F279C3E791E219FFE00EF2B
:100D3000FFFFFF3E7C9F27F9BE793F209FFC01CF3C
:100D4000FFFFFF067C9F27F99E793F241FFFFFCFFF
:100D5000FFFFFF067C9F27F99E793F261FFE03FFBA
:100D6000FFFFFF3E788E279BDE791E271FFE039F25
:100D7000FFFFFF0201803013CE7980679FFF1F9F26
:100D8000FFFFFF0203C07833CE79C0E79FFFF7BFB4
:100D9000FFFFFFFFFFFFFFFFFFFFFFFFFFFF0FFF53
:100DA000FFFFFFFFFFFFFFFFFFFFFFFFFFFFBFFF93
:100DB000FFFEFFFFFFFFFFFFFFFFFFFFFFFFFFFF44
:100DC000FFFDFFFFFFFFFFFFFFFFFFFFFFFFFFFF35
:100DD000FFF3FFFFFFFFFFFFFFFFFFFFFFFFFFFF2F
:100DE000FFEFFFFFFFFFFFFFFFFFFFFFFFFFFFFF23
:100DF000FF9FFFFFFFFFE0BA3FBFFEDFFFFFFFFFE8
:100E0000FE7FFFFF75D77B92E3BFFC7FFFFFFFFFF5
:100E1000FDFFFFFF75D77BAA222A46D17C8BFFFFFF
:100E2000F3FFFFFF55557BBAEEAAD6D51DA83EFFAE
:100E30008FFFFFFFAEBADBBA22224251548ABF00B5
:100E40007FFFFF00000000250028002B00000000AD
:100E500000240027002A00040404040404040402FB
:100E60000202020202030303030303010204081047
:100E70002040800102040810200102040810200014
:100E8000841B7D2111241FBECFEFD8E0DEBFCDBF74
:100E900022E0A4EAB1E001C01D92A63EB207E1F74C
:100EA00011E0A0E0B1E0ECEEF7E402C005900D9295
:100EB000A43AB107D9F717E0C1E4D7E004C02197FD
:100EC000FE010E94E521C034D107C9F70E94261C0B
:100ED0000C94E9230C94000091E0909368028093B5
:100EE000670210926602109265020895089590E0DC
:100EF000FC01E559F14F2491895A914FFC018491ED
:100F0000882399F090E0880F991FFC01E35BF14F73
:100F1000A591B491FC01ED5BF14F859194918FB750
:100F2000F894EC91E22BEC938FBF08950895089507
:100F3000AF92BF92CF92DF92EF92FF920F931F93E7
:100F4000CF93DF936C017B018B01040F151FEB0125
:100F50005E01AE18BF08C017D10759F06991D601DC
:100F6000ED91FC910190F081E02DC6010995892B4E
:100F700079F7C501DF91CF911F910F91FF90EF900D
:100F8000DF90CF90BF90AF90089590E0FC01E858BB
:100F9000FA4F2491FC01E559F14F3491FC01E95AD3
:100FA000F14FE491EE23C9F0222339F0233001F10F
:100FB000A8F4213019F1223029F1F0E0EE0FFF1FE3
:100FC000ED5BF14FA591B4918FB7F894EC9161115D
:100FD00026C030953E233C938FBF08952730A9F05B
:100FE0002830C9F0243049F7809180008F7D03C0FC
:100FF000809180008F7780938000DFCF84B58F77DA
:1010000084BDDBCF84B58F7DFBCF8091B0008F771F
:101010008093B000D2CF8091B0008F7DF9CF3E2B6E
:10102000DACF3FB7F89480910E0290910F02A09111
:101030001002B091110226B5A89B05C02F3F19F0F0
:101040000196A11DB11D3FBFBA2FA92F982F882748
:10105000BC01CD01620F711D811D911D42E0660F23
:10106000771F881F991F4A95D1F708958F929F92F5
:10107000AF92BF92CF92DF92EF92FF924B015C0151
:101080000E9411086B017C010E9411086C197D09F6
:101090008E099F09683E734081059105A8F321E000
:1010A000821A9108A108B10888EEC80E83E0D81E04
:1010B000E11CF11C81149104A104B10429F7FF90F3
:1010C000EF90DF90CF90BF90AF909F908F9008955A
:1010D0008F929F92AF92BF92EF92FF921F93CF9306
:1010E000DF93EC01162FE881F9810484F585E02D6A
:1010F000462F70E060E009957C0111501230D8F461
:1011000019861A8688889988AA88BB880E9411083F
:10111000688F798F8A8F9B8F8C8E9D8EAE8EBF8EBF
:10112000C701DF91CF911F91FF90EF90BF90AF90DB
:101130009F908F9008958C889D88AE88BF88E6CF59
:10114000DC0118968C911897681710F06FEF680FF4
:101150001B969C911B97992391F017962C911797AA
:10116000962F211106C061E0690F90E06817D8F74B
:10117000F7CF19961C9219971A966C931A97FD013E
:10118000E60FF11D64856068CD010C9468088F92AC
:101190009F92AF92BF92EF92FF920F931F93CF93C4
:1011A000DF93EC01462FE881F9810484F585E02D79
:1011B00061E070E009957C018C889D88AE88BF88CD
:1011C0000E941108688F798F8A8F9B8F8C8E9D8EDD
:1011D000AE8EBF8E01E010E0EF2811F010E000E0CD
:1011E0008B85882391F089858F5F89879F818917F7
:1011F00060F019868A858F5F8A879885891708F03D
:101200001A866A85CE010E94A008C801DF91CF919D
:101210001F910F91FF90EF90BF90AF909F908F9094
:1012200008952091E601260F3327331F213231051F
:10123000ECF420913D02FC0190E080E0243069F064
:1012400082E00895A091E6012191AC014A535E4FDE
:10125000A40FB52FB11D2C930196861798F380919A
:10126000E601680F6093E60180E0089581E008954B
:1012700010923D0281E080933C021092370261E0BF
:1012800082E10E94C50761E083E10E94C507E9EBA6
:10129000F0E080818E7F808380818D7F808388E4F1
:1012A0008093B80085E48093BC000895CF93DF93CA
:1012B00091E09093C5018823B9F0C091B800D09116
:1012C000BA008091BC008A7B8093BC0060E082E120
:1012D0000E94C50760E083E10E94C5070E943809AB
:1012E000D093BA00C093B800DF91CF910895E091F8
:1012F000440280914302E81730F4F0E0EB5BFD4FCD
:10130000808190E008958FEF9FEF089590914402BF
:10131000809143022FEF3FEF981748F4E92FF0E058
:10132000EB5BFD4F208130E09F5F90934402C90149
:1013300008958091430290914402891B990B08956E
:10134000CF92DF92EF92FF920F931F93CF93DF9391
:101350007C01CB018A0120916802222389F0EB01F4
:101360006B01C40ED51ECC15DD0569F06991D7015E
:10137000ED91FC910190F081E02DC7010995F3CF2B
:10138000642F0E941109C801DF91CF911F910F9125
:10139000FF90EF90DF90CF900895CF93DF931F924F
:1013A000CDB7DEB76983209168022223F9F020913E
:1013B0006502203258F021E030E0FC0133832283C3
:1013C00090E080E00F90DF91CF91089580916602C8
:1013D000E82FF0E0EB55FE4F998190838F5F80936B
:1013E00066028093650281E090E0ECCF61E0CE017F
:1013F00001960E941109F7CF682F89E692E00C94BC
:10140000CD09CF92DF92EF92FF920F931F93CF936C
:10141000DF93D091650281E0D13208F09CC0C09189
:1014200067020E9411086B017C0180913D028111CD
:101430006CC082E080933D0281E080933C028FEF9C
:1014400080933B0210923A02D0933902A5EAB1E0B0
:10145000E7E1F2E080E0D8138DC01092380280916D
:101460003802CC0FC82BC0933802809137028130EC
:1014700009F084C0109237020E9411086B017C01B0
:10148000809138028093BB0080913F02909140028E
:10149000A0914102B0914202892B8A2B8B2BA1F0A3
:1014A0000E94110800913F021091400220914102D8
:1014B000309142026C197D098E099F0906171707A2
:1014C0002807390708F442C08091BC0083FDD8CFBB
:1014D00085EC8093BC000E9411086B017C01809117
:1014E0003D02823009F44CC080913B028F3F09F4E9
:1014F00069C080913B02803209F466C080913B0252
:10150000803309F463C084E026C080913F0290914B
:101510004002A0914102B0914202892B8A2B8B2B71
:1015200009F483CF0E94110800913F0210914002FC
:1015300020914102309142026C197D098E099F0968
:10154000061717072807390708F06FCF80913E026A
:101550000E94560985E01092660210926502109270
:101560006802DF91CF911F910F91FF90EF90DF9074
:10157000CF9008959D9191938F5F6DCF85EEA9CF08
:1015800080913F0290914002A0914102B0914202AD
:10159000892B8A2B8B2B09F4A2CF0E941108009172
:1015A0003F021091400220914102309142026C1999
:1015B0007D098E099F09061717072807390708F0C4
:1015C0008ECFC4CF80E0C7CF82E0C5CF83E0C3CF4A
:1015D0000895FC016370668B848195812681378133
:1015E000613039F0633029F0918780873387228713
:1015F0000895318720879387828708952F923F929D
:101600004F925F926F927F928F929F92AF92BF9212
:10161000CF92DF92EF92FF920F931F93CF93DF93BE
:10162000CDB7DEB76A970FB6F894DEBF0FBECDBF59
:101630009A8F898F7A8369834A01D22E18870F8304
:101640003701BC2CDC0159962D913C915A972115FC
:10165000310509F015C118968D919C91199768175D
:1016600079070CF0D7C11A968D919C9148175907AC
:101670000CF0D0C14C2C512CB6E0CB9E600D711DEE
:1016800011247C876B87161617060CF0C3C1EA2D50
:10169000F0E0FA87E98793E0EE0FFF1F9A95E1F7F4
:1016A000F88BEF87CF01840F951F181619060CF0E1
:1016B000B1C1A98DBA8D58968C91811104C0BFEA31
:1016C000BD1508F4D394A98DBA8DED91FC911197B5
:1016D0000284F385E02DCD010995B5E0DB9EC001C4
:1016E0001124E981FA81FC83EB83312C212C9C01AC
:1016F00028583F4F388F2F8B4A2D50E05E8B4D8BF3
:10170000EF89F88DE20DF31D44919E828D82D12CDC
:10171000C12C69817A81620D731D7A8B698B842F4C
:1017200090E09C8B8B8BE98DFA8DA081B18140FF7D
:1017300082C0F1E0BF126FC0AF126DC01C96ED9178
:10174000FC912F813885A4014C0D5D1D69897A8932
:10175000898D9A8D0995EB89FC89F595E7954E2F32
:101760005FEFC51AD50A6D817E818D899E89680FCC
:10177000791F7E836D8398E0C916D10481F6AFEF9F
:101780002A1A3A0AEB81FC81E40DF51DFC83EB83F8
:10179000F5E02F16310409F0B3CF2F8138852615D7
:1017A0003705B9F0A98DBA8DED91FC91B1E0BB126E
:1017B00057C0AB1255C069817A816B5F7F4F00883B
:1017C000F189E02D830128E030E0A401898D9A8D14
:1017D0000995A98DBA8DED91FC9111970688F7892D
:1017E000E02DCD016A960FB6F894DEBF0FBECDBFD7
:1017F000DF91CF911F910F91FF90EF90DF90CF90ED
:10180000BF90AF909F908F907F906F905F904F9020
:101810003F902F9009941E96ED91FC91EF80F884F3
:1018200009851A8592014D815E816B817C81898D4C
:101830009A8D099590CF2F8138852615370509F4A3
:101840008ACF31E0B31207C0A31205C01C96ED91F8
:10185000FC91930178CF1E96ED91FC917301E0CF3E
:101860006B857C85641975090684F785E02D730105
:101870000F8518899201A401898D9A8D0995A9CFA8
:10188000F90134969491329745915491D91AB7E061
:10189000DB9E400D511D1124F901259134913C8BA3
:1018A0002B8BFA0125903490FA0132967490319680
:1018B0003491398B329664903196449041E04C15C6
:1018C00018F04A1508F07FC0662D062C000C770B27
:1018D0007C836B83842D042C000C990B9E838D8359
:1018E000A98DBA8DED91FC9111970284F385E02DBD
:1018F000CD010995512CD12CC12CEA2DF0E0FA87AD
:10190000E9872B2D30E03C872B87A401440D511D26
:1019100047FC5A95588F4F8B69817A81660D711DEE
:1019200067FC7A957E876D877989C71608F051CF55
:101930002C2D30E04D815E81420F531FA985BA8561
:101940004A9FC0014B9F900D5A9F900D1124FC019E
:10195000E80DF91DF88BEF87852D612C4F89588D87
:10196000420F531F5E8B4D8B671408F050C0442408
:101970004394480E877041F4C1010196EB89FC89BC
:10198000E20DF31DD4901C01D7FE19C0A98DBA8DAC
:10199000ED91FC91662D70E0B1E0BB1219C0AB1265
:1019A00017C02D853E85620F731F0484F585E02DD9
:1019B0002F8138854D895E89898D9A8D0995DD0C39
:1019C0006394842DD1CF1E821D821C821B8288CFFE
:1019D0004B815C81640F751FAB85BC856A9FC0011C
:1019E0006B9F900D7A9F900D112469817A81680F09
:1019F000791F0684F785E02DEF80F88409851A8524
:101A00009D014F855889898D9A8D0995D8CF570C9E
:101A1000C3948ACF6A960FB6F894DEBF0FBECDBFCF
:101A2000DF91CF911F910F91FF90EF90DF90CF90BA
:101A3000BF90AF909F908F907F906F905F904F90EE
:101A40003F902F9008958F929F92AF92CF92EF92F6
:101A5000FF920F931F93CF93DF93EC01262F898D75
:101A60009A8D009709F051C06A30D1F41D861C860A
:101A70008D8948E0849F900111248E859F85820F77
:101A8000931F9F878E8781E090E0DF91CF911F9118
:101A90000F91FF90EF90CF90AF909F908F9008950F
:101AA0006D3089F3CC88AD888F898823C1F08C850F
:101AB0009D8536E0C39E800D911D11244885598572
:101AC0004817590764F44E855F851D861C8638E0EB
:101AD000A39EC0011124840F951F9F878E87EA88DB
:101AE000FB88088919894E855F856C857D85CE01C7
:101AF0000E94FE0A2C898C859D8546E0249F800DDE
:101B0000911D11249D878C87BECF6A3069F41D8694
:101B10001C86FC013896E4912D898E859F85E29F75
:101B2000800D911D1124ADCF6D3009F4ACCFFC01B7
:101B300034963491631708F4A6CF3296E491E617F1
:101B400008F4A1CFFC01329685909490462F431B58
:101B5000342F47E0349F800C911C1124F4013296FD
:101B600034913196E4913323A9F1EE2399F1CC8895
:101B7000F4013596E491AD884F89442301F10E2E8E
:101B8000000CFF0BE30FF11DCE9EA001CF9E500D68
:101B900011246C857D85460F571F688579856417EC
:101BA00075076CF44E855F851D861C86FC01389692
:101BB000E491AE9E400D511D11245F874E87EA8847
:101BC000FB88088919894E855F856C857D85CE01E6
:101BD0000E94FE0AF4013496E4912C898C859D853F
:101BE000E29F800D911D11248DCF6F927F928F9275
:101BF0009F92AF92BF92CF92DF92EF92FF920F939C
:101C00001F93CF93DF93EC016B015A013901480117
:101C1000E881F9810284F385E02D0995E881F98155
:101C20000288F389E02D87019301A501B601CE0159
:101C30000995A501480D591D41505109E881F981C7
:101C40000288F389E02D9301B601CE010995E88160
:101C5000F9810088F189E02D9401A501B601CE013A
:101C60000995C60CD71CB60161507109E881F9814C
:101C70000088F189E02D9401A501CE010995E88144
:101C8000F9810688F789E02DCE01DF91CF911F9170
:101C90000F91FF90EF90DF90CF90BF90AF909F900B
:101CA0008F907F906F9009946F927F928F929F9206
:101CB000AF92BF92CF92DF92EF92FF920F931F935A
:101CC000CF93DF935C01EB016A0149013801870181
:101CD000DC01ED91FC916217730719F56416750626
:101CE0002CF0962D872D3A01C92ED82E9601261953
:101CF00037092F5F3F4F048CF58DE02DA301BE0106
:101D0000C5010995DF91CF911F910F91FF90EF9041
:101D1000DF90CF90BF90AF909F908F907F906F900B
:101D200008954615570591F42617370724F0892D95
:101D30004B01C22FD82F9E01281939092F5F3F4F21
:101D4000068CF78DE02DA601B401DACF0284F3856D
:101D5000E02D0995D501ED91FC910488F589E02DE0
:101D600083019401A601BE01C5010995D501ED913C
:101D7000FC910688F789E02DC501DF91CF911F9175
:101D80000F91FF90EF90DF90CF90BF90AF909F901A
:101D90008F907F906F900994EF92FF920F931F9313
:101DA000DC011A960D911C911B9718962D913C9170
:101DB0001997ED91FC9100A0F1A1E02D7B0150E07D
:101DC00040E070E060E009951F910F91FF90EF9067
:101DD00008954F925F926F927F928F929F92AF92EF
:101DE000BF92CF92DF92EF92FF920F931F93CF9308
:101DF000DF936C012B015A0139014801DC01ED919F
:101E0000FC910284F385E02D0995E201640C751CB8
:101E1000D601ED91FC91C615D7055CF40088F189D7
:101E2000E02D87019401A501BE01C6010995219607
:101E3000EFCF0688F789E02DC601DF91CF911F9182
:101E40000F91FF90EF90DF90CF90BF90AF909F9059
:101E50008F907F906F905F904F9009948F929F9298
:101E6000AF92BF92CF92DF92EF92FF920F931F93A8
:101E7000CF93DF93EC015B014A016901E881F981AD
:101E80000284F385E02D099595012C0D3D1D21500F
:101E90003109E881F9810488F589E02D7801840110
:101EA000A401B501CE010995E881F9810688F78979
:101EB000E02DCE01DF91CF911F910F91FF90EF9018
:101EC000DF90CF90BF90AF909F908F9009948F92AA
:101ED0009F92AF92BF92CF92DF92EF92FF920F93B9
:101EE0001F93CF93DF93EC015B014A0169017801F5
:101EF000E881F9810284F385E02D0995C80CD91C8D
:101F0000860101501109E881F9810488F589E02DE5
:101F10009501A401B501CE010995E881F9810688F2
:101F2000F789E02DCE01DF91CF911F910F91FF90A6
:101F3000EF90DF90CF90BF90AF909F908F900994DB
:101F4000EF92FF920F931F93DC01ED91FC9100A0A3
:101F5000F1A1E02D09951F910F91FF90EF90089549
:101F60000F931F93DC01ED91FC91068CF78DE02D12
:101F700009951F910F9108950F931F93DC01ED9127
:101F8000FC91048CF58DE02D09951F910F9108951A
:101F9000DC01ED91FC910084F185E02D09943F92E4
:101FA0004F925F926F927F928F929F92AF92BF9269
:101FB000CF92DF92EF92FF920F931F93CF93DF9315
:101FC00000D000D0CDB7DEB75C013B016A0149010A
:101FD000280187E0480E511C93E0559447949A9548
:101FE000E1F7CA018E0D9F1D9A838983F12CE12CA4
:101FF000312C1C821B828B819C8187709927330C2A
:10200000892B61F4EB81FC8183E0F595E7958A9556
:10201000E1F7EE0DFF1DE80DF91D349037FE0AC003
:1020200021E030E0A6016B817C81660D771DC50142
:102030000E94C80F8B819C8101969C838B8308171B
:102040001907C9F69FEFC91AD90AE40CF51C898152
:102050009A81C816D90669F60F900F900F900F90CD
:10206000DF91CF911F910F91FF90EF90DF90CF9074
:10207000BF90AF909F908F907F906F905F904F90A8
:102080003F9008952F923F924F925F926F927F926E
:102090008F929F92AF92BF92CF92DF92EF92FF9278
:1020A0000F931F93CF93DF9300D000D000D0CDB714
:1020B000DEB73C016A013E832D83FC82EB8258012E
:1020C000A41AB50AB7FE03C0B194A194B1088D80DB
:1020D0009E80861A970A97FE03C091948194910876
:1020E0008A149B045CF0902F812F0D811E819D83AB
:1020F0008E839C2D8D2D6B01692F782F0C151D055E
:102100005CF09D818E817E836D83692F782F902F67
:10211000812F8601C92ED82E1601201A310A2B01D3
:102120002D813E81421A530A57FE03C051944194B7
:102130005108710137FE03C03FEFE31AF30AF5942B
:10214000E7948D819E81861797075CF5A1E0B0E04A
:10215000BA83A983C016D1064CF1D301ED91FC914D
:102160000484F585E02D2B813C81A8016D817E8161
:102170008A149B041CF04D815E81B801C30109954E
:10218000E418F508F7FE0AC02D813E8189819A8105
:10219000280F391F3E832D83E20CF31C0F5F1F4F66
:1021A000D9CF2FEF3FEF3A832983D4CF26960FB6AE
:1021B000F894DEBF0FBECDBFDF91CF911F910F917D
:1021C000FF90EF90DF90CF90BF90AF909F908F9057
:1021D0007F906F905F904F903F902F900895EF9277
:1021E000FF920F931F93CF93DF93EC01EC80FD8060
:1021F0006E157F050CF070C057FF04C0240F351F0B
:1022000050E040E08E819F81FA01E20FF31F8E17AC
:102210009F071CF49C01241B350B121613060CF0AF
:102220005BC0922F842F8695869586958E9DD001D2
:102230008F9DB00D11246A0F7B1FAF8DB8A1A60F23
:10224000B71F477049F188E0841B482F682F70E062
:10225000FB01E059FF4FE491281708F063C0621BAF
:1022600071092FEF30E002C0359527956A95E2F7A6
:10227000E2230130110539F0B0F10230110561F5AA
:102280008C91E82702C08C91E82BEC93941720F1F5
:102290002C813D81A20FB31FE92FE41BE83078F0B9
:1022A0000230110521F58E2F9C9190959C932C81E5
:1022B0003D81A20FB31F88508830B0F7E770EE233E
:1022C00059F0F0E0E859FF4FE49101301105F9F0C1
:1022D00010F10230110519F1DF91CF911F910F918B
:1022E000FF90EF900895E0958C91E823CECF81E0A8
:1022F0000115110509F480E081959E2F8C932C81A6
:102300003D81A20FB31F98509830C0F7D7CF8C9162
:10231000E82BEC93E1CFE0958C91E823FACF8C91F8
:10232000E827F7CF0130110509F4ADCFE0F2023014
:10233000110509F4A5CFAE0DBF1DAECF0F931F93AE
:10234000CF93DF9377FF04C0260F371F70E060E064
:10235000DC011496CD91DC91FB01E20FF31FCE1747
:10236000DF071CF49E01261B370B121613064CF5D3
:10237000FA0157FD3796A3E0F595E795AA95E1F7A1
:10238000EC9FD001ED9FB00DFC9FB00D11246A0FA2
:102390007B1FDC015F96ED91FC91E60FF71F477004
:1023A000552781E090E001C0880F4A95EAF7482F51
:1023B0000130110559F0A8F02E0F3F1F0230110512
:1023C000E1F0DF91CF911F910F9108952E0F3F1FE4
:1023D000E217F307B1F38191DF011197842B8C93FE
:1023E000F7CF80952E0F3F1FE217F30751F391911E
:1023F000DF01119798239C93F7CFE217F30709F3B6
:102400008191DF01119784278C93F7CF0F931F934E
:10241000FA01DC0156964C9156974230E9F0433070
:10242000A1F1413061F514964D915C91DA01AE1B3A
:10243000BF0BFD01E21BF30B77FD0BC0DC01169611
:102440004D915C916417750724F4AB01BF010E94A4
:102450009E111F910F91089514964D915C91DA0190
:10246000A61BB70BBD0161507109DC0116964D9199
:102470005C91DA01AE1BBF0BFD01E21BF30B77FD94
:10248000E8CFAF010E94EF10E4CF16964D915C911A
:10249000DA01A61BB70BBD0161507109CDCF0F93B7
:1024A0001F93FA01DC0156964C9156974230A9F0E1
:1024B000433091F1413019F514964D915C91DA0158
:1024C000AE1BBF0BFD013197F7FD04C0AB01BF018F
:1024D0000E94EF101F910F91089514964D915C91F9
:1024E000DA01A61BB70BBD01DC0116964D915C917C
:1024F000DA01AE1BBF0BFD013197621B730BF7FDB9
:10250000E9CFDC0116964D915C91E417F50714F7BD
:10251000AF010E949E11DECF16964D915C91DA01BB
:10252000A61BB70BBD01621B730BCECFFC0177FD61
:1025300064C080859185681779070CF05EC057FDEF
:102540005CC082859385481759070CF056C0868970
:102550008230B1F0833029F1813041F4848195815A
:10256000841B950BAB01BC01615071092130310511
:1025700009F108F443C02230310509F463C008951D
:1025800084819581DC01A61BB70BBD0161507109E7
:1025900086819781DC01A41BB50BAD014150510927
:1025A000E5CF86819781861B970BBA01AC0141501C
:1025B0005109DCCFCA0157FD0796A3E09595879591
:1025C000AA95E1F7A481B5818A9F90018B9F300D78
:1025D0009A9F300D1124620F731F078CF0A1E02D1C
:1025E000E60FF71F4770552721E030E001C0220FAA
:1025F0004A95EAF78081822B80830895CA0157FDAE
:10260000079633E0959587953A95E1F7A481B581D2
:102610008A9F90018B9F300D9A9F300D1124620F7D
:10262000731F078CF0A1E02DE60FF71F47705527A9
:1026300081E090E001C0880F4A95EAF7809590818B
:102640008923DACFCA0157FD079623E09595879530
:102650002A95E1F7A481B5818A9F90018B9F300D67
:102660009A9F300D1124620F731F078CF0A1E02D8B
:10267000E60FF71F4770552721E030E001C0220F19
:102680004A95EAF780818227B7CF08958EBD000072
:102690000DB407FEFDCF8EB50895FF920F931F93E3
:1026A000CF93DF93F82ED92FC62F8091920290916D
:1026B0009302892B09F447C0809196020E946C070F
:1026C0008091920290919302DC01ED91FC91019036
:1026D000F081E02D60E009950F2D1D2FD1E0C15054
:1026E0008091920290919302CF3F31F1D03298F0D5
:1026F0000E94010A809196020E946C0780919202CA
:1027000090919302DC01ED91FC910190F081E02D1C
:1027100060E00995D1E08091920290919302F801D6
:102720006491DC01ED91FC910190F081E02D09951F
:10273000DF5F0F5F1F4FD3CFDF91CF911F910F91BD
:10274000FF900C94010AE091A202F091A302908103
:102750008091A8028095892380830F2D1D2FC15061
:1027600008F438C0F80184912091900230919102D0
:10277000232B29F00E9446130F5F1F4FF0CF28E054
:1027800030E040E8E0919E02F0919F029091A60215
:10279000582F5423D9F05081952B9083E091A002BB
:1027A000F091A10290815091A702952B9083E09126
:1027B000A002F091A10250819091A70290959523DB
:1027C0009083469521503109E9F6D6CF50819095F6
:1027D0009523E3CFDF91CF911F910F91FF90089543
:1027E0001F93CF93DF93EC018D8D9E8D892BF9F094
:1027F000162F89A10E946C078D8D9E8DDC01ED91B5
:10280000FC910190F081E02D60E009958D8D9E8D09
:10281000DC01ED91FC910190F081E02D612F099593
:102820008D8D9E8DDF91CF911F910C94010AADA5E6
:10283000BEA59C918BA9809589238C938B8D9C8DB3
:10284000892B31F0862FDF91CF911F910C94461385
:1028500028E030E080E8A9A5BAA599A9462F482329
:10286000C1F04C91942B9C93ABA5BCA59C914AA91B
:10287000942B9C93ABA5BCA54C919AA990959423BD
:102880009C9386952150310931F7DF91CF911F91AB
:1028900008954C9190959423E6CF8CBD9DBD0895ED
:1028A0001F93CF93DF93EC01162F8D8D9E8D892B77
:1028B000B1F12DA93EA94FA958AD60E074E284EFB3
:1028C00090E00E94C32120513109410951095695D8
:1028D0004795379527952093B80066EA111167EA66
:1028E000CE010E94F0138D8D9E8D892B41F129AD73
:1028F0003AAD4BAD5CAD60E074E284EF90E00E94D5
:10290000C321205131094109510956954795379501
:1029100027952093B800DF91CF911F9108958B8D5B
:102920009C8D892B21F08EAD9FAD0E944D14EFA59B
:10293000F8A990818CA9809589238083CECFEFA5BB
:10294000F8A980819CA9892B8083E5CF0F931F93E1
:10295000CF93DF93182FD0E0C0E28C2F0E946C073A
:1029600089E692E00E94010A082F61E070E080E0B1
:1029700090E00E943608011103C01D17E1F0DF5FEF
:10298000CF5FC83251F7C8E38C2F0E946C0789E6ED
:1029900092E00E94010A082F61E070E080E090E080
:1029A0000E943608011103C01D1729F0DF5FCF5FB9
:1029B000C03451F7C0E08C2FDF91CF911F910F9160
:1029C0000895CF93FC01C4A560FF02C086A1C82B67
:1029D00061FF02C087A1C82B62FF02C080A5C82B7F
:1029E00063FF02C081A5C82B4130510511F483A1BA
:1029F000C82B85A18C2B90E00E94FC096C2F89E6E6
:102A000092E0CF910C94CD09CF93DF93EC018AA58E
:102A1000882359F19BA5662321F1913021F58CA7DC
:102A200088A10E946C0789A19AA1029721F489E0EC
:102A300090E00E94FC096CA589E692E00E94CD0915
:102A400089E692E00E94010A21E030E0811102C093
:102A500030E020E088279927821B930BDF91CF91EC
:102A600008959923E1F21CA6DBCF8DEF9FEFF6CFFF
:102A70004F925F926F927F928F929F92AF92BF928E
:102A8000EF92FF921F93CF93DF93EC0188A18823ED
:102A900009F45BC089A19AA1892B09F456C0142FAF
:102AA0007B014C8C5D8C6E8C7F8C888C998CAA8C75
:102AB000BB8C8DE2881A9108A108B1080E94110808
:102AC000681979098A099B096415750586059705B2
:102AD000A8F388A10E946C0789A19AA1029721F40A
:102AE00089E090E00E94FC09612F70E084E0759518
:102AF00067958A95E1F7A701CE010E94E11482E073
:102B0000E816F10431F0612F6F70A701CE010E9429
:102B1000E11489E692E00E94010A21E030E081118F
:102B200002C030E020E088279927821B930BDF91B9
:102B3000CF911F91FF90EF90BF90AF909F908F909B
:102B40007F906F905F904F9008958CEF9FEFEFCF45
:102B50008DEF9FEF08958DEF9FEF089590E080E057
:102B600008950895CF92DF92EF92FF920F931F93F3
:102B7000CF93C82F0E9411086B017C0180913D0208
:102B8000811164C081E080933D0280933C029FEFFD
:102B900090933B0210923A021092390280933802CD
:102BA00080913802CC0FC82BC09338028091370235
:102BB000813009F07DC0109237020E9411086B012C
:102BC0007C01809138028093BB0080913F029091FC
:102BD0004002A0914102B0914202892B8A2B8B2B9B
:102BE000A1F00E94110800913F0210914002209133
:102BF0004102309142026C197D098E099F09061726
:102C000017072807390708F442C08091BC0083FDEC
:102C1000D8CF85EC8093BC000E9411086B017C0129
:102C200080913D02813009F445C080913A028111C2
:102C300063C080913A02E7E1F2E0A5E4B2E090E0FF
:102C4000981751F121912D939F5FFACF80913F0208
:102C500090914002A0914102B0914202892B8A2BAF
:102C60008B2B09F48BCF0E94110800913F02109129
:102C7000400220914102309142026C197D098E0977
:102C80009F09061717072807390708F077CF8091A3
:102C90003E020E94560980E0109244028093430253
:102CA000CF911F910F91FF90EF90DF90CF900895FB
:102CB00085EEB0CF80913F0290914002A0914102F9
:102CC000B0914202892B8A2B8B2B09F4A9CF0E9449
:102CD000110800913F021091400220914102309171
:102CE00042026C197D098E099F09061717072807EC
:102CF000390708F095CFCBCF81E09DCF4F925F92FF
:102D00006F927F928F929F92AF92BF92EF92FF92BB
:102D10000F931F93CF93DF93EC011CA588A1882309
:102D200009F4EDC089A19AA1009709F4E8C00297BF
:102D300009F4E8C08CA1882309F4E4C07B014C8C21
:102D40005D8C6E8C7F8C888C998CAA8CBB8C8DE270
:102D5000881A9108A108B1080E9411086819790918
:102D60008A099B096415750586059705A8F38EA148
:102D7000182B8FA1182B88A5182B89A5182BEA943E
:102D8000EF2811F48BA1182B8CA1182B88A10E947D
:102D90006C07612F89E692E00E94CD0989E692E0F6
:102DA0000E94010A882311F10FEF1FEF88A10E94F2
:102DB0006C076CA589E692E00E94CD0989E692E055
:102DC0000E94010A882311F00FEF1FEFC801DF9165
:102DD000CF911F910F91FF90EF90BF90AF909F9078
:102DE0008F907F906F905F904F90089588A10E9480
:102DF0006C078DA1812B90E00E94FC0989E692E08E
:102E00000E94010A8111D0CF88A190E00E94B215E2
:102E100089E692E00E9486097C0197FDC5CF88A1D2
:102E20000E946C07612F89E692E00E94CD0989E635
:102E300092E00E94010A082F8111B6CF8EA190E086
:102E40008E219F21892B09F000E18FA190E08E2136
:102E50009F21892B09F0006288A590E08E219F2197
:102E6000892B09F0006489A590E08E219F21892B90
:102E700009F0006888A10E946C078DA1812B90E069
:102E80000E94FC0989E692E00E94010A81118CCF20
:102E900088A190E00E94B21589E692E00E9486091E
:102EA0007C0197FD81CF88A10E946C07612F89E684
:102EB00092E00E94CD0989E692E00E94010A811108
:102EC00073CF8EA190E08E219F21892B09F00160A4
:102ED0008FA190E08E219F21892B09F0026088A5A7
:102EE00090E08E219F21892B09F0046089A590E054
:102EF0008E219F21892B09F0086010E057CF0CEF3D
:102F00001FEF64CF0DEF1FEF61CF0F931F93CF9390
:102F1000DF93EC0110924402109243021092660279
:102F2000109265020E94380986E997E09093160294
:102F30008093150287E997E090931402809313021F
:102F400088A1811188C08091A40191E0980F90938D
:102F5000A4010E94A61488A388A1811109C08091B0
:102F6000A40191E0980F9093A4010E94A61488A355
:102F700018A1112309F478C089A19AA1892B09F01D
:102F800033C1812F0E946C0760E089E692E00E94C5
:102F9000CD096FEF89E692E00E94CD0989E692E0C3
:102FA0000E94010A812F0E946C0760E089E692E08E
:102FB0000E94CD0989E692E00E94010A812F90E0EB
:102FC0000E94B21589E692E00E9486098F3F910522
:102FD00009F051C082E090E09AA389A388A10E94E1
:102FE0006C0760E089E692E00E94CD098FEF90E0E7
:102FF0000E94FC0989E692E00E94010A88A10E94D1
:103000006C0786E090E00E94FC098FE790E00E9448
:10301000FC0989E692E00E94010A88A10E946C07DF
:1030200089E090E00E94FC0989E692E00E94010A92
:1030300088A190E00E94B21589E692E00E9486097C
:103040008F3709F010C127E036E045E054E063E037
:1030500072E0E1E013C10E946C0789E692E00E94F1
:10306000010A882309F478CF8CEF9FEFDF91CF918D
:103070001F910F910895892B29F01AA219A28FEFA1
:103080009FEFF4CF81E090E09AA389A388A10E94EA
:103090006C076FEF89E692E00E94CD0989E692E025
:1030A0000E94010A88A190E00E94B21589E692E090
:1030B0000E9486098C0188A10E946C076BEF89E64B
:1030C00092E00E94CD0989E692E00E94010A88A15F
:1030D00090E00E94B21589E692E00E94860998016C
:1030E000277033272730310509F04DC0807F99279D
:1030F000803F910509F047C083E0169507958A95B2
:10310000E1F761E00627017043E057E066E075E013
:10311000E4E022E0F1E030E081E090E0DC0101C099
:10312000AA0F3A95EAF7ABA3DC0101C0AA0FFA9502
:10313000EAF7ACA3DC0102C0AA0FBB1F2A95E2F795
:10314000ADA39C0101C0220FEA95EAF72EA39C01D2
:1031500001C0220F7A95EAF72FA39C0101C0220F2C
:103160006A95EAF728A79C0101C0220F5A95EAF751
:1031700029A701C0880F4A95EAF78AA70BA7013053
:1031800091F58CA731C0C8018077992780379105C8
:1031900019F08DEF9FEF6ACF88A10E946C076FEE48
:1031A00089E692E00E94CD0989E692E00E94010A38
:1031B00088A190E00E94B21589E692E00E948609FB
:1031C0008F70992726E034E00F9711F424E036E061
:1031D0000095001F0027001F47E053E062E071E008
:1031E000E0E0F5E099CF1CA688A10E946C0789A1B8
:1031F0009AA1029721F585E090E00E94FC0980E207
:1032000090E00E94FC0989E692E00E94010A88A1F0
:103210000E946C0760E089E692E00E94CD0960E0C0
:1032200089E692E00E94CD0989E692E00E94010AB7
:1032300088A10E946C0789E090E00E94FC0960E090
:1032400089E692E00E94CD0989E692E00E94010A97
:1032500021E030E0811102C030E020E0882799278A
:10326000821B930B03CF86FF3BC081FD92CF21E0F1
:1032700032E043E054E065E076E0E7E081E090E0B2
:10328000DC0102C0AA0FBB1FEA95E2F7ABA31CA2A8
:10329000FC0101C0EE0F7A95EAF7EDA3FC0102C034
:1032A000EE0FFF1F6A95E2F7EEA3BC0101C0660FA7
:1032B0005A95EAF76FA3BC0102C0660F771F4A95C3
:1032C000E2F768A7AC0101C0440F3A95EAF749A7B5
:1032D00001C0880F2A95EAF78AA791E09BA751CFF2
:1032E00026E033E042E051E060E077E0E4E0C6CF82
:1032F00020917B0230917C02C901079697FD0796C9
:1033000023E0959587952A95E1F7209179023091F0
:103310007A02829FA001839F500D929F500D11242D
:1033200070E060E080919402909195020C94DB2310
:10333000FB0101900020E9F73197AF01461B570BC5
:103340000C9498070E94CD23EF92FF920F931F9346
:10335000CF93DF93EC017B018A01888199810097EB
:1033600029F02A813B812417350788F4B8016F5F63
:103370007F4F0E941023009791F0998388831B83CD
:103380000A832C813D81232B11F4FC0110821D83C3
:103390000C83B701888199810E94E2230CC0888147
:1033A0009981009711F00E948722198218821D824C
:1033B0001C821B821A82CE01DF91CF911F910F9147
:1033C000FF90EF90089585ED8093BC0080913F02BF
:1033D00090914002A0914102B09142020796A11D36
:1033E000B11D23E0B695A795979587952A95D1F7B6
:1033F0002091BC0024FD03C010923D02089540912D
:103400003F02509140026091410270914202452B6F
:10341000462B472B69F30097A105B10541F025E341
:103420002A95F1F700000197A109B109E1CF809138
:103430003E020C9456091F920F920FB60F92112460
:103440002F933F938F939F93AF93BF9380910A02E3
:1034500090910B02A0910C02B0910D0230910902E3
:1034600023E0230F2D3758F50196A11DB11D2093A0
:10347000090280930A0290930B02A0930C02B0936E
:103480000D0280910E0290910F02A0911002B09156
:1034900011020196A11DB11D80930E0290930F029F
:1034A000A0931002B0931102BF91AF919F918F91A1
:1034B0003F912F910F900FBE0F901F90189526E807
:1034C000230F0296A11DB11DD2CF1F920F920FB6EE
:1034D0000F9211242F933F934F935F936F937F939A
:1034E0008F939F93AF93BF93EF93FF938091B90016
:1034F000887F803609F44AC0F0F5883209F4A7C005
:1035000018F5803109F49BC0B8F4882309F4F9C098
:10351000883009F494C0FF91EF91BF91AF919F91D2
:103520008F917F916F915F914F913F912F910F906C
:103530000FBE0F901F901895883109F488C0803213
:1035400051F780933B0214C0803409F49DC040F4CD
:103550008033B9F38833F9F680933B0285ECB0C031
:10356000803509F485C0883509F496C0883499F609
:103570000E94E319D0CF883909F48CC038F5883718
:1035800029F050F4883611F0803729F683E08093D3
:103590003D021092080257C0883809F47BC0803978
:1035A00019F0803809F0B7CF80910802803208F016
:1035B00071C0E091080281E08E0F80930802809133
:1035C000BB00F0E0E851FE4F80833DC0803B39F006
:1035D000E0F4803A09F479C0883A09F09CCF84E09D
:1035E00080933D021092E7011092E601E0911502EE
:1035F000F091160209958091E60181110FC081E0DA
:103600008093E6011092C60109C0803C09F4A6CF60
:10361000883C09F4A3CF883B09F07DCFE091E70116
:1036200081E08E0F8093E701F0E0EA53FE4F808146
:103630008093BB009091E7018091E60129C08091C1
:1036400038028093BB0085EC8093BC0064CF9091DE
:103650003A0280913902981758F5E0913A0281E0D8
:103660008E0F80933A02F0E0E95EFD4F8081E9CF52
:10367000E0913A0281E08E0F80933A028091BB0084
:10368000F0E0E95EFD4F808390913A02809139022B
:103690009817C8F285E8D8CFE0913A0281E08E0F02
:1036A00080933A028091BB00F0E0E95EFD4F808399
:1036B00080913C0281115CCF81E08093370284EAE3
:1036C0008093BC0010923D0226CF85EC8093BC0015
:1036D00010923D0280910802803230F4E09108029D
:1036E000F0E0E851FE4F10826091080270E0E09136
:1036F0001302F091140288EE91E0099510920802ED
:103700000ACF10923B0234CF0F931F93CF93DF93D6
:1037100009E612E0F8011382128288EE93E0A0E03D
:10372000B0E084839583A683B7838AE091E0918398
:103730008083C5EBD2E01B821A8288E491E09983F2
:1037400088831F82188680ED97E0A0E0B0E0888B28
:10375000998BAA8BBB8B86E290E0A0E0B0E08C8BCB
:103760009D8BAE8BBF8B1C861D861E861F861B867F
:103770000E941108688F798F8A8F9B8F1C8E1D8EF7
:103780001E8E1F8E8EE591E09983888382E090E003
:103790009AA389A380E288A390E89BA31CA290E44B
:1037A0009DA38EA380E18FA388E088A794E099A7CA
:1037B00022E02AA781E08BA72CA7E5E7F2E013829D
:1037C000128240E850E05583448320E430E03783A0
:1037D00026835187408733872287168A1586148669
:1037E00017861686858B848B2FEF3FEF338B228BCA
:1037F000318B208B878B108E128E118E2CE131E055
:1038000031832083148E138E168F058F10A2178E8E
:103810008FEF84A385A386A387A390A780E89AE16E
:10382000A6E0B0E085AB96ABA7ABB0AF80EA96E878
:10383000A1E0B0E081AF92AFA3AFB4AF80E586AFB7
:1038400017AEDF91CF911F910F910895CF93DF9322
:10385000CDB7DEB7E9970FB6F894DEBF0FBECDBF88
:10386000789484B5826084BD84B5816084BD85B55B
:10387000826085BD85B5816085BD80916E00816067
:1038800080936E001092810080918100826080930D
:10389000810080918100816080938100809180000F
:1038A0008160809380008091B10084608093B1003A
:1038B0008091B00081608093B00080917A00846034
:1038C00080937A0080917A00826080937A00809160
:1038D0007A00816080937A0080917A00806880937A
:1038E0007A001092C1008091C10281110CC08091B8
:1038F000C202811108C08091C302811104C080916D
:10390000C402882321F08091BC028F7E59F010926E
:10391000C10280E48093C20280E18093C30280E50B
:103920008093C40282E08093BD0280E18093BC0258
:1039300064E670E080E090E00E9436081092B902E0
:1039400085EB92E00E948517892B09F05CC080917D
:10395000BD02823028F08091B90288608093B9025C
:1039600040E362E070E085EB92E00E94381565E08C
:1039700070E080E090E00E94360840E362E070E092
:1039800085EB92E00E94381561E070E080E090E005
:103990000E94360840E362E070E085EB92E00E940E
:1039A000381561E070E080E090E00E943608809178
:1039B000B90284FD07C040E262E070E085EB92E06E
:1039C0000E9438156091B902606285EB92E00E9416
:1039D000680884E08093BA026CE085EB92E00E9474
:1039E000680861E085EB92E00E94680882E08093BD
:1039F000BB0266E085EB92E00E9468086FEF85EB02
:103A000092E00E9404158091B7029091B8029C83C5
:103A10008B838091B9028D838091BA028E838091CD
:103A2000BB028F838091BC0288878091BD02898709
:103A30008091BE028A878091BF028B878091C002ED
:103A40008C878091C1029091C202A091C302B09173
:103A5000C4028D879E87AF87B88B8091C5029091F5
:103A6000C602A091C702B091C802898B9A8BAB8B1A
:103A7000BC8B8091C9029091CA02A091CB02B091F7
:103A8000CC028D8B9E8BAF8BB88F8091CD029091A5
:103A9000CE02A091CF02B091D002898F9A8FAB8FC6
:103AA000BC8F8091D1029091D202A091D302B091AB
:103AB000D4028D8F9E8FAF8FB8A38EE591E09A834D
:103AC00089838091D50289A38091D6029091D702F3
:103AD0009BA38AA38091D8028CA38091D9028DA345
:103AE0008091DA028EA38091DB028FA38091DC02A9
:103AF00088A78091DD0289A78091DE028AA7809144
:103B0000DF028BA78091E0028CA78091E1028DA754
:103B10001DAA1CAA1FAA1EAA19AE18AE4AE050E0A0
:103B200060E771E0CE01C4960E94A4191FA61EA6EC
:103B300019AA18AA1BAA1AAA46E050E06BE771E07E
:103B4000CE018E960E94A41961E0CE0101960E94DA
:103B5000680860E0CE0101960E94A00862E871E06A
:103B6000CE0101960E94981961E0CE0101960E9453
:103B7000A00810E000E060E1E62EF12C88AD99ADE0
:103B80009701281B390BC9019695879508171907C6
:103B900048F462EA71E0CE0101960E9498190F5F25
:103BA0001F4FECCF60E771E0CE0101960E9498199B
:103BB00064EC79E080E090E00E94360861E0CE019C
:103BC00001960E94A00863E971E0CE0101960E946F
:103BD000981961E0CE0101960E94A00810E000E073
:103BE00040E1E42EF12C8AA99BA9A701481B590B9F
:103BF000CA01969587950817190748F462EA71E09B
:103C0000CE0101960E9498190F5F1F4FECCF6BE712
:103C100071E0CE0101960E94981964EC79E080E091
:103C200090E00E94360861E0CE0101960E9468088B
:103C300064E670E080E090E00E9436088EA59FA5C3
:103C4000009711F00E9487228CA99DA9009711F07E
:103C50000E9487228091940290919502892B39F1DC
:103C60000E94781980917B0290917C026091790288
:103C700070917A02813291050CF0E1C0AC014052A2
:103C8000510957FF02C04F5F5F4F559547956357E6
:103C9000710977FF02C06F5F7F4F75956795F0E2FE
:103CA000EF2EF12C03E710E02EE935E0E0C0209183
:103CB0007B0230917C02C901079697FD079623E0AD
:103CC000959587952A95E1F72091790230917A02AE
:103CD000DC01A29FC001A39F900DB29F900D112403
:103CE0000E94EB219093950280939402892B09F016
:103CF000B7CF0E94781970E4E72EF12C00E810E0AD
:103D000023E43AE050E040E070E060E085E792E0D4
:103D10000E94CF0F8091920290919302892B09F417
:103D20005FC22091AA023091AB024091AC02509147
:103D3000AD0260E074E284EF90E00E94C321205164
:103D40003109410951095695479537952795209393
:103D5000B80065E08EE39AE00E944D13609179020D
:103D6000615085E792E00E94F01320917B02309130
:103D70007C02C901079697FD079623E095958795E4
:103D80002A95E1F72091790230917A02829F7001A1
:103D9000839FF00C929FF00C1124009194021091DB
:103DA00095028091920290919302E00EF11E892B70
:103DB00009F456C2809196020E946C07809192028B
:103DC00090919302DC01ED91FC910190F081E02D46
:103DD00060E40995DD24D39480919202909193023E
:103DE0000E151F0509F413C2BFE1BD15A0F40E9412
:103DF000010A809196020E946C0780919202909134
:103E00009302DC01ED91FC910190F081E02D60E4E2
:103E10000995DD24D39480919202909193025801E8
:103E2000BFEFAB1ABB0ADC01ED91FC910190F08170
:103E3000E02DD8016C910995D3948501CDCFAC01CB
:103E40004054510957FF02C04F5F5F4F559547954A
:103E50006255710977FF02C06F5F7F4F7595679557
:103E600010E4E12EF12C02E510E02EE737E085E7C3
:103E700092E00E94CF0F82E080939702809192029D
:103E800090919302892B09F4BDC08CE38093960234
:103E90001092440210924302109266021092650240
:103EA0000E94380986E997E09093160280931502E4
:103EB00087E997E090931402809313028091920215
:103EC00090919302892B09F454C12091AA02309158
:103ED000AB024091AC025091AD0260E074E284EF1D
:103EE00090E00E94C32120513109410951095695A2
:103EF0004795379527952093B80064E08AE995E0C7
:103F00000E944D1360917B02615085E792E00E9410
:103F1000F01364E086E995E00E944D1380919702CA
:103F200060E1813009F064E185E792E00E94F013DE
:103F300064E082E995E00E944D138FE88093B2021D
:103F40008091790290917A028038910509F02AC116
:103F500080917B0290917C028034910509F032C1FE
:103F600080919702813009F01BC18FE98093B202E2
:103F700012E16AED85E792E00E94F013612F85E778
:103F800092E00E94F01361E885E792E00E94F0134E
:103F90006091B20285E792E00E94F01369ED85E737
:103FA00092E00E94F0138091970262E2813009F062
:103FB00061EF85E792E00E94F01366E08CE895E0FF
:103FC0000E944D138091920290919302892B09F4E3
:103FD000FDC02091AE023091AF024091B0025091ED
:103FE000B10260E074E284EF90E00E94C3212051AE
:103FF00031094109510956954795379527952093E1
:10400000B80077CE80919B020E94770780919C0236
:104010000E94770780919B02082E000C990BFC01EF
:10402000E95AF14FE491F0E0EE0FFF1FED5BF14F25
:10403000259134913093A3022093A202FC01E5590B
:10404000F14FE491E093A80280919C02082E000CAD
:10405000990BFC01E95AF14FE491F0E0EE0FFF1FDC
:10406000ED5BF14FA591B491B093A502A093A4028A
:10407000FC01E559F14FE491E093A9028C91E82B02
:10408000EC938091900290919102892B89F11FB756
:10409000F89480911202811124C0E1E6FEE084913F
:1040A000E5E7FEE09491E82FF0E0EE0FFF1FE35B01
:1040B000F14FA591B491EC91E92321F461E08AE0FC
:1040C0000E94C5078AE00E9477078CB580618CBD8D
:1040D0008CB580648CBD8DE00E9477078BE00E94D8
:1040E0007707809112028F5F809312021FBFE6CE86
:1040F000809199020E94770780919A020E94770727
:1041000080919902082E000C990BFC01E95AF14F9D
:10411000E491F0E0EE0FFF1FED5BF14F259134913C
:1041200030939F0220939E02FC01E559F14FE491E8
:10413000E093A60280919A02082E000C990BFC01D4
:10414000E95AF14FE491F0E0EE0FFF1FED5BF14F04
:10415000A591B491B093A102A093A002FC01E559EE
:10416000F14FE491E093A7028C91E095E823EC9362
:10417000A5CE8091900290919102892B31F080918F
:10418000B3029091B4020E944D14E091A402F09108
:10419000A50290818091A902809589238083ADCE6C
:1041A0008FECE4CE8036910569F480917B0290918A
:1041B0007C02409739F480919702813029F480E1A4
:1041C0008093B20212E0D5CE8FEAFACFE091A4023A
:1041D000F091A50280819091A902892B808389CDDD
:1041E0008091900290919102892B31F08091B302DD
:1041F0009091B4020E944D14E091A402F091A502A6
:1042000090818091A902809589238083A2CD0E940C
:10421000010A8091920290919302892B09F463C064
:104220002091AE023091AF024091B0025091B102A4
:1042300060E074E284EF90E00E94C32120513109D4
:104240004109510956954795379527952093B80010
:1042500000E010E001151105E9F30E940000FACF1B
:10426000E091A202F091A30280819091A802892B93
:104270008083E016F10669F2F80181918F012091A7
:10428000900230919102232B19F00E944613F1CF36
:1042900028E030E040E8E0919E02F0919F0290918A
:1042A000A602582F5423D9F05081952B9083E0918A
:1042B000A002F091A10290815091A702952B9083CA
:1042C000E091A002F091A10250819091A7029095F7
:1042D00095239083469521503109E9F6CACF508144
:1042E00090959523E3CFE091A402F091A5028081FF
:1042F0009091A902892B8083ABCF8CE191E09093C0
:1043000076028093750280919402909195020097B5
:1043100011F00C94872208952F923F924F925F9252
:104320006F927F928F929F92AF92BF92CF92DF92C5
:10433000EF92FF920F931F93CF93DF93CDB7DEB72A
:10434000CA1BDB0B0FB6F894DEBF0FBECDBF0994BE
:104350002A88398848885F846E847D848C849B8415
:10436000AA84B984C884DF80EE80FD800C811B8123
:10437000AA81B981CE0FD11D0FB6F894DEBF0FBE52
:10438000CDBFED010895A1E21A2EAA1BBB1BFD01B2
:104390000DC0AA1FBB1FEE1FFF1FA217B307E40724
:1043A000F50720F0A21BB30BE40BF50B661F771F7C
:1043B000881F991F1A9469F760957095809590955C
:1043C0009B01AC01BD01CF010895EE0FFF1F0590C9
:1043D000F491E02D09940F931F93CF93DF938230D4
:1043E000910510F482E090E0E091E402F091E502A2
:1043F00030E020E0B0E0A0E0309799F421153105DD
:1044000009F44AC0281B390B24303105D8F58A81BC
:104410009B816115710589F1FB0193838283FE0104
:1044200011C0408151810281138148175907E0F082
:104430004817590799F4109761F012960C93129748
:1044400013961C933296CF01DF91CF911F910F915C
:1044500008950093E4021093E502F4CF211531058D
:1044600051F04217530738F0A901DB019A01BD0151
:10447000DF01F801C1CFEF01F9CF9093E5028093FE
:10448000E402CDCFFE01E20FF31F819391932250FE
:10449000310939832883D7CF2091E2023091E3029A
:1044A000232B41F420910201309103013093E30268
:1044B0002093E20220910001309101012115310584
:1044C00041F42DB73EB74091040150910501241BE2
:1044D000350BE091E202F091E302E217F307A0F45A
:1044E0002E1B3F0B2817390778F0AC014E5F5F4F4A
:1044F0002417350748F04E0F5F1F5093E302409397
:10450000E202819391939FCFF0E0E0E09CCFCF93C4
:10451000DF930097E9F0FC01329713821282A09199
:10452000E402B091E502ED0130E020E01097A1F443
:1045300020813181820F931F2091E2023091E302AA
:104540002817390709F061C0F093E302E093E20213
:10455000DF91CF910895EA01CE17DF07E8F54A8190
:104560005B819E0141155105B1F7E901FB83EA83A7
:1045700049915991C40FD51FEC17FD0761F4808153
:1045800091810296840F951FE90199838883828126
:1045900093819B838A83F0E0E0E012968D919C9159
:1045A00013970097B9F52D913C911197CD01029683
:1045B000820F931F2091E2023091E30228173907FE
:1045C00039F6309751F51092E5021092E402B0935B
:1045D000E302A093E202BCCFD383C2834081518126
:1045E000840F951FC817D90761F44E5F5F4F88810C
:1045F0009981480F591F518340838A819B819383FE
:1046000082832115310509F0B0CFF093E502E093E4
:10461000E4029ECFFD01DC01C0CF13821282D7CF0E
:10462000B0E0A0E0E6E1F3E20C948E218C0100976B
:1046300051F4CB010E94EB218C01C801CDB7DEB74C
:10464000E0E10C94AA21FC01E60FF71F9C01225027
:104650003109E217F30708F49DC0D901CD91DC912F
:104660001197C617D70798F0C530D10530F3CE01A2
:1046700004978617970708F3C61BD70B2297C19399
:10468000D1936D937C93CF010E948722D6CF5B019B
:10469000AC1ABD0A4C018C0E9D1EA091E402B09193
:1046A000E502512C412CF12CE12C109731F5809131
:1046B000E2029091E3028815990509F05CC0461664
:1046C000570608F058C080910001909101010097B1
:1046D00041F48DB79EB74091040150910501841BB0
:1046E000950BE817F90708F055C0F093E302E09343
:1046F000E202F90171836083A0CF8D919C911197A3
:1047000012966C90129713967C901397A815B90582
:1047100059F56C0142E0C40ED11CCA14DB0420F12F
:10472000AC014A195B09DA011296159780F0628292
:10473000738251834083D9016D937C93E114F1041A
:1047400071F0D7011396FC93EE93129776CF2296D1
:104750008C0F9D1FF90191838083F301EFCFF093BC
:10476000E502E093E40269CF4816590608F42C01EB
:104770007D01D3019ACFCB010E94EB217C010097F0
:1047800049F0AE01B8010E94D223C8010E948722DD
:10479000870153CF10E000E050CF81E090E0F89423
:1047A0000C94E923FB01DC0102C001900D92415001
:1047B0005040D8F70895DC0101C06D93415050403E
:1047C000E0F70895FB01DC0101900D920020E1F774
:1047D000089517E0C1E4D7E004C0FE010E94E5217E
:0C47E0002196C234D107C9F7F894FFCF2E
:1047EC000000E602800000000000CD09A009AE1513
:1047FC00760799098609770900000000230D9807B0
:10480C00AE15B11596127607C80FA00FBC0FB00FDE
:10481C0042107607E90A501406124F12E90ECC0E1C
:10482C00540EF50D00000000C7089807AE15B11521
:10483C00AE15AB15A219A815A81500000000C708E5
:10484C009807AE15B11585177E1638150415A815E1
:10485C004C6F676F546D654564750076302E322E43
:10486C003000544D45656475636174696F6E2E63D9
:10487C006F6D0020202020202020202020202020B0
:04488C0020202000C8
:00000001FF
