:100000000C9442050C946A050C946A050C946A05DC
:100010000C946A050C946A050C946A050C946A05A4
:100020000C946A050C946A050C946A050C946A0594
:100030000C946A050C946A050C946A050C946A0584
:100040000C94AB1A0C946A050C946A050C946A051E
:100050000C946A050C946A050C946A050C946A0564
:100060000C94F51A0C946A05000103070F1F3F7FDB
:100070000080C0E0F0F8FCFE00000000003E5B4F96
:100080005B3E3E6B4F6B3E1C3E7C3E1C183C7E3CF8
:10009000181C577D571C1C5E7F5E1C00183C180006
:1000A000FFE7C3E7FF0018241800FFE7DBE7FF3096
:1000B000483A060E2629792926407F050507407F04
:1000C00005253F5A3CE73C5A7F3E1C1C08081C1C77
:1000D0003E7F14227F22145F5F005F5F06097F016D
:1000E0007F006689956A606060606094A2FFA29458
:1000F00008047E040810207E201008082A1C080826
:100100001C2A08081E101010100C1E0C1E0C303873
:100110003E3830060E3E0E06000000000000005F74
:1001200000000007000700147F147F14242A7F2A90
:100130001223130864623649562050000807030052
:10014000001C2241000041221C002A1C7F1C2A089E
:10015000083E080800807030000808080808000001
:1001600060600020100804023E5149453E00427F75
:10017000400072494949462141494D331814127FC4
:100180001027454545393C4A494931412111090764
:100190003649494936464949291E000014000000E5
:1001A00040340000000814224114141414140041B7
:1001B00022140802015909063E415D594E7C121174
:1001C000127C7F494949363E414141227F414141AC
:1001D0003E7F494949417F090909013E4141517327
:1001E0007F0808087F00417F41002040413F017F98
:1001F000081422417F404040407F021C027F7F0460
:1002000008107F3E4141413E7F090909063E4151A8
:10021000215E7F09192946264949493203017F0198
:10022000033F4040403F1F2040201F3F4038403F99
:10023000631408146303047804036159494D4300AF
:100240007F4141410204081020004141417F0402E6
:10025000010204404040404000030708002054547D
:1002600078407F284444383844444428384444285B
:100270007F385454541800087E090218A4A49C78AE
:100280007F0804047800447D40002040403D007F0A
:100290001028440000417F40007C047804787C08EA
:1002A0000404783844444438FC18242418182424BE
:1002B00018FC7C08040408485454542404043F44A3
:1002C000243C4040207C1C2040201C3C4030403CD2
:1002D00044281028444C9090907C4464544C440032
:1002E0000836410000007700000041360800020196
:1002F0000204023C2623263C1EA1A161123A404082
:10030000207A3854545559215555794122545478FE
:1003100042215554784020545579400C1E52721297
:100320003955555559395454545939555454580020
:1003300000457C410002457D420001457C407D1224
:1003400011127DF0282528F07C5455450020545486
:100350007C547C0A097F4932494949323A44444431
:100360003A324A4848303A4141217A3A424020786C
:10037000009DA0A07D3D4242423D3D4040403D3C6D
:1003800024FF2424487E4943662B2FFC2F2BFF0992
:1003900029F620C0887E0903205454794100004486
:1003A0007D413048484A32384040227A007A0A0A71
:1003B000727D0D19317D2629292F282629292926E4
:1003C00030484D4020380808080808080808382F29
:1003D00010C8ACBA2F102834FA00007B00000814B3
:1003E0002A142222142A14085500550055AA55AA89
:1003F00055AAFF55FF55FF000000FF00101010FF29
:1004000000141414FF001010FF00FF1010F010F083
:10041000141414FC001414F700FF0000FF00FF1474
:1004200014F404FC141417101F10101F101F1414C0
:10043000141F00101010F0000000001F101010100A
:100440001F10101010F010000000FF1010101010FE
:1004500010101010FF10000000FF140000FF00FF3C
:1004600000001F10170000FC04F4141417101714D8
:1004700014F404F40000FF00F714141414141414FA
:10048000F700F7141414171410101F101F1414146D
:10049000F4141010F010F000001F101F0000001FD7
:1004A00014000000FC140000F010F01010FF10FF0A
:1004B000141414FF141010101F00000000F010FF9F
:1004C000FFFFFFFFF0F0F0F0F0FFFFFF0000000083
:1004D00000FFFF0F0F0F0F0F3844443844FC4A4A07
:1004E0004A347E02020606027E027E0263554941BC
:1004F000633844443C04407E201E2006027E0202F3
:1005000099A5E7A5991C2A492A1C4C7201724C3006
:100510004A4D4D303048784830BC625A463D3E49DD
:100520004949007E0101017E2A2A2A2A2A44445F81
:10053000444440514A444040444A51400000FF0175
:1005400003E080FF000008086B6B08361236243683
:10055000060F090F060000181800000010100030E8
:1005600040FF0101001F01011E00191D1712003C70
:100570003C3C3C00000000000000000800020100BC
:10058000000304070000000000000000DB40A4A6F8
:100590002EAF2000A1C8D300408DAED580A80000AA
:1005A000600000000000000000000000000000E00B
:1005B0000000000000000000000000000001E0005A
:1005C00000000000000000000000000001F000003A
:1005D000000000000000000000000003F000000028
:1005E0000000000000000000000007F00000000014
:1005F00000000000000000000007F80000000000FC
:1006000000000000000000000FF800000003C00020
:100610007E000001E0007F0FF800000003C000FE34
:10062000000001E000FFEFF800000003C000FE0042
:100630000001E000FFFFF800000003C000F0000030
:10064000000F007FFE7FC0000003C000F00000002C
:100650000F003FFE7FF83FF1FBCFFCFEF3BC3DEF08
:10066000E01FFE7FFF7FFBFFDFFEFEFFBC3DEFE0F4
:100670001FC6FFFF7FFBFFDFFEFEFFBC3DEFE00F6D
:10068000E3C7FE787BC3DE1EF0FFBC3DEF0007FF33
:1006900087FC787BC3DE1EF0F83C3DEF0001FFFFD6
:1006A000F0007BC3C01EF0F03C3DEF0001F37FE0A3
:1006B0003FFBC3CFFEF0F03C3DEF0003E33F807F04
:1006C000FBC3DFFEF0F03C3DEF0007E73C00787B2A
:1006D000C3DE1EF0F03C3DEF0007FFBE00787BC399
:1006E000DE1EF0F03C3DEF0007FFFE00787BC3DE2E
:1006F0001EF0F03C3DEF000FFFFE007FFBFFDFFE32
:10070000F0F03FFDEFE00FFFFF007FFBFFDFFEF0AB
:10071000F03FFDEFE00FF9FF003E79F9CF9EF0F0DA
:100720001F3DE7E01FF1FF00000000000000000097
:100730000000001F80FF007FFFFFFFFFFFFFFFFFA4
:10074000FFE01C007F007FFFFFFFFEB46D888D1867
:10075000E000001F007FFFFFFFFE95AD7DB577E055
:1007600000000F007FFFFFFFFEA5AD9D8D19E0008B
:100770000006007FFFFFFFFEB5ADEDB57EE0000097
:100780000000000180000000000000000000038065
:1007900000000000000000000007C0000000000092
:1007A0000000000007C00000000000000000000F73
:1007B000C00000000000000000001FE0000000007A
:1007C00000000000001FE00000000000000000002A
:1007D0003FE00000000000000000003FF0000000CB
:1007E0000000000000007FF0000000000000001F7B
:1007F000F87FF0000000000000003FFE7FF00000E6
:1008000000000000003FFF7FF0000000000000003B
:100810001FFFFBE0000000000000000FFFF9FFC019
:100820000000000000000FFFF9FFF80000000000CA
:100830000007FFF1FFFF00000000000003FC73FF52
:10084000FF80000000000001FE3FFFFF800000006D
:10085000000000FF1E0FFF000000000000007FFEF0
:100860001FFC000000000000003FFFFFF800000038
:10087000000000000FDFFFE0000000000000001F8C
:1008800019FFC0000000000000003F3CFF00000016
:1008900000000000007E7CF8000000000000000066
:1008A0007FFE7C0000000000000000FFFFFC000055
:1008B000000000000000FFFFFE000000000000003C
:1008C00000FFFFFE0000000000000001FFEFFE003F
:1008D00000000000000001FFCFFE0000000000004B
:1008E0000003FF07FE0000000000000003FC07FEFD
:1008F0000000000000000003F003FE000000000004
:100900000000018000FE0000000000000000000068
:100910007E000000000000000000003E000000001B
:100920000000000000000C00000000000007800034
:10093000FC000003C0000000078001FC000003C0B1
:10094000000000078001FC000003C00000000780D9
:1009500001E00000001E000000078001E000000030
:100960001E007FE3F79FF9FDE7787BDFC0FFF7FF0D
:10097000BFFDFDFF787BDFC0FFF7FFBFFDFDFF7808
:100980007BDFC0F0F787BC3DE1FF787BDE00F0F74E
:1009900087BC3DE1F0787BDE0000F787803DE1E039
:1009A000787BDE007FF7879FFDE1E0787BDE00FF4C
:1009B000F787BFFDE1E0787BDE00F0F787BC3DE123
:1009C000E0787BDE00F0F787BC3DE1E0787BDE007D
:1009D000F0F787BC3DE1E0787BDE00FFF7FFBFFD6D
:1009E000E1E07FFBDFC0FFF7FFBFFDE1E07FFBDF62
:1009F000C07CF3F39F3DE1E03E7BCFC000000000F0
:100A000000000000000000FFFFFFFFFFFFFFFFFFEF
:100A1000FFC0FFFFFFFFFD68DB111A31C0FFFFFFC2
:100A2000FFFD2B5AFB6AEFC0FFFFFFFFFD4B5B3B57
:100A30001A33C0FFFFFFFFFD6B5BDB6AFDC02200C6
:100A4000FF210000000000250028002B000000000E
:100A500000240027002A00040404040404040402FF
:100A6000020202020203030303030301020408104B
:100A70002040800102040810200102040810200018
:100A8000141CC52211241FBECFEFD8E0DEBFCDBF9E
:100A900022E0AAEAB1E001C01D92AC3EB207E1F744
:100AA00011E0A0E0B1E0EEE3FDE402C005900D929C
:100AB000AA3AB107D9F715E0C1E4D5E004C02197FF
:100AC000FE010E948E24C034D107C9F70E94B61CD3
:100AD0000C9492260C94000091E090936E02809307
:100AE0006D0210926C0210926B02089590E0FC016E
:100AF000E559F54F2491895A954FFC01849188233B
:100B000099F090E0880F991FFC01E35BF54FA591E8
:100B1000B491FC01ED5BF54F859194918FB7F894FA
:100B2000EC91E22BEC938FBF0895089508950895FA
:100B3000AF92BF92CF92DF92EF92FF920F931F93EB
:100B4000CF93DF936C017B018B01040F151FEB0129
:100B50005E01AE18BF08C017D10759F06991D601E0
:100B6000ED91FC910190F081E02DC6010995892B52
:100B700079F7C501DF91CF911F910F91FF90EF9011
:100B8000DF90CF90BF90AF90089590E0FC01E858BF
:100B9000FA4F2491FC01E559F54F3491FC01E95AD3
:100BA000F54FE491EE23C9F0222339F0233001F10F
:100BB000A8F4213019F1223029F1F0E0EE0FFF1FE7
:100BC000ED5BF54FA591B4918FB7F894EC9161115D
:100BD00026C030953E233C938FBF08952730A9F05F
:100BE0002830C9F0243049F7809180008F7D03C000
:100BF000809180008F7780938000DFCF84B58F77DE
:100C000084BDDBCF84B58F7DFBCF8091B0008F7723
:100C10008093B000D2CF8091B0008F7DF9CF3E2B72
:100C2000DACF3FB7F8948091140290911502A09109
:100C30001602B091170226B5A89B05C02F3F19F0E8
:100C40000196A11DB11D3FBFBA2FA92F982F88274C
:100C5000BC01CD01620F711D811D911D42E0660F27
:100C6000771F881F991F4A95D1F708958F929F92F9
:100C7000AF92BF92CF92DF92EF92FF924B015C0155
:100C80000E9411066B017C010E9411066C197D09FE
:100C90008E099F09683E734081059105A8F321E004
:100CA000821A9108A108B10888EEC80E83E0D81E08
:100CB000E11CF11C81149104A104B10429F7FF90F7
:100CC000EF90DF90CF90BF90AF909F908F9008955E
:100CD0008F929F92AF92BF92EF92FF921F93CF930A
:100CE000DF93EC01162FE881F9810484F585E02D6E
:100CF000462F70E060E009957C0111501230D8F465
:100D000019861A8688889988AA88BB880E94110645
:100D1000688F798F8A8F9B8F8C8E9D8EAE8EBF8EC3
:100D2000C701DF91CF911F91FF90EF90BF90AF90DF
:100D30009F908F9008958C889D88AE88BF88E6CF5D
:100D4000DC0118968C911897681710F06FEF680FF8
:100D50001B969C911B97992391F017962C911797AE
:100D6000962F211106C061E0690F90E06817D8F74F
:100D7000F7CF19961C9219971A966C931A97FD0142
:100D8000E60FF11D64856068CD010C9468068F92B2
:100D90009F92AF92BF92EF92FF920F931F93CF93C8
:100DA000DF93EC01462FE881F9810484F585E02D7D
:100DB00061E070E009957C018C889D88AE88BF88D1
:100DC0000E941106688F798F8A8F9B8F8C8E9D8EE3
:100DD000AE8EBF8E01E010E0EF2811F010E000E0D1
:100DE0008B85882391F089858F5F89879F818917FB
:100DF00060F019868A858F5F8A879885891708F041
:100E00001A866A85CE010E94A006C801DF91CF91A3
:100E10001F910F91FF90EF90BF90AF909F908F9098
:100E200008952091EC01260F3327331F213231051D
:100E3000ECF420914302FC0190E080E0243069F062
:100E400082E00895A091EC012191AC0144535E4FE2
:100E5000A40FB52FB11D2C930196861798F380919E
:100E6000EC01680F6093EC0180E0089581E0089543
:100E70001092430281E08093420210923D0261E0B1
:100E800082E10E94C50561E083E10E94C505E9EBAE
:100E9000F0E080818E7F808380818D7F808388E4F5
:100EA0008093B80085E48093BC000895CF93DF93CE
:100EB00091E09093CB018823B9F0C091B800D09114
:100EC000BA008091BC008A7B8093BC0060E082E124
:100ED0000E94C50560E083E10E94C5050E943807B5
:100EE000D093BA00C093B800DF91CF910895E091FC
:100EF0004A0280914902E81730F4F0E0E55BFD4FCB
:100F0000808190E008958FEF9FEF089590914A02BD
:100F1000809149022FEF3FEF981748F4E92FF0E056
:100F2000E55BFD4F208130E09F5F90934A02C9014D
:100F300008958091490290914A02891B990B089566
:100F4000CF92DF92EF92FF920F931F93CF93DF9395
:100F50007C01CB018A0120916E02222389F0EB01F2
:100F60006B01C40ED51ECC15DD0569F06991D70162
:100F7000ED91FC910190F081E02DC7010995F3CF2F
:100F8000642F0E941107C801DF91CF911F910F912B
:100F9000FF90EF90DF90CF900895CF93DF931F9253
:100FA000CDB7DEB7698320916E022223F9F020913C
:100FB0006B02203258F021E030E0FC0133832283C1
:100FC00090E080E00F90DF91CF91089580916C02C6
:100FD000E82FF0E0E555FE4F998190838F5F809375
:100FE0006C0280936B0281E090E0ECCF61E0CE0177
:100FF00001960E941107F7CF682F8FE692E00C94BC
:10100000CD07CF92DF92EF92FF920F931F93CF9372
:10101000DF93D0916B0281E0D13208F09CC0C09187
:101020006D020E9411066B017C01809143028111C7
:101030006CC082E08093430281E0809342028FEF94
:101040008093410210924002D0933F02ABEAB1E09C
:10105000EDE1F2E080E0D8138DC010923E02809165
:101060003E02CC0FC82BC0933E0280913D028130DE
:1010700009F084C010923D020E9411066B017C01B0
:1010800080913E028093BB00809145029091460280
:10109000A0914702B0914802892B8A2B8B2BA1F09B
:1010A0000E941106009145021091460220914702CC
:1010B000309148026C197D098E099F0906171707A0
:1010C0002807390708F442C08091BC0083FDD8CFBF
:1010D00085EC8093BC000E9411066B017C0180911D
:1010E0004302823009F44CC0809141028F3F09F4E1
:1010F00069C080914102803209F466C0809141024A
:10110000803309F463C084E026C080914502909149
:101110004602A0914702B0914802892B8A2B8B2B63
:1011200009F483CF0E9411060091450210914602F6
:1011300020914702309148026C197D098E099F0960
:10114000061717072807390708F06FCF8091440268
:101150000E94560785E010926C0210926B0210926A
:101160006E02DF91CF911F910F91FF90EF90DF9072
:10117000CF9008959D9191938F5F6DCF85EEA9CF0C
:101180008091450290914602A0914702B091480299
:10119000892B8A2B8B2B09F4A2CF0E941106009178
:1011A00045021091460220914702309148026C1985
:1011B0007D098E099F09061717072807390708F0C8
:1011C0008ECFC4CF80E0C7CF82E0C5CF83E0C3CF4E
:1011D0000895FC016370668B848195812681378137
:1011E000613039F0633029F0918780873387228717
:1011F0000895318720879387828708952F923F92A1
:101200004F925F926F927F928F929F92AF92BF9216
:10121000CF92DF92EF92FF920F931F93CF93DF93C2
:10122000CDB7DEB76A970FB6F894DEBF0FBECDBF5D
:101230009A8F898F7A8369834A01D22E18870F8308
:101240003701BC2CDC0159962D913C915A97211500
:10125000310509F015C118968D919C911997681761
:1012600079070CF0D7C11A968D919C9148175907B0
:101270000CF0D0C14C2C512CB6E0CB9E600D711DF2
:1012800011247C876B87161617060CF0C3C1EA2D54
:10129000F0E0FA87E98793E0EE0FFF1F9A95E1F7F8
:1012A000F88BEF87CF01840F951F181619060CF0E5
:1012B000B1C1A98DBA8D58968C91811104C0BFEA35
:1012C000BD1508F4D394A98DBA8DED91FC911197B9
:1012D0000284F385E02DCD010995B5E0DB9EC001C8
:1012E0001124E981FA81FC83EB83312C212C9C01B0
:1012F00028583F4F388F2F8B4A2D50E05E8B4D8BF7
:10130000EF89F88DE20DF31D44919E828D82D12CE0
:10131000C12C69817A81620D731D7A8B698B842F50
:1013200090E09C8B8B8BE98DFA8DA081B18140FF81
:1013300082C0F1E0BF126FC0AF126DC01C96ED917C
:10134000FC912F813885A4014C0D5D1D69897A8936
:10135000898D9A8D0995EB89FC89F595E7954E2F36
:101360005FEFC51AD50A6D817E818D899E89680FD0
:10137000791F7E836D8398E0C916D10481F6AFEFA3
:101380002A1A3A0AEB81FC81E40DF51DFC83EB83FC
:10139000F5E02F16310409F0B3CF2F8138852615DB
:1013A0003705B9F0A98DBA8DED91FC91B1E0BB1272
:1013B00057C0AB1255C069817A816B5F7F4F00883F
:1013C000F189E02D830128E030E0A401898D9A8D18
:1013D0000995A98DBA8DED91FC9111970688F78931
:1013E000E02DCD016A960FB6F894DEBF0FBECDBFDB
:1013F000DF91CF911F910F91FF90EF90DF90CF90F1
:10140000BF90AF909F908F907F906F905F904F9024
:101410003F902F9009941E96ED91FC91EF80F884F7
:1014200009851A8592014D815E816B817C81898D50
:101430009A8D099590CF2F8138852615370509F4A7
:101440008ACF31E0B31207C0A31205C01C96ED91FC
:10145000FC91930178CF1E96ED91FC917301E0CF42
:101460006B857C85641975090684F785E02D730109
:101470000F8518899201A401898D9A8D0995A9CFAC
:10148000F90134969491329745915491D91AB7E065
:10149000DB9E400D511D1124F901259134913C8BA7
:1014A0002B8BFA0125903490FA0132967490319684
:1014B0003491398B329664903196449041E04C15CA
:1014C00018F04A1508F07FC0662D062C000C770B2B
:1014D0007C836B83842D042C000C990B9E838D835D
:1014E000A98DBA8DED91FC9111970284F385E02DC1
:1014F000CD010995512CD12CC12CEA2DF0E0FA87B1
:10150000E9872B2D30E03C872B87A401440D511D2A
:1015100047FC5A95588F4F8B69817A81660D711DF2
:1015200067FC7A957E876D877989C71608F051CF59
:101530002C2D30E04D815E81420F531FA985BA8565
:101540004A9FC0014B9F900D5A9F900D1124FC01A2
:10155000E80DF91DF88BEF87852D612C4F89588D8B
:10156000420F531F5E8B4D8B671408F050C044240C
:101570004394480E877041F4C1010196EB89FC89C0
:10158000E20DF31DD4901C01D7FE19C0A98DBA8DB0
:10159000ED91FC91662D70E0B1E0BB1219C0AB1269
:1015A00017C02D853E85620F731F0484F585E02DDD
:1015B0002F8138854D895E89898D9A8D0995DD0C3D
:1015C0006394842DD1CF1E821D821C821B8288CF02
:1015D0004B815C81640F751FAB85BC856A9FC00120
:1015E0006B9F900D7A9F900D112469817A81680F0D
:1015F000791F0684F785E02DEF80F88409851A8528
:101600009D014F855889898D9A8D0995D8CF570CA2
:10161000C3948ACF6A960FB6F894DEBF0FBECDBFD3
:10162000DF91CF911F910F91FF90EF90DF90CF90BE
:10163000BF90AF909F908F907F906F905F904F90F2
:101640003F902F9008958F929F92AF92CF92EF92FA
:10165000FF920F931F93CF93DF93EC01262F898D79
:101660009A8D009709F051C06A30D1F41D861C860E
:101670008D8948E0849F900111248E859F85820F7B
:10168000931F9F878E8781E090E0DF91CF911F911C
:101690000F91FF90EF90CF90AF909F908F90089513
:1016A0006D3089F3CC88AD888F898823C1F08C8513
:1016B0009D8536E0C39E800D911D11244885598576
:1016C0004817590764F44E855F851D861C8638E0EF
:1016D000A39EC0011124840F951F9F878E87EA88DF
:1016E000FB88088919894E855F856C857D85CE01CB
:1016F0000E94FE082C898C859D8546E0249F800DE4
:10170000911D11249D878C87BECF6A3069F41D8698
:101710001C86FC013896E4912D898E859F85E29F79
:10172000800D911D1124ADCF6D3009F4ACCFFC01BB
:1017300034963491631708F4A6CF3296E491E617F5
:1017400008F4A1CFFC01329685909490462F431B5C
:10175000342F47E0349F800C911C1124F401329601
:1017600034913196E4913323A9F1EE2399F1CC8899
:10177000F4013596E491AD884F89442301F10E2E92
:10178000000CFF0BE30FF11DCE9EA001CF9E500D6C
:1017900011246C857D85460F571F688579856417F0
:1017A00075076CF44E855F851D861C86FC01389696
:1017B000E491AE9E400D511D11245F874E87EA884B
:1017C000FB88088919894E855F856C857D85CE01EA
:1017D0000E94FE08F4013496E4912C898C859D8545
:1017E000E29F800D911D11248DCF6F927F928F9279
:1017F0009F92AF92BF92CF92DF92EF92FF920F93A0
:101800001F93CF93DF93EC016B015A01390148011B
:10181000E881F9810284F385E02D0995E881F98159
:101820000288F389E02D87019301A501B601CE015D
:101830000995A501480D591D41505109E881F981CB
:101840000288F389E02D9301B601CE010995E88164
:10185000F9810088F189E02D9401A501B601CE013E
:101860000995C60CD71CB60161507109E881F98150
:101870000088F189E02D9401A501CE010995E88148
:10188000F9810688F789E02DCE01DF91CF911F9174
:101890000F91FF90EF90DF90CF90BF90AF909F900F
:1018A0008F907F906F9009946F927F928F929F920A
:1018B000AF92BF92CF92DF92EF92FF920F931F935E
:1018C000CF93DF935C01EB016A0149013801870185
:1018D000DC01ED91FC916217730719F5641675062A
:1018E0002CF0962D872D3A01C92ED82E9601261957
:1018F00037092F5F3F4F048CF58DE02DA301BE010A
:10190000C5010995DF91CF911F910F91FF90EF9045
:10191000DF90CF90BF90AF909F908F907F906F900F
:1019200008954615570591F42617370724F0892D99
:101930004B01C22FD82F9E01281939092F5F3F4F25
:10194000068CF78DE02DA601B401DACF0284F38571
:10195000E02D0995D501ED91FC910488F589E02DE4
:1019600083019401A601BE01C5010995D501ED9140
:10197000FC910688F789E02DC501DF91CF911F9179
:101980000F91FF90EF90DF90CF90BF90AF909F901E
:101990008F907F906F900994EF92FF920F931F9317
:1019A000DC011A960D911C911B9718962D913C9174
:1019B0001997ED91FC9100A0F1A1E02D7B0150E081
:1019C00040E070E060E009951F910F91FF90EF906B
:1019D00008954F925F926F927F928F929F92AF92F3
:1019E000BF92CF92DF92EF92FF920F931F93CF930C
:1019F000DF936C012B015A0139014801DC01ED91A3
:101A0000FC910284F385E02D0995E201640C751CBC
:101A1000D601ED91FC91C615D7055CF40088F189DB
:101A2000E02D87019401A501BE01C601099521960B
:101A3000EFCF0688F789E02DC601DF91CF911F9186
:101A40000F91FF90EF90DF90CF90BF90AF909F905D
:101A50008F907F906F905F904F9009948F929F929C
:101A6000AF92BF92CF92DF92EF92FF920F931F93AC
:101A7000CF93DF93EC015B014A016901E881F981B1
:101A80000284F385E02D099595012C0D3D1D215013
:101A90003109E881F9810488F589E02D7801840114
:101AA000A401B501CE010995E881F9810688F7897D
:101AB000E02DCE01DF91CF911F910F91FF90EF901C
:101AC000DF90CF90BF90AF909F908F9009948F92AE
:101AD0009F92AF92BF92CF92DF92EF92FF920F93BD
:101AE0001F93CF93DF93EC015B014A0169017801F9
:101AF000E881F9810284F385E02D0995C80CD91C91
:101B0000860101501109E881F9810488F589E02DE9
:101B10009501A401B501CE010995E881F9810688F6
:101B2000F789E02DCE01DF91CF911F910F91FF90AA
:101B3000EF90DF90CF90BF90AF909F908F900994DF
:101B4000EF92FF920F931F93DC01ED91FC9100A0A7
:101B5000F1A1E02D09951F910F91FF90EF9008954D
:101B60000F931F93DC01ED91FC91068CF78DE02D16
:101B700009951F910F9108950F931F93DC01ED912B
:101B8000FC91048CF58DE02D09951F910F9108951E
:101B90002F923F924F925F926F927F928F929F927D
:101BA000AF92BF92CF92DF92EF92FF920F931F936B
:101BB000CF93DF93CDB7DEB729970FB6F894DEBF8A
:101BC0000FBECDBF3C017C836B83598748872D8333
:101BD000280181E090E06C01C41AD50A1A01319401
:101BE00021943108220C331C98012F5F3F4F3A8318
:101BF0002983F12CE12C88248394912CCB0101962C
:101C00009F838E8328853985E216F3060CF06DC01C
:101C1000A884B984D7FC09C0590131E0A31AB108DE
:101C200082E0280E311CC20CD31C9FEFE91AF90A7E
:101C300022E0820E911CC80CD91CAE14BF0444F4DF
:101C4000888599858A159B05D9F4B986A886DACF47
:101C50009501220F331F4B815C814A195B099D81DD
:101C6000913029F589819A81280F391F01E010E010
:101C7000B701660D771D8BE792E00E94BC0DE0CFA7
:101C80009D81913039F5940122503109240D351D83
:101C900068857985660D771D01E010E04E815F81D2
:101CA0004E195F098BE792E00E94BC0DCECF89816F
:101CB0009A81280F391F01E010E0B3016E197F09E6
:101CC0008BE792E00E94BC0D288539852A153B05DB
:101CD00009F4BBCF940122503109240D351DB30105
:101CE00088859985681B790BD7CF29960FB6F8940C
:101CF000DEBF0FBECDBFDF91CF911F910F91FF903F
:101D0000EF90DF90CF90BF90AF909F908F907F909B
:101D10006F905F904F903F902F900895DC01ED9170
:101D2000FC910084F185E02D09943F924F925F92DF
:101D30006F927F928F929F92AF92BF92CF92DF92DB
:101D4000EF92FF920F931F93CF93DF935C017B0180
:101D50004A016901390187E0680E711C93E07594AE
:101D600067949A95E1F72B01400E511E10E000E0B8
:101D7000312CD0E0C0E0CE0187709927330C892B3D
:101D800059F4FE0183E0F595E7958A95E1F7E00FB8
:101D9000F11FE80DF91D349037FE0AC021E030E054
:101DA000A701B5016C0F7D1F8BE792E00E948E0E9C
:101DB0002196CC16DD06F9F68FEFE81AF80A060D23
:101DC000171DE414F504A9F6DF91CF911F910F912F
:101DD000FF90EF90DF90CF90BF90AF909F908F904B
:101DE0007F906F905F904F903F9008952F923F9219
:101DF0004F925F926F927F928F929F92AF92BF921B
:101E0000CF92DF92EF92FF920F931F93CF93DF93C6
:101E10007C016B01EA0181E090E05C01A41AB50A43
:101E200066247724641A750A660C771C10E000E0BB
:101E300088248394912C822F8470582E822F827054
:101E4000482E822F8870382E2170222E0C171D07E5
:101E50000CF079C0B7FC06C0219782E0680E711CB7
:101E6000A60CB71C0F5F1F4F82E0880E911CA80CB8
:101E7000B91C5520C1F021E030E0AE014C0D5D1DD4
:101E8000B701600F711F8BE792E00E948E0E21E078
:101E900030E0A601400F511FBE016E0D7F1D8BE784
:101EA00092E00E948E0E4420C1F021E030E0A601B5
:101EB0004C1B5D0BB701600F711F8BE792E00E9416
:101EC0008E0E21E030E0A601401B510BBE016E0DCD
:101ED0007F1D8BE792E00E948E0E3320C1F021E03F
:101EE00030E0A601400F511FB7016C1B7D0B8BE743
:101EF00092E00E948E0E21E030E0AE014C0D5D1D9F
:101F0000B701601B710B8BE792E00E948E0E2220BE
:101F100009F49CCF21E030E0A601401B510BB70132
:101F20006C1B7D0B8BE792E00E948E0E21E030E06F
:101F3000A6014C1B5D0BB701601B710B8BE792E098
:101F40000E948E0E83CFDF91CF911F910F91FF9052
:101F5000EF90DF90CF90BF90AF909F908F907F9049
:101F60006F905F904F903F902F9008952F923F92E7
:101F70004F925F926F927F928F929F92AF92BF9299
:101F8000CF92DF92EF92FF920F931F93CF93DF9345
:101F900000D000D000D0CDB7DEB73C016A013E834F
:101FA0002D83FC82EB825801A41AB50AB7FE03C048
:101FB000B194A194B1088D809E80861A970A97FEED
:101FC00003C09194819491088A149B045CF0902F33
:101FD000812F0D811E819D838E839C2D8D2D6B0104
:101FE000692F782F0C151D055CF09D818E817E83F5
:101FF0006D83692F782F902F812F8601C92ED82EBF
:102000001601201A310A2B012D813E81421A530AF2
:1020100057FE03C0519441945108710137FE03C02B
:102020003FEFE31AF30AF594E7948D819E818617BA
:1020300097075CF5A1E0B0E0BA83A983C016D1068A
:102040004CF1D301ED91FC910484F585E02D2B81B9
:102050003C81A8016D817E818A149B041CF04D8116
:102060005E81B801C3010995E418F508F7FE0AC0BE
:102070002D813E8189819A81280F391F3E832D83CE
:10208000E20CF31C0F5F1F4FD9CF2FEF3FEF3A83C6
:102090002983D4CF26960FB6F894DEBF0FBECDBFEE
:1020A000DF91CF911F910F91FF90EF90DF90CF9034
:1020B000BF90AF909F908F907F906F905F904F9068
:1020C0003F902F900895EF92FF920F931F93CF931D
:1020D000DF93EC01EC80FD806E157F050CF070C085
:1020E00057FF04C0240F351F50E040E08E819F81D0
:1020F000FA01E20FF31F8E179F071CF49C01241BAB
:10210000350B121613060CF05BC0922F842F8695A8
:10211000869586958E9DD0018F9DB00D11246A0FF6
:102120007B1FAF8DB8A1A60FB71F477049F188E09C
:10213000841B482F682F70E0FB01E059FF4FE491AA
:10214000281708F063C0621B71092FEF30E002C04E
:10215000359527956A95E2F7E2230130110539F0AC
:10216000B0F10230110561F58C91E82702C08C9125
:10217000E82BEC93941720F12C813D81A20FB31F23
:10218000E92FE41BE83078F00230110521F58E2F9D
:102190009C9190959C932C813D81A20FB31F8850F8
:1021A0008830B0F7E770EE2359F0F0E0E859FF4FC0
:1021B000E49101301105F9F010F10230110519F127
:1021C000DF91CF911F910F91FF90EF900895E095CF
:1021D0008C91E823CECF81E00115110509F480E050
:1021E00081959E2F8C932C813D81A20FB31F985017
:1021F0009830C0F7D7CF8C91E82BEC93E1CFE095E6
:102200008C91E823FACF8C91E827F7CF01301105A4
:1022100009F4ADCFE0F20230110509F4A5CFAE0DFF
:10222000BF1DAECF0F931F93CF93DF9377FF04C0F3
:10223000260F371F70E060E0DC011496CD91DC9131
:10224000FB01E20FF31FCE17DF071CF49E01261BD4
:10225000370B121613064CF5FA0157FD3796A3E01B
:10226000F595E795AA95E1F7EC9FD001ED9FB00DAC
:10227000FC9FB00D11246A0F7B1FDC015F96ED916E
:10228000FC91E60FF71F4770552781E090E001C0F1
:10229000880F4A95EAF7482F0130110559F0A8F048
:1022A0002E0F3F1F02301105E1F0DF91CF911F91FA
:1022B0000F9108952E0F3F1FE217F307B1F381919D
:1022C000DF011197842B8C93F7CF80952E0F3F1F42
:1022D000E217F30751F39191DF01119798239C9333
:1022E000F7CFE217F30709F38191DF0111978427F4
:1022F0008C93F7CF0F931F93FA01DC0156964C9104
:1023000056974230E9F04330A1F1413061F514961F
:102310004D915C91DA01AE1BBF0BFD01E21BF30B8B
:1023200077FD0BC0DC0116964D915C916417750723
:1023300024F4AB01BF010E9412111F910F91089567
:1023400014964D915C91DA01A61BB70BBD0161504B
:102350007109DC0116964D915C91DA01AE1BBF0B41
:10236000FD01E21BF30B77FDE8CFAF010E94631084
:10237000E4CF16964D915C91DA01A61BB70BBD0117
:1023800061507109CDCF0F931F93FA01DC0156966E
:102390004C9156974230A9F0433091F1413019F5F4
:1023A00014964D915C91DA01AE1BBF0BFD01319784
:1023B000F7FD04C0AB01BF010E9463101F910F9194
:1023C000089514964D915C91DA01A61BB70BBD01DF
:1023D000DC0116964D915C91DA01AE1BBF0BFD013D
:1023E0003197621B730BF7FDE9CFDC0116964D9117
:1023F0005C91E417F50714F7AF010E941211DECFCC
:1024000016964D915C91DA01A61BB70BBD01621BBC
:10241000730BCECFFC0177FD64C080859185681772
:1024200079070CF05EC057FD5CC082859385481724
:1024300059070CF056C086898230B1F0833029F1FB
:10244000813041F484819581841B950BAB01BC01E3
:10245000615071092130310509F108F443C022307F
:10246000310509F463C0089584819581DC01A61BC0
:10247000B70BBD016150710986819781DC01A41BF6
:10248000B50BAD0141505109E5CF86819781861B7F
:10249000970BBA01AC0141505109DCCFCA0157FD7D
:1024A0000796A3E095958795AA95E1F7A481B58154
:1024B0008A9F90018B9F300D9A9F300D1124620FDF
:1024C000731F078CF0A1E02DE60FF71F477055270B
:1024D00021E030E001C0220F4A95EAF78081822B8B
:1024E00080830895CA0157FD079633E09595879537
:1024F0003A95E1F7A481B5818A9F90018B9F300DB9
:102500009A9F300D1124620F731F078CF0A1E02DEC
:10251000E60FF71F4770552781E090E001C0880F54
:102520004A95EAF7809590818923DACFCA0157FD51
:10253000079623E0959587952A95E1F7A481B581C3
:102540008A9F90018B9F300D9A9F300D1124620F4E
:10255000731F078CF0A1E02DE60FF71F477055277A
:1025600021E030E001C0220F4A95EAF780818227FE
:10257000B7CF08958EBD00000DB407FEFDCF8EB518
:102580000895FF920F931F93CF93DF93F82ED92FC7
:10259000C62F8091980290919902892B09F447C027
:1025A00080919C020E946C05809198029091990202
:1025B000DC01ED91FC910190F081E02D60E0099546
:1025C0000F2D1D2FD1E0C15080919802909199025A
:1025D000CF3F31F1D03298F00E94010880919C02E7
:1025E0000E946C058091980290919902DC01ED9116
:1025F000FC910190F081E02D60E00995D1E080919F
:10260000980290919902F8016491DC01ED91FC919E
:102610000190F081E02D0995DF5F0F5F1F4FD3CF51
:10262000DF91CF911F910F91FF900C940108E091E1
:10263000A802F091A90290818091AE028095892331
:1026400080830F2D1D2FC15008F438C0F8018491EC
:102650002091960230919702232B29F00E94BA1202
:102660000F5F1F4FF0CF28E030E040E8E091A40278
:10267000F091A5029091AC02582F5423D9F05081CB
:10268000952B9083E091A602F091A7029081509142
:10269000AD02952B9083E091A602F091A7025081A4
:1026A0009091AD02909595239083469521503109E4
:1026B000E9F6D6CF508190959523E3CFDF91CF9166
:1026C0001F910F91FF9008951F93CF93DF93EC011B
:1026D0008D8D9E8D892BF9F0162F89A10E946C0596
:1026E0008D8D9E8DDC01ED91FC910190F081E02DAE
:1026F00060E009958D8D9E8DDC01ED91FC9101903E
:10270000F081E02D612F09958D8D9E8DDF91CF9108
:102710001F910C940108ADA5BEA59C918BA9809535
:1027200089238C938B8D9C8D892B31F0862FDF91A3
:10273000CF911F910C94BA1228E030E080E8A9A54F
:10274000BAA599A9462F4823C1F04C91942B9C938C
:10275000ABA5BCA59C914AA9942B9C93ABA5BCA509
:102760004C919AA9909594239C9386952150310978
:1027700031F7DF91CF911F9108954C91909594235B
:10278000E6CF8CBD9DBD0895FF920F931F93CF930D
:10279000DF938091980290919902892B09F487C068
:1027A0002091B0023091B1024091B2025091B30237
:1027B00060E074E284EF90E00E946C2420513109C3
:1027C0004109510956954795379527952093B800AB
:1027D00065E08EE39AE00E94C11260917F02615031
:1027E0008BE792E00E946413209181023091820273
:1027F000C901079697FD079623E0959587952A9539
:10280000E1F720917F0230918002829F8001839FB7
:10281000100D929F100D1124C0919A02D0919B022D
:1028200080919802909199020C0F1D1F892B09F439
:102830007CC080919C020E946C05809198029091CE
:102840009902DC01ED91FC910190F081E02D60E4B2
:102850000995FF24F39480919802909199020C17A6
:102860001D07E1F1BFE1BF15A0F40E9401088091AE
:102870009C020E946C058091980290919902DC0163
:10288000ED91FC910190F081E02D60E40995FF2429
:10289000F39480919802909199026991DC01ED91F5
:1028A000FC910190F081E02D0995F394D4CF8091B3
:1028B000960290919702892B31F08091B902909104
:1028C000BA020E94C113E091AA02F091AB0290817A
:1028D0008091AF028095892380837ACF0E9401087E
:1028E0008091980290919902892B09F45FC0209100
:1028F000B4023091B5024091B6025091B70260E047
:1029000074E284EF90E00E946C2420513109410967
:10291000510956954795379527952093B800DF9133
:10292000CF911F910F91FF900895E091A802F0912F
:10293000A90280819091AE02892B80830C171D071C
:1029400079F289912091960230919702232B19F008
:102950000E94BA12F3CF28E030E040E8E091A402F0
:10296000F091A5029091AC02582F5423D9F05081D8
:10297000952B9083E091A602F091A702908150914F
:10298000AD02952B9083E091A602F091A7025081B1
:102990009091AD02909595239083469521503109F1
:1029A000E9F6CCCF508190959523E3CFE091AA0230
:1029B000F091AB0280819091AF02892B8083AFCFE1
:1029C0001F93CF93DF93EC01162F8D8D9E8D892B56
:1029D000B1F12DA93EA94FA958AD60E074E284EF92
:1029E00090E00E946C24205131094109510956950B
:1029F0004795379527952093B80066EA111167EA45
:102A0000CE010E9464138D8D9E8D892B41F129ADDD
:102A10003AAD4BAD5CAD60E074E284EF90E00E94B3
:102A20006C24205131094109510956954795379534
:102A300027952093B800DF91CF911F9108958B8D3A
:102A40009C8D892B21F08EAD9FAD0E94C113EFA507
:102A5000F8A990818CA9809589238083CECFEFA59A
:102A6000F8A980819CA9892B8083E5CF0F931F93C0
:102A7000CF93DF93182FD0E0C0E28C2F0E946C051B
:102A80008FE692E00E940108082F61E070E080E08C
:102A900090E00E943606011103C01D17E1F0DF5FD0
:102AA000CF5FC83251F7C8E38C2F0E946C058FE6C8
:102AB00092E00E940108082F61E070E080E090E061
:102AC0000E943606011103C01D1729F0DF5FCF5F9A
:102AD000C03451F7C0E08C2FDF91CF911F910F913F
:102AE0000895CF93FC01C4A560FF02C086A1C82B46
:102AF00061FF02C087A1C82B62FF02C080A5C82B5E
:102B000063FF02C081A5C82B4130510511F483A198
:102B1000C82B85A18C2B90E00E94FC076C2F8FE6C0
:102B200092E0CF910C94CD07CF93DF93EC018AA56F
:102B3000882359F19BA5662321F1913021F58CA7BB
:102B400088A10E946C0589A19AA1029721F489E0CD
:102B500090E00E94FC076CA58FE692E00E94CD07F2
:102B60008FE692E00E94010821E030E0811102C06E
:102B700030E020E088279927821B930BDF91CF91CB
:102B800008959923E1F21CA6DBCF8DEF9FEFF6CFDE
:102B90004F925F926F927F928F929F92AF92BF926D
:102BA000EF92FF921F93CF93DF93EC0188A18823CC
:102BB00009F45BC089A19AA1892B09F456C0142F8E
:102BC0007B014C8C5D8C6E8C7F8C888C998CAA8C54
:102BD000BB8C8DE2881A9108A108B1080E941106E9
:102BE000681979098A099B09641575058605970591
:102BF000A8F388A10E946C0589A19AA1029721F4EB
:102C000089E090E00E94FC07612F70E084E07595F8
:102C100067958A95E1F7A701CE010E94711582E0C0
:102C2000E816F10431F0612F6F70A701CE010E9408
:102C300071158FE692E00E94010821E030E08111D9
:102C400002C030E020E088279927821B930BDF9198
:102C5000CF911F91FF90EF90BF90AF909F908F907A
:102C60007F906F905F904F9008958CEF9FEFEFCF24
:102C70008DEF9FEF08958DEF9FEF089590E080E036
:102C800008950895CF92DF92EF92FF920F931F93D2
:102C9000CF93C82F0E9411066B017C0180914302E3
:102CA000811164C081E080934302809342029FEFD0
:102CB000909341021092400210923F0280933E0294
:102CC00080913E02CC0FC82BC0933E0280913D0202
:102CD000813009F07DC010923D020E9411066B0107
:102CE0007C0180913E028093BB00809145029091CF
:102CF0004602A0914702B0914802892B8A2B8B2B68
:102D0000A1F00E9411060091450210914602209107
:102D10004702309148026C197D098E099F090617F8
:102D200017072807390708F442C08091BC0083FDCB
:102D3000D8CF85EC8093BC000E9411066B017C010A
:102D400080914302813009F445C080914002811195
:102D500063C080914002EDE1F2E0ABE4B2E090E0CC
:102D6000981751F121912D939F5FFACF80914502E1
:102D700090914602A0914702B0914802892B8A2B7C
:102D80008B2B09F48BCF0E94110600914502109104
:102D9000460220914702309148026C197D098E0944
:102DA0009F09061717072807390708F077CF809182
:102DB00044020E94560780E010924A028093490222
:102DC000CF911F910F91FF90EF90DF90CF900895DA
:102DD00085EEB0CF8091450290914602A0914702C6
:102DE000B0914802892B8A2B8B2B09F4A9CF0E9422
:102DF0001106009145021091460220914702309140
:102E000048026C197D098E099F09061717072807C4
:102E1000390708F095CFCBCF81E09DCF4F925F92DD
:102E20006F927F928F929F92AF92BF92EF92FF929A
:102E30000F931F93CF93DF93EC011CA588A18823E8
:102E400009F4EDC089A19AA1009709F4E8C002979E
:102E500009F4E8C08CA1882309F4E4C07B014C8C00
:102E60005D8C6E8C7F8C888C998CAA8CBB8C8DE24F
:102E7000881A9108A108B1080E94110668197909F9
:102E80008A099B096415750586059705A8F38EA127
:102E9000182B8FA1182B88A5182B89A5182BEA941D
:102EA000EF2811F48BA1182B8CA1182B88A10E945C
:102EB0006C05612F8FE692E00E94CD078FE692E0CD
:102EC0000E940108882311F10FEF1FEF88A10E94D3
:102ED0006C056CA58FE692E00E94CD078FE692E02C
:102EE0000E940108882311F00FEF1FEFC801DF9146
:102EF000CF911F910F91FF90EF90BF90AF909F9057
:102F00008F907F906F905F904F90089588A10E945E
:102F10006C058DA1812B90E00E94FC078FE692E06A
:102F20000E9401088111D0CF88A190E00E94421632
:102F30008FE692E00E9486077C0197FDC5CF88A1AD
:102F40000E946C05612F8FE692E00E94CD078FE60C
:102F500092E00E940108082F8111B6CF8EA190E067
:102F60008E219F21892B09F000E18FA190E08E2115
:102F70009F21892B09F0006288A590E08E219F2176
:102F8000892B09F0006489A590E08E219F21892B6F
:102F900009F0006888A10E946C058DA1812B90E04A
:102FA0000E94FC078FE692E00E94010881118CCFFD
:102FB00088A190E00E9442168FE692E00E94860768
:102FC0007C0197FD81CF88A10E946C05612F8FE65F
:102FD00092E00E94CD078FE692E00E9401088111E5
:102FE00073CF8EA190E08E219F21892B09F0016083
:102FF0008FA190E08E219F21892B09F0026088A586
:1030000090E08E219F21892B09F0046089A590E032
:103010008E219F21892B09F0086010E057CF0CEF1B
:103020001FEF64CF0DEF1FEF61CF0F931F93CF936F
:10303000DF93EC0110924A021092490210926C0246
:1030400010926B020E94380786E995E090931C026B
:1030500080931B0287E995E090931A0280931902EE
:1030600088A1811188C08091AA0191E0980F909366
:10307000AA010E94361588A388A1811109C08091F8
:10308000AA0191E0980F9093AA010E94361588A397
:1030900018A1112309F478C089A19AA1892B09F0FC
:1030A00033C1812F0E946C0560E08FE692E00E94A0
:1030B000CD076FEF8FE692E00E94CD078FE692E09A
:1030C0000E940108812F0E946C0560E08FE692E06B
:1030D0000E94CD078FE692E00E940108812F90E0C8
:1030E0000E9442168FE692E00E9486078F3F91056C
:1030F00009F051C082E090E09AA389A388A10E94C0
:103100006C0560E08FE692E00E94CD078FEF90E0C3
:103110000E94FC078FE692E00E94010888A10E94AD
:103120006C0586E090E00E94FC078FE790E00E942B
:10313000FC078FE692E00E94010888A10E946C05BE
:1031400089E090E00E94FC078FE692E00E9401086F
:1031500088A190E00E9442168FE692E00E948607C6
:103160008F3709F010C127E036E045E054E063E016
:1031700072E0E1E013C10E946C058FE692E00E94CC
:103180000108882309F478CF8CEF9FEFDF91CF916E
:103190001F910F910895892B29F01AA219A28FEF80
:1031A0009FEFF4CF81E090E09AA389A388A10E94C9
:1031B0006C056FEF8FE692E00E94CD078FE692E0FC
:1031C0000E94010888A190E00E9442168FE692E0DA
:1031D0000E9486078C0188A10E946C056BEF8FE628
:1031E00092E00E94CD078FE692E00E94010888A13C
:1031F00090E00E9442168FE692E00E9486079801B6
:10320000277033272730310509F04DC0807F99277B
:10321000803F910509F047C083E0169507958A9590
:10322000E1F761E00627017043E057E066E075E0F2
:10323000E4E022E0F1E030E081E090E0DC0101C078
:10324000AA0F3A95EAF7ABA3DC0101C0AA0FFA95E1
:10325000EAF7ACA3DC0102C0AA0FBB1F2A95E2F774
:10326000ADA39C0101C0220FEA95EAF72EA39C01B1
:1032700001C0220F7A95EAF72FA39C0101C0220F0B
:103280006A95EAF728A79C0101C0220F5A95EAF730
:1032900029A701C0880F4A95EAF78AA70BA7013032
:1032A00091F58CA731C0C8018077992780379105A7
:1032B00019F08DEF9FEF6ACF88A10E946C056FEE29
:1032C0008FE692E00E94CD078FE692E00E9401080F
:1032D00088A190E00E9442168FE692E00E94860745
:1032E0008F70992726E034E00F9711F424E036E040
:1032F0000095001F0027001F47E053E062E071E0E7
:10330000E0E0F5E099CF1CA688A10E946C0589A198
:103310009AA1029721F585E090E00E94FC0780E2E7
:1033200090E00E94FC078FE692E00E94010888A1CD
:103330000E946C0560E08FE692E00E94CD0760E09D
:103340008FE692E00E94CD078FE692E00E9401088E
:1033500088A10E946C0589E090E00E94FC0760E073
:103360008FE692E00E94CD078FE692E00E9401086E
:1033700021E030E0811102C030E020E08827992769
:10338000821B930B03CF86FF3BC081FD92CF21E0D0
:1033900032E043E054E065E076E0E7E081E090E091
:1033A000DC0102C0AA0FBB1FEA95E2F7ABA31CA287
:1033B000FC0101C0EE0F7A95EAF7EDA3FC0102C013
:1033C000EE0FFF1F6A95E2F7EEA3BC0101C0660F86
:1033D0005A95EAF76FA3BC0102C0660F771F4A95A2
:1033E000E2F768A7AC0101C0440F3A95EAF749A794
:1033F00001C0880F2A95EAF78AA791E09BA751CFD1
:1034000026E033E042E051E060E077E0E4E0C6CF60
:103410002091810230918202C901079697FD07969B
:1034200023E0959587952A95E1F720917F023091C9
:103430008002829FA001839F500D929F500D112406
:1034400070E060E080919A0290919B020C94842637
:10345000FB0101900020E9F73197AF01461B570BA4
:103460000C9498050E947626EF92FF920F931F937B
:10347000CF93DF93EC017B018A01888199810097CA
:1034800029F02A813B812417350788F4B8016F5F42
:103490007F4F0E94B925009791F0998388831B8301
:1034A0000A832C813D81232B11F4FC0110821D83A2
:1034B0000C83B701888199810E948B260CC088817A
:1034C0009981009711F00E943025198218821D827F
:1034D0001C821B821A82CE01DF91CF911F910F9126
:1034E000FF90EF90089585ED8093BC008091450298
:1034F00090914602A0914702B09148020796A11D03
:10350000B11D23E0B695A795979587952A95D1F794
:103510002091BC0024FD03C0109243020895409105
:103520004502509146026091470270914802452B36
:10353000462B472B69F30097A105B10541F025E320
:103540002A95F1F700000197A109B109E1CF809117
:1035500044020C9456071F920F920FB60F9211243B
:103560002F933F938F939F93AF93BF9380911002BC
:1035700090911102A0911202B091130230910F02AA
:1035800023E0230F2D3758F50196A11DB11D20937F
:103590000F028093100290931102A0931202B09335
:1035A00013028091140290911502A0911602B0911D
:1035B00017020196A11DB11D80931402909315026C
:1035C000A0931602B0931702BF91AF919F918F9174
:1035D0003F912F910F900FBE0F901F90189526E8E6
:1035E000230F0296A11DB11DD2CF1F920F920FB6CD
:1035F0000F9211242F933F934F935F936F937F9379
:103600008F939F93AF93BF93EF93FF938091B900F4
:10361000887F803609F44AC0F0F5883209F4A7C0E3
:1036200018F5803109F49BC0B8F4882309F4F9C077
:10363000883009F494C0FF91EF91BF91AF919F91B1
:103640008F917F916F915F914F913F912F910F904B
:103650000FBE0F901F901895883109F488C08032F2
:1036600051F78093410214C0803409F49DC040F4A6
:103670008033B9F38833F9F68093410285ECB0C00A
:10368000803509F485C0883509F496C0883499F6E8
:103690000E94731AD0CF883909F48CC038F5883766
:1036A00029F050F4883611F0803729F683E08093B2
:1036B000430210920E0257C0883809F47BC080394B
:1036C00019F0803809F0B7CF80910E02803208F0EF
:1036D00071C0E0910E0281E08E0F80930E02809106
:1036E000BB00F0E0E251FE4F80833DC0803B39F0EB
:1036F000E0F4803A09F479C0883A09F09CCF84E07C
:10370000809343021092ED011092EC01E0911B02B4
:10371000F0911C0209958091EC0181110FC081E0AC
:103720008093EC011092CC0109C0803C09F4A6CF33
:10373000883C09F4A3CF883B09F07DCFE091ED01EF
:1037400081E08E0F8093ED01F0E0E453FE4F808125
:103750008093BB009091ED018091EC0129C0809194
:103760003E028093BB0085EC8093BC0064CF9091B7
:10377000400280913F02981758F5E091400281E0A5
:103780008E0F80934002F0E0E35EFD4F8081E9CF31
:10379000E091400281E08E0F809340028091BB0057
:1037A000F0E0E35EFD4F80839091400280913F0204
:1037B0009817C8F285E8D8CFE091400281E08E0FDB
:1037C000809340028091BB00F0E0E35EFD4F808378
:1037D0008091420281115CCF81E080933D0284EAB6
:1037E0008093BC001092430226CF85EC8093BC00EE
:1037F0001092430280910E02803230F4E0910E026A
:10380000F0E0E251FE4F108260910E0270E0E09114
:103810001902F0911A028EEE91E0099510920E02B3
:103820000ACF1092410234CF0F931F93CF93DF93AF
:103830000FE612E0F8011382128288EE93E0A0E016
:10384000B0E084839583A683B7838AE091E0918377
:103850008083CBEBD2E01B821A8288E491E09983CB
:1038600088831F82188680ED97E0A0E0B0E0888B07
:10387000998BAA8BBB8B86E290E0A0E0B0E08C8BAA
:103880009D8BAE8BBF8B1C861D861E861F861B865E
:103890000E941106688F798F8A8F9B8F1C8E1D8ED8
:1038A0001E8E1F8E8EE591E09983888382E090E0E2
:1038B0009AA389A380E288A390E89BA31CA290E42A
:1038C0009DA38EA380E18FA388E088A794E099A7A9
:1038D00022E02AA781E08BA72CA7EBE7F2E0138276
:1038E000128240E850E05583448320E430E037837F
:1038F00026835187408733872287168A1586148648
:1039000017861686858B848B2FEF3FEF338B228BA8
:10391000318B208B878B108E128E118E2CE131E033
:1039200031832083148E138E168F058F10A2178E6D
:103930008FEF84A385A386A387A390A780E89AE14D
:10394000A6E0B0E085AB96ABA7ABB0AF80EA96E857
:10395000A1E0B0E081AF92AFA3AFB4AF80E586AF96
:1039600017AEDF91CF911F910F910895CF93DF9301
:10397000CDB7DEB7ED970FB6F894DEBF0FBECDBF63
:10398000789484B5826084BD84B5816084BD85B53A
:10399000826085BD85B5816085BD80916E00816046
:1039A00080936E00109281008091810082608093EC
:1039B00081008091810081608093810080918000EE
:1039C0008160809380008091B10084608093B10019
:1039D0008091B00081608093B00080917A00846013
:1039E00080937A0080917A00826080937A0080913F
:1039F0007A00816080937A0080917A008068809359
:103A00007A001092C1008091C70281110CC0809190
:103A1000C802811108C08091C902811104C080913F
:103A2000CA02882321F08091C2028F7E59F0109241
:103A3000C70280E48093C80280E18093C90280E5D8
:103A40008093CA0282E08093C30280E18093C20225
:103A500064E670E080E090E00E9436061092BF02BB
:103A60008BEB92E00E941518892B09F05CC08091C5
:103A7000C302823028F08091BF0288608093BF0229
:103A800040E362E070E08BEB92E00E94C81565E0D5
:103A900070E080E090E00E94360640E362E070E073
:103AA0008BEB92E00E94C81561E070E080E090E04E
:103AB0000E94360640E362E070E08BEB92E00E94E9
:103AC000C81561E070E080E090E00E9436068091C9
:103AD000BF0284FD07C040E262E070E08BEB92E041
:103AE0000E94C8156091BF0260628BEB92E00E9459
:103AF000680684E08093C0026CE08BEB92E00E9449
:103B0000680661E08BEB92E00E94680682E0809399
:103B1000C10266E08BEB92E00E9468066FEF8BEBD0
:103B200092E00E9494158091BD029091BE029C8308
:103B30008B838091BF028D838091C0028E838091A0
:103B4000C1028F838091C20288878091C3028987D6
:103B50008091C4028A878091C5028B878091C602BA
:103B60008C878091C7029091C802A091C902B09140
:103B7000CA028D879E87AF87B88B8091CB029091C8
:103B8000CC02A091CD02B091CE02898B9A8BAB8BE7
:103B9000BC8B8091CF029091D002A091D102B091C4
:103BA000D2028D8B9E8BAF8BB88F8091D302909178
:103BB000D402A091D502B091D602898F9A8FAB8F93
:103BC000BC8F8091D7029091D802A091D902B09178
:103BD000DA028D8F9E8FAF8FB8A38EE591E09A8326
:103BE00089838091DB0289A38091DC029091DD02C0
:103BF0009BA38AA38091DE028CA38091DF028DA318
:103C00008091E0028EA38091E1028FA38091E20275
:103C100088A78091E30289A78091E4028AA7809116
:103C2000E5028BA78091E6028CA78091E7028DA721
:103C30001DAA1CAA1FAA1EAA19AE18AE40E150E088
:103C400060E771E0CE01C4960E94341A1FA61EA63A
:103C500019AA18AA1BAA1AAA46E050E061E871E066
:103C6000CE018E960E94341A61E0CE0101960E9428
:103C7000680660E0CE0101960E94A00668E871E047
:103C8000CE0101960E94281A61E0CE0101960E94A1
:103C9000A00610E000E050E1E52EF12C88AD99ADD2
:103CA0009701281B390BC9019695879508171907A5
:103CB00048F468EA71E0CE0101960E94281A0F5F6D
:103CC0001F4FECCF60E771E0CE0101960E94281AE9
:103CD00064EC79E080E090E00E94360661E0CE017D
:103CE00001960E94A00669E971E0CE0101960E944A
:103CF000281A61E0CE0101960E94A00610E000E0C3
:103D000030E1E32EF12C8AA99BA9A701481B590B8E
:103D1000CA01969587950817190748F468EA71E073
:103D2000CE0101960E94281A0F5F1F4FECCF61E869
:103D300071E0CE0101960E94281A64EC79E080E0DF
:103D400090E00E94360661E0CE0101960E9468066E
:103D500064E670E080E090E00E9436068EA59FA5A4
:103D6000009711F00E9430258CA99DA9009711F0B1
:103D70000E94302580919A0290919B02892B11F12B
:103D80000E94081A209181023091820280917F0264
:103D900090918002213231050CF07CC0B901605253
:103DA000710977FF02C06F5F7F4F759567958357E5
:103DB000910997FD019600E210E023E730E04EE91B
:103DC00055E07BC02091810230918202C9010796A3
:103DD00097FD0796B3E095958795BA95E1F7209101
:103DE0007F0230918002AC01429FC001439F900D41
:103DF000529F900D11240E94942490939B028093D3
:103E00009A02892B09F0BCCF0E94081AF9E0CF2E44
:103E1000D12C812C912CA0E8AA2EA2E4BA2E23EC5E
:103E200035EF48E25FE3C501B4010E94D4224B01A3
:103E30005C0151E0C51AD10809F4F8C10E9436248A
:103E40002B0120E030E040E251E4C501B4010E94C2
:103E5000CA230E9436246AAF7BAF8CAF9DAFA50109
:103E60009401C501B4010E94CA2320E030E040E281
:103E700051E40E94CA230E943624EE24E394F12CDC
:103E80000AAD1BAD9B01A201B2018BE792E00E943B
:103E9000540CC5CFB9016054710977FF02C06F5F40
:103EA0007F4F759567958255910997FD019600E4BE
:103EB00010E022E530E04EE757E0959587950E94A7
:103EC000950E82E080939D028091980290919902D4
:103ED000892B09F4BDC08CE380939C0210924A02A6
:103EE0001092490210926C0210926B020E943807E5
:103EF00086E995E090931C0280931B0287E995E088
:103F000090931A02809319028091980290919902DD
:103F1000892B09F454C12091B0023091B102409133
:103F2000B2025091B30260E074E284EF90E00E942C
:103F30006C2420513109410951095695479537950F
:103F400027952093B80064E08AE995E00E94C112A9
:103F50006091810261508BE792E00E94641364E0FB
:103F600086E995E00E94C11280919D0264E1813052
:103F700009F460E18BE792E00E94641364E082E957
:103F800095E00E94C1128FE88093B80280917F0271
:103F9000909180028038910509F02AC180918102B8
:103FA000909182028034910509F032C180919D0286
:103FB000813009F41BC18FEC8093B80212E16AEDE5
:103FC0008BE792E00E946413612F8BE792E00E94DE
:103FD000641361E88BE792E00E9464136091B80279
:103FE0008BE792E00E94641369ED8BE792E00E94F8
:103FF000641380919D0261EF813009F462E28BE7E6
:1040000092E00E94641366E08CE895E00E94C11281
:104010008091980290919902892B09F4FDC020911A
:10402000B4023091B5024091B6025091B70260E0FF
:1040300074E284EF90E00E946C2420513109410920
:10404000510956954795379527952093B800DCCEB2
:104050008091A1020E9476058091A2020E947605BD
:104060008091A102082E000C990BFC01E95AF54F32
:10407000E491F0E0EE0FFF1FED5BF54F25913491D9
:104080003093A9022093A802FC01E559F54FE49171
:10409000E093AE028091A202082E000C990BFC0165
:1040A000E95AF54FE491F0E0EE0FFF1FED5BF54F9D
:1040B000A591B491B093AB02A093AA02FC01E5597B
:1040C000F54FE491E093AF028C91E82BEC93809153
:1040D000960290919702892B89F11FB7F8948091ED
:1040E0001802811124C0E1E6FAE08491E5E7FAE0E4
:1040F0009491E82FF0E0EE0FFF1FE35BF54FA591E1
:10410000B491EC91E92321F461E08AE00E94C505B5
:104110008AE00E9476058CB580618CBD8CB5806488
:104120008CBD8DE00E9476058BE00E947605809123
:1041300018028F5F809318021FBFE6CE80919F0206
:104140000E9476058091A0020E94760580919F02D0
:10415000082E000C990BFC01E95AF54FE491F0E0B0
:10416000EE0FFF1FED5BF54F259134913093A502C3
:104170002093A402FC01E559F54FE491E093AC02D1
:104180008091A002082E000C990BFC01E95AF54F12
:10419000E491F0E0EE0FFF1FED5BF54FA591B491B8
:1041A000B093A702A093A602FC01E559F54FE49154
:1041B000E093AD028C91E095E823EC93A5CE80913D
:1041C000960290919702892B31F08091B9029091DB
:1041D000BA020E94C113E091AA02F091AB02908151
:1041E0008091AF02809589238083ADCE8FE9E4CEA4
:1041F0008036910569F48091810290918202409706
:1042000039F480919D02813029F08FEA8093B802C1
:1042100012E0D5CE80E1FACFE091AA02F091AB0294
:1042200080819091AF02892B8083EECD0E94C413D0
:1042300068EE73E080E090E00E9436060E94081A63
:1042400026E0A22E36E0C32EEE24E394F12C01E00A
:1042500010E028E750E040E064E170E08BE792E096
:104260000E94FE080E94C41368EE73E080E090E0B4
:104270000E9436060E94081A21E030E04AE250E02F
:1042800060E270E08BE792E00E948E0E21E030E069
:1042900046E150E060E270E08BE792E00E948E0E13
:1042A00021E030E040E250E06AE270E08BE792E02B
:1042B0000E948E0E21E030E040E250E066E170E0C6
:1042C0008BE792E00E948E0E712C612C81E090E0D1
:1042D0009BAF8AAF5AE0452E512C6CEE262E33242C
:1042E0003A9477EFC72EDD24DA943FEF631A730A0E
:1042F0004AAD5BAD4E5F5F4F5BAF4AAFC40ED51E9C
:10430000430150E2850E911C21E030E0720180E211
:10431000E80EF11CA701B4018BE792E00E948E0E1B
:1043200090E2A92EB12CA618B70821E030E0A70131
:10433000B5018BE792E00E948E0E21E030E000E2B2
:1043400010E004191509A801B4018BE792E00E945E
:104350008E0E21E030E0A801B5018BE792E00E94CB
:104360008E0E21E030E0A401B7018BE792E00E94BD
:104370008E0E21E030E0A401B8018BE792E00E94AC
:104380008E0E21E030E0A501B7018BE792E00E949C
:104390008E0E21E030E0A501B8018BE792E00E948B
:1043A0008E0E641475040CF4E5C00E94C41368EE0C
:1043B00073E080E090E00E9436060E94081AEE2426
:1043C000E394F12C02E310E02AE030E040E250E018
:1043D00060E270E08BE792E00E94540C04E110E090
:1043E0002AE030E042E350E06AE070E08BE792E0E0
:1043F0000E94540C00E210E020E230E044E150E082
:104400006AE070E08BE792E00E94540C0E94C413B3
:1044100068EE73E080E090E00E9436060E94081A81
:1044200001E010E02AE030E040E250E065E270E0B8
:104430008BE792E00E94B00D2AE030E043E350E0C9
:1044400065E270E08BE792E00E94B00D2AE030E078
:1044500045E250E060E270E08BE792E00E94BC0D24
:104460002AE030E045E250E063E370E08BE792E061
:104470000E94BC0D21E045E050E065E270E085E27D
:1044800090E00E94F60E22E045E050E065E270E028
:104490008EE290E00E94F60E24E045E050E06EE2ED
:1044A00070E08EE290E00E94F60E28E045E050E0D9
:1044B0006EE270E085E290E00E94F60E0E94C41366
:1044C00068EE73E080E090E00E9436060E94081AD1
:1044D00004E110E02AE030E040E250E065E270E004
:1044E0008BE792E00E94A00D09E010E021E045E09A
:1044F00050E065E270E08EE290E00E94C80D22E09C
:1045000045E050E065E270E085E290E00E94C80D71
:104510000E94C41368EE73E080E090E00E943606CB
:104520000E94081A01E010E024E130E04AE050E087
:104530006AE070E08BE792E00E947A1124E130E0BB
:104540004AE050E06AE070E08BE792E00E94C3111D
:104550000E94C41368EE73E080E090E00E9436068B
:104560000E94081A20E030E0232B09F44FCC0E946F
:1045700000004CCCD7FCB9CE91E0491A510822E09A
:10458000220E311CC20CD31CB0CE8CE191E0909372
:104590007C0280937B0280919A0290919B0200970B
:1045A00011F00C94302508950E94E7220C945823B2
:1045B0000E944A2338F00E94512320F0952311F0E5
:1045C0000C9441230C94472311240C948C230E94B7
:1045D000692370F3959FC1F3950F50E0551F629FBB
:1045E000F001729FBB27F00DB11D639FAA27F00D4C
:1045F000B11DAA1F649F6627B00DA11D661F829F73
:104600002227B00DA11D621F739FB00DA11D621F57
:10461000839FA00D611D221F749F3327A00D611D74
:10462000231F849F600D211D822F762F6A2F112456
:104630009F5750409AF0F1F088234AF0EE0FFF1F89
:10464000BB1F661F771F881F91505040A9F79E3FE0
:10465000510580F00C9441230C948C235F3FE4F3CC
:10466000983ED4F3869577956795B795F795E79536
:104670009F5FC1F7FE2B880F911D9695879597F93F
:10468000089597F99F6780E870E060E008959FEFD4
:1046900080EC089500240A941616170618060906D9
:1046A000089500240A9412161306140605060895A8
:1046B000092E0394000C11F4882352F0BB0F40F430
:1046C000BF2B11F460FF04C06F5F7F4F8F4F9F4F70
:1046D000089557FD9058440F551F59F05F3F71F0F2
:1046E0004795880F97FB991F61F09F3F79F0879559
:1046F0000895121613061406551FF2CF4695F1DFE2
:1047000008C0161617061806991FF1CF8695710571
:10471000610508940895E894BB2766277727CB01A5
:1047200097F908952F923F924F925F926F927F92E6
:104730008F929F92AF92BF92CF92DF92EF92FF92B1
:104740000F931F93CF93DF93CDB7DEB7CA1BDB0B5D
:104750000FB6F894DEBF0FBECDBF09942A88398802
:1047600048885F846E847D848C849B84AA84B98409
:10477000C884DF80EE80FD800C811B81AA81B98115
:10478000CE0FD11D0FB6F894DEBF0FBECDBFED0129
:1047900008955058BB27AA270E94E1230C94582360
:1047A0000E944A2338F00E94512320F039F49F3FA1
:1047B00019F426F40C9447230EF4E095E7FB0C94CF
:1047C0004123E92F0E94692358F3BA176207730740
:1047D0008407950720F079F4A6F50C948B230EF44A
:1047E000E0950B2EBA2FA02D0B01B90190010C0101
:1047F000CA01A0011124FF27591B99F0593F50F419
:10480000503E68F11A16F040A22F232F342F442770
:10481000585FF3CF469537952795A795F040539568
:10482000C9F77EF41F16BA0B620B730B840BBAF038
:104830009150A1F0FF0FBB1F661F771F881FC2F7A3
:104840000EC0BA0F621F731F841F48F487957795B7
:104850006795B795F7959E3F08F0B0CF9395880F71
:1048600008F09927EE0F9795879508950E943D24AB
:104870006894B1110C948C2308950E94712388F0E0
:104880009F5798F0B92F9927B751B0F0E1F0660F14
:10489000771F881F991F1AF0BA95C9F714C0B13055
:1048A00091F00E948B23B1E008950C948B23672F25
:1048B000782F8827B85F39F0B93FCCF38695779584
:1048C0006795B395D9F73EF490958095709561956D
:1048D0007F4F8F4F9F4F0895A1E21A2EAA1BBB1B3B
:1048E000FD010DC0AA1FBB1FEE1FFF1FA217B307BC
:1048F000E407F50720F0A21BB30BE40BF50B661FD2
:10490000771F881F991F1A9469F760957095809595
:1049100090959B01AC01BD01CF010895EE0FFF1FE3
:104920000590F491E02D09940F931F93CF93DF939B
:104930008230910510F482E090E0E091EA02F0917B
:10494000EB0230E020E0B0E0A0E0309799F42115D0
:10495000310509F44AC0281B390B24303105D8F53C
:104960008A819B816115710589F1FB0193838283A3
:10497000FE0111C0408151810281138148175907FE
:10498000E0F04817590799F4109761F012960C93CC
:10499000129713961C933296CF01DF91CF911F91FE
:1049A0000F9108950093EA021093EB02F4CF2115C2
:1049B000310551F04217530738F0A901DB019A0184
:1049C000BD01DF01F801C1CFEF01F9CF9093EB02F8
:1049D0008093EA02CDCFFE01E20FF31F8193919302
:1049E0002250310939832883D7CF2091E8023091B2
:1049F000E902232B41F4209102013091030130930D
:104A0000E9022093E8022091000130910101211573
:104A1000310541F42DB73EB7409104015091050195
:104A2000241B350BE091E802F091E902E217F3074D
:104A3000A0F42E1B3F0B2817390778F0AC014E5F0E
:104A40005F4F2417350748F04E0F5F1F5093E90260
:104A50004093E802819391939FCFF0E0E0E09CCFF8
:104A6000CF93DF930097E9F0FC0132971382128213
:104A7000A091EA02B091EB02ED0130E020E0109746
:104A8000A1F420813181820F931F2091E80230919F
:104A9000E9022817390709F061C0F093E902E093B1
:104AA000E802DF91CF910895EA01CE17DF07E8F51C
:104AB0004A815B819E0141155105B1F7E901FB83F4
:104AC000EA8349915991C40FD51FEC17FD0761F492
:104AD000808191810296840F951FE90199838883D3
:104AE000828193819B838A83F0E0E0E012968D912E
:104AF0009C9113970097B9F52D913C911197CD0199
:104B00000296820F931F2091E8023091E902281744
:104B1000390739F6309751F51092EB021092EA02FC
:104B2000B093E902A093E802BCCFD383C283408153
:104B30005181840F951FC817D90761F44E5F5F4FED
:104B400088819981480F591F518340838A819B81B5
:104B5000938382832115310509F0B0CFF093EB02E6
:104B6000E093EA029ECFFD01DC01C0CF13821282E6
:104B7000D7CFB0E0A0E0EFEBF5E20C9494238C01EA
:104B8000009751F4CB010E9494248C01C801CDB749
:104B9000DEB7E0E10C94B023FC01E60FF71F9C01A7
:104BA00022503109E217F30708F49DC0D901CD91D5
:104BB000DC911197C617D70798F0C530D10530F3AF
:104BC000CE0104978617970708F3C61BD70B2297C9
:104BD000C193D1936D937C93CF010E943025D6CFA2
:104BE0005B01AC1ABD0A4C018C0E9D1EA091EA021D
:104BF000B091EB02512C412CF12CE12C109731F5A6
:104C00008091E8029091E9028815990509F05CC04D
:104C10004616570608F058C0809100019091010196
:104C2000009741F48DB79EB7409104015091050162
:104C3000841B950BE817F90708F055C0F093E902BB
:104C4000E093E802F90171836083A0CF8D919C917C
:104C5000119712966C90129713967C901397A81543
:104C6000B90559F56C0142E0C40ED11CCA14DB042D
:104C700020F1AC014A195B09DA011296159780F010
:104C80006282738251834083D9016D937C93E114D6
:104C9000F10471F0D7011396FC93EE93129776CF3F
:104CA00022968C0F9D1FF90191838083F301EFCF32
:104CB000F093EB02E093EA0269CF4816590608F434
:104CC0002C017D01D3019ACFCB010E9494247C0159
:104CD000009749F0AE01B8010E947B26C8010E94EE
:104CE0003025870153CF10E000E050CF81E090E005
:104CF000F8940C949226FB01DC0102C001900D9205
:104D000041505040D8F70895DC0101C06D934150E7
:104D10005040E0F70895FB01DC0101900D92002066
:104D2000E1F7089515E0C1E4D5E004C0FE010E945A
:0E4D30008E242196C234D107C9F7F894FFCF24
:104D3E000000EC02800000000000CD07A0073E1628
:104D4E00950599078607770700000000230B980545
:104D5E003E1641160A1295058E0EA00DBC0DB00D15
:104D6E00B60F9505E908E0147A11C311E90CCC0CC5
:104D7E00540CF50B00000000C70698053E164116B0
:104D8E003E163B16321A3816381600000000C706BB
:104D9E0098053E16411615180E17C8159415381697
:104DAE00646973706C61792D4772617068696373A1
:104DBE000076302E312E3000544D4565647563619A
:104DCE0074696F6E2E636F6D0020202020202020CE
:0A4DDE0020202020202020202000AB
:00000001FF
