:100000000C9447050C946F050C946F050C946F05C8
:100010000C946F050C946F050C946F050C946F0590
:100020000C946F050C946F050C946F050C946F0580
:100030000C946F050C946F050C946F050C946F0570
:100040000C94DD190C946F050C946F050C946F05DE
:100050000C946F050C946F050C946F050C946F0550
:100060000C94271A0C946F05000103070F1F3F7FA4
:100070000080C0E0F0F8FCFE00000000003E5B4F96
:100080005B3E3E6B4F6B3E1C3E7C3E1C183C7E3CF8
:10009000181C577D571C1C5E7F5E1C00183C180006
:1000A000FFE7C3E7FF0018241800FFE7DBE7FF3096
:1000B000483A060E2629792926407F050507407F04
:1000C00005253F5A3CE73C5A7F3E1C1C08081C1C77
:1000D0003E7F14227F22145F5F005F5F06097F016D
:1000E0007F006689956A606060606094A2FFA29458
:1000F00008047E040810207E201008082A1C080826
:100100001C2A08081E101010100C1E0C1E0C303873
:100110003E3830060E3E0E06000000000000005F74
:1001200000000007000700147F147F14242A7F2A90
:100130001223130864623649562050000807030052
:10014000001C2241000041221C002A1C7F1C2A089E
:10015000083E080800807030000808080808000001
:1001600060600020100804023E5149453E00427F75
:10017000400072494949462141494D331814127FC4
:100180001027454545393C4A494931412111090764
:100190003649494936464949291E000014000000E5
:1001A00040340000000814224114141414140041B7
:1001B00022140802015909063E415D594E7C121174
:1001C000127C7F494949363E414141227F414141AC
:1001D0003E7F494949417F090909013E4141517327
:1001E0007F0808087F00417F41002040413F017F98
:1001F000081422417F404040407F021C027F7F0460
:1002000008107F3E4141413E7F090909063E4151A8
:10021000215E7F09192946264949493203017F0198
:10022000033F4040403F1F2040201F3F4038403F99
:10023000631408146303047804036159494D4300AF
:100240007F4141410204081020004141417F0402E6
:10025000010204404040404000030708002054547D
:1002600078407F284444383844444428384444285B
:100270007F385454541800087E090218A4A49C78AE
:100280007F0804047800447D40002040403D007F0A
:100290001028440000417F40007C047804787C08EA
:1002A0000404783844444438FC18242418182424BE
:1002B00018FC7C08040408485454542404043F44A3
:1002C000243C4040207C1C2040201C3C4030403CD2
:1002D00044281028444C9090907C4464544C440032
:1002E0000836410000007700000041360800020196
:1002F0000204023C2623263C1EA1A161123A404082
:10030000207A3854545559215555794122545478FE
:1003100042215554784020545579400C1E52721297
:100320003955555559395454545939555454580020
:1003300000457C410002457D420001457C407D1224
:1003400011127DF0282528F07C5455450020545486
:100350007C547C0A097F4932494949323A44444431
:100360003A324A4848303A4141217A3A424020786C
:10037000009DA0A07D3D4242423D3D4040403D3C6D
:1003800024FF2424487E4943662B2FFC2F2BFF0992
:1003900029F620C0887E0903205454794100004486
:1003A0007D413048484A32384040227A007A0A0A71
:1003B000727D0D19317D2629292F282629292926E4
:1003C00030484D4020380808080808080808382F29
:1003D00010C8ACBA2F102834FA00007B00000814B3
:1003E0002A142222142A14085500550055AA55AA89
:1003F00055AAFF55FF55FF000000FF00101010FF29
:1004000000141414FF001010FF00FF1010F010F083
:10041000141414FC001414F700FF0000FF00FF1474
:1004200014F404FC141417101F10101F101F1414C0
:10043000141F00101010F0000000001F101010100A
:100440001F10101010F010000000FF1010101010FE
:1004500010101010FF10000000FF140000FF00FF3C
:1004600000001F10170000FC04F4141417101714D8
:1004700014F404F40000FF00F714141414141414FA
:10048000F700F7141414171410101F101F1414146D
:10049000F4141010F010F000001F101F0000001FD7
:1004A00014000000FC140000F010F01010FF10FF0A
:1004B000141414FF141010101F00000000F010FF9F
:1004C000FFFFFFFFF0F0F0F0F0FFFFFF0000000083
:1004D00000FFFF0F0F0F0F0F3844443844FC4A4A07
:1004E0004A347E02020606027E027E0263554941BC
:1004F000633844443C04407E201E2006027E0202F3
:1005000099A5E7A5991C2A492A1C4C7201724C3006
:100510004A4D4D303048784830BC625A463D3E49DD
:100520004949007E0101017E2A2A2A2A2A44445F81
:10053000444440514A444040444A51400000FF0175
:1005400003E080FF000008086B6B08361236243683
:10055000060F090F060000181800000010100030E8
:1005600040FF0101001F01011E00191D1712003C70
:100570003C3C3C000000000000000000230026007E
:100580002900000000080002010000030407000029
:1005900000000000000000000000240027002A00E6
:1005A000DB40A4A62EAF2000A1C8D300408DAED55D
:1005B00080A80102040810204080010204081020D5
:1005C00001020408102000000000250028002B0074
:1005D00004040404040404040202020202020303E9
:1005E000030303030000600000000000000000009F
:1005F0000000000000E0000000000000000000001B
:1006000000000001E0000000000000000000000009
:10061000000001F0000000000000000000000000E9
:100620000003F000000000000000000000000000D7
:1006300007F00000000000000000000000000007BC
:10064000F8000000000000000000000000000FF8AB
:1006500000000003C0007E000001E0007F0FF800F2
:10066000000003C000FE000001E000FFEFF8000002
:100670000003C000FE000001E000FFFFF8000000E2
:1006800003C000F00000000F007FFE7FC0000003E9
:10069000C000F00000000F003FFE7FF83FF1FBCFED
:1006A000FCFEF3BC3DEFE01FFE7FFF7FFBFFDFFEA4
:1006B000FEFFBC3DEFE01FC6FFFF7FFBFFDFFEFE3E
:1006C000FFBC3DEFE00FE3C7FE787BC3DE1EF0FF0B
:1006D000BC3DEF0007FF87FC787BC3DE1EF0F83CD3
:1006E0003DEF0001FFFFF0007BC3C01EF0F03C3D7A
:1006F000EF0001F37FE03FFBC3CFFEF0F03C3DEFA6
:100700000003E33F807FFBC3DFFEF0F03C3DEF00E2
:1007100007E73C00787BC3DE1EF0F03C3DEF0007AE
:10072000FFBE00787BC3DE1EF0F03C3DEF0007FF0C
:10073000FE00787BC3DE1EF0F03C3DEF000FFFFEB5
:10074000007FFBFFDFFEF0F03FFDEFE00FFFFF005B
:100750007FFBFFDFFEF0F03FFDEFE00FF9FF003E13
:1007600079F9CF9EF0F01F3DE7E01FF1FF00000098
:100770000000000000000000001F80FF007FFFFF5E
:10078000FFFFFFFFFFFFFFE01C007F007FFFFFFF79
:10079000FEB46D888D18E000001F007FFFFFFFFE94
:1007A00095AD7DB577E000000F007FFFFFFFFEA550
:1007B000AD9D8D19E0000006007FFFFFFFFEB5AD87
:1007C000EDB57EE0000000000001800000000000A8
:1007D000000000000380000000000000000000078F
:1007E000C000000000000000000007C00000000082
:1007F00000000000000FC00000000000000000002A
:100800001FE00000000000000000001FE0000000EA
:100810000000000000003FE00000000000000000B9
:10082000003FF00000000000000000007FF000002A
:1008300000000000001FF87FF00000000000000032
:100840003FFE7FF0000000000000003FFF7FF0004F
:100850000000000000001FFFFBE00000000000009F
:10086000000FFFF9FFC00000000000000FFFF9FFBC
:10087000F800000000000007FFF1FFFF000000008B
:10088000000003FC73FFFF80000000000001FE3F3A
:10089000FFFF80000000000000FF1E0FFF000000AF
:1008A000000000007FFE1FFC000000000000003F71
:1008B000FFFFF8000000000000000FDFFFE0000075
:1008C00000000000001F19FFC00000000000000031
:1008D0003F3CFF00000000000000007E7CF80000AC
:1008E0000000000000007FFE7C000000000000000F
:1008F00000FFFFFC0000000000000000FFFFFE0002
:1009000000000000000000FFFFFE000000000000EB
:100910000001FFEFFE0000000000000001FFCFFE1D
:100920000000000000000003FF07FE0000000000C0
:10093000000003FC07FE0000000000000003F003BD
:10094000FE00000000000000018000FE000000002A
:100950000000000000007E00000000000000000019
:10096000003E000000000000000000000C0000003D
:10097000000000078000FC000003C00000000780AA
:1009800001FC000003C0000000078001FC00000320
:10099000C0000000078001E00000001E000000070A
:1009A0008001E00000001E007FE3F79FF9FDE7787B
:1009B0007BDFC0FFF7FFBFFDFDFF787BDFC0FFF7E8
:1009C000FFBFFDFDFF787BDFC0F0F787BC3DE1FF97
:1009D000787BDE00F0F787BC3DE1F0787BDE00003D
:1009E000F787803DE1E0787BDE007FF7879FFDE1C0
:1009F000E0787BDE00FFF787BFFDE1E0787BDE007B
:100A0000F0F787BC3DE1E0787BDE00F0F787BC3D86
:100A1000E1E0787BDE00F0F787BC3DE1E0787BDE4B
:100A200000FFF7FFBFFDE1E07FFBDFC0FFF7FFBF87
:100A3000FDE1E07FFBDFC07CF3F39F3DE1E03E7B27
:100A4000CFC00000000000000000000000FFFFFF1A
:100A5000FFFFFFFFFFFFFFC0FFFFFFFFFD68DB1190
:100A60001A31C0FFFFFFFFFD2B5AFB6AEFC0FFFFEB
:100A7000FFFFFD4B5B3B1A33C0FFFFFFFFFD6B5BCE
:100A8000DB6AFDC02200FF210000461BF724112471
:100A90001FBECFEFD8E0DEBFCDBF11E0A0E0B1E0D8
:100AA000EAEAF0E502C005900D92AA3CB107D9F739
:100AB00023E0AAECB1E001C01D92AE31B207E1F72C
:100AC00015E0C6E4D5E004C02197FE010E9444264B
:100AD000C534D107C9F70E94E81B0C9448280C9430
:100AE000000091E09093A00280939F0210929E02DA
:100AF00010929D020895089508950895AF92BF92AF
:100B0000CF92DF92EF92FF920F931F93CF93DF93D9
:100B10006C017B018B01040F151FEB015E01AE1808
:100B2000BF08C017D10759F06991D601ED91FC912A
:100B30000190F081E02DC6010995892B79F7C50157
:100B4000DF91CF911F910F91FF90EF90DF90CF90A9
:100B5000BF90AF900895833081F028F4813099F0F0
:100B60008230A9F008958730A9F08830C9F0843028
:100B7000B1F4809180008F7D03C0809180008F77D9
:100B800080938000089584B58F7784BD089584B5DF
:100B90008F7DFBCF8091B0008F778093B000089558
:100BA0008091B0008F7DF9CFCF93DF93282F30E075
:100BB000F901EE57FA4F8491F901EE54FA4FD491AE
:100BC000F901E053FA4FC491CC23A1F081110E94A6
:100BD000AB05EC2FF0E0EE0FFF1FE858FA4FA591A0
:100BE000B491EC91ED2381E090E009F480E0DF9195
:100BF000CF91089580E090E0FACF1F93CF93DF93D9
:100C0000282F30E0F901EE57FA4F8491F901EE54A4
:100C1000FA4FD491F901E053FA4FC491CC23A9F0D3
:100C2000162F81110E94AB05EC2FF0E0EE0FFF1F95
:100C3000EA53FA4FA591B4918FB7F894EC91111142
:100C400008C0D095DE23DC938FBFDF91CF911F9139
:100C50000895DE2BF8CFCF93DF9390E0FC01EE54A4
:100C6000FA4F249180539A4FFC0184918823D1F04C
:100C700090E0880F991FFC01EA56FA4FA591B491B4
:100C8000FC01EA53FA4FC591D49161110EC09FB790
:100C9000F8948C91E22FE0958E238C932881E223A7
:100CA000E8839FBFDF91CF9108958FB7F894EC91BF
:100CB000E22BEC938FBFF6CF3FB7F89480913402CC
:100CC00090913502A0913602B091370226B5A89BCB
:100CD00005C02F3F19F00196A11DB11D3FBFBA2FCE
:100CE000A92F982F8827BC01CD01620F711D811D8E
:100CF000911D42E0660F771F881F991F4A95D1F713
:100D000008958F929F92AF92BF92CF92DF92EF920F
:100D1000FF924B015C010E945C066B017C010E940A
:100D20005C066C197D098E099F09683E7340810538
:100D30009105A8F321E0821A9108A108B10888EE74
:100D4000C80E83E0D81EE11CF11C81149104A1049B
:100D5000B10429F7FF90EF90DF90CF90BF90AF9054
:100D60009F908F9008952FB7F89460913002709102
:100D7000310280913202909133022FBF08958F92F9
:100D80009F92AF92BF92EF92FF921F93CF93DF9308
:100D9000EC01162FE881F9810484F585E02D462FBA
:100DA00070E060E009957C0111501230D8F419868A
:100DB0001A8688889988AA88BB880E945C06688FF2
:100DC000798F8A8F9B8F8C8E9D8EAE8EBF8EC70142
:100DD000DF91CF911F91FF90EF90BF90AF909F90C8
:100DE0008F9008958C889D88AE88BF88E6CFDC01FF
:100DF00018968C911897481710F04FEF480F1B96D4
:100E00009C911B97992389F017969C9117976917C6
:100E100030F0691B4F5F4817D0F340E0F8CF1996C8
:100E20006C9319971A964C931A97FD01E40FF11DD4
:100E30008485680F6068CD010C94BF068F929F92E5
:100E4000AF92BF92EF92FF920F931F93CF93DF93D6
:100E5000EC01462FE881F9810484F585E02D61E0FD
:100E600070E009957C018C889D88AE88BF880E94BF
:100E70005C06688F798F8A8F9B8F8C8E9D8EAE8E4D
:100E8000BF8E01E010E0EF2811F010E000E08B854C
:100E9000882399F089858F5F89879F81891768F0FA
:100EA00019868A858F5F8A879885891708F01A8640
:100EB0004A8560E0CE010E94F706C801DF91CF911C
:100EC0001F910F91FF90EF90BF90AF909F908F90E8
:100ED000089561E00C94BF0620910C02260F332781
:100EE000331F21323105ECF420917502FC0190E0B2
:100EF00080E0243069F082E00895A0910C022191F5
:100F0000AC0144515E4FA40FB52FB11D2C93019637
:100F1000861798F380910C02680F60930C0280E0B2
:100F2000089581E008951092750281E08093740223
:100F300010926F0261E082E10E94FD0561E083E1B1
:100F40000E94FD05E9EBF0E080818E7F8083808147
:100F50008D7F808388E48093B80085E48093BC0013
:100F60000895CF93DF9391E09093EB018823B9F03C
:100F7000C091B800D091BA008091BC008A7B809368
:100F8000BC0060E082E10E94FD0560E083E10E9418
:100F9000FD050E949307D093BA00C093B800DF917B
:100FA000CF910895E0917C0280917B02E81730F4A4
:100FB000F0E0E358FD4F808190E008958FEF9FEFC0
:100FC000089590917C0280917B022FEF3FEF98175C
:100FD00048F4E92FF0E0E358FD4F208130E09F5FB7
:100FE00090937C02C901089580917B0290917C02CC
:100FF000891B990B0895CF92DF92EF92FF920F9386
:101000001F93CF93DF937C01CB018A012091A00233
:10101000222389F0EB016B01C40ED51ECC15DD0532
:1010200069F06991D701ED91FC910190F081E02D7B
:10103000C7010995F3CF642F0E946C07C801DF91A7
:10104000CF911F910F91FF90EF90DF90CF90089577
:10105000CF93DF931F92CDB7DEB769832091A002B3
:101060002223F9F020919D02203258F021E030E057
:10107000FC013383228390E080E00F90DF91CF91D9
:10108000089580919E02E82FF0E0E553FE4F99818C
:1010900090838F5F80939E0280939D0281E090E019
:1010A000ECCF61E0CE0101960E946C07F7CF682F6C
:1010B00081EA92E00C942808CF92DF92EF92FF929F
:1010C0000F931F93CF93DF93D0919D0281E0D13294
:1010D00008F09CC0C0919F020E945C066B017C01DD
:1010E0008091750281116CC082E08093750281E06D
:1010F000809374028FEF8093730210927202D093E8
:101100007102ABECB1E0EFE4F2E080E0D8138DC007
:101110001092700280917002CC0FC82BC0937002A5
:1011200080916F02813009F084C010926F020E949A
:101130005C066B017C01809170028093BB00809102
:10114000770290917802A0917902B0917A02892B6E
:101150008A2B8B2BA1F00E945C06009177021091E4
:1011600078022091790230917A026C197D098E09FA
:101170009F09061717072807390708F442C080910E
:10118000BC0083FDD8CF85EC8093BC000E945C0638
:101190006B017C0180917502823009F44CC0809112
:1011A00073028F3F09F469C080917302803209F4A1
:1011B00066C080917302803309F463C084E026C066
:1011C0008091770290917802A0917902B0917A0291
:1011D000892B8A2B8B2B09F483CF0E945C0600910C
:1011E0007702109178022091790230917A026C197D
:1011F0007D098E099F09061717072807390708F088
:101200006FCF809176020E94B10785E010929E0216
:1012100010929D021092A002DF91CF911F910F9129
:10122000FF90EF90DF90CF9008959D9191938F5F05
:101230006DCF85EEA9CF8091770290917802A09131
:101240007902B0917A02892B8A2B8B2B09F4A2CFD9
:101250000E945C0600917702109178022091790239
:1012600030917A026C197D098E099F0906171707BC
:101270002807390708F08ECFC4CF80E0C7CF82E0BF
:10128000C5CF83E0C3CF0895FC016370668B848172
:10129000958126813781613039F0633029F091875B
:1012A00080873387228708953187208793878287B5
:1012B00008952F923F924F925F926F927F928F92FA
:1012C0009F92AF92BF92CF92DF92EF92FF920F93D5
:1012D0001F93CF93DF93CDB7DEB76A970FB6F8941D
:1012E000DEBF0FBECDBF9A8F898F7A8369834A0193
:1012F000D22E18870F833701BC2CDC0159962D9113
:101300003C915A972115310509F015C118968D9118
:101310009C911997681779070CF0D7C11A968D918F
:101320009C91481759070CF0D0C14C2C512CB6E0B9
:10133000CB9E600D711D11247C876B8716161706D6
:101340000CF0C3C1EA2DF0E0FA87E98793E0EE0FD5
:10135000FF1F9A95E1F7F88BEF87CF01840F951F58
:10136000181619060CF0B1C1A98DBA8D58968C913A
:10137000811104C0BFEABD1508F4D394A98DBA8DBC
:10138000ED91FC9111970284F385E02DCD01099533
:10139000B5E0DB9EC0011124E981FA81FC83EB8377
:1013A000312C212C9C0128583F4F388F2F8B4A2DF0
:1013B00050E05E8B4D8BEF89F88DE20DF31D44916B
:1013C0009E828D82D12CC12C69817A81620D731D20
:1013D0007A8B698B842F90E09C8B8B8BE98DFA8DB7
:1013E000A081B18140FF82C0F1E0BF126FC0AF1297
:1013F0006DC01C96ED91FC912F813885A4014C0D98
:101400005D1D69897A89898D9A8D0995EB89FC8999
:10141000F595E7954E2F5FEFC51AD50A6D817E8150
:101420008D899E89680F791F7E836D8398E0C91628
:10143000D10481F6AFEF2A1A3A0AEB81FC81E40D60
:10144000F51DFC83EB83F5E02F16310409F0B3CFD3
:101450002F81388526153705B9F0A98DBA8DED9104
:10146000FC91B1E0BB1257C0AB1255C069817A81C3
:101470006B5F7F4F0088F189E02D830128E030E029
:10148000A401898D9A8D0995A98DBA8DED91FC9154
:1014900011970688F789E02DCD016A960FB6F8946A
:1014A000DEBF0FBECDBFDF91CF911F910F91FF9097
:1014B000EF90DF90CF90BF90AF909F908F907F90F4
:1014C0006F905F904F903F902F9009941E96ED91F2
:1014D000FC91EF80F88409851A8592014D815E8127
:1014E0006B817C81898D9A8D099590CF2F8138856C
:1014F0002615370509F48ACF31E0B31207C0A312CD
:1015000005C01C96ED91FC91930178CF1E96ED914C
:10151000FC917301E0CF6B857C85641975090684A5
:10152000F785E02D73010F8518899201A401898D3B
:101530009A8D0995A9CFF9013496949132974591E6
:101540005491D91AB7E0DB9E400D511D1124F901C9
:10155000259134913C8B2B8BFA0125903490FA0124
:101560003296749031963491398B329664903196DC
:10157000449041E04C1518F04A1508F07FC0662DE4
:10158000062C000C770B7C836B83842D042C000CC1
:10159000990B9E838D83A98DBA8DED91FC91119746
:1015A0000284F385E02DCD010995512CD12CC12C5D
:1015B000EA2DF0E0FA87E9872B2D30E03C872B8776
:1015C000A401440D511D47FC5A95588F4F8B6981DA
:1015D0007A81660D711D67FC7A957E876D877989A2
:1015E000C71608F051CF2C2D30E04D815E81420F9F
:1015F000531FA985BA854A9FC0014B9F900D5A9FE2
:10160000900D1124FC01E80DF91DF88BEF87852D55
:10161000612C4F89588D420F531F5E8B4D8B671481
:1016200008F050C044244394480E877041F4C1012F
:101630000196EB89FC89E20DF31DD4901C01D7FEC5
:1016400019C0A98DBA8DED91FC91662D70E0B1E0C5
:10165000BB1219C0AB1217C02D853E85620F731FD8
:101660000484F585E02D2F8138854D895E89898D2B
:101670009A8D0995DD0C6394842DD1CF1E821D8235
:101680001C821B8288CF4B815C81640F751FAB85E8
:10169000BC856A9FC0016B9F900D7A9F900D1124AD
:1016A00069817A81680F791F0684F785E02DEF80C4
:1016B000F88409851A859D014F855889898D9A8DF1
:1016C0000995D8CF570CC3948ACF6A960FB6F89471
:1016D000DEBF0FBECDBFDF91CF911F910F91FF9065
:1016E000EF90DF90CF90BF90AF909F908F907F90C2
:1016F0006F905F904F903F902F9008958F929F92A0
:10170000AF92CF92EF92FF920F931F93CF93DF93FD
:10171000EC01262F898D9A8D009709F051C06A300F
:10172000D1F41D861C868D8948E0849F9001112488
:101730008E859F85820F931F9F878E8781E090E023
:10174000DF91CF911F910F91FF90EF90CF90AF90CD
:101750009F908F9008956D3089F3CC88AD888F89E4
:101760008823C1F08C859D8536E0C39E800D911D38
:101770001124488559854817590764F44E855F85BB
:101780001D861C8638E0A39EC0011124840F951F7E
:101790009F878E87EA88FB88088919894E855F852F
:1017A0006C857D85CE010E9459092C898C859D858B
:1017B00046E0249F800D911D11249D878C87BECF0C
:1017C0006A3069F41D861C86FC013896E4912D89E7
:1017D0008E859F85E29F800D911D1124ADCF6D30C8
:1017E00009F4ACCFFC0134963491631708F4A6CF0A
:1017F0003296E491E61708F4A1CFFC013296859069
:101800009490462F431B342F47E0349F800C911C4B
:101810001124F401329634913196E4913323A9F1E5
:10182000EE2399F1CC88F4013596E491AD884F8987
:10183000442301F10E2E000CFF0BE30FF11DCE9E91
:10184000A001CF9E500D11246C857D85460F571F3A
:1018500068857985641775076CF44E855F851D86EC
:101860001C86FC013896E491AE9E400D511D11245A
:101870005F874E87EA88FB88088919894E855F85CE
:101880006C857D85CE010E945909F4013496E4915E
:101890002C898C859D85E29F800D911D11248DCF13
:1018A0006F927F928F929F92AF92BF92CF92DF9270
:1018B000EF92FF920F931F93CF93DF93EC016B0195
:1018C0005A0139014801E881F9810284F385E02D4C
:1018D0000995E881F9810288F389E02D8701930158
:1018E000A501B601CE010995A501480D591D41502C
:1018F0005109E881F9810288F389E02D9301B6014D
:10190000CE010995E881F9810088F189E02D9401E3
:10191000A501B601CE010995C60CD71CB6016150D0
:101920007109E881F9810088F189E02D9401A50110
:10193000CE010995E881F9810688F789E02DCE016D
:10194000DF91CF911F910F91FF90EF90DF90CF909B
:10195000BF90AF909F908F907F906F9009946F92FF
:101960007F928F929F92AF92BF92CF92DF92EF922F
:10197000FF920F931F93CF93DF935C01EB016A01FA
:10198000490138018701DC01ED91FC916217730771
:1019900019F5641675062CF0962D872D3A01C92E7F
:1019A000D82E9601261937092F5F3F4F048CF58DED
:1019B000E02DA301BE01C5010995DF91CF911F91D3
:1019C0000F91FF90EF90DF90CF90BF90AF909F90DE
:1019D0008F907F906F9008954615570591F42617C4
:1019E000370724F0892D4B01C22FD82F9E012819CB
:1019F00039092F5F3F4F068CF78DE02DA601B4010A
:101A0000DACF0284F385E02D0995D501ED91FC91A3
:101A10000488F589E02D83019401A601BE01C5016A
:101A20000995D501ED91FC910688F789E02DC50156
:101A3000DF91CF911F910F91FF90EF90DF90CF90AA
:101A4000BF90AF909F908F907F906F900994EF928E
:101A5000FF920F931F93DC011A960D911C911B9717
:101A600018962D913C911997ED91FC9100A0F1A150
:101A7000E02D7B0150E040E070E060E009951F91AF
:101A80000F91FF90EF9008954F925F926F927F9227
:101A90008F929F92AF92BF92CF92DF92EF92FF927E
:101AA0000F931F93CF93DF936C012B015A013901E0
:101AB0004801DC01ED91FC910284F385E02D09954C
:101AC000E201640C751CD601ED91FC91C615D70599
:101AD0005CF40088F189E02D87019401A501BE0125
:101AE000C60109952196EFCF0688F789E02DC6013A
:101AF000DF91CF911F910F91FF90EF90DF90CF90EA
:101B0000BF90AF909F908F907F906F905F904F901D
:101B100009948F929F92AF92BF92CF92DF92EF92F1
:101B2000FF920F931F93CF93DF93EC015B014A0168
:101B30006901E881F9810284F385E02D0995950119
:101B40002C0D3D1D21503109E881F9810488F5896A
:101B5000E02D78018401A401B501CE010995E88149
:101B6000F9810688F789E02DCE01DF91CF911F9191
:101B70000F91FF90EF90DF90CF90BF90AF909F902C
:101B80008F9009948F929F92AF92BF92CF92DF92E3
:101B9000EF92FF920F931F93CF93DF93EC015B01C2
:101BA0004A0169017801E881F9810284F385E02D19
:101BB0000995C80CD91C860101501109E881F981E9
:101BC0000488F589E02D9501A401B501CE010995A0
:101BD000E881F9810688F789E02DCE01DF91CF9168
:101BE0001F910F91FF90EF90DF90CF90BF90AF903B
:101BF0009F908F900994EF92FF920F931F93DC01B7
:101C0000ED91FC9100A0F1A1E02D09951F910F919C
:101C1000FF90EF9008950F931F93DC01ED91FC91DD
:101C2000068CF78DE02D09951F910F9108950F9364
:101C30001F93DC01ED91FC91048CF58DE02D09954D
:101C40001F910F910895DC01ED91FC910084F185C5
:101C5000E02D09943F924F925F926F927F928F9204
:101C60009F92AF92BF92CF92DF92EF92FF920F932B
:101C70001F93CF93DF935C017B014A016901390116
:101C800087E0680E711C93E0759467949A95E1F76C
:101C90002B01400E511E10E000E0312CD0E0C0E0DE
:101CA000CE0187709927330C892B59F4FE0183E00C
:101CB000F595E7958A95E1F7E00FF11FE80DF91D1D
:101CC000349037FE0AC021E030E0A701B5016C0F67
:101CD0007D1F8DEA92E00E94230E2196CC16DD0630
:101CE000F9F68FEFE81AF80A060D171DE414F5044B
:101CF000A9F6DF91CF911F910F91FF90EF90DF90A8
:101D0000CF90BF90AF909F908F907F906F905F909B
:101D10004F903F9008952F923F924F925F926F9213
:101D20007F928F929F92AF92BF92CF92DF92EF926B
:101D3000FF920F931F93CF93DF9300D000D000D07A
:101D4000CDB7DEB73C016A013E832D83FC82EB8276
:101D50005801A41AB50AB7FE03C0B194A194B10802
:101D60008D809E80861A970A97FE03C09194819475
:101D700091088A149B045CF0902F812F0D811E81A5
:101D80009D838E839C2D8D2D6B01692F782F0C15D3
:101D90001D055CF09D818E817E836D83692F782F78
:101DA000902F812F8601C92ED82E1601201A310AB4
:101DB0002B012D813E81421A530A57FE03C05194D4
:101DC00041945108710137FE03C03FEFE31AF30A53
:101DD000F594E7948D819E81861797075CF5A1E0C5
:101DE000B0E0BA83A983C016D1064CF1D301ED91BE
:101DF000FC910484F585E02D2B813C81A8016D8147
:101E00007E818A149B041CF04D815E81B801C30160
:101E10000995E418F508F7FE0AC02D813E818981F5
:101E20009A81280F391F3E832D83E20CF31C0F5F2C
:101E30001F4FD9CF2FEF3FEF3A832983D4CF269678
:101E40000FB6F894DEBF0FBECDBFDF91CF911F91CB
:101E50000F91FF90EF90DF90CF90BF90AF909F9049
:101E60008F907F906F905F904F903F902F9008954C
:101E7000EF92FF920F931F93CF93DF93EC01EC80CF
:101E8000FD806E157F050CF070C057FF04C0240F55
:101E9000351F50E040E08E819F81FA01E20FF31F71
:101EA0008E179F071CF49C01241B350B121613067A
:101EB0000CF05BC0922F842F8695869586958E9D1B
:101EC000D0018F9DB00D11246A0F7B1FAF8DB8A17B
:101ED000A60FB71F477049F188E0841B482F682F71
:101EE00070E0FB01E059FF4FE491281708F063C050
:101EF000621B71092FEF30E002C0359527956A9576
:101F0000E2F7E2230130110539F0B0F1023011059A
:101F100061F58C91E82702C08C91E82BEC93941723
:101F200020F12C813D81A20FB31FE92FE41BE83083
:101F300078F00230110521F58E2F9C9190959C939D
:101F40002C813D81A20FB31F88508830B0F7E77015
:101F5000EE2359F0F0E0E859FF4FE491013011050C
:101F6000F9F010F10230110519F1DF91CF911F91B5
:101F70000F91FF90EF900895E0958C91E823CECFDC
:101F800081E00115110509F480E081959E2F8C9365
:101F90002C813D81A20FB31F98509830C0F7D7CF46
:101FA0008C91E82BEC93E1CFE0958C91E823FACF6C
:101FB0008C91E827F7CF0130110509F4ADCFE0F29D
:101FC0000230110509F4A5CFAE0DBF1DAECF0F93A2
:101FD0001F93CF93DF9377FF04C0260F371F70E066
:101FE00060E0DC011496CD91DC91FB01E20FF31F60
:101FF000CE17DF071CF49E01261B370B12161306A3
:102000004CF5FA0157FD3796A3E0F595E795AA95AB
:10201000E1F7EC9FD001ED9FB00DFC9FB00D1124B6
:102020006A0F7B1FDC015F96ED91FC91E60FF71FB5
:102030004770552781E090E001C0880F4A95EAF784
:10204000482F0130110559F0A8F02E0F3F1F023024
:102050001105E1F0DF91CF911F910F9108952E0F9F
:102060003F1FE217F307B1F38191DF011197842B32
:102070008C93F7CF80952E0F3F1FE217F30751F394
:102080009191DF01119798239C93F7CFE217F30703
:1020900009F38191DF01119784278C93F7CF0F9378
:1020A0001F93FA01DC0156964C9156974230E9F0A5
:1020B0004330A1F1413061F514964D915C91DA0104
:1020C000AE1BBF0BFD01E21BF30B77FD0BC0DC0168
:1020D00016964D915C916417750724F4AB01BF010E
:1020E0000E94E70F1F910F91089514964D915C91F6
:1020F000DA01A61BB70BBD0161507109DC01169610
:102100004D915C91DA01AE1BBF0BFD01E21BF30B9D
:1021100077FDE8CFAF010E94380FE4CF16964D91BE
:102120005C91DA01A61BB70BBD0161507109CDCFDF
:102130000F931F93FA01DC0156964C91569742304B
:10214000A9F0433091F1413019F514964D915C910D
:10215000DA01AE1BBF0BFD013197F7FD04C0AB01E7
:10216000BF010E94380F1F910F91089514964D9151
:102170005C91DA01A61BB70BBD01DC0116964D91EF
:102180005C91DA01AE1BBF0BFD013197621B730B33
:10219000F7FDE9CFDC0116964D915C91E417F50748
:1021A00014F7AF010E94E70FDECF16964D915C91B8
:1021B000DA01A61BB70BBD01621B730BCECFFC016E
:1021C00077FD64C080859185681779070CF05EC043
:1021D00057FD5CC082859385481759070CF056C09F
:1021E00086898230B1F0833029F1813041F48481D5
:1021F0009581841B950BAB01BC01615071092130A5
:10220000310509F108F443C02230310509F463C0F7
:10221000089584819581DC01A61BB70BBD01615037
:10222000710986819781DC01A41BB50BAD0141507A
:102230005109E5CF86819781861B970BBA01AC01C6
:1022400041505109DCCFCA0157FD0796A3E095958F
:102250008795AA95E1F7A481B5818A9F90018B9F0C
:10226000300D9A9F300D1124620F731F078CF0A15F
:10227000E02DE60FF71F4770552721E030E001C041
:10228000220F4A95EAF78081822B80830895CA0144
:1022900057FD079633E0959587953A95E1F7A48128
:1022A000B5818A9F90018B9F300D9A9F300D11242C
:1022B000620F731F078CF0A1E02DE60FF71F477028
:1022C000552781E090E001C0880F4A95EAF7809594
:1022D00090818923DACFCA0157FD079623E09595AF
:1022E00087952A95E1F7A481B5818A9F90018B9FFC
:1022F000300D9A9F300D1124620F731F078CF0A1CF
:10230000E02DE60FF71F4770552721E030E001C0B0
:10231000220F4A95EAF780818227B7CF08958EBDB4
:1023200000000DB407FEFDCF8EB50895FF920F9308
:102330001F93CF93DF93F82ED92FC62F8091CA0217
:102340009091CB02892B09F447C08091CE020E9464
:1023500071058091CA029091CB02DC01ED91FC9154
:102360000190F081E02D60E009950F2D1D2FD1E047
:10237000C1508091CA029091CB02CF3F31F1D0324F
:1023800098F00E945C088091CE020E9471058091B5
:10239000CA029091CB02DC01ED91FC910190F08199
:1023A000E02D60E00995D1E08091CA029091CB02C6
:1023B000F8016491DC01ED91FC910190F081E02D38
:1023C0000995DF5F0F5F1F4FD3CFDF91CF911F9133
:1023D0000F91FF900C945C08E091DA02F091DB021F
:1023E00090818091E0028095892380830F2D1D2F9D
:1023F000C15008F438C0F80184912091C80230918E
:10240000C902232B29F00E948F110F5F1F4FF0CFBD
:1024100028E030E040E8E091D602F091D7029091B8
:10242000DE02582F5423D9F05081952B9083E091F0
:10243000D802F091D90290815091DF02952B9083C0
:10244000E091D802F091D90250819091DF029095ED
:1024500095239083469521503109E9F6D6CF5081D6
:1024600090959523E3CFDF91CF911F910F91FF902E
:1024700008951F93CF93DF93EC018D8D9E8D892B53
:10248000F9F0162F89A10E9471058D8D9E8DDC01BA
:10249000ED91FC910190F081E02D60E009958D8D2A
:1024A0009E8DDC01ED91FC910190F081E02D612F7A
:1024B00009958D8D9E8DDF91CF911F910C945C08B5
:1024C000ADA5BEA59C918BA9809589238C938B8DFE
:1024D0009C8D892B31F0862FDF91CF911F910C9429
:1024E0008F1128E030E080E8A9A5BAA599A9462F68
:1024F0004823C1F04C91942B9C93ABA5BCA59C9117
:102500004AA9942B9C93ABA5BCA54C919AA99095F4
:1025100094239C9386952150310931F7DF91CF9117
:102520001F9108954C9190959423E6CF8CBD9DBD4D
:102530000895FF920F931F93CF93DF938091CA0268
:102540009091CB02892B09F487C02091E20230914F
:10255000E3024091E4025091E50260E074E284EF0E
:1025600090E00E94132620513109410951095695E6
:102570004795379527952093B80065E084E89AE061
:102580000E9496116091B10261508DEA92E00E9422
:1025900039122091B3023091B402C901079697FD18
:1025A000079623E0959587952A95E1F72091B1024A
:1025B0003091B202829F8001839F100D929F100D77
:1025C0001124C091CC02D091CD028091CA02909189
:1025D000CB020C0F1D1F892B09F47CC08091CE0209
:1025E0000E9471058091CA029091CB02DC01ED91AD
:1025F000FC910190F081E02D60E40995FF24F394B3
:102600008091CA029091CB020C171D07E1F1BFE146
:10261000BF15A0F40E945C088091CE020E94710553
:102620008091CA029091CB02DC01ED91FC91019066
:10263000F081E02D60E40995FF24F3948091CA02B3
:102640009091CB026991DC01ED91FC910190F081B8
:10265000E02D0995F394D4CF8091C8029091C902DE
:10266000892B31F08091EB029091EC020E9496123E
:10267000E091DC02F091DD0290818091E102809591
:10268000892380837ACF0E945C088091CA0290914E
:10269000CB02892B09F45FC02091E6023091E7025A
:1026A0004091E8025091E90260E074E284EF90E02A
:1026B0000E94132620513109410951095695479529
:1026C000379527952093B800DF91CF911F910F91F7
:1026D000FF900895E091DA02F091DB028081909101
:1026E000E002892B80830C171D0779F289912091D4
:1026F000C8023091C902232B19F00E948F11F3CF29
:1027000028E030E040E8E091D602F091D7029091C5
:10271000DE02582F5423D9F05081952B9083E091FD
:10272000D802F091D90290815091DF02952B9083CD
:10273000E091D802F091D90250819091DF029095FA
:1027400095239083469521503109E9F6CCCF5081ED
:1027500090959523E3CFE091DC02F091DD0280813A
:102760009091E102892B8083AFCF1F93CF93DF93AA
:10277000EC01162F8D8D9E8D892BB1F12DA93EA9CF
:102780004FA958AD60E074E284EF90E00E941326F8
:10279000205131094109510956954795379527959B
:1027A0002093B80066EA111167EACE010E9439123F
:1027B0008D8D9E8D892B41F129AD3AAD4BAD5CAD30
:1027C00060E074E284EF90E00E941326205131090A
:1027D0004109510956954795379527952093B8009B
:1027E000DF91CF911F9108958B8D9C8D892B21F0C6
:1027F0008EAD9FAD0E949612EFA5F8A990818CA98D
:10280000809589238083CECFEFA5F8A980819CA9EC
:10281000892B8083E5CF0F931F93CF93DF93182FDE
:10282000D0E0C0E28C2F0E94710581EA92E00E9404
:102830005C08082F61E070E080E090E00E94810673
:10284000011103C01D17E1F0DF5FCF5FC83251F700
:10285000C8E38C2F0E94710581EA92E00E945C0817
:10286000082F61E070E080E090E00E948106011195
:1028700003C01D1729F0DF5FCF5FC03451F7C0E000
:102880008C2FDF91CF911F910F910895CF93FC0171
:10289000C4A560FF02C086A1C82B61FF02C087A14A
:1028A000C82B62FF02C080A5C82B63FF02C081A5B0
:1028B000C82B4130510511F483A1C82B85A18C2B65
:1028C00090E00E9457086C2F81EA92E0CF910C941F
:1028D0002808CF93DF93EC018AA5882359F19BA5A3
:1028E000662321F1913021F58CA788A10E94710502
:1028F00089A19AA1029721F489E090E00E945708EB
:102900006CA581EA92E00E94280881EA92E00E9488
:102910005C0821E030E0811102C030E020E088272F
:102920009927821B930BDF91CF9108959923E1F2B0
:102930001CA6DBCF8DEF9FEFF6CF4F925F926F9289
:102940007F928F929F92AF92BF92EF92FF921F93CE
:10295000CF93DF93EC0188A1882309F45BC089A1A0
:102960009AA1892B09F456C0142F7B014C8C5D8CE5
:102970006E8C7F8C888C998CAA8CBB8C8DE2881A8B
:102980009108A108B1080E945C06681979098A09B2
:102990009B096415750586059705A8F388A10E9413
:1029A000710589A19AA1029721F489E090E00E9423
:1029B0005708612F70E084E0759567958A95E1F777
:1029C000A701CE010E94461482E0E816F10431F01E
:1029D000612F6F70A701CE010E94461481EA92E038
:1029E0000E945C0821E030E0811102C030E020E06C
:1029F00088279927821B930BDF91CF911F91FF901E
:102A0000EF90BF90AF909F908F907F906F905F906E
:102A10004F9008958CEF9FEFEFCF8DEF9FEF0895CC
:102A20008DEF9FEF089590E080E008950895CF9294
:102A3000DF92EF92FF920F931F93CF93C82F0E94C4
:102A40005C066B017C0180917502811164C081E09C
:102A500080937502809374029FEF9093730210929B
:102A60007202109271028093700280917002CC0FFA
:102A7000C82BC093700280916F02813009F07DC035
:102A800010926F020E945C066B017C0180917002C3
:102A90008093BB008091770290917802A091790297
:102AA000B0917A02892B8A2B8B2BA1F00E945C06B5
:102AB00000917702109178022091790230917A0288
:102AC0006C197D098E099F09061717072807390712
:102AD00008F442C08091BC0083FDD8CF85EC809380
:102AE000BC000E945C066B017C0180917502813004
:102AF00009F445C080917202811163C08091720215
:102B0000EFE4F2E0ADE7B2E090E0981751F12191E7
:102B10002D939F5FFACF8091770290917802A091D8
:102B20007902B0917A02892B8A2B8B2B09F48BCFF7
:102B30000E945C0600917702109178022091790240
:102B400030917A026C197D098E099F0906171707C3
:102B50002807390708F077CF809176020E94B107E5
:102B600080E010927C0280937B02CF911F910F91A5
:102B7000FF90EF90DF90CF90089585EEB0CF8091D9
:102B8000770290917802A0917902B0917A02892B14
:102B90008A2B8B2B09F4A9CF0E945C060091770247
:102BA000109178022091790230917A026C197D0996
:102BB0008E099F09061717072807390708F095CFD0
:102BC000CBCF81E09DCF4F925F926F927F928F9299
:102BD0009F92AF92BF92EF92FF920F931F93CF936A
:102BE000DF93EC011CA588A1882309F4EDC089A11D
:102BF0009AA1009709F4E8C0029709F4E8C08CA1F3
:102C0000882309F4E4C07B014C8C5D8C6E8C7F8C36
:102C1000888C998CAA8CBB8C8DE2881A9108A108AB
:102C2000B1080E945C06681979098A099B09641534
:102C3000750586059705A8F38EA1182B8FA1182B73
:102C400088A5182B89A5182BEA94EF2811F48BA1DD
:102C5000182B8CA1182B88A10E947105612F81EA85
:102C600092E00E94280881EA92E00E945C08882392
:102C700011F10FEF1FEF88A10E9471056CA581EA89
:102C800092E00E94280881EA92E00E945C08882372
:102C900011F00FEF1FEFC801DF91CF911F910F913E
:102CA000FF90EF90BF90AF909F908F907F906F902C
:102CB0005F904F90089588A10E9471058DA1812B8E
:102CC00090E00E94570881EA92E00E945C0881111E
:102CD000D0CF88A190E00E94171581EA92E00E946F
:102CE000E1077C0197FDC5CF88A10E947105612F86
:102CF00081EA92E00E94280881EA92E00E945C0842
:102D0000082F8111B6CF8EA190E08E219F21892BB3
:102D100009F000E18FA190E08E219F21892B09F01D
:102D2000006288A590E08E219F21892B09F0006424
:102D300089A590E08E219F21892B09F0006888A148
:102D40000E9471058DA1812B90E00E94570881EAB5
:102D500092E00E945C0881118CCF88A190E00E94D3
:102D6000171581EA92E00E94E1077C0197FD81CF6F
:102D700088A10E947105612F81EA92E00E942808D3
:102D800081EA92E00E945C08811173CF8EA190E0ED
:102D90008E219F21892B09F001608FA190E08E2167
:102DA0009F21892B09F0026088A590E08E219F2148
:102DB000892B09F0046089A590E08E219F21892B41
:102DC00009F0086010E057CF0CEF1FEF64CF0DEF54
:102DD0001FEF61CF0F931F93CF93DF93EC011092FE
:102DE0007C0210927B0210929E0210929D020E9421
:102DF00093078CE795E090933C0280933B028DE72C
:102E000095E090933A028093390288A1811188C09D
:102E10008091CA0191E0980F9093CA010E940B140F
:102E200088A388A1811109C08091CA0191E0980FFF
:102E30009093CA010E940B1488A318A1112309F4CE
:102E400078C089A19AA1892B09F033C1812F0E94F2
:102E5000710560E081EA92E00E9428086FEF81EA44
:102E600092E00E94280881EA92E00E945C08812F8B
:102E70000E94710560E081EA92E00E94280881EAE0
:102E800092E00E945C08812F90E00E94171581EA71
:102E900092E00E94E1078F3F910509F051C082E066
:102EA00090E09AA389A388A10E94710560E081EA5D
:102EB00092E00E9428088FEF90E00E94570881EA74
:102EC00092E00E945C0888A10E94710586E090E073
:102ED0000E9457088FE790E00E94570881EA92E02D
:102EE0000E945C0888A10E94710589E090E00E9420
:102EF000570881EA92E00E945C0888A190E00E9455
:102F0000171581EA92E00E94E1078F3709F010C19E
:102F100027E036E045E054E063E072E0E1E013C111
:102F20000E94710581EA92E00E945C08882309F4FE
:102F300078CF8CEF9FEFDF91CF911F910F91089584
:102F4000892B29F01AA219A28FEF9FEFF4CF81E00D
:102F500090E09AA389A388A10E9471056FEF81EA8E
:102F600092E00E94280881EA92E00E945C0888A111
:102F700090E00E94171581EA92E00E94E1078C011F
:102F800088A10E9471056BEF81EA92E00E942808F7
:102F900081EA92E00E945C0888A190E00E941715E7
:102FA00081EA92E00E94E1079801277033272730D9
:102FB000310509F04DC0807F9927803F910509F0C8
:102FC00047C083E0169507958A95E1F761E00627EB
:102FD000017043E057E066E075E0E4E022E0F1E0F4
:102FE00030E081E090E0DC0101C0AA0F3A95EAF7F9
:102FF000ABA3DC0101C0AA0FFA95EAF7ACA3DC0190
:1030000002C0AA0FBB1F2A95E2F7ADA39C0101C025
:10301000220FEA95EAF72EA39C0101C0220F7A95B0
:10302000EAF72FA39C0101C0220F6A95EAF728A7AF
:103030009C0101C0220F5A95EAF729A701C0880F09
:103040004A95EAF78AA70BA7013091F58CA731C002
:10305000C801807799278037910519F08DEF9FEF90
:103060006ACF88A10E9471056FEE81EA92E00E940A
:10307000280881EA92E00E945C0888A190E00E9402
:10308000171581EA92E00E94E1078F70992726E0E8
:1030900034E00F9711F424E036E00095001F00277C
:1030A000001F47E053E062E071E0E0E0F5E099CF17
:1030B0001CA688A10E94710589A19AA1029721F5F9
:1030C00085E090E00E94570880E290E00E94570857
:1030D00081EA92E00E945C0888A10E94710560E08C
:1030E00081EA92E00E94280860E081EA92E00E9472
:1030F000280881EA92E00E945C0888A10E9471057C
:1031000089E090E00E94570860E081EA92E00E9426
:10311000280881EA92E00E945C0821E030E08111F9
:1031200002C030E020E088279927821B930B03CF51
:1031300086FF3BC081FD92CF21E032E043E054E0C6
:1031400065E076E0E7E081E090E0DC0102C0AA0FF4
:10315000BB1FEA95E2F7ABA31CA2FC0101C0EE0F76
:103160007A95EAF7EDA3FC0102C0EE0FFF1F6A9506
:10317000E2F7EEA3BC0101C0660F5A95EAF76FA310
:10318000BC0102C0660F771F4A95E2F768A7AC0141
:1031900001C0440F3A95EAF749A701C0880F2A9564
:1031A000EAF78AA791E09BA751CF26E033E042E0FF
:1031B00051E060E077E0E4E0C6CF2091B3023091C7
:1031C000B402C901079697FD079623E09595879568
:1031D0002A95E1F72091B1023091B202829FA001BD
:1031E000839F500D929F500D112470E060E08091FC
:1031F000CC029091CD020C943A288F929F92AF927C
:10320000BF920F931F93CF93DF93CDB7DEB7A197F4
:103210000FB6F894DEBF0FBECDBF19A2423008F43E
:103220004AE08E010F5D1F4F842E912CB12CA12CF2
:10323000A50194010E941326E62FB901CA01EA30C4
:1032400044F5E05DD801EE938D01232B242B252B33
:1032500079F790E080E0109769F0FD01019000207F
:10326000E9F73197AF014A1B5B0BBD018DEE92E090
:103270000E947E05A1960FB6F894DEBF0FBECDBFAB
:10328000DF91CF911F910F91BF90AF909F908F9042
:103290000895E95CD7CFFB0101900020E9F7319751
:1032A000AF01461B570B0C947E05909100019923AA
:1032B00029F0682F8DEE92E00C941E0764EA71E00D
:1032C0008DEE92E00C944B190E942C28EF92FF9205
:1032D0000F931F93CF93DF93EC017B018A018881C9
:1032E0009981009729F02A813B812417350788F4BA
:1032F000B8016F5F7F4F0E946F27009791F099830D
:1033000088831B830A832C813D81232B11F4FC01CC
:1033100010821D830C83B701888199810E94412806
:103320000CC088819981009711F00E94E6261982CD
:1033300018821D821C821B821A82CE01DF91CF91DE
:103340001F910F91FF90EF90089585ED8093BC0041
:103350008091770290917802A0917902B0917A02DF
:103360000796A11DB11D23E0B695A7959795879562
:103370002A95D1F72091BC0024FD03C0109275025C
:10338000089540917702509178026091790270918E
:103390007A02452B462B472B69F30097A105B1050F
:1033A00041F025E32A95F1F700000197A109B10941
:1033B000E1CF809176020C94B1071F920F920FB665
:1033C0000F9211242F933F938F939F93AF93BF93AB
:1033D0008091300290913102A0913202B09133027B
:1033E00030912F0223E0230F2D3758F50196A11DB0
:1033F000B11D20932F028093300290933102A0934D
:103400003202B09333028091340290913502A09140
:103410003602B09137020196A11DB11D809334028E
:1034200090933502A0933602B0933702BF91AF91CB
:103430009F918F913F912F910F900FBE0F901F90F2
:10344000189526E8230F0296A11DB11DD2CF1F9219
:103450000F920FB60F9211242F933F934F935F93C8
:103460006F937F938F939F93AF93BF93EF93FF934C
:103470008091B900887F803609F44AC0F0F588321F
:1034800009F4A7C018F5803109F49BC0B8F488236B
:1034900009F4F9C0883009F494C0FF91EF91BF910D
:1034A000AF919F918F917F916F915F914F913F91DC
:1034B0002F910F900FBE0F901F901895883109F42F
:1034C00088C0803251F78093730214C0803409F4AD
:1034D0009DC040F48033B9F38833F9F680937302CA
:1034E00085ECB0C0803509F485C0883509F496C0F4
:1034F000883499F60E94A519D0CF883909F48CC078
:1035000038F5883729F050F4883611F0803729F6DD
:1035100083E08093750210922E0257C0883809F418
:103520007BC0803919F0803809F0B7CF80912E0226
:10353000803208F071C0E0912E0281E08E0F8093FE
:103540002E028091BB00F0E0E25FFD4F80833DC022
:10355000803B39F0E0F4803A09F479C0883A09F008
:103560009CCF84E08093750210920D0210920C02A1
:10357000E0913B02F0913C02099580910C0281118F
:103580000FC081E080930C021092EC0109C0803CD6
:1035900009F4A6CF883C09F4A3CF883B09F07DCF7E
:1035A000E0910D0281E08E0F80930D02F0E0E45176
:1035B000FE4F80818093BB0090910D0280910C02A0
:1035C00029C0809170028093BB0085EC8093BC0081
:1035D00064CF9091720280917102981758F5E09132
:1035E000720281E08E0F80937202F0E0E15BFD4F8A
:1035F0008081E9CFE091720281E08E0F80937202A8
:103600008091BB00F0E0E15BFD4F808390917202FE
:10361000809171029817C8F285E8D8CFE0917202C4
:1036200081E08E0F809372028091BB00F0E0E15B3D
:10363000FD4F80838091740281115CCF81E0809383
:103640006F0284EA8093BC001092750226CF85EC4D
:103650008093BC001092750280912E02803230F46B
:10366000E0912E02F0E0E25FFD4F108260912E02A9
:1036700070E0E0913902F0913A028EE092E0099513
:1036800010922E020ACF1092730234CF0F931F9321
:10369000CF93DF9301EA12E0F8011382128288EEE1
:1036A00093E0A0E0B0E084839583A683B78381E1B3
:1036B00091E091838083CDEED2E01B821A828FE469
:1036C00091E0998388831F82188680ED97E0A0E0BF
:1036D000B0E0888B998BAA8BBB8B86E290E0A0E050
:1036E000B0E08C8B9D8BAE8BBF8B1C861D861E869F
:1036F0001F861B860E945C06688F798F8A8F9B8F3E
:103700001C8E1D8E1E8E1F8E85E691E09983888308
:1037100082E090E09AA389A380E288A390E89BA32B
:103720001CA290E49DA38EA380E18FA388E088A7CC
:1037300094E099A722E02AA781E08BA72CA7EDEAC5
:10374000F2E01382128240E850E05583448320E483
:1037500030E0378326835187408733872287168A54
:103760001586148617861686858B848B2FEF3FEF80
:10377000338B228B318B208B878B108E128E118E88
:1037800023E231E031832083148E138E168F058F50
:1037900010A2178E8FEF84A385A386A387A390A77B
:1037A00080E89AE1A6E0B0E085AB96ABA7ABB0AFFE
:1037B00080EA96E8A1E0B0E081AF92AFA3AFB4AFEA
:1037C00080E586AF17AEDF91CF911F910F910895DD
:1037D000CF93DF93CDB7DEB7C154D1090FB6F894BC
:1037E000DEBF0FBECDBF789484B5826084BD84B542
:1037F000816084BD85B5826085BD85B5816085BDEC
:1038000080916E00816080936E00109281008091A3
:10381000810082608093810080918100816080932B
:103820008100809180008160809380008091B10050
:1038300084608093B1008091B00081608093B0007B
:1038400080917A00846080937A0080917A0082600F
:1038500080937A0080917A00816080937A008091D1
:103860007A00806880937A001092C1008091F902FA
:1038700081110CC08091FA02811108C08091FB0275
:10388000811104C08091FC02882321F08091F40210
:103890008F7E59F01092F90280E48093FA0280E161
:1038A0008093FB0280E58093FC0282E08093F50226
:1038B00080E18093F40264E670E080E090E00E9492
:1038C00081061092F1028DEE92E00E94EA16892B99
:1038D00009F05BC08091F502823028F08091F102FE
:1038E00088608093F10240E362E070E08DEE92E048
:1038F0000E949D1465E070E080E090E00E948106E7
:1039000040E362E070E08DEE92E00E949D1461E081
:1039100070E080E090E00E94810640E362E070E0A9
:103920008DEE92E00E949D1461E070E080E090E0F6
:103930000E9481068091F10284FD07C040E262E0AE
:1039400070E08DEE92E00E949D146091F102606241
:103950008DEE92E00E94BF0684E08093F2026CE05C
:103960008DEE92E00E94BF068DEE92E00E94690704
:1039700082E08093F30266E08DEE92E00E94BF0643
:103980006FEF8DEE92E00E9469148091EF029091AA
:10399000F0029C838B838091F1028D838091F202EF
:1039A0008E838091F3028F838091F40288878091C7
:1039B000F50289878091F6028A878091F7028B87CA
:1039C0008091F8028C878091F9029091FA02A0917F
:1039D000FB02B091FC028D879E87AF87B88B8091E8
:1039E000FD029091FE02A091FF02B0910003898B2D
:1039F0009A8BAB8BBC8B8091010390910203A091B9
:103A00000303B09104038D8B9E8BAF8BB88F809195
:103A1000050390910603A0910703B0910803898FD5
:103A20009A8FAB8FBC8F8091090390910A03A0916C
:103A30000B03B0910C038D8F9E8FAF8FB8A385E6DB
:103A400091E09A83898380910D0389A380910E036D
:103A500090910F039BA38AA3809110038CA3809164
:103A600011038DA3809112038EA3809113038FA362
:103A70008091140388A78091150389A7809116036C
:103A80008AA7809117038BA7809118038CA7809138
:103A900019038DA71DAA1CAA1FAA1EAA19AE18AE2B
:103AA00045E050E067E771E0CE01C4960E946619D8
:103AB0001FA61EA619AA18AA1BAA1AAA46E050E019
:103AC0006DE771E0CE018E960E946619CE010196D7
:103AD0000E94690740E060E0CE0101960E94F7066F
:103AE00064E871E0CE0101960E944B1941E060E06C
:103AF000CE0101960E94F706F12CE12C00E110E0C6
:103B000088AD99AD9801281B390BC9019695879509
:103B1000E816F90650F464EA71E0CE0101960E94BD
:103B20004B193FEFE31AF30AEBCF67E771E0CE01E1
:103B300001960E944B1964EC79E080E090E00E94CD
:103B4000810641E060E0CE0101960E94F70665E93A
:103B500071E0CE0101960E944B1941E060E0CE0178
:103B600001960E94F706F12CE12C00E110E08AA9F1
:103B70009BA9A801481B590BCA0196958795E81681
:103B8000F90650F464EA71E0CE0101960E944B19E7
:103B90005FEFE51AF50AEBCF6DE771E0CE01019614
:103BA0000E944B1964EC79E080E090E00E9481066D
:103BB000CE0101960E94690764E670E080E090E023
:103BC0000E9481068EA59FA5009711F00E94E6260F
:103BD0008CA99DA9009711F00E94E62660E084E080
:103BE0000E942B0660E085E00E942B0660E086E0E4
:103BF0000E942B0660E087E00E942B0660E088E0D0
:103C00000E942B068091CC029091CD02892B11F15C
:103C10000E94DD182091B3023091B4028091B1026C
:103C20009091B202213231050CF078C1B901605295
:103C3000710977FF02C06F5F7F4F75956795835756
:103C4000910997FD019600E210E023E730E044EE91
:103C500055E077C12091B3023091B402C9010796B3
:103C600097FD0796B3E095958795BA95E1F7209172
:103C7000B1023091B202AC01429FC001439F900D4E
:103C8000529F900D11240E944A269093CD0280935A
:103C9000CC02892B09F0BCCF0E94DD180E9499123A
:103CA000109246021092450210924802109247026A
:103CB0000E94B30660934B0270934C0280934D02B6
:103CC00090934E020E94B30660933D0270933E02B1
:103CD00080933F02909340028DEE92E00E9469072C
:103CE00040E061E08DEE92E00E94F70666EA71E046
:103CF0008DEE92E00E944B1940E06BE08DEE92E079
:103D00000E94F7066FEA71E08DEE92E00E944B1977
:103D1000C0904B02D0904C02E0904D02F0904E02C9
:103D200054E1C50ED11CE11CF11C0E94B306C6165D
:103D3000D706E806F90608F063C58091490290911C
:103D40004A028130910509F0D1C284E00E94D40575
:103D5000892B59F08091450290914602019797FD79
:103D6000B1C2909346028093450287E00E94D40539
:103D7000892B69F080914502909146020196813825
:103D800091050CF0A4C2909346028093450286E010
:103D90000E94D405892B59F08091470290914802E6
:103DA000019797FD97C2909348028093470285E060
:103DB0000E94D405892B69F08091470290914802B6
:103DC0000196813491050CF08AC290934802809349
:103DD000470288E00E94D405892B09F405C5C090EC
:103DE0004102D0904202C114D10409F0CCC3E0904A
:103DF0000101F090020120914702309148023DAF4D
:103E00002CAF20904502309046029701220F331FBD
:103E10002F5F3F4F4CAD5DAD4E195F0901E010E0E3
:103E2000B1018DEA92E00E94170E81E090E02C0132
:103E30004E185F08CE18DF08A601440F551F5FAF6C
:103E40004EAFD12CC12C9BAF8AAF2CAD3DAD2F5FB7
:103E50003F4F22963FAF2EAF2297CE14DF040CF0D7
:103E6000C3C4570157FC0BC031E0A31AB1084EADD3
:103E70005FAD4E5F5F4F5FAF4EAF440E551E5FEFBD
:103E8000C51AD50A8AAD9BAD02969BAF8AAF480E84
:103E9000591EAC14BD04F4F03501660C771C9FEF7D
:103EA000691A790A01E010E093018CAC9DAC8A1884
:103EB0009B08A401B601620D731D8DEA92E00E9479
:103EC000170E9301A401B1016C197D098DEA92E0EE
:103ED0000E94170EEA14FB04F9F0B1016E0D7F1D6C
:103EE00001E010E06AAC7BAC22E0621A7108930139
:103EF00022968EAC9FAC22978C189D08A4018DEA67
:103F000092E00E94170EB1016E197F099301A4017E
:103F10008DEA92E00E94170E75019FCFB90160549F
:103F2000710977FF02C06F5F7F4F75956795825566
:103F3000910997FD019600E410E022E530E044ECA1
:103F400057E0959587950E942A0E82E08093CF02D4
:103F50008091CA029091CB02892B09F4BDC08CE3F9
:103F60008093CE0210927C0210927B0210929E02ED
:103F700010929D020E9493078CE795E090933C027B
:103F800080933B028DE795E090933A02809339024B
:103F90008091CA029091CB02892B09F45CC12091D7
:103FA000E2023091E3024091E4025091E50260E0C8
:103FB00074E284EF90E00E941326205131094109F8
:103FC000510956954795379527952093B80064E099
:103FD0008EEA95E00E9496116091B30261508DEADD
:103FE00092E00E94391264E08AEA95E00E949611FC
:103FF0008091CF0260E1813009F064E18DEA92E0C6
:104000000E94391264E086EA95E00E9496118FE8DA
:104010008093EA028091B1029091B20280389105BA
:1040200009F032C18091B3029091B40280349105BD
:1040300009F03AC18091CF02813009F023C18FE9A4
:104040008093EA0212E16AED8DEA92E00E94391251
:10405000612F8DEA92E00E94391261E88DEA92E0C8
:104060000E9439126091EA028DEA92E00E943912B0
:1040700069ED8DEA92E00E9439128091CF0262E2EE
:10408000813009F061EF8DEA92E00E94391266E01A
:1040900080EA95E00E9496118091CA029091CB022D
:1040A000892B09F405C12091E6023091E702409185
:1040B000E8025091E90260E074E284EF90E00E942F
:1040C00013262051310941095109569547953795D5
:1040D00027952093B800E0CD61E08091D3020E9443
:1040E0002B0661E08091D4020E942B068091D302BE
:1040F000082E000C990BFC01E053FA4FE491F0E01C
:10410000EE0FFF1FEA53FA4F259134913093DB02F3
:104110002093DA02FC01EE54FA4FE491E093E002BE
:104120008091D402082E000C990BFC01E053FA4F49
:10413000E491F0E0EE0FFF1FEA53FA4FA591B4911E
:10414000B093DD02A093DC02FC01EE54FA4FE4913F
:10415000E093E1028C91E82BEC938091C80290915E
:10416000C902892B09F434C01FB7F8948091380232
:10417000811127C0EAEDF5E08491ECEBF5E0949134
:10418000E82FF0E0EE0FFF1FEA56FA4FA591B49129
:10419000EC91E92321F461E08AE00E94FD0561E0F1
:1041A0008AE00E942B068CB580618CBD8CB5806442
:1041B0008CBD61E08DE00E942B0661E08BE00E94E7
:1041C0002B06809138028F5F809338021FBFE0CEAC
:1041D00061E08091D1020E942B0661E08091D202C1
:1041E0000E942B068091D102082E000C990BFC0135
:1041F000E053FA4FE491F0E0EE0FFF1FEA53FA4F5D
:10420000259134913093D7022093D602FC01EE54CD
:10421000FA4FE491E093DE028091D202082E000C66
:10422000990BFC01E053FA4FE491F0E0EE0FFF1F11
:10423000EA53FA4FA591B491B093D902A093D80252
:10424000FC01EE54FA4FE491E093DF028C91E0958B
:10425000E823EC939DCE8091C8029091C902892BEE
:1042600031F08091EB029091EC020E949612E09165
:10427000DC02F091DD0290818091E102809589233A
:104280008083A5CE8FECDCCE8036910569F48091D9
:10429000B3029091B402409739F48091CF028130FB
:1042A00029F480E18093EA0212E0CDCE8FEAFACFC2
:1042B000E091DC02F091DD0280819091E102892B96
:1042C0008083EACC10924602109245024ECD80E8DF
:1042D00090E059CD109248021092470268CD20E438
:1042E00030E0309348022093470273CD892B09F0C8
:1042F00070CD84E00E94D405892B89F0809143021F
:1043000090914402019797FDDAC090934402809304
:10431000430268EC70E080E090E00E94810687E054
:104320000E94D405892B99F0809143029091440218
:104330000196823091050CF0C5C0909344028093A1
:10434000430268EC70E080E090E00E94810686E025
:104350000E94D405892BD1F08091430290914402B0
:10436000009709F0B9C080914102909142020196F4
:10437000833091050CF0ABC09093420280934102D0
:1043800068EC70E080E090E00E94810685E00E9489
:10439000D405892BC9F020914302309144022115A4
:1043A000310509F0B3C0809141029091420201971A
:1043B00097FDA9C0909342028093410268EC70E09F
:1043C00080E090E00E94810641E061E08DEE92E0A5
:1043D0000E94F706809141029091420264EB71E0E5
:1043E000009749F06BEB71E08130910521F0029765
:1043F00031F462EC71E08DEE92E00E944B1941E0E5
:104400006DE08DEE92E00E94F7068091010190919F
:1044100002010A9734F462E871E08DEE92E00E94A6
:104420004B19C0900101D09002010D2C000CEE0838
:10443000FF084AE0C701B601F7FE0DC06DE28DEE40
:1044400092E00E941E0766277727CB016C197D0931
:104450008E099F094AE00E94FD18809143029091C5
:104460004402009709F068C041E06CE08DEE92E0F4
:104470000E94F70664EA71E08DEE92E00E944B190B
:1044800041E06FE08DEE92E00E94F70664EA71E091
:104490008DEE92E00E944B1941E060E08DEE92E0DB
:1044A0000E94F7068EE30E94551941E067E08DEE09
:1044B00092E00E94F7068CE30E9455198ACC81E0B5
:1044C00090E023CF10924402109243023ACF109210
:1044D00042021092410254CF019709F051CF8091CE
:1044E0000101909102010196853191052CF4909380
:1044F00002018093010144CF44E150E05093020156
:10450000409301013DCF82E090E054CF213031054E
:1045100009F054CF80910101909102010197181682
:1045200019062CF4909302018093010147CF309338
:1045300002012093010142CF019709F04ACC41E0EA
:1045400060E08DEE92E00E94F70664EA71E08DEE85
:1045500092E00E944B1941E067E08DEE92E00E94EC
:10456000F70664EA71E08DEE92E00E944B1941E09B
:104570006CE08DEE92E00E94F7068EE30E945519E2
:1045800041E06FE094CF31E0C316D10409F0FAC1E5
:10459000E0904702F0904802809001019090020163
:1045A000092C000CAA08BB0881149104A104B104D1
:1045B00039F00E945225A50194010E94AA254B01C1
:1045C0004090010150900201C20157FC019695955F
:1045D0008795E81AF90A8E0C9F1CC0904502D0906E
:1045E0004602052C000C660877084114510461044A
:1045F000710439F00E945225A30192010E94AA255C
:104600002B01E0900101F0900201C701F7FC019637
:1046100095958795B601681B790B640D751D21E092
:1046200030E0A4018DEA92E00E94DF10A0904702E2
:10463000B09048026701FF0CEE08FF08C114D104D6
:10464000E104F10439F00E945225A70196010E946D
:10465000AA256B014090010150900201C20157FC54
:10466000019695958795A81AB90AAC0CBD1CC09007
:104670004502D0904602052C000C660877084114CC
:1046800051046104710439F00E945225A301920182
:104690000E94AA252B01E0900101F0900201C701C0
:1046A000F7FC019695958795B601681B790B640D0B
:1046B000751D21E030E0A5018DEA92E00E94DF1037
:1046C000A0904702B09048026701FF0CEE08FF0877
:1046D000C114D104E104F10439F00E945225A7016C
:1046E00096010E94AA256B014090010150900201A1
:1046F000C20157FC019695958795A81AB90AAC0C8A
:10470000BD1CC0904502D0904602052C000C6608E6
:104710007708411451046104710439F00E94522554
:10472000A30192010E94AA252B01E0900101F090C3
:104730000201C701F7FC019695958795B601681BA4
:10474000790B640D751D21E030E0A5018DEA92E042
:104750000E94DF10A0904702B09048022701FF0C92
:1047600066087708411451046104710439F00E940D
:104770005225A30192010E94AA252B0180900101DC
:1047800090900201C40197FC01969595879575015B
:10479000E81AF90AE40CF51CC0904502D0904602D4
:1047A000092C000CAA08BB0881149104A104B104CF
:1047B00039F00E945225A50194010E94AA254B01BF
:1047C000809101019091020197FD01969595879541
:1047D000B601681B790B680D791D21E030E0A70157
:1047E0008DEA92E00E94DF100E9499120E94B306A7
:1047F00060934B0270934C0280934D0290934E0253
:10480000C0903D02D0903E02E0903F02F090400206
:1048100054EFC50E51E0D51EE11CF11C0E94B306F9
:10482000C616D706E806F90608F0A4C081E480930E
:104830007C0080917A00806480937A0080917A0075
:1048400086FDFCCF90917800809179008927982788
:104850008927853F91400CF4B5C010924A0210920E
:1048600049028091000191E089278093000141E095
:1048700060E08DEE92E00E94F70664EA71E08DEE52
:1048800092E00E944B1941E067E08DEE92E00E94B9
:10489000F70664EA71E08DEE92E00E944B1941E068
:1048A0006CE08DEE92E00E94F70664EA71E08DEE16
:1048B00092E00E944B1941E06FE08DEE92E00E9481
:1048C000F70664EA71E08DEE92E00E944B1940E039
:1048D0006AE08DEE92E00E94F70664EA71E08DEEE8
:1048E00092E00E944B1940E06FE08DEE92E00E9452
:1048F000F70664EA71E08DEE92E00E944B1940E009
:1049000060E08DEE92E00E94F70664EA71E08DEEC1
:1049100092E00E944B1940E069E08DEE92E00E9427
:10492000F70664EA71E08DEE92E00E944B198091E7
:10493000490290914A02009709F04BC040E060E0C4
:104940008DEE92E00E94F7068EE30E94551940E03A
:1049500069E08DEE92E00E94F7068CE30E94551903
:104960000E94B30660933D0270933E0280933F0223
:104970009093400240E050E0452B09F4C9C90E94E1
:104980000000C6C942E0C416D10409F02DCF8091C1
:104990000101909102019C01220F331F40914702B7
:1049A00050914802481B590B609145027091460294
:1049B000681B790BF12CE12C89018DEA92E00E94B1
:1049C000440D12CF81E090E090934A028093490217
:1049D00048CF019729F640E06AE08DEE92E00E9410
:1049E000F7068EE30E94551940E06FE0B2CF83E2F4
:1049F00091E09093AE028093AD028091CC029091B1
:104A0000CD02009711F00C94E62608958F929F92A4
:104A1000AF92BF92CF92DF92EF92FF92CF93DF934C
:104A2000EC01688179818A819B816115710581051D
:104A3000910521F464E279ED8BE597E02DE133EF08
:104A400041E050E00E94AA2549015A019B01AC01B6
:104A5000A7EAB1E40E94C9256B017C01ACEEB4EF7A
:104A6000A50194010E94D725C60ED71EE81EF91E87
:104A7000F7FE06C081E0C81AD108E10880E8F80A0C
:104A8000C882D982EA82FB82C701B6019F77DF9193
:104A9000CF91FF90EF90DF90CF90BF90AF909F901D
:104AA0008F9008958F929F92AF92BF92CF92DF9294
:104AB000EF92FF92609103017091040180910501D2
:104AC00090910601611571058105910521F464E25B
:104AD00079ED8BE597E02DE133EF41E050E00E9466
:104AE000AA2549015A019B01AC01A7EAB1E40E9441
:104AF000C9256B017C01ACEEB4EFA50194010E94C5
:104B0000D725C60ED71EE81EF91EF7FE06C081E0A7
:104B1000C81AD108E10880E8F80AC0920301D092CF
:104B20000401E0920501F0920601C701B6019F77EA
:104B3000FF90EF90DF90CF90BF90AF909F908F90BD
:104B4000089560930301709304018093050190938D
:104B500006010895052E97FB1EF400940E94C125BE
:104B600057FD07D00E94132607FC03D04EF40C9487
:104B7000C12550954095309521953F4F4F4F5F4F40
:104B8000089590958095709561957F4F8F4F9F4FB9
:104B900008950E943526A59F900DB49F900DA49F67
:104BA000800D911D11240895B7FF0C94C9250E9412
:104BB000C925821B930B08952F923F924F925F92CB
:104BC0006F927F928F929F92AF92BF92CF92DF921D
:104BD000EF92FF920F931F93CF93DF93CDB7DEB782
:104BE000CA1BDB0B0FB6F894DEBF0FBECDBF099416
:104BF0002A88398848885F846E847D848C849B846D
:104C0000AA84B984C884DF80EE80FD800C811B817A
:104C1000AA81B981CE0FD11D0FB6F894DEBF0FBEA9
:104C2000CDBFED010895A1E21A2EAA1BBB1BFD0109
:104C30000DC0AA1FBB1FEE1FFF1FA217B307E4077B
:104C4000F50720F0A21BB30BE40BF50B661F771FD3
:104C5000881F991F1A9469F76095709580959095B3
:104C60009B01AC01BD01CF010895A29FB001B39F8C
:104C7000C001A39F700D811D1124911DB29F700D65
:104C8000811D1124911D0895EE0FFF1F0590F491D1
:104C9000E02D09940F931F93CF93DF9382309105FA
:104CA00010F482E090E0E0911C03F0911D0330E0ED
:104CB00020E0B0E0A0E0309799F42115310509F427
:104CC0004AC0281B390B24303105D8F58A819B81D5
:104CD0006115710589F1FB0193838283FE0111C087
:104CE000408151810281138148175907E0F048172C
:104CF000590799F4109761F012960C931297139636
:104D00001C933296CF01DF91CF911F910F9108959F
:104D100000931C0310931D03F4CF2115310551F0AE
:104D20004217530738F0A901DB019A01BD01DF01E9
:104D3000F801C1CFEF01F9CF90931D0380931C03BD
:104D4000CDCFFE01E20FF31F8193919322503109E1
:104D500039832883D7CF20911A0330911B03232B4B
:104D600041F42091090130910A0130931B032093F3
:104D70001A0320910701309108012115310541F4F2
:104D80002DB73EB740910B0150910C01241B350B00
:104D9000E0911A03F0911B03E217F307A0F42E1B16
:104DA0003F0B2817390778F0AC014E5F5F4F24178F
:104DB000350748F04E0F5F1F50931B0340931A03B3
:104DC000819391939FCFF0E0E0E09CCFCF93DF936E
:104DD0000097E9F0FC01329713821282A0911C0324
:104DE000B0911D03ED0130E020E01097A1F4208187
:104DF0003181820F931F20911A0330911B032817D2
:104E0000390709F061C0F0931B03E0931A03DF91A7
:104E1000CF910895EA01CE17DF07E8F54A815B815B
:104E20009E0141155105B1F7E901FB83EA834991E0
:104E30005991C40FD51FEC17FD0761F48081918152
:104E40000296840F951FE90199838883828193815B
:104E50009B838A83F0E0E0E012968D919C911397FA
:104E60000097B9F52D913C911197CD010296820FD3
:104E7000931F20911A0330911B032817390739F625
:104E8000309751F510921D0310921C03B0931B0331
:104E9000A0931A03BCCFD383C28340815181840F76
:104EA000951FC817D90761F44E5F5F4F88819981BC
:104EB000480F591F518340838A819B81938382834A
:104EC0002115310509F0B0CFF0931D03E0931C03C9
:104ED0009ECFFD01DC01C0CF13821282D7CFB0E09C
:104EE000A0E0E5E7F7E20C94DE258C01009751F491
:104EF000CB010E944A268C01C801CDB7DEB7E0E1A4
:104F00000C94FA25FC01E60FF71F9C012250310991
:104F1000E217F30708F49DC0D901CD91DC911197F8
:104F2000C617D70798F0C530D10530F3CE010497E6
:104F30008617970708F3C61BD70B2297C193D19307
:104F40006D937C93CF010E94E626D6CF5B01AC1A0D
:104F5000BD0A4C018C0E9D1EA0911C03B0911D0337
:104F6000512C412CF12CE12C109731F580911A0332
:104F700090911B038815990509F05CC046165706E9
:104F800008F058C08091070190910801009741F402
:104F90008DB79EB740910B0150910C01841B950B6E
:104FA000E817F90708F055C0F0931B03E0931A03C4
:104FB000F90171836083A0CF8D919C911197129616
:104FC0006C90129713967C901397A815B90559F514
:104FD0006C0142E0C40ED11CCA14DB0420F1AC0108
:104FE0004A195B09DA011296159780F06282738282
:104FF00051834083D9016D937C93E114F10471F0E6
:10500000D7011396FC93EE93129776CF22968C0FCE
:105010009D1FF90191838083F301EFCFF0931D036E
:10502000E0931C0369CF4816590608F42C017D0152
:10503000D3019ACFCB010E944A267C01009749F008
:10504000AE01B8010E943128C8010E94E6268701FE
:1050500053CF10E000E050CF81E090E0F8940C9442
:105060004828FB01DC0102C001900D9241505040E4
:10507000D8F70895DC0101C06D9341505040E0F72E
:105080000895FB01DC0101900D920020E1F70895E5
:1050900015E0C6E4D5E004C0FE010E944426219636
:0A50A000C734D107C9F7F894FFCF19
:1050AA000101000100000000001E03800000000052
:1050BA00002808FB0713157B05F407E107D2070050
:1050CA000000007E0B7E0513151615DF107B0523E5
:1050DA000EFB0D170E0B0E8B0E7B054409B5134FF5
:1050EA00109810440D270DAF0C500C000000001E44
:1050FA00077E05131516151315101564190D150DD0
:10510A0015000000001E077E0513151615EA16E3A2
:10511A00159D1469140D155061696E740076302E50
:10512A00302E3000544D45656475636174696F6E45
:10513A002E636F6D00202020202020202020202098
:10514A0020202020200073657474696E67730064E0
:10515A00726177002050454E202000535052415929
:0A516A002000455241534552000059
:00000001FF
