:100000000C9447050C946F050C946F050C946F05C8
:100010000C946F050C946F050C946F050C94251BC4
:100020000C946F050C946F050C946F050C946F0580
:100030000C946F050C946F050C946F050C946F0570
:100040000C94A71B0C946F050C946F050C946F0512
:100050000C946F050C946F050C946F050C946F0550
:100060000C94F11B0C946F05000103070F1F3F7FD9
:100070000080C0E0F0F8FCFE00000000003E5B4F96
:100080005B3E3E6B4F6B3E1C3E7C3E1C183C7E3CF8
:10009000181C577D571C1C5E7F5E1C00183C180006
:1000A000FFE7C3E7FF0018241800FFE7DBE7FF3096
:1000B000483A060E2629792926407F050507407F04
:1000C00005253F5A3CE73C5A7F3E1C1C08081C1C77
:1000D0003E7F14227F22145F5F005F5F06097F016D
:1000E0007F006689956A606060606094A2FFA29458
:1000F00008047E040810207E201008082A1C080826
:100100001C2A08081E101010100C1E0C1E0C303873
:100110003E3830060E3E0E06000000000000005F74
:1001200000000007000700147F147F14242A7F2A90
:100130001223130864623649562050000807030052
:10014000001C2241000041221C002A1C7F1C2A089E
:10015000083E080800807030000808080808000001
:1001600060600020100804023E5149453E00427F75
:10017000400072494949462141494D331814127FC4
:100180001027454545393C4A494931412111090764
:100190003649494936464949291E000014000000E5
:1001A00040340000000814224114141414140041B7
:1001B00022140802015909063E415D594E7C121174
:1001C000127C7F494949363E414141227F414141AC
:1001D0003E7F494949417F090909013E4141517327
:1001E0007F0808087F00417F41002040413F017F98
:1001F000081422417F404040407F021C027F7F0460
:1002000008107F3E4141413E7F090909063E4151A8
:10021000215E7F09192946264949493203017F0198
:10022000033F4040403F1F2040201F3F4038403F99
:10023000631408146303047804036159494D4300AF
:100240007F4141410204081020004141417F0402E6
:10025000010204404040404000030708002054547D
:1002600078407F284444383844444428384444285B
:100270007F385454541800087E090218A4A49C78AE
:100280007F0804047800447D40002040403D007F0A
:100290001028440000417F40007C047804787C08EA
:1002A0000404783844444438FC18242418182424BE
:1002B00018FC7C08040408485454542404043F44A3
:1002C000243C4040207C1C2040201C3C4030403CD2
:1002D00044281028444C9090907C4464544C440032
:1002E0000836410000007700000041360800020196
:1002F0000204023C2623263C1EA1A161123A404082
:10030000207A3854545559215555794122545478FE
:1003100042215554784020545579400C1E52721297
:100320003955555559395454545939555454580020
:1003300000457C410002457D420001457C407D1224
:1003400011127DF0282528F07C5455450020545486
:100350007C547C0A097F4932494949323A44444431
:100360003A324A4848303A4141217A3A424020786C
:10037000009DA0A07D3D4242423D3D4040403D3C6D
:1003800024FF2424487E4943662B2FFC2F2BFF0992
:1003900029F620C0887E0903205454794100004486
:1003A0007D413048484A32384040227A007A0A0A71
:1003B000727D0D19317D2629292F282629292926E4
:1003C00030484D4020380808080808080808382F29
:1003D00010C8ACBA2F102834FA00007B00000814B3
:1003E0002A142222142A14085500550055AA55AA89
:1003F00055AAFF55FF55FF000000FF00101010FF29
:1004000000141414FF001010FF00FF1010F010F083
:10041000141414FC001414F700FF0000FF00FF1474
:1004200014F404FC141417101F10101F101F1414C0
:10043000141F00101010F0000000001F101010100A
:100440001F10101010F010000000FF1010101010FE
:1004500010101010FF10000000FF140000FF00FF3C
:1004600000001F10170000FC04F4141417101714D8
:1004700014F404F40000FF00F714141414141414FA
:10048000F700F7141414171410101F101F1414146D
:10049000F4141010F010F000001F101F0000001FD7
:1004A00014000000FC140000F010F01010FF10FF0A
:1004B000141414FF141010101F00000000F010FF9F
:1004C000FFFFFFFFF0F0F0F0F0FFFFFF0000000083
:1004D00000FFFF0F0F0F0F0F3844443844FC4A4A07
:1004E0004A347E02020606027E027E0263554941BC
:1004F000633844443C04407E201E2006027E0202F3
:1005000099A5E7A5991C2A492A1C4C7201724C3006
:100510004A4D4D303048784830BC625A463D3E49DD
:100520004949007E0101017E2A2A2A2A2A44445F81
:10053000444440514A444040444A51400000FF0175
:1005400003E080FF000008086B6B08361236243683
:10055000060F090F060000181800000010100030E8
:1005600040FF0101001F01011E00191D1712003C70
:100570003C3C3C000000000000000000230026007E
:100580002900000000080002010000030407000029
:1005900000000000000000000000240027002A00E6
:1005A000DB40A4A62EAF2000A1C8D300408DAED55D
:1005B00080A80000600000000000000000000000B3
:1005C000000000E00000000000000000000000004B
:1005D0000001E0000000000000000000000000003A
:1005E00001F0000000000000000000000000000317
:1005F000F00000000000000000000000000007F014
:100600000000000000000000000000000007F800EB
:100610000000000000000000000000000FF80000D3
:100620000003C0007E000001E0007F0FF800000022
:1006300003C000FE000001E000FFEFF8000000032F
:10064000C000FE000001E000FFFFF800000003C052
:1006500000F00000000F007FFE7FC0000003C0001C
:10066000F00000000F003FFE7FF83FF1FBCFFCFEE3
:10067000F3BC3DEFE01FFE7FFF7FFBFFDFFEFEFFD1
:10068000BC3DEFE01FC6FFFF7FFBFFDFFEFEFFBCB0
:100690003DEFE00FE3C7FE787BC3DE1EF0FFBC3DFD
:1006A000EF0007FF87FC787BC3DE1EF0F83C3DEFD0
:1006B0000001FFFFF0007BC3C01EF0F03C3DEF00E7
:1006C00001F37FE03FFBC3CFFEF0F03C3DEF0003C2
:1006D000E33F807FFBC3DFFEF0F03C3DEF0007E728
:1006E0003C00787BC3DE1EF0F03C3DEF0007FFBE10
:1006F00000787BC3DE1EF0F03C3DEF0007FFFE00FC
:10070000787BC3DE1EF0F03C3DEF000FFFFE007F64
:10071000FBFFDFFEF0F03FFDEFE00FFFFF007FFB90
:10072000FFDFFEF0F03FFDEFE00FF9FF003E79F94B
:10073000CF9EF0F01F3DE7E01FF1FF00000000003A
:10074000000000000000001F80FF007FFFFFFFFF90
:10075000FFFFFFFFFFE01C007F007FFFFFFFFEB4F5
:100760006D888D18E000001F007FFFFFFFFE95AD34
:100770007DB577E000000F007FFFFFFFFEA5AD9D78
:100780008D19E0000006007FFFFFFFFEB5ADEDB55F
:100790007EE000000000000180000000000000007A
:1007A0000000038000000000000000000007C000FF
:1007B000000000000000000007C000000000000072
:1007C0000000000FC00000000000000000001FE05B
:1007D0000000000000000000001FE000000000001A
:1007E000000000003FE00000000000000000003FAB
:1007F000F00000000000000000007FF0000000009A
:100800000000001FF87FF0000000000000003FFE25
:100810007FF0000000000000003FFF7FF0000000BC
:10082000000000001FFFFBE0000000000000000FC0
:10083000FFF9FFC00000000000000FFFF9FFF80003
:10084000000000000007FFF1FFFF000000000000B3
:1008500003FC73FFFF80000000000001FE3FFFFF6C
:1008600080000000000000FF1E0FFF0000000000DD
:1008700000007FFE1FFC000000000000003FFFFFA3
:10088000F8000000000000000FDFFFE000000000A3
:100890000000001F19FFC0000000000000003F3CE6
:1008A000FF00000000000000007E7CF80000000057
:1008B000000000007FFE7C0000000000000000FF40
:1008C000FFFC0000000000000000FFFFFE00000031
:1008D0000000000000FFFFFE00000000000000011B
:1008E000FFEFFE0000000000000001FFCFFE00004F
:1008F000000000000003FF07FE00000000000000F1
:1009000003FC07FE0000000000000003F003FE00EF
:10091000000000000000018000FE00000000000058
:10092000000000007E000000000000000000003E0B
:10093000000000000000000000000C0000000000AB
:1009400000078000FC000003C0000000078001FCDD
:10095000000003C0000000078001FC000003C0008D
:100960000000078001E00000001E00000007800179
:10097000E00000001E007FE3F79FF9FDE7787BDFD2
:10098000C0FFF7FFBFFDFDFF787BDFC0FFF7FFBFB4
:10099000FDFDFF787BDFC0F0F787BC3DE1FF787B92
:1009A000DE00F0F787BC3DE1F0787BDE0000F787E2
:1009B000803DE1E0787BDE007FF7879FFDE1E07816
:1009C0007BDE00FFF787BFFDE1E0787BDE00F0F71C
:1009D00087BC3DE1E0787BDE00F0F787BC3DE1E0DD
:1009E000787BDE00F0F787BC3DE1E0787BDE00FF3E
:1009F000F7FFBFFDE1E07FFBDFC0FFF7FFBFFDE1D9
:100A0000E07FFBDFC07CF3F39F3DE1E03E7BCFC0A6
:100A10000000000000000000000000FFFFFFFFFFDB
:100A2000FFFFFFFFFFC0FFFFFFFFFD68DB111A3173
:100A3000C0FFFFFFFFFD2B5AFB6AEFC0FFFFFFFF68
:100A4000FD4B5B3B1A33C0FFFFFFFFFD6B5BDB6AB7
:100A5000FDC001020408102040800102040810209B
:100A600001020408102000000000250028002B00CF
:100A70000404040404040404020202020202030344
:100A800003030303022200FF2100101D0A22112488
:100A90001FBECFEFD8E0DEBFCDBF11E0A0E0B1E0D8
:100AA000E8ECF8E402C005900D92A23AB107D9F73C
:100AB00022E0A2EAB1E001C01D92A63FB207E1F731
:100AC00015E0C6E4D5E004C02197FE010E94202372
:100AD000C534D107C9F70E94B21D0C9457240C9459
:100AE000000091E090937802809377021092760252
:100AF000109275020895089508950895AF92BF92D7
:100B0000CF92DF92EF92FF920F931F93CF93DF93D9
:100B10006C017B018B01040F151FEB015E01AE1808
:100B2000BF08C017D10759F06991D601ED91FC912A
:100B30000190F081E02DC6010995892B79F7C50157
:100B4000DF91CF911F910F91FF90EF90DF90CF90A9
:100B5000BF90AF900895833081F028F4813099F0F0
:100B60008230A9F008958730A9F08830C9F0843028
:100B7000B1F4809180008F7D03C0809180008F77D9
:100B800080938000089584B58F7784BD089584B5DF
:100B90008F7DFBCF8091B0008F778093B000089558
:100BA0008091B0008F7DF9CFCF93DF93282F30E075
:100BB000F901EE57FA4F8491F901EE5AF54FD491AD
:100BC000F901E059F54FC491CC23A1F081110E94A5
:100BD000AB05EC2FF0E0EE0FFF1FE858FA4FA591A0
:100BE000B491EC91ED2381E090E009F480E0DF9195
:100BF000CF91089580E090E0FACF1F93CF93DF93D9
:100C0000282F30E0F901EE57FA4F8491F901EE5A9E
:100C1000F54FD491F901E059F54FC491CC23A9F0D7
:100C2000162F81110E94AB05EC2FF0E0EE0FFF1F95
:100C3000EA59F54FA591B4918FB7F894EC91111141
:100C400008C0D095DE23DC938FBFDF91CF911F9139
:100C50000895DE2BF8CFCF93DF9390E0FC01EE5A9E
:100C6000F54F24918059954FFC0184918823D1F050
:100C700090E0880F991FFC01EA56FA4FA591B491B4
:100C8000FC01EA59F54FC591D49161110EC09FB78F
:100C9000F8948C91E22FE0958E238C932881E223A7
:100CA000E8839FBFDF91CF9108958FB7F894EC91BF
:100CB000E22BEC938FBFF6CFCF938091000182306F
:100CC00021F08F3F61F1CF910895E4E8FAE0C491FB
:100CD000C7FDF9CF61E082E00E942B06CC2309F426
:100CE0008CC0C23009F0A1C08091B100887F8360C0
:100CF0008093B10089EF8093B30088EC90E0A0E08E
:100D0000B0E08093160290931702A0931802B0935C
:100D1000190280917000826080937000D4CF82E0CD
:100D200080930001E4E8FAE0C491CF3F61F2C13062
:100D300021F150F0C23009F43EC0C7FDC4CF61E0DC
:100D400082E00E942B06CDCF14BC15BC84B5826016
:100D500084BD85B5816085BDE2E7FAE0E491F0E00D
:100D6000EE0FFF1FEA59F54F85919491E4E5FAE003
:100D7000E491E0931502C0E0ADCF10928000109294
:100D80008100809181008860809381008091810042
:100D9000816080938100E2E7FAE0E491F0E0EE0FF9
:100DA000FF1FEA59F54F85919491E4E5FAE0E4914B
:100DB000E09314028FCF1092B0001092B100809196
:100DC000B00082608093B0008091B1008160809318
:100DD000B100E2E7FAE0E491F0E0EE0FFF1FEA591C
:100DE000F54F859194919093130280931202E4E55C
:100DF000FAE0E491E09311026DCF85B5887F8360BE
:100E000085BD8CE787BD88EC90E0A0E0B0E08093E2
:100E10001E0290931F02A0932002B09321028091A2
:100E20006E00826080936E004ECFC130F1F48091ED
:100E30008100887F8160809381008FE39FE19093A0
:100E400089008093880088EC90E0A0E0B0E0809377
:100E50001A0290931B02A0931C02B0931D02809172
:100E60006F00826080936F002ECFC23021F0C111DD
:100E70002ACF8FE3C7CF8FE33ECF3FB7F89480915F
:100E80000C0290910D02A0910E02B0910F0226B5B6
:100E9000A89B05C02F3F19F00196A11DB11D3FBFB2
:100EA000BA2FA92F982F8827BC01CD01620F711D81
:100EB000811D911D42E0660F771F881F991F4A957B
:100EC000D1F708958F929F92AF92BF92CF92DF9207
:100ED000EF92FF924B015C010E943D076B017C0188
:100EE0000E943D076C197D098E099F09683E734079
:100EF00081059105A8F321E0821A9108A108B108A3
:100F000088EEC80E83E0D81EE11CF11C8114910408
:100F1000A104B10429F7FF90EF90DF90CF90BF902C
:100F2000AF909F908F9008952FB7F894609108022A
:100F30007091090280910A0290910B022FBF0895CF
:100F40008F929F92AF92BF92EF92FF921F93CF9397
:100F5000DF93EC01162FE881F9810484F585E02DFB
:100F6000462F70E060E009957C0111501230D8F4F2
:100F700019861A8688889988AA88BB880E943D07A6
:100F8000688F798F8A8F9B8F8C8E9D8EAE8EBF8E51
:100F9000C701DF91CF911F91FF90EF90BF90AF906D
:100FA0009F908F9008958C889D88AE88BF88E6CFEB
:100FB000DC0118968C911897681710F06FEF680F86
:100FC0001B969C911B97992391F017962C9117973C
:100FD000962F211106C061E0690F90E06817D8F7DD
:100FE000F7CF19961C9219971A966C931A97FD01D0
:100FF000E60FF11D64856068CD010C94A0078F9207
:101000009F92AF92BF92EF92FF920F931F93CF9355
:10101000DF93EC01462FE881F9810484F585E02D0A
:1010200061E070E009957C018C889D88AE88BF885E
:101030000E943D07688F798F8A8F9B8F8C8E9D8E43
:10104000AE8EBF8E01E010E0EF2811F010E000E05E
:101050008B85882391F089858F5F89879F81891788
:1010600060F019868A858F5F8A879885891708F0CE
:101070001A866A85CE010E94D807C801DF91CF91F8
:101080001F910F91FF90EF90BF90AF909F908F9026
:1010900008958DEF9FEF08958DEF9FEF089590E0F5
:1010A00080E008952091E401260F3327331F213279
:1010B0003105ECF420914D02FC0190E080E02430F9
:1010C00069F082E00895A091E4012191AC014C53B4
:1010D0005E4FA40FB52FB11D2C930196861798F380
:1010E0008091E401680F6093E40180E0089581E05D
:1010F000089510924D0281E080934C0210924702B5
:1011000061E082E10E94FD0561E083E10E94FD054E
:10111000E9EBF0E080818E7F808380818D7F80830A
:1011200088E48093B80085E48093BC000895109211
:1011300054021092530210927602109275020E948D
:1011400079088BE795E090932502809324028CE741
:1011500095E090932302809322020895CF93DF932A
:1011600091E09093C3018823B9F0C091B800D09169
:10117000BA008091BC008A7B8093BC0060E082E171
:101180000E94FD0560E083E10E94FD050E94790850
:10119000D093BA00C093B800DF91CF910895E09149
:1011A000540280915302E81730F4F0E0EB5AFD4FFF
:1011B000808190E008958FEF9FEF08959091540201
:1011C000809153022FEF3FEF981748F4E92FF0E09A
:1011D000EB5AFD4F208130E09F5F90935402C9018C
:1011E00008958091530290915402891B990B0895A0
:1011F000CF92DF92EF92FF920F931F93CF93DF93E3
:101200007C01CB018A0120917802222389F0EB0135
:101210006B01C40ED51ECC15DD0569F06991D701AF
:10122000ED91FC910190F081E02DC7010995F3CF7C
:10123000642F0E945208C801DF91CF911F910F9136
:10124000FF90EF90DF90CF900895CF93DF931F92A0
:10125000CDB7DEB76983209178022223F9F020917F
:101260007502203258F021E030E0FC013383228304
:1012700090E080E00F90DF91CF9108958091760209
:10128000E82FF0E0ED55FE4F998190838F5F8093BA
:1012900076028093750281E090E0ECCF61E0CE01B0
:1012A00001960E945208F7CF682F89E792E00C94CC
:1012B0002509CF92DF92EF92FF920F931F93CF9366
:1012C000DF93D091750281E0D13208F09CC0C091CB
:1012D00077020E943D076B017C0180914D028111D4
:1012E0006CC082E080934D0281E080934C028FEFCE
:1012F00080934B0210924A02D0934902A3EAB1E0D4
:10130000E7E2F2E080E0D8138DC0109248028091AD
:101310004802CC0FC82BC09348028091470281300D
:1013200009F084C0109247020E943D076B017C01C6
:10133000809148028093BB0080914F0290915002AF
:10134000A0915102B0915202892B8A2B8B2BA1F0D4
:101350000E943D0700914F021091500220915102CE
:10136000309152026C197D098E099F0906171707E3
:101370002807390708F442C08091BC0083FDD8CF0C
:1013800085EC8093BC000E943D076B017C0180913D
:101390004D02823009F44CC080914B028F3F09F41A
:1013A00069C080914B02803209F466C080914B0283
:1013B000803309F463C084E026C080914F0290918D
:1013C0005002A0915102B0915202892B8A2B8B2B93
:1013D00009F483CF0E943D0700914F021091500203
:1013E00020915102309152026C197D098E099F099A
:1013F000061717072807390708F06FCF80914E02AC
:101400000E94AE0885E0109276021092750210924A
:101410007802DF91CF911F910F91FF90EF90DF90B5
:10142000CF9008959D9191938F5F6DCF85EEA9CF59
:1014300080914F0290915002A0915102B0915202BE
:10144000892B8A2B8B2B09F4A2CF0E943D07009198
:101450004F021091500220915102309152026C19AA
:101460007D098E099F09061717072807390708F015
:101470008ECFC4CF80E0C7CF82E0C5CF83E0C3CF9B
:10148000CF93DF93D82FC62F8091260280620E94CF
:1014900071056D2F89E792E00E9425096C2F89E77D
:1014A00092E00E94250989E792E0DF91CF910C94A8
:1014B00059090895FC016370668B848195812681AA
:1014C0003781613039F0633029F091878087338725
:1014D00022870895318720879387828708952F92E6
:1014E0003F924F925F926F927F928F929F92AF92B4
:1014F000BF92CF92DF92EF92FF920F931F93CF9301
:10150000DF93CDB7DEB76A970FB6F894DEBF0FBE94
:10151000CDBF9A8F898F7A8369834A01D22E18872B
:101520000F833701BC2CDC0159962D913C915A97C1
:101530002115310509F015C118968D919C911997C7
:10154000681779070CF0D7C11A968D919C914817AE
:1015500059070CF0D0C14C2C512CB6E0CB9E600D3D
:10156000711D11247C876B87161617060CF0C3C1FA
:10157000EA2DF0E0FA87E98793E0EE0FFF1F9A95D6
:10158000E1F7F88BEF87CF01840F951F1816190626
:101590000CF0B1C1A98DBA8D58968C91811104C0FF
:1015A000BFEABD1508F4D394A98DBA8DED91FC91D5
:1015B00011970284F385E02DCD010995B5E0DB9EFE
:1015C000C0011124E981FA81FC83EB83312C212CA9
:1015D0009C0128583F4F388F2F8B4A2D50E05E8B4F
:1015E0004D8BEF89F88DE20DF31D44919E828D8223
:1015F000D12CC12C69817A81620D731D7A8B698B24
:10160000842F90E09C8B8B8BE98DFA8DA081B1812A
:1016100040FF82C0F1E0BF126FC0AF126DC01C96D8
:10162000ED91FC912F813885A4014C0D5D1D6989D8
:101630007A89898D9A8D0995EB89FC89F595E795CD
:101640004E2F5FEFC51AD50A6D817E818D899E89E7
:10165000680F791F7E836D8398E0C916D10481F6E7
:10166000AFEF2A1A3A0AEB81FC81E40DF51DFC83E9
:10167000EB83F5E02F16310409F0B3CF2F813885C5
:1016800026153705B9F0A98DBA8DED91FC91B1E021
:10169000BB1257C0AB1255C069817A816B5F7F4F17
:1016A0000088F189E02D830128E030E0A401898DD4
:1016B0009A8D0995A98DBA8DED91FC9111970688A7
:1016C000F789E02DCD016A960FB6F894DEBF0FBE04
:1016D000CDBFDF91CF911F910F91FF90EF90DF90E1
:1016E000CF90BF90AF909F908F907F906F905F90C2
:1016F0004F903F902F9009941E96ED91FC91EF80B2
:10170000F88409851A8592014D815E816B817C8107
:10171000898D9A8D099590CF2F81388526153705AB
:1017200009F48ACF31E0B31207C0A31205C01C969A
:10173000ED91FC91930178CF1E96ED91FC91730190
:10174000E0CF6B857C85641975090684F785E02DEB
:1017500073010F8518899201A401898D9A8D0995CD
:10176000A9CFF90134969491329745915491D91AA1
:10177000B7E0DB9E400D511D1124F90125913491F4
:101780003C8B2B8BFA0125903490FA0132967490A1
:1017900031963491398B329664903196449041E081
:1017A0004C1518F04A1508F07FC0662D062C000C69
:1017B000770B7C836B83842D042C000C990B9E8308
:1017C0008D83A98DBA8DED91FC9111970284F385DB
:1017D000E02DCD010995512CD12CC12CEA2DF0E042
:1017E000FA87E9872B2D30E03C872B87A401440D35
:1017F000511D47FC5A95588F4F8B69817A81660D30
:10180000711D67FC7A957E876D877989C71608F008
:1018100051CF2C2D30E04D815E81420F531FA985A1
:10182000BA854A9FC0014B9F900D5A9F900D11247D
:10183000FC01E80DF91DF88BEF87852D612C4F8990
:10184000588D420F531F5E8B4D8B671408F050C0AC
:1018500044244394480E877041F4C1010196EB89FA
:10186000FC89E20DF31DD4901C01D7FE19C0A98D8F
:10187000BA8DED91FC91662D70E0B1E0BB1219C0FC
:10188000AB1217C02D853E85620F731F0484F5854A
:10189000E02D2F8138854D895E89898D9A8D099536
:1018A000DD0C6394842DD1CF1E821D821C821B828D
:1018B00088CF4B815C81640F751FAB85BC856A9FA7
:1018C000C0016B9F900D7A9F900D112469817A81E0
:1018D000680F791F0684F785E02DEF80F88409856D
:1018E0001A859D014F855889898D9A8D0995D8CF84
:1018F000570CC3948ACF6A960FB6F894DEBF0FBE1A
:10190000CDBFDF91CF911F910F91FF90EF90DF90AE
:10191000CF90BF90AF909F908F907F906F905F908F
:101920004F903F902F9008958F929F92AF92CF92B9
:10193000EF92FF920F931F93CF93DF93EC01262F2B
:10194000898D9A8D009709F051C06A30D1F41D86B7
:101950001C868D8948E0849F900111248E859F8587
:10196000820F931F9F878E8781E090E0DF91CF9158
:101970001F910F91FF90EF90CF90AF909F908F901D
:1019800008956D3089F3CC88AD888F898823C1F0A4
:101990008C859D8536E0C39E800D911D1124488560
:1019A00059854817590764F44E855F851D861C8646
:1019B00038E0A39EC0011124840F951F9F878E8756
:1019C000EA88FB88088919894E855F856C857D8545
:1019D000CE010E946F0A2C898C859D8546E0249F4C
:1019E000800D911D11249D878C87BECF6A3069F4CC
:1019F0001D861C86FC013896E4912D898E859F8575
:101A0000E29F800D911D1124ADCF6D3009F4ACCF54
:101A1000FC0134963491631708F4A6CF3296E49112
:101A2000E61708F4A1CFFC01329685909490462FDA
:101A3000431B342F47E0349F800C911C1124F40188
:101A4000329634913196E4913323A9F1EE2399F142
:101A5000CC88F4013596E491AD884F89442301F197
:101A60000E2E000CFF0BE30FF11DCE9EA001CF9EAA
:101A7000500D11246C857D85460F571F688579852B
:101A8000641775076CF44E855F851D861C86FC0106
:101A90003896E491AE9E400D511D11245F874E870C
:101AA000EA88FB88088919894E855F856C857D8564
:101AB000CE010E946F0AF4013496E4912C898C8542
:101AC0009D85E29F800D911D11248DCF6F927F9295
:101AD0008F929F92AF92BF92CF92DF92EF92FF923E
:101AE0000F931F93CF93DF93EC016B015A013901E0
:101AF0004801E881F9810284F385E02D0995E881A8
:101B0000F9810288F389E02D87019301A501B601CF
:101B1000CE010995A501480D591D41505109E88193
:101B2000F9810288F389E02D9301B601CE01099570
:101B3000E881F9810088F189E02D9401A501B601C1
:101B4000CE010995C60CD71CB60161507109E88118
:101B5000F9810088F189E02D9401A501CE01099554
:101B6000E881F9810688F789E02DCE01DF91CF91D8
:101B70001F910F91FF90EF90DF90CF90BF90AF90AB
:101B80009F908F907F906F9009946F927F928F9229
:101B90009F92AF92BF92CF92DF92EF92FF920F93FC
:101BA0001F93CF93DF935C01EB016A014901380178
:101BB0008701DC01ED91FC916217730719F564163A
:101BC00075062CF0962D872D3A01C92ED82E960138
:101BD000261937092F5F3F4F048CF58DE02DA301A7
:101BE000BE01C5010995DF91CF911F910F91FF9023
:101BF000EF90DF90CF90BF90AF909F908F907F90AD
:101C00006F9008954615570591F42617370724F06D
:101C1000892D4B01C22FD82F9E01281939092F5F1A
:101C20003F4F068CF78DE02DA601B401DACF028478
:101C3000F385E02D0995D501ED91FC910488F58996
:101C4000E02D83019401A601BE01C5010995D501CE
:101C5000ED91FC910688F789E02DC501DF91CF91C8
:101C60001F910F91FF90EF90DF90CF90BF90AF90BA
:101C70009F908F907F906F900994EF92FF920F93B7
:101C80001F93DC011A960D911C911B9718962D91AC
:101C90003C911997ED91FC9100A0F1A1E02D7B0101
:101CA00050E040E070E060E009951F910F91FF90D7
:101CB000EF9008954F925F926F927F928F929F92D2
:101CC000AF92BF92CF92DF92EF92FF920F931F934A
:101CD000CF93DF936C012B015A0139014801DC01DC
:101CE000ED91FC910284F385E02D0995E201640CED
:101CF000751CD601ED91FC91C615D7055CF40088E2
:101D0000F189E02D87019401A501BE01C601099565
:101D10002196EFCF0688F789E02DC601DF91CF919C
:101D20001F910F91FF90EF90DF90CF90BF90AF90F9
:101D30009F908F907F906F905F904F9009948F92BB
:101D40009F92AF92BF92CF92DF92EF92FF920F934A
:101D50001F93CF93DF93EC015B014A016901E88196
:101D6000F9810284F385E02D099595012C0D3D1D27
:101D700021503109E881F9810488F589E02D780145
:101D80008401A401B501CE010995E881F981068895
:101D9000F789E02DCE01DF91CF911F910F91FF9038
:101DA000EF90DF90CF90BF90AF909F908F9009946D
:101DB0008F929F92AF92BF92CF92DF92EF92FF925B
:101DC0000F931F93CF93DF93EC015B014A016901ED
:101DD0007801E881F9810284F385E02D0995C80C2A
:101DE000D91C860101501109E881F9810488F5891F
:101DF000E02D9501A401B501CE010995E881F98195
:101E00000688F789E02DCE01DF91CF911F910F91C8
:101E1000FF90EF90DF90CF90BF90AF909F908F900A
:101E20000994EF92FF920F931F93DC01ED91FC91C7
:101E300000A0F1A1E02D09951F910F91FF90EF9067
:101E400008950F931F93DC01ED91FC91068CF78DA3
:101E5000E02D09951F910F9108950F931F93DC01B9
:101E6000ED91FC91048CF58DE02D09951F910F915A
:101E70000895DC01ED91FC910084F185E02D099439
:101E80003F924F925F926F927F928F929F92AF920A
:101E9000BF92CF92DF92EF92FF920F931F93CF9357
:101EA000DF935C017B014A016901390187E0680E1B
:101EB000711C93E0759467949A95E1F72B01400E9D
:101EC000511E10E000E0312CD0E0C0E0CE01877060
:101ED0009927330C892B59F4FE0183E0F595E7959A
:101EE0008A95E1F7E00FF11FE80DF91D349037FEF8
:101EF0000AC021E030E0A701B5016C0F7D1F85E825
:101F000092E00E94390F2196CC16DD06F9F68FEF8C
:101F1000E81AF80A060D171DE414F504A9F6DF9176
:101F2000CF911F910F91FF90EF90DF90CF90BF90D6
:101F3000AF909F908F907F906F905F904F903F9069
:101F400008952F923F924F925F926F927F928F925D
:101F50009F92AF92BF92CF92DF92EF92FF920F9338
:101F60001F93CF93DF9300D000D000D0CDB7DEB762
:101F70003C016A013E832D83FC82EB825801A41A46
:101F8000B50AB7FE03C0B194A194B1088D809E80BC
:101F9000861A970A97FE03C09194819491088A1437
:101FA0009B045CF0902F812F0D811E819D838E8379
:101FB0009C2D8D2D6B01692F782F0C151D055CF064
:101FC0009D818E817E836D83692F782F902F812F45
:101FD0008601C92ED82E1601201A310A2B012D8117
:101FE0003E81421A530A57FE03C05194419451084E
:101FF000710137FE03C03FEFE31AF30AF594E7944B
:102000008D819E81861797075CF5A1E0B0E0BA83C9
:10201000A983C016D1064CF1D301ED91FC91048443
:10202000F585E02D2B813C81A8016D817E818A148C
:102030009B041CF04D815E81B801C3010995E41831
:10204000F508F7FE0AC02D813E8189819A81280F0B
:10205000391F3E832D83E20CF31C0F5F1F4FD9CF36
:102060002FEF3FEF3A832983D4CF26960FB6F8940B
:10207000DEBF0FBECDBFDF91CF911F910F91FF90BB
:10208000EF90DF90CF90BF90AF909F908F907F9018
:102090006F905F904F903F902F900895EF92FF9236
:1020A0000F931F93CF93DF93EC01EC80FD806E15AF
:1020B0007F050CF070C057FF04C0240F351F50E09F
:1020C00040E08E819F81FA01E20FF31F8E179F0778
:1020D0001CF49C01241B350B121613060CF05BC07C
:1020E000922F842F8695869586958E9DD0018F9D03
:1020F000B00D11246A0F7B1FAF8DB8A1A60FB71FBB
:10210000477049F188E0841B482F682F70E0FB017D
:10211000E059FF4FE491281708F063C0621B710972
:102120002FEF30E002C0359527956A95E2F7E2235C
:102130000130110539F0B0F10230110561F58C91D3
:10214000E82702C08C91E82BEC93941720F12C81A6
:102150003D81A20FB31FE92FE41BE83078F0023075
:10216000110521F58E2F9C9190959C932C813D819A
:10217000A20FB31F88508830B0F7E770EE2359F0F4
:10218000F0E0E859FF4FE49101301105F9F010F14A
:102190000230110519F1DF91CF911F910F91FF903E
:1021A000EF900895E0958C91E823CECF81E0011562
:1021B000110509F480E081959E2F8C932C813D813F
:1021C000A20FB31F98509830C0F7D7CF8C91E82B4F
:1021D000EC93E1CFE0958C91E823FACF8C91E8273E
:1021E000F7CF0130110509F4ADCFE0F2023011054F
:1021F00009F4A5CFAE0DBF1DAECF0F931F93CF93A4
:10220000DF9377FF04C0260F371F70E060E0DC012A
:102210001496CD91DC91FB01E20FF31FCE17DF077F
:102220001CF49E01261B370B121613064CF5FA01FF
:1022300057FD3796A3E0F595E795AA95E1F7EC9F52
:10224000D001ED9FB00DFC9FB00D11246A0F7B1FD4
:10225000DC015F96ED91FC91E60FF71F4770552763
:1022600081E090E001C0880F4A95EAF7482F0130DD
:10227000110559F0A8F02E0F3F1F02301105E1F0B3
:10228000DF91CF911F910F9108952E0F3F1FE217FD
:10229000F307B1F38191DF011197842B8C93F7CF72
:1022A00080952E0F3F1FE217F30751F39191DF0145
:1022B000119798239C93F7CFE217F30709F38191C5
:1022C000DF01119784278C93F7CF0F931F93FA01A7
:1022D000DC0156964C9156974230E9F04330A1F11B
:1022E000413061F514964D915C91DA01AE1BBF0B44
:1022F000FD01E21BF30B77FD0BC0DC0116964D913F
:102300005C916417750724F4AB01BF010E94FD10B6
:102310001F910F91089514964D915C91DA01A61BBF
:10232000B70BBD0161507109DC0116964D915C91AE
:10233000DA01AE1BBF0BFD01E21BF30B77FDE8CF0B
:10234000AF010E944E10E4CF16964D915C91DA01D8
:10235000A61BB70BBD0161507109CDCF0F931F9321
:10236000FA01DC0156964C9156974230A9F0433061
:1023700091F1413019F514964D915C91DA01AE1B43
:10238000BF0BFD013197F7FD04C0AB01BF010E94F7
:102390004E101F910F91089514964D915C91DA01A2
:1023A000A61BB70BBD01DC0116964D915C91DA01BD
:1023B000AE1BBF0BFD013197621B730BF7FDE9CF1D
:1023C000DC0116964D915C91E417F50714F7AF0107
:1023D0000E94FD10DECF16964D915C91DA01A61B8E
:1023E000B70BBD01621B730BCECFFC0177FD64C040
:1023F00080859185681779070CF05EC057FD5CC039
:1024000082859385481759070CF056C0868982301B
:10241000B1F0833029F1813041F484819581841BAE
:10242000950BAB01BC01615071092130310509F1F7
:1024300008F443C02230310509F463C00895848153
:102440009581DC01A61BB70BBD0161507109868126
:102450009781DC01A41BB50BAD0141505109E5CFBB
:1024600086819781861B970BBA01AC0141505109B7
:10247000DCCFCA0157FD0796A3E095958795AA95ED
:10248000E1F7A481B5818A9F90018B9F300D9A9FBF
:10249000300D1124620F731F078CF0A1E02DE60FA1
:1024A000F71F4770552721E030E001C0220F4A9501
:1024B000EAF78081822B80830895CA0157FD079631
:1024C00033E0959587953A95E1F7A481B5818A9F88
:1024D00090018B9F300D9A9F300D1124620F731F56
:1024E000078CF0A1E02DE60FF71F4770552781E01C
:1024F00090E001C0880F4A95EAF780959081892382
:10250000DACFCA0157FD079623E0959587952A955E
:10251000E1F7A481B5818A9F90018B9F300D9A9F2E
:10252000300D1124620F731F078CF0A1E02DE60F10
:10253000F71F4770552721E030E001C0220F4A9570
:10254000EAF780818227B7CF08958EBD00000DB4D1
:1025500007FEFDCF8EB50895FF920F931F93CF9383
:10256000DF93F82ED92FC62F8091A2029091A3025B
:10257000892B09F447C08091A6020E9471058091C1
:10258000A2029091A302DC01ED91FC910190F081F7
:10259000E02D60E009950F2D1D2FD1E0C1508091F5
:1025A000A2029091A302CF3F31F1D03298F00E9465
:1025B00059098091A6020E9471058091A202909112
:1025C000A302DC01ED91FC910190F081E02D60E02F
:1025D0000995D1E08091A2029091A302F801649143
:1025E000DC01ED91FC910190F081E02D0995DF5F18
:1025F0000F5F1F4FD3CFDF91CF911F910F91FF90AE
:102600000C945909E091B202F091B302908180914B
:10261000B8028095892380830F2D1D2FC15008F4A7
:1026200038C0F80184912091A0023091A102232B9F
:1026300029F00E94A5120F5F1F4FF0CF28E030E075
:1026400040E8E091AE02F091AF029091B602582FAF
:102650005423D9F05081952B9083E091B002F091F2
:10266000B10290815091B702952B9083E091B00216
:10267000F091B10250819091B7029095952390838B
:10268000469521503109E9F6D6CF50819095952392
:10269000E3CFDF91CF911F910F91FF9008951F938A
:1026A000CF93DF93EC018D8D9E8D892BF9F0162F42
:1026B00089A10E9471058D8D9E8DDC01ED91FC91AB
:1026C0000190F081E02D60E009958D8D9E8DDC01FB
:1026D000ED91FC910190F081E02D612F09958D8D98
:1026E0009E8DDF91CF911F910C945909ADA5BEA588
:1026F0009C918BA9809589238C938B8D9C8D892BA4
:1027000031F0862FDF91CF911F910C94A51228E014
:1027100030E080E8A9A5BAA599A9462F4823C1F0C1
:102720004C91942B9C93ABA5BCA59C914AA9942B4E
:102730009C93ABA5BCA54C919AA9909594239C938E
:1027400086952150310931F7DF91CF911F9108957E
:102750004C9190959423E6CF8CBD9DBD0895FF923A
:102760000F931F93CF93DF938091A2029091A302C6
:10277000892B09F487C02091BA023091BB024091A5
:10278000BC025091BD0260E074E284EF90E00E94D0
:10279000EF22205131094109510956954795379546
:1027A00027952093B80065E085E89AE00E94AC1276
:1027B00060918902615085E892E00E944F13209158
:1027C0008B0230918C02C901079697FD079623E092
:1027D000959587952A95E1F72091890230918A0293
:1027E000829F8001839F100D929F100D1124C09134
:1027F000A402D091A5028091A2029091A3020C0F95
:102800001D1F892B09F47CC08091A6020E947105CE
:102810008091A2029091A302DC01ED91FC910190C4
:10282000F081E02D60E40995FF24F3948091A202E9
:102830009091A3020C171D07E1F1BFE1BF15A0F4B1
:102840000E9459098091A6020E9471058091A202FE
:102850009091A302DC01ED91FC910190F081E02DBB
:1028600060E40995FF24F3948091A2029091A30261
:102870006991DC01ED91FC910190F081E02D0995C9
:10288000F394D4CF8091A0029091A102892B31F0D2
:102890008091C3029091C4020E94AC13E091B402F3
:1028A000F091B50290818091B9028095892380834F
:1028B0007ACF0E9459098091A2029091A302892B9C
:1028C00009F45FC02091BE023091BF024091C00266
:1028D0005091C10260E074E284EF90E00E94EF2228
:1028E000205131094109510956954795379527954A
:1028F0002093B800DF91CF911F910F91FF90089521
:10290000E091B202F091B30280819091B802892BDC
:1029100080830C171D0779F289912091A0023091D4
:10292000A102232B19F00E94A512F3CF28E030E07A
:1029300040E8E091AE02F091AF029091B602582FBC
:102940005423D9F05081952B9083E091B002F091FF
:10295000B10290815091B702952B9083E091B00223
:10296000F091B10250819091B70290959523908398
:10297000469521503109E9F6CCCF508190959523A9
:10298000E3CFE091B402F091B50280819091B90259
:10299000892B8083AFCF1F93CF93DF93EC01162F4A
:1029A0008D8D9E8D892BB1F12DA93EA94FA958ADD2
:1029B00060E074E284EF90E00E94EF222051310940
:1029C0004109510956954795379527952093B800A9
:1029D00066EA111167EACE010E944F138D8D9E8D1C
:1029E000892B41F129AD3AAD4BAD5CAD60E074E2AD
:1029F00084EF90E00E94EF222051310941095109F2
:102A000056954795379527952093B800DF91CF913C
:102A10001F9108958B8D9C8D892B21F08EAD9FADDC
:102A20000E94AC13EFA5F8A990818CA98095892309
:102A30008083CECFEFA5F8A980819CA9892B8083C4
:102A4000E5CF0F931F93CF93DF93182FD0E0C0E211
:102A50008C2F0E94710589E792E00E945909082F86
:102A600061E070E080E090E00E946207011103C025
:102A70001D17E1F0DF5FCF5FC83251F7C8E38C2F3D
:102A80000E94710589E792E00E945909082F61E0D0
:102A900070E080E090E00E946207011103C01D1702
:102AA00029F0DF5FCF5FC03451F7C0E08C2FDF919A
:102AB000CF911F910F910895CF93FC01C4A560FFA2
:102AC00002C086A1C82B61FF02C087A1C82B62FF8C
:102AD00002C080A5C82B63FF02C081A5C82B41306E
:102AE000510511F483A1C82B85A18C2B90E00E9485
:102AF00054096C2F89E792E0CF910C942509CF936C
:102B0000DF93EC018AA5882359F19BA5662321F167
:102B1000913021F58CA788A10E94710589A19AA105
:102B2000029721F489E090E00E9454096CA589E79E
:102B300092E00E94250989E792E00E94590921E06C
:102B400030E0811102C030E020E088279927821B05
:102B5000930BDF91CF9108959923E1F21CA6DBCF6F
:102B60008DEF9FEFF6CF4F925F926F927F928F9291
:102B70009F92AF92BF92EF92FF921F93CF93DF93FA
:102B8000EC0188A1882309F45BC089A19AA1892B53
:102B900009F456C0142F7B014C8C5D8C6E8C7F8C9D
:102BA000888C998CAA8CBB8C8DE2881A9108A1081C
:102BB000B1080E943D07681979098A099B096415C3
:102BC000750586059705A8F388A10E94710589A15E
:102BD0009AA1029721F489E090E00E945409612FA4
:102BE00070E084E0759567958A95E1F7A701CE01BD
:102BF0000E945C1582E0E816F10431F0612F6F70DD
:102C0000A701CE010E945C1589E792E00E94590954
:102C100021E030E0811102C030E020E088279927D0
:102C2000821B930BDF91CF911F91FF90EF90BF908C
:102C3000AF909F908F907F906F905F904F9008958E
:102C40008CEF9FEFEFCF0895CF92DF92EF92FF923C
:102C50000F931F93CF93C82F0E943D076B017C01F8
:102C600080914D02811164C081E080934D02809378
:102C70004C029FEF90934B0210924A02109249022D
:102C80008093480280914802CC0FC82BC093480221
:102C900080914702813009F07DC0109247020E9466
:102CA0003D076B017C01809148028093BB008091BD
:102CB0004F0290915002A0915102B0915202892B83
:102CC0008A2B8B2BA1F00E943D0700914F0210919F
:102CD000500220915102309152026C197D098E09E7
:102CE0009F09061717072807390708F442C0809183
:102CF000BC0083FDD8CF85EC8093BC000E943D07CB
:102D00006B017C0180914D02813009F445C08091B6
:102D10004A02811163C080914A02E7E2F2E0A5E530
:102D2000B2E090E0981751F121912D939F5FFACF77
:102D300080914F0290915002A0915102B0915202A5
:102D4000892B8A2B8B2B09F48BCF0E943D07009196
:102D50004F021091500220915102309152026C1991
:102D60007D098E099F09061717072807390708F0FC
:102D700077CF80914E020E94AE0880E010925402FC
:102D800080935302CF911F910F91FF90EF90DF90AE
:102D9000CF90089585EEB0CF80914F029091500270
:102DA000A0915102B0915202892B8A2B8B2B09F4EE
:102DB000A9CF0E943D0700914F021091500220912F
:102DC0005102309152026C197D098E099F09061734
:102DD00017072807390708F095CFCBCF81E09DCFA3
:102DE000CF93C82F8091260280620E9471056C2FBC
:102DF00089E792E00E94250989E792E00E9459093B
:102E000080912602806290E00E94241689E792E079
:102E10000E94DE08CF910895CF92DF92EF92FF9249
:102E20000F931F93CF93DF9300E08A30910520F436
:102E3000855F9E4FFC010081D0E0C0E0EE24E3946A
:102E4000F12C10E097E0C92ED12C89E00E94F016F9
:102E5000B7010C2E01C0660F0A94EAF796012C1BED
:102E60003D0BA80102C0559547952A95E2F740FF12
:102E700011C0682B89E00E94400A2196C830D10514
:102E800021F7DF91CF911F910F91FF90EF90DF908D
:102E9000CF90089560956823EDCF4F925F926F9227
:102EA0007F928F929F92AF92BF92EF92FF920F9379
:102EB0001F93CF93DF93EC011CA588A1882309F40D
:102EC000EDC089A19AA1009709F4E8C0029709F41E
:102ED000E8C08CA1882309F4E4C07B014C8C5D8C94
:102EE0006E8C7F8C888C998CAA8CBB8C8DE2881A16
:102EF0009108A108B1080E943D07681979098A095B
:102F00009B096415750586059705A8F38EA1182BF6
:102F10008FA1182B88A5182B89A5182BEA94EF28C8
:102F200011F48BA1182B8CA1182B88A10E9471057C
:102F3000612F89E792E00E94250989E792E00E94CB
:102F40005909882311F10FEF1FEF88A10E94710525
:102F50006CA589E792E00E94250989E792E00E942A
:102F60005909882311F00FEF1FEFC801DF91CF91AE
:102F70001F910F91FF90EF90BF90AF909F908F9017
:102F80007F906F905F904F90089588A10E94710587
:102F90008DA1812B90E00E94540989E792E00E9464
:102FA00059098111D0CF88A190E00E94241689E7A9
:102FB00092E00E94DE087C0197FDC5CF88A10E94A7
:102FC0007105612F89E792E00E94250989E792E067
:102FD0000E945909082F8111B6CF8EA190E08E2151
:102FE0009F21892B09F000E18FA190E08E219F2184
:102FF000892B09F0006288A590E08E219F21892B02
:1030000009F0006489A590E08E219F21892B09F0A9
:10301000006888A10E9471058DA1812B90E00E941B
:10302000540989E792E00E94590981118CCF88A147
:1030300090E00E94241689E792E00E94DE087C015D
:1030400097FD81CF88A10E947105612F89E792E0E9
:103050000E94250989E792E00E945909811173CFE6
:103060008EA190E08E219F21892B09F001608FA114
:1030700090E08E219F21892B09F0026088A590E0C5
:103080008E219F21892B09F0046089A590E08E2173
:103090009F21892B09F0086010E057CF0CEF1FEF3C
:1030A00064CF0DEF1FEF61CF0F931F93CF93DF938B
:1030B000EC010E94970888A1811188C08091A2012B
:1030C00091E0980F9093A2010E94211588A388A1F6
:1030D000811109C08091A20191E0980F9093A20103
:1030E0000E94211588A318A1112309F478C089A191
:1030F0009AA1892B09F033C1812F0E94710560E0EC
:1031000089E792E00E9425096FEF89E792E00E942B
:10311000250989E792E00E945909812F0E947105D3
:1031200060E089E792E00E94250989E792E00E9429
:103130005909812F90E00E94241689E792E00E94AD
:10314000DE088F3F910509F051C082E090E09AA31C
:1031500089A388A10E94710560E089E792E00E943E
:1031600025098FEF90E00E94540989E792E00E94C0
:10317000590988A10E94710586E090E00E945409D7
:103180008FE790E00E94540989E792E00E94590974
:1031900088A10E94710589E090E00E94540989E7A6
:1031A00092E00E94590988A190E00E94241689E7C4
:1031B00092E00E94DE088F3709F010C127E036E068
:1031C00045E054E063E072E0E1E013C10E94710564
:1031D00089E792E00E945909882309F478CF8CEF9F
:1031E0009FEFDF91CF911F910F910895892B29F0C7
:1031F0001AA219A28FEF9FEFF4CF81E090E09AA37B
:1032000089A388A10E9471056FEF89E792E00E946F
:10321000250989E792E00E94590988A190E00E945F
:10322000241689E792E00E94DE088C0188A10E94A2
:1032300071056BEF89E792E00E94250989E792E02A
:103240000E94590988A190E00E94241689E792E023
:103250000E94DE089801277033272730310509F0D6
:103260004DC0807F9927803F910509F047C083E0DA
:10327000169507958A95E1F761E00627017043E00E
:1032800057E066E075E0E4E022E0F1E030E081E064
:1032900090E0DC0101C0AA0F3A95EAF7ABA3DC018C
:1032A00001C0AA0FFA95EAF7ACA3DC0102C0AA0F8D
:1032B000BB1F2A95E2F7ADA39C0101C0220FEA953E
:1032C000EAF72EA39C0101C0220F7A95EAF72FA3FB
:1032D0009C0101C0220F6A95EAF728A79C0101C052
:1032E000220F5A95EAF729A701C0880F4A95EAF7F5
:1032F0008AA70BA7013091F58CA731C0C801807750
:1033000099278037910519F08DEF9FEF6ACF88A13B
:103310000E9471056FEE89E792E00E94250989E716
:1033200092E00E94590988A190E00E94241689E742
:1033300092E00E94DE088F70992726E034E00F9714
:1033400011F424E036E00095001F0027001F47E03D
:1033500053E062E071E0E0E0F5E099CF1CA688A1BF
:103360000E94710589A19AA1029721F585E090E05C
:103370000E94540980E290E00E94540989E792E09B
:103380000E94590988A10E94710560E089E792E0D6
:103390000E94250960E089E792E00E94250989E7FB
:1033A00092E00E94590988A10E94710589E090E08D
:1033B0000E94540960E089E792E00E94250989E7AC
:1033C00092E00E94590921E030E0811102C030E012
:1033D00020E088279927821B930B03CF86FF3BC0F1
:1033E00081FD92CF21E032E043E054E065E076E0F9
:1033F000E7E081E090E0DC0102C0AA0FBB1FEA9584
:10340000E2F7ABA31CA2FC0101C0EE0F7A95EAF72C
:10341000EDA3FC0102C0EE0FFF1F6A95E2F7EEA3D9
:10342000BC0101C0660F5A95EAF76FA3BC0102C048
:10343000660F771F4A95E2F768A7AC0101C0440FF9
:103440003A95EAF749A701C0880F2A95EAF78AA7B3
:1034500091E09BA751CF26E033E042E051E060E0ED
:1034600077E0E4E0C6CF20918B0230918C02C90155
:10347000079697FD079623E0959587952A95E1F79E
:103480002091890230918A02829FA001839F500D72
:10349000929F500D112470E060E08091A402909101
:1034A000A5020C9450240E944B24FB0101900020A3
:1034B000E9F73197AF01461B570BDC01ED91FC9109
:1034C0000280F381E02D09948F929F92AF92BF9278
:1034D000CF92DF92EF92FF920F931F93CF93DF93E0
:1034E000CDB7DEB7A1970FB6F894DEBF0FBECDBF44
:1034F0006B017C01F7FE4BC06DE285E892E00E9413
:10350000940C8C0122273327A9012C193D094E095F
:103510005F0919A2CE0181967C019AE0892E912C37
:10352000A12CB12CCA01B901A50194010E94EF227E
:10353000605DF70162937F01211531054105510559
:1035400089F790E080E0309729F0BF0185E892E0AC
:103550000E94551A080F191F6FE771E085E892E085
:103560000E94551A800F911FA1960FB6F894DEBFE6
:103570000FBECDBFDF91CF911F910F91FF90EF90C4
:10358000DF90CF90BF90AF909F908F900895AC0147
:103590009B0119A28E010F5D1F4F8AE0C82ED12C0E
:1035A000E12CF12CCA01B901A70196010E94EF227A
:1035B000605DF80162938F012115310541055105C8
:1035C00089F7309739F0BF0185E892E00E94551ADB
:1035D0008C01C2CF10E000E0BFCF85ED8093BC002E
:1035E00080914F0290915002A0915102B0915202ED
:1035F0000796A11DB11D23E0B695A79597958795D0
:103600002A95D1F72091BC0024FD03C010924D02F1
:10361000089540914F025091500260915102709173
:103620005202452B462B472B69F30097A105B105A4
:1036300041F025E32A95F1F700000197A109B109AE
:10364000E1CF80914E020C94AE081F920F920FB6FC
:103650000F9211242F933F934F935F936F937F9318
:103660008F939F93AF93BF93EF93FF938091160235
:1036700090911702A0911802B0911902892B8A2B00
:103680008B2BD1F190911102E0911202F091130273
:103690008081892780838091160290911702A091E2
:1036A0001802B0911902181619061A061B069CF486
:1036B0008091160290911702A0911802B091190200
:1036C0000197A109B1098093160290931702A09364
:1036D0001802B0931902FF91EF91BF91AF919F91A2
:1036E0008F917F916F915F914F913F912F910F90AB
:1036F0000FBE0F901F90189580910001E4E8FAE04A
:10370000E4919FEF90930001E13051F030F0E2300E
:1037100069F060E00E94FD05DECF10926E00F9CFE7
:1037200090916F009D7F90936F00F3CF9091700008
:103730009D7F9093700091E09093B0009091B100C4
:10374000987F94609093B1001092B300E2CF1F92E3
:103750000F920FB60F9211242F933F938F939F9345
:10376000AF93BF938091080290910902A0910A0241
:10377000B0910B023091070223E0230F2D3758F54B
:103780000196A11DB11D209307028093080290931A
:103790000902A0930A02B0930B0280910C0290914F
:1037A0000D02A0910E02B0910F020196A11DB11D54
:1037B00080930C0290930D02A0930E02B0930F021F
:1037C000BF91AF919F918F913F912F910F900FBE1D
:1037D0000F901F90189526E8230F0296A11DB11D8A
:1037E000D2CF1F920F920FB60F9211242F933F93B7
:1037F0004F935F936F937F938F939F93AF93BF93F9
:10380000EF93FF938091B900887F803609F44AC016
:10381000F0F5883209F4A7C018F5803109F49BC08F
:10382000B8F4882309F4F9C0883009F494C0FF91F2
:10383000EF91BF91AF919F918F917F916F915F9128
:103840004F913F912F910F900FBE0F901F901895A1
:10385000883109F488C0803251F780934B0214C03C
:10386000803409F49DC040F48033B9F38833F9F60D
:1038700080934B0285ECB0C0803509F485C0883553
:1038800009F496C0883499F60E94ED1AD0CF883991
:1038900009F48CC038F5883729F050F4883611F0D7
:1038A000803729F683E080934D021092060257C0BC
:1038B000883809F47BC0803919F0803809F0B7CF17
:1038C00080910602803208F071C0E091060281E02A
:1038D0008E0F809306028091BB00F0E0EA51FE4F0C
:1038E00080833DC0803B39F0E0F4803A09F479C030
:1038F000883A09F09CCF84E080934D021092E50154
:103900001092E401E0912402F09125020995809142
:10391000E40181110FC081E08093E4011092C401A1
:1039200009C0803C09F4A6CF883C09F4A3CF883BAA
:1039300009F07DCFE091E50181E08E0F8093E501F4
:10394000F0E0EC53FE4F80818093BB009091E50145
:103950008091E40129C0809148028093BB0085ECEE
:103960008093BC0064CF90914A02809149029817DD
:1039700058F5E0914A0281E08E0F80934A02F0E010
:10398000E95DFD4F8081E9CFE0914A0281E08E0F31
:1039900080934A028091BB00F0E0E95DFD4F808397
:1039A00090914A02809149029817C8F285E8D8CFD1
:1039B000E0914A0281E08E0F80934A028091BB0021
:1039C000F0E0E95DFD4F808380914C0281115CCF76
:1039D00081E08093470284EA8093BC0010924D02FC
:1039E00026CF85EC8093BC0010924D028091060298
:1039F000803230F4E0910602F0E0EA51FE4F10828E
:103A00006091060270E0E0912202F091230286EEBE
:103A100091E00995109206020ACF10924B0234CF22
:103A20000F931F93CF93DF9309E712E0F8011382FE
:103A3000128288EE93E0A0E0B0E084839583A683B1
:103A4000B78389E191E091838083C5ECD2E01B824A
:103A50001A8287E591E0998388831F82188680ED1A
:103A600097E0A0E0B0E0888B998BAA8BBB8B86E2B5
:103A700090E0A0E0B0E08C8B9D8BAE8BBF8B1C8662
:103A80001D861E861F861B860E943D07688F798FC4
:103A90008A8F9B8F1C8E1D8E1E8E1F8E8DE691E051
:103AA0009983888382E090E09AA389A380E288A327
:103AB00090E89BA31CA290E49DA38EA380E18FA31A
:103AC00088E088A794E099A722E02AA781E08BA745
:103AD0002CA7E5E8F2E01382128240E850E055831B
:103AE000448320E430E0378326835187408733873F
:103AF0002287168A1586148617861686858B848BF0
:103B00002FEF3FEF338B228B318B208B878B108EE7
:103B1000128E118E2BE231E031832083148E138EAE
:103B2000168F058F10A2178E8FEF84A385A386A30F
:103B300087A390A780E89AE1A6E0B0E085AB96ABBA
:103B4000A7ABB0AF80EA96E8A1E0B0E081AF92AF5A
:103B5000A3AFB4AF80E586AF17AEDF91CF911F91D1
:103B60000F910895789484B5826084BD84B5816096
:103B700084BD85B5826085BD85B5816085BD809138
:103B80006E00816080936E001092810080918100B0
:103B900082608093810080918100816080938100A8
:103BA000809180008160809380008091B10084606A
:103BB0008093B1008091B00081608093B0008091CB
:103BC0007A00846080937A0080917A00826080938A
:103BD0007A0080917A00816080937A0080917A00E7
:103BE000806880937A001092C1008091D102811187
:103BF0000CC08091D202811108C08091D302811142
:103C000004C08091D402882321F08091CC028F7E61
:103C100059F01092D10280E48093D20280E1809327
:103C2000D30280E58093D40282E08093CD0280E1CC
:103C30008093CC0264E670E080E090E00E9462072E
:103C40001092C90285EC92E00E945418892B09F069
:103C50005CC08091CD02823028F08091C9028860DA
:103C60008093C90240E362E070E085EC92E00E943C
:103C7000B31565E070E080E090E00E94620740E3E9
:103C800062E070E085EC92E00E94B31561E070E0C4
:103C900080E090E00E94620740E362E070E085EC23
:103CA00092E00E94B31561E070E080E090E00E9435
:103CB00062078091C90284FD07C040E262E070E0C3
:103CC00085EC92E00E94B3156091C902606285ECB8
:103CD00092E00E94A00784E08093CA026CE085EC29
:103CE00092E00E94A00761E085EC92E00E94A007AC
:103CF00082E08093CB0266E085EC92E00E94A00710
:103D00006FEF85EC92E00E947F158091A402909164
:103D1000A502892B11F10E94331A20918B02309158
:103D20008C028091890290918A02213231050CF037
:103D30002DC1B9016052710977FF02C06F5F7F4FDB
:103D4000759567958357910997FD019600E210E0FC
:103D500023E730E042EB55E02CC120918B023091FB
:103D60008C02C901079697FD0796B3E09595879554
:103D7000BA95E1F72091890230918A02AC01429F05
:103D8000C001439F900D529F900D11240E94262345
:103D90009093A5028093A402892B09F0BCCF0E94C6
:103DA000331A0E94AF1384E0809326020E94970882
:103DB0008091260280620E94710560E089E792E0AE
:103DC0000E9425096FEF89E792E00E94250960E0D3
:103DD00089E792E00E94250960E089E792E00E946D
:103DE000250960E089E792E00E94250960E089E703
:103DF00092E00E94250960E089E792E00E9425098F
:103E000060E089E792E00E94250960E089E792E09E
:103E10000E94250960E089E792E00E94250960E0A0
:103E200089E792E00E94250989E792E00E945909FA
:103E3000F12CE12CC1E0D0E080E00E94F016BE0140
:103E40000E2C01C0660F0A94EAF76095682380E0A3
:103E50000E94400A5FEFE51AF50A88E0E816F104CF
:103E600059F760E087E00E942B0660E084E00E9442
:103E70002B0660E08EE00E942B0680E480937C009D
:103E800080917A00806480937A0080917A0086FD28
:103E9000FCCF8091780060917900762F682F072EF3
:103EA000000C880B990B611571058105910511F0C6
:103EB0000E94B42262E871E085EC92E00E94551AFB
:103EC00061E085EC92E00E94D80761E971E085EC41
:103ED00092E00E94551A81E090E0909398028093BE
:103EE0009702909396028093950288E080939902BE
:103EF00080939A0288EC882E912CA12CB12C98ECFE
:103F0000492E512C612C712C2AE0C22ED12CE12C8F
:103F1000F12C84E00E94D405892B09F4FDC1CDE287
:103F2000D0E084E00E94D405892B09F4EFC10E94FF
:103F3000331AD0939202C09391021092940210927D
:103F400093020E94652229E030E040E050E00E94A8
:103F5000BD220E94641A0E94AF130E949407A5011B
:103F600094010E94EF226536710581059105C8F222
:103F70000E949407A30192010E94EF226639710505
:103F80008105910570F60E945C06CBCFB9016054A3
:103F9000710977FF02C06F5F7F4F759567958255F6
:103FA000910997FD019600E410E022E530E042E936
:103FB00057E0959587950E94400F82E08093A70275
:103FC0008091A2029091A302892B09F4A9C08CE3ED
:103FD0008093A6020E9497088091A2029091A3026A
:103FE000892B09F45CC12091BA023091BB02409147
:103FF000BC025091BD0260E074E284EF90E00E9448
:10400000EF222051310941095109569547953795BD
:1040100027952093B80064E08EEA95E00E94AC12E8
:1040200060918B02615085E892E00E944F1364E03A
:104030008AEA95E00E94AC128091A70264E1813087
:1040400009F460E185E892E00E944F1364E086EA9B
:1040500095E00E94AC128FE88093C20280918902A1
:1040600090918A028038910509F032C180918B02CB
:1040700090918C028034910509F03AC18091A70299
:10408000813009F423C18FEC8093C202C2E16AED52
:1040900085E892E00E944F136C2F85E892E00E9421
:1040A0004F1361E885E892E00E944F136091C202CD
:1040B00085E892E00E944F1369ED85E892E00E9446
:1040C0004F138091A70261EF813009F462E285E825
:1040D00092E00E944F1366E080EA95E00E94AC12E5
:1040E0008091A2029091A302892B09F405C120912D
:1040F000BE023091BF024091C0025091C10260E007
:1041000074E284EF90E00E94EF22205131094109CE
:10411000510956954795379527952093B8003FCE7E
:1041200061E08091AB020E942B0661E08091AC02BD
:104130000E942B068091AB02082E000C990BFC010B
:10414000E059F54FE491F0E0EE0FFF1FEA59F54F0B
:10415000259134913093B3022093B202FC01EE5AC0
:10416000F54FE491E093B8028091AC02082E000C68
:10417000990BFC01E059F54FE491F0E0EE0FFF1FC1
:10418000EA59F54FA591B491B093B502A093B4024A
:10419000FC01EE5AF54FE491E093B9028C91E82BC3
:1041A000EC938091A0029091A102892B09F434C074
:1041B000CFB7F89480911002811127C0EAE7FAE0A6
:1041C0008491ECE5FAE09491E82FF0E0EE0FFF1F08
:1041D000EA56FA4FA591B491EC91E92321F461E0FC
:1041E0008AE00E94FD0561E08AE00E942B068CB502
:1041F00080618CBD8CB580648CBD61E08DE00E94D7
:104200002B0661E08BE00E942B06809110028F5FED
:1042100080931002CFBFE0CE61E08091A9020E949E
:104220002B0661E08091AA020E942B068091A902D0
:10423000082E000C990BFC01E059F54FE491F0E0D9
:10424000EE0FFF1FEA59F54F259134913093AF02DD
:104250002093AE02FC01EE5AF54FE491E093B602D2
:104260008091AA02082E000C990BFC01E059F54F31
:10427000E491F0E0EE0FFF1FEA59F54FA591B491DC
:10428000B093B102A093B002FC01EE5AF54FE49155
:10429000E093B7028C91E095E823EC939DCE80915A
:1042A000A0029091A102892B31F08091C3029091DC
:1042B000C4020E94AC13E091B402F091B502908167
:1042C0008091B902809589238083A5CE8FE9DCCEC9
:1042D0008036910569F480918B0290918C02409711
:1042E00039F48091A702813029F08FEA8093C202CD
:1042F000C2E0CDCE80E1FACFE091B402F091B502F8
:1043000080819091B902892B808349CD68E873E15F
:1043100080E090E00E94620787E00E94D405892B2C
:1043200009F443C0CDE2D0E087E00E94D405892B98
:10433000B1F10E94331AD0939202C093910210926D
:104340009402109293020E946522A70196010E9496
:10435000BD220E94641A0E94AF130E946522A70129
:1043600096010E94BD22CB010E940C170E94940767
:10437000A50194010E94EF22653671058105910522
:1043800098F20E949407A30192010E94EF226639DD
:1043900071058105910540F60E945C06C5CF68E86D
:1043A00073E180E090E00E9462070E94940728EE8B
:1043B00033E040E050E00E94EF22672B682B692B2E
:1043C00009F50E945C060E94331A8DE290E09093FA
:1043D00092028093910210929402109293020E9492
:1043E0006522A70196010E94BD220E94641A0E94C4
:1043F000AF130E946522A70196010E94BD22CB0146
:104400000E940C1780E090E0892B09F482CD0E9475
:1044100000007FCD8BE291E090938602809385022D
:104420008091A4029091A502009711F00C94C223F0
:1044300008958F929F92AF92BF92CF92DF92EF92A8
:10444000FF92CF93DF93EC01688179818A819B8110
:10445000611571058105910521F464E279ED8BE523
:1044600097E02DE133EF41E050E00E94BD22490189
:104470005A019B01AC01A7EAB1E40E94DC226B0166
:104480007C01ACEEB4EFA50194010E94EA22C60EB5
:10449000D71EE81EF91EF7FE06C081E0C81AD10833
:1044A000E10880E8F80AC882D982EA82FB82C70163
:1044B000B6019F77DF91CF91FF90EF90DF90CF9083
:1044C000BF90AF909F908F9008958F929F92AF92E0
:1044D000BF92CF92DF92EF92FF92609101017091B3
:1044E000020180910301909104016115710581051C
:1044F000910521F464E279ED8BE597E02DE133EF4E
:1045000041E050E00E94BD2249015A019B01AC01EB
:10451000A7EAB1E40E94DC226B017C01ACEEB4EFAF
:10452000A50194010E94EA22C60ED71EE81EF91EBC
:10453000F7FE06C081E0C81AD108E10880E8F80A51
:10454000C0920101D0920201E0920301F0920401B5
:10455000C701B6019F77FF90EF90DF90CF90BF909B
:10456000AF909F908F900895609301017093020126
:1045700080930301909304010895052E97FB1EF488
:1045800000940E94D42257FD07D00E94EF2207FC1E
:1045900003D04EF40C94D42250954095309521953B
:1045A0003F4F4F4F5F4F089590958095709561955F
:1045B0007F4F8F4F9F4F08950E941123A59F900D0D
:1045C000B49F900DA49F800D911D11240895B7FFF5
:1045D0000C94DC220E94DC22821B930B0895A1E242
:1045E0001A2EAA1BBB1BFD010DC0AA1FBB1FEE1F6D
:1045F000FF1FA217B307E407F50720F0A21BB30BB8
:10460000E40BF50B661F771F881F991F1A9469F733
:1046100060957095809590959B01AC01BD01CF018F
:104620000895A29FB001B39FC001A39F700D811D8B
:104630001124911DB29F700D811D1124911D0895AB
:10464000EE0FFF1F0590F491E02D09940F931F9337
:10465000CF93DF938230910510F482E090E0E091F7
:10466000F402F091F50230E020E0B0E0A0E03097F5
:1046700099F42115310509F44AC0281B390B24305F
:104680003105D8F58A819B816115710589F1FB019E
:1046900093838283FE0111C0408151810281138185
:1046A00048175907E0F04817590799F4109761F037
:1046B00012960C93129713961C933296CF01DF91AA
:1046C000CF911F910F9108950093F4021093F5027A
:1046D000F4CF2115310551F04217530738F0A901E5
:1046E000DB019A01BD01DF01F801C1CFEF01F9CF74
:1046F0009093F5028093F402CDCFFE01E20FF31FF9
:10470000819391932250310939832883D7CF209107
:10471000F2023091F302232B41F4209107013091F2
:1047200008013093F3022093F202209105013091A9
:1047300006012115310541F42DB73EB7409109011D
:1047400050910A01241B350BE091F202F091F30223
:10475000E217F307A0F42E1B3F0B2817390778F058
:10476000AC014E5F5F4F2417350748F04E0F5F1FB7
:104770005093F3024093F202819391939FCFF0E024
:10478000E0E09CCFCF93DF930097E9F0FC013297F4
:1047900013821282A091F402B091F502ED0130E093
:1047A00020E01097A1F420813181820F931F209186
:1047B000F2023091F3022817390709F061C0F09333
:1047C000F302E093F202DF91CF910895EA01CE1750
:1047D000DF07E8F54A815B819E0141155105B1F77C
:1047E000E901FB83EA8349915991C40FD51FEC1766
:1047F000FD0761F4808191810296840F951FE90184
:1048000099838883828193819B838A83F0E0E0E0AF
:1048100012968D919C9113970097B9F52D913C912B
:104820001197CD010296820F931F2091F2023091D1
:10483000F3022817390739F6309751F51092F5022F
:104840001092F402B093F302A093F202BCCFD38390
:10485000C28340815181840F951FC817D90761F425
:104860004E5F5F4F88819981480F591F5183408364
:104870008A819B81938382832115310509F0B0CF12
:10488000F093F502E093F4029ECFFD01DC01C0CF6E
:1048900013821282D7CF81E090E0F8940C945724D1
:1048A000DC0101C06D9341505040E0F7089515E0E0
:1048B000C6E4D5E004C0FE010E9420232196C7343F
:0848C000D107C9F7F894FFCFFE
:1048C800FF010000000000F6028000FC60DAF266DA
:1048D800B6BEE0FEF6000000002509F8084F087D86
:1048E80005F108DE08CF0800000000940C7E054F93
:1048F800082316F5117D05390F110F2D0F210FA172
:104908000F7D055A0ACB146511AE115A0E3D0EC51E
:104918000D660D00000000FF077E054F0823164FA7
:10492800084C08531A4908490800000000FF077E90
:10493800054F08231654184D17B3157F1549080D50
:104948000A0020707265737320746F2072616E6440
:10495800003C2D206F6E65206F722074776F202DBC
:024968003E000F
:00000001FF
