:100000000C945D000C9485000C9485000C94850084
:100010000C9485000C9485000C9485000C9485004C
:100020000C9485000C9485000C9485000C9485003C
:100030000C9485000C9485000C9485000C9485002C
:100040000C9453090C9485000C9485000C94850045
:100050000C9485000C9485000C9485000C9485000C
:100060000C949D090C94850000000008000201001A
:100070000003040700000000000000000000000072
:10008000250028002B0000000000240027002A0083
:10009000040404040404040402020202020203032E
:1000A0000303030301020408102040800102040836
:1000B0001020010204081020BC0A11241FBECFEF3B
:1000C000D8E0DEBFCDBF22E0AAE8B1E001C01D92BA
:1000D000AB38B207E1F711E0A0E0B1E0E0E7F4E20D
:1000E00002C005900D92AA38B107D9F710E0CDE50E
:1000F000D0E004C02197FE010E943910CC35D10711
:10010000C9F70E94150B0C9436120C94000091E074
:1001100090932A0280934C0210922B0210924D026F
:100120000895AF92BF92CF92DF92EF92FF920F931A
:100130001F93CF93DF936C017B018B01040F151F7D
:10014000EB015E01AE18BF08C017D10759F06991E5
:10015000D601ED91FC910190F081E02DC601099549
:10016000892B79F7C501DF91CF911F910F91FF90F6
:10017000EF90DF90CF90BF90AF90089590E0FC019A
:10018000E859FF4F2491FC01EC55FF4F3491FC01DD
:10019000E057FF4FE491EE23C9F0222339F02330DA
:1001A00001F1A8F4213019F1223029F1F0E0EE0F2D
:1001B000FF1FE458FF4FA591B4918FB7F894EC91CD
:1001C000611126C030953E233C938FBF08952730A0
:1001D000A9F02830C9F0243049F7809180008F7D44
:1001E00003C0809180008F7780938000DFCF84B53B
:1001F0008F7784BDDBCF84B58F7DFBCF8091B0003E
:100200008F778093B000D2CF8091B0008F7DF9CFEF
:100210003E2BDACF3FB7F8948091D8019091D90165
:10022000A091DA01B091DB0126B5A89B05C02F3F54
:1002300019F00196A11DB11D3FBFBA2FA92F982F0C
:100240008827BC01CD01620F711D811D911D42E007
:10025000660F771F881F991F4A95D1F708958F92CF
:100260009F92AF92BF92CF92DF92EF92FF924B019B
:100270005C010E940A016B017C010E940A016C1959
:100280007D098E099F09683E734081059105A8F399
:1002900021E0821A9108A108B10888EEC80E83E017
:1002A000D81EE11CF11C81149104A104B10429F7AA
:1002B000FF90EF90DF90CF90BF90AF909F908F9086
:1002C00008958F929F92AF92BF92EF92FF921F93E9
:1002D000CF93DF93EC01162FE881F9810484F58533
:1002E000E02D462F70E060E009957C01115012303E
:1002F000D8F419861A8688889988AA88BB880E94AB
:100300000A01688F798F8A8F9B8F8C8E9D8EAE8E1F
:10031000BF8EC701DF91CF911F91FF90EF90BF90EB
:10032000AF909F908F9008958C889D88AE88BF88ED
:10033000E6CFDC0118968C911897681710F06FEFD4
:10034000680F1B969C911B97992391F017962C91FF
:100350001797962F211106C061E0690F90E068178A
:10036000D8F7F7CF19961C9219971A966C931A978B
:10037000FD01E60FF11D64856068CD010C946101FB
:100380008F929F92AF92BF92EF92FF920F931F9323
:10039000CF93DF93EC01462FE881F9810484F58542
:1003A000E02D61E070E009957C018C889D88AE8825
:1003B000BF880E940A01688F798F8A8F9B8F8C8EED
:1003C0009D8EAE8EBF8E01E010E0EF2811F010E0A0
:1003D00000E08B85882391F089858F5F89879F81D5
:1003E000891760F019868A858F5F8A8798858917B3
:1003F00008F01A866A85CE010E949901C801DF9132
:10040000CF911F910F91FF90EF90BF90AF909F9071
:100410008F9008952091AE01260F3327331F21328C
:100420003105ECF420912402FC0190E080E02430BE
:1004300069F082E00895A091AE012191AC0144578A
:100440005E4FA40FB52FB11D2C930196861798F31C
:100450008091AE01680F6093AE0180E0089581E065
:1004600008951092240281E0809323021092FE01ED
:1004700061E082E10E94BE0061E083E10E94BE0073
:10048000E9EBF0E080818E7F808380818D7F8083A7
:1004900088E48093B80085E48093BC000895CF93EE
:1004A000DF9391E090938B018823B9F0C091B8005D
:1004B000D091BA008091BC008A7B8093BC0060E040
:1004C00082E10E94BE0060E083E10E94BE000E94C3
:1004D0003102D093BA00C093B800DF91CF91089554
:1004E000CF92DF92EF92FF920F931F93CF93DF9300
:1004F000D0914D0281E0D13208F09CC0C0914C02F5
:100500000E940A016B017C018091240281116CC060
:1005100082E08093240281E0809323028FEF809316
:10052000220210922102D0932002ACE2B2E0E0E07D
:10053000F2E080E0D8138DC01092FF018091FF019E
:10054000CC0FC82BC093FF018091FE01813009F0D0
:1005500084C01092FE010E940A016B017C0180910F
:10056000FF018093BB008091260290912702A09109
:100570002802B0912902892B8A2B8B2BA1F00E9493
:100580000A01009126021091270220912802309141
:1005900029026C197D098E099F090617170728077C
:1005A000390708F442C08091BC0083FDD8CF85ECA8
:1005B0008093BC000E940A016B017C01809124029F
:1005C000823009F44CC0809122028F3F09F469C047
:1005D00080912202803209F466C080912202803329
:1005E00009F463C084E026C080912602909127021E
:1005F000A0912802B0912902892B8A2B8B2B09F418
:1006000083CF0E940A0100912602109127022091B7
:100610002802309129026C197D098E099F0906175D
:1006200017072807390708F06FCF809125020E942D
:100630004F0285E010922B0210924D0210922A0276
:10064000DF91CF911F910F91FF90EF90DF90CF90AE
:1006500008959D9191938F5F6DCF85EEA9CF809185
:10066000260290912702A0912802B0912902892B9D
:100670008A2B8B2B09F4A2CF0E940A01009126023B
:100680001091270220912802309129026C197D09CE
:100690008E099F09061717072807390708F08ECF1C
:1006A000C4CF80E0C7CF82E0C5CF83E0C3CF089539
:1006B00008950895E091DD018091DC01E81730F4A0
:1006C000F0E0E252FE4F808190E008958FEF9FEFBF
:1006D00008959091DD018091DC012FEF3FEF981795
:1006E00048F4E92FF0E0E252FE4F208130E09F5FB6
:1006F0009093DD01C90108958091DC019091DD01A5
:10070000891B990B0895CF92DF92EF92FF920F937E
:100710001F93CF93DF937C01CB018A0120912A02A2
:10072000222389F0EB016B01C40ED51ECC15DD052B
:1007300069F06991D701ED91FC910190F081E02D74
:10074000C7010995F3CF642F0E940A02C801DF9107
:10075000CF911F910F91FF90EF90DF90CF90089570
:10076000CF93DF931F92CDB7DEB7698320912A0222
:100770002223F9F020914D02203258F021E030E0A0
:10078000FC013383228390E080E00F90DF91CF91D2
:10079000089580912B02E82FF0E0E45DFD4F9981F0
:1007A00090838F5F80932B0280934D0281E090E0D5
:1007B000ECCF61E0CE0101960E940A02F7CF682FCC
:1007C0008EE492E00C94B0030F931F93CF93DF93CA
:1007D000182FD0E0C0E28C2F0E9487000E94700288
:1007E000082F61E070E080E090E00E942F0101118D
:1007F00003C01D17D1F0DF5FCF5FC83261F7C8E3D8
:100800008C2F0E9487000E947002082F61E070E028
:1008100080E090E00E942F01011103C01D1729F014
:10082000DF5FCF5FC03461F7C0E08C2FDF91CF91E5
:100830001F910F910895CF93FC01C4A560FF02C0E2
:1008400086A1C82B61FF02C087A1C82B62FF02C02E
:1008500080A5C82B63FF02C081A5C82B413051057C
:1008600011F483A1C82B85A18C2B90E00E94DF039B
:100870006C2F8EE492E0CF910C94B003CF93DF9372
:10088000EC018AA5882349F19BA5662311F19130DB
:1008900011F58CA788A10E94870089A19AA10297CF
:1008A00021F489E090E00E94DF036CA58EE492E0E1
:1008B0000E94B0030E94700221E030E0811102C06A
:1008C00030E020E088279927821B930BDF91CF919E
:1008D00008959923F1F21CA6DDCF8DEF9FEFF6CF9F
:1008E0004F925F926F927F928F929F92AF92BF9240
:1008F000EF92FF921F93CF93DF93EC0188A188239F
:1009000009F459C089A19AA1892B09F454C0142F64
:100910007B014C8C5D8C6E8C7F8C888C998CAA8C26
:10092000BB8C8DE2881A9108A108B1080E940A01C7
:10093000681979098A099B09641575058605970563
:10094000A8F388A10E94870089A19AA1029721F4A7
:1009500089E090E00E94DF03612F70E084E07595EC
:1009600067958A95E1F7A701CE010E941B0482E0FA
:10097000E816F10431F0612F6F70A701CE010E94DB
:100980001B040E94700221E030E0811102C030E0BF
:1009900020E088279927821B930BDF91CF911F912D
:1009A000FF90EF90BF90AF909F908F907F906F904F
:1009B0005F904F9008958CEF9FEFEFCF8DEF9FEFFB
:1009C00008958DEF9FEF089590E080E008950895D9
:1009D000FB0101900020E9F73197AF01461B570B4F
:1009E0000C9491008F929F92AF92BF920F931F939E
:1009F000CF93DF93CDB7DEB7A1970FB6F894DEBFE4
:100A00000FBECDBF19A2423008F44AE08E010F5D3F
:100A10001F4F842E912CB12CA12CA50194010E9472
:100A20001710E62FB901CA01EA3004F5E05DD801DC
:100A3000EE938D01232B242B252B79F790E080E07A
:100A4000109729F0BD018AE592E00E94E804A19682
:100A50000FB6F894DEBF0FBECDBFDF91CF911F91CF
:100A60000F91BF90AF909F908F900895E95CDFCF7A
:100A7000CF92DF92EF92FF920F931F93CF93C82FE5
:100A80000E940A016B017C0180912402811164C0E3
:100A900081E080932402809323029FEF90932202AF
:100AA00010922102109220028093FF018091FF0199
:100AB000CC0FC82BC093FF018091FE01813009F05B
:100AC0007DC01092FE010E940A016B017C018091A1
:100AD000FF018093BB008091260290912702A09194
:100AE0002802B0912902892B8A2B8B2BA1F00E941E
:100AF0000A010091260210912702209128023091CC
:100B000029026C197D098E099F0906171707280706
:100B1000390708F442C08091BC0083FDD8CF85EC32
:100B20008093BC000E940A016B017C018091240229
:100B3000813009F445C080912102811163C0809108
:100B40002102E0E0F2E0AEEDB1E090E0981751F163
:100B500021912D939F5FFACF8091260290912702D9
:100B6000A0912802B0912902892B8A2B8B2B09F4A2
:100B70008BCF0E940A01009126021091270220913A
:100B80002802309129026C197D098E099F090617E8
:100B900017072807390708F077CF809125020E94B0
:100BA0004F0280E01092DD018093DC01CF911F9114
:100BB0000F91FF90EF90DF90CF90089585EEB0CF2A
:100BC0008091260290912702A0912802B0912902DB
:100BD000892B8A2B8B2B09F4A9CF0E940A01009143
:100BE00026021091270220912802309129026C19C7
:100BF0007D098E099F09061717072807390708F08E
:100C000095CFCBCF81E09DCF4F925F926F927F9235
:100C10008F929F92AF92BF92EF92FF920F931F938A
:100C2000CF93DF93EC011CA588A1882309F4E1C0D0
:100C300089A19AA1009709F4DCC0029709F4DCC0ED
:100C40008CA1882309F4D8C07B014C8C5D8C6E8C00
:100C50007F8C888C998CAA8CBB8C8DE2881A910829
:100C6000A108B1080E940A01681979098A099B093B
:100C70006415750586059705A8F38EA1182B8FA11D
:100C8000182B88A5182B89A5182BEA94EF2811F4A6
:100C90008BA1182B8CA1182B88A10E948700612F93
:100CA0008EE492E00E94B0030E947002882301F15A
:100CB0000FEF1FEF88A10E9487006CA58EE492E0E1
:100CC0000E94B0030E947002882311F00FEF1FEF03
:100CD000C801DF91CF911F910F91FF90EF90BF90CE
:100CE000AF909F908F907F906F905F904F900895FE
:100CF00088A10E9487008DA1812B90E00E94DF03D4
:100D00000E9470028111D4CF88A190E00E94380522
:100D10008EE492E00E9469037C0197FDC9CF88A10F
:100D20000E948700612F8EE492E00E94B0030E942F
:100D30007002082F8111BCCF8EA190E08E219F21DF
:100D4000892B09F000E18FA190E08E219F21892B52
:100D500009F0006288A590E08E219F21892B09F07F
:100D6000006489A590E08E219F21892B09F00068FD
:100D700088A10E9487008DA1812B90E00E94DF0353
:100D80000E947002811194CF88A190E00E943805E2
:100D90008EE492E00E9469037C0197FD89CF88A1CF
:100DA0000E948700612F8EE492E00E94B0030E94AF
:100DB000700281117DCF8EA190E08E219F21892B21
:100DC00009F001608FA190E08E219F21892B09F00D
:100DD000026088A590E08E219F21892B09F0046094
:100DE00089A590E08E219F21892B09F0086010E0F1
:100DF00061CF0CEF1FEF6CCF0DEF1FEF69CF0F939B
:100E00001F93CF93DF93EC011092DD011092DC0170
:100E100010922B0210924D020E94310287E593E05E
:100E20009093AD018093AC0188E593E09093B1017C
:100E30008093B00188A181117EC080918A0191E0E8
:100E4000980F90938A010E94E40388A388A18111DE
:100E500009C080918A0191E0980F90938A010E94C5
:100E6000E40388A318A1112309F46CC089A19AA1F5
:100E7000892B09F021C1812F0E94870060E08EE458
:100E800092E00E94B0036FEF8EE492E00E94B00304
:100E90000E947002812F0E94870060E08EE492E041
:100EA0000E94B0030E947002812F90E00E943805DA
:100EB0008EE492E00E9469038F3F910509F049C0DA
:100EC00082E090E09AA389A388A10E94870060E055
:100ED0008EE492E00E94B0038FEF90E00E94DF0367
:100EE0000E94700288A10E94870086E090E00E9424
:100EF000DF038FE790E00E94DF030E94700288A169
:100F00000E94870089E090E00E94DF030E94700247
:100F100088A190E00E9438058EE492E00E94690367
:100F20008F3709F002C127E036E045E054E063E086
:100F300072E0E1E005C10E9487000E9470028823F0
:100F400009F484CF8CEF9FEFDF91CF911F910F9128
:100F50000895892B29F01AA219A28FEF9FEFF4CFE1
:100F600081E090E09AA389A388A10E9487006FEF97
:100F70008EE492E00E94B0030E94700288A190E08B
:100F80000E9438058EE492E00E9469038C0188A1DA
:100F90000E9487006BEF8EE492E00E94B0030E94F3
:100FA000700288A190E00E9438058EE492E00E94D1
:100FB00069039801277033272730310509F04DC0A8
:100FC000807F9927803F910509F047C083E01695FF
:100FD00007958A95E1F761E00627017043E057E045
:100FE00066E075E0E4E022E0F1E030E081E090E0EE
:100FF000DC0101C0AA0F3A95EAF7ABA3DC0101C0FE
:10100000AA0FFA95EAF7ACA3DC0102C0AA0FBB1F36
:101010002A95E2F7ADA39C0101C0220FEA95EAF7F9
:101020002EA39C0101C0220F7A95EAF72FA39C0101
:1010300001C0220F6A95EAF728A79C0101C0220F80
:101040005A95EAF729A701C0880F4A95EAF78AA7B7
:101050000BA7013081F58CA72FC0C8018077992795
:101060008037910519F08DEF9FEF6ECF88A10E9418
:1010700087006FEE8EE492E00E94B0030E9470023F
:1010800088A190E00E9438058EE492E00E946903F6
:101090008F70992726E034E00F9711F424E036E0B2
:1010A0000095001F0027001F47E053E062E071E059
:1010B000E0E0F5E09BCF1CA688A10E94870089A1F3
:1010C0009AA1029701F585E090E00E94DF0380E29B
:1010D00090E00E94DF030E94700288A10E948700B6
:1010E00060E08EE492E00E94B00360E08EE492E063
:1010F0000E94B0030E94700288A10E94870089E0CC
:1011000090E00E94DF0360E08EE492E00E94B00372
:101110000E94700221E030E0811102C030E020E046
:1011200088279927821B930B0FCF86FF3BC081FD39
:101130009ACF21E032E043E054E065E076E0E7E07A
:1011400081E090E0DC0102C0AA0FBB1FEA95E2F744
:10115000ABA31CA2FC0101C0EE0F7A95EAF7EDA348
:10116000FC0102C0EE0FFF1F6A95E2F7EEA3BC017F
:1011700001C0660F5A95EAF76FA3BC0102C0660F63
:10118000771F4A95E2F768A7AC0101C0440F3A9572
:10119000EAF749A701C0880F2A95EAF78AA791E0E4
:1011A0009BA759CF26E033E042E051E060E077E0D2
:1011B000E4E0C6CF0E942112EF92FF920F931F939B
:1011C000CF93DF93EC017B018A018881998100979D
:1011D00029F02A813B812417350788F4B8016F5F15
:1011E0007F4F0E946411009791F0998388831B833D
:1011F0000A832C813D81232B11F4FC0110821D8375
:101200000C83B701888199810E942F120CC08881BC
:101210009981009711F00E94DB10198218821D82BB
:101220001C821B821A82CE01DF91CF911F910F91F8
:10123000FF90EF90089585ED8093BC008091260289
:1012400090912702A0912802B09129020796A11D32
:10125000B11D23E0B695A795979587952A95D1F767
:101260002091BC0024FD03C01092240208954091F7
:101270002602509127026091280270912902452B85
:10128000462B472B69F30097A105B10541F025E3F3
:101290002A95F1F700000197A109B109E1CF8091EA
:1012A00025020C944F021F920F920FB60F92112439
:1012B0002F933F938F939F93AF93BF938091D401CC
:1012C0009091D501A091D601B091D7013091D30171
:1012D00023E0230F2D3758F50196A11DB11D209352
:1012E000D3018093D4019093D501A093D601B093FC
:1012F000D7018091D8019091D901A091DA01B091E4
:10130000DB010196A11DB11D8093D8019093D901F5
:10131000A093DA01B093DB01BF91AF919F918F91C0
:101320003F912F910F900FBE0F901F90189526E8B8
:10133000230F0296A11DB11DD2CF1F920F920FB69F
:101340000F9211242F933F934F935F936F937F934B
:101350008F939F93AF93BF93EF93FF938091B900C7
:10136000887F803609F44AC0F0F5883209F4A7C0B6
:1013700018F5803109F49BC0B8F4882309F4F9C04A
:10138000883009F494C0FF91EF91BF91AF919F9184
:101390008F917F916F915F914F913F912F910F901E
:1013A0000FBE0F901F901895883109F488C08032C5
:1013B00051F78093220214C0803409F49DC040F498
:1013C0008033B9F38833F9F68093220285ECB0C0FC
:1013D000803509F485C0883509F496C0883499F6BB
:1013E0000E941B09D0CF883909F48CC038F58837A2
:1013F00029F050F4883611F0803729F683E0809385
:1014000024021092D20157C0883809F47BC0803979
:1014100019F0803809F0B7CF8091D201803208F0FE
:1014200071C0E091D20181E08E0F8093D201809152
:10143000BB00F0E0EE54FE4F80833DC0803B39F0AE
:10144000E0F4803A09F479C0883A09F09CCF84E04E
:10145000809324021092AF011092AE01E091AC0192
:10146000F091AD0109958091AE0181110FC081E02D
:101470008093AE0110928C0109C0803C09F4A6CF84
:10148000883C09F4A3CF883B09F07DCFE091AF0100
:1014900081E08E0F8093AF01F0E0E457FE4F808132
:1014A0008093BB009091AF018091AE0129C08091E3
:1014B000FF018093BB0085EC8093BC0064CF9091CA
:1014C000210280912002981758F5E091210281E0D5
:1014D0008E0F80932102F0E0E050FE4F8081E9CF33
:1014E000E091210281E08E0F809321028091BB0068
:1014F000F0E0E050FE4F8083909121028091200225
:101500009817C8F285E8D8CFE091210281E08E0FCC
:10151000809321028091BB00F0E0E050FE4F808379
:101520008091230281115CCF81E08093FE0184EAE7
:101530008093BC001092240226CF85EC8093BC00DF
:10154000109224028091D201803230F4E091D201D5
:10155000F0E0EE54FE4F10826091D20170E0E09115
:10156000B001F091B10182EB91E009951092D201A6
:101570000ACF1092220234CFCF93DF93EEE4F2E051
:101580001382128288EE93E0A0E0B0E0848395831A
:10159000A683B7838AE091E091838083CAE5D2E095
:1015A0001B821A828CE191E0998388831F821886BE
:1015B00080ED97E0A0E0B0E0888B998BAA8BBB8B85
:1015C00086E290E0A0E0B0E08C8B9D8BAE8BBF8B71
:1015D0001C861D861E861F861B860E940A01688F38
:1015E000798F8A8F9B8F1C8E1D8E1E8E1F8E82E39D
:1015F00091E09983888382E090E09AA389A380E2B6
:1016000088A390E89BA31CA290E49DA38EA380E1F5
:101610008FA388E088A784E089A782E08AA791E069
:101620009BA78CA7DF91CF910895CF93DF93CDB780
:10163000DEB7E9970FB6F894DEBF0FBECDBF789442
:1016400084B5826084BD84B5816084BD85B58260C7
:1016500085BD85B5816085BD80916E008160809378
:101660006E001092810080918100826080938100E1
:1016700080918100816080938100809180008160F1
:10168000809380008091B10084608093B10080914C
:10169000B00081608093B00080917A008460809374
:1016A0007A0080917A00826080937A0080917A003B
:1016B000816080937A0080917A00806880937A00BC
:1016C0001092C1008091660281110CC08091670266
:1016D000811108C080916802811104C08091690263
:1016E000882321F0809161028F7E59F0109266026A
:1016F00080E48093670280E18093680280E58093B4
:10170000690282E08093620280E18093610264E674
:1017100070E080E090E00E942F0110925E028AE566
:1017200092E00E94FF06892B09F05CC08091620262
:10173000823028F080915E02886080935E0240E3F0
:1017400062E070E08AE592E00E94700465E070E07B
:1017500080E090E00E942F0140E362E070E08AE5C3
:1017600092E00E94700461E070E080E090E00E94EE
:101770002F0140E362E070E08AE592E00E9470048D
:1017800061E070E080E090E00E942F0180915E02B5
:1017900084FD07C040E262E070E08AE592E00E94CA
:1017A000700460915E0260628AE592E00E946101CD
:1017B00084E080935F026CE08AE592E00E94610120
:1017C00061E08AE592E00E94610182E0809360021C
:1017D00066E08AE592E00E9461016FEF8AE592E09F
:1017E0000E943E0480915C0290915D029C838B83F9
:1017F00080915E028D8380915F028E838091600272
:101800008F838091610288878091620289878091AD
:1018100063028A87809164028B87809165028C873E
:101820008091660290916702A0916802B09169026E
:101830008D879E87AF87B88B80916A0290916B02EB
:10184000A0916C02B0916D02898B9A8BAB8BBC8B93
:1018500080916E0290916F02A0917002B09171021E
:101860008D8B9E8BAF8BB88F80917202909173029B
:10187000A0917402B0917502898F9A8FAB8FBC8F43
:101880008091760290917702A0917802B0917902CE
:101890008D8F9E8FAF8FB8A382E391E09A83898367
:1018A00080917A0289A380917B0290917C029BA314
:1018B0008AA380917D028CA380917E028DA380916A
:1018C0007F028EA3809180028FA38091810288A7DE
:1018D0008091820289A7809183028AA780918402E5
:1018E0008BA7809185028CA7809186028DA71DAA67
:1018F0001CAA1FAA1EAA19AE18AE4FE050E064E45D
:1019000071E0CE01C4960E94DC081FA61EA619AA8B
:1019100018AA1BAA1AAA46E050E064E571E0CE01BD
:101920008E960E94DC0861E0CE0101960E94610162
:1019300060E0CE0101960E9499016BE571E0CE0155
:1019400001960E94E80461E0CE0101960E9499018F
:1019500010E000E070E1E72EF12C88AD99AD970121
:10196000281B390BC901969587950817190748F464
:101970006BE771E0CE0101960E94E8040F5F1F4FF4
:10198000ECCF64E471E0CE0101960E94E80464ECBF
:1019900079E080E090E00E942F0161E0CE010196A5
:1019A0000E9499016CE671E0CE0101960E94E80464
:1019B00061E0CE0101960E94990110E000E050E143
:1019C000E52EF12C8AA99BA9F701E81BF90BCF01A1
:1019D000969587950817190748F46BE771E0CE01D3
:1019E00001960E94E8040F5F1F4FECCF64E571E0A1
:1019F000CE0101960E94E80464EC79E080E090E07A
:101A00000E942F0161E0CE0101960E94610164E60F
:101A100070E080E090E00E942F018EA59FA50097C6
:101A200011F00E94DB108CA99DA9009711F00E9473
:101A3000DB10E4EBF0E02491E0EAF0E0849188230D
:101A4000C9F090E0880F991FFC01EA57FF4F4591BC
:101A50005491FC01E458FF4FA591B4919FB7F894BD
:101A6000FA0180812095822380838C91E22FE823E4
:101A7000EC939FBF82E4382E00E010E060E08AE53E
:101A800092E00E94990130927C0080917A008064FB
:101A900080937A0080917A0086FDFCCF8091780057
:101AA00060917900762F682F072E000C880B990B18
:101AB0000E941D0E20E030E040E05EE30E947C0EBC
:101AC00020E030E040EB51E40E94710F6B017C019B
:101AD0002B013C01AC019B010E9412106DE771E0EB
:101AE00081111AC046015701E894B7F82FEF3FEF74
:101AF0004FE75FE7C501B4010E94121081111DC0BC
:101B00002FEF3FEF4FE75FE7C501B4010E94160ECC
:101B100018169CF461E871E08AE592E00E94E804FE
:101B200064EF71E080E090E00E942F010115110543
:101B300009F4A4CF0E940000A1CF2FEF3FEF4FE7A1
:101B40005FE4C701B6010E940D1018161CF465E889
:101B500071E0E2CF2FEF3FEF4FE75FECC701B60137
:101B60000E94160E87FDF3CF20E030E0A901C701E7
:101B7000B6010E94160E87FF0BC06DE28AE592E067
:101B80000E94C0012601370177FA709477F87094AB
:101B90002AE037ED43EA5BE3C301B2010E94720F12
:101BA0002B013C010E94DE0F6B017C010E941B0E89
:101BB0009B01AC01C301B2010E94710F2B013C01DA
:101BC0004AE0C701B6010E94F2046EE28AE592E0A3
:101BD0000E94C00120E030E040E251E4C301B201C4
:101BE0000E947C0E2B013C010E94DE0F6B01F12C48
:101BF000E12C4AE0C701B6010E94F204C701B60118
:101C00000E941B0E9B01AC01C301B2010E94710F27
:101C100020E030E040E251E40E947C0E0E94DE0FA2
:101C200090E080E04AE00E94F2047ACF0E94580ED1
:101C300008F481E00895E89409C097FB3EF490957C
:101C40008095709561957F4F8F4F9F4F9923A9F095
:101C5000F92F96E9BB279395F69587957795679524
:101C6000B795F111F8CFFAF4BB0F11F460FF1BC068
:101C70006F5F7F4F8F4F9F4F16C0882311F096E9FB
:101C800011C0772321F09EE8872F762F05C06623A9
:101C900071F096E8862F70E060E02AF09A95660F62
:101CA000771F881FDAF7880F9695879597F908951B
:101CB000990F0008550FAA0BE0E8FEEF161617065D
:101CC000E807F907C0F012161306E407F50798F0C5
:101CD000621B730B840B950B39F40A2661F0232BDE
:101CE000242B252B21F408950A2609F4A140A6955A
:101CF0008FEF811D811D08950E948F0E0C94000F9F
:101D00000E94F20E38F00E94F90E20F0952311F097
:101D10000C94E90E0C94EF0E11240C94340F0E94D5
:101D2000110F70F3959FC1F3950F50E0551F629FFF
:101D3000F001729FBB27F00DB11D639FAA27F00D24
:101D4000B11DAA1F649F6627B00DA11D661F829F4B
:101D50002227B00DA11D621F739FB00DA11D621F30
:101D6000839FA00D611D221F749F3327A00D611D4D
:101D7000231F849F600D211D822F762F6A2F11242F
:101D80009F5750409AF0F1F088234AF0EE0FFF1F62
:101D9000BB1F661F771F881F91505040A9F79E3FB9
:101DA000510580F00C94E90E0C94340F5F3FE4F37E
:101DB000983ED4F3869577956795B795F795E7950F
:101DC0009F5FC1F7FE2B880F911D9695879597F918
:101DD000089597F99F6780E870E060E008959FEFAD
:101DE00080EC089500240A941616170618060906B2
:101DF000089500240A941216130614060506089581
:101E0000092E0394000C11F4882352F0BB0F40F408
:101E1000BF2B11F460FF04C06F5F7F4F8F4F9F4F48
:101E2000089557FD9058440F551F59F05F3F71F0CA
:101E30004795880F97FB991F61F09F3F79F0879531
:101E40000895121613061406551FF2CF4695F1DFBA
:101E500008C0161617061806991FF1CF869571054A
:101E6000610508940895E894BB2766277727CB017E
:101E700097F908952F923F924F925F926F927F92BF
:101E80008F929F92AF92BF92CF92DF92EF92FF928A
:101E90000F931F93CF93DF93CDB7DEB7CA1BDB0B36
:101EA0000FB6F894DEBF0FBECDBF09942A883988DB
:101EB00048885F846E847D848C849B84AA84B984E2
:101EC000C884DF80EE80FD800C811B81AA81B981EE
:101ED000CE0FD11D0FB6F894DEBF0FBECDBFED0102
:101EE00008955058BB27AA270E94890F0C94000F11
:101EF0000E94F20E38F00E94F90E20F039F49F3F54
:101F000019F426F40C94EF0E0EF4E095E7FB0C9414
:101F1000E90EE92F0E94110F58F3BA1762077307F1
:101F20008407950720F079F4A6F50C94330F0EF48E
:101F3000E0950B2EBA2FA02D0B01B90190010C01D9
:101F4000CA01A0011124FF27591B99F0593F50F4F1
:101F5000503E68F11A16F040A22F232F342F442749
:101F6000585FF3CF469537952795A795F040539541
:101F7000C9F77EF41F16BA0B620B730B840BBAF011
:101F80009150A1F0FF0FBB1F661F771F881FC2F77C
:101F90000EC0BA0F621F731F841F48F48795779590
:101FA0006795B795F7959E3F08F0B0CF9395880F4A
:101FB00008F09927EE0F9795879508950E94190FBD
:101FC00088F09F5798F0B92F9927B751B0F0E1F0FA
:101FD000660F771F881F991F1AF0BA95C9F714C0AA
:101FE000B13091F00E94330FB1E008950C94330F9B
:101FF000672F782F8827B85F39F0B93FCCF38695E3
:1020000077956795B395D9F73EF49095809570953F
:1020100061957F4F8F4F9F4F08950E94580E08F48F
:102020008FEF08950E94580E880B990B0895A1E236
:102030001A2EAA1BBB1BFD010DC0AA1FBB1FEE1F42
:10204000FF1FA217B307E407F50720F0A21BB30B8D
:10205000E40BF50B661F771F881F991F1A9469F709
:1020600060957095809590959B01AC01BD01CF0165
:102070000895EE0FFF1F0590F491E02D09940F9342
:102080001F93CF93DF938230910510F482E090E0AC
:10209000E0918902F0918A0230E020E0B0E0A0E017
:1020A000309799F42115310509F44AC0281B390BE2
:1020B00024303105D8F58A819B816115710589F13C
:1020C000FB0193838283FE0111C040815181028113
:1020D000138148175907E0F04817590799F41097EA
:1020E00061F012960C93129713961C933296CF01BF
:1020F000DF91CF911F910F91089500938902109362
:102100008A02F4CF2115310551F04217530738F0F8
:10211000A901DB019A01BD01DF01F801C1CFEF0187
:10212000F9CF90938A0280938902CDCFFE01E20F0E
:10213000F31F819391932250310939832883D7CF9C
:102140002091870230918802232B41F420910201D3
:10215000309103013093880220938702209100017F
:10216000309101012115310541F42DB73EB7409161
:10217000040150910501241B350BE0918702F09179
:102180008802E217F307A0F42E1B3F0B281739072C
:1021900078F0AC014E5F5F4F2417350748F04E0FC3
:1021A0005F1F5093880240938702819391939FCF42
:1021B000F0E0E0E09CCFCF93DF930097E9F0FC01E3
:1021C000329713821282A0918902B0918A02ED01A6
:1021D00030E020E01097A1F420813181820F931F1D
:1021E00020918702309188022817390709F061C0D1
:1021F000F0938802E0938702DF91CF910895EA017E
:10220000CE17DF07E8F54A815B819E014115510534
:10221000B1F7E901FB83EA8349915991C40FD51FB6
:10222000EC17FD0761F4808191810296840F951F60
:10223000E90199838883828193819B838A83F0E07B
:10224000E0E012968D919C9113970097B9F52D912E
:102250003C911197CD010296820F931F2091870226
:10226000309188022817390739F6309751F51092C6
:102270008A0210928902B0938802A0938702BCCF91
:10228000D383C28340815181840F951FC817D9071A
:1022900061F44E5F5F4F88819981480F591F5183C8
:1022A00040838A819B81938382832115310509F0C4
:1022B000B0CFF0938A02E09389029ECFFD01DC014A
:1022C000C0CF13821282D7CFB0E0A0E0EAE6F1E1FE
:1022D0000C943C0F8C01009751F4CB010E943F10ED
:1022E0008C01C801CDB7DEB7E0E10C94580FFC01BA
:1022F000E60FF71F9C0122503109E217F30708F49B
:102300009DC0D901CD91DC911197C617D70798F0E0
:10231000C530D10530F3CE0104978617970708F32F
:10232000C61BD70B2297C193D1936D937C93CF019A
:102330000E94DB10D6CF5B01AC1ABD0A4C018C0E9B
:102340009D1EA0918902B0918A02512C412CF12C42
:10235000E12C109731F580918702909188028815C1
:10236000990509F05CC04616570608F058C08091E0
:10237000000190910101009741F48DB79EB7409103
:10238000040150910501841B950BE817F90708F02B
:1023900055C0F0938802E0938702F901718360834E
:1023A000A0CF8D919C91119712966C9012971396D5
:1023B0007C901397A815B90559F56C0142E0C40E3D
:1023C000D11CCA14DB0420F1AC014A195B09DA0103
:1023D0001296159780F06282738251834083D901EF
:1023E0006D937C93E114F10471F0D7011396FC9383
:1023F000EE93129776CF22968C0F9D1FF901918351
:102400008083F301EFCFF0938A02E093890269CFD2
:102410004816590608F42C017D01D3019ACFCB014F
:102420000E943F107C01009749F0AE01B8010E9464
:102430002612C8010E94DB10870153CF10E000E094
:1024400050CF81E090E0F8940C943612FB01DC014F
:1024500002C001900D9241505040D8F70895FB0101
:10246000DC0101900D920020E1F70895F894FFCF70
:1024700000008B02800000000000B0038303E4042E
:1024800059037C0369035A0300000000C001910056
:10249000E404E704E404E104DA08DE04DE040000F6
:1024A0000000C0019100E404E704FF060406700484
:1024B0003E04DE04546865726D6F6D657465722D3F
:1024C0004C63640076302E312E3000544D456564E7
:1024D00075636174696F6E2E636F6D00202020201C
:1024E000202020202020202020202020006E616E2F
:0A24F00000696E66006F766600005A
:00000001FF
