:100000000C9447050C946F050C946F050C94CB1E53
:100010000C94CB1E0C94CB1E0C946F050C946F05A6
:100020000C946F050C946F050C946F050C946F0580
:100030000C946F050C946F050C946F050C946F0570
:100040000C94621D0C946F050C94301D0C940A1DC9
:100050000C946F050C946F050C946F050C946F0550
:100060000C94AC1D0C946F0500000000003E5B4F2B
:100070005B3E3E6B4F6B3E1C3E7C3E1C183C7E3C08
:10008000181C577D571C1C5E7F5E1C00183C180016
:10009000FFE7C3E7FF0018241800FFE7DBE7FF30A6
:1000A000483A060E2629792926407F050507407F14
:1000B00005253F5A3CE73C5A7F3E1C1C08081C1C87
:1000C0003E7F14227F22145F5F005F5F06097F017D
:1000D0007F006689956A606060606094A2FFA29468
:1000E00008047E040810207E201008082A1C080836
:1000F0001C2A08081E101010100C1E0C1E0C303884
:100100003E3830060E3E0E06000000000000005F84
:1001100000000007000700147F147F14242A7F2AA0
:100120001223130864623649562050000807030062
:10013000001C2241000041221C002A1C7F1C2A08AE
:10014000083E080800807030000808080808000011
:1001500060600020100804023E5149453E00427F85
:10016000400072494949462141494D331814127FD4
:100170001027454545393C4A494931412111090774
:100180003649494936464949291E000014000000F5
:1001900040340000000814224114141414140041C7
:1001A00022140802015909063E415D594E7C121184
:1001B000127C7F494949363E414141227F414141BC
:1001C0003E7F494949417F090909013E4141517337
:1001D0007F0808087F00417F41002040413F017FA8
:1001E000081422417F404040407F021C027F7F0470
:1001F00008107F3E4141413E7F090909063E4151B9
:10020000215E7F09192946264949493203017F01A8
:10021000033F4040403F1F2040201F3F4038403FA9
:10022000631408146303047804036159494D4300BF
:100230007F4141410204081020004141417F0402F6
:10024000010204404040404000030708002054548D
:1002500078407F284444383844444428384444286B
:100260007F385454541800087E090218A4A49C78BE
:100270007F0804047800447D40002040403D007F1A
:100280001028440000417F40007C047804787C08FA
:100290000404783844444438FC18242418182424CE
:1002A00018FC7C08040408485454542404043F44B3
:1002B000243C4040207C1C2040201C3C4030403CE2
:1002C00044281028444C9090907C4464544C440042
:1002D00008364100000077000000413608000201A6
:1002E0000204023C2623263C1EA1A161123A404092
:1002F000207A38545455592155557941225454780F
:1003000042215554784020545579400C1E527212A7
:100310003955555559395454545939555454580030
:1003200000457C410002457D420001457C407D1234
:1003300011127DF0282528F07C5455450020545496
:100340007C547C0A097F4932494949323A44444441
:100350003A324A4848303A4141217A3A424020787C
:10036000009DA0A07D3D4242423D3D4040403D3C7D
:1003700024FF2424487E4943662B2FFC2F2BFF09A2
:1003800029F620C0887E0903205454794100004496
:100390007D413048484A32384040227A007A0A0A81
:1003A000727D0D19317D2629292F282629292926F4
:1003B00030484D4020380808080808080808382F39
:1003C00010C8ACBA2F102834FA00007B00000814C3
:1003D0002A142222142A14085500550055AA55AA99
:1003E00055AAFF55FF55FF000000FF00101010FF39
:1003F00000141414FF001010FF00FF1010F010F094
:10040000141414FC001414F700FF0000FF00FF1484
:1004100014F404FC141417101F10101F101F1414D0
:10042000141F00101010F0000000001F101010101A
:100430001F10101010F010000000FF10101010100E
:1004400010101010FF10000000FF140000FF00FF4C
:1004500000001F10170000FC04F4141417101714E8
:1004600014F404F40000FF00F7141414141414140A
:10047000F700F7141414171410101F101F1414147D
:10048000F4141010F010F000001F101F0000001FE7
:1004900014000000FC140000F010F01010FF10FF1A
:1004A000141414FF141010101F00000000F010FFAF
:1004B000FFFFFFFFF0F0F0F0F0FFFFFF0000000093
:1004C00000FFFF0F0F0F0F0F3844443844FC4A4A17
:1004D0004A347E02020606027E027E0263554941CC
:1004E000633844443C04407E201E2006027E020203
:1004F00099A5E7A5991C2A492A1C4C7201724C3017
:100500004A4D4D303048784830BC625A463D3E49ED
:100510004949007E0101017E2A2A2A2A2A44445F91
:10052000444440514A444040444A51400000FF0185
:1005300003E080FF000008086B6B08361236243693
:10054000060F090F060000181800000010100030F8
:1005500040FF0101001F01011E00191D1712003C80
:100560003C3C3C0000000000000103070F1F3F7FE0
:100570000080C0E0F0F8FCFE000000002300260030
:100580002900000000080002010000030407000029
:1005900000000000000000000000240027002A00E6
:1005A000DB40A4A62EAF2000A1C8D300408DAED55D
:1005B00080A80000600000000000000000000000B3
:1005C000000000E00000000000000000000000004B
:1005D0000001E0000000000000000000000000003A
:1005E00001F0000000000000000000000000000317
:1005F000F00000000000000000000000000007F014
:100600000000000000000000000000000007F800EB
:100610000000000000000000000000000FF80000D3
:100620000003C0007E000001E0007F0FF800000022
:1006300003C000FE000001E000FFEFF8000000032F
:10064000C000FE000001E000FFFFF800000003C052
:1006500000F00000000F007FFE7FC0000003C0001C
:10066000F00000000F003FFE7FF83FF1FBCFFCFEE3
:10067000F3BC3DEFE01FFE7FFF7FFBFFDFFEFEFFD1
:10068000BC3DEFE01FC6FFFF7FFBFFDFFEFEFFBCB0
:100690003DEFE00FE3C7FE787BC3DE1EF0FFBC3DFD
:1006A000EF0007FF87FC787BC3DE1EF0F83C3DEFD0
:1006B0000001FFFFF0007BC3C01EF0F03C3DEF00E7
:1006C00001F37FE03FFBC3CFFEF0F03C3DEF0003C2
:1006D000E33F807FFBC3DFFEF0F03C3DEF0007E728
:1006E0003C00787BC3DE1EF0F03C3DEF0007FFBE10
:1006F00000787BC3DE1EF0F03C3DEF0007FFFE00FC
:10070000787BC3DE1EF0F03C3DEF000FFFFE007F64
:10071000FBFFDFFEF0F03FFDEFE00FFFFF007FFB90
:10072000FFDFFEF0F03FFDEFE00FF9FF003E79F94B
:10073000CF9EF0F01F3DE7E01FF1FF00000000003A
:10074000000000000000001F80FF007FFFFFFFFF90
:10075000FFFFFFFFFFE01C007F007FFFFFFFFEB4F5
:100760006D888D18E000001F007FFFFFFFFE95AD34
:100770007DB577E000000F007FFFFFFFFEA5AD9D78
:100780008D19E0000006007FFFFFFFFEB5ADEDB55F
:100790007EE000000000000180000000000000007A
:1007A0000000038000000000000000000007C000FF
:1007B000000000000000000007C000000000000072
:1007C0000000000FC00000000000000000001FE05B
:1007D0000000000000000000001FE000000000001A
:1007E000000000003FE00000000000000000003FAB
:1007F000F00000000000000000007FF0000000009A
:100800000000001FF87FF0000000000000003FFE25
:100810007FF0000000000000003FFF7FF0000000BC
:10082000000000001FFFFBE0000000000000000FC0
:10083000FFF9FFC00000000000000FFFF9FFF80003
:10084000000000000007FFF1FFFF000000000000B3
:1008500003FC73FFFF80000000000001FE3FFFFF6C
:1008600080000000000000FF1E0FFF0000000000DD
:1008700000007FFE1FFC000000000000003FFFFFA3
:10088000F8000000000000000FDFFFE000000000A3
:100890000000001F19FFC0000000000000003F3CE6
:1008A000FF00000000000000007E7CF80000000057
:1008B000000000007FFE7C0000000000000000FF40
:1008C000FFFC0000000000000000FFFFFE00000031
:1008D0000000000000FFFFFE00000000000000011B
:1008E000FFEFFE0000000000000001FFCFFE00004F
:1008F000000000000003FF07FE00000000000000F1
:1009000003FC07FE0000000000000003F003FE00EF
:10091000000000000000018000FE00000000000058
:10092000000000007E000000000000000000003E0B
:10093000000000000000000000000C0000000000AB
:1009400000078000FC000003C0000000078001FCDD
:10095000000003C0000000078001FC000003C0008D
:100960000000078001E00000001E00000007800179
:10097000E00000001E007FE3F79FF9FDE7787BDFD2
:10098000C0FFF7FFBFFDFDFF787BDFC0FFF7FFBFB4
:10099000FDFDFF787BDFC0F0F787BC3DE1FF787B92
:1009A000DE00F0F787BC3DE1F0787BDE0000F787E2
:1009B000803DE1E0787BDE007FF7879FFDE1E07816
:1009C0007BDE00FFF787BFFDE1E0787BDE00F0F71C
:1009D00087BC3DE1E0787BDE00F0F787BC3DE1E0DD
:1009E000787BDE00F0F787BC3DE1E0787BDE00FF3E
:1009F000F7FFBFFDE1E07FFBDFC0FFF7FFBFFDE1D9
:100A0000E07FFBDFC07CF3F39F3DE1E03E7BCFC0A6
:100A10000000000000000000000000FFFFFFFFFFDB
:100A2000FFFFFFFFFFC0FFFFFFFFFD68DB111A3173
:100A3000C0FFFFFFFFFD2B5AFB6AEFC0FFFFFFFF68
:100A4000FD4B5B3B1A33C0FFFFFFFFFD6B5BDB6AB7
:100A5000FDC02200FF210001020408102040800197
:100A600002040810200102040810200000000025E4
:100A70000028002B000404040404040404020202FD
:100A800002020203030303030300D51E732811248B
:100A90001FBECFEFD8E0DEBFCDBF12E0A0E0B1E0D7
:100AA000EEE0F8E502C005900D92A031B107D9F74C
:100AB00024E0A0E1B2E001C01D92AF31B207E1F73E
:100AC00015E0C6E4D5E004C02197FE010E94C32AC8
:100AD000C534D107C9F70E9473200C94FA2B0C94EB
:100AE000000091E09093E0028093DF021092DE021A
:100AF0001092DD0208954F925F926F927F928F92D3
:100B00009F92AF92BF92FF922091BB033091BC03A2
:100B10008217930708F043C02B0166247724852EA3
:100B2000962EA72EBB24B82DA42F2091C103F42C00
:100B3000222391F0E22FF0E0E49DD001E59DB00D7D
:100B4000F49DB00D1124FB2E289D40011124B92DD8
:100B5000249F90011124A32FE091C7032091C20389
:100B60003091C3035091C403E51323C0FC01EE0F81
:100B7000FF1F8E0F9F1F820F931FE091C403E80F8A
:100B8000F92FF11DF082E091C503E80FF92FF11D57
:100B9000B0832091C603820F911DFC01A083FF90BA
:100BA000BF90AF909F908F907F906F905F904F908D
:100BB0000895880F991F880F991F820F931FE80FC0
:100BC000F92FF11D1082D9CF089508950895AF929D
:100BD000BF92CF92DF92EF92FF920F931F93CF932A
:100BE000DF936C017B018B01040F151FEB015E018C
:100BF000AE18BF08C017D10759F06991D601ED9121
:100C0000FC910190F081E02DC6010995892B79F7BF
:100C1000C501DF91CF911F910F91FF90EF90DF9071
:100C2000CF90BF90AF900895FC01538D448D252F38
:100C300030E0842F90E0821B930B541710F0CF9676
:100C4000089501970895FC01918D828D981761F0A8
:100C5000A28DAE0FBF2FB11D5D968C91928D9F5FBF
:100C60009F73928F90E008958FEF9FEF0895FC019E
:100C7000918D828D981731F0828DE80FF11D858D51
:100C800090E008958FEF9FEF0895FC01918D228DE4
:100C9000892F90E0805C9F4F821B91098F73992769
:100CA000089581EE92E00E94450621E0892B09F427
:100CB00020E0822F089580E090E0892B29F00E94A7
:100CC000510681110C9400000895FC01A48DA80F19
:100CD000B92FB11DA35ABF4F2C91848D90E001967E
:100CE0008F739927848FA689B7892C93A089B1899E
:100CF0008C91837080648C93938D848D981306C03F
:100D00000288F389E02D80818F7D80830895EF92A2
:100D1000FF920F931F93CF93DF93EC0181E0888FB5
:100D20009B8D8C8D98131AC0E889F989808185FF85
:100D300015C09FB7F894EE89FF896083E889F98927
:100D400080818370806480839FBF81E090E0DF9129
:100D5000CF911F910F91FF90EF900895F62E0B8D7C
:100D600010E00F5F1F4F0F731127E02E8C8D8E1137
:100D70000CC00FB607FCFACFE889F989808185FF9E
:100D8000F5CFCE010E946506F1CFEB8DEC0FFD2F64
:100D9000F11DE35AFF4FF0829FB7F8940B8FEA8959
:100DA000FB8980818062CFCFCF93DF93EC01888D68
:100DB0008823B9F0AA89BB89E889F9898C9185FDD6
:100DC00003C0808186FD0DC00FB607FCF7CF8C9164
:100DD00085FFF2CF808185FFEDCFCE010E946506B1
:100DE000E9CFDF91CF910895833081F028F48130ED
:100DF00099F08230A9F008958730A9F08830C9F0C1
:100E00008430B1F4809180008F7D03C08091800098
:100E10008F7780938000089584B58F7784BD08957F
:100E200084B58F7DFBCF8091B0008F778093B00029
:100E300008958091B0008F7DF9CFCF93DF93282F55
:100E400030E0F901EE57FA4F8491F901E95AF54F74
:100E5000D491F901EB58F54FC491CC23A1F0811145
:100E60000E94F406EC2FF0E0EE0FFF1FE858FA4F57
:100E7000A591B491EC91ED2381E090E009F480E03C
:100E8000DF91CF91089580E090E0FACF1F93CF9348
:100E9000DF93282F30E0F901EE57FA4F8491F901E2
:100EA000E95AF54FD491F901EB58F54FC491CC2391
:100EB000A9F0162F81110E94F406EC2FF0E0EE0F3E
:100EC000FF1FE559F54FA591B4918FB7F894EC91B8
:100ED000111108C0D095DE23DC938FBFDF91CF9135
:100EE0001F910895DE2BF8CFCF93DF9390E0FC01A4
:100EF000E95AF54F24918B58954FFC018491882332
:100F0000C9F090E0880F991FFC01EA56FA4FA591AD
:100F1000B491FC01E559F54FC591D49161110DC013
:100F20009FB7F8948C91209582238C9388812823F5
:100F300028839FBFDF91CF910895623051F49FB70E
:100F4000F8943C91822F809583238C93E8812E2BFB
:100F5000EFCF8FB7F894EC912E2B2C938FBFEACF65
:100F60008E3008F08E508770806480937C00809172
:100F70007A00806480937A0080917A0086FDFCCFAD
:100F8000809178009091790008953FB7F89480910E
:100F90007C0290917D02A0917E02B0917F0226B5E5
:100FA000A89B05C02F3F19F00196A11DB11D3FBFA1
:100FB000BA2FA92F982F8827BC01CD01620F711D70
:100FC000811D911D42E0660F771F881F991F4A956A
:100FD000D1F70895CF93DF93CBEAD3E081E0898303
:100FE00081E090E09B878A879D878C870E94C50758
:100FF0006A837B838C839D83DF91CF910895909149
:10100000AC03E92FF0E0EF5EFE4F208130E002C03C
:10101000359527958A95E2F72370921302C00C94B8
:10102000EA072093AC032230A1F48091B70390919A
:10103000B803880F991F9093B8038093B7038091EA
:10104000B5039091B60301969093B6038093B503D0
:1010500008952130E9F78091B7039091B803880F84
:10106000991F0196E8CFCF92DF92EF92FF920F93F4
:101070001F93CF93DF93CDB7DEB729970FB6F894C0
:10108000DEBF0FBECDBF8091C2039091C303892BF9
:1010900009F480C0C090C803D090C903E090CA038F
:1010A000F090CB030E94C5076C157D058E059F054A
:1010B00050F40E94C5076093C8037093C9038093DE
:1010C000CA039093CB030E94C5070091C8031091F7
:1010D000C9032091CA033091CB03601B710B820BB3
:1010E000930B6C32714081059105A0F2F8948091C8
:1010F000BD039091BE039A838983E091C203F0916E
:10110000C303DF011196808189879091B903E09133
:10111000CC03F091CD038091CE03992309F449C00B
:101120009081982B98879081809589238F838F81D8
:101130008C8388E08B8358856F8149853B812C8126
:1011400089819A81508347FD252F3A952083262F48
:1011500039F0441F00C000006083000000C0F2CFDF
:1011600038E04D9160830000019761F7F093CD0363
:10117000E093CC0349873B832C839A8389837894BB
:101180000E94C5076093C8037093C9038093CA0384
:101190009093CB0329960FB6F894DEBF0FBECDBF58
:1011A000DF91CF911F910F91FF90EF90DF90CF9043
:1011B00008959081982B98879081809589238F83BB
:1011C0008F818E8388E08D8358856F8149853D812D
:1011D0002E8189819A81508347FD252F00C000C050
:1011E000208300C000C000C000C000C060830000B9
:1011F000262F3A9541F0441F000000C000C000C0F7
:1012000000C000C0E8CF38E04D9100C0608300C04E
:10121000019709F7F093CD03E093CC0349873D8311
:101220002E83ABCF8F929F92AF92BF92CF92DF92DD
:10123000EF92FF924B015C010E94C5076B017C019C
:101240000E94C5076C197D098E099F09683E73408D
:1012500081059105A8F321E0821A9108A108B1083F
:1012600088EEC80E83E0D81EE11CF11C81149104A5
:10127000A104B10429F7FF90EF90DF90CF90BF90C9
:10128000AF909F908F900895EF92FF920F931F93CE
:10129000CF93DF93EC01EC80FD806E157F050CF0A1
:1012A00070C057FF04C0240F351F50E040E08E810E
:1012B0009F81FA01E20FF31F8E179F071CF49C0118
:1012C000241B350B121613060CF05BC0922F842FD3
:1012D0008695869586958E9DD0018F9DB00D1124A3
:1012E0006A0F7B1FAF8DB8A1A60FB71F477049F1DA
:1012F00088E0841B482F682F70E0FB01E059FA4F0B
:10130000E491281708F063C0621B71092FEF30E0E9
:1013100002C0359527956A95E2F7E2230130110561
:1013200039F0B0F10230110561F58C91E82702C067
:101330008C91E82BEC93941720F12C813D81A20F26
:10134000B31FE92FE41BE83078F00230110521F5D6
:101350008E2F9C9190959C932C813D81A20FB31F61
:1013600088508830B0F7E770EE2359F0F0E0E85984
:10137000FA4FE49101301105F9F010F10230110536
:1013800019F1DF91CF911F910F91FF90EF90089588
:10139000E0958C91E823CECF81E00115110509F489
:1013A00080E081959E2F8C932C813D81A20FB31FED
:1013B00098509830C0F7D7CF8C91E82BEC93E1CFC1
:1013C000E0958C91E823FACF8C91E827F7CF013094
:1013D000110509F4ADCFE0F20230110509F4A5CFF3
:1013E000AE0DBF1DAECF0F931F93CF93DF9377FF4B
:1013F00004C0260F371F70E060E0DC011496CD9129
:10140000DC91FB01E20FF31FCE17DF071CF49E01F6
:10141000261B370B121613064CF5FA0157FD3796AB
:10142000A3E0F595E795AA95E1F7EC9FD001ED9F34
:10143000B00DFC9FB00D11246A0F7B1FDC015F967D
:10144000ED91FC91E60FF71F4770552781E090E082
:1014500001C0880F4A95EAF7482F0130110559F06D
:10146000A8F02E0F3F1F02301105E1F0DF91CF9160
:101470001F910F9108952E0F3F1FE217F307B1F34D
:101480008191DF011197842B8C93F7CF80952E0FDC
:101490003F1FE217F30751F39191DF011197982352
:1014A0009C93F7CFE217F30709F38191DF011197BE
:1014B00084278C93F7CF0F931F93FA01DC01569684
:1014C0004C9156974230E9F04330A1F1413061F53B
:1014D00014964D915C91DA01AE1BBF0BFD01E21B2E
:1014E000F30B77FD0BC0DC0116964D915C916417F0
:1014F000750724F4AB01BF010E94F3091F910F91FE
:10150000089514964D915C91DA01A61BB70BBD01AD
:1015100061507109DC0116964D915C91DA01AE1BA8
:10152000BF0BFD01E21BF30B77FDE8CFAF010E947B
:101530004409E4CF16964D915C91DA01A61BB70BD6
:10154000BD0161507109CDCF0F931F93FA01DC01EA
:1015500056964C9156974230A9F0433091F1413064
:1015600019F514964D915C91DA01AE1BBF0BFD018C
:101570003197F7FD04C0AB01BF010E9444091F91E0
:101580000F91089514964D915C91DA01A61BB70B4B
:10159000BD01DC0116964D915C91DA01AE1BBF0BCB
:1015A000FD013197621B730BF7FDE9CFDC01169645
:1015B0004D915C91E417F50714F7AF010E94F30910
:1015C000DECF16964D915C91DA01A61BB70BBD01DB
:1015D000621B730BCECFFC0177FD64C080859185C3
:1015E000681779070CF05EC057FD5CC08285938553
:1015F000481759070CF056C086898230B1F0833005
:1016000029F1813041F484819581841B950BAB01D4
:10161000BC01615071092130310509F108F443C062
:101620002230310509F463C0089584819581DC017D
:10163000A61BB70BBD016150710986819781DC0142
:10164000A41BB50BAD0141505109E5CF86819781AF
:10165000861B970BBA01AC0141505109DCCFCA017E
:1016600057FD0796A3E095958795AA95E1F7A48184
:10167000B5818A9F90018B9F300D9A9F300D112468
:10168000620F731F078CF0A1E02DE60FF71F477064
:10169000552721E030E001C0220F4A95EAF780810A
:1016A000822B80830895CA0157FD079633E09595F4
:1016B00087953A95E1F7A481B5818A9F90018B9F28
:1016C000300D9A9F300D1124620F731F078CF0A10B
:1016D000E02DE60FF71F4770552781E090E001C02D
:1016E000880F4A95EAF7809590818923DACFCA015D
:1016F00057FD079623E0959587952A95E1F7A481F4
:10170000B5818A9F90018B9F300D9A9F300D1124D7
:10171000620F731F078CF0A1E02DE60FF71F4770D3
:10172000552721E030E001C0220F4A95EAF7808179
:101730008227B7CF08958EBD00000DB407FEFDCF00
:101740008EB508958CBD9DBD08950895FC0163700C
:10175000668B8481958126813781613039F06330D1
:1017600029F09187808733872287089531872087E2
:101770009387828708952F923F924F925F926F9244
:101780007F928F929F92AF92BF92CF92DF92EF9211
:10179000FF920F931F93CF93DF93CDB7DEB76A9776
:1017A0000FB6F894DEBF0FBECDBF9A8F898F7A83B4
:1017B00069834A01D22E18870F833701BC2CDC01C4
:1017C00059962D913C915A972115310509F015C173
:1017D00018968D919C911997681779070CF0D7C1CD
:1017E0001A968D919C91481759070CF0D0C14C2C3A
:1017F000512CB6E0CB9E600D711D11247C876B8748
:10180000161617060CF0C3C1EA2DF0E0FA87E98737
:1018100093E0EE0FFF1F9A95E1F7F88BEF87CF016A
:10182000840F951F181619060CF0B1C1A98DBA8D39
:1018300058968C91811104C0BFEABD1508F4D39469
:10184000A98DBA8DED91FC9111970284F385E02D5D
:10185000CD010995B5E0DB9EC0011124E981FA8133
:10186000FC83EB83312C212C9C0128593F4F388F6E
:101870002F8B4A2D50E05E8B4D8BEF89F88DE20D5A
:10188000F31D44919E828D82D12CC12C69817A8175
:10189000620D731D7A8B698B842F90E09C8B8B8BF0
:1018A000E98DFA8DA081B18140FF82C0F1E0BF12C5
:1018B0006FC0AF126DC01C96ED91FC912F813885E1
:1018C000A4014C0D5D1D69897A89898D9A8D0995D0
:1018D000EB89FC89F595E7954E2F5FEFC51AD50A80
:1018E0006D817E818D899E89680F791F7E836D83CE
:1018F00098E0C916D10481F6AFEF2A1A3A0AEB81B3
:10190000FC81E40DF51DFC83EB83F5E02F1631041B
:1019100009F0B3CF2F81388526153705B9F0A98D89
:10192000BA8DED91FC91B1E0BB1257C0AB1255C01E
:1019300069817A816B5F7F4F0088F189E02D830197
:1019400028E030E0A401898D9A8D0995A98DBA8D82
:10195000ED91FC9111970688F789E02DCD016A96EB
:101960000FB6F894DEBF0FBECDBFDF91CF911F91B0
:101970000F91FF90EF90DF90CF90BF90AF909F902E
:101980008F907F906F905F904F903F902F90099431
:101990001E96ED91FC91EF80F88409851A859201DD
:1019A0004D815E816B817C81898D9A8D099590CF67
:1019B0002F8138852615370509F48ACF31E0B31217
:1019C00007C0A31205C01C96ED91FC91930178CF3E
:1019D0001E96ED91FC917301E0CF6B857C856419B7
:1019E00075090684F785E02D73010F85188992012A
:1019F000A401898D9A8D0995A9CFF9013496949106
:101A0000329745915491D91AB7E0DB9E400D511D94
:101A10001124F901259134913C8B2B8BFA012590EF
:101A20003490FA013296749031963491398B329613
:101A300064903196449041E04C1518F04A1508F036
:101A40007FC0662D062C000C770B7C836B83842D66
:101A5000042C000C990B9E838D83A98DBA8DED917A
:101A6000FC9111970284F385E02DCD010995512C4D
:101A7000D12CC12CEA2DF0E0FA87E9872B2D30E03C
:101A80003C872B87A401440D511D47FC5A95588F64
:101A90004F8B69817A81660D711D67FC7A957E870F
:101AA0006D877989C71608F051CF2C2D30E04D8114
:101AB0005E81420F531FA985BA854A9FC0014B9F83
:101AC000900D5A9F900D1124FC01E80DF91DF88B23
:101AD000EF87852D612C4F89588D420F531F5E8BE8
:101AE0004D8B671408F050C044244394480E87700F
:101AF00041F4C1010196EB89FC89E20DF31DD490FC
:101B00001C01D7FE19C0A98DBA8DED91FC91662DEF
:101B100070E0B1E0BB1219C0AB1217C02D853E8535
:101B2000620F731F0484F585E02D2F8138854D8960
:101B30005E89898D9A8D0995DD0C6394842DD1CFB2
:101B40001E821D821C821B8288CF4B815C81640FA8
:101B5000751FAB85BC856A9FC0016B9F900D7A9FF6
:101B6000900D112469817A81680F791F0684F785A9
:101B7000E02DEF80F88409851A859D014F855889ED
:101B8000898D9A8D0995D8CF570CC3948ACF6A96C0
:101B90000FB6F894DEBF0FBECDBFDF91CF911F917E
:101BA0000F91FF90EF90DF90CF90BF90AF909F90FC
:101BB0008F907F906F905F904F903F902F900895FF
:101BC0008F929F92AF92CF92EF92FF920F931F93BB
:101BD000CF93DF93EC01262F898D9A8D009709F022
:101BE00051C06A30D1F41D861C868D8948E0849FDF
:101BF000900111248E859F85820F931F9F878E876A
:101C000081E090E0DF91CF911F910F91FF90EF90D5
:101C1000CF90AF909F908F9008956D3089F3CC88CE
:101C2000AD888F898823C1F08C859D8536E0C39E61
:101C3000800D911D1124488559854817590764F472
:101C40004E855F851D861C8638E0A39EC001112449
:101C5000840F951F9F878E87EA88FB8808891989DA
:101C60004E855F856C857D85CE010E94BB0B2C89DE
:101C70008C859D8546E0249F800D911D11249D87B4
:101C80008C87BECF6A3069F41D861C86FC013896AD
:101C9000E4912D898E859F85E29F800D911D1124F1
:101CA000ADCF6D3009F4ACCFFC013496349163179D
:101CB00008F4A6CF3296E491E61708F4A1CFFC0110
:101CC000329685909490462F431B342F47E0349FE3
:101CD000800C911C1124F401329634913196E491D8
:101CE0003323A9F1EE2399F1CC88F4013596E491E0
:101CF000AD884F89442301F10E2E000CFF0BE30F3A
:101D0000F11DCE9EA001CF9E500D11246C857D85C6
:101D1000460F571F68857985641775076CF44E85E3
:101D20005F851D861C86FC013896E491AE9E400DB1
:101D3000511D11245F874E87EA88FB88088919891D
:101D40004E855F856C857D85CE010E94BB0BF401BD
:101D50003496E4912C898C859D85E29F800D911DA0
:101D600011248DCF6F927F928F929F92AF92BF92EC
:101D7000CF92DF92EF92FF920F931F93CF93DF9357
:101D8000EC016B015A0139014801E881F9810284B3
:101D9000F385E02D0995E881F9810288F389E02D2A
:101DA00087019301A501B601CE010995A501480D52
:101DB000591D41505109E881F9810288F389E02DCC
:101DC0009301B601CE010995E881F9810088F18976
:101DD000E02D9401A501B601CE010995C60CD71CD2
:101DE000B60161507109E881F9810088F189E02D1F
:101DF0009401A501CE010995E881F9810688F7894A
:101E0000E02DCE01DF91CF911F910F91FF90EF90C8
:101E1000DF90CF90BF90AF909F908F907F906F900A
:101E200009946F927F928F929F92AF92BF92CF92BE
:101E3000DF92EF92FF920F931F93CF93DF935C019A
:101E4000EB016A01490138018701DC01ED91FC9148
:101E50006217730719F5641675062CF0962D872DF9
:101E60003A01C92ED82E9601261937092F5F3F4F08
:101E7000048CF58DE02DA301BE01C5010995DF910C
:101E8000CF911F910F91FF90EF90DF90CF90BF9077
:101E9000AF909F908F907F906F9008954615570553
:101EA00091F42617370724F0892D4B01C22FD82F24
:101EB0009E01281939092F5F3F4F068CF78DE02DC1
:101EC000A601B401DACF0284F385E02D0995D5018E
:101ED000ED91FC910488F589E02D83019401A60120
:101EE000BE01C5010995D501ED91FC910688F789E0
:101EF000E02DC501DF91CF911F910F91FF90EF90E1
:101F0000DF90CF90BF90AF909F908F907F906F9019
:101F10000994EF92FF920F931F93DC011A960D9193
:101F20001C911B9718962D913C911997ED91FC915E
:101F300000A0F1A1E02D7B0150E040E070E060E006
:101F400009951F910F91FF90EF9008954F925F9226
:101F50006F927F928F929F92AF92BF92CF92DF92B9
:101F6000EF92FF920F931F93CF93DF936C012B019E
:101F70005A0139014801DC01ED91FC910284F3859D
:101F8000E02D0995E201640C751CD601ED91FC91E0
:101F9000C615D7055CF40088F189E02D870194010E
:101FA000A501BE01C60109952196EFCF0688F789E4
:101FB000E02DC601DF91CF911F910F91FF90EF901F
:101FC000DF90CF90BF90AF909F908F907F906F9059
:101FD0005F904F9009948F929F92AF92BF92CF9251
:101FE000DF92EF92FF920F931F93CF93DF93EC0159
:101FF0008BEDC82E83E0D82EF60120853185225046
:102000003109269FC001279F900D369F900D112406
:10201000BC01990F880B990B0E94A82920E030E0A1
:1020200048EC52E40E94FE280E9470294B01CE0128
:1020300001972FE0289FE001299FD00D11242A96B7
:10204000EE24E394F12C03E010E09401AE0161E092
:1020500070E0C6010E94A60FF6012085318522504E
:10206000310928193909B4016F5F7F4FF12CE12C38
:10207000AE01C6010E94A60FDF91CF911F910F9173
:10208000FF90EF90DF90CF90BF90AF909F908F9098
:1020900008958F929F92AF92BF92CF92DF92EF926C
:1020A000FF920F931F93CF93DF93EC015B014A01E3
:1020B0006901E881F9810284F385E02D0995950194
:1020C0002C0D3D1D21503109E881F9810488F589E5
:1020D000E02D78018401A401B501CE010995E881C4
:1020E000F9810688F789E02DCE01DF91CF911F910C
:1020F0000F91FF90EF90DF90CF90BF90AF909F90A7
:102100008F9009948F929F92AF92BF92CF92DF925D
:10211000EF92FF920F931F93CF93DF93EC015B013C
:102120004A0169017801E881F9810284F385E02D93
:102130000995C80CD91C860101501109E881F98163
:102140000488F589E02D9501A401B501CE0109951A
:10215000E881F9810688F789E02DCE01DF91CF91E2
:102160001F910F91FF90EF90DF90CF90BF90AF90B5
:102170009F908F900994EF92FF920F931F93DC0131
:10218000ED91FC9100A0F1A1E02D09951F910F9117
:10219000FF90EF9008950F931F93DC01ED91FC9158
:1021A000068CF78DE02D09951F910F9108950F93DF
:1021B0001F93DC01ED91FC91048CF58DE02D0995C8
:1021C0001F910F910895DC01ED91FC910084F18540
:1021D000E02D09943F924F925F926F927F928F927F
:1021E0009F92AF92BF92CF92DF92EF92FF920F93A6
:1021F0001F93CF93DF935C017B014A016901390191
:1022000087E0680E711C93E0759467949A95E1F7E6
:102210002B01400E511E10E000E0312CD0E0C0E058
:10222000CE0187709927330C892B59F4FE0183E086
:10223000F595E7958A95E1F7E00FF11FE80DF91D97
:10224000349037FE0AC021E030E0A701B5016C0FE1
:102250007D1F8BED93E00E94E3102196CC16DD06E6
:10226000F9F68FEFE81AF80A060D171DE414F504C5
:10227000A9F6DF91CF911F910F91FF90EF90DF9022
:10228000CF90BF90AF909F908F907F906F905F9016
:102290004F903F9008952F923F924F925F926F928E
:1022A0007F928F929F92AF92BF92CF92DF92EF92E6
:1022B000FF920F931F93CF93DF9300D000D000D0F5
:1022C000CDB7DEB73C016A013E832D83FC82EB82F1
:1022D0005801A41AB50AB7FE03C0B194A194B1087D
:1022E0008D809E80861A970A97FE03C091948194F0
:1022F00091088A149B045CF0902F812F0D811E8120
:102300009D838E839C2D8D2D6B01692F782F0C154D
:102310001D055CF09D818E817E836D83692F782FF2
:10232000902F812F8601C92ED82E1601201A310A2E
:102330002B012D813E81421A530A57FE03C051944E
:1023400041945108710137FE03C03FEFE31AF30ACD
:10235000F594E7948D819E81861797075CF5A1E03F
:10236000B0E0BA83A983C016D1064CF1D301ED9138
:10237000FC910484F585E02D2B813C81A8016D81C1
:102380007E818A149B041CF04D815E81B801C301DB
:102390000995E418F508F7FE0AC02D813E81898170
:1023A0009A81280F391F3E832D83E20CF31C0F5FA7
:1023B0001F4FD9CF2FEF3FEF3A832983D4CF2696F3
:1023C0000FB6F894DEBF0FBECDBFDF91CF911F9146
:1023D0000F91FF90EF90DF90CF90BF90AF909F90C4
:1023E0008F907F906F905F904F903F902F900895C7
:1023F0008F929F92AF92BF92EF92FF921F93CF93D3
:10240000DF93EC01162FE881F9810484F585E02D36
:10241000462F70E060E009957C0111501230D8F42D
:1024200019861A8688889988AA88BB880E94C50759
:10243000688F798F8A8F9B8F8C8E9D8EAE8EBF8E8C
:10244000C701DF91CF911F91FF90EF90BF90AF90A8
:102450009F908F9008958C889D88AE88BF88E6CF26
:10246000DC0118968C911897481710F04FEF480F21
:102470001B969C911B97992389F017969C9117970F
:10248000691730F0691B4F5F4817D0F340E0F8CF71
:1024900019966C9319971A964C931A97FD01E40FAD
:1024A000F11D8485680F6068CD010C94F8118F923E
:1024B0009F92AF92BF92EF92FF920F931F93CF9391
:1024C000DF93EC01462FE881F9810484F585E02D46
:1024D00061E070E009957C018C889D88AE88BF889A
:1024E0000E94C507688F798F8A8F9B8F8C8E9D8EF7
:1024F000AE8EBF8E01E010E0EF2811F010E000E09A
:102500008B85882399F089858F5F89879F818917BB
:1025100068F019868A858F5F8A879885891708F001
:102520001A864A8560E0CE010E943012C801DF9110
:10253000CF911F910F91FF90EF90BF90AF909F9020
:102540008F9008958DEF9FEF08958DEF9FEF089581
:1025500090E080E0089520915402260F3327331F26
:1025600021323105ECF42091B102FC0190E080E0D1
:10257000243069F082E00895A09154022191AC01C9
:102580004C5C5D4FA40FB52FB11D2C93019686179F
:1025900098F380915402680F6093540280E008958C
:1025A00081E008951092B10281E08093B002109210
:1025B000AB0261E082E10E94460761E083E10E9494
:1025C0004607E9EBF0E080818E7F808380818D7FFC
:1025D000808388E48093B80085E48093BC000895EC
:1025E0001092DC021092DB021092DE021092DD02E9
:1025F0000E94D21284EE95E09093DA028093D90281
:1026000085EE95E09093D8028093D7020895CF93FA
:10261000DF9391E0909333028823B9F0C091B80022
:10262000D091BA008091BC008A7B8093BC0060E0AE
:1026300082E10E94460760E083E10E9446070E9413
:10264000D212D093BA00C093B800DF91CF91089511
:10265000E091DC028091DB02E81730F4F0E0E9540D
:10266000FD4F808190E008958FEF9FEF0895909146
:10267000DC028091DB022FEF3FEF981748F4E92F3F
:10268000F0E0E954FD4F208130E09F5F9093DC0241
:10269000C90108958091DB029091DC02891B990B9E
:1026A0000895CF92DF92EF92FF920F931F93CF93F3
:1026B000DF937C01CB018A012091E002222389F083
:1026C000EB016B01C40ED51ECC15DD0569F06991D7
:1026D000D701ED91FC910190F081E02DC7010995A2
:1026E000F3CF642F0E94AB12C801DF91CF911F91ED
:1026F0000F91FF90EF90DF90CF900895CF93DF93ED
:102700001F92CDB7DEB769832091E0022223F9F052
:102710002091DD02203258F021E030E0FC013383CB
:10272000228390E080E00F90DF91CF910895809117
:10273000DE02E82FF0E0ED5EFD4F998190838F5F20
:102740008093DE028093DD0281E090E0ECCF61E0D7
:10275000CE0101960E94AB12F7CF682F8FEC93E069
:102760000C947E13CF92DF92EF92FF920F931F9300
:10277000CF93DF93D091DD0281E0D13208F09CC08D
:10278000C091DF020E94C5076B017C018091B102FC
:1027900081116CC082E08093B10281E08093B0022D
:1027A0008FEF8093AF021092AE02D093AD02A3E1FF
:1027B000B2E0EBE8F2E080E0D8138DC01092AC02FA
:1027C0008091AC02CC0FC82BC093AC028091AB02BD
:1027D000813009F084C01092AB020E94C5076B01E2
:1027E0007C018091AC028093BB008091B3029091F8
:1027F000B402A091B502B091B602892B8A2B8B2B23
:10280000A1F00E94C5070091B3021091B40220917B
:10281000B5023091B6026C197D098E099F09061721
:1028200017072807390708F442C08091BC0083FDD0
:10283000D8CF85EC8093BC000E94C5076B017C015A
:102840008091B102823009F44CC08091AF028F3F79
:1028500009F469C08091AF02803209F466C08091AA
:10286000AF02803309F463C084E026C08091B302D4
:102870009091B402A091B502B091B602892B8A2B37
:102880008B2B09F483CF0E94C5070091B3021091EE
:10289000B4022091B5023091B6026C197D098E09FF
:1028A0009F09061717072807390708F06FCF80918F
:1028B000B2020E94071385E01092DE021092DD0240
:1028C0001092E002DF91CF911F910F91FF90EF9056
:1028D000DF90CF9008959D9191938F5F6DCF85EE9E
:1028E000A9CF8091B3029091B402A091B502B091AA
:1028F000B602892B8A2B8B2B09F4A2CF0E94C50725
:102900000091B3021091B4022091B5023091B60249
:102910006C197D098E099F090617170728073907C3
:1029200008F08ECFC4CF80E0C7CF82E0C5CF83E070
:10293000C3CFFF920F931F93CF93DF93F82ED92F1E
:10294000C62F8091F8039091F903892B09F447C0B1
:102950008091FC030E9471058091F8039091F90326
:10296000DC01ED91FC910190F081E02D60E0099592
:102970000F2D1D2FD1E0C1508091F8039091F903E4
:10298000CF3F31F1D03298F00E94B2138091FC0316
:102990000E9471058091F8039091F903DC01ED919B
:1029A000FC910190F081E02D60E00995D1E08091EB
:1029B000F8039091F903F8016491DC01ED91FC9129
:1029C0000190F081E02D0995DF5F0F5F1F4FD3CF9E
:1029D000DF91CF911F910F91FF900C94B213E09172
:1029E0000804F0910904908180910E048095892358
:1029F00080830F2D1D2FC15008F438C0F801849139
:102A00002091F6033091F703232B29F00E949B0BB2
:102A10000F5F1F4FF0CF28E030E040E8E091040462
:102A2000F091050490910C04582F5423D9F0508153
:102A3000952B9083E0910604F091070490815091CA
:102A40000D04952B9083E0910604F09107045081CA
:102A500090910D04909595239083469521503109CE
:102A6000E9F6D6CF508190959523E3CFDF91CF91B2
:102A70001F910F91FF900895CF93DF93D82FC62F0A
:102A800080918A0280620E9471056D2F8FEC93E025
:102A90000E947E136C2F8FEC93E00E947E138FECCC
:102AA00093E0DF91CF910C94B2131F93CF93DF93F8
:102AB000EC018D8D9E8D892BF9F0162F89A10E9436
:102AC00071058D8D9E8DDC01ED91FC910190F08161
:102AD000E02D60E009958D8D9E8DDC01ED91FC91DE
:102AE0000190F081E02D612F09958D8D9E8DDF91F4
:102AF000CF911F910C94B213ADA5BEA59C918BA94B
:102B0000809589238C938B8D9C8D892B31F0862F1A
:102B1000DF91CF911F910C949B0B28E030E080E86F
:102B2000A9A5BAA599A9462F4823C1F04C91942B89
:102B30009C93ABA5BCA59C914AA9942B9C93ABA557
:102B4000BCA54C919AA9909594239C93869521506D
:102B5000310931F7DF91CF911F9108954C919095F4
:102B60009423E6CFFF920F931F93CF93DF9380912F
:102B7000F8039091F903892B09F487C02091100480
:102B800030911104409112045091130460E074E2FA
:102B900084EF90E00E94A12A205131094109510996
:102BA00056954795379527952093B80065E082E5BF
:102BB0009AE00E9499146091DF0361508BED93E0DD
:102BC0000E9455152091E1033091E203C901079657
:102BD00097FD079623E0959587952A95E1F7209133
:102BE000DF033091E003829F8001839F100D929F4D
:102BF000100D1124C091FA03D091FB038091F803CA
:102C00009091F9030C0F1D1F892B09F47CC0809152
:102C1000FC030E9471058091F8039091F903DC0197
:102C2000ED91FC910190F081E02D60E40995FF2485
:102C3000F3948091F8039091F9030C171D07E1F1CB
:102C4000BFE1BF15A0F40E94B2138091FC030E9463
:102C500071058091F8039091F903DC01ED91FC91ED
:102C60000190F081E02D60E40995FF24F3948091B8
:102C7000F8039091F9036991DC01ED91FC910190C9
:102C8000F081E02D0995F394D4CF8091F6039091D3
:102C9000F703892B31F08091190490911A040E9456
:102CA000A20BE0910A04F0910B04908180910F0433
:102CB0008095892380837ACF0E94B2138091F80394
:102CC0009091F903892B09F45FC02091140430918D
:102CD0001504409116045091170460E074E284EFEB
:102CE00090E00E94A12A20513109410951095695CD
:102CF0004795379527952093B800DF91CF911F9185
:102D00000F91FF900895E0910804F09109048081EB
:102D100090910E04892B80830C171D0779F28991FD
:102D20002091F6033091F703232B19F00E949B0B9F
:102D3000F3CF28E030E040E8E0910404F09105048E
:102D400090910C04582F5423D9F05081952B9083E7
:102D5000E0910604F0910704908150910D04952BA9
:102D60009083E0910604F0910704508190910D0446
:102D7000909595239083469521503109E9F6CCCF63
:102D8000508190959523E3CFE0910A04F0910B04D4
:102D9000808190910F04892B8083AFCF1F93CF93B5
:102DA000DF93EC01162F8D8D9E8D892BB1F12DA90E
:102DB0003EA94FA958AD60E074E284EF90E00E9414
:102DC000A12A205131094109510956954795379556
:102DD00027952093B80066EA111167EACE010E9498
:102DE00055158D8D9E8D892B41F129AD3AAD4BAD99
:102DF0005CAD60E074E284EF90E00E94A12A205173
:102E000031094109510956954795379527952093E2
:102E1000B800DF91CF911F9108958B8D9C8D892BE8
:102E200021F08EAD9FAD0E94A20BEFA5F8A9908175
:102E30008CA9809589238083CECFEFA5F8A98081C6
:102E40009CA9892B8083E5CF0F931F93CF93DF93AA
:102E5000182FD0E0C0E28C2F0E9471058FEC93E018
:102E60000E94B213082F61E070E080E090E00E94C1
:102E70001209011103C01D17E1F0DF5FCF5FC832F7
:102E800051F7C8E38C2F0E9471058FEC93E00E94EC
:102E9000B213082F61E070E080E090E00E94120918
:102EA000011103C01D1729F0DF5FCF5FC03451F758
:102EB000C0E08C2FDF91CF911F910F910895CF9398
:102EC000FC01C4A560FF02C086A1C82B61FF02C03F
:102ED00087A1C82B62FF02C080A5C82B63FF02C078
:102EE00081A5C82B4130510511F483A1C82B85A1C0
:102EF0008C2B90E00E94AD136C2F8FEC93E0CF9160
:102F00000C947E13CF93DF93EC018AA5882359F1AB
:102F10009BA5662321F1913021F58CA788A10E9401
:102F2000710589A19AA1029721F489E090E00E949D
:102F3000AD136CA58FEC93E00E947E138FEC93E0B1
:102F40000E94B21321E030E0811102C030E020E0A5
:102F500088279927821B930BDF91CF91089599239E
:102F6000E1F21CA6DBCF8DEF9FEFF6CF4F925F9281
:102F70006F927F928F929F92AF92BF92EF92FF9249
:102F80001F93CF93DF93EC0188A1882309F45BC0E2
:102F900089A19AA1892B09F456C0142F7B014C8C6E
:102FA0005D8C6E8C7F8C888C998CAA8CBB8C8DE20E
:102FB000881A9108A108B1080E94C5076819790903
:102FC0008A099B096415750586059705A8F388A1EC
:102FD0000E94710589A19AA1029721F489E090E0ED
:102FE0000E94AD13612F70E084E0759567958A9516
:102FF000E1F7A701CE010E945F1782E0E816F10415
:1030000031F0612F6F70A701CE010E945F178FEC26
:1030100093E00E94B21321E030E0811102C030E061
:1030200020E088279927821B930BDF91CF911F9176
:10303000FF90EF90BF90AF909F908F907F906F9098
:103040005F904F9008958CEF9FEFEFCF0895CF9250
:10305000DF92EF92FF920F931F93CF93C82F0E949E
:10306000C5076B017C018091B102811164C081E0D0
:103070008093B1028093B0029FEF9093AF021092C1
:10308000AE021092AD028093AC028091AC02CC0FE4
:10309000C82BC093AC028091AB02813009F07DC097
:1030A0001092AB020E94C5076B017C018091AC02BB
:1030B0008093BB008091B3029091B402A091B502BD
:1030C000B091B602892B8A2B8B2BA1F00E94C507E9
:1030D0000091B3021091B4022091B5023091B60272
:1030E0006C197D098E099F090617170728073907EC
:1030F00008F442C08091BC0083FDD8CF85EC80935A
:10310000BC000E94C5076B017C018091B102813037
:1031100009F445C08091AE02811163C08091AE0276
:10312000EBE8F2E0A7EBB2E090E0981751F12191C3
:103130002D939F5FFACF8091B3029091B402A0913A
:10314000B502B091B602892B8A2B8B2B09F48BCF59
:103150000E94C5070091B3021091B4022091B502FC
:103160003091B6026C197D098E099F090617170761
:103170002807390708F077CF8091B2020E94071321
:1031800080E01092DC028093DB02CF911F910F91BF
:10319000FF90EF90DF90CF90089585EEB0CF8091B3
:1031A000B3029091B402A091B502B091B602892BFE
:1031B0008A2B8B2B09F4A9CF0E94C5070091B3027B
:1031C0001091B4022091B5023091B6026C197D09BC
:1031D0008E099F09061717072807390708F095CFAA
:1031E000CBCF81E09DCFCF93C82F80918A028062A0
:1031F0000E9471056C2F8FEC93E00E947E138FEC80
:1032000093E00E94B21380918A02806290E00E9453
:1032100027188FEC93E00E943713CF910895CF9336
:10322000C82F80E00E94F31861E070E001C0660FD3
:10323000CA95EAF76095682380E0CF910C943C151D
:103240004F925F926F927F928F929F92AF92BF92B6
:10325000EF92FF920F931F93CF93DF93EC011CA586
:1032600088A1882309F4EDC089A19AA1009709F4E7
:10327000E8C0029709F4E8C08CA1882309F4E4C0EF
:103280007B014C8C5D8C6E8C7F8C888C998CAA8C8D
:10329000BB8C8DE2881A9108A108B1080E94C5076D
:1032A000681979098A099B096415750586059705CA
:1032B000A8F38EA1182B8FA1182B88A5182B89A5F0
:1032C000182BEA94EF2811F48BA1182B8CA1182B42
:1032D00088A10E947105612F8FEC93E00E947E13FC
:1032E0008FEC93E00E94B213882311F10FEF1FEFD0
:1032F00088A10E9471056CA58FEC93E00E947E135B
:103300008FEC93E00E94B213882311F00FEF1FEFB0
:10331000C801DF91CF911F910F91FF90EF90BF9067
:10332000AF909F908F907F906F905F904F90089597
:1033300088A10E9471058DA1812B90E00E94AD13A0
:103340008FEC93E00E94B2138111D0CF88A190E05E
:103350000E9427188FEC93E00E9437137C0197FDA1
:10336000C5CF88A10E947105612F8FEC93E00E9468
:103370007E138FEC93E00E94B213082F8111B6CF19
:103380008EA190E08E219F21892B09F000E18FA171
:1033900090E08E219F21892B09F0006288A590E0A2
:1033A0008E219F21892B09F0006489A590E08E2150
:1033B0009F21892B09F0006888A10E9471058DA1C9
:1033C000812B90E00E94AD138FEC93E00E94B2132A
:1033D00081118CCF88A190E00E9427188FEC93E098
:1033E0000E9437137C0197FD81CF88A10E9471054F
:1033F000612F8FEC93E00E947E138FEC93E00E948C
:10340000B213811173CF8EA190E08E219F21892B61
:1034100009F001608FA190E08E219F21892B09F096
:10342000026088A590E08E219F21892B09F004601D
:1034300089A590E08E219F21892B09F0086010E07A
:1034400057CF0CEF1FEF64CF0DEF1FEF61CF0F933E
:103450001F93CF93DF93EC010E94F01288A181119A
:1034600088C08091100291E0980F909310020E9402
:10347000241788A388A1811109C08091100291E0CE
:10348000980F909310020E94241788A318A111236B
:1034900009F478C089A19AA1892B09F033C1812F41
:1034A0000E94710560E08FEC93E00E947E136FEF45
:1034B0008FEC93E00E947E138FEC93E00E94B21396
:1034C000812F0E94710560E08FEC93E00E947E13D3
:1034D0008FEC93E00E94B213812F90E00E94271896
:1034E0008FEC93E00E9437138F3F910509F051C094
:1034F00082E090E09AA389A388A10E94710560E010
:103500008FEC93E00E947E138FEF90E00E94AD134A
:103510008FEC93E00E94B21388A10E94710586E0AF
:1035200090E00E94AD138FE790E00E94AD138FEC06
:1035300093E00E94B21388A10E94710589E090E097
:103540000E94AD138FEC93E00E94B21388A190E02B
:103550000E9427188FEC93E00E9437138F3709F0F1
:1035600010C127E036E045E054E063E072E0E1E0BE
:1035700013C10E9471058FEC93E00E94B21388235F
:1035800009F478CF8CEF9FEFDF91CF911F910F91CE
:103590000895892B29F01AA219A28FEF9FEFF4CF7B
:1035A00081E090E09AA389A388A10E9471056FEF42
:1035B0008FEC93E00E947E138FEC93E00E94B21395
:1035C00088A190E00E9427188FEC93E00E943713A7
:1035D0008C0188A10E9471056BEF8FEC93E00E9433
:1035E0007E138FEC93E00E94B21388A190E00E94BA
:1035F00027188FEC93E00E94371398012770332728
:103600002730310509F04DC0807F9927803F910513
:1036100009F047C083E0169507958A95E1F761E0C8
:103620000627017043E057E066E075E0E4E022E041
:10363000F1E030E081E090E0DC0101C0AA0F3A95B2
:10364000EAF7ABA3DC0101C0AA0FFA95EAF7ACA335
:10365000DC0102C0AA0FBB1F2A95E2F7ADA39C01B3
:1036600001C0220FEA95EAF72EA39C0101C0220FA8
:103670007A95EAF72FA39C0101C0220F6A95EAF719
:1036800028A79C0101C0220F5A95EAF729A701C07B
:10369000880F4A95EAF78AA70BA7013091F58CA706
:1036A00031C0C801807799278037910519F08DEFD7
:1036B0009FEF6ACF88A10E9471056FEE8FEC93E0B7
:1036C0000E947E138FEC93E00E94B21388A190E0D9
:1036D0000E9427188FEC93E00E9437138F70992770
:1036E00026E034E00F9711F424E036E00095001F47
:1036F0000027001F47E053E062E071E0E0E0F5E002
:1037000099CF1CA688A10E94710589A19AA1029750
:1037100021F585E090E00E94AD1380E290E00E94E8
:10372000AD138FEC93E00E94B21388A10E94710543
:1037300060E08FEC93E00E947E1360E08FEC93E0FA
:103740000E947E138FEC93E00E94B21388A10E9426
:10375000710589E090E00E94AD1360E08FEC93E08A
:103760000E947E138FEC93E00E94B21321E030E0C0
:10377000811102C030E020E088279927821B930B3B
:1037800003CF86FF3BC081FD92CF21E032E043E0D2
:1037900054E065E076E0E7E081E090E0DC0102C023
:1037A000AA0FBB1FEA95E2F7ABA31CA2FC0101C064
:1037B000EE0F7A95EAF7EDA3FC0102C0EE0FFF1FB2
:1037C0006A95E2F7EEA3BC0101C0660F5A95EAF7CD
:1037D0006FA3BC0102C0660F771F4A95E2F768A786
:1037E000AC0101C0440F3A95EAF749A701C0880F20
:1037F0002A95EAF78AA791E09BA751CF26E033E00C
:1038000042E051E060E077E0E4E0C6CF2091E103E0
:103810003091E203C901079697FD079623E095953D
:1038200087952A95E1F72091DF033091E003829F8D
:10383000A001839F500D929F500D112470E060E015
:103840008091FA039091FB030C94F32B0E94EE2BD2
:10385000FB0101900020E9F73197AF01461B570BA0
:10386000DC01ED91FC910280F381E02D09948F92AF
:103870009F92AF92BF92EF92FF920F931F93CF93BD
:10388000DF93CDB7DEB7A1970FB6F894DEBF0FBEBA
:10389000CDBF7C01FA01CB0119A2223008F42AE045
:1038A0008E010F5D1F4F822E912CB12CA12CBF01D8
:1038B000A50194010E94A12AF901CA016A300CF500
:1038C000605DD8016E938D01232B242B252B79F776
:1038D00090E080E0109721F0BD01C7010E94281CF4
:1038E000A1960FB6F894DEBF0FBECDBFDF91CF918A
:1038F0001F910F91FF90EF90BF90AF909F908F908E
:103900000895695CDECFCF92DF92EF92FF920F9322
:103910001F93CF93DF936B01770FEE08FF08F7FE3D
:103920001FC0EC01E881F9810190F081E02D6DE28A
:1039300009958C0144275527BA014C195D096E0978
:103940007F092AE0CE010E94371C800F911FDF9172
:10395000CF911F910F91FF90EF90DF90CF9008953E
:103960002AE0B701A601DF91CF911F910F91FF903F
:10397000EF90DF90CF900C94371CCF93DF93BC0176
:103980008BED93E00E94281CEC0161E971E08BED66
:1039900093E00E94281C8C0F9D1FDF91CF9108950A
:1039A0000C94281C85ED8093BC008091B30290910B
:1039B000B402A091B502B091B6020796A11DB11D47
:1039C00023E0B695A795979587952A95D1F72091ED
:1039D000BC0024FD03C01092B10208954091B302CF
:1039E0005091B4026091B5027091B602452B462BFE
:1039F000472B69F30097A105B10541F025E32A950E
:103A0000F1F700000197A109B109E1CF8091B2025D
:103A10000C9407131F920F920FB60F9211242F933D
:103A20003F934F935F936F937F938F939F93AF9346
:103A3000BF93EF93FF9381EE92E00E946506FF91A2
:103A4000EF91BF91AF919F918F917F916F915F9116
:103A50004F913F912F910F900FBE0F901F9018958F
:103A60001F920F920FB60F9211242F938F939F9353
:103A7000EF93FF93E091F102F091F2028081E091E7
:103A8000F702F091F80282FD1BC090818091FA024A
:103A90008F5F8F732091FB02821741F0E091FA0251
:103AA000F0E0EF51FD4F958F8093FA02FF91EF9177
:103AB0009F918F912F910F900FBE0F901F9018958F
:103AC0008081F4CF1F920F920FB60F9211242F9383
:103AD0003F938F939F93AF93BF9380917802909180
:103AE0007902A0917A02B0917B023091770223E0B3
:103AF000230F2D3758F50196A11DB11D2093770294
:103B00008093780290937902A0937A02B0937B021B
:103B100080917C0290917D02A0917E02B0917F0203
:103B20000196A11DB11D80937C0290937D02A0930C
:103B30007E02B0937F02BF91AF919F918F913F9191
:103B40002F910F900FBE0F901F90189526E8230F0E
:103B50000296A11DB11DD2CF1F920F920FB60F92E8
:103B600011242F933F934F935F936F937F938F9382
:103B70009F93AF93BF93EF93FF938091B900887F9A
:103B8000803609F44AC0F0F5883209F4A7C018F568
:103B9000803109F49BC0B8F4882309F4F9C0883057
:103BA00009F494C0FF91EF91BF91AF919F918F91D4
:103BB0007F916F915F914F913F912F910F900FBE29
:103BC0000F901F901895883109F488C0803251F702
:103BD0008093AF0214C0803409F49DC040F4803358
:103BE000B9F38833F9F68093AF0285ECB0C0803525
:103BF00009F485C0883509F496C0883499F60E9486
:103C0000D21CD0CF883909F48CC038F5883729F018
:103C100050F4883611F0803729F683E08093B102A2
:103C20001092760257C0883809F47BC0803919F0A9
:103C3000803809F0B7CF80917602803208F071C0E9
:103C4000E091760281E08E0F809376028091BB0036
:103C5000F0E0EA5AFD4F80833DC0803B39F0E0F44C
:103C6000803A09F479C0883A09F09CCF84E08093C7
:103C7000B1021092550210925402E091D902F091D3
:103C8000DA0209958091540281110FC081E080937E
:103C900054021092340209C0803C09F4A6CF883C3B
:103CA00009F4A3CF883B09F07DCFE091550281E074
:103CB0008E0F80935502F0E0EC5CFD4F8081809385
:103CC000BB00909155028091540229C08091AC02B2
:103CD0008093BB0085EC8093BC0064CF9091AE02D2
:103CE0008091AD02981758F5E091AE0281E08E0FF9
:103CF0008093AE02F0E0E557FD4F8081E9CFE0917F
:103D0000AE0281E08E0F8093AE028091BB00F0E0A6
:103D1000E557FD4F80839091AE028091AD029817D8
:103D2000C8F285E8D8CFE091AE0281E08E0F809393
:103D3000AE028091BB00F0E0E557FD4F808380919B
:103D4000B00281115CCF81E08093AB0284EA809362
:103D5000BC001092B10226CF85EC8093BC0010927B
:103D6000B10280917602803230F4E0917602F0E088
:103D7000EA5AFD4F10826091760270E0E091D7021E
:103D8000F091D80286E592E00995109276020ACF6A
:103D90001092AF0234CF1F920F920FB60F921124E0
:103DA0000F900FBE0F901F9018951092E402109282
:103DB000E30288EE93E0A0E0B0E08093E502909308
:103DC000E602A093E702B093E80229E131E03093E4
:103DD000E2022093E10225EC30E03093EE022093E2
:103DE000ED0224EC30E03093F0022093EF0220EC5F
:103DF00030E03093F2022093F10221EC30E0309376
:103E0000F4022093F30222EC30E03093F602209388
:103E1000F50226EC30E03093F8022093F70210927E
:103E2000FA021092FB021092FC021092FD02109214
:103E3000D2031092D1038093D3039093D403A09321
:103E4000D503B093D6038BE291E09093D003809397
:103E5000CF031092DE031092DD0320E830E03093B0
:103E6000E0032093DF0380E490E09093E2038093EB
:103E7000E1033093E4032093E3039093E6038093FC
:103E8000E5031092F1031092E8031092E7031092F9
:103E9000EA031092E90381E08093F0038093EF033B
:103EA0002FEF3FEF3093EE032093ED033093EC03BD
:103EB0002093EB038093F2031092F3031092F50327
:103EC0001092F40329E631E03093DC032093DB0306
:103ED0001092F7031092F6032FEC33E03093F903BE
:103EE0002093F8031092FB031092FA039FEF909334
:103EF000FF0390930004909301049093020494E0D4
:103F00009093030440E85AE166E070E040931004A7
:103F100050931104609312047093130440EA56E81E
:103F200061E070E04093140450931504609316040C
:103F30007093170490E59093190410921A0410924C
:103F4000BA031092C1031092C8031092C9031092D1
:103F5000CA031092CB038093C7038093C4031092CB
:103F6000C50392E09093C6038093B9038FE090E07D
:103F70009093BE038093BD030E94C92A9093C3030C
:103F80008093C203009709F4A5C02FE0FC011192B1
:103F90002A95E9F785E090E09093BC038093BB03FA
:103FA0008CE090E09093C0038093BF038091BA03AC
:103FB000882341F061E08CE00E94740760E08CE0AF
:103FC0000E944607E1E8FAE0E491F0E0EE0FFF1FFF
:103FD000E559F54F859194919093CD038093CC034F
:103FE000E3E6FAE0E491E093CE0383E08093AB0351
:103FF00062E00E9474070E94EA0710928103109207
:1040000080038DE391E090937F0380937E03109271
:1040100085031092860380ED97E0A0E0B0E08093E6
:104020008E0390938F03A0939003B093910386E245
:1040300090E0A0E0B0E08093920390939303A0936C
:104040009403B093950310928A0310928B031092FD
:104050008C0310928D03109289030E94C507609310
:10406000960370939703809398039093990310920B
:104070009A0310929B0310929C0310929D0383E578
:1040800091E090937F0380937E0382E090E0909391
:10409000A00380939F0380E280939E0390E8909317
:1040A000A1031092A20390E49093A3038093A4032E
:1040B00080E18093A50388E08093A60384E0809349
:1040C000A70382E08093A80391E09093A9038093D3
:1040D000AA0308951092BE031092BD031092BC0370
:1040E0001092BB035DCF789484B5826084BD84B5A3
:1040F000816084BD85B5826085BD85B5816085BDE3
:1041000080916E00816080936E001092810080919A
:104110008100826080938100809181008160809322
:104120008100809180008160809380008091B10047
:1041300084608093B1008091B00081608093B00072
:1041400080917A00846080937A0080917A00826006
:1041500080937A0080917A00816080937A008091C8
:104160007A00806880937A001092C100E091F10299
:10417000F091F20282E08083E091ED02F091EE0294
:104180001082E091EF02F091F0028FEC80831092A8
:10419000F902E091F502F091F60286E08083E09169
:1041A000F302F091F402808180618083E091F30258
:1041B000F091F402808188608083E091F302F091B5
:1041C000F402808180688083E091F302F091F40230
:1041D00080818F7D808384E080938A020E94F01228
:1041E00080918A0280620E94710560E08FEC93E00A
:1041F0000E947E136FEF8FEC93E00E947E1360E0CD
:104200008FEC93E00E947E1360E08FEC93E00E94BD
:104210007E1360E08FEC93E00E947E1360E08FECF1
:1042200093E00E947E1360E08FEC93E00E947E1387
:1042300060E08FEC93E00E947E1360E08FEC93E0EF
:104240000E947E1360E08FEC93E00E947E1360E09A
:104250008FEC93E00E947E138FEC93E00E94B213E8
:1042600080E00E940F1981E00E940F1982E00E94F5
:104270000F1983E00E940F1984E00E940F1985E056
:104280000E940F1986E00E940F1987E00E940F1903
:1042900061E08DE00E94740761E089E00E9474078C
:1042A00061E08AE00E94740761E08BE00E9474077D
:1042B00061E082E00E94740760E084E00E9474077D
:1042C00060E087E00E94740760E086E00E94740767
:1042D00060E085E00E94740760E081E10E9474075D
:1042E00060E080E10E94740760E08FE00E94740744
:1042F00061E083E00E94740760E08DE00E94460761
:1043000060E089E00E94460760E08AE00E9446077C
:1043100060E08BE00E94460780918A0381110CC007
:1043200080918B03811108C080918C03811104C09E
:1043300080918D03882321F0809185038F7E59F031
:1043400010928A0380E480938B0380E180938C0336
:1043500080E580938D0382E08093860380E18093E3
:10436000850364E670E080E090E00E9412091092FC
:1043700082038EE793E00E94271A892B09F05CC024
:1043800080918603823028F0809182038860809338
:10439000820340E362E070E08EE793E00E94B6178C
:1043A00065E070E080E090E00E94120940E362E086
:1043B00070E08EE793E00E94B61761E070E080E065
:1043C00090E00E94120940E362E070E08EE793E023
:1043D0000E94B61761E070E080E090E00E94120950
:1043E0008091820384FD07C040E262E070E08EE7C6
:1043F00093E00E94B6176091820360628EE793E0BB
:104400000E94F81184E0809383036CE08EE793E0D0
:104410000E94F81161E08EE793E00E94F81182E0BB
:104420008093840366E08EE793E00E94F8116FEFBB
:104430008EE793E00E94821764E971E08EE793E0D3
:104440000E94D01C41E060E08EE793E00E943012B1
:1044500060EA71E08EE793E00E94D01C8091FA033D
:104460009091FB03892B11F10E94061C2091E1031E
:104470003091E2038091DF039091E0032132310516
:104480000CF021C4B9016052710977FF02C06F5F5F
:104490007F4F759567958357910997FD019600E2C7
:1044A00010E023E730E042EB55E020C42091E10327
:1044B0003091E203C901079697FD0796B3E0959501
:1044C0008795BA95E1F72091DF033091E003AC01C5
:1044D000429FC001439F900D529F900D11240E9456
:1044E000C92A9093FB038093FA03892B09F0BCCF70
:1044F00064E670E080E090E00E9412090E94061CD1
:1045000064E670E080E090E00E9412098091BF03B1
:104510009091C00397FD08C061E00E94740760E0BD
:104520008091BF030E94460781E08093BA03C12CAB
:10453000D12C7601B701A60181E090E00E947B05B5
:10454000B701A60182E090E00E947B05B701A601B9
:1045500083E090E00E947B05B701A60184E090E033
:104560000E947B050E94330865E070E080E090E0E7
:104570000E9412095FEFC51AD50AE50AF50A8AEF0B
:10458000C816D104E104F104A9F6B701A60181E03F
:1045900090E00E947B05B701A60182E090E00E94B6
:1045A0007B05B701A60183E090E00E947B05B7017F
:1045B000A60184E090E00E947B050E94330865E03C
:1045C00070E080E090E00E94120991E0C91AD108E1
:1045D000E108F108E4E6CE16D104E104F104A9F6FD
:1045E00061E08DE00E9446076DE471E080E090E0BC
:1045F0000E94120960E08DE00E94460761E089E0B8
:104600000E94460740E050E06FEF70E090E080E0ED
:104610000E947B050E9433086DE471E080E090E029
:104620000E94120960E089E00E94460761E08AE08A
:104630000E94460740E05FEF60E070E090E080E0BD
:104640000E947B050E9433086DE471E080E090E0F9
:104650000E94120960E08AE00E94460761E08BE058
:104660000E9446074FEF50E060E070E090E080E08D
:104670000E947B050E9433086DE471E080E090E0C9
:104680000E94120960E08BE00E94460740E050E083
:10469000BA0190E080E00E947B050E943308C1E0EF
:1046A000D0E0D093EE03C093ED03D093EC03C0931E
:1046B000EB030E94061C1092E8031092E703D093CC
:1046C000EA03C093E90380EB91E00E94BD1C1092C5
:1046D000E8031092E70380E190E09093EA0380936F
:1046E000E9038FEB91E00E94BD1C1092E803109249
:1046F000E7038FE190E09093EA038093E9038DEC68
:1047000091E00E94BD1C1092E8031092E7038EE234
:1047100090E09093EA038093E90389ED91E00E9491
:10472000BD1CEE24E394F12C05E010E020E830E01D
:1047300049E050E070E060E08BED93E00E94B20E43
:1047400020E830E048E150E070E060E08BED93E07D
:104750000E94B20E20E830E047E250E070E060E0F6
:104760008BED93E00E94B20E20E830E046E350E08B
:1047700070E060E08BED93E00E94B20E0E94B215F3
:1047800068EE73E080E090E00E94120961E08EE73D
:1047900093E00E94F81164EF71E080E090E00E94E5
:1047A000120907E010E0CFEFD0E084E00E941D077F
:1047B00061E0892B09F460E08DE00E94460786E005
:1047C0000E941D0761E0892B09F460E089E00E94E6
:1047D000460788E00E941D0761E0892B09F460E02C
:1047E0008AE00E94460785E00E941D0761E0892B50
:1047F00009F460E08BE00E94460787E00E941D07F5
:1048000061E0892B09F460E082E00E94460762E3E0
:1048100070E080E090E00E9412098FE00E94B007F3
:10482000BC01990F880B990B0E94A82920E030EC5D
:104830004FE754E40E94FE2820E030E048EC52E4C8
:104840000E94342A0E9470292B0181E10E94B00746
:10485000BC01990F880B990B0E94A82920E030EC2D
:104860004FE754E40E94FE2820E030E048EC52E498
:104870000E94342A0E9470294B0180E10E94B007F7
:10488000BC01990F880B990B0E94A82920E030E009
:1048900040E05EE30E94342A20E030E040EB51E447
:1048A0000E9491280E9470296B0167EE71E081EEF1
:1048B00092E00E94D01CB20181EE92E00E94831C23
:1048C0006BEE71E081EE92E00E94D01CB40181EEAB
:1048D00092E00E94831C62EF71E081EE92E00E9400
:1048E000D01CB60181EE92E00E94831C69EF71E05A
:1048F00081EE92E00E94D01C40E060E08EE793E001
:104900000E94301267EE71E08EE793E00E94D01CA7
:10491000B2018EE793E00E94831C6DEF71E08EE799
:1049200093E00E94D01C40E068E08EE793E00E9494
:1049300030126EEE71E08EE793E00E94D01CB4015D
:104940008EE793E00E94831C6DEF71E08EE793E0A9
:104950000E94D01C41E060E08EE793E00E9430129C
:1049600065EF71E08EE793E00E94D01CB6018EE700
:1049700093E00E94831C6FED8EE793E00E94571234
:1049800061E072E08EE793E00E94D01C8FE00E940D
:10499000B007BC01990F880B990B0E94A82920E051
:1049A00030E040E85AE30E94342A20E030E048EC4E
:1049B00052E40E94342A0E94702981E090E00E9413
:1049C000EB0F81E10E94B007BC01990F880B990B96
:1049D0000E94A82920E030E040E85AE30E94342AEF
:1049E00020E030E048EC52E40E94342A0E94702912
:1049F00082E090E00E94EB0F8EE00E94B007BC01C5
:104A0000990F880B990B0E94A82920E030E040E81C
:104A10005AE30E94342A20E030E048EC52E40E943D
:104A2000342A0E94702983E090E00E94EB0F80E11D
:104A30000E94B007BC01990F880B990B0E94A8290E
:104A400020E030E040E85AE30E94342A20E030E0E1
:104A500048EC52E40E94342A0E94702984E090E0DD
:104A60000E94EB0F0E94B2158FE00E94B007BC01BC
:104A7000990F880B990B0E94A82920E030E04AEC9E
:104A800052E40E94FE280E947029912C812C6A5FBA
:104A90007E4FFB01E080F12CAA24A394B12CC80125
:104AA00088199909670102C0D594C7948A95E2F7DD
:104AB000F1E0CF22DD2489E00E94F318B501082C33
:104AC00001C0660F0A94EAF7CD2809F4BCC2682B2E
:104AD00089E00E943C152FEF821A920A38E0831673
:104AE0009104E9F68FE00E94B007853541E0940714
:104AF0000CF0ACC29C01220F331F820F931F97FD55
:104B0000039695958795959587959E01281B390B5A
:104B100030938902209388029093870280938602C3
:104B200081E090E0909385028093840280918802D6
:104B30004091860250E070E060E0762F652F542FA0
:104B40004427682B80918402482B90E080E00E94EB
:104B50007B050E9433088091AB030E941D077C01F6
:104B60004C01990FAA08BB088091B1039091B20340
:104B7000A091B303B091B40388169906AA06BB06A8
:104B8000B9F10E94C5074090AD035090AE0360900C
:104B9000AF037090B0039B01AC012419350946099D
:104BA000570929013A016093AD037093AE038093D6
:104BB000AF039093B0038092B1039092B203A0929E
:104BC000B303B092B4038E2D7A0169013CEBC31A92
:104BD00031E0D30AE108F1084AE7C41643E0D406FD
:104BE000E104F10408F06BC2811182E00E94FF072A
:104BF0008091B5039091B6030E9709F0D6CD209120
:104C0000B7033091B8031092B8031092B703109213
:104C1000B6031092B50333FB882780F98093830293
:104C2000C90146E0969587954A95E1F78F71809383
:104C30008202C9018095909556E0969587955A9580
:104C4000E1F780742F73822B8093810265E072E01C
:104C500081EE92E00E94D01C4091820250E070E010
:104C600060E02AE081EE92E00E94371C68E072E08A
:104C700081EE92E00E94D01C4091810250E070E0F1
:104C800060E02AE081EE92E00E94371C6CE072E066
:104C900081EE92E00E94D01C4091830250E070E0CF
:104CA00060E02AE081EE92E00E94371C61E971E049
:104CB00081EE92E00E94281C62E971E081EE92E0B0
:104CC0000E94D01C72CDB9016054710977FF02C0F7
:104CD0006F5F7F4F759567958255910997FD019696
:104CE00000E410E022E530E042E957E09595879531
:104CF0000E94EA1082E08093FD038091F803909176
:104D0000F903892B09F4A9C08CE38093FC030E946A
:104D1000F0128091F8039091F903892B09F45CC19A
:104D20002091100430911104409112045091130409
:104D300060E074E284EF90E00E94A12A20513109E2
:104D40004109510956954795379527952093B80005
:104D500064E08EEA95E00E9499146091E10361504D
:104D60008BED93E00E94551564E08AEA95E00E947D
:104D700099148091FD0360E1813009F064E18BEDCD
:104D800093E00E94551564E086EA95E00E9499142C
:104D90008FE8809318048091DF039091E0038038BE
:104DA000910509F032C18091E1039091E2038034D2
:104DB000910509F03AC18091FD03813009F023C1CA
:104DC0008FE980931804C2E16AED8BED93E00E94B5
:104DD00055156C2F8BED93E00E94551561E88BED16
:104DE00093E00E945515609118048BED93E00E94AA
:104DF000551569ED8BED93E00E9455158091FD03EB
:104E000062E2813009F061EF8BED93E00E9455156D
:104E100066E080EA95E00E9499148091F8039091F1
:104E2000F903892B09F405C120911404309115046C
:104E3000409116045091170460E074E284EF90E012
:104E40000E94A12A205131094109510956954795DF
:104E5000379527952093B8004BCB61E080910104F2
:104E60000E94740761E0809102040E94740780919F
:104E70000104082E000C990BFC01EB58F54FE4914E
:104E8000F0E0EE0FFF1FE559F54F25913491309377
:104E9000090420930804FC01E95AF54FE491E093DA
:104EA0000E0480910204082E000C990BFC01EB58B3
:104EB000F54FE491F0E0EE0FFF1FE559F54FA59196
:104EC000B491B0930B04A0930A04FC01E95AF54F86
:104ED000E491E0930F048C91E82BEC938091F6031E
:104EE0009091F703892B09F434C0CFB7F8948091DF
:104EF0008002811127C0EFE7FAE08491E1E6FAE051
:104F00009491E82FF0E0EE0FFF1FEA56FA4FA591BB
:104F1000B491EC91E92321F461E08AE00E94460714
:104F200061E08AE00E9474078CB580618CBD8CB50D
:104F300080648CBD61E08DE00E94740761E08BE0CD
:104F40000E947407809180028F5F80938002CFBFA0
:104F5000E0CE61E08091FF030E94740761E08091E0
:104F600000040E9474078091FF03082E000C990B27
:104F7000FC01EB58F54FE491F0E0EE0FFF1FE5590F
:104F8000F54F259134913093050420930404FC01DE
:104F9000E95AF54FE491E0930C0480910004082E47
:104FA000000C990BFC01EB58F54FE491F0E0EE0F8B
:104FB000FF1FE559F54FA591B491B0930704A09355
:104FC0000604FC01E95AF54FE491E0930D048C913D
:104FD000E095E823EC939DCE8091F6039091F70342
:104FE000892B31F08091190490911A040E94A20B30
:104FF000E0910A04F0910B04908180910F04809558
:1050000089238083A5CE8FECDCCE8036910569F4B0
:105010008091E1039091E203409739F48091FD0380
:10502000813029F480E180931804C2E0CDCE8FEA6C
:10503000FACFE0910A04F0910B04808190910F0463
:10504000892B808355CA6095682342CD8A3A52E005
:105050009507CCF4855591409C01220F331F820F98
:10506000931F959587959595879521E030E030932E
:105070008902209388029E01281B390B30938702F6
:10508000209386024FCD8B5A92409C01220F331FF2
:10509000820F931F97FD0396959587959595879514
:1050A000909389028093880221E030E03093870258
:1050B00020938602FE01E81BF90BCF0133CDB3012B
:1050C000A2014653554061097109493753406105B2
:1050D000710530F4882311F086E088CD84E086CD18
:1050E0000E94EA0785CD8091C2039091C3030E947C
:1050F000652B8091BF039091C00397FD03C060E0D2
:105100000E94740789E691E09093DC038093DB03AF
:105110008091FA039091FB03009711F00C94652B9A
:1051200008955058BB27AA270E94A9280C94FA2951
:105130000E94EC2938F00E94F32920F039F49F3FB7
:1051400019F426F40C94E9290EF4E095E7FB0C948D
:10515000E329E92F0E940B2A58F3BA176207730755
:105160008407950720F079F4A6F50C942D2A0EF407
:10517000E0950B2EBA2FA02D0B01B90190010C0167
:10518000CA01A0011124FF27591B99F0593F50F47F
:10519000503E68F11A16F040A22F232F342F4427D7
:1051A000585FF3CF469537952795A795F0405395CF
:1051B000C9F77EF41F16BA0B620B730B840BBAF09F
:1051C0009150A1F0FF0FBB1F661F771F881FC2F70A
:1051D0000EC0BA0F621F731F841F48F4879577951E
:1051E0006795B795F7959E3F08F0B0CF9395880FD8
:1051F00008F09927EE0F9795879508950E94122938
:105200000C94FA290E94F32958F00E94EC2940F0EE
:1052100029F45F3F29F00C94E32951110C942E2AB4
:105220000C94E9290E940B2A68F39923B1F35523C2
:1052300091F3951B550BBB27AA27621773078407A9
:1052400038F09F5F5F4F220F331F441FAA1FA9F33F
:1052500035D00E2E3AF0E0E832D091505040E6952D
:10526000001CCAF72BD0FE2F29D0660F771F881F8E
:10527000BB1F261737074807AB07B0E809F0BB0B81
:10528000802DBF01FF2793585F4F3AF09E3F510595
:1052900078F00C94E3290C942E2A5F3FE4F3983EB7
:1052A000D4F3869577956795B795F7959F5FC9F77E
:1052B000880F911D9695879597F90895E1E0660FFF
:1052C000771F881FBB1F621773078407BA0720F078
:1052D000621B730B840BBA0BEE1F88F7E0950895E1
:1052E0000E9477296894B1110C942E2A08950E9487
:1052F000132A88F09F5798F0B92F9927B751B0F02B
:10530000E1F0660F771F881F991F1AF0BA95C9F749
:1053100014C0B13091F00E942D2AB1E008950C9490
:105320002D2A672F782F8827B85F39F0B93FCCF343
:10533000869577956795B395D9F73EF490958095C6
:10534000709561957F4F8F4F9F4F0895E89409C0E6
:1053500097FB3EF490958095709561957F4F8F4FA8
:105360009F4F9923A9F0F92F96E9BB279395F695BE
:10537000879577956795B795F111F8CFFAF4BB0F3C
:1053800011F460FF1BC06F5F7F4F8F4F9F4F16C0A0
:10539000882311F096E911C0772321F09EE8872F2A
:1053A000762F05C0662371F096E8862F70E060E0E6
:1053B0002AF09A95660F771F881FDAF7880F96955F
:1053C000879597F9089597F99F6780E870E060E006
:1053D00008959FEF80EC089500240A94161617068E
:1053E00018060906089500240A94121613061406D6
:1053F00005060895092E0394000C11F4882352F039
:10540000BB0F40F4BF2B11F460FF04C06F5F7F4FF0
:105410008F4F9F4F089557FD9058440F551F59F0D7
:105420005F3F71F04795880F97FB991F61F09F3F91
:1054300079F087950895121613061406551FF2CFBA
:105440004695F1DF08C0161617061806991FF1CF0A
:1054500086957105610508940895E894BB27662731
:105460007727CB0197F908950E94472A0C94FA29CF
:105470000E94EC2938F00E94F32920F0952311F0C6
:105480000C94E3290C94E92911240C942E2A0E94EF
:105490000B2A70F3959FC1F3950F50E0551F629F43
:1054A000F001729FBB27F00DB11D639FAA27F00D7D
:1054B000B11DAA1F649F6627B00DA11D661F829FA4
:1054C0002227B00DA11D621F739FB00DA11D621F89
:1054D000839FA00D611D221F749F3327A00D611DA6
:1054E000231F849F600D211D822F762F6A2F112488
:1054F0009F5750409AF0F1F088234AF0EE0FFF1FBB
:10550000BB1F661F771F881F91505040A9F79E3F11
:10551000510580F00C94E3290C942E2A5F3FE4F3AC
:10552000983ED4F3869577956795B795F795E79567
:105530009F5FC1F7FE2B880F911D9695879597F970
:105540000895A1E21A2EAA1BBB1BFD010DC0AA1FC4
:10555000BB1FEE1FFF1FA217B307E407F50720F0DC
:10556000A21BB30BE40BF50B661F771F881F991F57
:105570001A9469F760957095809590959B01AC01A0
:10558000BD01CF010895EE0FFF1F0590F491E02DAE
:1055900009940F931F93CF93DF938230910510F4FA
:1055A00082E090E0E0911D04F0911E0430E020E0E4
:1055B000B0E0A0E0309799F42115310509F44AC014
:1055C000281B390B24303105D8F58A819B81611560
:1055D000710589F1FB0193838283FE0111C0408133
:1055E00051810281138148175907E0F04817590784
:1055F00099F4109761F012960C93129713961C93DE
:105600003296CF01DF91CF911F910F9108950093B2
:105610001D0410931E04F4CF2115310551F04217DB
:10562000530738F0A901DB019A01BD01DF01F80140
:10563000C1CFEF01F9CF90931E0480931D04CDCF0D
:10564000FE01E20FF31F81939193225031093983B8
:105650002883D7CF20911B0430911C04232B41F4C5
:10566000209102013091030130931C0420931B040C
:1056700020910001309101012115310541F42DB730
:105680003EB74091040150910501241B350BE09178
:105690001B04F0911C04E217F307A0F42E1B3F0B30
:1056A0002817390778F0AC014E5F5F4F2417350794
:1056B00048F04E0F5F1F50931C0440931B048193CE
:1056C00091939FCFF0E0E0E09CCFCF93DF930097E2
:1056D000E9F0FC01329713821282A0911D04B0916F
:1056E0001E04ED0130E020E01097A1F4208131810B
:1056F000820F931F20911B0430911C042817390737
:1057000009F061C0F0931C04E0931B04DF91CF917A
:105710000895EA01CE17DF07E8F54A815B819E0113
:1057200041155105B1F7E901FB83EA83499159918C
:10573000C40FD51FEC17FD0761F48081918102969B
:10574000840F951FE90199838883828193819B83CC
:105750008A83F0E0E0E012968D919C911397009778
:10576000B9F52D913C911197CD010296820F931FAF
:1057700020911B0430911C042817390739F6309703
:1057800051F510921E0410921D04B0931C04A093B6
:105790001B04BCCFD383C28340815181840F951FEA
:1057A000C817D90761F44E5F5F4F88819981480F10
:1057B000591F518340838A819B8193838283211562
:1057C000310509F0B0CFF0931E04E0931D049ECF85
:1057D000FD01DC01C0CF13821282D7CF81E090E0BF
:1057E000F8940C94FA2BDC0101C06D9341505040A9
:1057F000E0F7089515E0C6E4D5E004C0FE010E947C
:0E580000C32A2196C734D107C9F7F894FFCF09
:10580E0000001F048000FC60DAF266B6BEE0FEF611
:10581E006101919BFB000000008706E7051406D48A
:10582E0006450623063706000000007E135113A816
:10583E0012E6054A1337132813000000005712E72B
:10584E0005A8122618A812A512261CA212A2120032
:10585E000000005712E705A8122618271A2019B6BD
:10586E00178217A21200000000E00DE705A812260D
:10587E0018EB0AE605E310BB10D710CB104B11E660
:10588E0005A60BCE165B0AA40AA60F890F110FB23E
:10589E000E0D0A002057656C636F6D6520746F00E6
:1058AE0020544D4520454455434154494F4E200008
:1058BE00504F54454E54494F4D455445523A004C65
:1058CE00494748542053454E534F523A004D494391
:1058DE00524F50484F4E453A0054454D502E20538E
:1058EE00454E534F523A00523A2000252C204C3A46
:1058FE002000252C20543A20002A430A002520207F
:10590E000043202000413A00204B3A0020543A0038
:00000001FF
