:100000000C94470D0C946F0D0C946F0D0C946F0DA8
:100010000C946F0D0C946F0D0C946F0D0C946F0D70
:100020000C946F0D0C946F0D0C946F0D0C946F0D60
:100030000C946F0D0C946F0D0C946F0D0C946F0D50
:100040000C946D210C946F0D0C946F0D0C946F0D2E
:100050000C946F0D0C946F0D0C946F0D0C946F0D30
:100060000C94B7210C946F0D000103070F1F3F7F05
:100070000080C0E0F0F8FCFE00000000003E5B4F96
:100080005B3E3E6B4F6B3E1C3E7C3E1C183C7E3CF8
:10009000181C577D571C1C5E7F5E1C00183C180006
:1000A000FFE7C3E7FF0018241800FFE7DBE7FF3096
:1000B000483A060E2629792926407F050507407F04
:1000C00005253F5A3CE73C5A7F3E1C1C08081C1C77
:1000D0003E7F14227F22145F5F005F5F06097F016D
:1000E0007F006689956A606060606094A2FFA29458
:1000F00008047E040810207E201008082A1C080826
:100100001C2A08081E101010100C1E0C1E0C303873
:100110003E3830060E3E0E06000000000000005F74
:1001200000000007000700147F147F14242A7F2A90
:100130001223130864623649562050000807030052
:10014000001C2241000041221C002A1C7F1C2A089E
:10015000083E080800807030000808080808000001
:1001600060600020100804023E5149453E00427F75
:10017000400072494949462141494D331814127FC4
:100180001027454545393C4A494931412111090764
:100190003649494936464949291E000014000000E5
:1001A00040340000000814224114141414140041B7
:1001B00022140802015909063E415D594E7C121174
:1001C000127C7F494949363E414141227F414141AC
:1001D0003E7F494949417F090909013E4141517327
:1001E0007F0808087F00417F41002040413F017F98
:1001F000081422417F404040407F021C027F7F0460
:1002000008107F3E4141413E7F090909063E4151A8
:10021000215E7F09192946264949493203017F0198
:10022000033F4040403F1F2040201F3F4038403F99
:10023000631408146303047804036159494D4300AF
:100240007F4141410204081020004141417F0402E6
:10025000010204404040404000030708002054547D
:1002600078407F284444383844444428384444285B
:100270007F385454541800087E090218A4A49C78AE
:100280007F0804047800447D40002040403D007F0A
:100290001028440000417F40007C047804787C08EA
:1002A0000404783844444438FC18242418182424BE
:1002B00018FC7C08040408485454542404043F44A3
:1002C000243C4040207C1C2040201C3C4030403CD2
:1002D00044281028444C9090907C4464544C440032
:1002E0000836410000007700000041360800020196
:1002F0000204023C2623263C1EA1A161123A404082
:10030000207A3854545559215555794122545478FE
:1003100042215554784020545579400C1E52721297
:100320003955555559395454545939555454580020
:1003300000457C410002457D420001457C407D1224
:1003400011127DF0282528F07C5455450020545486
:100350007C547C0A097F4932494949323A44444431
:100360003A324A4848303A4141217A3A424020786C
:10037000009DA0A07D3D4242423D3D4040403D3C6D
:1003800024FF2424487E4943662B2FFC2F2BFF0992
:1003900029F620C0887E0903205454794100004486
:1003A0007D413048484A32384040227A007A0A0A71
:1003B000727D0D19317D2629292F282629292926E4
:1003C00030484D4020380808080808080808382F29
:1003D00010C8ACBA2F102834FA00007B00000814B3
:1003E0002A142222142A14085500550055AA55AA89
:1003F00055AAFF55FF55FF000000FF00101010FF29
:1004000000141414FF001010FF00FF1010F010F083
:10041000141414FC001414F700FF0000FF00FF1474
:1004200014F404FC141417101F10101F101F1414C0
:10043000141F00101010F0000000001F101010100A
:100440001F10101010F010000000FF1010101010FE
:1004500010101010FF10000000FF140000FF00FF3C
:1004600000001F10170000FC04F4141417101714D8
:1004700014F404F40000FF00F714141414141414FA
:10048000F700F7141414171410101F101F1414146D
:10049000F4141010F010F000001F101F0000001FD7
:1004A00014000000FC140000F010F01010FF10FF0A
:1004B000141414FF141010101F00000000F010FF9F
:1004C000FFFFFFFFF0F0F0F0F0FFFFFF0000000083
:1004D00000FFFF0F0F0F0F0F3844443844FC4A4A07
:1004E0004A347E02020606027E027E0263554941BC
:1004F000633844443C04407E201E2006027E0202F3
:1005000099A5E7A5991C2A492A1C4C7201724C3006
:100510004A4D4D303048784830BC625A463D3E49DD
:100520004949007E0101017E2A2A2A2A2A44445F81
:10053000444440514A444040444A51400000FF0175
:1005400003E080FF000008086B6B08361236243683
:10055000060F090F060000181800000010100030E8
:1005600040FF0101001F01011E00191D1712003C70
:100570003C3C3C000000000000000000230026007E
:100580002900000000080002010000030407000029
:1005900000000000000000000000240027002A00E6
:1005A000DB40A4A62EAF2000A1C8D300408DAED55D
:1005B00080A80000600000000000000000000000B3
:1005C000000000E00000000000000000000000004B
:1005D0000001E0000000000000000000000000003A
:1005E00001F0000000000000000000000000000317
:1005F000F00000000000000000000000000007F014
:100600000000000000000000000000000007F800EB
:100610000000000000000000000000000FF80000D3
:100620000003C0007E000001E0007F0FF800000022
:1006300003C000FE000001E000FFEFF8000000032F
:10064000C000FE000001E000FFFFF800000003C052
:1006500000F00000000F007FFE7FC0000003C0001C
:10066000F00000000F003FFE7FF83FF1FBCFFCFEE3
:10067000F3BC3DEFE01FFE7FFF7FFBFFDFFEFEFFD1
:10068000BC3DEFE01FC6FFFF7FFBFFDFFEFEFFBCB0
:100690003DEFE00FE3C7FE787BC3DE1EF0FFBC3DFD
:1006A000EF0007FF87FC787BC3DE1EF0F83C3DEFD0
:1006B0000001FFFFF0007BC3C01EF0F03C3DEF00E7
:1006C00001F37FE03FFBC3CFFEF0F03C3DEF0003C2
:1006D000E33F807FFBC3DFFEF0F03C3DEF0007E728
:1006E0003C00787BC3DE1EF0F03C3DEF0007FFBE10
:1006F00000787BC3DE1EF0F03C3DEF0007FFFE00FC
:10070000787BC3DE1EF0F03C3DEF000FFFFE007F64
:10071000FBFFDFFEF0F03FFDEFE00FFFFF007FFB90
:10072000FFDFFEF0F03FFDEFE00FF9FF003E79F94B
:10073000CF9EF0F01F3DE7E01FF1FF00000000003A
:10074000000000000000001F80FF007FFFFFFFFF90
:10075000FFFFFFFFFFE01C007F007FFFFFFFFEB4F5
:100760006D888D18E000001F007FFFFFFFFE95AD34
:100770007DB577E000000F007FFFFFFFFEA5AD9D78
:100780008D19E0000006007FFFFFFFFEB5ADEDB55F
:100790007EE000000000000180000000000000007A
:1007A0000000038000000000000000000007C000FF
:1007B000000000000000000007C000000000000072
:1007C0000000000FC00000000000000000001FE05B
:1007D0000000000000000000001FE000000000001A
:1007E000000000003FE00000000000000000003FAB
:1007F000F00000000000000000007FF0000000009A
:100800000000001FF87FF0000000000000003FFE25
:100810007FF0000000000000003FFF7FF0000000BC
:10082000000000001FFFFBE0000000000000000FC0
:10083000FFF9FFC00000000000000FFFF9FFF80003
:10084000000000000007FFF1FFFF000000000000B3
:1008500003FC73FFFF80000000000001FE3FFFFF6C
:1008600080000000000000FF1E0FFF0000000000DD
:1008700000007FFE1FFC000000000000003FFFFFA3
:10088000F8000000000000000FDFFFE000000000A3
:100890000000001F19FFC0000000000000003F3CE6
:1008A000FF00000000000000007E7CF80000000057
:1008B000000000007FFE7C0000000000000000FF40
:1008C000FFFC0000000000000000FFFFFE00000031
:1008D0000000000000FFFFFE00000000000000011B
:1008E000FFEFFE0000000000000001FFCFFE00004F
:1008F000000000000003FF07FE00000000000000F1
:1009000003FC07FE0000000000000003F003FE00EF
:10091000000000000000018000FE00000000000058
:10092000000000007E000000000000000000003E0B
:10093000000000000000000000000C0000000000AB
:1009400000078000FC000003C0000000078001FCDD
:10095000000003C0000000078001FC000003C0008D
:100960000000078001E00000001E00000007800179
:10097000E00000001E007FE3F79FF9FDE7787BDFD2
:10098000C0FFF7FFBFFDFDFF787BDFC0FFF7FFBFB4
:10099000FDFDFF787BDFC0F0F787BC3DE1FF787B92
:1009A000DE00F0F787BC3DE1F0787BDE0000F787E2
:1009B000803DE1E0787BDE007FF7879FFDE1E07816
:1009C0007BDE00FFF787BFFDE1E0787BDE00F0F71C
:1009D00087BC3DE1E0787BDE00F0F787BC3DE1E0DD
:1009E000787BDE00F0F787BC3DE1E0787BDE00FF3E
:1009F000F7FFBFFDE1E07FFBDFC0FFF7FFBFFDE1D9
:100A0000E07FFBDFC07CF3F39F3DE1E03E7BCFC0A6
:100A10000000000000000000000000FFFFFFFFFFDB
:100A2000FFFFFFFFFFC0FFFFFFFFFD68DB111A3173
:100A3000C0FFFFFFFFFD2B5AFB6AEFC0FFFFFFFF68
:100A4000FD4B5B3B1A33C0FFFFFFFFFD6B5BDB6AB7
:100A5000FDC02200FF210000000000000000000097
:100A60000000000000000000000000000000000086
:100A70000000000008000000000000001800000056
:100A8000000000101000000000000018100000001E
:100A90000000000810000000000000041003C00067
:100AA00000000002000E00000000060300780000B5
:100AB000000003807E00000000000081FF000000B5
:100AC00000000043FF80000000000027FFC000007E
:100AD0000000000FFFE000000000000FFFE000003A
:100AE0000000001FFFF3F80000001FDFFFF0000010
:100AF0000000001FFFF000000000001FFFF00000DA
:100B000001FC07CFFFF0000007FF0FEFFFE0000040
:100B10000FFF9FF7FFC000001FFFFFFBFFC000009B
:100B20003FFFFFFDFF8600007FFFFFFEFF03001F6A
:100B3000FFFFFFFF3C01803FFFFFFFFFC000807F02
:100B4000FFFFFFFFF00040FFFFFFFFFFF18040FFCE
:100B5000FFFFFFFFF08060FFFFFFFFFFE0C020FF0F
:100B6000FFFFFFFFC04000FFFFFFFFFFC04000FF8F
:100B7000FFFFFFFF8060007FFFFFFFFF8000003F5F
:100B8000FFFFFFFF0000001FFFFFFFFE0000000F40
:100B9000FFFFFFFC0000000FFFFFFFFC000000074D
:100BA000FFF8FFF0000000003FE01FC00000000061
:100BB0000000000000000000000000000000000035
:100BC0000000000000000000000000000000000025
:100BD0000000000000000000000000000000000015
:100BE0000000000000000000000000000000000005
:100BF00000000000000000000000000000000000F5
:100C000000000000000000000000000000000000E4
:100C100000000000000000000000000000000000D4
:100C200000000000000000000000000000000000C4
:100C300000000000000000000000000000000000B4
:100C400000000000000000000000000000000000A4
:100C50000000000000000000000000000000000094
:100C60000000000000000000000000001000000074
:100C70000000000030000000000000002000000024
:100C80000000008020000000000000C020060000DE
:100C900000000040201C0000000000402030000048
:100CA0000000004020400000000000200080000004
:100CB000000000307E00000000000011FF00000076
:100CC00000000003FF80080000000007FFC0F800DC
:100CD0000000000FFFE7800000007C0FFFE0000035
:100CE0000000079FFFF00000000000DFFFF00000A1
:100CF0000000001FFFF000000000001FFFF00000D8
:100D000001FC07CFFFF0000007FF0FEFFFE7000037
:100D10000FFF9FF7FFC180001FFFFFFBFFC06000B8
:100D20003FFFFFFDFF8030007FFFFFFEFF00101F31
:100D3000FFFFFFFF3C00003FFFFFFFFFC020007FE1
:100D4000FFFFFFFFF03000FFFFFFFFFFF01000FF8D
:100D5000FFFFFFFFF01000FFFFFFFFFFE00C00FFB1
:100D6000FFFFFFFFC00400FFFFFFFFFFC00600FF03
:100D7000FFFFFFFF8002007FFFFFFFFF8000003FBB
:100D8000FFFFFFFF0000001FFFFFFFFE0000000F3E
:100D9000FFFFFFFC0000000FFFFFFFFC000000074B
:100DA000FFF8FFF0000000003FE01FC0000000005F
:100DB0000000000000000000000000000000000033
:100DC0000000000000000000000000000000000023
:100DD0000000000000000000000000000000000013
:100DE0000000000000000000000000000000000003
:100DF00000000000000000000000000000000000F3
:100E000000000000000000000000000000000000E2
:100E100000000000000000000000000000000000D2
:100E200000000000000000000000000000000000C2
:100E300000000000000000000000000000000000B2
:100E400000000000000000000000000000000000A2
:100E50000000000000000000000000000000000092
:100E6000000000001F00000001FFC001FF80000023
:100E700007FFE01FFF8000001FFFF03FFFF80000AA
:100E80001FFFF87FFFFC00003FFFF0FFFFFF0000A7
:100E90007FFFE7FFFFFF8001FFFF8FFFFFFFC0071E
:100EA000FFFFFFFFFFFFC00FFFFFFFFFFFFFE01F80
:100EB000FFFFFFFFFFFFE01FFFFFFFFFFFFFE03F20
:100EC000FFFFFFFFFFFFF03FFFFFFFFFFFFFF03FD0
:100ED000FFFFFFFFFFFFF03FFFFFFFFFFFFFF03FC0
:100EE000FFFFFFFFFFFFF03FFFFFFFFFFFFFF01FD0
:100EF000FFFFFFFFFFFFF01FFFFFFFFFFFFFE00F00
:100F0000FFFFFFFFFFFFC007FFFFFFFFFFFF8001A5
:100F1000FFFC07F80FFF00001FF0400003FC00007B
:100F200000004000000000000080400108000000B8
:100F3000408040810800000040800081081080004F
:100F400040800081081080000800008000108000B0
:100F50000808000000008000080800000000800071
:100F60000808000000000000000800000000000069
:100F700000000040040000000040404004088000E1
:100F8000004040400408800040404042000880008B
:100F90004040000200088000400200020000800083
:100FA0004002000220000000000210022040000069
:100FB000020010002040000002001020204200002B
:100FC00002000020204200004010022000420000E9
:100FD00040100220000200004010822000020000A9
:100FE0000410820020000000040082002010000095
:100FF0000400800022100000040000000210000025
:1010000000000008020000000000000800000000CE
:10101000200000080000000021081080800200006D
:1010200021081080800200000108108080820000EA
:101030000108100080820000000010008080000085
:101040000000000000800000000000000000000020
:101050000000000000000000000000000000000090
:10106000000000001F00000001FFC001FF80000021
:1010700007FFE01FFF8000001FFFF03FFFF80000A8
:101080001FFFF87FFFFC00003FFFF0FFFFFF0000A5
:101090007FFFE7FFFFFF8001FFFF8FFFFFFFC0071C
:1010A000FFFFFFFFFFFFC00FFFFFFFFFFFFFE01F7E
:1010B000FFFFFFFFFFFFE01FFFFFFFFFFFFFE03F1E
:1010C000FFFFFFFFFFFFF03FFFFFFFFFFFFFF03FCE
:1010D000FFFFFFFFFFFFF03FFFFFFFFFFFFFF03FBE
:1010E000FFFFFFFFFFFFF03FFFFFFFFFFFFFF01FCE
:1010F000FFFFFFFFFFFFF01FFFFFFFFFFFFFE00FFE
:10110000FFFFFFFFFFFFC007FFFFFFFFFFFF8001A3
:10111000FFFC07F80FFF00001FF0000003FC0000B9
:1011200000000000000000000000000000000000BF
:1011300000001001000000000420100100800000E9
:101140000420100100800000042000400080000006
:101150000400004000800000040200408081000084
:1011600000020040800100002022100080010000E9
:101170002020100080010000202010000401000049
:101180000020100804200000000000880420000057
:101190000402008800200000040220884020000093
:1011A0000422208040000000002020204001000098
:1011B000002024240081000000000424108100008D
:1011C0000100040410810000010844001000000028
:1011D000010840000000000000084000000000007E
:1011E00010080000800800001000041084080000AF
:1011F00011000410840800000100041084000000A5
:10120000010100100040000000010000004000004B
:101210000009100008420000100810000802000039
:1012200010081002080200000028008200220000BE
:101230000020408200200000042040022020000006
:1012400004204000200000000400000020000000F6
:10125000000000000000000000000000000000008E
:10126000000000001F00000001FFC001FF8000001F
:1012700007FFE01FFF8000001FFFF03FFFF80000A6
:101280001FFFF87FFFFC00003FFFF0FFFFFF0000A3
:101290007FFFE7FFFFFF8001FFFF8FFFFFFFC0071A
:1012A000FFFFFFFFFFFFC00FFFFFFFFFFFFFE01F7C
:1012B000FFFFFFFFFFFFE01FFFFFFFFFFFFFE03F1C
:1012C000FFFFFFFFFFFFF03FFFFFFFFFFFFFF03FCC
:1012D000FFFFFFFFFFFFF03FFFFFFFFFFFFFF03FBC
:1012E000FFFFFFFFFFFFF03FFFFFFFFFFFFFF01FCC
:1012F000FFFFFFFFFFFFF01FFFFFFFFFFFFFE00FFC
:10130000FFFFFFFFFFFFC007FFFFFFFFFFFF8001A1
:10131000FFFC07F80FFF00001FF0000003FC0000B7
:1013200000000000000000000000000000000000BD
:1013300000000000000000000000000000000000AD
:1013400001FF80000000000003FF8000000000009B
:1013500003FF00000000000007FF00000FF0000086
:101360000FFE00001FE000001FFC00003FC0000057
:101370001FF800007FC000003FF80000FF80000061
:101380007FF00001FF0000007FF00003FE0000007E
:10139000FFFFF807FC000001FFFFF80FFC00000151
:1013A000FFFFF81FFFF00003FFFFF83FFFE000031F
:1013B000FFFFF03FFFC00003FFFFE07FFF80000062
:1013C000001FC07FFF000000003F80007E00000083
:1013D000007F0000FC000000007E0000F80000001C
:1013E00000FC0000F000000000F80001E000000038
:1013F00001F00001C000000003E0000180000000D7
:1014000007C00001000000000F8000000000000085
:101410000F000000000000001E000000000000009F
:1014200018000000000000000000000000000000A4
:1014300000000000000000000000000000000000AC
:10144000000000000000000000000000000000009C
:10145000000000000000000000000000000000008C
:10146000000000001F00000001FFC001FF8000001D
:1014700007FFE01FFF8000001FFFF03FFFF80000A4
:101480001FFFF87FFFFC00003FFFF0FFFFFF0000A1
:101490007FFFE7FFFFFF8001FFFF8FFFFFFFC00718
:1014A000FFFFFFFFFFFFC00FFFFFFFFFFFFFE01F7A
:1014B000FFFFFFFFFFFFE01FFFFFFFFFFFFFE03F1A
:1014C000FFFFFFFFFFFFF03FFFFFFFFFFFFFF03FCA
:1014D000FFFFFFFFFFFFF03FFFFFFFFFFFFFF03FBA
:1014E000FFFFFFFFFFFFF03FFFFFFFFFFFFFF01FCA
:1014F000FFFFFFFFFFFFF01FFFFFFFFFFFFFE00FFA
:10150000FFFFFFFFFFFFC007FFFFFFFFFFFF80019F
:10151000FFFC07F80FFF00001FF0000003FC0000B5
:1015200000000000000000000000000000000000BB
:101530003FF00000000000007FF00000000000000D
:101540007FE0000000000000FFE00000000000015C
:10155000FFC0000000000003FF8000000000000347
:10156000FF00000000000007FF0000000000000F67
:10157000FE000001FE00000FFE000003FC00001F43
:10158000FFFF0007F800003FFFFF000FF800003FDB
:10159000FFFF001FF000007FFFFF003FE000007F23
:1015A000FFFE007FC000007FFFFC00FF8000000006
:1015B00003F801FF8000000007F003FFFE000000B9
:1015C0000FE007FFFC0000000FC007FFF80000005D
:1015D0001F800FFFF00000001F000FFFE000000061
:1015E0003E00000FC00000007C00001F80000000D3
:1015F000F800001F00000001F000001E00000001C4
:10160000E000003C00000003C000003800000003C0
:10161000000000300000000000000020000000007A
:1016200000000000000000000000000000000000BA
:1016300000000000000000000000000000000000AA
:10164000000000000000000000000000000000009A
:10165000000000000000000000000000000000008A
:10166000000000000000000000000000000000007A
:10167000000000000000000000000000000000006A
:101680000000000000000000000003C00000000097
:10169000000003C000000000000003C000000000C4
:1016A000000003C000000000000003C000000000B4
:1016B000000003C000000000000003C000000000A4
:1016C000000003C000000000000003C00000000094
:1016D000000003C000000000000003C00000000084
:1016E000000003C000000000001803C01800000044
:1016F000003C03C03C000000003E03C07C00000032
:10170000001F0000F8000000000F8001F000000042
:101710000007C3C3E000000000030FF0C00000009A
:1017200000013FFC8000000000007FFE0000000080
:1017300000007FFE000000000000FFFF000000002E
:101740000000FFFF00000003FFF9FFFF9FFFC00341
:10175000FFF9FFFF9FFFC003FFF9FFFF9FFFC003DB
:10176000FFF9FFFF9FFFC0000000FFFF0000000027
:101770000000FFFF0000000000007FFE00000000EE
:1017800000007FFE0000000000013FFC8000000020
:1017900000030FF0C00000000007C3C3E00000001A
:1017A000000F8001F0000000001F0000F8000000A2
:1017B000003E03C07C000000003C03C03C00000071
:1017C000001803C018000000000003C00000000063
:1017D000000003C000000000000003C00000000083
:1017E000000003C000000000000003C00000000073
:1017F000000003C000000000000003C00000000063
:10180000000003C000000000000003C00000000052
:10181000000003C000000000000003C00000000042
:10182000000003C0000000000000000000000000F5
:1018300000000000000000000000000000000000A8
:101840000000000000000000000000000000000098
:101850000000000000000000000000000000000088
:101860000000000000000000000000000000000078
:101870000000000000000000000000000000000068
:101880000000000000000000000000000000000058
:101890000000000000000000000000000000000048
:1018A0000000000000000000000000000000000038
:1018B00000000000000000000600000000600000C2
:1018C0000F0003C000F000000F8003C001F0000013
:1018D00007C003C003E0000003E003C007C000002E
:1018E00001F003C00F80000000F803C01F000000DB
:1018F000007C03C03E000000003E03C07C000000EE
:10190000001F0000F8000000000F8001F000000040
:101910000007C3C3E000000000030FF0C000000098
:1019200000013FFC8000000000007FFE000000007E
:1019300000007FFE000000000000FFFF000000002C
:101940000000FFFF0000000007F9FFFF9FE000001C
:1019500007F9FFFF9FE0000007F9FFFF9FE000008D
:1019600007F9FFFF9FE000000000FFFF00000000FC
:101970000000FFFF0000000000007FFE00000000EC
:1019800000007FFE0000000000013FFC800000001E
:1019900000030FF0C00000000007C3C3E000000018
:1019A000000F8001F0000000001F0000F8000000A0
:1019B000003E03C07C000000007C03C03E0000002D
:1019C00000F803C01F00000001F003C00F800000FA
:1019D00003E003C007C0000007C003C003E000002D
:1019E0000F8003C001F000000F0003C000F00000F2
:1019F0000600000000600000000000000000000081
:101A000000000000000000000000000000000000D6
:101A100000000000000000000000000000000000C6
:101A200000000000000000000000000000000000B6
:101A300000000000000000000000000000000000A6
:101A40000000000000000000000000000000000096
:101A50000000000000000001020408102040800186
:101A600002040810200102040810200000000025D4
:101A70000028002B000404040404040404020202ED
:101A800002020203030303030300D6226D2C112478
:101A90001FBECFEFD8E0DEBFCDBF23E0A4E0B2E0B1
:101AA00001C01D92A936B207E1F712E0A0E0B1E053
:101AB000EAE0F2E602C005900D92A430B107D9F732
:101AC0001DE0C6E4DDE004C02197FE010E94F42E73
:101AD000C534D107C9F70E942E240C94F8300C9419
:101AE000000091E09093D5028093D4021092D3022B
:101AF0001092D2020895089508950895AF92BF926A
:101B0000CF92DF92EF92FF920F931F93CF93DF93C9
:101B10006C017B018B01040F151FEB015E01AE18F8
:101B2000BF08C017D10759F06991D601ED91FC911A
:101B30000190F081E02DC6010995892B79F7C50147
:101B4000DF91CF911F910F91FF90EF90DF90CF9099
:101B5000BF90AF900895833081F028F4813099F0E0
:101B60008230A9F008958730A9F08830C9F0843018
:101B7000B1F4809180008F7D03C0809180008F77C9
:101B800080938000089584B58F7784BD089584B5CF
:101B90008F7DFBCF8091B0008F778093B000089548
:101BA0008091B0008F7DF9CFCF93DF93282F30E065
:101BB000F901EE57FA4F8491F901E95AF54ED491A3
:101BC000F901EB58F54EC491CC23A1F081110E948C
:101BD000AB0DEC2FF0E0EE0FFF1FE858FA4FA59188
:101BE000B491EC91ED2381E090E009F480E0DF9185
:101BF000CF91089580E090E0FACF1F93CF93DF93C9
:101C0000282F30E0F901EE57FA4F8491F901E95A93
:101C1000F54ED491F901EB58F54EC491CC23A9F0BF
:101C2000162F81110E94AB0DEC2FF0E0EE0FFF1F7D
:101C3000E559F54EA591B4918FB7F894EC91111137
:101C400008C0D095DE23DC938FBFDF91CF911F9129
:101C50000895DE2BF8CFCF93DF9390E0FC01E95A93
:101C6000F54E24918B58954EFC0184918823D1F038
:101C700090E0880F991FFC01EA56FA4FA591B491A4
:101C8000FC01E559F54EC591D49161110EC09FB785
:101C9000F8948C91E22FE0958E238C932881E22397
:101CA000E8839FBFDF91CF9108958FB7F894EC91AF
:101CB000E22BEC938FBFF6CF8E50806480937C0034
:101CC00080917A00806480937A0080917A0086FD0A
:101CD000FCCF809178009091790008953FB7F894F7
:101CE00080916A0290916B02A0916C02B0916D029A
:101CF00026B5A89B05C02F3F19F00196A11DB11D67
:101D00003FBFBA2FA92F982F8827BC01CD01620FA2
:101D1000711D811D911D42E0660F771F881F991F5D
:101D20004A95D1F708958F929F92AF92BF92CF922A
:101D3000DF92EF92FF924B015C010E946E0E6B01ED
:101D40007C010E946E0E6C197D098E099F09683E08
:101D5000734081059105A8F321E0821A9108A1083A
:101D6000B10888EEC80E83E0D81EE11CF11C811476
:101D70009104A104B10429F7FF90EF90DF90CF9078
:101D8000BF90AF909F908F9008958F929F92AF9247
:101D9000BF92EF92FF921F93CF93DF93EC01162F28
:101DA000E881F9810484F585E02D462F70E060E03C
:101DB00009957C0111501230D8F419861A8688884A
:101DC0009988AA88BB880E946E0E688F798F8A8F47
:101DD0009B8F8C8E9D8EAE8EBF8EC701DF91CF9173
:101DE0001F91FF90EF90BF90AF909F908F900895BC
:101DF0008C889D88AE88BF88E6CFDC0118968C91D0
:101E00001897681710F06FEF680F1B969C911B973F
:101E1000992391F017962C911797962F211106C0B0
:101E200061E0690F90E06817D8F7F7CF19961C9218
:101E300019971A966C931A97FD01E60FF11D6485A8
:101E40006068CD010C94C50E8F929F92AF92BF92A5
:101E5000EF92FF920F931F93CF93DF93EC01462FE6
:101E6000E881F9810484F585E02D61E070E0099551
:101E70007C018C889D88AE88BF880E946E0E688F1A
:101E8000798F8A8F9B8F8C8E9D8EAE8EBF8E01E058
:101E900010E0EF2811F010E000E08B85882391F02E
:101EA00089858F5F89879F81891760F019868A8568
:101EB0008F5F8A879885891708F01A866A85CE0110
:101EC0000E94FD0EC801DF91CF911F910F91FF90ED
:101ED000EF90BF90AF909F908F9008952091460211
:101EE000260F3327331F21323105ECF42091AA024B
:101EF000FC0190E080E0243069F082E00895A09138
:101F000046022191AC014A5D5D4FA40FB52FB11D72
:101F10002C930196861798F380914602680F609380
:101F2000460280E0089581E008951092AA0281E0BF
:101F30008093A9021092A40261E082E10E94FD0D4B
:101F400061E083E10E94FD0DE9EBF0E080818E7F8E
:101F5000808380818D7F808388E48093B80085E4CE
:101F60008093BC0008951092B1021092B0021092BA
:101F7000D3021092D2020E94950F8BE79DE09093BE
:101F80008202809381028CE79DE09093800280938F
:101F90007F020895CF93DF9391E0909325028823E9
:101FA000B9F0C091B800D091BA008091BC008A7B92
:101FB0008093BC0060E082E10E94FD0D60E083E15F
:101FC0000E94FD0D0E94950FD093BA00C093B800F7
:101FD000DF91CF910895E091B1028091B002E817AE
:101FE00030F4F0E0EE54FD4F808190E008958FEFE3
:101FF0009FEF08959091B1028091B0022FEF3FEFD3
:10200000981748F4E92FF0E0EE54FD4F208130E0BE
:102010009F5F9093B102C90108958091B0029091A1
:10202000B102891B990B0895CF92DF92EF92FF9234
:102030000F931F93CF93DF937C01CB018A012091F3
:10204000D502222389F0EB016B01C40ED51ECC15FD
:10205000DD0569F06991D701ED91FC910190F08166
:10206000E02DC7010995F3CF642F0E946E0FC801C0
:10207000DF91CF911F910F91FF90EF90DF90CF9064
:102080000895CF93DF931F92CDB7DEB76983209178
:10209000D5022223F9F02091D202203258F021E01B
:1020A00030E0FC013383228390E080E00F90DF91E9
:1020B000CF9108958091D302E82FF0E0EB5FFD4FC0
:1020C000998190838F5F8093D3028093D20281E0C5
:1020D00090E0ECCF61E0CE0101960E946E0FF7CF49
:1020E000682F89E193E00C944110CF92DF92EF9238
:1020F000FF920F931F93CF93DF93D091D20281E091
:10210000D13208F09CC0C091D4020E946E0E6B01C7
:102110007C018091AA0281116CC082E08093AA02A6
:1021200081E08093A9028FEF8093A8021092A7020A
:10213000D093A602A5E0B2E0E4E8F2E080E0D81394
:102140008DC01092A5028091A502CC0FC82BC09320
:10215000A5028091A402813009F084C01092A402EB
:102160000E946E0E6B017C018091A5028093BB00E2
:102170008091AC029091AD02A091AE02B091AF02FD
:10218000892B8A2B8B2BA1F00E946E0E0091AC0242
:102190001091AD022091AE023091AF026C197D0911
:1021A0008E099F09061717072807390708F442C048
:1021B0008091BC0083FDD8CF85EC8093BC000E9449
:1021C0006E0E6B017C018091AA02823009F44CC032
:1021D0008091A8028F3F09F469C08091A8028032E3
:1021E00009F466C08091A802803309F463C084E0DA
:1021F00026C08091AC029091AD02A091AE02B09148
:10220000AF02892B8A2B8B2B09F483CF0E946E0E91
:102210000091AC021091AD022091AE023091AF025C
:102220006C197D098E099F090617170728073907BA
:1022300008F06FCF8091AB020E94CA0F85E0109228
:10224000D3021092D2021092D502DF91CF911F914A
:102250000F91FF90EF90DF90CF9008959D91919313
:102260008F5F6DCF85EEA9CF8091AC029091AD02CA
:10227000A091AE02B091AF02892B8A2B8B2B09F46F
:10228000A2CF0E946E0E0091AC021091AD0220917F
:10229000AE023091AF026C197D098E099F090617B5
:1022A00017072807390708F08ECFC4CF80E0C7CFC3
:1022B00082E0C5CF83E0C3CFCF93DF93D82FC62F63
:1022C0008091830280620E94710D6D2F89E193E0FD
:1022D0000E9441106C2F89E193E00E94411089E136
:1022E00093E0DF91CF910C9475100895FC01637019
:1022F000668B8481958126813781613039F0633026
:1023000029F0918780873387228708953187208736
:102310009387828708952F923F924F925F926F9298
:102320007F928F929F92AF92BF92CF92DF92EF9265
:10233000FF920F931F93CF93DF93CDB7DEB76A97CA
:102340000FB6F894DEBF0FBECDBF9A8F898F7A8308
:1023500069834A01D22E18870F833701BC2CDC0118
:1023600059962D913C915A972115310509F015C1C7
:1023700018968D919C911997681779070CF0D7C121
:102380001A968D919C91481759070CF0D0C14C2C8E
:10239000512CB6E0CB9E600D711D11247C876B879C
:1023A000161617060CF0C3C1EA2DF0E0FA87E9878C
:1023B00093E0EE0FFF1F9A95E1F7F88BEF87CF01BF
:1023C000840F951F181619060CF0B1C1A98DBA8D8E
:1023D00058968C91811104C0BFEABD1508F4D394BE
:1023E000A98DBA8DED91FC9111970284F385E02DB2
:1023F000CD010995B5E0DB9EC0011124E981FA8188
:10240000FC83EB83312C212C9C0128583F4F388FC3
:102410002F8B4A2D50E05E8B4D8BEF89F88DE20DAE
:10242000F31D44919E828D82D12CC12C69817A81C9
:10243000620D731D7A8B698B842F90E09C8B8B8B44
:10244000E98DFA8DA081B18140FF82C0F1E0BF1219
:102450006FC0AF126DC01C96ED91FC912F81388535
:10246000A4014C0D5D1D69897A89898D9A8D099524
:10247000EB89FC89F595E7954E2F5FEFC51AD50AD4
:102480006D817E818D899E89680F791F7E836D8322
:1024900098E0C916D10481F6AFEF2A1A3A0AEB8107
:1024A000FC81E40DF51DFC83EB83F5E02F16310470
:1024B00009F0B3CF2F81388526153705B9F0A98DDE
:1024C000BA8DED91FC91B1E0BB1257C0AB1255C073
:1024D00069817A816B5F7F4F0088F189E02D8301EC
:1024E00028E030E0A401898D9A8D0995A98DBA8DD7
:1024F000ED91FC9111970688F789E02DCD016A9640
:102500000FB6F894DEBF0FBECDBFDF91CF911F9104
:102510000F91FF90EF90DF90CF90BF90AF909F9082
:102520008F907F906F905F904F903F902F90099485
:102530001E96ED91FC91EF80F88409851A85920131
:102540004D815E816B817C81898D9A8D099590CFBB
:102550002F8138852615370509F48ACF31E0B3126B
:1025600007C0A31205C01C96ED91FC91930178CF92
:102570001E96ED91FC917301E0CF6B857C8564190B
:1025800075090684F785E02D73010F85188992017E
:10259000A401898D9A8D0995A9CFF901349694915A
:1025A000329745915491D91AB7E0DB9E400D511DE9
:1025B0001124F901259134913C8B2B8BFA01259044
:1025C0003490FA013296749031963491398B329668
:1025D00064903196449041E04C1518F04A1508F08B
:1025E0007FC0662D062C000C770B7C836B83842DBB
:1025F000042C000C990B9E838D83A98DBA8DED91CF
:10260000FC9111970284F385E02DCD010995512CA1
:10261000D12CC12CEA2DF0E0FA87E9872B2D30E090
:102620003C872B87A401440D511D47FC5A95588FB8
:102630004F8B69817A81660D711D67FC7A957E8763
:102640006D877989C71608F051CF2C2D30E04D8168
:102650005E81420F531FA985BA854A9FC0014B9FD7
:10266000900D5A9F900D1124FC01E80DF91DF88B77
:10267000EF87852D612C4F89588D420F531F5E8B3C
:102680004D8B671408F050C044244394480E877063
:1026900041F4C1010196EB89FC89E20DF31DD49050
:1026A0001C01D7FE19C0A98DBA8DED91FC91662D44
:1026B00070E0B1E0BB1219C0AB1217C02D853E858A
:1026C000620F731F0484F585E02D2F8138854D89B5
:1026D0005E89898D9A8D0995DD0C6394842DD1CF07
:1026E0001E821D821C821B8288CF4B815C81640FFD
:1026F000751FAB85BC856A9FC0016B9F900D7A9F4B
:10270000900D112469817A81680F791F0684F785FD
:10271000E02DEF80F88409851A859D014F85588941
:10272000898D9A8D0995D8CF570CC3948ACF6A9614
:102730000FB6F894DEBF0FBECDBFDF91CF911F91D2
:102740000F91FF90EF90DF90CF90BF90AF909F9050
:102750008F907F906F905F904F903F902F90089553
:102760008F929F92AF92CF92EF92FF920F931F930F
:10277000CF93DF93EC01262F898D9A8D009709F076
:1027800051C06A30D1F41D861C868D8948E0849F33
:10279000900111248E859F85820F931F9F878E87BE
:1027A00081E090E0DF91CF911F910F91FF90EF902A
:1027B000CF90AF909F908F9008956D3089F3CC8823
:1027C000AD888F898823C1F08C859D8536E0C39EB6
:1027D000800D911D1124488559854817590764F4C7
:1027E0004E855F851D861C8638E0A39EC00111249E
:1027F000840F951F9F878E87EA88FB88088919892F
:102800004E855F856C857D85CE010E948B112C895C
:102810008C859D8546E0249F800D911D11249D8708
:102820008C87BECF6A3069F41D861C86FC01389601
:10283000E4912D898E859F85E29F800D911D112445
:10284000ADCF6D3009F4ACCFFC01349634916317F1
:1028500008F4A6CF3296E491E61708F4A1CFFC0164
:10286000329685909490462F431B342F47E0349F37
:10287000800C911C1124F401329634913196E4912C
:102880003323A9F1EE2399F1CC88F4013596E49134
:10289000AD884F89442301F10E2E000CFF0BE30F8E
:1028A000F11DCE9EA001CF9E500D11246C857D851B
:1028B000460F571F68857985641775076CF44E8538
:1028C0005F851D861C86FC013896E491AE9E400D06
:1028D000511D11245F874E87EA88FB880889198972
:1028E0004E855F856C857D85CE010E948B11F4013C
:1028F0003496E4912C898C859D85E29F800D911DF5
:1029000011248DCF6F927F928F929F92AF92BF9240
:10291000CF92DF92EF92FF920F931F93CF93DF93AB
:10292000EC016B015A0139014801E881F981028407
:10293000F385E02D0995E881F9810288F389E02D7E
:1029400087019301A501B601CE010995A501480DA6
:10295000591D41505109E881F9810288F389E02D20
:102960009301B601CE010995E881F9810088F189CA
:10297000E02D9401A501B601CE010995C60CD71C26
:10298000B60161507109E881F9810088F189E02D73
:102990009401A501CE010995E881F9810688F7899E
:1029A000E02DCE01DF91CF911F910F91FF90EF901D
:1029B000DF90CF90BF90AF909F908F907F906F905F
:1029C00009946F927F928F929F92AF92BF92CF9213
:1029D000DF92EF92FF920F931F93CF93DF935C01EF
:1029E000EB016A01490138018701DC01ED91FC919D
:1029F0006217730719F5641675062CF0962D872D4E
:102A00003A01C92ED82E9601261937092F5F3F4F5C
:102A1000048CF58DE02DA301BE01C5010995DF9160
:102A2000CF911F910F91FF90EF90DF90CF90BF90CB
:102A3000AF909F908F907F906F90089546155705A7
:102A400091F42617370724F0892D4B01C22FD82F78
:102A50009E01281939092F5F3F4F068CF78DE02D15
:102A6000A601B401DACF0284F385E02D0995D501E2
:102A7000ED91FC910488F589E02D83019401A60174
:102A8000BE01C5010995D501ED91FC910688F78934
:102A9000E02DC501DF91CF911F910F91FF90EF9035
:102AA000DF90CF90BF90AF909F908F907F906F906E
:102AB0000994EF92FF920F931F93DC011A960D91E8
:102AC0001C911B9718962D913C911997ED91FC91B3
:102AD00000A0F1A1E02D7B0150E040E070E060E05B
:102AE00009951F910F91FF90EF9008954F925F927B
:102AF0006F927F928F929F92AF92BF92CF92DF920E
:102B0000EF92FF920F931F93CF93DF936C012B01F2
:102B10005A0139014801DC01ED91FC910284F385F1
:102B2000E02D0995E201640C751CD601ED91FC9134
:102B3000C615D7055CF40088F189E02D8701940162
:102B4000A501BE01C60109952196EFCF0688F78938
:102B5000E02DC601DF91CF911F910F91FF90EF9073
:102B6000DF90CF90BF90AF909F908F907F906F90AD
:102B70005F904F9009948F929F92AF92BF92CF92A5
:102B8000DF92EF92FF920F931F93CF93DF93EC01AD
:102B90005B014A016901E881F9810284F385E02D36
:102BA000099595012C0D3D1D21503109E881F981D0
:102BB0000488F589E02D78018401A401B501CE01D6
:102BC0000995E881F9810688F789E02DCE01DF912A
:102BD000CF911F910F91FF90EF90DF90CF90BF901A
:102BE000AF909F908F9009948F929F92AF92BF92D7
:102BF000CF92DF92EF92FF920F931F93CF93DF93C9
:102C0000EC015B014A0169017801E881F9810284E4
:102C1000F385E02D0995C80CD91C860101501109D6
:102C2000E881F9810488F589E02D9501A401B501B9
:102C3000CE010995E881F9810688F789E02DCE015A
:102C4000DF91CF911F910F91FF90EF90DF90CF9088
:102C5000BF90AF909F908F900994EF92FF920F9347
:102C60001F93DC01ED91FC9100A0F1A1E02D0995ED
:102C70001F910F91FF90EF9008950F931F93DC0128
:102C8000ED91FC91068CF78DE02D09951F910F9128
:102C900008950F931F93DC01ED91FC91048CF58D49
:102CA000E02D09951F910F910895DC01ED91FC91A4
:102CB0000084F185E02D09943F924F925F926F92CC
:102CC0007F928F929F92AF92BF92CF92DF92EF92BC
:102CD000FF920F931F93CF93DF9300D000D0CDB717
:102CE000DEB75C013B016A014901280187E0480E1B
:102CF000511C93E0559447949A95E1F7CA018E0DC3
:102D00009F1D9A838983F12CE12C312C1C821B821C
:102D10008B819C8187709927330C892B61F4EB811F
:102D2000FC8183E0F595E7958A95E1F7EE0DFF1DAF
:102D3000E80DF91D349037FE0AC021E030E0A6010D
:102D40006B817C81660D771DC5010E9455168B81B4
:102D50009C8101969C838B8308171907C9F69FEF06
:102D6000C91AD90AE40CF51C89819A81C816D906BA
:102D700069F60F900F900F900F90DF91CF911F91F8
:102D80000F91FF90EF90DF90CF90BF90AF909F900A
:102D90008F907F906F905F904F903F9008952F920B
:102DA0003F924F925F926F927F928F929F92AF92DB
:102DB000BF92CF92DF92EF92FF920F931F93CF9328
:102DC000DF9300D000D000D0CDB7DEB73C016A0160
:102DD0003E832D83FC82EB825801A41AB50AB7FE0C
:102DE00003C0B194A194B1088D809E80861A970A81
:102DF00097FE03C09194819491088A149B045CF01F
:102E0000902F812F0D811E819D838E839C2D8D2D72
:102E10006B01692F782F0C151D055CF09D818E814B
:102E20007E836D83692F782F902F812F8601C92E85
:102E3000D82E1601201A310A2B012D813E81421A0B
:102E4000530A57FE03C0519441945108710137FE53
:102E500003C03FEFE31AF30AF594E7948D819E8156
:102E6000861797075CF5A1E0B0E0BA83A983C01686
:102E7000D1064CF1D301ED91FC910484F585E02D50
:102E80002B813C81A8016D817E818A149B041CF0FA
:102E90004D815E81B801C3010995E418F508F7FE7C
:102EA0000AC02D813E8189819A81280F391F3E8376
:102EB0002D83E20CF31C0F5F1F4FD9CF2FEF3FEF95
:102EC0003A832983D4CF26960FB6F894DEBF0FBE7F
:102ED000CDBFDF91CF911F910F91FF90EF90DF90C9
:102EE000CF90BF90AF909F908F907F906F905F90AA
:102EF0004F903F902F900895EF92FF920F931F9362
:102F0000CF93DF93EC01EC80FD806E157F050CF014
:102F100070C057FF04C0240F351F50E040E08E8181
:102F20009F81FA01E20FF31F8E179F071CF49C018B
:102F3000241B350B121613060CF05BC0922F842F46
:102F40008695869586958E9DD0018F9DB00D112416
:102F50006A0F7B1FAF8DB8A1A60FB71F477049F14D
:102F600088E0841B482F682F70E0FB01E059FF4F79
:102F7000E491281708F063C0621B71092FEF30E05D
:102F800002C0359527956A95E2F7E22301301105D5
:102F900039F0B0F10230110561F58C91E82702C0DB
:102FA0008C91E82BEC93941720F12C813D81A20F9A
:102FB000B31FE92FE41BE83078F00230110521F54A
:102FC0008E2F9C9190959C932C813D81A20FB31FD5
:102FD00088508830B0F7E770EE2359F0F0E0E859F8
:102FE000FF4FE49101301105F9F010F102301105A5
:102FF00019F1DF91CF911F910F91FF90EF900895FC
:10300000E0958C91E823CECF81E00115110509F4FC
:1030100080E081959E2F8C932C813D81A20FB31F60
:1030200098509830C0F7D7CF8C91E82BEC93E1CF34
:10303000E0958C91E823FACF8C91E827F7CF013007
:10304000110509F4ADCFE0F20230110509F4A5CF66
:10305000AE0DBF1DAECF0F931F93CF93DF9377FFBE
:1030600004C0260F371F70E060E0DC011496CD919C
:10307000DC91FB01E20FF31FCE17DF071CF49E016A
:10308000261B370B121613064CF5FA0157FD37961F
:10309000A3E0F595E795AA95E1F7EC9FD001ED9FA8
:1030A000B00DFC9FB00D11246A0F7B1FDC015F96F1
:1030B000ED91FC91E60FF71F4770552781E090E0F6
:1030C00001C0880F4A95EAF7482F0130110559F0E1
:1030D000A8F02E0F3F1F02301105E1F0DF91CF91D4
:1030E0001F910F9108952E0F3F1FE217F307B1F3C1
:1030F0008191DF011197842B8C93F7CF80952E0F50
:103100003F1FE217F30751F39191DF0111979823C5
:103110009C93F7CFE217F30709F38191DF01119731
:1031200084278C93F7CF0F931F93FA01DC015696F7
:103130004C9156974230E9F04330A1F1413061F5AE
:1031400014964D915C91DA01AE1BBF0BFD01E21BA1
:10315000F30B77FD0BC0DC0116964D915C91641763
:10316000750724F4AB01BF010E942B181F910F912A
:10317000089514964D915C91DA01A61BB70BBD0121
:1031800061507109DC0116964D915C91DA01AE1B1C
:10319000BF0BFD01E21BF30B77FDE8CFAF010E94EF
:1031A0007C17E4CF16964D915C91DA01A61BB70B04
:1031B000BD0161507109CDCF0F931F93FA01DC015E
:1031C00056964C9156974230A9F0433091F14130D8
:1031D00019F514964D915C91DA01AE1BBF0BFD0100
:1031E0003197F7FD04C0AB01BF010E947C171F910E
:1031F0000F91089514964D915C91DA01A61BB70BBF
:10320000BD01DC0116964D915C91DA01AE1BBF0B3E
:10321000FD013197621B730BF7FDE9CFDC011696B8
:103220004D915C91E417F50714F7AF010E942B183C
:10323000DECF16964D915C91DA01A61BB70BBD014E
:10324000621B730BCECFFC0177FD64C08085918536
:10325000681779070CF05EC057FD5CC082859385C6
:10326000481759070CF056C086898230B1F0833078
:1032700029F1813041F484819581841B950BAB0148
:10328000BC01615071092130310509F108F443C0D6
:103290002230310509F463C0089584819581DC01F1
:1032A000A61BB70BBD016150710986819781DC01B6
:1032B000A41BB50BAD0141505109E5CF8681978123
:1032C000861B970BBA01AC0141505109DCCFCA01F2
:1032D00057FD0796A3E095958795AA95E1F7A481F8
:1032E000B5818A9F90018B9F300D9A9F300D1124DC
:1032F000620F731F078CF0A1E02DE60FF71F4770D8
:10330000552721E030E001C0220F4A95EAF780817D
:10331000822B80830895CA0157FD079633E0959567
:1033200087953A95E1F7A481B5818A9F90018B9F9B
:10333000300D9A9F300D1124620F731F078CF0A17E
:10334000E02DE60FF71F4770552781E090E001C0A0
:10335000880F4A95EAF7809590818923DACFCA01D0
:1033600057FD079623E0959587952A95E1F7A48167
:10337000B5818A9F90018B9F300D9A9F300D11244B
:10338000620F731F078CF0A1E02DE60FF71F477047
:10339000552721E030E001C0220F4A95EAF78081ED
:1033A0008227B7CF08958EBD00000DB407FEFDCF74
:1033B0008EB50895FF920F931F93CF93DF93F82E4E
:1033C000D92FC62F8091420390914303892B09F492
:1033D00047C0809146030E94710D809142039091F5
:1033E0004303DC01ED91FC910190F081E02D60E060
:1033F00009950F2D1D2FD1E0C1508091420390916E
:103400004303CF3F31F1D03298F00E947510809184
:1034100046030E94710D8091420390914303DC01A9
:10342000ED91FC910190F081E02D60E00995D1E0F3
:103430008091420390914303F8016491DC01ED9186
:10344000FC910190F081E02D0995DF5F0F5F1F4F28
:10345000D3CFDF91CF911F910F91FF900C947510F6
:10346000E0915203F091530390818091580380952D
:10347000892380830F2D1D2FC15008F438C0F80117
:1034800084912091400330914103232B29F00E9425
:10349000D3190F5F1F4FF0CF28E030E040E8E091F4
:1034A0004E03F0914F0390915603582F5423D9F0B7
:1034B0005081952B9083E0915003F09151039081BE
:1034C00050915703952B9083E0915003F091510355
:1034D0005081909157039095952390834695215064
:1034E0003109E9F6D6CF508190959523E3CFDF914E
:1034F000CF911F910F91FF9008951F93CF93DF936A
:10350000EC018D8D9E8D892BF9F0162F89A10E94DB
:10351000710D8D8D9E8DDC01ED91FC910190F081FE
:10352000E02D60E009958D8D9E8DDC01ED91FC9183
:103530000190F081E02D612F09958D8D9E8DDF9199
:10354000CF911F910C947510ADA5BEA59C918BA930
:10355000809589238C938B8D9C8D892B31F0862FC0
:10356000DF91CF911F910C94D31928E030E080E8CF
:10357000A9A5BAA599A9462F4823C1F04C91942B2F
:103580009C93ABA5BCA59C914AA9942B9C93ABA5FD
:10359000BCA54C919AA9909594239C938695215013
:1035A000310931F7DF91CF911F9108954C9190959A
:1035B0009423E6CF8CBD9DBD08951F93CF93DF93D9
:1035C000EC01162F8D8D9E8D892BB1F12DA93EA971
:1035D0004FA958AD60E074E284EF90E00E94D22ED3
:1035E000205131094109510956954795379527953D
:1035F0002093B80066EA111167EACE010E947D1A95
:103600008D8D9E8D892B41F129AD3AAD4BAD5CADD1
:1036100060E074E284EF90E00E94D22E20513109E4
:103620004109510956954795379527952093B8003C
:10363000DF91CF911F9108958B8D9C8D892B21F067
:103640008EAD9FAD0E94DA1AEFA5F8A990818CA9E2
:10365000809589238083CECFEFA5F8A980819CA98E
:10366000892B8083E5CF0F931F93CF93DF93182F80
:10367000D0E0C0E28C2F0E94710D89E193E00E949E
:103680007510082F61E070E080E090E00E94930EDA
:10369000011103C01D17E1F0DF5FCF5FC83251F7A2
:1036A000C8E38C2F0E94710D89E193E00E94751090
:1036B000082F61E070E080E090E00E94930E01111D
:1036C00003C01D1729F0DF5FCF5FC03451F7C0E0A2
:1036D0008C2FDF91CF911F910F910895CF93FC0113
:1036E000C4A560FF02C086A1C82B61FF02C087A1EC
:1036F000C82B62FF02C080A5C82B63FF02C081A552
:10370000C82B4130510511F483A1C82B85A18C2B06
:1037100090E00E9470106C2F89E193E0CF910C949F
:103720004110CF93DF93EC018AA5882359F19BA523
:10373000662321F1913021F58CA788A10E94710D9B
:1037400089A19AA1029721F489E090E00E9470106B
:103750006CA589E193E00E94411089E193E00E9409
:10376000751021E030E0811102C030E020E08827B0
:103770009927821B930BDF91CF9108959923E1F252
:103780001CA6DBCF8DEF9FEFF6CF4F925F926F922B
:103790007F928F929F92AF92BF92EF92FF921F9370
:1037A000CF93DF93EC0188A1882309F45BC089A142
:1037B0009AA1892B09F456C0142F7B014C8C5D8C87
:1037C0006E8C7F8C888C998CAA8CBB8C8DE2881A2D
:1037D0009108A108B1080E946E0E681979098A093A
:1037E0009B096415750586059705A8F388A10E94B5
:1037F000710D89A19AA1029721F489E090E00E94BD
:103800007010612F70E084E0759567958A95E1F7F7
:10381000A701CE010E946E1B82E0E816F10431F090
:10382000612F6F70A701CE010E946E1B89E193E0AA
:103830000E94751021E030E0811102C030E020E0EC
:1038400088279927821B930BDF91CF911F91FF90BF
:10385000EF90BF90AF909F908F907F906F905F9010
:103860004F9008958CEF9FEFEFCF8DEF9FEF08956E
:103870008DEF9FEF089590E080E008950895CF9236
:10388000DF92EF92FF920F931F93CF93C82F0E9466
:103890006E0E6B017C018091AA02811164C081E0EF
:1038A0008093AA028093A9029FEF9093A80210929E
:1038B000A7021092A6028093A5028091A502CC0FC8
:1038C000C82BC093A5028091A402813009F07DC06D
:1038D0001092A4020E946E0E6B017C018091A502E1
:1038E0008093BB008091AC029091AD02A091AE029A
:1038F000B091AF02892B8A2B8B2BA1F00E946E0E08
:103900000091AC021091AD022091AE023091AF0255
:103910006C197D098E099F090617170728073907B3
:1039200008F442C08091BC0083FDD8CF85EC809321
:10393000BC000E946E0E6B017C018091AA02813056
:1039400009F445C08091A702811163C08091A7024C
:10395000E4E8F2E0A2EBB2E090E0981751F1219197
:103960002D939F5FFACF8091AC029091AD02A09110
:10397000AE02B091AF02892B8A2B8B2B09F48BCF2F
:103980000E946E0E0091AC021091AD022091AE0229
:103990003091AF026C197D098E099F090617170730
:1039A0002807390708F077CF8091AB020E94CA0F31
:1039B00080E01092B1028093B002CF911F910F91DD
:1039C000FF90EF90DF90CF90089585EEB0CF80917B
:1039D000AC029091AD02A091AE02B091AF02892BE2
:1039E0008A2B8B2B09F4A9CF0E946E0E0091AC029A
:1039F0001091AD022091AE023091AF026C197D0999
:103A00008E099F09061717072807390708F095CF71
:103A1000CBCF81E09DCFCF93C82F8091830280626E
:103A20000E94710D6C2F89E193E00E94411089E1A1
:103A300093E00E94751080918302806290E00E9462
:103A40003F1C89E193E00E94FA0FCF910895CF9235
:103A5000DF92EF92FF920F931F93CF93DF938053E8
:103A6000E82FF0E0E95FFE4F0081D0E0C0E0EE24F7
:103A7000E394F12C10E097E0C92ED12C89E00E944C
:103A80000B1DB7010C2E01C0660F0A94EAF79601D0
:103A90002C1B3D0BA80102C0559547952A95E2F7CE
:103AA00040FF11C0682B89E00E945C112196C8304C
:103AB000D10521F7DF91CF911F910F91FF90EF90EA
:103AC000DF90CF90089560956823EDCF4F925F927D
:103AD0006F927F928F929F92AF92BF92EF92FF92DE
:103AE0000F931F93CF93DF93EC011CA588A188232C
:103AF00009F4EDC089A19AA1009709F4E8C00297E2
:103B000009F4E8C08CA1882309F4E4C07B014C8C43
:103B10005D8C6E8C7F8C888C998CAA8CBB8C8DE292
:103B2000881A9108A108B1080E946E0E68197909D7
:103B30008A099B096415750586059705A8F38EA16A
:103B4000182B8FA1182B88A5182B89A5182BEA9460
:103B5000EF2811F48BA1182B8CA1182B88A10E949F
:103B6000710D612F89E193E00E94411089E193E09A
:103B70000E947510882311F10FEF1FEF88A10E949A
:103B8000710D6CA589E193E00E94411089E193E0F9
:103B90000E947510882311F00FEF1FEFC801DF910D
:103BA000CF911F910F91FF90EF90BF90AF909F909A
:103BB0008F907F906F905F904F90089588A10E94A2
:103BC000710D8DA1812B90E00E94701089E193E02E
:103BD0000E9475108111D0CF88A190E00E943F1CF7
:103BE00089E193E00E94FA0F7C0197FDC5CF88A17F
:103BF0000E94710D612F89E193E00E94411089E1DB
:103C000093E00E947510082F8111B6CF8EA190E02D
:103C10008E219F21892B09F000E18FA190E08E2158
:103C20009F21892B09F0006288A590E08E219F21B9
:103C3000892B09F0006489A590E08E219F21892BB2
:103C400009F0006888A10E94710D8DA1812B90E080
:103C50000E94701089E193E00E94751081118CCF51
:103C600088A190E00E943F1C89E193E00E94FA0F36
:103C70007C0197FD81CF88A10E94710D612F89E1A0
:103C800093E00E94411089E193E00E947510811138
:103C900073CF8EA190E08E219F21892B09F00160C6
:103CA0008FA190E08E219F21892B09F0026088A5C9
:103CB00090E08E219F21892B09F0046089A590E076
:103CC0008E219F21892B09F0086010E057CF0CEF5F
:103CD0001FEF64CF0DEF1FEF61CF0F931F93CF93B3
:103CE000DF93EC010E94B30F88A1811188C08091FD
:103CF000040291E0980F909304020E94331B88A362
:103D000088A1811109C08091040291E0980F9093DD
:103D100004020E94331B88A318A1112309F478C060
:103D200089A19AA1892B09F033C1812F0E94710DBD
:103D300060E089E193E00E9441106FEF89E193E038
:103D40000E94411089E193E00E947510812F0E942A
:103D5000710D60E089E193E00E94411089E193E0F8
:103D60000E947510812F90E00E943F1C89E193E032
:103D70000E94FA0F8F3F910509F051C082E090E058
:103D80009AA389A388A10E94710D60E089E193E064
:103D90000E9441108FEF90E00E94701089E193E043
:103DA0000E94751088A10E94710D86E090E00E942B
:103DB00070108FE790E00E94701089E193E00E94FC
:103DC000751088A10E94710D89E090E00E9470102A
:103DD00089E193E00E94751088A190E00E943F1C49
:103DE00089E193E00E94FA0F8F3709F010C127E0B4
:103DF00036E045E054E063E072E0E1E013C10E9488
:103E0000710D89E193E00E947510882309F478CF41
:103E10008CEF9FEFDF91CF911F910F910895892B28
:103E200029F01AA219A28FEF9FEFF4CF81E090E062
:103E30009AA389A388A10E94710D6FEF89E193E095
:103E40000E94411089E193E00E94751088A190E0E2
:103E50000E943F1C89E193E00E94FA0F8C0188A127
:103E60000E94710D6BEF89E193E00E94411089E19E
:103E700093E00E94751088A190E00E943F1C89E1A8
:103E800093E00E94FA0F98012770332727303105FD
:103E900009F04DC0807F9927803F910509F047C008
:103EA00083E0169507958A95E1F761E00627017092
:103EB00043E057E066E075E0E4E022E0F1E030E066
:103EC00081E090E0DC0101C0AA0F3A95EAF7ABA3CC
:103ED000DC0101C0AA0FFA95EAF7ACA3DC0102C02D
:103EE000AA0FBB1F2A95E2F7ADA39C0101C0220FC8
:103EF000EA95EAF72EA39C0101C0220F7A95EAF712
:103F00002FA39C0101C0220F6A95EAF728A79C0104
:103F100001C0220F5A95EAF729A701C0880F4A95D8
:103F2000EAF78AA70BA7013091F58CA731C0C80129
:103F3000807799278037910519F08DEF9FEF6ACF31
:103F400088A10E94710D6FEE89E193E00E944110FB
:103F500089E193E00E94751088A190E00E943F1CC7
:103F600089E193E00E94FA0F8F70992726E034E0F0
:103F70000F9711F424E036E00095001F0027001F82
:103F800047E053E062E071E0E0E0F5E099CF1CA685
:103F900088A10E94710D89A19AA1029721F585E05F
:103FA00090E00E94701080E290E00E94701089E121
:103FB00093E00E94751088A10E94710D60E089E174
:103FC00093E00E94411060E089E193E00E9441107B
:103FD00089E193E00E94751088A10E94710D89E02B
:103FE00090E00E94701060E089E193E00E9441102F
:103FF00089E193E00E94751021E030E0811102C058
:1040000030E020E088279927821B930B03CF86FF9F
:104010003BC081FD92CF21E032E043E054E065E017
:1040200076E0E7E081E090E0DC0102C0AA0FBB1F70
:10403000EA95E2F7ABA31CA2FC0101C0EE0F7A9552
:10404000EAF7EDA3FC0102C0EE0FFF1F6A95E2F74D
:10405000EEA3BC0101C0660F5A95EAF76FA3BC013D
:1040600002C0660F771F4A95E2F768A7AC0101C04E
:10407000440F3A95EAF749A701C0880F2A95EAF755
:104080008AA791E09BA751CF26E033E042E051E0C0
:1040900060E077E0E4E0C6CF20912B0330912C0361
:1040A000C901079697FD079623E0959587952A9570
:1040B000E1F72091290330912A03829FA001839F79
:1040C000500D929F500D112470E060E080914403E8
:1040D000909145030C94EA308F929F92AF92BF92D9
:1040E0000F931F93CF93DF93CDB7DEB7A1970FB692
:1040F000F894DEBF0FBECDBF19A2423008F44AE0EB
:104100008E010F5D1F4F842E912CB12CA12CA50187
:1041100094010E94D22EE62FB901CA01EA3044F57B
:10412000E05DD801EE938D01232B242B252B79F70D
:1041300090E080E0109769F0FD0101900020E9F720
:104140003197AF014A1B5B0BBD018CEE92E00E94E0
:104150007E0DA1960FB6F894DEBF0FBECDBFDF91E6
:10416000CF911F910F91BF90AF909F908F90089526
:10417000E95CD7CFCF92DF92EF92FF92CF93DF939C
:104180006C01990FEE08FF08F7FE19C06DE28CEE86
:1041900092E00E94240FEC0166277727CB016C196F
:1041A0007D098E099F094AE00E946C208C0F9D1F9B
:1041B000DF91CF91FF90EF90DF90CF9008954AE08C
:1041C000C701B601DF91CF91FF90EF90DF90CF90C4
:1041D0000C946C20FB0101900020E9F73197AF01AE
:1041E000461B570B0C947E0D0E94DC30EF92FF9221
:1041F0000F931F93CF93DF93EC017B018A0188819A
:104200009981009729F02A813B812417350788F48A
:10421000B8016F5F7F4F0E941F30009791F0998324
:1042200088831B830A832C813D81232B11F4FC019D
:1042300010821D830C83B701888199810E94F1301F
:104240000CC088819981009711F00E94962F1982E5
:1042500018821D821C821B821A82CE01DF91CF91AF
:104260001F910F91FF90EF90089585ED8093BC0012
:104270008091AC029091AD02A091AE02B091AF02DC
:104280000796A11DB11D23E0B695A7959795879533
:104290002A95D1F72091BC0024FD03C01092AA02F8
:1042A00008954091AC025091AD026091AE027091C0
:1042B000AF02452B462B472B69F30097A105B105AB
:1042C00041F025E32A95F1F700000197A109B10912
:1042D000E1CF8091AB020C94CA0F1F920F920FB6E0
:1042E0000F9211242F933F938F939F93AF93BF937C
:1042F00080916F0290917002A0917102B091720250
:104300003091690223E0230F2D3758F50196A11D46
:10431000B11D2093690280936F0290937002A09365
:104320007102B093720280916A0290916B02A09127
:104330006C02B0916D020196A11DB11D80936A02BD
:1043400090936B02A0936C02B0936D02BF91AF91FA
:104350009F918F913F912F910F900FBE0F901F90C3
:10436000189526E8230F0296A11DB11DD2CF1F92EA
:104370000F920FB60F9211242F933F934F935F9399
:104380006F937F938F939F93AF93BF93EF93FF931D
:104390008091B900887F803609F44AC0F0F58832F0
:1043A00009F4A7C018F5803109F49BC0B8F488233C
:1043B00009F4F9C0883009F494C0FF91EF91BF91DE
:1043C000AF919F918F917F916F915F914F913F91AD
:1043D0002F910F900FBE0F901F901895883109F400
:1043E00088C0803251F78093A80214C0803409F449
:1043F0009DC040F48033B9F38833F9F68093A80266
:1044000085ECB0C0803509F485C0883509F496C0C4
:10441000883499F60E943521D0CF883909F48CC0B0
:1044200038F5883729F050F4883611F0803729F6AE
:1044300083E08093AA021092680257C0883809F47A
:104440007BC0803919F0803809F0B7CF80916802BD
:10445000803208F071C0E091680281E08E0F809395
:1044600068028091BB00F0E0E85BFD4F80833DC0B7
:10447000803B39F0E0F4803A09F479C0883A09F0D9
:104480009CCF84E08093AA021092470210924602C9
:10449000E0918102F091820209958091460281119A
:1044A0000FC081E0809346021092260209C0803C32
:1044B00009F4A6CF883C09F4A3CF883B09F07DCF4F
:1044C000E091470281E08E0F80934702F0E0EA5DC1
:1044D000FD4F80818093BB009091470280914602FE
:1044E00029C08091A5028093BB0085EC8093BC001D
:1044F00064CF9091A7028091A602981758F5E09199
:10450000A70281E08E0F8093A702F0E0EC57FD4FE9
:104510008081E9CFE091A70281E08E0F8093A7020E
:104520008091BB00F0E0EC57FD4F80839091A70293
:104530008091A6029817C8F285E8D8CFE091A7022B
:1045400081E08E0F8093A7028091BB00F0E0EC57D2
:10455000FD4F80838091A90281115CCF81E080931F
:10456000A40284EA8093BC001092AA0226CF85ECB4
:104570008093BC001092AA0280916802803230F4CD
:10458000E0916802F0E0E85BFD4F10826091680204
:1045900070E0E0917F02F091800288E492E009955A
:1045A000109268020ACF1092A80234CFCF93DF9303
:1045B00010921C0310921B0388EE93E0A0E0B0E081
:1045C00080931D0390931E03A0931F03B0932003B9
:1045D00082E491E090931A038093190310922803C8
:1045E0001092270320E830E030932A032093290318
:1045F00080E490E090932C0380932B0330932E0360
:1046000020932D039093300380932F0310923B034C
:10461000109232031092310310923403109233033C
:10462000C1E0C0933A03C09339038FEF9FEF90939B
:104630003803809337039093360380933503C093F8
:104640003C0310923D0310923F0310923E0380E81A
:1046500091E09093260380932503109241031092DA
:10466000400389E193E090934303809342031092C7
:104670004503109244038FEF8093490380934A03CC
:1046800080934B0380934C03D4E0D0934D0380E898
:104690009AE1A6E0B0E080935A0390935B03A09365
:1046A0005C03B0935D0380EA96E8A1E0B0E08093FC
:1046B0005E0390935F03A0936003B093610380E572
:1046C00080936303109264031092EF021092EE0243
:1046D00084E591E09093ED028093EC021092F30256
:1046E0001092F40280ED97E0A0E0B0E08093FC022D
:1046F0009093FD02A093FE02B093FF0286E290E049
:10470000A0E0B0E08093000390930103A093020324
:10471000B09303031092F8021092F9021092FA0279
:104720001092FB021092F7020E946E0E6093040337
:104730007093050380930603909307031092080378
:104740001092090310920A0310920B038AE691E07B
:104750009093ED028093EC0282E090E090930E0340
:1047600080930D0380E280930C0390E890930F03F5
:104770001092100390E4909311038093120380E150
:104780008093130388E080931403D093150382E091
:1047900080931603C0931703809318031092D702D7
:1047A0001092DE021092E5021092E6021092E702E9
:1047B0001092E802C093E402C093E1021092E20278
:1047C0008093E302C093D6028FE090E09093DB02E7
:1047D0008093DA020E94FA2E9093E0028093DF0227
:1047E000009799F12FE0FC0111922A95E9F785E0F5
:1047F00090E09093D9028093D8028CE090E090935F
:10480000DD028093DC028091D702882341F061E0D1
:104810008CE00E942B0E60E08CE00E94FD0DE1E830
:10482000FAE1E491F0E0EE0FFF1FE559F54E8591B6
:1048300094919093EA028093E902E3E6FAE1E4912D
:10484000E093EB02DF91CF9108951092DB0210927A
:10485000DA021092D9021092D802CFCFCF93DF9311
:10486000CDB7DEB7EE970FB6F894DEBF0FBECDBF63
:10487000789484B5826084BD84B5816084BD85B53B
:10488000826085BD85B5816085BD80916E00816047
:1048900080936E00109281008091810082608093ED
:1048A00081008091810081608093810080918000EF
:1048B0008160809380008091B10084608093B1001A
:1048C0008091B00081608093B00080917A00846014
:1048D00080937A0080917A00826080937A00809140
:1048E0007A00816080937A0080917A00806880935A
:1048F0007A001092C1008091F80281110CC0809161
:10490000F902811108C08091FA02811104C08091DE
:10491000FB02882321F08091F3028F7E59F01092E0
:10492000F80280E48093F90280E18093FA0280E546
:104930008093FB0282E08093F40280E18093F30293
:1049400064E670E080E090E00E94930E1092F00226
:104950008CEE92E00E946D1E892B09F05CC0809164
:10496000F402823028F08091F00288608093F00297
:1049700040E362E070E08CEE92E00E94C51B65E0CF
:1049800070E080E090E00E94930E40E362E070E00F
:104990008CEE92E00E94C51B61E070E080E090E048
:1049A0000E94930E40E362E070E08CEE92E00E9481
:1049B000C51B61E070E080E090E00E94930E809162
:1049C000F00284FD07C040E262E070E08CEE92E00D
:1049D0000E94C51B6091F00260628CEE92E00E9422
:1049E000C50E84E08093F1026CE08CEE92E00E94B0
:1049F000C50E61E08CEE92E00E94C50E82E08093CD
:104A0000F20266E08CEE92E00E94C50E6FEF8CEE33
:104A100092E00E94911B8091EE029091EF029C83A4
:104A20008B838091F0028D838091F1028E8380913F
:104A3000F2028F838091F30288878091F402898744
:104A40008091F5028A878091F6028B878091F70228
:104A50008C878091F8029091F902A091FA02B091AE
:104A6000FB028D879E87AF87B88B8091FC02909167
:104A7000FD02A091FE02B091FF02898B9A8BAB8B55
:104A8000BC8B8091000390910103A0910203B0912F
:104A900003038D8B9E8BAF8BB88F80910403909115
:104AA0000503A0910603B0910703898F9A8FAB8FFE
:104AB000BC8F8091080390910903A0910A03B091E3
:104AC0000B038D8F9E8FAF8FB8A38AE691E09A83F8
:104AD000898380910C0389A380910D0390910E032B
:104AE0009BA38AA380910F038CA3809110038DA3B5
:104AF000809111038EA3809112038FA380911303E1
:104B000088A78091140389A7809115038AA78091B3
:104B100016038BA7809117038CA7809118038DA78C
:104B20001DAA1CAA1FAA1EAA19AE18AE4FE050E07B
:104B30006EEA71E0CE01C4960E94F6201FA61EA662
:104B400019AA18AA1BAA1AAA46E050E06EEB71E057
:104B5000CE018E960E94F62061E0CE0101960E9461
:104B6000C50E60E0CE0101960E94FD0E65EC71E07D
:104B7000CE0101960E94EA2061E0CE0101960E94DA
:104B8000FD0E10E000E060E1E62EF12C88AD99AD5D
:104B90009701281B390BC9019695879508171907A6
:104BA00048F465EE71E0CE0101960E94EA200F5FA5
:104BB0001F4FECCF6EEA71E0CE0101960E94EA2011
:104BC00064EC79E080E090E00E94930E61E0CE0119
:104BD00001960E94FD0E66ED71E0CE0101960E94E5
:104BE000EA2061E0CE0101960E94FD0E10E000E097
:104BF00040E1E42EF12C8AA99BA9A701481B590B7F
:104C0000CA01969587950817190748F465EE71E073
:104C1000CE0101960E94EA200F5F1F4FECCF6EEB92
:104C200071E0CE0101960E94EA2064EC79E080E018
:104C300090E00E94930E61E0CE0101960E94C50EA5
:104C400064E670E080E090E00E94930E8EA59FA540
:104C5000009711F00E94962F8CA99DA9009711F042
:104C60000E94962F8091440390914503892B39F13E
:104C70000E944C2080912B0390912C03609129037A
:104C800070912A03813291050CF02BC2AC01405285
:104C9000510957FF02C04F5F5F4F559547956357C6
:104CA000710977FF02C06F5F7F4F75956795F0E2DE
:104CB000EF2EF12C03E710E022EB35E02AC2209121
:104CC0002B0330912C03C901079697FD079623E02B
:104CD000959587952A95E1F72091290330912A032C
:104CE000DC01A29FC001A39F900DB29F900D1124E3
:104CF0000E94FA2E9093450380934403892B09F078
:104D0000B7CF0E944C2084E0809383020E94B30FAF
:104D10008091830280620E94710D60E089E193E0DE
:104D20000E9441106FEF89E193E00E94411060E022
:104D300089E193E00E94411060E089E193E00E94E4
:104D4000411060E089E193E00E94411060E089E158
:104D500093E00E94411060E089E193E00E944110DD
:104D600060E089E193E00E94411060E089E193E016
:104D70000E94411060E089E193E00E94411060E0F0
:104D800089E193E00E94411089E193E00E9475104F
:104D900010E000E0EE24E394F12C80E00E940B1D73
:104DA000B701002E01C0660F0A94EAF760956823E8
:104DB00080E00E945C110F5F1F4F0830110569F7FA
:104DC0008091DC029091DD0297FD08C061E00E94B5
:104DD0002B0E60E08091DC020E94FD0D81E080934B
:104DE000D70260E080E10E942B0E60E081E10E942A
:104DF0002B0E60E08FE00E942B0E60E087E00E94A7
:104E00002B0E60E084E00E942B0E60E086E00E94A2
:104E10002B0E60E085E00E942B0E60E088E00E948F
:104E20002B0E812CF4E29F2EF4EFAF2EB12C6624D2
:104E30006394712C01E010E08FE00E945C0E2091E1
:104E4000D8023091D9020217130708F04BC0BC01F9
:104E5000990F880B990B0E948D2C20E030EC4FE7C6
:104E600054E40E942A2E20E030E04FE753E40E94F1
:104E7000C82C0E94A32E8091DE0234E622E3882310
:104E800071F0B2E38B9F90011124232F869FB00114
:104E90001124672FE4E68E9FC0011124392FE09181
:104EA000E4028091DF029091E0024091E102E4137C
:104EB000DDC2A801440F551F400F511F840F951FDD
:104EC000E091E102E80FF92FF11D2083E091E20269
:104ED000E80FF92FF11D60832091E302820F911DED
:104EE000DC013C930F5F1F4F0530110509F0A4CF83
:104EF0008091DF029091E002892B09F480C020901C
:104F0000E5023090E6024090E7025090E8020E94ED
:104F10006E0E621573058405950550F40E946E0EA1
:104F20006093E5027093E6028093E7029093E802B3
:104F30000E946E0E0091E5021091E6022091E702B8
:104F40003091E802601B710B820B930B6C32714045
:104F500081059105A0F2F8948091DA029091DB022C
:104F60009A838983E091DF02F091E002DF011196DC
:104F700080818EAF9091D602E091E902F091EA0231
:104F80008091EB02992309F47DC29081982B9DAF0B
:104F90009081809589238CAF8CAD8CAB28E02EA7B7
:104FA0005DAD6CAD4EAD3EA52CA989819A81508333
:104FB00047FD252F3A952083262F39F0441F00C046
:104FC00000006083000000C0F2CF38E04D916083A4
:104FD0000000019761F7F093EA02E093E9024EAF17
:104FE0003EA72CAB9A83898378940E946E0E6093BF
:104FF000E5027093E6028093E7029093E80288E06E
:105000000E94D40D892B89F000917D0210917E02BF
:1050100064EF71E080E090E00E94930E012B09F0B4
:105020006AC270927E0260927D0280917D029091B0
:105030007E02892B09F064C283E60E94271D80E16D
:105040000E945C0EBC01990F880B990B0E948D2C5D
:1050500020E030E040E05EE30E94C82C20E030E039
:1050600040EB51E40E94BD2D0E949C2E70937C0267
:1050700060937B0281E10E945C0EBC01990F880B5A
:10508000990B0E948D2C20E030EC4FE754E40E94F5
:105090002A2E20E030E048EC52E40E94C82C0E9406
:1050A0009C2E70937A026093790287E00E94D40D5F
:1050B000892B09F050C284E00E94D40D892B09F09D
:1050C0001DC386E00E94D40D892B09F01BC385E027
:1050D0000E94D40D892B09F440C2A3E0CA2ED12C22
:1050E0003CC2AC014054510957FF02C04F5F5F4FB3
:1050F000559547956255710977FF02C06F5F7F4FE5
:105100007595679510E4E12EF12C02E510E022E997
:1051100037E085E293E00E945C1682E080934703CB
:105120008091420390914303892B09F4A9C08CE339
:10513000809346030E94B30F8091420390914303F2
:10514000892B09F45CC120915A0330915B03409193
:105150005C0350915D0360E074E284EF90E00E9494
:10516000D22E20513109410951095695479537955D
:1051700027952093B80064E08EEA95E00E94DA1942
:1051800060912B03615085E293E00E947D1A64E0F8
:105190008AEA95E00E94DA198091470360E1813044
:1051A00009F064E185E293E00E947D1A64E086EAFA
:1051B00095E00E94DA198FE88093620380912903B9
:1051C00090912A038038910509F032C180912B0318
:1051D00090912C038034910509F03AC180914703E6
:1051E000813009F023C18FE98093620312E16AEDF7
:1051F00085E293E00E947D1A612F85E293E00E9490
:105200007D1A61E885E293E00E947D1A6091620355
:1052100085E293E00E947D1A69ED85E293E00E94A9
:105220007D1A8091470362E2813009F061EF85E2E7
:1052300093E00E947D1A66E080EA95E00E94DA1908
:105240008091420390914303892B09F405C1209179
:105250005E0330915F03409160035091610360E011
:1052600074E284EF90E00E94D22E2051310941096E
:10527000510956954795379527952093B80041CD0C
:1052800061E080914B030E942B0E61E080914C0302
:105290000E942B0E80914B03082E000C990BFC01F1
:1052A000EB58F54EE491F0E0EE0FFF1FE559F54E97
:1052B000259134913093530320935203FC01E95A12
:1052C000F54EE491E093580380914C03082E000CB6
:1052D000990BFC01EB58F54EE491F0E0EE0FFF1F47
:1052E000E559F54EA591B491B0935503A09354039D
:1052F000FC01E95AF54EE491E09359038C91E82BB7
:10530000EC938091400390914103892B09F434C0C0
:105310001FB7F89480916E02811127C0EFE7FAE180
:105320008491E1E6FAE19491E82FF0E0EE0FFF1F9F
:10533000EA56FA4FA591B491EC91E92321F461E08A
:105340008AE00E94FD0D61E08AE00E942B0E8CB580
:1053500080618CBD8CB580648CBD61E08DE00E9465
:105360002B0E61E08BE00E942B0E80916E028F5F0E
:1053700080936E021FBFE0CE61E0809149030E94DE
:105380002B0E61E080914A030E942B0E809149030D
:10539000082E000C990BFC01EB58F54EE491F0E05F
:1053A000EE0FFF1FE559F54E2591349130934F03D1
:1053B00020934E03FC01E95AF54EE491E093560325
:1053C00080914A03082E000C990BFC01EB58F54E16
:1053D000E491F0E0EE0FFF1FE559F54EA591B49171
:1053E000B0935103A0935003FC01E95AF54EE491A8
:1053F000E09357038C91E095E823EC939DCE809148
:10540000400390914103892B31F080916303909187
:1054100064030E94DA1AE0915403F09155039081DD
:1054200080915903809589238083A5CE8FECDCCEB3
:105430008036910569F480912B0390912C0340975D
:1054400039F480914703813029F480E1809362032D
:1054500012E0CDCE8FEAFACFE0915403F0915503DC
:10546000808190915903892B80834BCCA801440FF4
:10547000551F440F551F840F951FE80FF92FF11D7D
:1054800010821ECD9081982B9DAF908180958923AD
:105490008CAF8CAD8BAF38E03AAF5DAD6CAD4EAD3F
:1054A0003AAD2BAD89819A81508347FD252F00C0ED
:1054B00000C0208300C000C000C000C000C06083E6
:1054C0000000262F3A9541F0441F000000C000C0A4
:1054D00000C000C000C0E8CF38E04D9100C060833C
:1054E00000C0019709F7F093EA02E093E9024EAF9A
:1054F0003AAF2BAF77CD10927E0210927D0295CD00
:1055000086E60E94271D80E10E945C0EBC01990F77
:10551000880B990B0E948D2C20E030E040E05EE388
:105520000E94C82C20E030E040EB51E40E94BD2DE9
:1055300020E030E040E151E40E94C82C20E030E05F
:1055400040EA50E40E942A2E20E030E040E052E49D
:105550000E94BE2D89CDD12CC12CD0927802C09250
:1055600077022FB7F89480916F0290917002A0910A
:105570007102B09172022FBF409173025091740278
:105580006091750270917602481759076A077B0788
:1055900008F04DC10E944C20209177023091780292
:1055A000220F331F80910001322F2227330F8823CF
:1055B00009F4ACC0295A354F70E4E72EF12C00E411
:1055C00010E050E040E060E270E085E293E00E948D
:1055D0005C168091000191E0892780930001809101
:1055E000420390914303892B09F493C020915A03FD
:1055F00030915B0340915C0350915D03C501B401A0
:105600000E94D22E205131094109510956954795E2
:10561000379527952093B80065E082E59AE00E94CF
:10562000DA1960912903615085E293E00E947D1AA6
:1056300020912B0330912C03C901079697FD079603
:1056400023E0959587952A95E1F7209129033091DC
:105650002A03829F7001839FF00C929FF00C11240B
:1056600000914403109145038091420390914303BC
:10567000E00EF11E892B09F4E2C0809146030E94DE
:10568000710D8091420390914303DC01ED91FC91F7
:105690000190F081E02D60E409952224239480910B
:1056A000420390914303E016F10609F449C0BFE1BB
:1056B000B215A0F40E947510809146030E94710DEE
:1056C0008091420390914303DC01ED91FC910190A4
:1056D000F081E02D60E40995222423948091420317
:1056E00090914303F80161918F01DC01ED91FC91F0
:1056F0000190F081E02D09952394D1CFCC24C3945F
:10570000D12C2BCFB2E0CB2ED12C27CF295A334F1F
:1057100053CF8091400390914103892B31F08091C8
:105720006303909164030E94DA1AE0915403F091AC
:1057300055039081809159038095892380836CCF94
:105740000E9475108091420390914303892B09F4C4
:10575000BAC020915E0330915F0340916003509185
:105760006103C501B4010E94D22E205131094109C3
:10577000510956954795379527952093B8002FB72F
:10578000F89460916F027091700280917102909113
:1057900072022FBF0E948B2C20E030E048E453E4DB
:1057A0000E94BE2D0E94A32E609373027093740218
:1057B000809375029093760260E08CEE92E00E94F6
:1057C000FD0E67EE71E08CEE92E00E94EA2080917F
:1057D0007B0290917C020E94BA206FED8CEE92E0E9
:1057E0000E94240F80917D0290917E0268EA71E010
:1057F000892B11F06BEA71E08CEE92E00E94EA20B6
:1058000061E08CEE92E00E94FD0E64EF71E08CEEA0
:1058100092E00E94EA208091790290917A020E949F
:10582000BA2061E072E08CEE92E00E94EA2080E013
:1058300090E0892B09F4FECA0E940000FBCAE091A7
:105840005203F0915303808190915803892B8083F8
:10585000E016F10609F476CFF80181918F012091CD
:10586000400330914103232B19F00E94D319F0CF4C
:1058700028E030E040E8E0914E03F0914F03909132
:105880005603582F5423D9F05081952B9083E091E3
:105890005003F0915103908150915703952B9083C1
:1058A000E0915003F09151035081909157039095EE
:1058B00095239083469521503109E9F6C9CF50814F
:1058C00090959523E3CFE0915403F09155038081A7
:1058D00090915903892B808352CF8091DF02909160
:1058E000E0020E94962F8091DC029091DD0297FDEC
:1058F00003C060E00E942B0E80E891E090932603A5
:10590000809325038091440390914503009711F003
:105910000C94962F0895E89409C097FB3EF4909557
:105920008095709561957F4F8F4F9F4F9923A9F078
:10593000F92F96E9BB279395F69587957795679507
:10594000B795F111F8CFFAF4BB0F11F460FF1BC04B
:105950006F5F7F4F8F4F9F4F16C0882311F096E9DE
:1059600011C0772321F09EE8872F762F05C066238C
:1059700071F096E8862F70E060E02AF09A95660F45
:10598000771F881FDAF7880F9695879597F90895FE
:105990000E94DB2C0C944C2D0E943E2D38F00E946E
:1059A000452D20F0952311F00C94352D0C943B2DB2
:1059B00011240C94802D0E945D2D70F3959FC1F3EE
:1059C000950F50E0551F629FF001729FBB27F00DAD
:1059D000B11D639FAA27F00DB11DAA1F649F662702
:1059E000B00DA11D661F829F2227B00DA11D621F51
:1059F000739FB00DA11D621F839FA00D611D221F0B
:105A0000749F3327A00D611D231F849F600D211DEE
:105A1000822F762F6A2F11249F5750409AF0F1F071
:105A200088234AF0EE0FFF1FBB1F661F771F881FDA
:105A300091505040A9F79E3F510580F00C94352DB0
:105A40000C94802D5F3FE4F3983ED4F386957795D0
:105A50006795B795F795E7959F5FC1F7FE2B880F80
:105A6000911D9695879597F9089597F99F6780E816
:105A700070E060E008959FEF80EC089500240A94A0
:105A80001616170618060906089500240A94121619
:105A90001306140605060895092E0394000C11F44C
:105AA000882352F0BB0F40F4BF2B11F460FF04C0F9
:105AB0006F5F7F4F8F4F9F4F089557FD9058440F52
:105AC000551F59F05F3F71F04795880F97FB991F5D
:105AD00061F09F3F79F0879508951216130614061A
